{
	"src/UniswapV3Pool.sol": {
		"UniswapV3Pool": {
			"abi": [
				{
					"inputs": [
						{
							"internalType": "address",
							"name": "token0_",
							"type": "address"
						},
						{
							"internalType": "address",
							"name": "token1_",
							"type": "address"
						},
						{
							"internalType": "uint160",
							"name": "sqrtPriceX96",
							"type": "uint160"
						},
						{
							"internalType": "int24",
							"name": "tick",
							"type": "int24"
						}
					],
					"stateMutability": "nonpayable",
					"type": "constructor"
				},
				{
					"inputs": [],
					"name": "InsufficientInputAmount",
					"type": "error"
				},
				{
					"inputs": [],
					"name": "InvalidTickRange",
					"type": "error"
				},
				{
					"inputs": [],
					"name": "ZeroLiquidity",
					"type": "error"
				},
				{
					"anonymous": false,
					"inputs": [
						{
							"indexed": true,
							"internalType": "address",
							"name": "owner",
							"type": "address"
						},
						{
							"indexed": true,
							"internalType": "int24",
							"name": "tickLower",
							"type": "int24"
						},
						{
							"indexed": true,
							"internalType": "int24",
							"name": "tickUpper",
							"type": "int24"
						},
						{
							"indexed": false,
							"internalType": "uint128",
							"name": "amount",
							"type": "uint128"
						},
						{
							"indexed": false,
							"internalType": "uint256",
							"name": "amount0",
							"type": "uint256"
						},
						{
							"indexed": false,
							"internalType": "uint256",
							"name": "amount1",
							"type": "uint256"
						}
					],
					"name": "Burn",
					"type": "event"
				},
				{
					"anonymous": false,
					"inputs": [
						{
							"indexed": true,
							"internalType": "address",
							"name": "owner",
							"type": "address"
						},
						{
							"indexed": false,
							"internalType": "address",
							"name": "recipient",
							"type": "address"
						},
						{
							"indexed": true,
							"internalType": "int24",
							"name": "tickLower",
							"type": "int24"
						},
						{
							"indexed": true,
							"internalType": "int24",
							"name": "tickUpper",
							"type": "int24"
						},
						{
							"indexed": false,
							"internalType": "uint128",
							"name": "amount0",
							"type": "uint128"
						},
						{
							"indexed": false,
							"internalType": "uint128",
							"name": "amount1",
							"type": "uint128"
						}
					],
					"name": "Collect",
					"type": "event"
				},
				{
					"anonymous": false,
					"inputs": [
						{
							"indexed": true,
							"internalType": "address",
							"name": "sender",
							"type": "address"
						},
						{
							"indexed": true,
							"internalType": "address",
							"name": "recipient",
							"type": "address"
						},
						{
							"indexed": false,
							"internalType": "uint128",
							"name": "amount0",
							"type": "uint128"
						},
						{
							"indexed": false,
							"internalType": "uint128",
							"name": "amount1",
							"type": "uint128"
						}
					],
					"name": "CollectProtocol",
					"type": "event"
				},
				{
					"anonymous": false,
					"inputs": [
						{
							"indexed": true,
							"internalType": "address",
							"name": "sender",
							"type": "address"
						},
						{
							"indexed": true,
							"internalType": "address",
							"name": "recipient",
							"type": "address"
						},
						{
							"indexed": false,
							"internalType": "uint256",
							"name": "amount0",
							"type": "uint256"
						},
						{
							"indexed": false,
							"internalType": "uint256",
							"name": "amount1",
							"type": "uint256"
						},
						{
							"indexed": false,
							"internalType": "uint256",
							"name": "paid0",
							"type": "uint256"
						},
						{
							"indexed": false,
							"internalType": "uint256",
							"name": "paid1",
							"type": "uint256"
						}
					],
					"name": "Flash",
					"type": "event"
				},
				{
					"anonymous": false,
					"inputs": [
						{
							"indexed": false,
							"internalType": "uint16",
							"name": "observationCardinalityNextOld",
							"type": "uint16"
						},
						{
							"indexed": false,
							"internalType": "uint16",
							"name": "observationCardinalityNextNew",
							"type": "uint16"
						}
					],
					"name": "IncreaseObservationCardinalityNext",
					"type": "event"
				},
				{
					"anonymous": false,
					"inputs": [
						{
							"indexed": false,
							"internalType": "uint160",
							"name": "sqrtPriceX96",
							"type": "uint160"
						},
						{
							"indexed": false,
							"internalType": "int24",
							"name": "tick",
							"type": "int24"
						}
					],
					"name": "Initialize",
					"type": "event"
				},
				{
					"anonymous": false,
					"inputs": [
						{
							"indexed": false,
							"internalType": "address",
							"name": "sender",
							"type": "address"
						},
						{
							"indexed": true,
							"internalType": "address",
							"name": "owner",
							"type": "address"
						},
						{
							"indexed": true,
							"internalType": "int24",
							"name": "tickLower",
							"type": "int24"
						},
						{
							"indexed": true,
							"internalType": "int24",
							"name": "tickUpper",
							"type": "int24"
						},
						{
							"indexed": false,
							"internalType": "uint128",
							"name": "amount",
							"type": "uint128"
						},
						{
							"indexed": false,
							"internalType": "uint256",
							"name": "amount0",
							"type": "uint256"
						},
						{
							"indexed": false,
							"internalType": "uint256",
							"name": "amount1",
							"type": "uint256"
						}
					],
					"name": "Mint",
					"type": "event"
				},
				{
					"anonymous": false,
					"inputs": [
						{
							"indexed": false,
							"internalType": "uint8",
							"name": "feeProtocol0Old",
							"type": "uint8"
						},
						{
							"indexed": false,
							"internalType": "uint8",
							"name": "feeProtocol1Old",
							"type": "uint8"
						},
						{
							"indexed": false,
							"internalType": "uint8",
							"name": "feeProtocol0New",
							"type": "uint8"
						},
						{
							"indexed": false,
							"internalType": "uint8",
							"name": "feeProtocol1New",
							"type": "uint8"
						}
					],
					"name": "SetFeeProtocol",
					"type": "event"
				},
				{
					"anonymous": false,
					"inputs": [
						{
							"indexed": true,
							"internalType": "address",
							"name": "sender",
							"type": "address"
						},
						{
							"indexed": true,
							"internalType": "address",
							"name": "recipient",
							"type": "address"
						},
						{
							"indexed": false,
							"internalType": "int256",
							"name": "amount0",
							"type": "int256"
						},
						{
							"indexed": false,
							"internalType": "int256",
							"name": "amount1",
							"type": "int256"
						},
						{
							"indexed": false,
							"internalType": "uint160",
							"name": "sqrtPriceX96",
							"type": "uint160"
						},
						{
							"indexed": false,
							"internalType": "uint128",
							"name": "liquidity",
							"type": "uint128"
						},
						{
							"indexed": false,
							"internalType": "int24",
							"name": "tick",
							"type": "int24"
						}
					],
					"name": "Swap",
					"type": "event"
				},
				{
					"inputs": [],
					"name": "liquidity",
					"outputs": [
						{
							"internalType": "uint128",
							"name": "",
							"type": "uint128"
						}
					],
					"stateMutability": "view",
					"type": "function"
				},
				{
					"inputs": [
						{
							"internalType": "address",
							"name": "owner",
							"type": "address"
						},
						{
							"internalType": "int24",
							"name": "lowerTick",
							"type": "int24"
						},
						{
							"internalType": "int24",
							"name": "upperTick",
							"type": "int24"
						},
						{
							"internalType": "uint128",
							"name": "amount",
							"type": "uint128"
						},
						{
							"internalType": "bytes",
							"name": "data",
							"type": "bytes"
						}
					],
					"name": "mint",
					"outputs": [
						{
							"internalType": "uint256",
							"name": "amount0",
							"type": "uint256"
						},
						{
							"internalType": "uint256",
							"name": "amount1",
							"type": "uint256"
						}
					],
					"stateMutability": "nonpayable",
					"type": "function"
				},
				{
					"inputs": [
						{
							"internalType": "bytes32",
							"name": "",
							"type": "bytes32"
						}
					],
					"name": "positions",
					"outputs": [
						{
							"internalType": "uint128",
							"name": "liquidity",
							"type": "uint128"
						}
					],
					"stateMutability": "view",
					"type": "function"
				},
				{
					"inputs": [],
					"name": "slot0",
					"outputs": [
						{
							"internalType": "uint160",
							"name": "sqrtPriceX96",
							"type": "uint160"
						},
						{
							"internalType": "int24",
							"name": "tick",
							"type": "int24"
						}
					],
					"stateMutability": "view",
					"type": "function"
				},
				{
					"inputs": [
						{
							"internalType": "address",
							"name": "recipient",
							"type": "address"
						},
						{
							"internalType": "bytes",
							"name": "data",
							"type": "bytes"
						}
					],
					"name": "swap",
					"outputs": [
						{
							"internalType": "int256",
							"name": "amount0",
							"type": "int256"
						},
						{
							"internalType": "int256",
							"name": "amount1",
							"type": "int256"
						}
					],
					"stateMutability": "nonpayable",
					"type": "function"
				},
				{
					"inputs": [
						{
							"internalType": "int16",
							"name": "",
							"type": "int16"
						}
					],
					"name": "tickBitmap",
					"outputs": [
						{
							"internalType": "uint256",
							"name": "",
							"type": "uint256"
						}
					],
					"stateMutability": "view",
					"type": "function"
				},
				{
					"inputs": [
						{
							"internalType": "int24",
							"name": "",
							"type": "int24"
						}
					],
					"name": "ticks",
					"outputs": [
						{
							"internalType": "bool",
							"name": "initialized",
							"type": "bool"
						},
						{
							"internalType": "uint128",
							"name": "liquidity",
							"type": "uint128"
						}
					],
					"stateMutability": "view",
					"type": "function"
				},
				{
					"inputs": [],
					"name": "token0",
					"outputs": [
						{
							"internalType": "address",
							"name": "",
							"type": "address"
						}
					],
					"stateMutability": "view",
					"type": "function"
				},
				{
					"inputs": [],
					"name": "token1",
					"outputs": [
						{
							"internalType": "address",
							"name": "",
							"type": "address"
						}
					],
					"stateMutability": "view",
					"type": "function"
				}
			],
			"devdoc": {
				"events": {
					"Burn(address,int24,int24,uint128,uint256,uint256)": {
						"details": "Does not withdraw any fees earned by the liquidity position, which must be withdrawn via #collect",
						"params": {
							"amount": "The amount of liquidity to remove",
							"amount0": "The amount of token0 withdrawn",
							"amount1": "The amount of token1 withdrawn",
							"owner": "The owner of the position for which liquidity is removed",
							"tickLower": "The lower tick of the position",
							"tickUpper": "The upper tick of the position"
						}
					},
					"Collect(address,address,int24,int24,uint128,uint128)": {
						"details": "Collect events may be emitted with zero amount0 and amount1 when the caller chooses not to collect fees",
						"params": {
							"amount0": "The amount of token0 fees collected",
							"amount1": "The amount of token1 fees collected",
							"owner": "The owner of the position for which fees are collected",
							"tickLower": "The lower tick of the position",
							"tickUpper": "The upper tick of the position"
						}
					},
					"CollectProtocol(address,address,uint128,uint128)": {
						"params": {
							"amount0": "The amount of token1 protocol fees that is withdrawn",
							"recipient": "The address that receives the collected protocol fees",
							"sender": "The address that collects the protocol fees"
						}
					},
					"Flash(address,address,uint256,uint256,uint256,uint256)": {
						"params": {
							"amount0": "The amount of token0 that was flashed",
							"amount1": "The amount of token1 that was flashed",
							"paid0": "The amount of token0 paid for the flash, which can exceed the amount0 plus the fee",
							"paid1": "The amount of token1 paid for the flash, which can exceed the amount1 plus the fee",
							"recipient": "The address that received the tokens from flash",
							"sender": "The address that initiated the swap call, and that received the callback"
						}
					},
					"IncreaseObservationCardinalityNext(uint16,uint16)": {
						"details": "observationCardinalityNext is not the observation cardinality until an observation is written at the index just before a mint/swap/burn.",
						"params": {
							"observationCardinalityNextNew": "The updated value of the next observation cardinality",
							"observationCardinalityNextOld": "The previous value of the next observation cardinality"
						}
					},
					"Initialize(uint160,int24)": {
						"details": "Mint/Burn/Swap cannot be emitted by the pool before Initialize",
						"params": {
							"sqrtPriceX96": "The initial sqrt price of the pool, as a Q64.96",
							"tick": "The initial tick of the pool, i.e. log base 1.0001 of the starting price of the pool"
						}
					},
					"Mint(address,address,int24,int24,uint128,uint256,uint256)": {
						"params": {
							"amount": "The amount of liquidity minted to the position range",
							"amount0": "How much token0 was required for the minted liquidity",
							"amount1": "How much token1 was required for the minted liquidity",
							"owner": "The owner of the position and recipient of any minted liquidity",
							"sender": "The address that minted the liquidity",
							"tickLower": "The lower tick of the position",
							"tickUpper": "The upper tick of the position"
						}
					},
					"SetFeeProtocol(uint8,uint8,uint8,uint8)": {
						"params": {
							"feeProtocol0New": "The updated value of the token0 protocol fee",
							"feeProtocol0Old": "The previous value of the token0 protocol fee",
							"feeProtocol1New": "The updated value of the token1 protocol fee",
							"feeProtocol1Old": "The previous value of the token1 protocol fee"
						}
					},
					"Swap(address,address,int256,int256,uint160,uint128,int24)": {
						"params": {
							"amount0": "The delta of the token0 balance of the pool",
							"amount1": "The delta of the token1 balance of the pool",
							"liquidity": "The liquidity of the pool after the swap",
							"recipient": "The address that received the output of the swap",
							"sender": "The address that initiated the swap call, and that received the callback",
							"sqrtPriceX96": "The sqrt(price) of the pool after the swap, as a Q64.96",
							"tick": "The log base 1.0001 of price of the pool after the swap"
						}
					}
				},
				"kind": "dev",
				"methods": {},
				"version": 1
			},
			"evm": {
				"assembly": "    /* \"src/UniswapV3Pool.sol\":360:4652  contract UniswapV3Pool is ... */\n  mstore(0x40, 0xc0)\n    /* \"src/UniswapV3Pool.sol\":1431:1682  constructor(... */\n  callvalue\n  dup1\n  iszero\n  tag_1\n  jumpi\n  revert(0x00, 0x00)\ntag_1:\n  pop\n  mload(0x40)\n  sub(codesize, bytecodeSize)\n  dup1\n  bytecodeSize\n  dup4\n  codecopy\n  dup2\n  dup2\n  add\n  0x40\n  mstore\n  dup2\n  add\n  swap1\n  tag_2\n  swap2\n  swap1\n  tag_3\n  jump\t// in\ntag_2:\n    /* \"src/UniswapV3Pool.sol\":1574:1581  token0_ */\n  dup4\n    /* \"src/UniswapV3Pool.sol\":1565:1581  token0 = token0_ */\n  0xffffffffffffffffffffffffffffffffffffffff\n  and\n  0x80\n  dup2\n  0xffffffffffffffffffffffffffffffffffffffff\n  and\n  dup2\n  mstore\n  pop\n  pop\n    /* \"src/UniswapV3Pool.sol\":1601:1608  token1_ */\n  dup3\n    /* \"src/UniswapV3Pool.sol\":1592:1608  token1 = token1_ */\n  0xffffffffffffffffffffffffffffffffffffffff\n  and\n  0xa0\n  dup2\n  0xffffffffffffffffffffffffffffffffffffffff\n  and\n  dup2\n  mstore\n  pop\n  pop\n    /* \"src/UniswapV3Pool.sol\":1627:1674  Slot0({sqrtPriceX96: sqrtPriceX96, tick: tick}) */\n  mload(0x40)\n  dup1\n  0x40\n  add\n  0x40\n  mstore\n  dup1\n    /* \"src/UniswapV3Pool.sol\":1648:1660  sqrtPriceX96 */\n  dup4\n    /* \"src/UniswapV3Pool.sol\":1627:1674  Slot0({sqrtPriceX96: sqrtPriceX96, tick: tick}) */\n  0xffffffffffffffffffffffffffffffffffffffff\n  and\n  dup2\n  mstore\n  0x20\n  add\n    /* \"src/UniswapV3Pool.sol\":1668:1672  tick */\n  dup3\n    /* \"src/UniswapV3Pool.sol\":1627:1674  Slot0({sqrtPriceX96: sqrtPriceX96, tick: tick}) */\n  0x02\n  signextend\n  dup2\n  mstore\n  pop\n    /* \"src/UniswapV3Pool.sol\":1619:1624  slot0 */\n  0x00\n    /* \"src/UniswapV3Pool.sol\":1619:1674  slot0 = Slot0({sqrtPriceX96: sqrtPriceX96, tick: tick}) */\n  0x00\n  dup3\n  add\n  mload\n  dup2\n  0x00\n  add\n  exp(0x0100, 0x00)\n  dup2\n  sload\n  dup2\n  0xffffffffffffffffffffffffffffffffffffffff\n  mul\n  not\n  and\n  swap1\n  dup4\n  0xffffffffffffffffffffffffffffffffffffffff\n  and\n  mul\n  or\n  swap1\n  sstore\n  pop\n  0x20\n  dup3\n  add\n  mload\n  dup2\n  0x00\n  add\n  exp(0x0100, 0x14)\n  dup2\n  sload\n  dup2\n  0xffffff\n  mul\n  not\n  and\n  swap1\n  dup4\n  0x02\n  signextend\n  0xffffff\n  and\n  mul\n  or\n  swap1\n  sstore\n  pop\n  swap1\n  pop\n  pop\n    /* \"src/UniswapV3Pool.sol\":1431:1682  constructor(... */\n  pop\n  pop\n  pop\n  pop\n    /* \"src/UniswapV3Pool.sol\":360:4652  contract UniswapV3Pool is ... */\n  jump(tag_6)\n    /* \"#utility.yul\":88:205   */\ntag_8:\n    /* \"#utility.yul\":197:198   */\n  0x00\n    /* \"#utility.yul\":194:195   */\n  0x00\n    /* \"#utility.yul\":187:199   */\n  revert\n    /* \"#utility.yul\":334:460   */\ntag_10:\n    /* \"#utility.yul\":371:378   */\n  0x00\n    /* \"#utility.yul\":411:453   */\n  0xffffffffffffffffffffffffffffffffffffffff\n    /* \"#utility.yul\":404:409   */\n  dup3\n    /* \"#utility.yul\":400:454   */\n  and\n    /* \"#utility.yul\":389:454   */\n  swap1\n  pop\n    /* \"#utility.yul\":334:460   */\n  swap2\n  swap1\n  pop\n  jump\t// out\n    /* \"#utility.yul\":466:562   */\ntag_11:\n    /* \"#utility.yul\":503:510   */\n  0x00\n    /* \"#utility.yul\":532:556   */\n  tag_25\n    /* \"#utility.yul\":550:555   */\n  dup3\n    /* \"#utility.yul\":532:556   */\n  tag_10\n  jump\t// in\ntag_25:\n    /* \"#utility.yul\":521:556   */\n  swap1\n  pop\n    /* \"#utility.yul\":466:562   */\n  swap2\n  swap1\n  pop\n  jump\t// out\n    /* \"#utility.yul\":568:690   */\ntag_12:\n    /* \"#utility.yul\":641:665   */\n  tag_27\n    /* \"#utility.yul\":659:664   */\n  dup2\n    /* \"#utility.yul\":641:665   */\n  tag_11\n  jump\t// in\ntag_27:\n    /* \"#utility.yul\":634:639   */\n  dup2\n    /* \"#utility.yul\":631:666   */\n  eq\n    /* \"#utility.yul\":621:684   */\n  tag_28\n  jumpi\n    /* \"#utility.yul\":680:681   */\n  0x00\n    /* \"#utility.yul\":677:678   */\n  0x00\n    /* \"#utility.yul\":670:682   */\n  revert\n    /* \"#utility.yul\":621:684   */\ntag_28:\n    /* \"#utility.yul\":568:690   */\n  pop\n  jump\t// out\n    /* \"#utility.yul\":696:839   */\ntag_13:\n    /* \"#utility.yul\":753:758   */\n  0x00\n    /* \"#utility.yul\":784:790   */\n  dup2\n    /* \"#utility.yul\":778:791   */\n  mload\n    /* \"#utility.yul\":769:791   */\n  swap1\n  pop\n    /* \"#utility.yul\":800:833   */\n  tag_30\n    /* \"#utility.yul\":827:832   */\n  dup2\n    /* \"#utility.yul\":800:833   */\n  tag_12\n  jump\t// in\ntag_30:\n    /* \"#utility.yul\":696:839   */\n  swap3\n  swap2\n  pop\n  pop\n  jump\t// out\n    /* \"#utility.yul\":845:967   */\ntag_14:\n    /* \"#utility.yul\":918:942   */\n  tag_32\n    /* \"#utility.yul\":936:941   */\n  dup2\n    /* \"#utility.yul\":918:942   */\n  tag_10\n  jump\t// in\ntag_32:\n    /* \"#utility.yul\":911:916   */\n  dup2\n    /* \"#utility.yul\":908:943   */\n  eq\n    /* \"#utility.yul\":898:961   */\n  tag_33\n  jumpi\n    /* \"#utility.yul\":957:958   */\n  0x00\n    /* \"#utility.yul\":954:955   */\n  0x00\n    /* \"#utility.yul\":947:959   */\n  revert\n    /* \"#utility.yul\":898:961   */\ntag_33:\n    /* \"#utility.yul\":845:967   */\n  pop\n  jump\t// out\n    /* \"#utility.yul\":973:1116   */\ntag_15:\n    /* \"#utility.yul\":1030:1035   */\n  0x00\n    /* \"#utility.yul\":1061:1067   */\n  dup2\n    /* \"#utility.yul\":1055:1068   */\n  mload\n    /* \"#utility.yul\":1046:1068   */\n  swap1\n  pop\n    /* \"#utility.yul\":1077:1110   */\n  tag_35\n    /* \"#utility.yul\":1104:1109   */\n  dup2\n    /* \"#utility.yul\":1077:1110   */\n  tag_14\n  jump\t// in\ntag_35:\n    /* \"#utility.yul\":973:1116   */\n  swap3\n  swap2\n  pop\n  pop\n  jump\t// out\n    /* \"#utility.yul\":1122:1212   */\ntag_16:\n    /* \"#utility.yul\":1157:1164   */\n  0x00\n    /* \"#utility.yul\":1200:1205   */\n  dup2\n    /* \"#utility.yul\":1197:1198   */\n  0x02\n    /* \"#utility.yul\":1186:1206   */\n  signextend\n    /* \"#utility.yul\":1175:1206   */\n  swap1\n  pop\n    /* \"#utility.yul\":1122:1212   */\n  swap2\n  swap1\n  pop\n  jump\t// out\n    /* \"#utility.yul\":1218:1336   */\ntag_17:\n    /* \"#utility.yul\":1289:1311   */\n  tag_38\n    /* \"#utility.yul\":1305:1310   */\n  dup2\n    /* \"#utility.yul\":1289:1311   */\n  tag_16\n  jump\t// in\ntag_38:\n    /* \"#utility.yul\":1282:1287   */\n  dup2\n    /* \"#utility.yul\":1279:1312   */\n  eq\n    /* \"#utility.yul\":1269:1330   */\n  tag_39\n  jumpi\n    /* \"#utility.yul\":1326:1327   */\n  0x00\n    /* \"#utility.yul\":1323:1324   */\n  0x00\n    /* \"#utility.yul\":1316:1328   */\n  revert\n    /* \"#utility.yul\":1269:1330   */\ntag_39:\n    /* \"#utility.yul\":1218:1336   */\n  pop\n  jump\t// out\n    /* \"#utility.yul\":1342:1481   */\ntag_18:\n    /* \"#utility.yul\":1397:1402   */\n  0x00\n    /* \"#utility.yul\":1428:1434   */\n  dup2\n    /* \"#utility.yul\":1422:1435   */\n  mload\n    /* \"#utility.yul\":1413:1435   */\n  swap1\n  pop\n    /* \"#utility.yul\":1444:1475   */\n  tag_41\n    /* \"#utility.yul\":1469:1474   */\n  dup2\n    /* \"#utility.yul\":1444:1475   */\n  tag_17\n  jump\t// in\ntag_41:\n    /* \"#utility.yul\":1342:1481   */\n  swap3\n  swap2\n  pop\n  pop\n  jump\t// out\n    /* \"#utility.yul\":1487:2303   */\ntag_3:\n    /* \"#utility.yul\":1582:1588   */\n  0x00\n    /* \"#utility.yul\":1590:1596   */\n  0x00\n    /* \"#utility.yul\":1598:1604   */\n  0x00\n    /* \"#utility.yul\":1606:1612   */\n  0x00\n    /* \"#utility.yul\":1655:1658   */\n  0x80\n    /* \"#utility.yul\":1643:1652   */\n  dup6\n    /* \"#utility.yul\":1634:1641   */\n  dup8\n    /* \"#utility.yul\":1630:1653   */\n  sub\n    /* \"#utility.yul\":1626:1659   */\n  slt\n    /* \"#utility.yul\":1623:1743   */\n  iszero\n  tag_43\n  jumpi\n    /* \"#utility.yul\":1662:1741   */\n  tag_44\n  tag_8\n  jump\t// in\ntag_44:\n    /* \"#utility.yul\":1623:1743   */\ntag_43:\n    /* \"#utility.yul\":1782:1783   */\n  0x00\n    /* \"#utility.yul\":1807:1871   */\n  tag_45\n    /* \"#utility.yul\":1863:1870   */\n  dup8\n    /* \"#utility.yul\":1854:1860   */\n  dup3\n    /* \"#utility.yul\":1843:1852   */\n  dup9\n    /* \"#utility.yul\":1839:1861   */\n  add\n    /* \"#utility.yul\":1807:1871   */\n  tag_13\n  jump\t// in\ntag_45:\n    /* \"#utility.yul\":1797:1871   */\n  swap5\n  pop\n    /* \"#utility.yul\":1753:1881   */\n  pop\n    /* \"#utility.yul\":1920:1922   */\n  0x20\n    /* \"#utility.yul\":1946:2010   */\n  tag_46\n    /* \"#utility.yul\":2002:2009   */\n  dup8\n    /* \"#utility.yul\":1993:1999   */\n  dup3\n    /* \"#utility.yul\":1982:1991   */\n  dup9\n    /* \"#utility.yul\":1978:2000   */\n  add\n    /* \"#utility.yul\":1946:2010   */\n  tag_13\n  jump\t// in\ntag_46:\n    /* \"#utility.yul\":1936:2010   */\n  swap4\n  pop\n    /* \"#utility.yul\":1891:2020   */\n  pop\n    /* \"#utility.yul\":2059:2061   */\n  0x40\n    /* \"#utility.yul\":2085:2149   */\n  tag_47\n    /* \"#utility.yul\":2141:2148   */\n  dup8\n    /* \"#utility.yul\":2132:2138   */\n  dup3\n    /* \"#utility.yul\":2121:2130   */\n  dup9\n    /* \"#utility.yul\":2117:2139   */\n  add\n    /* \"#utility.yul\":2085:2149   */\n  tag_15\n  jump\t// in\ntag_47:\n    /* \"#utility.yul\":2075:2149   */\n  swap3\n  pop\n    /* \"#utility.yul\":2030:2159   */\n  pop\n    /* \"#utility.yul\":2198:2200   */\n  0x60\n    /* \"#utility.yul\":2224:2286   */\n  tag_48\n    /* \"#utility.yul\":2278:2285   */\n  dup8\n    /* \"#utility.yul\":2269:2275   */\n  dup3\n    /* \"#utility.yul\":2258:2267   */\n  dup9\n    /* \"#utility.yul\":2254:2276   */\n  add\n    /* \"#utility.yul\":2224:2286   */\n  tag_18\n  jump\t// in\ntag_48:\n    /* \"#utility.yul\":2214:2286   */\n  swap2\n  pop\n    /* \"#utility.yul\":2169:2296   */\n  pop\n    /* \"#utility.yul\":1487:2303   */\n  swap3\n  swap6\n  swap2\n  swap5\n  pop\n  swap3\n  pop\n  jump\t// out\n    /* \"src/UniswapV3Pool.sol\":360:4652  contract UniswapV3Pool is ... */\ntag_6:\n  mload(0x80)\n  mload(0xa0)\n  codecopy(0x00, dataOffset(sub_0), dataSize(sub_0))\n  0x00\n  assignImmutable(\"0x59c0d2b7af0a8e6d3d8e710a078764bd67b7223777026c424cdb4f599824bb79\")\n  0x00\n  assignImmutable(\"0xeb09910a03c892999c305d4a86a46fa82693119d981eef22c8d043b31f9e8a31\")\n  return(0x00, dataSize(sub_0))\nstop\n\nsub_0: assembly {\n        /* \"src/UniswapV3Pool.sol\":360:4652  contract UniswapV3Pool is ... */\n      mstore(0x40, 0x80)\n      callvalue\n      dup1\n      iszero\n      tag_1\n      jumpi\n      revert(0x00, 0x00)\n    tag_1:\n      pop\n      jumpi(tag_2, lt(calldatasize, 0x04))\n      shr(0xe0, calldataload(0x00))\n      dup1\n      0x514ea4bf\n      gt\n      tag_12\n      jumpi\n      dup1\n      0x514ea4bf\n      eq\n      tag_7\n      jumpi\n      dup1\n      0x5339c296\n      eq\n      tag_8\n      jumpi\n      dup1\n      0xd21220a7\n      eq\n      tag_9\n      jumpi\n      dup1\n      0xe3547335\n      eq\n      tag_10\n      jumpi\n      dup1\n      0xf30dba93\n      eq\n      tag_11\n      jumpi\n      jump(tag_2)\n    tag_12:\n      dup1\n      0x0dfe1681\n      eq\n      tag_3\n      jumpi\n      dup1\n      0x1a686502\n      eq\n      tag_4\n      jumpi\n      dup1\n      0x3850c7bd\n      eq\n      tag_5\n      jumpi\n      dup1\n      0x3c8a7d8d\n      eq\n      tag_6\n      jumpi\n    tag_2:\n      revert(0x00, 0x00)\n        /* \"src/UniswapV3Pool.sol\":857:888  address public immutable token0 */\n    tag_3:\n      tag_13\n      tag_14\n      jump\t// in\n    tag_13:\n      mload(0x40)\n      tag_15\n      swap2\n      swap1\n      tag_16\n      jump\t// in\n    tag_15:\n      mload(0x40)\n      dup1\n      swap2\n      sub\n      swap1\n      return\n        /* \"src/UniswapV3Pool.sol\":1159:1183  uint128 public liquidity */\n    tag_4:\n      tag_17\n      tag_18\n      jump\t// in\n    tag_17:\n      mload(0x40)\n      tag_19\n      swap2\n      swap1\n      tag_20\n      jump\t// in\n    tag_19:\n      mload(0x40)\n      dup1\n      swap2\n      sub\n      swap1\n      return\n        /* \"src/UniswapV3Pool.sol\":1101:1119  Slot0 public slot0 */\n    tag_5:\n      tag_21\n      tag_22\n      jump\t// in\n    tag_21:\n      mload(0x40)\n      tag_23\n      swap3\n      swap2\n      swap1\n      tag_24\n      jump\t// in\n    tag_23:\n      mload(0x40)\n      dup1\n      swap2\n      sub\n      swap1\n      return\n        /* \"src/UniswapV3Pool.sol\":1704:3372  function mint(... */\n    tag_6:\n      tag_25\n      0x04\n      dup1\n      calldatasize\n      sub\n      dup2\n      add\n      swap1\n      tag_26\n      swap2\n      swap1\n      tag_27\n      jump\t// in\n    tag_26:\n      tag_28\n      jump\t// in\n    tag_25:\n      mload(0x40)\n      tag_29\n      swap3\n      swap2\n      swap1\n      tag_30\n      jump\t// in\n    tag_29:\n      mload(0x40)\n      dup1\n      swap2\n      sub\n      swap1\n      return\n        /* \"src/UniswapV3Pool.sol\":1352:1402  mapping(bytes32 => Position.Info) public positions */\n    tag_7:\n      tag_31\n      0x04\n      dup1\n      calldatasize\n      sub\n      dup2\n      add\n      swap1\n      tag_32\n      swap2\n      swap1\n      tag_33\n      jump\t// in\n    tag_32:\n      tag_34\n      jump\t// in\n    tag_31:\n      mload(0x40)\n      tag_35\n      swap2\n      swap1\n      tag_20\n      jump\t// in\n    tag_35:\n      mload(0x40)\n      dup1\n      swap2\n      sub\n      swap1\n      return\n        /* \"src/UniswapV3Pool.sol\":1281:1324  mapping(int16 => uint256) public tickBitmap */\n    tag_8:\n      tag_36\n      0x04\n      dup1\n      calldatasize\n      sub\n      dup2\n      add\n      swap1\n      tag_37\n      swap2\n      swap1\n      tag_38\n      jump\t// in\n    tag_37:\n      tag_39\n      jump\t// in\n    tag_36:\n      mload(0x40)\n      tag_40\n      swap2\n      swap1\n      tag_41\n      jump\t// in\n    tag_40:\n      mload(0x40)\n      dup1\n      swap2\n      sub\n      swap1\n      return\n        /* \"src/UniswapV3Pool.sol\":895:926  address public immutable token1 */\n    tag_9:\n      tag_42\n      tag_43\n      jump\t// in\n    tag_42:\n      mload(0x40)\n      tag_44\n      swap2\n      swap1\n      tag_16\n      jump\t// in\n    tag_44:\n      mload(0x40)\n      dup1\n      swap2\n      sub\n      swap1\n      return\n        /* \"src/UniswapV3Pool.sol\":3384:4333  function swap(address recipient, bytes calldata data)... */\n    tag_10:\n      tag_45\n      0x04\n      dup1\n      calldatasize\n      sub\n      dup2\n      add\n      swap1\n      tag_46\n      swap2\n      swap1\n      tag_47\n      jump\t// in\n    tag_46:\n      tag_48\n      jump\t// in\n    tag_45:\n      mload(0x40)\n      tag_49\n      swap3\n      swap2\n      swap1\n      tag_50\n      jump\t// in\n    tag_49:\n      mload(0x40)\n      dup1\n      swap2\n      sub\n      swap1\n      return\n        /* \"src/UniswapV3Pool.sol\":1213:1253  mapping(int24 => Tick.Info) public ticks */\n    tag_11:\n      tag_51\n      0x04\n      dup1\n      calldatasize\n      sub\n      dup2\n      add\n      swap1\n      tag_52\n      swap2\n      swap1\n      tag_53\n      jump\t// in\n    tag_52:\n      tag_54\n      jump\t// in\n    tag_51:\n      mload(0x40)\n      tag_55\n      swap3\n      swap2\n      swap1\n      tag_56\n      jump\t// in\n    tag_55:\n      mload(0x40)\n      dup1\n      swap2\n      sub\n      swap1\n      return\n        /* \"src/UniswapV3Pool.sol\":857:888  address public immutable token0 */\n    tag_14:\n      immutable(\"0xeb09910a03c892999c305d4a86a46fa82693119d981eef22c8d043b31f9e8a31\")\n      dup2\n      jump\t// out\n        /* \"src/UniswapV3Pool.sol\":1159:1183  uint128 public liquidity */\n    tag_18:\n      0x01\n      0x00\n      swap1\n      sload\n      swap1\n      0x0100\n      exp\n      swap1\n      div\n      0xffffffffffffffffffffffffffffffff\n      and\n      dup2\n      jump\t// out\n        /* \"src/UniswapV3Pool.sol\":1101:1119  Slot0 public slot0 */\n    tag_22:\n      0x00\n      dup1\n      0x00\n      add\n      0x00\n      swap1\n      sload\n      swap1\n      0x0100\n      exp\n      swap1\n      div\n      0xffffffffffffffffffffffffffffffffffffffff\n      and\n      swap1\n      dup1\n      0x00\n      add\n      0x14\n      swap1\n      sload\n      swap1\n      0x0100\n      exp\n      swap1\n      div\n      0x02\n      signextend\n      swap1\n      pop\n      dup3\n      jump\t// out\n        /* \"src/UniswapV3Pool.sol\":1704:3372  function mint(... */\n    tag_28:\n        /* \"src/UniswapV3Pool.sol\":1889:1904  uint256 amount0 */\n      0x00\n        /* \"src/UniswapV3Pool.sol\":1906:1921  uint256 amount1 */\n      0x00\n        /* \"src/UniswapV3Pool.sol\":1965:1974  upperTick */\n      dup6\n        /* \"src/UniswapV3Pool.sol\":1952:1974  lowerTick >= upperTick */\n      0x02\n      signextend\n        /* \"src/UniswapV3Pool.sol\":1952:1961  lowerTick */\n      dup8\n        /* \"src/UniswapV3Pool.sol\":1952:1974  lowerTick >= upperTick */\n      0x02\n      signextend\n      slt\n      iszero\n        /* \"src/UniswapV3Pool.sol\":1952:2011  lowerTick >= upperTick ||... */\n      dup1\n      tag_58\n      jumpi\n      pop\n        /* \"src/UniswapV3Pool.sol\":658:665  -887272 */\n      0xfffffffffffffffffffffffffffffffffffffffffffffffffffffffffff27618\n        /* \"src/UniswapV3Pool.sol\":1991:2011  lowerTick < MIN_TICK */\n      0x02\n      signextend\n        /* \"src/UniswapV3Pool.sol\":1991:2000  lowerTick */\n      dup8\n        /* \"src/UniswapV3Pool.sol\":1991:2011  lowerTick < MIN_TICK */\n      0x02\n      signextend\n      slt\n        /* \"src/UniswapV3Pool.sol\":1952:2011  lowerTick >= upperTick ||... */\n    tag_58:\n        /* \"src/UniswapV3Pool.sol\":1952:2048  lowerTick >= upperTick ||... */\n      dup1\n      tag_59\n      jumpi\n      pop\n        /* \"src/UniswapV3Pool.sol\":658:665  -887272 */\n      0xfffffffffffffffffffffffffffffffffffffffffffffffffffffffffff27618\n        /* \"src/UniswapV3Pool.sol\":707:716  -MIN_TICK */\n      tag_60\n      swap1\n      tag_61\n      jump\t// in\n    tag_60:\n        /* \"src/UniswapV3Pool.sol\":2028:2048  upperTick > MAX_TICK */\n      0x02\n      signextend\n        /* \"src/UniswapV3Pool.sol\":2028:2037  upperTick */\n      dup7\n        /* \"src/UniswapV3Pool.sol\":2028:2048  upperTick > MAX_TICK */\n      0x02\n      signextend\n      sgt\n        /* \"src/UniswapV3Pool.sol\":1952:2048  lowerTick >= upperTick ||... */\n    tag_59:\n        /* \"src/UniswapV3Pool.sol\":1934:2085  if (... */\n      iszero\n      tag_62\n      jumpi\n        /* \"src/UniswapV3Pool.sol\":2067:2085  InvalidTickRange() */\n      mload(0x40)\n      0x064847d000000000000000000000000000000000000000000000000000000000\n      dup2\n      mstore\n      0x04\n      add\n      mload(0x40)\n      dup1\n      swap2\n      sub\n      swap1\n      revert\n        /* \"src/UniswapV3Pool.sol\":1934:2085  if (... */\n    tag_62:\n        /* \"src/UniswapV3Pool.sol\":2110:2111  0 */\n      0x00\n        /* \"src/UniswapV3Pool.sol\":2100:2106  amount */\n      dup6\n        /* \"src/UniswapV3Pool.sol\":2100:2111  amount == 0 */\n      0xffffffffffffffffffffffffffffffff\n      and\n      sub\n        /* \"src/UniswapV3Pool.sol\":2096:2135  if (amount == 0) revert ZeroLiquidity() */\n      tag_63\n      jumpi\n        /* \"src/UniswapV3Pool.sol\":2120:2135  ZeroLiquidity() */\n      mload(0x40)\n      0x1007454800000000000000000000000000000000000000000000000000000000\n      dup2\n      mstore\n      0x04\n      add\n      mload(0x40)\n      dup1\n      swap2\n      sub\n      swap1\n      revert\n        /* \"src/UniswapV3Pool.sol\":2096:2135  if (amount == 0) revert ZeroLiquidity() */\n    tag_63:\n        /* \"src/UniswapV3Pool.sol\":2148:2165  bool flippedLower */\n      0x00\n        /* \"src/UniswapV3Pool.sol\":2168:2199  ticks.update(lowerTick, amount) */\n      tag_64\n        /* \"src/UniswapV3Pool.sol\":2181:2190  lowerTick */\n      dup9\n        /* \"src/UniswapV3Pool.sol\":2192:2198  amount */\n      dup8\n        /* \"src/UniswapV3Pool.sol\":2168:2173  ticks */\n      0x02\n        /* \"src/UniswapV3Pool.sol\":2168:2180  ticks.update */\n      tag_65\n      swap1\n        /* \"src/UniswapV3Pool.sol\":2168:2199  ticks.update(lowerTick, amount) */\n      swap3\n      swap2\n      swap1\n      0xffffffff\n      and\n      jump\t// in\n    tag_64:\n        /* \"src/UniswapV3Pool.sol\":2148:2199  bool flippedLower = ticks.update(lowerTick, amount) */\n      swap1\n      pop\n        /* \"src/UniswapV3Pool.sol\":2210:2227  bool flippedUpper */\n      0x00\n        /* \"src/UniswapV3Pool.sol\":2230:2261  ticks.update(upperTick, amount) */\n      tag_66\n        /* \"src/UniswapV3Pool.sol\":2243:2252  upperTick */\n      dup9\n        /* \"src/UniswapV3Pool.sol\":2254:2260  amount */\n      dup9\n        /* \"src/UniswapV3Pool.sol\":2230:2235  ticks */\n      0x02\n        /* \"src/UniswapV3Pool.sol\":2230:2242  ticks.update */\n      tag_65\n      swap1\n        /* \"src/UniswapV3Pool.sol\":2230:2261  ticks.update(upperTick, amount) */\n      swap3\n      swap2\n      swap1\n      0xffffffff\n      and\n      jump\t// in\n    tag_66:\n        /* \"src/UniswapV3Pool.sol\":2210:2261  bool flippedUpper = ticks.update(upperTick, amount) */\n      swap1\n      pop\n        /* \"src/UniswapV3Pool.sol\":2275:2287  flippedLower */\n      dup2\n        /* \"src/UniswapV3Pool.sol\":2272:2349  if(flippedLower) {... */\n      iszero\n      tag_67\n      jumpi\n        /* \"src/UniswapV3Pool.sol\":2304:2337  tickBitmap.flipTick(lowerTick, 1) */\n      tag_68\n        /* \"src/UniswapV3Pool.sol\":2324:2333  lowerTick */\n      dup10\n        /* \"src/UniswapV3Pool.sol\":2335:2336  1 */\n      0x01\n        /* \"src/UniswapV3Pool.sol\":2304:2314  tickBitmap */\n      0x03\n        /* \"src/UniswapV3Pool.sol\":2304:2323  tickBitmap.flipTick */\n      tag_69\n      swap1\n        /* \"src/UniswapV3Pool.sol\":2304:2337  tickBitmap.flipTick(lowerTick, 1) */\n      swap3\n      swap2\n      swap1\n      0xffffffff\n      and\n      jump\t// in\n    tag_68:\n        /* \"src/UniswapV3Pool.sol\":2272:2349  if(flippedLower) {... */\n    tag_67:\n        /* \"src/UniswapV3Pool.sol\":2362:2374  flippedUpper */\n      dup1\n        /* \"src/UniswapV3Pool.sol\":2359:2436  if(flippedUpper) {... */\n      iszero\n      tag_70\n      jumpi\n        /* \"src/UniswapV3Pool.sol\":2391:2424  tickBitmap.flipTick(upperTick, 1) */\n      tag_71\n        /* \"src/UniswapV3Pool.sol\":2411:2420  upperTick */\n      dup9\n        /* \"src/UniswapV3Pool.sol\":2422:2423  1 */\n      0x01\n        /* \"src/UniswapV3Pool.sol\":2391:2401  tickBitmap */\n      0x03\n        /* \"src/UniswapV3Pool.sol\":2391:2410  tickBitmap.flipTick */\n      tag_69\n      swap1\n        /* \"src/UniswapV3Pool.sol\":2391:2424  tickBitmap.flipTick(upperTick, 1) */\n      swap3\n      swap2\n      swap1\n      0xffffffff\n      and\n      jump\t// in\n    tag_71:\n        /* \"src/UniswapV3Pool.sol\":2359:2436  if(flippedUpper) {... */\n    tag_70:\n        /* \"src/UniswapV3Pool.sol\":2448:2478  Position.Info storage position */\n      0x00\n        /* \"src/UniswapV3Pool.sol\":2481:2573  positions.get(... */\n      tag_72\n        /* \"src/UniswapV3Pool.sol\":2509:2514  owner */\n      dup12\n        /* \"src/UniswapV3Pool.sol\":2529:2538  lowerTick */\n      dup12\n        /* \"src/UniswapV3Pool.sol\":2553:2562  upperTick */\n      dup12\n        /* \"src/UniswapV3Pool.sol\":2481:2490  positions */\n      0x04\n        /* \"src/UniswapV3Pool.sol\":2481:2494  positions.get */\n      tag_73\n      swap1\n        /* \"src/UniswapV3Pool.sol\":2481:2573  positions.get(... */\n      swap4\n      swap3\n      swap2\n      swap1\n      0xffffffff\n      and\n      jump\t// in\n    tag_72:\n        /* \"src/UniswapV3Pool.sol\":2448:2573  Position.Info storage position = positions.get(... */\n      swap1\n      pop\n        /* \"src/UniswapV3Pool.sol\":2584:2607  position.update(amount) */\n      tag_74\n        /* \"src/UniswapV3Pool.sol\":2600:2606  amount */\n      dup9\n        /* \"src/UniswapV3Pool.sol\":2584:2592  position */\n      dup3\n        /* \"src/UniswapV3Pool.sol\":2584:2599  position.update */\n      tag_75\n      swap1\n        /* \"src/UniswapV3Pool.sol\":2584:2607  position.update(amount) */\n      swap2\n      swap1\n      0xffffffff\n      and\n      jump\t// in\n    tag_74:\n        /* \"src/UniswapV3Pool.sol\":2630:2656  0.998976618347425280 ether */\n      0x0ddd13f10b84ee00\n        /* \"src/UniswapV3Pool.sol\":2620:2656  amount0 = 0.998976618347425280 ether */\n      swap5\n      pop\n        /* \"src/UniswapV3Pool.sol\":2677:2687  5000 ether */\n      0x010f0cf064dd59200000\n        /* \"src/UniswapV3Pool.sol\":2667:2687  amount1 = 5000 ether */\n      swap4\n      pop\n        /* \"src/UniswapV3Pool.sol\":2721:2727  amount */\n      dup8\n        /* \"src/UniswapV3Pool.sol\":2700:2709  liquidity */\n      0x01\n      0x00\n        /* \"src/UniswapV3Pool.sol\":2700:2728  liquidity += uint128(amount) */\n      dup3\n      dup3\n      dup3\n      swap1\n      sload\n      swap1\n      0x0100\n      exp\n      swap1\n      div\n      0xffffffffffffffffffffffffffffffff\n      and\n      tag_76\n      swap2\n      swap1\n      tag_77\n      jump\t// in\n    tag_76:\n      swap3\n      pop\n      0x0100\n      exp\n      dup2\n      sload\n      dup2\n      0xffffffffffffffffffffffffffffffff\n      mul\n      not\n      and\n      swap1\n      dup4\n      0xffffffffffffffffffffffffffffffff\n      and\n      mul\n      or\n      swap1\n      sstore\n      pop\n        /* \"src/UniswapV3Pool.sol\":2741:2763  uint256 balance0Before */\n      0x00\n        /* \"src/UniswapV3Pool.sol\":2774:2796  uint256 balance1Before */\n      0x00\n        /* \"src/UniswapV3Pool.sol\":2821:2822  0 */\n      0x00\n        /* \"src/UniswapV3Pool.sol\":2811:2818  amount0 */\n      dup8\n        /* \"src/UniswapV3Pool.sol\":2811:2822  amount0 > 0 */\n      gt\n        /* \"src/UniswapV3Pool.sol\":2807:2851  if (amount0 > 0) balance0Before = balance0() */\n      iszero\n      tag_78\n      jumpi\n        /* \"src/UniswapV3Pool.sol\":2841:2851  balance0() */\n      tag_79\n        /* \"src/UniswapV3Pool.sol\":2841:2849  balance0 */\n      tag_80\n        /* \"src/UniswapV3Pool.sol\":2841:2851  balance0() */\n      jump\t// in\n    tag_79:\n        /* \"src/UniswapV3Pool.sol\":2824:2851  balance0Before = balance0() */\n      swap2\n      pop\n        /* \"src/UniswapV3Pool.sol\":2807:2851  if (amount0 > 0) balance0Before = balance0() */\n    tag_78:\n        /* \"src/UniswapV3Pool.sol\":2876:2877  0 */\n      0x00\n        /* \"src/UniswapV3Pool.sol\":2866:2873  amount1 */\n      dup7\n        /* \"src/UniswapV3Pool.sol\":2866:2877  amount1 > 0 */\n      gt\n        /* \"src/UniswapV3Pool.sol\":2862:2906  if (amount1 > 0) balance1Before = balance1() */\n      iszero\n      tag_81\n      jumpi\n        /* \"src/UniswapV3Pool.sol\":2896:2906  balance1() */\n      tag_82\n        /* \"src/UniswapV3Pool.sol\":2896:2904  balance1 */\n      tag_83\n        /* \"src/UniswapV3Pool.sol\":2896:2906  balance1() */\n      jump\t// in\n    tag_82:\n        /* \"src/UniswapV3Pool.sol\":2879:2906  balance1Before = balance1() */\n      swap1\n      pop\n        /* \"src/UniswapV3Pool.sol\":2862:2906  if (amount1 > 0) balance1Before = balance1() */\n    tag_81:\n        /* \"src/UniswapV3Pool.sol\":2940:2950  msg.sender */\n      caller\n        /* \"src/UniswapV3Pool.sol\":2917:2973  IUniswapV3MintCallback(msg.sender).uniswapV3MintCallback */\n      0xffffffffffffffffffffffffffffffffffffffff\n      and\n      0xd3487997\n        /* \"src/UniswapV3Pool.sol\":2988:2995  amount0 */\n      dup9\n        /* \"src/UniswapV3Pool.sol\":3010:3017  amount1 */\n      dup9\n        /* \"src/UniswapV3Pool.sol\":3032:3036  data */\n      dup13\n      dup13\n        /* \"src/UniswapV3Pool.sol\":2917:3047  IUniswapV3MintCallback(msg.sender).uniswapV3MintCallback(... */\n      mload(0x40)\n      dup6\n      0xffffffff\n      and\n      0xe0\n      shl\n      dup2\n      mstore\n      0x04\n      add\n      tag_84\n      swap5\n      swap4\n      swap3\n      swap2\n      swap1\n      tag_85\n      jump\t// in\n    tag_84:\n      0x00\n      mload(0x40)\n      dup1\n      dup4\n      sub\n      dup2\n      0x00\n      dup8\n      dup1\n      extcodesize\n      iszero\n      dup1\n      iszero\n      tag_86\n      jumpi\n      revert(0x00, 0x00)\n    tag_86:\n      pop\n      gas\n      call\n      iszero\n      dup1\n      iszero\n      tag_88\n      jumpi\n      returndatacopy(0x00, 0x00, returndatasize)\n      revert(0x00, returndatasize)\n    tag_88:\n      pop\n      pop\n      pop\n      pop\n        /* \"src/UniswapV3Pool.sol\":3072:3073  0 */\n      0x00\n        /* \"src/UniswapV3Pool.sol\":3062:3069  amount0 */\n      dup8\n        /* \"src/UniswapV3Pool.sol\":3062:3073  amount0 > 0 */\n      gt\n        /* \"src/UniswapV3Pool.sol\":3062:3114  amount0 > 0 && balance0Before + amount0 > balance0() */\n      dup1\n      iszero\n      tag_89\n      jumpi\n      pop\n        /* \"src/UniswapV3Pool.sol\":3104:3114  balance0() */\n      tag_90\n        /* \"src/UniswapV3Pool.sol\":3104:3112  balance0 */\n      tag_80\n        /* \"src/UniswapV3Pool.sol\":3104:3114  balance0() */\n      jump\t// in\n    tag_90:\n        /* \"src/UniswapV3Pool.sol\":3094:3101  amount0 */\n      dup8\n        /* \"src/UniswapV3Pool.sol\":3077:3091  balance0Before */\n      dup4\n        /* \"src/UniswapV3Pool.sol\":3077:3101  balance0Before + amount0 */\n      tag_91\n      swap2\n      swap1\n      tag_92\n      jump\t// in\n    tag_91:\n        /* \"src/UniswapV3Pool.sol\":3077:3114  balance0Before + amount0 > balance0() */\n      gt\n        /* \"src/UniswapV3Pool.sol\":3062:3114  amount0 > 0 && balance0Before + amount0 > balance0() */\n    tag_89:\n        /* \"src/UniswapV3Pool.sol\":3058:3161  if (amount0 > 0 && balance0Before + amount0 > balance0())... */\n      iszero\n      tag_93\n      jumpi\n        /* \"src/UniswapV3Pool.sol\":3136:3161  InsufficientInputAmount() */\n      mload(0x40)\n      0x098fb56100000000000000000000000000000000000000000000000000000000\n      dup2\n      mstore\n      0x04\n      add\n      mload(0x40)\n      dup1\n      swap2\n      sub\n      swap1\n      revert\n        /* \"src/UniswapV3Pool.sol\":3058:3161  if (amount0 > 0 && balance0Before + amount0 > balance0())... */\n    tag_93:\n        /* \"src/UniswapV3Pool.sol\":3186:3187  0 */\n      0x00\n        /* \"src/UniswapV3Pool.sol\":3176:3183  amount1 */\n      dup7\n        /* \"src/UniswapV3Pool.sol\":3176:3187  amount1 > 0 */\n      gt\n        /* \"src/UniswapV3Pool.sol\":3176:3228  amount1 > 0 && balance1Before + amount1 > balance1() */\n      dup1\n      iszero\n      tag_94\n      jumpi\n      pop\n        /* \"src/UniswapV3Pool.sol\":3218:3228  balance1() */\n      tag_95\n        /* \"src/UniswapV3Pool.sol\":3218:3226  balance1 */\n      tag_83\n        /* \"src/UniswapV3Pool.sol\":3218:3228  balance1() */\n      jump\t// in\n    tag_95:\n        /* \"src/UniswapV3Pool.sol\":3208:3215  amount1 */\n      dup7\n        /* \"src/UniswapV3Pool.sol\":3191:3205  balance1Before */\n      dup3\n        /* \"src/UniswapV3Pool.sol\":3191:3215  balance1Before + amount1 */\n      tag_96\n      swap2\n      swap1\n      tag_92\n      jump\t// in\n    tag_96:\n        /* \"src/UniswapV3Pool.sol\":3191:3228  balance1Before + amount1 > balance1() */\n      gt\n        /* \"src/UniswapV3Pool.sol\":3176:3228  amount1 > 0 && balance1Before + amount1 > balance1() */\n    tag_94:\n        /* \"src/UniswapV3Pool.sol\":3172:3275  if (amount1 > 0 && balance1Before + amount1 > balance1())... */\n      iszero\n      tag_97\n      jumpi\n        /* \"src/UniswapV3Pool.sol\":3250:3275  InsufficientInputAmount() */\n      mload(0x40)\n      0x098fb56100000000000000000000000000000000000000000000000000000000\n      dup2\n      mstore\n      0x04\n      add\n      mload(0x40)\n      dup1\n      swap2\n      sub\n      swap1\n      revert\n        /* \"src/UniswapV3Pool.sol\":3172:3275  if (amount1 > 0 && balance1Before + amount1 > balance1())... */\n    tag_97:\n        /* \"src/UniswapV3Pool.sol\":3328:3337  upperTick */\n      dup11\n        /* \"src/UniswapV3Pool.sol\":3293:3364  Mint(msg.sender, owner, lowerTick, upperTick, amount, amount0, amount1) */\n      0x02\n      signextend\n        /* \"src/UniswapV3Pool.sol\":3317:3326  lowerTick */\n      dup13\n        /* \"src/UniswapV3Pool.sol\":3293:3364  Mint(msg.sender, owner, lowerTick, upperTick, amount, amount0, amount1) */\n      0x02\n      signextend\n        /* \"src/UniswapV3Pool.sol\":3310:3315  owner */\n      dup15\n        /* \"src/UniswapV3Pool.sol\":3293:3364  Mint(msg.sender, owner, lowerTick, upperTick, amount, amount0, amount1) */\n      0xffffffffffffffffffffffffffffffffffffffff\n      and\n      0x7a53080ba414158be7ec69b987b5fb7d07dee101fe85488f0853ae16239d0bde\n        /* \"src/UniswapV3Pool.sol\":3298:3308  msg.sender */\n      caller\n        /* \"src/UniswapV3Pool.sol\":3339:3345  amount */\n      dup15\n        /* \"src/UniswapV3Pool.sol\":3347:3354  amount0 */\n      dup13\n        /* \"src/UniswapV3Pool.sol\":3356:3363  amount1 */\n      dup13\n        /* \"src/UniswapV3Pool.sol\":3293:3364  Mint(msg.sender, owner, lowerTick, upperTick, amount, amount0, amount1) */\n      mload(0x40)\n      tag_98\n      swap5\n      swap4\n      swap3\n      swap2\n      swap1\n      tag_99\n      jump\t// in\n    tag_98:\n      mload(0x40)\n      dup1\n      swap2\n      sub\n      swap1\n      log4\n        /* \"src/UniswapV3Pool.sol\":1923:3372  {... */\n      pop\n      pop\n      pop\n      pop\n      pop\n        /* \"src/UniswapV3Pool.sol\":1704:3372  function mint(... */\n      swap7\n      pop\n      swap7\n      swap5\n      pop\n      pop\n      pop\n      pop\n      pop\n      jump\t// out\n        /* \"src/UniswapV3Pool.sol\":1352:1402  mapping(bytes32 => Position.Info) public positions */\n    tag_34:\n      mstore(0x20, 0x04)\n      dup1\n      0x00\n      mstore\n      keccak256(0x00, 0x40)\n      0x00\n      swap2\n      pop\n      swap1\n      pop\n      dup1\n      0x00\n      add\n      0x00\n      swap1\n      sload\n      swap1\n      0x0100\n      exp\n      swap1\n      div\n      0xffffffffffffffffffffffffffffffff\n      and\n      swap1\n      pop\n      dup2\n      jump\t// out\n        /* \"src/UniswapV3Pool.sol\":1281:1324  mapping(int16 => uint256) public tickBitmap */\n    tag_39:\n      mstore(0x20, 0x03)\n      dup1\n      0x00\n      mstore\n      keccak256(0x00, 0x40)\n      0x00\n      swap2\n      pop\n      swap1\n      pop\n      sload\n      dup2\n      jump\t// out\n        /* \"src/UniswapV3Pool.sol\":895:926  address public immutable token1 */\n    tag_43:\n      immutable(\"0x59c0d2b7af0a8e6d3d8e710a078764bd67b7223777026c424cdb4f599824bb79\")\n      dup2\n      jump\t// out\n        /* \"src/UniswapV3Pool.sol\":3384:4333  function swap(address recipient, bytes calldata data)... */\n    tag_48:\n        /* \"src/UniswapV3Pool.sol\":3472:3486  int256 amount0 */\n      0x00\n        /* \"src/UniswapV3Pool.sol\":3488:3502  int256 amount1 */\n      0x00\n        /* \"src/UniswapV3Pool.sol\":3520:3534  int24 nextTick */\n      0x00\n        /* \"src/UniswapV3Pool.sol\":3537:3542  85184 */\n      0x014cc0\n        /* \"src/UniswapV3Pool.sol\":3520:3542  int24 nextTick = 85184 */\n      swap1\n      pop\n        /* \"src/UniswapV3Pool.sol\":3553:3570  uint160 nextPrice */\n      0x00\n        /* \"src/UniswapV3Pool.sol\":3573:3604  5604469350942327889444743441197 */\n      0x46bd046408013d67ed5d406b2d\n        /* \"src/UniswapV3Pool.sol\":3553:3604  uint160 nextPrice = 5604469350942327889444743441197 */\n      swap1\n      pop\n        /* \"src/UniswapV3Pool.sol\":3625:3652  -0.008396714242162444 ether */\n      0xffffffffffffffffffffffffffffffffffffffffffffffffffe22b3b9e50c0f4\n        /* \"src/UniswapV3Pool.sol\":3615:3652  amount0 = -0.008396714242162444 ether */\n      swap4\n      pop\n        /* \"src/UniswapV3Pool.sol\":3673:3681  42 ether */\n      0x0246ddf97976680000\n        /* \"src/UniswapV3Pool.sol\":3663:3681  amount1 = 42 ether */\n      swap3\n      pop\n        /* \"src/UniswapV3Pool.sol\":3728:3736  nextTick */\n      dup2\n        /* \"src/UniswapV3Pool.sol\":3738:3747  nextPrice */\n      dup2\n        /* \"src/UniswapV3Pool.sol\":3693:3698  slot0 */\n      0x00\n        /* \"src/UniswapV3Pool.sol\":3693:3703  slot0.tick */\n      0x00\n      add\n      0x14\n        /* \"src/UniswapV3Pool.sol\":3705:3710  slot0 */\n      0x00\n        /* \"src/UniswapV3Pool.sol\":3705:3723  slot0.sqrtPriceX96 */\n      0x00\n      add\n      0x00\n        /* \"src/UniswapV3Pool.sol\":3692:3748  (slot0.tick, slot0.sqrtPriceX96) = (nextTick, nextPrice) */\n      dup5\n      swap2\n      swap1\n      0x0100\n      exp\n      dup2\n      sload\n      dup2\n      0xffffffffffffffffffffffffffffffffffffffff\n      mul\n      not\n      and\n      swap1\n      dup4\n      0xffffffffffffffffffffffffffffffffffffffff\n      and\n      mul\n      or\n      swap1\n      sstore\n      pop\n      dup4\n      swap2\n      swap1\n      0x0100\n      exp\n      dup2\n      sload\n      dup2\n      0xffffff\n      mul\n      not\n      and\n      swap1\n      dup4\n      0x02\n      signextend\n      0xffffff\n      and\n      mul\n      or\n      swap1\n      sstore\n      pop\n      pop\n      pop\n        /* \"src/UniswapV3Pool.sol\":3776:3782  token0 */\n      immutable(\"0xeb09910a03c892999c305d4a86a46fa82693119d981eef22c8d043b31f9e8a31\")\n        /* \"src/UniswapV3Pool.sol\":3769:3792  IERC20(token0).transfer */\n      0xffffffffffffffffffffffffffffffffffffffff\n      and\n      0xa9059cbb\n        /* \"src/UniswapV3Pool.sol\":3793:3802  recipient */\n      dup9\n        /* \"src/UniswapV3Pool.sol\":3813:3820  amount0 */\n      dup7\n        /* \"src/UniswapV3Pool.sol\":3812:3820  -amount0 */\n      tag_101\n      swap1\n      tag_102\n      jump\t// in\n    tag_101:\n        /* \"src/UniswapV3Pool.sol\":3769:3822  IERC20(token0).transfer(recipient, uint256(-amount0)) */\n      mload(0x40)\n      dup4\n      0xffffffff\n      and\n      0xe0\n      shl\n      dup2\n      mstore\n      0x04\n      add\n      tag_103\n      swap3\n      swap2\n      swap1\n      tag_104\n      jump\t// in\n    tag_103:\n      0x20\n      mload(0x40)\n      dup1\n      dup4\n      sub\n      dup2\n      0x00\n      dup8\n      gas\n      call\n      iszero\n      dup1\n      iszero\n      tag_106\n      jumpi\n      returndatacopy(0x00, 0x00, returndatasize)\n      revert(0x00, returndatasize)\n    tag_106:\n      pop\n      pop\n      pop\n      pop\n      mload(0x40)\n      returndatasize\n      not(0x1f)\n      0x1f\n      dup3\n      add\n      and\n      dup3\n      add\n      dup1\n      0x40\n      mstore\n      pop\n      dup2\n      add\n      swap1\n      tag_107\n      swap2\n      swap1\n      tag_108\n      jump\t// in\n    tag_107:\n      pop\n        /* \"src/UniswapV3Pool.sol\":3833:3855  uint256 balance1Before */\n      0x00\n        /* \"src/UniswapV3Pool.sol\":3858:3868  balance1() */\n      tag_109\n        /* \"src/UniswapV3Pool.sol\":3858:3866  balance1 */\n      tag_83\n        /* \"src/UniswapV3Pool.sol\":3858:3868  balance1() */\n      jump\t// in\n    tag_109:\n        /* \"src/UniswapV3Pool.sol\":3833:3868  uint256 balance1Before = balance1() */\n      swap1\n      pop\n        /* \"src/UniswapV3Pool.sol\":3902:3912  msg.sender */\n      caller\n        /* \"src/UniswapV3Pool.sol\":3879:3935  IUniswapV3SwapCallback(msg.sender).uniswapV3SwapCallback */\n      0xffffffffffffffffffffffffffffffffffffffff\n      and\n      0xfa461e33\n        /* \"src/UniswapV3Pool.sol\":3950:3957  amount0 */\n      dup7\n        /* \"src/UniswapV3Pool.sol\":3972:3979  amount1 */\n      dup7\n        /* \"src/UniswapV3Pool.sol\":3994:3998  data */\n      dup11\n      dup11\n        /* \"src/UniswapV3Pool.sol\":3879:4009  IUniswapV3SwapCallback(msg.sender).uniswapV3SwapCallback(... */\n      mload(0x40)\n      dup6\n      0xffffffff\n      and\n      0xe0\n      shl\n      dup2\n      mstore\n      0x04\n      add\n      tag_110\n      swap5\n      swap4\n      swap3\n      swap2\n      swap1\n      tag_111\n      jump\t// in\n    tag_110:\n      0x00\n      mload(0x40)\n      dup1\n      dup4\n      sub\n      dup2\n      0x00\n      dup8\n      dup1\n      extcodesize\n      iszero\n      dup1\n      iszero\n      tag_112\n      jumpi\n      revert(0x00, 0x00)\n    tag_112:\n      pop\n      gas\n      call\n      iszero\n      dup1\n      iszero\n      tag_114\n      jumpi\n      returndatacopy(0x00, 0x00, returndatasize)\n      revert(0x00, returndatasize)\n    tag_114:\n      pop\n      pop\n      pop\n      pop\n        /* \"src/UniswapV3Pool.sol\":4060:4070  balance1() */\n      tag_115\n        /* \"src/UniswapV3Pool.sol\":4060:4068  balance1 */\n      tag_83\n        /* \"src/UniswapV3Pool.sol\":4060:4070  balance1() */\n      jump\t// in\n    tag_115:\n        /* \"src/UniswapV3Pool.sol\":4049:4056  amount1 */\n      dup5\n        /* \"src/UniswapV3Pool.sol\":4024:4038  balance1Before */\n      dup3\n        /* \"src/UniswapV3Pool.sol\":4024:4057  balance1Before + uint256(amount1) */\n      tag_116\n      swap2\n      swap1\n      tag_92\n      jump\t// in\n    tag_116:\n        /* \"src/UniswapV3Pool.sol\":4024:4070  balance1Before + uint256(amount1) < balance1() */\n      lt\n        /* \"src/UniswapV3Pool.sol\":4020:4117  if (balance1Before + uint256(amount1) < balance1())... */\n      iszero\n      tag_117\n      jumpi\n        /* \"src/UniswapV3Pool.sol\":4092:4117  InsufficientInputAmount() */\n      mload(0x40)\n      0x098fb56100000000000000000000000000000000000000000000000000000000\n      dup2\n      mstore\n      0x04\n      add\n      mload(0x40)\n      dup1\n      swap2\n      sub\n      swap1\n      revert\n        /* \"src/UniswapV3Pool.sol\":4020:4117  if (balance1Before + uint256(amount1) < balance1())... */\n    tag_117:\n        /* \"src/UniswapV3Pool.sol\":4179:4188  recipient */\n      dup8\n        /* \"src/UniswapV3Pool.sol\":4135:4325  Swap(... */\n      0xffffffffffffffffffffffffffffffffffffffff\n      and\n        /* \"src/UniswapV3Pool.sol\":4154:4164  msg.sender */\n      caller\n        /* \"src/UniswapV3Pool.sol\":4135:4325  Swap(... */\n      0xffffffffffffffffffffffffffffffffffffffff\n      and\n      0xc42079f94a6350d7e6235f29174924f928cc2ac818eb64fed8004e115fbcca67\n        /* \"src/UniswapV3Pool.sol\":4203:4210  amount0 */\n      dup8\n        /* \"src/UniswapV3Pool.sol\":4225:4232  amount1 */\n      dup8\n        /* \"src/UniswapV3Pool.sol\":4247:4252  slot0 */\n      0x00\n        /* \"src/UniswapV3Pool.sol\":4247:4265  slot0.sqrtPriceX96 */\n      0x00\n      add\n      0x00\n      swap1\n      sload\n      swap1\n      0x0100\n      exp\n      swap1\n      div\n      0xffffffffffffffffffffffffffffffffffffffff\n      and\n        /* \"src/UniswapV3Pool.sol\":4280:4289  liquidity */\n      0x01\n      0x00\n      swap1\n      sload\n      swap1\n      0x0100\n      exp\n      swap1\n      div\n      0xffffffffffffffffffffffffffffffff\n      and\n        /* \"src/UniswapV3Pool.sol\":4304:4309  slot0 */\n      0x00\n        /* \"src/UniswapV3Pool.sol\":4304:4314  slot0.tick */\n      0x00\n      add\n      0x14\n      swap1\n      sload\n      swap1\n      0x0100\n      exp\n      swap1\n      div\n      0x02\n      signextend\n        /* \"src/UniswapV3Pool.sol\":4135:4325  Swap(... */\n      mload(0x40)\n      tag_118\n      swap6\n      swap5\n      swap4\n      swap3\n      swap2\n      swap1\n      tag_119\n      jump\t// in\n    tag_118:\n      mload(0x40)\n      dup1\n      swap2\n      sub\n      swap1\n      log3\n        /* \"src/UniswapV3Pool.sol\":3509:4333  {... */\n      pop\n      pop\n      pop\n        /* \"src/UniswapV3Pool.sol\":3384:4333  function swap(address recipient, bytes calldata data)... */\n      swap4\n      pop\n      swap4\n      swap2\n      pop\n      pop\n      jump\t// out\n        /* \"src/UniswapV3Pool.sol\":1213:1253  mapping(int24 => Tick.Info) public ticks */\n    tag_54:\n      mstore(0x20, 0x02)\n      dup1\n      0x00\n      mstore\n      keccak256(0x00, 0x40)\n      0x00\n      swap2\n      pop\n      swap1\n      pop\n      dup1\n      0x00\n      add\n      0x00\n      swap1\n      sload\n      swap1\n      0x0100\n      exp\n      swap1\n      div\n      0xff\n      and\n      swap1\n      dup1\n      0x00\n      add\n      0x01\n      swap1\n      sload\n      swap1\n      0x0100\n      exp\n      swap1\n      div\n      0xffffffffffffffffffffffffffffffff\n      and\n      swap1\n      pop\n      dup3\n      jump\t// out\n        /* \"src/lib/Tick.sol\":168:713  function update(... */\n    tag_65:\n        /* \"src/lib/Tick.sol\":314:326  bool flipped */\n      0x00\n        /* \"src/lib/Tick.sol\":339:365  Tick.Info storage tickInfo */\n      0x00\n        /* \"src/lib/Tick.sol\":368:372  self */\n      dup5\n        /* \"src/lib/Tick.sol\":368:378  self[tick] */\n      0x00\n        /* \"src/lib/Tick.sol\":373:377  tick */\n      dup6\n        /* \"src/lib/Tick.sol\":368:378  self[tick] */\n      0x02\n      signextend\n      0x02\n      signextend\n      dup2\n      mstore\n      0x20\n      add\n      swap1\n      dup2\n      mstore\n      0x20\n      add\n      0x00\n      keccak256\n        /* \"src/lib/Tick.sol\":339:378  Tick.Info storage tickInfo = self[tick] */\n      swap1\n      pop\n        /* \"src/lib/Tick.sol\":389:412  uint128 liquidityBefore */\n      0x00\n        /* \"src/lib/Tick.sol\":415:423  tickInfo */\n      dup2\n        /* \"src/lib/Tick.sol\":415:433  tickInfo.liquidity */\n      0x00\n      add\n      0x01\n      swap1\n      sload\n      swap1\n      0x0100\n      exp\n      swap1\n      div\n      0xffffffffffffffffffffffffffffffff\n      and\n        /* \"src/lib/Tick.sol\":389:433  uint128 liquidityBefore = tickInfo.liquidity */\n      swap1\n      pop\n        /* \"src/lib/Tick.sol\":444:466  uint128 liquidityAfter */\n      0x00\n        /* \"src/lib/Tick.sol\":487:501  liquidityDelta */\n      dup5\n        /* \"src/lib/Tick.sol\":469:484  liquidityBefore */\n      dup3\n        /* \"src/lib/Tick.sol\":469:501  liquidityBefore + liquidityDelta */\n      tag_121\n      swap2\n      swap1\n      tag_77\n      jump\t// in\n    tag_121:\n        /* \"src/lib/Tick.sol\":444:501  uint128 liquidityAfter = liquidityBefore + liquidityDelta */\n      swap1\n      pop\n        /* \"src/lib/Tick.sol\":535:536  0 */\n      0x00\n        /* \"src/lib/Tick.sol\":516:531  liquidityBefore */\n      dup3\n        /* \"src/lib/Tick.sol\":516:536  liquidityBefore == 0 */\n      0xffffffffffffffffffffffffffffffff\n      and\n      sub\n        /* \"src/lib/Tick.sol\":512:592  if (liquidityBefore == 0) {... */\n      tag_122\n      jumpi\n        /* \"src/lib/Tick.sol\":576:580  true */\n      0x01\n        /* \"src/lib/Tick.sol\":553:561  tickInfo */\n      dup4\n        /* \"src/lib/Tick.sol\":553:573  tickInfo.initialized */\n      0x00\n      add\n      0x00\n        /* \"src/lib/Tick.sol\":553:580  tickInfo.initialized = true */\n      0x0100\n      exp\n      dup2\n      sload\n      dup2\n      0xff\n      mul\n      not\n      and\n      swap1\n      dup4\n      iszero\n      iszero\n      mul\n      or\n      swap1\n      sstore\n      pop\n        /* \"src/lib/Tick.sol\":512:592  if (liquidityBefore == 0) {... */\n    tag_122:\n        /* \"src/lib/Tick.sol\":623:637  liquidityAfter */\n      dup1\n        /* \"src/lib/Tick.sol\":602:610  tickInfo */\n      dup4\n        /* \"src/lib/Tick.sol\":602:620  tickInfo.liquidity */\n      0x00\n      add\n      0x01\n        /* \"src/lib/Tick.sol\":602:637  tickInfo.liquidity = liquidityAfter */\n      0x0100\n      exp\n      dup2\n      sload\n      dup2\n      0xffffffffffffffffffffffffffffffff\n      mul\n      not\n      and\n      swap1\n      dup4\n      0xffffffffffffffffffffffffffffffff\n      and\n      mul\n      or\n      swap1\n      sstore\n      pop\n        /* \"src/lib/Tick.sol\":703:704  0 */\n      0x00\n        /* \"src/lib/Tick.sol\":684:699  liquidityBefore */\n      dup3\n        /* \"src/lib/Tick.sol\":684:704  liquidityBefore == 0 */\n      0xffffffffffffffffffffffffffffffff\n      and\n      eq\n        /* \"src/lib/Tick.sol\":658:705  (liquidityAfter == 0) != (liquidityBefore == 0) */\n      iszero\n      iszero\n        /* \"src/lib/Tick.sol\":677:678  0 */\n      0x00\n        /* \"src/lib/Tick.sol\":659:673  liquidityAfter */\n      dup3\n        /* \"src/lib/Tick.sol\":659:678  liquidityAfter == 0 */\n      0xffffffffffffffffffffffffffffffff\n      and\n      eq\n        /* \"src/lib/Tick.sol\":658:705  (liquidityAfter == 0) != (liquidityBefore == 0) */\n      iszero\n      iszero\n      eq\n      iszero\n        /* \"src/lib/Tick.sol\":648:705  flipped = (liquidityAfter == 0) != (liquidityBefore == 0) */\n      swap4\n      pop\n        /* \"src/lib/Tick.sol\":328:713  {... */\n      pop\n      pop\n      pop\n        /* \"src/lib/Tick.sol\":168:713  function update(... */\n      swap4\n      swap3\n      pop\n      pop\n      pop\n      jump\t// out\n        /* \"src/lib/TickBitmap.sol\":1129:1486  function flipTick(... */\n    tag_69:\n        /* \"src/lib/TickBitmap.sol\":1302:1303  0 */\n      0x00\n        /* \"src/lib/TickBitmap.sol\":1287:1298  tickSpacing */\n      dup2\n        /* \"src/lib/TickBitmap.sol\":1280:1284  tick */\n      dup4\n        /* \"src/lib/TickBitmap.sol\":1280:1298  tick % tickSpacing */\n      tag_124\n      swap2\n      swap1\n      tag_125\n      jump\t// in\n    tag_124:\n        /* \"src/lib/TickBitmap.sol\":1280:1303  tick % tickSpacing == 0 */\n      0x02\n      signextend\n      eq\n        /* \"src/lib/TickBitmap.sol\":1272:1304  require(tick % tickSpacing == 0) */\n      tag_126\n      jumpi\n      revert(0x00, 0x00)\n    tag_126:\n        /* \"src/lib/TickBitmap.sol\":1350:1363  int16 wordPos */\n      0x00\n        /* \"src/lib/TickBitmap.sol\":1365:1377  uint8 bitPos */\n      0x00\n        /* \"src/lib/TickBitmap.sol\":1381:1409  position(tick / tickSpacing) */\n      tag_127\n        /* \"src/lib/TickBitmap.sol\":1397:1408  tickSpacing */\n      dup4\n        /* \"src/lib/TickBitmap.sol\":1390:1394  tick */\n      dup6\n        /* \"src/lib/TickBitmap.sol\":1390:1408  tick / tickSpacing */\n      tag_128\n      swap2\n      swap1\n      tag_129\n      jump\t// in\n    tag_128:\n        /* \"src/lib/TickBitmap.sol\":1381:1389  position */\n      tag_130\n        /* \"src/lib/TickBitmap.sol\":1381:1409  position(tick / tickSpacing) */\n      jump\t// in\n    tag_127:\n        /* \"src/lib/TickBitmap.sol\":1349:1409  (int16 wordPos, uint8 bitPos) = position(tick / tickSpacing) */\n      swap2\n      pop\n      swap2\n      pop\n        /* \"src/lib/TickBitmap.sol\":1420:1432  uint256 mask */\n      0x00\n        /* \"src/lib/TickBitmap.sol\":1440:1446  bitPos */\n      dup2\n        /* \"src/lib/TickBitmap.sol\":1435:1446  1 << bitPos */\n      0xff\n      and\n        /* \"src/lib/TickBitmap.sol\":1435:1436  1 */\n      0x01\n        /* \"src/lib/TickBitmap.sol\":1435:1446  1 << bitPos */\n      swap1\n      shl\n        /* \"src/lib/TickBitmap.sol\":1420:1446  uint256 mask = 1 << bitPos */\n      swap1\n      pop\n        /* \"src/lib/TickBitmap.sol\":1474:1478  mask */\n      dup1\n        /* \"src/lib/TickBitmap.sol\":1457:1461  self */\n      dup7\n        /* \"src/lib/TickBitmap.sol\":1457:1470  self[wordPos] */\n      0x00\n        /* \"src/lib/TickBitmap.sol\":1462:1469  wordPos */\n      dup6\n        /* \"src/lib/TickBitmap.sol\":1457:1470  self[wordPos] */\n      0x01\n      signextend\n      0x01\n      signextend\n      dup2\n      mstore\n      0x20\n      add\n      swap1\n      dup2\n      mstore\n      0x20\n      add\n      0x00\n      keccak256\n      0x00\n        /* \"src/lib/TickBitmap.sol\":1457:1478  self[wordPos] ^= mask */\n      dup3\n      dup3\n      sload\n      xor\n      swap3\n      pop\n      pop\n      dup2\n      swap1\n      sstore\n      pop\n        /* \"src/lib/TickBitmap.sol\":1261:1486  {... */\n      pop\n      pop\n      pop\n        /* \"src/lib/TickBitmap.sol\":1129:1486  function flipTick(... */\n      pop\n      pop\n      pop\n      jump\t// out\n        /* \"src/lib/Position.sol\":390:705  function get(... */\n    tag_73:\n        /* \"src/lib/Position.sol\":557:587  Position.Info storage position */\n      0x00\n        /* \"src/lib/Position.sol\":611:615  self */\n      dup5\n        /* \"src/lib/Position.sol\":611:697  self[... */\n      0x00\n        /* \"src/lib/Position.sol\":657:662  owner */\n      dup6\n        /* \"src/lib/Position.sol\":664:673  lowerTick */\n      dup6\n        /* \"src/lib/Position.sol\":675:684  upperTick */\n      dup6\n        /* \"src/lib/Position.sol\":640:685  abi.encodePacked(owner, lowerTick, upperTick) */\n      add(0x20, mload(0x40))\n      tag_132\n      swap4\n      swap3\n      swap2\n      swap1\n      tag_133\n      jump\t// in\n    tag_132:\n      mload(0x40)\n      0x20\n      dup2\n      dup4\n      sub\n      sub\n      dup2\n      mstore\n      swap1\n      0x40\n      mstore\n        /* \"src/lib/Position.sol\":630:686  keccak256(abi.encodePacked(owner, lowerTick, upperTick)) */\n      dup1\n      mload\n      swap1\n      0x20\n      add\n      keccak256\n        /* \"src/lib/Position.sol\":611:697  self[... */\n      dup2\n      mstore\n      0x20\n      add\n      swap1\n      dup2\n      mstore\n      0x20\n      add\n      0x00\n      keccak256\n        /* \"src/lib/Position.sol\":600:697  position = self[... */\n      swap1\n      pop\n        /* \"src/lib/Position.sol\":390:705  function get(... */\n      swap5\n      swap4\n      pop\n      pop\n      pop\n      pop\n      jump\t// out\n        /* \"src/lib/Position.sol\":145:382  function update(Info storage self, uint128 liquidityDelta) internal {... */\n    tag_75:\n        /* \"src/lib/Position.sol\":224:247  uint128 liquidityBefore */\n      0x00\n        /* \"src/lib/Position.sol\":250:254  self */\n      dup3\n        /* \"src/lib/Position.sol\":250:264  self.liquidity */\n      0x00\n      add\n      0x00\n      swap1\n      sload\n      swap1\n      0x0100\n      exp\n      swap1\n      div\n      0xffffffffffffffffffffffffffffffff\n      and\n        /* \"src/lib/Position.sol\":224:264  uint128 liquidityBefore = self.liquidity */\n      swap1\n      pop\n        /* \"src/lib/Position.sol\":275:297  uint128 liquidityAfter */\n      0x00\n        /* \"src/lib/Position.sol\":318:332  liquidityDelta */\n      dup3\n        /* \"src/lib/Position.sol\":300:315  liquidityBefore */\n      dup3\n        /* \"src/lib/Position.sol\":300:332  liquidityBefore + liquidityDelta */\n      tag_135\n      swap2\n      swap1\n      tag_77\n      jump\t// in\n    tag_135:\n        /* \"src/lib/Position.sol\":275:332  uint128 liquidityAfter = liquidityBefore + liquidityDelta */\n      swap1\n      pop\n        /* \"src/lib/Position.sol\":360:374  liquidityAfter */\n      dup1\n        /* \"src/lib/Position.sol\":343:347  self */\n      dup5\n        /* \"src/lib/Position.sol\":343:357  self.liquidity */\n      0x00\n      add\n      0x00\n        /* \"src/lib/Position.sol\":343:374  self.liquidity = liquidityAfter */\n      0x0100\n      exp\n      dup2\n      sload\n      dup2\n      0xffffffffffffffffffffffffffffffff\n      mul\n      not\n      and\n      swap1\n      dup4\n      0xffffffffffffffffffffffffffffffff\n      and\n      mul\n      or\n      swap1\n      sstore\n      pop\n        /* \"src/lib/Position.sol\":213:382  {... */\n      pop\n      pop\n        /* \"src/lib/Position.sol\":145:382  function update(Info storage self, uint128 liquidityDelta) internal {... */\n      pop\n      pop\n      jump\t// out\n        /* \"src/UniswapV3Pool.sol\":4362:4490  function balance0() internal view returns (uint256 balance) {... */\n    tag_80:\n        /* \"src/UniswapV3Pool.sol\":4405:4420  uint256 balance */\n      0x00\n        /* \"src/UniswapV3Pool.sol\":4450:4456  token0 */\n      immutable(\"0xeb09910a03c892999c305d4a86a46fa82693119d981eef22c8d043b31f9e8a31\")\n        /* \"src/UniswapV3Pool.sol\":4443:4467  IERC20(token0).balanceOf */\n      0xffffffffffffffffffffffffffffffffffffffff\n      and\n      0x70a08231\n        /* \"src/UniswapV3Pool.sol\":4476:4480  this */\n      address\n        /* \"src/UniswapV3Pool.sol\":4443:4482  IERC20(token0).balanceOf(address(this)) */\n      mload(0x40)\n      dup3\n      0xffffffff\n      and\n      0xe0\n      shl\n      dup2\n      mstore\n      0x04\n      add\n      tag_137\n      swap2\n      swap1\n      tag_16\n      jump\t// in\n    tag_137:\n      0x20\n      mload(0x40)\n      dup1\n      dup4\n      sub\n      dup2\n      dup7\n      gas\n      staticcall\n      iszero\n      dup1\n      iszero\n      tag_139\n      jumpi\n      returndatacopy(0x00, 0x00, returndatasize)\n      revert(0x00, returndatasize)\n    tag_139:\n      pop\n      pop\n      pop\n      pop\n      mload(0x40)\n      returndatasize\n      not(0x1f)\n      0x1f\n      dup3\n      add\n      and\n      dup3\n      add\n      dup1\n      0x40\n      mstore\n      pop\n      dup2\n      add\n      swap1\n      tag_140\n      swap2\n      swap1\n      tag_141\n      jump\t// in\n    tag_140:\n        /* \"src/UniswapV3Pool.sol\":4433:4482  balance = IERC20(token0).balanceOf(address(this)) */\n      swap1\n      pop\n        /* \"src/UniswapV3Pool.sol\":4362:4490  function balance0() internal view returns (uint256 balance) {... */\n      swap1\n      jump\t// out\n        /* \"src/UniswapV3Pool.sol\":4519:4647  function balance1() internal view returns (uint256 balance) {... */\n    tag_83:\n        /* \"src/UniswapV3Pool.sol\":4562:4577  uint256 balance */\n      0x00\n        /* \"src/UniswapV3Pool.sol\":4607:4613  token1 */\n      immutable(\"0x59c0d2b7af0a8e6d3d8e710a078764bd67b7223777026c424cdb4f599824bb79\")\n        /* \"src/UniswapV3Pool.sol\":4600:4624  IERC20(token1).balanceOf */\n      0xffffffffffffffffffffffffffffffffffffffff\n      and\n      0x70a08231\n        /* \"src/UniswapV3Pool.sol\":4633:4637  this */\n      address\n        /* \"src/UniswapV3Pool.sol\":4600:4639  IERC20(token1).balanceOf(address(this)) */\n      mload(0x40)\n      dup3\n      0xffffffff\n      and\n      0xe0\n      shl\n      dup2\n      mstore\n      0x04\n      add\n      tag_143\n      swap2\n      swap1\n      tag_16\n      jump\t// in\n    tag_143:\n      0x20\n      mload(0x40)\n      dup1\n      dup4\n      sub\n      dup2\n      dup7\n      gas\n      staticcall\n      iszero\n      dup1\n      iszero\n      tag_145\n      jumpi\n      returndatacopy(0x00, 0x00, returndatasize)\n      revert(0x00, returndatasize)\n    tag_145:\n      pop\n      pop\n      pop\n      pop\n      mload(0x40)\n      returndatasize\n      not(0x1f)\n      0x1f\n      dup3\n      add\n      and\n      dup3\n      add\n      dup1\n      0x40\n      mstore\n      pop\n      dup2\n      add\n      swap1\n      tag_146\n      swap2\n      swap1\n      tag_141\n      jump\t// in\n    tag_146:\n        /* \"src/UniswapV3Pool.sol\":4590:4639  balance = IERC20(token1).balanceOf(address(this)) */\n      swap1\n      pop\n        /* \"src/UniswapV3Pool.sol\":4519:4647  function balance1() internal view returns (uint256 balance) {... */\n      swap1\n      jump\t// out\n        /* \"src/lib/TickBitmap.sol\":694:867  function position(int24 tick) private pure returns (int16 wordPos, uint8 bitPos) {... */\n    tag_130:\n        /* \"src/lib/TickBitmap.sol\":746:759  int16 wordPos */\n      0x00\n        /* \"src/lib/TickBitmap.sol\":761:773  uint8 bitPos */\n      0x00\n        /* \"src/lib/TickBitmap.sol\":810:811  8 */\n      0x08\n        /* \"src/lib/TickBitmap.sol\":802:806  tick */\n      dup4\n        /* \"src/lib/TickBitmap.sol\":802:811  tick >> 8 */\n      0x02\n      signextend\n      swap1\n      sar\n        /* \"src/lib/TickBitmap.sol\":786:812  wordPos = int16(tick >> 8) */\n      swap2\n      pop\n        /* \"src/lib/TickBitmap.sol\":852:855  256 */\n      0x0100\n        /* \"src/lib/TickBitmap.sol\":845:849  tick */\n      dup4\n        /* \"src/lib/TickBitmap.sol\":845:855  tick % 256 */\n      tag_148\n      swap2\n      swap1\n      tag_125\n      jump\t// in\n    tag_148:\n        /* \"src/lib/TickBitmap.sol\":823:857  bitPos = uint8(uint24(tick % 256)) */\n      swap1\n      pop\n        /* \"src/lib/TickBitmap.sol\":694:867  function position(int24 tick) private pure returns (int16 wordPos, uint8 bitPos) {... */\n      swap2\n      pop\n      swap2\n      jump\t// out\n        /* \"#utility.yul\":7:133   */\n    tag_149:\n        /* \"#utility.yul\":44:51   */\n      0x00\n        /* \"#utility.yul\":84:126   */\n      0xffffffffffffffffffffffffffffffffffffffff\n        /* \"#utility.yul\":77:82   */\n      dup3\n        /* \"#utility.yul\":73:127   */\n      and\n        /* \"#utility.yul\":62:127   */\n      swap1\n      pop\n        /* \"#utility.yul\":7:133   */\n      swap2\n      swap1\n      pop\n      jump\t// out\n        /* \"#utility.yul\":139:235   */\n    tag_150:\n        /* \"#utility.yul\":176:183   */\n      0x00\n        /* \"#utility.yul\":205:229   */\n      tag_202\n        /* \"#utility.yul\":223:228   */\n      dup3\n        /* \"#utility.yul\":205:229   */\n      tag_149\n      jump\t// in\n    tag_202:\n        /* \"#utility.yul\":194:229   */\n      swap1\n      pop\n        /* \"#utility.yul\":139:235   */\n      swap2\n      swap1\n      pop\n      jump\t// out\n        /* \"#utility.yul\":241:359   */\n    tag_151:\n        /* \"#utility.yul\":328:352   */\n      tag_204\n        /* \"#utility.yul\":346:351   */\n      dup2\n        /* \"#utility.yul\":328:352   */\n      tag_150\n      jump\t// in\n    tag_204:\n        /* \"#utility.yul\":323:326   */\n      dup3\n        /* \"#utility.yul\":316:353   */\n      mstore\n        /* \"#utility.yul\":241:359   */\n      pop\n      pop\n      jump\t// out\n        /* \"#utility.yul\":365:587   */\n    tag_16:\n        /* \"#utility.yul\":458:462   */\n      0x00\n        /* \"#utility.yul\":496:498   */\n      0x20\n        /* \"#utility.yul\":485:494   */\n      dup3\n        /* \"#utility.yul\":481:499   */\n      add\n        /* \"#utility.yul\":473:499   */\n      swap1\n      pop\n        /* \"#utility.yul\":509:580   */\n      tag_206\n        /* \"#utility.yul\":577:578   */\n      0x00\n        /* \"#utility.yul\":566:575   */\n      dup4\n        /* \"#utility.yul\":562:579   */\n      add\n        /* \"#utility.yul\":553:559   */\n      dup5\n        /* \"#utility.yul\":509:580   */\n      tag_151\n      jump\t// in\n    tag_206:\n        /* \"#utility.yul\":365:587   */\n      swap3\n      swap2\n      pop\n      pop\n      jump\t// out\n        /* \"#utility.yul\":593:711   */\n    tag_152:\n        /* \"#utility.yul\":630:637   */\n      0x00\n        /* \"#utility.yul\":670:704   */\n      0xffffffffffffffffffffffffffffffff\n        /* \"#utility.yul\":663:668   */\n      dup3\n        /* \"#utility.yul\":659:705   */\n      and\n        /* \"#utility.yul\":648:705   */\n      swap1\n      pop\n        /* \"#utility.yul\":593:711   */\n      swap2\n      swap1\n      pop\n      jump\t// out\n        /* \"#utility.yul\":717:835   */\n    tag_153:\n        /* \"#utility.yul\":804:828   */\n      tag_209\n        /* \"#utility.yul\":822:827   */\n      dup2\n        /* \"#utility.yul\":804:828   */\n      tag_152\n      jump\t// in\n    tag_209:\n        /* \"#utility.yul\":799:802   */\n      dup3\n        /* \"#utility.yul\":792:829   */\n      mstore\n        /* \"#utility.yul\":717:835   */\n      pop\n      pop\n      jump\t// out\n        /* \"#utility.yul\":841:1063   */\n    tag_20:\n        /* \"#utility.yul\":934:938   */\n      0x00\n        /* \"#utility.yul\":972:974   */\n      0x20\n        /* \"#utility.yul\":961:970   */\n      dup3\n        /* \"#utility.yul\":957:975   */\n      add\n        /* \"#utility.yul\":949:975   */\n      swap1\n      pop\n        /* \"#utility.yul\":985:1056   */\n      tag_211\n        /* \"#utility.yul\":1053:1054   */\n      0x00\n        /* \"#utility.yul\":1042:1051   */\n      dup4\n        /* \"#utility.yul\":1038:1055   */\n      add\n        /* \"#utility.yul\":1029:1035   */\n      dup5\n        /* \"#utility.yul\":985:1056   */\n      tag_153\n      jump\t// in\n    tag_211:\n        /* \"#utility.yul\":841:1063   */\n      swap3\n      swap2\n      pop\n      pop\n      jump\t// out\n        /* \"#utility.yul\":1069:1187   */\n    tag_154:\n        /* \"#utility.yul\":1156:1180   */\n      tag_213\n        /* \"#utility.yul\":1174:1179   */\n      dup2\n        /* \"#utility.yul\":1156:1180   */\n      tag_149\n      jump\t// in\n    tag_213:\n        /* \"#utility.yul\":1151:1154   */\n      dup3\n        /* \"#utility.yul\":1144:1181   */\n      mstore\n        /* \"#utility.yul\":1069:1187   */\n      pop\n      pop\n      jump\t// out\n        /* \"#utility.yul\":1193:1283   */\n    tag_155:\n        /* \"#utility.yul\":1228:1235   */\n      0x00\n        /* \"#utility.yul\":1271:1276   */\n      dup2\n        /* \"#utility.yul\":1268:1269   */\n      0x02\n        /* \"#utility.yul\":1257:1277   */\n      signextend\n        /* \"#utility.yul\":1246:1277   */\n      swap1\n      pop\n        /* \"#utility.yul\":1193:1283   */\n      swap2\n      swap1\n      pop\n      jump\t// out\n        /* \"#utility.yul\":1289:1401   */\n    tag_156:\n        /* \"#utility.yul\":1372:1394   */\n      tag_216\n        /* \"#utility.yul\":1388:1393   */\n      dup2\n        /* \"#utility.yul\":1372:1394   */\n      tag_155\n      jump\t// in\n    tag_216:\n        /* \"#utility.yul\":1367:1370   */\n      dup3\n        /* \"#utility.yul\":1360:1395   */\n      mstore\n        /* \"#utility.yul\":1289:1401   */\n      pop\n      pop\n      jump\t// out\n        /* \"#utility.yul\":1407:1731   */\n    tag_24:\n        /* \"#utility.yul\":1524:1528   */\n      0x00\n        /* \"#utility.yul\":1562:1564   */\n      0x40\n        /* \"#utility.yul\":1551:1560   */\n      dup3\n        /* \"#utility.yul\":1547:1565   */\n      add\n        /* \"#utility.yul\":1539:1565   */\n      swap1\n      pop\n        /* \"#utility.yul\":1575:1646   */\n      tag_218\n        /* \"#utility.yul\":1643:1644   */\n      0x00\n        /* \"#utility.yul\":1632:1641   */\n      dup4\n        /* \"#utility.yul\":1628:1645   */\n      add\n        /* \"#utility.yul\":1619:1625   */\n      dup6\n        /* \"#utility.yul\":1575:1646   */\n      tag_154\n      jump\t// in\n    tag_218:\n        /* \"#utility.yul\":1656:1724   */\n      tag_219\n        /* \"#utility.yul\":1720:1722   */\n      0x20\n        /* \"#utility.yul\":1709:1718   */\n      dup4\n        /* \"#utility.yul\":1705:1723   */\n      add\n        /* \"#utility.yul\":1696:1702   */\n      dup5\n        /* \"#utility.yul\":1656:1724   */\n      tag_156\n      jump\t// in\n    tag_219:\n        /* \"#utility.yul\":1407:1731   */\n      swap4\n      swap3\n      pop\n      pop\n      pop\n      jump\t// out\n        /* \"#utility.yul\":1818:1935   */\n    tag_158:\n        /* \"#utility.yul\":1927:1928   */\n      0x00\n        /* \"#utility.yul\":1924:1925   */\n      0x00\n        /* \"#utility.yul\":1917:1929   */\n      revert\n        /* \"#utility.yul\":1941:2058   */\n    tag_159:\n        /* \"#utility.yul\":2050:2051   */\n      0x00\n        /* \"#utility.yul\":2047:2048   */\n      0x00\n        /* \"#utility.yul\":2040:2052   */\n      revert\n        /* \"#utility.yul\":2064:2186   */\n    tag_160:\n        /* \"#utility.yul\":2137:2161   */\n      tag_224\n        /* \"#utility.yul\":2155:2160   */\n      dup2\n        /* \"#utility.yul\":2137:2161   */\n      tag_150\n      jump\t// in\n    tag_224:\n        /* \"#utility.yul\":2130:2135   */\n      dup2\n        /* \"#utility.yul\":2127:2162   */\n      eq\n        /* \"#utility.yul\":2117:2180   */\n      tag_225\n      jumpi\n        /* \"#utility.yul\":2176:2177   */\n      0x00\n        /* \"#utility.yul\":2173:2174   */\n      0x00\n        /* \"#utility.yul\":2166:2178   */\n      revert\n        /* \"#utility.yul\":2117:2180   */\n    tag_225:\n        /* \"#utility.yul\":2064:2186   */\n      pop\n      jump\t// out\n        /* \"#utility.yul\":2192:2331   */\n    tag_161:\n        /* \"#utility.yul\":2238:2243   */\n      0x00\n        /* \"#utility.yul\":2276:2282   */\n      dup2\n        /* \"#utility.yul\":2263:2283   */\n      calldataload\n        /* \"#utility.yul\":2254:2283   */\n      swap1\n      pop\n        /* \"#utility.yul\":2292:2325   */\n      tag_227\n        /* \"#utility.yul\":2319:2324   */\n      dup2\n        /* \"#utility.yul\":2292:2325   */\n      tag_160\n      jump\t// in\n    tag_227:\n        /* \"#utility.yul\":2192:2331   */\n      swap3\n      swap2\n      pop\n      pop\n      jump\t// out\n        /* \"#utility.yul\":2337:2455   */\n    tag_162:\n        /* \"#utility.yul\":2408:2430   */\n      tag_229\n        /* \"#utility.yul\":2424:2429   */\n      dup2\n        /* \"#utility.yul\":2408:2430   */\n      tag_155\n      jump\t// in\n    tag_229:\n        /* \"#utility.yul\":2401:2406   */\n      dup2\n        /* \"#utility.yul\":2398:2431   */\n      eq\n        /* \"#utility.yul\":2388:2449   */\n      tag_230\n      jumpi\n        /* \"#utility.yul\":2445:2446   */\n      0x00\n        /* \"#utility.yul\":2442:2443   */\n      0x00\n        /* \"#utility.yul\":2435:2447   */\n      revert\n        /* \"#utility.yul\":2388:2449   */\n    tag_230:\n        /* \"#utility.yul\":2337:2455   */\n      pop\n      jump\t// out\n        /* \"#utility.yul\":2461:2596   */\n    tag_163:\n        /* \"#utility.yul\":2505:2510   */\n      0x00\n        /* \"#utility.yul\":2543:2549   */\n      dup2\n        /* \"#utility.yul\":2530:2550   */\n      calldataload\n        /* \"#utility.yul\":2521:2550   */\n      swap1\n      pop\n        /* \"#utility.yul\":2559:2590   */\n      tag_232\n        /* \"#utility.yul\":2584:2589   */\n      dup2\n        /* \"#utility.yul\":2559:2590   */\n      tag_162\n      jump\t// in\n    tag_232:\n        /* \"#utility.yul\":2461:2596   */\n      swap3\n      swap2\n      pop\n      pop\n      jump\t// out\n        /* \"#utility.yul\":2602:2724   */\n    tag_164:\n        /* \"#utility.yul\":2675:2699   */\n      tag_234\n        /* \"#utility.yul\":2693:2698   */\n      dup2\n        /* \"#utility.yul\":2675:2699   */\n      tag_152\n      jump\t// in\n    tag_234:\n        /* \"#utility.yul\":2668:2673   */\n      dup2\n        /* \"#utility.yul\":2665:2700   */\n      eq\n        /* \"#utility.yul\":2655:2718   */\n      tag_235\n      jumpi\n        /* \"#utility.yul\":2714:2715   */\n      0x00\n        /* \"#utility.yul\":2711:2712   */\n      0x00\n        /* \"#utility.yul\":2704:2716   */\n      revert\n        /* \"#utility.yul\":2655:2718   */\n    tag_235:\n        /* \"#utility.yul\":2602:2724   */\n      pop\n      jump\t// out\n        /* \"#utility.yul\":2730:2869   */\n    tag_165:\n        /* \"#utility.yul\":2776:2781   */\n      0x00\n        /* \"#utility.yul\":2814:2820   */\n      dup2\n        /* \"#utility.yul\":2801:2821   */\n      calldataload\n        /* \"#utility.yul\":2792:2821   */\n      swap1\n      pop\n        /* \"#utility.yul\":2830:2863   */\n      tag_237\n        /* \"#utility.yul\":2857:2862   */\n      dup2\n        /* \"#utility.yul\":2830:2863   */\n      tag_164\n      jump\t// in\n    tag_237:\n        /* \"#utility.yul\":2730:2869   */\n      swap3\n      swap2\n      pop\n      pop\n      jump\t// out\n        /* \"#utility.yul\":2875:2992   */\n    tag_166:\n        /* \"#utility.yul\":2984:2985   */\n      0x00\n        /* \"#utility.yul\":2981:2982   */\n      0x00\n        /* \"#utility.yul\":2974:2986   */\n      revert\n        /* \"#utility.yul\":2998:3115   */\n    tag_167:\n        /* \"#utility.yul\":3107:3108   */\n      0x00\n        /* \"#utility.yul\":3104:3105   */\n      0x00\n        /* \"#utility.yul\":3097:3109   */\n      revert\n        /* \"#utility.yul\":3121:3238   */\n    tag_168:\n        /* \"#utility.yul\":3230:3231   */\n      0x00\n        /* \"#utility.yul\":3227:3228   */\n      0x00\n        /* \"#utility.yul\":3220:3232   */\n      revert\n        /* \"#utility.yul\":3257:3809   */\n    tag_169:\n        /* \"#utility.yul\":3314:3322   */\n      0x00\n        /* \"#utility.yul\":3324:3330   */\n      0x00\n        /* \"#utility.yul\":3374:3377   */\n      dup4\n        /* \"#utility.yul\":3367:3371   */\n      0x1f\n        /* \"#utility.yul\":3359:3365   */\n      dup5\n        /* \"#utility.yul\":3355:3372   */\n      add\n        /* \"#utility.yul\":3351:3378   */\n      slt\n        /* \"#utility.yul\":3341:3463   */\n      tag_242\n      jumpi\n        /* \"#utility.yul\":3382:3461   */\n      tag_243\n      tag_166\n      jump\t// in\n    tag_243:\n        /* \"#utility.yul\":3341:3463   */\n    tag_242:\n        /* \"#utility.yul\":3495:3501   */\n      dup3\n        /* \"#utility.yul\":3482:3502   */\n      calldataload\n        /* \"#utility.yul\":3472:3502   */\n      swap1\n      pop\n        /* \"#utility.yul\":3525:3543   */\n      0xffffffffffffffff\n        /* \"#utility.yul\":3517:3523   */\n      dup2\n        /* \"#utility.yul\":3514:3544   */\n      gt\n        /* \"#utility.yul\":3511:3628   */\n      iszero\n      tag_244\n      jumpi\n        /* \"#utility.yul\":3547:3626   */\n      tag_245\n      tag_167\n      jump\t// in\n    tag_245:\n        /* \"#utility.yul\":3511:3628   */\n    tag_244:\n        /* \"#utility.yul\":3661:3665   */\n      0x20\n        /* \"#utility.yul\":3653:3659   */\n      dup4\n        /* \"#utility.yul\":3649:3666   */\n      add\n        /* \"#utility.yul\":3637:3666   */\n      swap2\n      pop\n        /* \"#utility.yul\":3715:3718   */\n      dup4\n        /* \"#utility.yul\":3707:3711   */\n      0x01\n        /* \"#utility.yul\":3699:3705   */\n      dup3\n        /* \"#utility.yul\":3695:3712   */\n      mul\n        /* \"#utility.yul\":3685:3693   */\n      dup4\n        /* \"#utility.yul\":3681:3713   */\n      add\n        /* \"#utility.yul\":3678:3719   */\n      gt\n        /* \"#utility.yul\":3675:3803   */\n      iszero\n      tag_246\n      jumpi\n        /* \"#utility.yul\":3722:3801   */\n      tag_247\n      tag_168\n      jump\t// in\n    tag_247:\n        /* \"#utility.yul\":3675:3803   */\n    tag_246:\n        /* \"#utility.yul\":3257:3809   */\n      swap3\n      pop\n      swap3\n      swap1\n      pop\n      jump\t// out\n        /* \"#utility.yul\":3815:4916   */\n    tag_27:\n        /* \"#utility.yul\":3917:3923   */\n      0x00\n        /* \"#utility.yul\":3925:3931   */\n      0x00\n        /* \"#utility.yul\":3933:3939   */\n      0x00\n        /* \"#utility.yul\":3941:3947   */\n      0x00\n        /* \"#utility.yul\":3949:3955   */\n      0x00\n        /* \"#utility.yul\":3957:3963   */\n      0x00\n        /* \"#utility.yul\":4006:4009   */\n      0xa0\n        /* \"#utility.yul\":3994:4003   */\n      dup8\n        /* \"#utility.yul\":3985:3992   */\n      dup10\n        /* \"#utility.yul\":3981:4004   */\n      sub\n        /* \"#utility.yul\":3977:4010   */\n      slt\n        /* \"#utility.yul\":3974:4094   */\n      iszero\n      tag_249\n      jumpi\n        /* \"#utility.yul\":4013:4092   */\n      tag_250\n      tag_158\n      jump\t// in\n    tag_250:\n        /* \"#utility.yul\":3974:4094   */\n    tag_249:\n        /* \"#utility.yul\":4133:4134   */\n      0x00\n        /* \"#utility.yul\":4158:4211   */\n      tag_251\n        /* \"#utility.yul\":4203:4210   */\n      dup10\n        /* \"#utility.yul\":4194:4200   */\n      dup3\n        /* \"#utility.yul\":4183:4192   */\n      dup11\n        /* \"#utility.yul\":4179:4201   */\n      add\n        /* \"#utility.yul\":4158:4211   */\n      tag_161\n      jump\t// in\n    tag_251:\n        /* \"#utility.yul\":4148:4211   */\n      swap7\n      pop\n        /* \"#utility.yul\":4104:4221   */\n      pop\n        /* \"#utility.yul\":4260:4262   */\n      0x20\n        /* \"#utility.yul\":4286:4337   */\n      tag_252\n        /* \"#utility.yul\":4329:4336   */\n      dup10\n        /* \"#utility.yul\":4320:4326   */\n      dup3\n        /* \"#utility.yul\":4309:4318   */\n      dup11\n        /* \"#utility.yul\":4305:4327   */\n      add\n        /* \"#utility.yul\":4286:4337   */\n      tag_163\n      jump\t// in\n    tag_252:\n        /* \"#utility.yul\":4276:4337   */\n      swap6\n      pop\n        /* \"#utility.yul\":4231:4347   */\n      pop\n        /* \"#utility.yul\":4386:4388   */\n      0x40\n        /* \"#utility.yul\":4412:4463   */\n      tag_253\n        /* \"#utility.yul\":4455:4462   */\n      dup10\n        /* \"#utility.yul\":4446:4452   */\n      dup3\n        /* \"#utility.yul\":4435:4444   */\n      dup11\n        /* \"#utility.yul\":4431:4453   */\n      add\n        /* \"#utility.yul\":4412:4463   */\n      tag_163\n      jump\t// in\n    tag_253:\n        /* \"#utility.yul\":4402:4463   */\n      swap5\n      pop\n        /* \"#utility.yul\":4357:4473   */\n      pop\n        /* \"#utility.yul\":4512:4514   */\n      0x60\n        /* \"#utility.yul\":4538:4591   */\n      tag_254\n        /* \"#utility.yul\":4583:4590   */\n      dup10\n        /* \"#utility.yul\":4574:4580   */\n      dup3\n        /* \"#utility.yul\":4563:4572   */\n      dup11\n        /* \"#utility.yul\":4559:4581   */\n      add\n        /* \"#utility.yul\":4538:4591   */\n      tag_165\n      jump\t// in\n    tag_254:\n        /* \"#utility.yul\":4528:4591   */\n      swap4\n      pop\n        /* \"#utility.yul\":4483:4601   */\n      pop\n        /* \"#utility.yul\":4668:4671   */\n      0x80\n        /* \"#utility.yul\":4657:4666   */\n      dup8\n        /* \"#utility.yul\":4653:4672   */\n      add\n        /* \"#utility.yul\":4640:4673   */\n      calldataload\n        /* \"#utility.yul\":4700:4718   */\n      0xffffffffffffffff\n        /* \"#utility.yul\":4692:4698   */\n      dup2\n        /* \"#utility.yul\":4689:4719   */\n      gt\n        /* \"#utility.yul\":4686:4803   */\n      iszero\n      tag_255\n      jumpi\n        /* \"#utility.yul\":4722:4801   */\n      tag_256\n      tag_159\n      jump\t// in\n    tag_256:\n        /* \"#utility.yul\":4686:4803   */\n    tag_255:\n        /* \"#utility.yul\":4835:4899   */\n      tag_257\n        /* \"#utility.yul\":4891:4898   */\n      dup10\n        /* \"#utility.yul\":4882:4888   */\n      dup3\n        /* \"#utility.yul\":4871:4880   */\n      dup11\n        /* \"#utility.yul\":4867:4889   */\n      add\n        /* \"#utility.yul\":4835:4899   */\n      tag_169\n      jump\t// in\n    tag_257:\n        /* \"#utility.yul\":4817:4899   */\n      swap3\n      pop\n      swap3\n      pop\n        /* \"#utility.yul\":4611:4909   */\n      pop\n        /* \"#utility.yul\":3815:4916   */\n      swap3\n      swap6\n      pop\n      swap3\n      swap6\n      pop\n      swap3\n      swap6\n      jump\t// out\n        /* \"#utility.yul\":4922:4999   */\n    tag_170:\n        /* \"#utility.yul\":4959:4966   */\n      0x00\n        /* \"#utility.yul\":4988:4993   */\n      dup2\n        /* \"#utility.yul\":4977:4993   */\n      swap1\n      pop\n        /* \"#utility.yul\":4922:4999   */\n      swap2\n      swap1\n      pop\n      jump\t// out\n        /* \"#utility.yul\":5005:5123   */\n    tag_171:\n        /* \"#utility.yul\":5092:5116   */\n      tag_260\n        /* \"#utility.yul\":5110:5115   */\n      dup2\n        /* \"#utility.yul\":5092:5116   */\n      tag_170\n      jump\t// in\n    tag_260:\n        /* \"#utility.yul\":5087:5090   */\n      dup3\n        /* \"#utility.yul\":5080:5117   */\n      mstore\n        /* \"#utility.yul\":5005:5123   */\n      pop\n      pop\n      jump\t// out\n        /* \"#utility.yul\":5129:5461   */\n    tag_30:\n        /* \"#utility.yul\":5250:5254   */\n      0x00\n        /* \"#utility.yul\":5288:5290   */\n      0x40\n        /* \"#utility.yul\":5277:5286   */\n      dup3\n        /* \"#utility.yul\":5273:5291   */\n      add\n        /* \"#utility.yul\":5265:5291   */\n      swap1\n      pop\n        /* \"#utility.yul\":5301:5372   */\n      tag_262\n        /* \"#utility.yul\":5369:5370   */\n      0x00\n        /* \"#utility.yul\":5358:5367   */\n      dup4\n        /* \"#utility.yul\":5354:5371   */\n      add\n        /* \"#utility.yul\":5345:5351   */\n      dup6\n        /* \"#utility.yul\":5301:5372   */\n      tag_171\n      jump\t// in\n    tag_262:\n        /* \"#utility.yul\":5382:5454   */\n      tag_263\n        /* \"#utility.yul\":5450:5452   */\n      0x20\n        /* \"#utility.yul\":5439:5448   */\n      dup4\n        /* \"#utility.yul\":5435:5453   */\n      add\n        /* \"#utility.yul\":5426:5432   */\n      dup5\n        /* \"#utility.yul\":5382:5454   */\n      tag_171\n      jump\t// in\n    tag_263:\n        /* \"#utility.yul\":5129:5461   */\n      swap4\n      swap3\n      pop\n      pop\n      pop\n      jump\t// out\n        /* \"#utility.yul\":5467:5544   */\n    tag_172:\n        /* \"#utility.yul\":5504:5511   */\n      0x00\n        /* \"#utility.yul\":5533:5538   */\n      dup2\n        /* \"#utility.yul\":5522:5538   */\n      swap1\n      pop\n        /* \"#utility.yul\":5467:5544   */\n      swap2\n      swap1\n      pop\n      jump\t// out\n        /* \"#utility.yul\":5550:5672   */\n    tag_173:\n        /* \"#utility.yul\":5623:5647   */\n      tag_266\n        /* \"#utility.yul\":5641:5646   */\n      dup2\n        /* \"#utility.yul\":5623:5647   */\n      tag_172\n      jump\t// in\n    tag_266:\n        /* \"#utility.yul\":5616:5621   */\n      dup2\n        /* \"#utility.yul\":5613:5648   */\n      eq\n        /* \"#utility.yul\":5603:5666   */\n      tag_267\n      jumpi\n        /* \"#utility.yul\":5662:5663   */\n      0x00\n        /* \"#utility.yul\":5659:5660   */\n      0x00\n        /* \"#utility.yul\":5652:5664   */\n      revert\n        /* \"#utility.yul\":5603:5666   */\n    tag_267:\n        /* \"#utility.yul\":5550:5672   */\n      pop\n      jump\t// out\n        /* \"#utility.yul\":5678:5817   */\n    tag_174:\n        /* \"#utility.yul\":5724:5729   */\n      0x00\n        /* \"#utility.yul\":5762:5768   */\n      dup2\n        /* \"#utility.yul\":5749:5769   */\n      calldataload\n        /* \"#utility.yul\":5740:5769   */\n      swap1\n      pop\n        /* \"#utility.yul\":5778:5811   */\n      tag_269\n        /* \"#utility.yul\":5805:5810   */\n      dup2\n        /* \"#utility.yul\":5778:5811   */\n      tag_173\n      jump\t// in\n    tag_269:\n        /* \"#utility.yul\":5678:5817   */\n      swap3\n      swap2\n      pop\n      pop\n      jump\t// out\n        /* \"#utility.yul\":5823:6152   */\n    tag_33:\n        /* \"#utility.yul\":5882:5888   */\n      0x00\n        /* \"#utility.yul\":5931:5933   */\n      0x20\n        /* \"#utility.yul\":5919:5928   */\n      dup3\n        /* \"#utility.yul\":5910:5917   */\n      dup5\n        /* \"#utility.yul\":5906:5929   */\n      sub\n        /* \"#utility.yul\":5902:5934   */\n      slt\n        /* \"#utility.yul\":5899:6018   */\n      iszero\n      tag_271\n      jumpi\n        /* \"#utility.yul\":5937:6016   */\n      tag_272\n      tag_158\n      jump\t// in\n    tag_272:\n        /* \"#utility.yul\":5899:6018   */\n    tag_271:\n        /* \"#utility.yul\":6057:6058   */\n      0x00\n        /* \"#utility.yul\":6082:6135   */\n      tag_273\n        /* \"#utility.yul\":6127:6134   */\n      dup5\n        /* \"#utility.yul\":6118:6124   */\n      dup3\n        /* \"#utility.yul\":6107:6116   */\n      dup6\n        /* \"#utility.yul\":6103:6125   */\n      add\n        /* \"#utility.yul\":6082:6135   */\n      tag_174\n      jump\t// in\n    tag_273:\n        /* \"#utility.yul\":6072:6135   */\n      swap2\n      pop\n        /* \"#utility.yul\":6028:6145   */\n      pop\n        /* \"#utility.yul\":5823:6152   */\n      swap3\n      swap2\n      pop\n      pop\n      jump\t// out\n        /* \"#utility.yul\":6158:6248   */\n    tag_175:\n        /* \"#utility.yul\":6193:6200   */\n      0x00\n        /* \"#utility.yul\":6236:6241   */\n      dup2\n        /* \"#utility.yul\":6233:6234   */\n      0x01\n        /* \"#utility.yul\":6222:6242   */\n      signextend\n        /* \"#utility.yul\":6211:6242   */\n      swap1\n      pop\n        /* \"#utility.yul\":6158:6248   */\n      swap2\n      swap1\n      pop\n      jump\t// out\n        /* \"#utility.yul\":6254:6372   */\n    tag_176:\n        /* \"#utility.yul\":6325:6347   */\n      tag_276\n        /* \"#utility.yul\":6341:6346   */\n      dup2\n        /* \"#utility.yul\":6325:6347   */\n      tag_175\n      jump\t// in\n    tag_276:\n        /* \"#utility.yul\":6318:6323   */\n      dup2\n        /* \"#utility.yul\":6315:6348   */\n      eq\n        /* \"#utility.yul\":6305:6366   */\n      tag_277\n      jumpi\n        /* \"#utility.yul\":6362:6363   */\n      0x00\n        /* \"#utility.yul\":6359:6360   */\n      0x00\n        /* \"#utility.yul\":6352:6364   */\n      revert\n        /* \"#utility.yul\":6305:6366   */\n    tag_277:\n        /* \"#utility.yul\":6254:6372   */\n      pop\n      jump\t// out\n        /* \"#utility.yul\":6378:6513   */\n    tag_177:\n        /* \"#utility.yul\":6422:6427   */\n      0x00\n        /* \"#utility.yul\":6460:6466   */\n      dup2\n        /* \"#utility.yul\":6447:6467   */\n      calldataload\n        /* \"#utility.yul\":6438:6467   */\n      swap1\n      pop\n        /* \"#utility.yul\":6476:6507   */\n      tag_279\n        /* \"#utility.yul\":6501:6506   */\n      dup2\n        /* \"#utility.yul\":6476:6507   */\n      tag_176\n      jump\t// in\n    tag_279:\n        /* \"#utility.yul\":6378:6513   */\n      swap3\n      swap2\n      pop\n      pop\n      jump\t// out\n        /* \"#utility.yul\":6519:6844   */\n    tag_38:\n        /* \"#utility.yul\":6576:6582   */\n      0x00\n        /* \"#utility.yul\":6625:6627   */\n      0x20\n        /* \"#utility.yul\":6613:6622   */\n      dup3\n        /* \"#utility.yul\":6604:6611   */\n      dup5\n        /* \"#utility.yul\":6600:6623   */\n      sub\n        /* \"#utility.yul\":6596:6628   */\n      slt\n        /* \"#utility.yul\":6593:6712   */\n      iszero\n      tag_281\n      jumpi\n        /* \"#utility.yul\":6631:6710   */\n      tag_282\n      tag_158\n      jump\t// in\n    tag_282:\n        /* \"#utility.yul\":6593:6712   */\n    tag_281:\n        /* \"#utility.yul\":6751:6752   */\n      0x00\n        /* \"#utility.yul\":6776:6827   */\n      tag_283\n        /* \"#utility.yul\":6819:6826   */\n      dup5\n        /* \"#utility.yul\":6810:6816   */\n      dup3\n        /* \"#utility.yul\":6799:6808   */\n      dup6\n        /* \"#utility.yul\":6795:6817   */\n      add\n        /* \"#utility.yul\":6776:6827   */\n      tag_177\n      jump\t// in\n    tag_283:\n        /* \"#utility.yul\":6766:6827   */\n      swap2\n      pop\n        /* \"#utility.yul\":6722:6837   */\n      pop\n        /* \"#utility.yul\":6519:6844   */\n      swap3\n      swap2\n      pop\n      pop\n      jump\t// out\n        /* \"#utility.yul\":6850:7072   */\n    tag_41:\n        /* \"#utility.yul\":6943:6947   */\n      0x00\n        /* \"#utility.yul\":6981:6983   */\n      0x20\n        /* \"#utility.yul\":6970:6979   */\n      dup3\n        /* \"#utility.yul\":6966:6984   */\n      add\n        /* \"#utility.yul\":6958:6984   */\n      swap1\n      pop\n        /* \"#utility.yul\":6994:7065   */\n      tag_285\n        /* \"#utility.yul\":7062:7063   */\n      0x00\n        /* \"#utility.yul\":7051:7060   */\n      dup4\n        /* \"#utility.yul\":7047:7064   */\n      add\n        /* \"#utility.yul\":7038:7044   */\n      dup5\n        /* \"#utility.yul\":6994:7065   */\n      tag_171\n      jump\t// in\n    tag_285:\n        /* \"#utility.yul\":6850:7072   */\n      swap3\n      swap2\n      pop\n      pop\n      jump\t// out\n        /* \"#utility.yul\":7078:7750   */\n    tag_47:\n        /* \"#utility.yul\":7157:7163   */\n      0x00\n        /* \"#utility.yul\":7165:7171   */\n      0x00\n        /* \"#utility.yul\":7173:7179   */\n      0x00\n        /* \"#utility.yul\":7222:7224   */\n      0x40\n        /* \"#utility.yul\":7210:7219   */\n      dup5\n        /* \"#utility.yul\":7201:7208   */\n      dup7\n        /* \"#utility.yul\":7197:7220   */\n      sub\n        /* \"#utility.yul\":7193:7225   */\n      slt\n        /* \"#utility.yul\":7190:7309   */\n      iszero\n      tag_287\n      jumpi\n        /* \"#utility.yul\":7228:7307   */\n      tag_288\n      tag_158\n      jump\t// in\n    tag_288:\n        /* \"#utility.yul\":7190:7309   */\n    tag_287:\n        /* \"#utility.yul\":7348:7349   */\n      0x00\n        /* \"#utility.yul\":7373:7426   */\n      tag_289\n        /* \"#utility.yul\":7418:7425   */\n      dup7\n        /* \"#utility.yul\":7409:7415   */\n      dup3\n        /* \"#utility.yul\":7398:7407   */\n      dup8\n        /* \"#utility.yul\":7394:7416   */\n      add\n        /* \"#utility.yul\":7373:7426   */\n      tag_161\n      jump\t// in\n    tag_289:\n        /* \"#utility.yul\":7363:7426   */\n      swap4\n      pop\n        /* \"#utility.yul\":7319:7436   */\n      pop\n        /* \"#utility.yul\":7503:7505   */\n      0x20\n        /* \"#utility.yul\":7492:7501   */\n      dup5\n        /* \"#utility.yul\":7488:7506   */\n      add\n        /* \"#utility.yul\":7475:7507   */\n      calldataload\n        /* \"#utility.yul\":7534:7552   */\n      0xffffffffffffffff\n        /* \"#utility.yul\":7526:7532   */\n      dup2\n        /* \"#utility.yul\":7523:7553   */\n      gt\n        /* \"#utility.yul\":7520:7637   */\n      iszero\n      tag_290\n      jumpi\n        /* \"#utility.yul\":7556:7635   */\n      tag_291\n      tag_159\n      jump\t// in\n    tag_291:\n        /* \"#utility.yul\":7520:7637   */\n    tag_290:\n        /* \"#utility.yul\":7669:7733   */\n      tag_292\n        /* \"#utility.yul\":7725:7732   */\n      dup7\n        /* \"#utility.yul\":7716:7722   */\n      dup3\n        /* \"#utility.yul\":7705:7714   */\n      dup8\n        /* \"#utility.yul\":7701:7723   */\n      add\n        /* \"#utility.yul\":7669:7733   */\n      tag_169\n      jump\t// in\n    tag_292:\n        /* \"#utility.yul\":7651:7733   */\n      swap3\n      pop\n      swap3\n      pop\n        /* \"#utility.yul\":7446:7743   */\n      pop\n        /* \"#utility.yul\":7078:7750   */\n      swap3\n      pop\n      swap3\n      pop\n      swap3\n      jump\t// out\n        /* \"#utility.yul\":7756:7832   */\n    tag_178:\n        /* \"#utility.yul\":7792:7799   */\n      0x00\n        /* \"#utility.yul\":7821:7826   */\n      dup2\n        /* \"#utility.yul\":7810:7826   */\n      swap1\n      pop\n        /* \"#utility.yul\":7756:7832   */\n      swap2\n      swap1\n      pop\n      jump\t// out\n        /* \"#utility.yul\":7838:7953   */\n    tag_179:\n        /* \"#utility.yul\":7923:7946   */\n      tag_295\n        /* \"#utility.yul\":7940:7945   */\n      dup2\n        /* \"#utility.yul\":7923:7946   */\n      tag_178\n      jump\t// in\n    tag_295:\n        /* \"#utility.yul\":7918:7921   */\n      dup3\n        /* \"#utility.yul\":7911:7947   */\n      mstore\n        /* \"#utility.yul\":7838:7953   */\n      pop\n      pop\n      jump\t// out\n        /* \"#utility.yul\":7959:8283   */\n    tag_50:\n        /* \"#utility.yul\":8076:8080   */\n      0x00\n        /* \"#utility.yul\":8114:8116   */\n      0x40\n        /* \"#utility.yul\":8103:8112   */\n      dup3\n        /* \"#utility.yul\":8099:8117   */\n      add\n        /* \"#utility.yul\":8091:8117   */\n      swap1\n      pop\n        /* \"#utility.yul\":8127:8196   */\n      tag_297\n        /* \"#utility.yul\":8193:8194   */\n      0x00\n        /* \"#utility.yul\":8182:8191   */\n      dup4\n        /* \"#utility.yul\":8178:8195   */\n      add\n        /* \"#utility.yul\":8169:8175   */\n      dup6\n        /* \"#utility.yul\":8127:8196   */\n      tag_179\n      jump\t// in\n    tag_297:\n        /* \"#utility.yul\":8206:8276   */\n      tag_298\n        /* \"#utility.yul\":8272:8274   */\n      0x20\n        /* \"#utility.yul\":8261:8270   */\n      dup4\n        /* \"#utility.yul\":8257:8275   */\n      add\n        /* \"#utility.yul\":8248:8254   */\n      dup5\n        /* \"#utility.yul\":8206:8276   */\n      tag_179\n      jump\t// in\n    tag_298:\n        /* \"#utility.yul\":7959:8283   */\n      swap4\n      swap3\n      pop\n      pop\n      pop\n      jump\t// out\n        /* \"#utility.yul\":8289:8614   */\n    tag_53:\n        /* \"#utility.yul\":8346:8352   */\n      0x00\n        /* \"#utility.yul\":8395:8397   */\n      0x20\n        /* \"#utility.yul\":8383:8392   */\n      dup3\n        /* \"#utility.yul\":8374:8381   */\n      dup5\n        /* \"#utility.yul\":8370:8393   */\n      sub\n        /* \"#utility.yul\":8366:8398   */\n      slt\n        /* \"#utility.yul\":8363:8482   */\n      iszero\n      tag_300\n      jumpi\n        /* \"#utility.yul\":8401:8480   */\n      tag_301\n      tag_158\n      jump\t// in\n    tag_301:\n        /* \"#utility.yul\":8363:8482   */\n    tag_300:\n        /* \"#utility.yul\":8521:8522   */\n      0x00\n        /* \"#utility.yul\":8546:8597   */\n      tag_302\n        /* \"#utility.yul\":8589:8596   */\n      dup5\n        /* \"#utility.yul\":8580:8586   */\n      dup3\n        /* \"#utility.yul\":8569:8578   */\n      dup6\n        /* \"#utility.yul\":8565:8587   */\n      add\n        /* \"#utility.yul\":8546:8597   */\n      tag_163\n      jump\t// in\n    tag_302:\n        /* \"#utility.yul\":8536:8597   */\n      swap2\n      pop\n        /* \"#utility.yul\":8492:8607   */\n      pop\n        /* \"#utility.yul\":8289:8614   */\n      swap3\n      swap2\n      pop\n      pop\n      jump\t// out\n        /* \"#utility.yul\":8620:8710   */\n    tag_180:\n        /* \"#utility.yul\":8654:8661   */\n      0x00\n        /* \"#utility.yul\":8697:8702   */\n      dup2\n        /* \"#utility.yul\":8690:8703   */\n      iszero\n        /* \"#utility.yul\":8683:8704   */\n      iszero\n        /* \"#utility.yul\":8672:8704   */\n      swap1\n      pop\n        /* \"#utility.yul\":8620:8710   */\n      swap2\n      swap1\n      pop\n      jump\t// out\n        /* \"#utility.yul\":8716:8825   */\n    tag_181:\n        /* \"#utility.yul\":8797:8818   */\n      tag_305\n        /* \"#utility.yul\":8812:8817   */\n      dup2\n        /* \"#utility.yul\":8797:8818   */\n      tag_180\n      jump\t// in\n    tag_305:\n        /* \"#utility.yul\":8792:8795   */\n      dup3\n        /* \"#utility.yul\":8785:8819   */\n      mstore\n        /* \"#utility.yul\":8716:8825   */\n      pop\n      pop\n      jump\t// out\n        /* \"#utility.yul\":8831:9151   */\n    tag_56:\n        /* \"#utility.yul\":8946:8950   */\n      0x00\n        /* \"#utility.yul\":8984:8986   */\n      0x40\n        /* \"#utility.yul\":8973:8982   */\n      dup3\n        /* \"#utility.yul\":8969:8987   */\n      add\n        /* \"#utility.yul\":8961:8987   */\n      swap1\n      pop\n        /* \"#utility.yul\":8997:9062   */\n      tag_307\n        /* \"#utility.yul\":9059:9060   */\n      0x00\n        /* \"#utility.yul\":9048:9057   */\n      dup4\n        /* \"#utility.yul\":9044:9061   */\n      add\n        /* \"#utility.yul\":9035:9041   */\n      dup6\n        /* \"#utility.yul\":8997:9062   */\n      tag_181\n      jump\t// in\n    tag_307:\n        /* \"#utility.yul\":9072:9144   */\n      tag_308\n        /* \"#utility.yul\":9140:9142   */\n      0x20\n        /* \"#utility.yul\":9129:9138   */\n      dup4\n        /* \"#utility.yul\":9125:9143   */\n      add\n        /* \"#utility.yul\":9116:9122   */\n      dup5\n        /* \"#utility.yul\":9072:9144   */\n      tag_153\n      jump\t// in\n    tag_308:\n        /* \"#utility.yul\":8831:9151   */\n      swap4\n      swap3\n      pop\n      pop\n      pop\n      jump\t// out\n        /* \"#utility.yul\":9157:9337   */\n    tag_182:\n        /* \"#utility.yul\":9205:9282   */\n      0x4e487b7100000000000000000000000000000000000000000000000000000000\n        /* \"#utility.yul\":9202:9203   */\n      0x00\n        /* \"#utility.yul\":9195:9283   */\n      mstore\n        /* \"#utility.yul\":9302:9306   */\n      0x11\n        /* \"#utility.yul\":9299:9300   */\n      0x04\n        /* \"#utility.yul\":9292:9307   */\n      mstore\n        /* \"#utility.yul\":9326:9330   */\n      0x24\n        /* \"#utility.yul\":9323:9324   */\n      0x00\n        /* \"#utility.yul\":9316:9331   */\n      revert\n        /* \"#utility.yul\":9343:9569   */\n    tag_61:\n        /* \"#utility.yul\":9377:9380   */\n      0x00\n        /* \"#utility.yul\":9400:9422   */\n      tag_311\n        /* \"#utility.yul\":9416:9421   */\n      dup3\n        /* \"#utility.yul\":9400:9422   */\n      tag_155\n      jump\t// in\n    tag_311:\n        /* \"#utility.yul\":9391:9422   */\n      swap2\n      pop\n        /* \"#utility.yul\":9444:9510   */\n      0xffffffffffffffffffffffffffffffffffffffffffffffffffffffffff800000\n        /* \"#utility.yul\":9437:9442   */\n      dup3\n        /* \"#utility.yul\":9434:9511   */\n      sub\n        /* \"#utility.yul\":9431:9534   */\n      tag_312\n      jumpi\n        /* \"#utility.yul\":9514:9532   */\n      tag_313\n      tag_182\n      jump\t// in\n    tag_313:\n        /* \"#utility.yul\":9431:9534   */\n    tag_312:\n        /* \"#utility.yul\":9557:9562   */\n      dup2\n        /* \"#utility.yul\":9554:9555   */\n      0x00\n        /* \"#utility.yul\":9550:9563   */\n      sub\n        /* \"#utility.yul\":9543:9563   */\n      swap1\n      pop\n        /* \"#utility.yul\":9343:9569   */\n      swap2\n      swap1\n      pop\n      jump\t// out\n        /* \"#utility.yul\":9575:9799   */\n    tag_77:\n        /* \"#utility.yul\":9615:9618   */\n      0x00\n        /* \"#utility.yul\":9634:9654   */\n      tag_315\n        /* \"#utility.yul\":9652:9653   */\n      dup3\n        /* \"#utility.yul\":9634:9654   */\n      tag_152\n      jump\t// in\n    tag_315:\n        /* \"#utility.yul\":9629:9654   */\n      swap2\n      pop\n        /* \"#utility.yul\":9668:9688   */\n      tag_316\n        /* \"#utility.yul\":9686:9687   */\n      dup4\n        /* \"#utility.yul\":9668:9688   */\n      tag_152\n      jump\t// in\n    tag_316:\n        /* \"#utility.yul\":9663:9688   */\n      swap3\n      pop\n        /* \"#utility.yul\":9711:9712   */\n      dup3\n        /* \"#utility.yul\":9708:9709   */\n      dup3\n        /* \"#utility.yul\":9704:9713   */\n      add\n        /* \"#utility.yul\":9697:9713   */\n      swap1\n      pop\n        /* \"#utility.yul\":9734:9768   */\n      0xffffffffffffffffffffffffffffffff\n        /* \"#utility.yul\":9729:9732   */\n      dup2\n        /* \"#utility.yul\":9726:9769   */\n      gt\n        /* \"#utility.yul\":9723:9792   */\n      iszero\n      tag_317\n      jumpi\n        /* \"#utility.yul\":9772:9790   */\n      tag_318\n      tag_182\n      jump\t// in\n    tag_318:\n        /* \"#utility.yul\":9723:9792   */\n    tag_317:\n        /* \"#utility.yul\":9575:9799   */\n      swap3\n      swap2\n      pop\n      pop\n      jump\t// out\n        /* \"#utility.yul\":9805:9973   */\n    tag_183:\n        /* \"#utility.yul\":9888:9899   */\n      0x00\n        /* \"#utility.yul\":9922:9928   */\n      dup3\n        /* \"#utility.yul\":9917:9920   */\n      dup3\n        /* \"#utility.yul\":9910:9929   */\n      mstore\n        /* \"#utility.yul\":9962:9966   */\n      0x20\n        /* \"#utility.yul\":9957:9960   */\n      dup3\n        /* \"#utility.yul\":9953:9967   */\n      add\n        /* \"#utility.yul\":9938:9967   */\n      swap1\n      pop\n        /* \"#utility.yul\":9805:9973   */\n      swap3\n      swap2\n      pop\n      pop\n      jump\t// out\n        /* \"#utility.yul\":9979:10127   */\n    tag_184:\n        /* \"#utility.yul\":10077:10083   */\n      dup3\n        /* \"#utility.yul\":10072:10075   */\n      dup2\n        /* \"#utility.yul\":10067:10070   */\n      dup4\n        /* \"#utility.yul\":10054:10084   */\n      calldatacopy\n        /* \"#utility.yul\":10118:10119   */\n      0x00\n        /* \"#utility.yul\":10109:10115   */\n      dup4\n        /* \"#utility.yul\":10104:10107   */\n      dup4\n        /* \"#utility.yul\":10100:10116   */\n      add\n        /* \"#utility.yul\":10093:10120   */\n      mstore\n        /* \"#utility.yul\":9979:10127   */\n      pop\n      pop\n      pop\n      jump\t// out\n        /* \"#utility.yul\":10133:10235   */\n    tag_185:\n        /* \"#utility.yul\":10174:10180   */\n      0x00\n        /* \"#utility.yul\":10225:10227   */\n      0x1f\n        /* \"#utility.yul\":10221:10228   */\n      not\n        /* \"#utility.yul\":10216:10218   */\n      0x1f\n        /* \"#utility.yul\":10209:10214   */\n      dup4\n        /* \"#utility.yul\":10205:10219   */\n      add\n        /* \"#utility.yul\":10201:10229   */\n      and\n        /* \"#utility.yul\":10191:10229   */\n      swap1\n      pop\n        /* \"#utility.yul\":10133:10235   */\n      swap2\n      swap1\n      pop\n      jump\t// out\n        /* \"#utility.yul\":10263:10577   */\n    tag_186:\n        /* \"#utility.yul\":10359:10362   */\n      0x00\n        /* \"#utility.yul\":10380:10450   */\n      tag_323\n        /* \"#utility.yul\":10443:10449   */\n      dup4\n        /* \"#utility.yul\":10438:10441   */\n      dup6\n        /* \"#utility.yul\":10380:10450   */\n      tag_183\n      jump\t// in\n    tag_323:\n        /* \"#utility.yul\":10373:10450   */\n      swap4\n      pop\n        /* \"#utility.yul\":10460:10516   */\n      tag_324\n        /* \"#utility.yul\":10509:10515   */\n      dup4\n        /* \"#utility.yul\":10504:10507   */\n      dup6\n        /* \"#utility.yul\":10497:10502   */\n      dup5\n        /* \"#utility.yul\":10460:10516   */\n      tag_184\n      jump\t// in\n    tag_324:\n        /* \"#utility.yul\":10541:10570   */\n      tag_325\n        /* \"#utility.yul\":10563:10569   */\n      dup4\n        /* \"#utility.yul\":10541:10570   */\n      tag_185\n      jump\t// in\n    tag_325:\n        /* \"#utility.yul\":10536:10539   */\n      dup5\n        /* \"#utility.yul\":10532:10571   */\n      add\n        /* \"#utility.yul\":10525:10571   */\n      swap1\n      pop\n        /* \"#utility.yul\":10263:10577   */\n      swap4\n      swap3\n      pop\n      pop\n      pop\n      jump\t// out\n        /* \"#utility.yul\":10583:11132   */\n    tag_85:\n        /* \"#utility.yul\":10760:10764   */\n      0x00\n        /* \"#utility.yul\":10798:10800   */\n      0x60\n        /* \"#utility.yul\":10787:10796   */\n      dup3\n        /* \"#utility.yul\":10783:10801   */\n      add\n        /* \"#utility.yul\":10775:10801   */\n      swap1\n      pop\n        /* \"#utility.yul\":10811:10882   */\n      tag_327\n        /* \"#utility.yul\":10879:10880   */\n      0x00\n        /* \"#utility.yul\":10868:10877   */\n      dup4\n        /* \"#utility.yul\":10864:10881   */\n      add\n        /* \"#utility.yul\":10855:10861   */\n      dup8\n        /* \"#utility.yul\":10811:10882   */\n      tag_171\n      jump\t// in\n    tag_327:\n        /* \"#utility.yul\":10892:10964   */\n      tag_328\n        /* \"#utility.yul\":10960:10962   */\n      0x20\n        /* \"#utility.yul\":10949:10958   */\n      dup4\n        /* \"#utility.yul\":10945:10963   */\n      add\n        /* \"#utility.yul\":10936:10942   */\n      dup7\n        /* \"#utility.yul\":10892:10964   */\n      tag_171\n      jump\t// in\n    tag_328:\n        /* \"#utility.yul\":11011:11020   */\n      dup2\n        /* \"#utility.yul\":11005:11009   */\n      dup2\n        /* \"#utility.yul\":11001:11021   */\n      sub\n        /* \"#utility.yul\":10996:10998   */\n      0x40\n        /* \"#utility.yul\":10985:10994   */\n      dup4\n        /* \"#utility.yul\":10981:10999   */\n      add\n        /* \"#utility.yul\":10974:11022   */\n      mstore\n        /* \"#utility.yul\":11039:11125   */\n      tag_329\n        /* \"#utility.yul\":11120:11124   */\n      dup2\n        /* \"#utility.yul\":11111:11117   */\n      dup5\n        /* \"#utility.yul\":11103:11109   */\n      dup7\n        /* \"#utility.yul\":11039:11125   */\n      tag_186\n      jump\t// in\n    tag_329:\n        /* \"#utility.yul\":11031:11125   */\n      swap1\n      pop\n        /* \"#utility.yul\":10583:11132   */\n      swap6\n      swap5\n      pop\n      pop\n      pop\n      pop\n      pop\n      jump\t// out\n        /* \"#utility.yul\":11138:11329   */\n    tag_92:\n        /* \"#utility.yul\":11178:11181   */\n      0x00\n        /* \"#utility.yul\":11197:11217   */\n      tag_331\n        /* \"#utility.yul\":11215:11216   */\n      dup3\n        /* \"#utility.yul\":11197:11217   */\n      tag_170\n      jump\t// in\n    tag_331:\n        /* \"#utility.yul\":11192:11217   */\n      swap2\n      pop\n        /* \"#utility.yul\":11231:11251   */\n      tag_332\n        /* \"#utility.yul\":11249:11250   */\n      dup4\n        /* \"#utility.yul\":11231:11251   */\n      tag_170\n      jump\t// in\n    tag_332:\n        /* \"#utility.yul\":11226:11251   */\n      swap3\n      pop\n        /* \"#utility.yul\":11274:11275   */\n      dup3\n        /* \"#utility.yul\":11271:11272   */\n      dup3\n        /* \"#utility.yul\":11267:11276   */\n      add\n        /* \"#utility.yul\":11260:11276   */\n      swap1\n      pop\n        /* \"#utility.yul\":11295:11298   */\n      dup1\n        /* \"#utility.yul\":11292:11293   */\n      dup3\n        /* \"#utility.yul\":11289:11299   */\n      gt\n        /* \"#utility.yul\":11286:11322   */\n      iszero\n      tag_333\n      jumpi\n        /* \"#utility.yul\":11302:11320   */\n      tag_334\n      tag_182\n      jump\t// in\n    tag_334:\n        /* \"#utility.yul\":11286:11322   */\n    tag_333:\n        /* \"#utility.yul\":11138:11329   */\n      swap3\n      swap2\n      pop\n      pop\n      jump\t// out\n        /* \"#utility.yul\":11335:11888   */\n    tag_99:\n        /* \"#utility.yul\":11512:11516   */\n      0x00\n        /* \"#utility.yul\":11550:11553   */\n      0x80\n        /* \"#utility.yul\":11539:11548   */\n      dup3\n        /* \"#utility.yul\":11535:11554   */\n      add\n        /* \"#utility.yul\":11527:11554   */\n      swap1\n      pop\n        /* \"#utility.yul\":11564:11635   */\n      tag_336\n        /* \"#utility.yul\":11632:11633   */\n      0x00\n        /* \"#utility.yul\":11621:11630   */\n      dup4\n        /* \"#utility.yul\":11617:11634   */\n      add\n        /* \"#utility.yul\":11608:11614   */\n      dup8\n        /* \"#utility.yul\":11564:11635   */\n      tag_151\n      jump\t// in\n    tag_336:\n        /* \"#utility.yul\":11645:11717   */\n      tag_337\n        /* \"#utility.yul\":11713:11715   */\n      0x20\n        /* \"#utility.yul\":11702:11711   */\n      dup4\n        /* \"#utility.yul\":11698:11716   */\n      add\n        /* \"#utility.yul\":11689:11695   */\n      dup7\n        /* \"#utility.yul\":11645:11717   */\n      tag_153\n      jump\t// in\n    tag_337:\n        /* \"#utility.yul\":11727:11799   */\n      tag_338\n        /* \"#utility.yul\":11795:11797   */\n      0x40\n        /* \"#utility.yul\":11784:11793   */\n      dup4\n        /* \"#utility.yul\":11780:11798   */\n      add\n        /* \"#utility.yul\":11771:11777   */\n      dup6\n        /* \"#utility.yul\":11727:11799   */\n      tag_171\n      jump\t// in\n    tag_338:\n        /* \"#utility.yul\":11809:11881   */\n      tag_339\n        /* \"#utility.yul\":11877:11879   */\n      0x60\n        /* \"#utility.yul\":11866:11875   */\n      dup4\n        /* \"#utility.yul\":11862:11880   */\n      add\n        /* \"#utility.yul\":11853:11859   */\n      dup5\n        /* \"#utility.yul\":11809:11881   */\n      tag_171\n      jump\t// in\n    tag_339:\n        /* \"#utility.yul\":11335:11888   */\n      swap6\n      swap5\n      pop\n      pop\n      pop\n      pop\n      pop\n      jump\t// out\n        /* \"#utility.yul\":11894:12122   */\n    tag_102:\n        /* \"#utility.yul\":11929:11932   */\n      0x00\n        /* \"#utility.yul\":11952:11975   */\n      tag_341\n        /* \"#utility.yul\":11969:11974   */\n      dup3\n        /* \"#utility.yul\":11952:11975   */\n      tag_178\n      jump\t// in\n    tag_341:\n        /* \"#utility.yul\":11943:11975   */\n      swap2\n      pop\n        /* \"#utility.yul\":11997:12063   */\n      0x8000000000000000000000000000000000000000000000000000000000000000\n        /* \"#utility.yul\":11990:11995   */\n      dup3\n        /* \"#utility.yul\":11987:12064   */\n      sub\n        /* \"#utility.yul\":11984:12087   */\n      tag_342\n      jumpi\n        /* \"#utility.yul\":12067:12085   */\n      tag_343\n      tag_182\n      jump\t// in\n    tag_343:\n        /* \"#utility.yul\":11984:12087   */\n    tag_342:\n        /* \"#utility.yul\":12110:12115   */\n      dup2\n        /* \"#utility.yul\":12107:12108   */\n      0x00\n        /* \"#utility.yul\":12103:12116   */\n      sub\n        /* \"#utility.yul\":12096:12116   */\n      swap1\n      pop\n        /* \"#utility.yul\":11894:12122   */\n      swap2\n      swap1\n      pop\n      jump\t// out\n        /* \"#utility.yul\":12128:12460   */\n    tag_104:\n        /* \"#utility.yul\":12249:12253   */\n      0x00\n        /* \"#utility.yul\":12287:12289   */\n      0x40\n        /* \"#utility.yul\":12276:12285   */\n      dup3\n        /* \"#utility.yul\":12272:12290   */\n      add\n        /* \"#utility.yul\":12264:12290   */\n      swap1\n      pop\n        /* \"#utility.yul\":12300:12371   */\n      tag_345\n        /* \"#utility.yul\":12368:12369   */\n      0x00\n        /* \"#utility.yul\":12357:12366   */\n      dup4\n        /* \"#utility.yul\":12353:12370   */\n      add\n        /* \"#utility.yul\":12344:12350   */\n      dup6\n        /* \"#utility.yul\":12300:12371   */\n      tag_151\n      jump\t// in\n    tag_345:\n        /* \"#utility.yul\":12381:12453   */\n      tag_346\n        /* \"#utility.yul\":12449:12451   */\n      0x20\n        /* \"#utility.yul\":12438:12447   */\n      dup4\n        /* \"#utility.yul\":12434:12452   */\n      add\n        /* \"#utility.yul\":12425:12431   */\n      dup5\n        /* \"#utility.yul\":12381:12453   */\n      tag_171\n      jump\t// in\n    tag_346:\n        /* \"#utility.yul\":12128:12460   */\n      swap4\n      swap3\n      pop\n      pop\n      pop\n      jump\t// out\n        /* \"#utility.yul\":12466:12582   */\n    tag_187:\n        /* \"#utility.yul\":12536:12557   */\n      tag_348\n        /* \"#utility.yul\":12551:12556   */\n      dup2\n        /* \"#utility.yul\":12536:12557   */\n      tag_180\n      jump\t// in\n    tag_348:\n        /* \"#utility.yul\":12529:12534   */\n      dup2\n        /* \"#utility.yul\":12526:12558   */\n      eq\n        /* \"#utility.yul\":12516:12576   */\n      tag_349\n      jumpi\n        /* \"#utility.yul\":12572:12573   */\n      0x00\n        /* \"#utility.yul\":12569:12570   */\n      0x00\n        /* \"#utility.yul\":12562:12574   */\n      revert\n        /* \"#utility.yul\":12516:12576   */\n    tag_349:\n        /* \"#utility.yul\":12466:12582   */\n      pop\n      jump\t// out\n        /* \"#utility.yul\":12588:12725   */\n    tag_188:\n        /* \"#utility.yul\":12642:12647   */\n      0x00\n        /* \"#utility.yul\":12673:12679   */\n      dup2\n        /* \"#utility.yul\":12667:12680   */\n      mload\n        /* \"#utility.yul\":12658:12680   */\n      swap1\n      pop\n        /* \"#utility.yul\":12689:12719   */\n      tag_351\n        /* \"#utility.yul\":12713:12718   */\n      dup2\n        /* \"#utility.yul\":12689:12719   */\n      tag_187\n      jump\t// in\n    tag_351:\n        /* \"#utility.yul\":12588:12725   */\n      swap3\n      swap2\n      pop\n      pop\n      jump\t// out\n        /* \"#utility.yul\":12731:13076   */\n    tag_108:\n        /* \"#utility.yul\":12798:12804   */\n      0x00\n        /* \"#utility.yul\":12847:12849   */\n      0x20\n        /* \"#utility.yul\":12835:12844   */\n      dup3\n        /* \"#utility.yul\":12826:12833   */\n      dup5\n        /* \"#utility.yul\":12822:12845   */\n      sub\n        /* \"#utility.yul\":12818:12850   */\n      slt\n        /* \"#utility.yul\":12815:12934   */\n      iszero\n      tag_353\n      jumpi\n        /* \"#utility.yul\":12853:12932   */\n      tag_354\n      tag_158\n      jump\t// in\n    tag_354:\n        /* \"#utility.yul\":12815:12934   */\n    tag_353:\n        /* \"#utility.yul\":12973:12974   */\n      0x00\n        /* \"#utility.yul\":12998:13059   */\n      tag_355\n        /* \"#utility.yul\":13051:13058   */\n      dup5\n        /* \"#utility.yul\":13042:13048   */\n      dup3\n        /* \"#utility.yul\":13031:13040   */\n      dup6\n        /* \"#utility.yul\":13027:13049   */\n      add\n        /* \"#utility.yul\":12998:13059   */\n      tag_188\n      jump\t// in\n    tag_355:\n        /* \"#utility.yul\":12988:13059   */\n      swap2\n      pop\n        /* \"#utility.yul\":12944:13069   */\n      pop\n        /* \"#utility.yul\":12731:13076   */\n      swap3\n      swap2\n      pop\n      pop\n      jump\t// out\n        /* \"#utility.yul\":13082:13623   */\n    tag_111:\n        /* \"#utility.yul\":13255:13259   */\n      0x00\n        /* \"#utility.yul\":13293:13295   */\n      0x60\n        /* \"#utility.yul\":13282:13291   */\n      dup3\n        /* \"#utility.yul\":13278:13296   */\n      add\n        /* \"#utility.yul\":13270:13296   */\n      swap1\n      pop\n        /* \"#utility.yul\":13306:13375   */\n      tag_357\n        /* \"#utility.yul\":13372:13373   */\n      0x00\n        /* \"#utility.yul\":13361:13370   */\n      dup4\n        /* \"#utility.yul\":13357:13374   */\n      add\n        /* \"#utility.yul\":13348:13354   */\n      dup8\n        /* \"#utility.yul\":13306:13375   */\n      tag_179\n      jump\t// in\n    tag_357:\n        /* \"#utility.yul\":13385:13455   */\n      tag_358\n        /* \"#utility.yul\":13451:13453   */\n      0x20\n        /* \"#utility.yul\":13440:13449   */\n      dup4\n        /* \"#utility.yul\":13436:13454   */\n      add\n        /* \"#utility.yul\":13427:13433   */\n      dup7\n        /* \"#utility.yul\":13385:13455   */\n      tag_179\n      jump\t// in\n    tag_358:\n        /* \"#utility.yul\":13502:13511   */\n      dup2\n        /* \"#utility.yul\":13496:13500   */\n      dup2\n        /* \"#utility.yul\":13492:13512   */\n      sub\n        /* \"#utility.yul\":13487:13489   */\n      0x40\n        /* \"#utility.yul\":13476:13485   */\n      dup4\n        /* \"#utility.yul\":13472:13490   */\n      add\n        /* \"#utility.yul\":13465:13513   */\n      mstore\n        /* \"#utility.yul\":13530:13616   */\n      tag_359\n        /* \"#utility.yul\":13611:13615   */\n      dup2\n        /* \"#utility.yul\":13602:13608   */\n      dup5\n        /* \"#utility.yul\":13594:13600   */\n      dup7\n        /* \"#utility.yul\":13530:13616   */\n      tag_186\n      jump\t// in\n    tag_359:\n        /* \"#utility.yul\":13522:13616   */\n      swap1\n      pop\n        /* \"#utility.yul\":13082:13623   */\n      swap6\n      swap5\n      pop\n      pop\n      pop\n      pop\n      pop\n      jump\t// out\n        /* \"#utility.yul\":13629:14277   */\n    tag_119:\n        /* \"#utility.yul\":13826:13830   */\n      0x00\n        /* \"#utility.yul\":13864:13867   */\n      0xa0\n        /* \"#utility.yul\":13853:13862   */\n      dup3\n        /* \"#utility.yul\":13849:13868   */\n      add\n        /* \"#utility.yul\":13841:13868   */\n      swap1\n      pop\n        /* \"#utility.yul\":13878:13947   */\n      tag_361\n        /* \"#utility.yul\":13944:13945   */\n      0x00\n        /* \"#utility.yul\":13933:13942   */\n      dup4\n        /* \"#utility.yul\":13929:13946   */\n      add\n        /* \"#utility.yul\":13920:13926   */\n      dup9\n        /* \"#utility.yul\":13878:13947   */\n      tag_179\n      jump\t// in\n    tag_361:\n        /* \"#utility.yul\":13957:14027   */\n      tag_362\n        /* \"#utility.yul\":14023:14025   */\n      0x20\n        /* \"#utility.yul\":14012:14021   */\n      dup4\n        /* \"#utility.yul\":14008:14026   */\n      add\n        /* \"#utility.yul\":13999:14005   */\n      dup8\n        /* \"#utility.yul\":13957:14027   */\n      tag_179\n      jump\t// in\n    tag_362:\n        /* \"#utility.yul\":14037:14109   */\n      tag_363\n        /* \"#utility.yul\":14105:14107   */\n      0x40\n        /* \"#utility.yul\":14094:14103   */\n      dup4\n        /* \"#utility.yul\":14090:14108   */\n      add\n        /* \"#utility.yul\":14081:14087   */\n      dup7\n        /* \"#utility.yul\":14037:14109   */\n      tag_154\n      jump\t// in\n    tag_363:\n        /* \"#utility.yul\":14119:14191   */\n      tag_364\n        /* \"#utility.yul\":14187:14189   */\n      0x60\n        /* \"#utility.yul\":14176:14185   */\n      dup4\n        /* \"#utility.yul\":14172:14190   */\n      add\n        /* \"#utility.yul\":14163:14169   */\n      dup6\n        /* \"#utility.yul\":14119:14191   */\n      tag_153\n      jump\t// in\n    tag_364:\n        /* \"#utility.yul\":14201:14270   */\n      tag_365\n        /* \"#utility.yul\":14265:14268   */\n      0x80\n        /* \"#utility.yul\":14254:14263   */\n      dup4\n        /* \"#utility.yul\":14250:14269   */\n      add\n        /* \"#utility.yul\":14241:14247   */\n      dup5\n        /* \"#utility.yul\":14201:14270   */\n      tag_156\n      jump\t// in\n    tag_365:\n        /* \"#utility.yul\":13629:14277   */\n      swap7\n      swap6\n      pop\n      pop\n      pop\n      pop\n      pop\n      pop\n      jump\t// out\n        /* \"#utility.yul\":14283:14463   */\n    tag_189:\n        /* \"#utility.yul\":14331:14408   */\n      0x4e487b7100000000000000000000000000000000000000000000000000000000\n        /* \"#utility.yul\":14328:14329   */\n      0x00\n        /* \"#utility.yul\":14321:14409   */\n      mstore\n        /* \"#utility.yul\":14428:14432   */\n      0x12\n        /* \"#utility.yul\":14425:14426   */\n      0x04\n        /* \"#utility.yul\":14418:14433   */\n      mstore\n        /* \"#utility.yul\":14452:14456   */\n      0x24\n        /* \"#utility.yul\":14449:14450   */\n      0x00\n        /* \"#utility.yul\":14442:14457   */\n      revert\n        /* \"#utility.yul\":14469:14640   */\n    tag_125:\n        /* \"#utility.yul\":14499:14500   */\n      0x00\n        /* \"#utility.yul\":14516:14534   */\n      tag_368\n        /* \"#utility.yul\":14532:14533   */\n      dup3\n        /* \"#utility.yul\":14516:14534   */\n      tag_155\n      jump\t// in\n    tag_368:\n        /* \"#utility.yul\":14511:14534   */\n      swap2\n      pop\n        /* \"#utility.yul\":14548:14566   */\n      tag_369\n        /* \"#utility.yul\":14564:14565   */\n      dup4\n        /* \"#utility.yul\":14548:14566   */\n      tag_155\n      jump\t// in\n    tag_369:\n        /* \"#utility.yul\":14543:14566   */\n      swap3\n      pop\n        /* \"#utility.yul\":14585:14586   */\n      dup3\n        /* \"#utility.yul\":14575:14610   */\n      tag_370\n      jumpi\n        /* \"#utility.yul\":14590:14608   */\n      tag_371\n      tag_189\n      jump\t// in\n    tag_371:\n        /* \"#utility.yul\":14575:14610   */\n    tag_370:\n        /* \"#utility.yul\":14632:14633   */\n      dup3\n        /* \"#utility.yul\":14629:14630   */\n      dup3\n        /* \"#utility.yul\":14624:14634   */\n      smod\n        /* \"#utility.yul\":14619:14634   */\n      swap1\n      pop\n        /* \"#utility.yul\":14469:14640   */\n      swap3\n      swap2\n      pop\n      pop\n      jump\t// out\n        /* \"#utility.yul\":14646:15028   */\n    tag_129:\n        /* \"#utility.yul\":14684:14685   */\n      0x00\n        /* \"#utility.yul\":14701:14719   */\n      tag_373\n        /* \"#utility.yul\":14717:14718   */\n      dup3\n        /* \"#utility.yul\":14701:14719   */\n      tag_155\n      jump\t// in\n    tag_373:\n        /* \"#utility.yul\":14696:14719   */\n      swap2\n      pop\n        /* \"#utility.yul\":14733:14751   */\n      tag_374\n        /* \"#utility.yul\":14749:14750   */\n      dup4\n        /* \"#utility.yul\":14733:14751   */\n      tag_155\n      jump\t// in\n    tag_374:\n        /* \"#utility.yul\":14728:14751   */\n      swap3\n      pop\n        /* \"#utility.yul\":14770:14771   */\n      dup3\n        /* \"#utility.yul\":14760:14795   */\n      tag_375\n      jumpi\n        /* \"#utility.yul\":14775:14793   */\n      tag_376\n      tag_189\n      jump\t// in\n    tag_376:\n        /* \"#utility.yul\":14760:14795   */\n    tag_375:\n        /* \"#utility.yul\":14961:14962   */\n      0x01\n        /* \"#utility.yul\":14958:14959   */\n      0x00\n        /* \"#utility.yul\":14954:14963   */\n      sub\n        /* \"#utility.yul\":14951:14952   */\n      dup4\n        /* \"#utility.yul\":14948:14964   */\n      eq\n        /* \"#utility.yul\":14867:14933   */\n      0xffffffffffffffffffffffffffffffffffffffffffffffffffffffffff800000\n        /* \"#utility.yul\":14864:14865   */\n      dup4\n        /* \"#utility.yul\":14861:14934   */\n      eq\n        /* \"#utility.yul\":14844:14974   */\n      and\n        /* \"#utility.yul\":14841:14997   */\n      iszero\n      tag_377\n      jumpi\n        /* \"#utility.yul\":14977:14995   */\n      tag_378\n      tag_182\n      jump\t// in\n    tag_378:\n        /* \"#utility.yul\":14841:14997   */\n    tag_377:\n        /* \"#utility.yul\":15020:15021   */\n      dup3\n        /* \"#utility.yul\":15017:15018   */\n      dup3\n        /* \"#utility.yul\":15012:15022   */\n      sdiv\n        /* \"#utility.yul\":15007:15022   */\n      swap1\n      pop\n        /* \"#utility.yul\":14646:15028   */\n      swap3\n      swap2\n      pop\n      pop\n      jump\t// out\n        /* \"#utility.yul\":15034:15128   */\n    tag_190:\n        /* \"#utility.yul\":15067:15075   */\n      0x00\n        /* \"#utility.yul\":15115:15120   */\n      dup2\n        /* \"#utility.yul\":15111:15113   */\n      0x60\n        /* \"#utility.yul\":15107:15121   */\n      shl\n        /* \"#utility.yul\":15086:15121   */\n      swap1\n      pop\n        /* \"#utility.yul\":15034:15128   */\n      swap2\n      swap1\n      pop\n      jump\t// out\n        /* \"#utility.yul\":15134:15228   */\n    tag_191:\n        /* \"#utility.yul\":15173:15180   */\n      0x00\n        /* \"#utility.yul\":15202:15222   */\n      tag_381\n        /* \"#utility.yul\":15216:15221   */\n      dup3\n        /* \"#utility.yul\":15202:15222   */\n      tag_190\n      jump\t// in\n    tag_381:\n        /* \"#utility.yul\":15191:15222   */\n      swap1\n      pop\n        /* \"#utility.yul\":15134:15228   */\n      swap2\n      swap1\n      pop\n      jump\t// out\n        /* \"#utility.yul\":15234:15334   */\n    tag_192:\n        /* \"#utility.yul\":15273:15280   */\n      0x00\n        /* \"#utility.yul\":15302:15328   */\n      tag_383\n        /* \"#utility.yul\":15322:15327   */\n      dup3\n        /* \"#utility.yul\":15302:15328   */\n      tag_191\n      jump\t// in\n    tag_383:\n        /* \"#utility.yul\":15291:15328   */\n      swap1\n      pop\n        /* \"#utility.yul\":15234:15334   */\n      swap2\n      swap1\n      pop\n      jump\t// out\n        /* \"#utility.yul\":15340:15497   */\n    tag_193:\n        /* \"#utility.yul\":15445:15490   */\n      tag_385\n        /* \"#utility.yul\":15465:15489   */\n      tag_386\n        /* \"#utility.yul\":15483:15488   */\n      dup3\n        /* \"#utility.yul\":15465:15489   */\n      tag_150\n      jump\t// in\n    tag_386:\n        /* \"#utility.yul\":15445:15490   */\n      tag_192\n      jump\t// in\n    tag_385:\n        /* \"#utility.yul\":15440:15443   */\n      dup3\n        /* \"#utility.yul\":15433:15491   */\n      mstore\n        /* \"#utility.yul\":15340:15497   */\n      pop\n      pop\n      jump\t// out\n        /* \"#utility.yul\":15503:15599   */\n    tag_194:\n        /* \"#utility.yul\":15537:15545   */\n      0x00\n        /* \"#utility.yul\":15586:15591   */\n      dup2\n        /* \"#utility.yul\":15581:15584   */\n      0xe8\n        /* \"#utility.yul\":15577:15592   */\n      shl\n        /* \"#utility.yul\":15556:15592   */\n      swap1\n      pop\n        /* \"#utility.yul\":15503:15599   */\n      swap2\n      swap1\n      pop\n      jump\t// out\n        /* \"#utility.yul\":15605:15698   */\n    tag_195:\n        /* \"#utility.yul\":15642:15649   */\n      0x00\n        /* \"#utility.yul\":15671:15692   */\n      tag_389\n        /* \"#utility.yul\":15686:15691   */\n      dup3\n        /* \"#utility.yul\":15671:15692   */\n      tag_194\n      jump\t// in\n    tag_389:\n        /* \"#utility.yul\":15660:15692   */\n      swap1\n      pop\n        /* \"#utility.yul\":15605:15698   */\n      swap2\n      swap1\n      pop\n      jump\t// out\n        /* \"#utility.yul\":15704:15853   */\n    tag_196:\n        /* \"#utility.yul\":15805:15846   */\n      tag_391\n        /* \"#utility.yul\":15823:15845   */\n      tag_392\n        /* \"#utility.yul\":15839:15844   */\n      dup3\n        /* \"#utility.yul\":15823:15845   */\n      tag_155\n      jump\t// in\n    tag_392:\n        /* \"#utility.yul\":15805:15846   */\n      tag_195\n      jump\t// in\n    tag_391:\n        /* \"#utility.yul\":15800:15803   */\n      dup3\n        /* \"#utility.yul\":15793:15847   */\n      mstore\n        /* \"#utility.yul\":15704:15853   */\n      pop\n      pop\n      jump\t// out\n        /* \"#utility.yul\":15859:16379   */\n    tag_133:\n        /* \"#utility.yul\":16019:16022   */\n      0x00\n        /* \"#utility.yul\":16034:16109   */\n      tag_394\n        /* \"#utility.yul\":16105:16108   */\n      dup3\n        /* \"#utility.yul\":16096:16102   */\n      dup7\n        /* \"#utility.yul\":16034:16109   */\n      tag_193\n      jump\t// in\n    tag_394:\n        /* \"#utility.yul\":16134:16136   */\n      0x14\n        /* \"#utility.yul\":16129:16132   */\n      dup3\n        /* \"#utility.yul\":16125:16137   */\n      add\n        /* \"#utility.yul\":16118:16137   */\n      swap2\n      pop\n        /* \"#utility.yul\":16147:16218   */\n      tag_395\n        /* \"#utility.yul\":16214:16217   */\n      dup3\n        /* \"#utility.yul\":16205:16211   */\n      dup6\n        /* \"#utility.yul\":16147:16218   */\n      tag_196\n      jump\t// in\n    tag_395:\n        /* \"#utility.yul\":16243:16244   */\n      0x03\n        /* \"#utility.yul\":16238:16241   */\n      dup3\n        /* \"#utility.yul\":16234:16245   */\n      add\n        /* \"#utility.yul\":16227:16245   */\n      swap2\n      pop\n        /* \"#utility.yul\":16255:16326   */\n      tag_396\n        /* \"#utility.yul\":16322:16325   */\n      dup3\n        /* \"#utility.yul\":16313:16319   */\n      dup5\n        /* \"#utility.yul\":16255:16326   */\n      tag_196\n      jump\t// in\n    tag_396:\n        /* \"#utility.yul\":16351:16352   */\n      0x03\n        /* \"#utility.yul\":16346:16349   */\n      dup3\n        /* \"#utility.yul\":16342:16353   */\n      add\n        /* \"#utility.yul\":16335:16353   */\n      swap2\n      pop\n        /* \"#utility.yul\":16370:16373   */\n      dup2\n        /* \"#utility.yul\":16363:16373   */\n      swap1\n      pop\n        /* \"#utility.yul\":15859:16379   */\n      swap5\n      swap4\n      pop\n      pop\n      pop\n      pop\n      jump\t// out\n        /* \"#utility.yul\":16385:16507   */\n    tag_197:\n        /* \"#utility.yul\":16458:16482   */\n      tag_398\n        /* \"#utility.yul\":16476:16481   */\n      dup2\n        /* \"#utility.yul\":16458:16482   */\n      tag_170\n      jump\t// in\n    tag_398:\n        /* \"#utility.yul\":16451:16456   */\n      dup2\n        /* \"#utility.yul\":16448:16483   */\n      eq\n        /* \"#utility.yul\":16438:16501   */\n      tag_399\n      jumpi\n        /* \"#utility.yul\":16497:16498   */\n      0x00\n        /* \"#utility.yul\":16494:16495   */\n      0x00\n        /* \"#utility.yul\":16487:16499   */\n      revert\n        /* \"#utility.yul\":16438:16501   */\n    tag_399:\n        /* \"#utility.yul\":16385:16507   */\n      pop\n      jump\t// out\n        /* \"#utility.yul\":16513:16656   */\n    tag_198:\n        /* \"#utility.yul\":16570:16575   */\n      0x00\n        /* \"#utility.yul\":16601:16607   */\n      dup2\n        /* \"#utility.yul\":16595:16608   */\n      mload\n        /* \"#utility.yul\":16586:16608   */\n      swap1\n      pop\n        /* \"#utility.yul\":16617:16650   */\n      tag_401\n        /* \"#utility.yul\":16644:16649   */\n      dup2\n        /* \"#utility.yul\":16617:16650   */\n      tag_197\n      jump\t// in\n    tag_401:\n        /* \"#utility.yul\":16513:16656   */\n      swap3\n      swap2\n      pop\n      pop\n      jump\t// out\n        /* \"#utility.yul\":16662:17013   */\n    tag_141:\n        /* \"#utility.yul\":16732:16738   */\n      0x00\n        /* \"#utility.yul\":16781:16783   */\n      0x20\n        /* \"#utility.yul\":16769:16778   */\n      dup3\n        /* \"#utility.yul\":16760:16767   */\n      dup5\n        /* \"#utility.yul\":16756:16779   */\n      sub\n        /* \"#utility.yul\":16752:16784   */\n      slt\n        /* \"#utility.yul\":16749:16868   */\n      iszero\n      tag_403\n      jumpi\n        /* \"#utility.yul\":16787:16866   */\n      tag_404\n      tag_158\n      jump\t// in\n    tag_404:\n        /* \"#utility.yul\":16749:16868   */\n    tag_403:\n        /* \"#utility.yul\":16907:16908   */\n      0x00\n        /* \"#utility.yul\":16932:16996   */\n      tag_405\n        /* \"#utility.yul\":16988:16995   */\n      dup5\n        /* \"#utility.yul\":16979:16985   */\n      dup3\n        /* \"#utility.yul\":16968:16977   */\n      dup6\n        /* \"#utility.yul\":16964:16986   */\n      add\n        /* \"#utility.yul\":16932:16996   */\n      tag_198\n      jump\t// in\n    tag_405:\n        /* \"#utility.yul\":16922:16996   */\n      swap2\n      pop\n        /* \"#utility.yul\":16878:17006   */\n      pop\n        /* \"#utility.yul\":16662:17013   */\n      swap3\n      swap2\n      pop\n      pop\n      jump\t// out\n\n    auxdata: 0xa2646970667358221220548f10117ac320c92447cf5b9e5bbf4eebee36430bdf9f9664ba1542d0fa9e9e64736f6c634300081e0033\n}\n",
				"bytecode": {
					"linkReferences": {},
					"object": "60c060405234801561000f575f5ffd5b50604051611980380380611980833981810160405281019061003191906101fd565b8373ffffffffffffffffffffffffffffffffffffffff1660808173ffffffffffffffffffffffffffffffffffffffff16815250508273ffffffffffffffffffffffffffffffffffffffff1660a08173ffffffffffffffffffffffffffffffffffffffff168152505060405180604001604052808373ffffffffffffffffffffffffffffffffffffffff1681526020018260020b8152505f5f820151815f015f6101000a81548173ffffffffffffffffffffffffffffffffffffffff021916908373ffffffffffffffffffffffffffffffffffffffff1602179055506020820151815f0160146101000a81548162ffffff021916908360020b62ffffff16021790555090505050505050610261565b5f5ffd5b5f73ffffffffffffffffffffffffffffffffffffffff82169050919050565b5f61016c82610143565b9050919050565b61017c81610162565b8114610186575f5ffd5b50565b5f8151905061019781610173565b92915050565b6101a681610143565b81146101b0575f5ffd5b50565b5f815190506101c18161019d565b92915050565b5f8160020b9050919050565b6101dc816101c7565b81146101e6575f5ffd5b50565b5f815190506101f7816101d3565b92915050565b5f5f5f5f608085870312156102155761021461013f565b5b5f61022287828801610189565b945050602061023387828801610189565b9350506040610244878288016101b3565b9250506060610255878288016101e9565b91505092959194509250565b60805160a0516116e96102975f395f81816106880152610c8b01525f8181610203015281816107610152610bed01526116e95ff3fe608060405234801561000f575f5ffd5b5060043610610091575f3560e01c8063514ea4bf11610064578063514ea4bf146101215780635339c29614610151578063d21220a714610181578063e35473351461019f578063f30dba93146101d057610091565b80630dfe1681146100955780631a686502146100b35780633850c7bd146100d15780633c8a7d8d146100f0575b5f5ffd5b61009d610201565b6040516100aa9190610d86565b60405180910390f35b6100bb610225565b6040516100c89190610dc9565b60405180910390f35b6100d9610246565b6040516100e7929190610e0c565b60405180910390f35b61010a60048036038101906101059190610f1a565b610281565b604051610118929190610fc8565b60405180910390f35b61013b60048036038101906101369190611022565b61063c565b6040516101489190610dc9565b60405180910390f35b61016b60048036038101906101669190611083565b610671565b60405161017891906110ae565b60405180910390f35b610189610686565b6040516101969190610d86565b60405180910390f35b6101b960048036038101906101b491906110c7565b6106aa565b6040516101c792919061113c565b60405180910390f35b6101ea60048036038101906101e59190611163565b61098e565b6040516101f89291906111a8565b60405180910390f35b7f000000000000000000000000000000000000000000000000000000000000000081565b60015f9054906101000a90046fffffffffffffffffffffffffffffffff1681565b5f805f015f9054906101000a900473ffffffffffffffffffffffffffffffffffffffff1690805f0160149054906101000a900460020b905082565b5f5f8560020b8760020b1215806102bd57507ffffffffffffffffffffffffffffffffffffffffffffffffffffffffffff2761860020b8760020b125b806102f657507ffffffffffffffffffffffffffffffffffffffffffffffffffffffffffff276186102ed906111fc565b60020b8660020b135b1561032d576040517f064847d000000000000000000000000000000000000000000000000000000000815260040160405180910390fd5b5f856fffffffffffffffffffffffffffffffff1603610378576040517f1007454800000000000000000000000000000000000000000000000000000000815260040160405180910390fd5b5f61038f888760026109d59092919063ffffffff16565b90505f6103a8888860026109d59092919063ffffffff16565b905081156103c8576103c78960016003610acc9092919063ffffffff16565b5b80156103e6576103e58860016003610acc9092919063ffffffff16565b5b5f6103ff8b8b8b6004610b35909392919063ffffffff16565b90506104148882610b7a90919063ffffffff16565b670ddd13f10b84ee00945069010f0cf064dd5920000093508760015f8282829054906101000a90046fffffffffffffffffffffffffffffffff166104589190611242565b92506101000a8154816fffffffffffffffffffffffffffffffff02191690836fffffffffffffffffffffffffffffffff1602179055505f5f5f8711156104a3576104a0610bea565b91505b5f8611156104b6576104b3610c88565b90505b3373ffffffffffffffffffffffffffffffffffffffff1663d348799788888c8c6040518563ffffffff1660e01b81526004016104f594939291906112df565b5f604051808303815f87803b15801561050c575f5ffd5b505af115801561051e573d5f5f3e3d5ffd5b505050505f871180156105425750610534610bea565b8783610540919061131d565b115b15610579576040517f098fb56100000000000000000000000000000000000000000000000000000000815260040160405180910390fd5b5f86118015610599575061058b610c88565b8682610597919061131d565b115b156105d0576040517f098fb56100000000000000000000000000000000000000000000000000000000815260040160405180910390fd5b8a60020b8c60020b8e73ffffffffffffffffffffffffffffffffffffffff167f7a53080ba414158be7ec69b987b5fb7d07dee101fe85488f0853ae16239d0bde338e8c8c6040516106249493929190611350565b60405180910390a45050505050965096945050505050565b6004602052805f5260405f205f91509050805f015f9054906101000a90046fffffffffffffffffffffffffffffffff16905081565b6003602052805f5260405f205f915090505481565b7f000000000000000000000000000000000000000000000000000000000000000081565b5f5f5f62014cc090505f6c46bd046408013d67ed5d406b2d90507fffffffffffffffffffffffffffffffffffffffffffffffffffe22b3b9e50c0f49350680246ddf97976680000925081815f5f0160145f5f015f8491906101000a81548173ffffffffffffffffffffffffffffffffffffffff021916908373ffffffffffffffffffffffffffffffffffffffff1602179055508391906101000a81548162ffffff021916908360020b62ffffff16021790555050507f000000000000000000000000000000000000000000000000000000000000000073ffffffffffffffffffffffffffffffffffffffff1663a9059cbb88866107a690611393565b6040518363ffffffff1660e01b81526004016107c39291906113d9565b6020604051808303815f875af11580156107df573d5f5f3e3d5ffd5b505050506040513d601f19601f82011682018060405250810190610803919061142a565b505f61080d610c88565b90503373ffffffffffffffffffffffffffffffffffffffff1663fa461e3386868a8a6040518563ffffffff1660e01b815260040161084e9493929190611455565b5f604051808303815f87803b158015610865575f5ffd5b505af1158015610877573d5f5f3e3d5ffd5b50505050610883610c88565b848261088f919061131d565b10156108c7576040517f098fb56100000000000000000000000000000000000000000000000000000000815260040160405180910390fd5b8773ffffffffffffffffffffffffffffffffffffffff163373ffffffffffffffffffffffffffffffffffffffff167fc42079f94a6350d7e6235f29174924f928cc2ac818eb64fed8004e115fbcca6787875f5f015f9054906101000a900473ffffffffffffffffffffffffffffffffffffffff1660015f9054906101000a90046fffffffffffffffffffffffffffffffff165f5f0160149054906101000a900460020b60405161097b959493929190611493565b60405180910390a3505050935093915050565b6002602052805f5260405f205f91509050805f015f9054906101000a900460ff1690805f0160019054906101000a90046fffffffffffffffffffffffffffffffff16905082565b5f5f845f8560020b60020b81526020019081526020015f2090505f815f0160019054906101000a90046fffffffffffffffffffffffffffffffff1690505f8482610a1f9190611242565b90505f826fffffffffffffffffffffffffffffffff1603610a56576001835f015f6101000a81548160ff0219169083151502179055505b80835f0160016101000a8154816fffffffffffffffffffffffffffffffff02191690836fffffffffffffffffffffffffffffffff1602179055505f826fffffffffffffffffffffffffffffffff161415155f826fffffffffffffffffffffffffffffffff16141515141593505050509392505050565b5f8183610ad99190611511565b60020b14610ae5575f5ffd5b5f5f610afb8385610af69190611541565b610d26565b915091505f8160ff166001901b905080865f8560010b60010b81526020019081526020015f205f8282541892505081905550505050505050565b5f845f858585604051602001610b4d93929190611622565b6040516020818303038152906040528051906020012081526020019081526020015f209050949350505050565b5f825f015f9054906101000a90046fffffffffffffffffffffffffffffffff1690505f8282610ba99190611242565b905080845f015f6101000a8154816fffffffffffffffffffffffffffffffff02191690836fffffffffffffffffffffffffffffffff16021790555050505050565b5f7f000000000000000000000000000000000000000000000000000000000000000073ffffffffffffffffffffffffffffffffffffffff166370a08231306040518263ffffffff1660e01b8152600401610c449190610d86565b602060405180830381865afa158015610c5f573d5f5f3e3d5ffd5b505050506040513d601f19601f82011682018060405250810190610c839190611688565b905090565b5f7f000000000000000000000000000000000000000000000000000000000000000073ffffffffffffffffffffffffffffffffffffffff166370a08231306040518263ffffffff1660e01b8152600401610ce29190610d86565b602060405180830381865afa158015610cfd573d5f5f3e3d5ffd5b505050506040513d601f19601f82011682018060405250810190610d219190611688565b905090565b5f5f60088360020b901d915061010083610d409190611511565b9050915091565b5f73ffffffffffffffffffffffffffffffffffffffff82169050919050565b5f610d7082610d47565b9050919050565b610d8081610d66565b82525050565b5f602082019050610d995f830184610d77565b92915050565b5f6fffffffffffffffffffffffffffffffff82169050919050565b610dc381610d9f565b82525050565b5f602082019050610ddc5f830184610dba565b92915050565b610deb81610d47565b82525050565b5f8160020b9050919050565b610e0681610df1565b82525050565b5f604082019050610e1f5f830185610de2565b610e2c6020830184610dfd565b9392505050565b5f5ffd5b5f5ffd5b610e4481610d66565b8114610e4e575f5ffd5b50565b5f81359050610e5f81610e3b565b92915050565b610e6e81610df1565b8114610e78575f5ffd5b50565b5f81359050610e8981610e65565b92915050565b610e9881610d9f565b8114610ea2575f5ffd5b50565b5f81359050610eb381610e8f565b92915050565b5f5ffd5b5f5ffd5b5f5ffd5b5f5f83601f840112610eda57610ed9610eb9565b5b8235905067ffffffffffffffff811115610ef757610ef6610ebd565b5b602083019150836001820283011115610f1357610f12610ec1565b5b9250929050565b5f5f5f5f5f5f60a08789031215610f3457610f33610e33565b5b5f610f4189828a01610e51565b9650506020610f5289828a01610e7b565b9550506040610f6389828a01610e7b565b9450506060610f7489828a01610ea5565b935050608087013567ffffffffffffffff811115610f9557610f94610e37565b5b610fa189828a01610ec5565b92509250509295509295509295565b5f819050919050565b610fc281610fb0565b82525050565b5f604082019050610fdb5f830185610fb9565b610fe86020830184610fb9565b9392505050565b5f819050919050565b61100181610fef565b811461100b575f5ffd5b50565b5f8135905061101c81610ff8565b92915050565b5f6020828403121561103757611036610e33565b5b5f6110448482850161100e565b91505092915050565b5f8160010b9050919050565b6110628161104d565b811461106c575f5ffd5b50565b5f8135905061107d81611059565b92915050565b5f6020828403121561109857611097610e33565b5b5f6110a58482850161106f565b91505092915050565b5f6020820190506110c15f830184610fb9565b92915050565b5f5f5f604084860312156110de576110dd610e33565b5b5f6110eb86828701610e51565b935050602084013567ffffffffffffffff81111561110c5761110b610e37565b5b61111886828701610ec5565b92509250509250925092565b5f819050919050565b61113681611124565b82525050565b5f60408201905061114f5f83018561112d565b61115c602083018461112d565b9392505050565b5f6020828403121561117857611177610e33565b5b5f61118584828501610e7b565b91505092915050565b5f8115159050919050565b6111a28161118e565b82525050565b5f6040820190506111bb5f830185611199565b6111c86020830184610dba565b9392505050565b7f4e487b71000000000000000000000000000000000000000000000000000000005f52601160045260245ffd5b5f61120682610df1565b91507fffffffffffffffffffffffffffffffffffffffffffffffffffffffffff8000008203611238576112376111cf565b5b815f039050919050565b5f61124c82610d9f565b915061125783610d9f565b925082820190506fffffffffffffffffffffffffffffffff81111561127f5761127e6111cf565b5b92915050565b5f82825260208201905092915050565b828183375f83830152505050565b5f601f19601f8301169050919050565b5f6112be8385611285565b93506112cb838584611295565b6112d4836112a3565b840190509392505050565b5f6060820190506112f25f830187610fb9565b6112ff6020830186610fb9565b81810360408301526113128184866112b3565b905095945050505050565b5f61132782610fb0565b915061133283610fb0565b925082820190508082111561134a576113496111cf565b5b92915050565b5f6080820190506113635f830187610d77565b6113706020830186610dba565b61137d6040830185610fb9565b61138a6060830184610fb9565b95945050505050565b5f61139d82611124565b91507f800000000000000000000000000000000000000000000000000000000000000082036113cf576113ce6111cf565b5b815f039050919050565b5f6040820190506113ec5f830185610d77565b6113f96020830184610fb9565b9392505050565b6114098161118e565b8114611413575f5ffd5b50565b5f8151905061142481611400565b92915050565b5f6020828403121561143f5761143e610e33565b5b5f61144c84828501611416565b91505092915050565b5f6060820190506114685f83018761112d565b611475602083018661112d565b81810360408301526114888184866112b3565b905095945050505050565b5f60a0820190506114a65f83018861112d565b6114b3602083018761112d565b6114c06040830186610de2565b6114cd6060830185610dba565b6114da6080830184610dfd565b9695505050505050565b7f4e487b71000000000000000000000000000000000000000000000000000000005f52601260045260245ffd5b5f61151b82610df1565b915061152683610df1565b925082611536576115356114e4565b5b828207905092915050565b5f61154b82610df1565b915061155683610df1565b925082611566576115656114e4565b5b60015f0383147fffffffffffffffffffffffffffffffffffffffffffffffffffffffffff8000008314161561159e5761159d6111cf565b5b828205905092915050565b5f8160601b9050919050565b5f6115bf826115a9565b9050919050565b5f6115d0826115b5565b9050919050565b6115e86115e382610d66565b6115c6565b82525050565b5f8160e81b9050919050565b5f611604826115ee565b9050919050565b61161c61161782610df1565b6115fa565b82525050565b5f61162d82866115d7565b60148201915061163d828561160b565b60038201915061164d828461160b565b600382019150819050949350505050565b61166781610fb0565b8114611671575f5ffd5b50565b5f815190506116828161165e565b92915050565b5f6020828403121561169d5761169c610e33565b5b5f6116aa84828501611674565b9150509291505056fea2646970667358221220548f10117ac320c92447cf5b9e5bbf4eebee36430bdf9f9664ba1542d0fa9e9e64736f6c634300081e0033",
					"opcodes": "PUSH1 0xC0 PUSH1 0x40 MSTORE CALLVALUE DUP1 ISZERO PUSH2 0xF JUMPI PUSH0 PUSH0 REVERT JUMPDEST POP PUSH1 0x40 MLOAD PUSH2 0x1980 CODESIZE SUB DUP1 PUSH2 0x1980 DUP4 CODECOPY DUP2 DUP2 ADD PUSH1 0x40 MSTORE DUP2 ADD SWAP1 PUSH2 0x31 SWAP2 SWAP1 PUSH2 0x1FD JUMP JUMPDEST DUP4 PUSH20 0xFFFFFFFFFFFFFFFFFFFFFFFFFFFFFFFFFFFFFFFF AND PUSH1 0x80 DUP2 PUSH20 0xFFFFFFFFFFFFFFFFFFFFFFFFFFFFFFFFFFFFFFFF AND DUP2 MSTORE POP POP DUP3 PUSH20 0xFFFFFFFFFFFFFFFFFFFFFFFFFFFFFFFFFFFFFFFF AND PUSH1 0xA0 DUP2 PUSH20 0xFFFFFFFFFFFFFFFFFFFFFFFFFFFFFFFFFFFFFFFF AND DUP2 MSTORE POP POP PUSH1 0x40 MLOAD DUP1 PUSH1 0x40 ADD PUSH1 0x40 MSTORE DUP1 DUP4 PUSH20 0xFFFFFFFFFFFFFFFFFFFFFFFFFFFFFFFFFFFFFFFF AND DUP2 MSTORE PUSH1 0x20 ADD DUP3 PUSH1 0x2 SIGNEXTEND DUP2 MSTORE POP PUSH0 PUSH0 DUP3 ADD MLOAD DUP2 PUSH0 ADD PUSH0 PUSH2 0x100 EXP DUP2 SLOAD DUP2 PUSH20 0xFFFFFFFFFFFFFFFFFFFFFFFFFFFFFFFFFFFFFFFF MUL NOT AND SWAP1 DUP4 PUSH20 0xFFFFFFFFFFFFFFFFFFFFFFFFFFFFFFFFFFFFFFFF AND MUL OR SWAP1 SSTORE POP PUSH1 0x20 DUP3 ADD MLOAD DUP2 PUSH0 ADD PUSH1 0x14 PUSH2 0x100 EXP DUP2 SLOAD DUP2 PUSH3 0xFFFFFF MUL NOT AND SWAP1 DUP4 PUSH1 0x2 SIGNEXTEND PUSH3 0xFFFFFF AND MUL OR SWAP1 SSTORE POP SWAP1 POP POP POP POP POP POP PUSH2 0x261 JUMP JUMPDEST PUSH0 PUSH0 REVERT JUMPDEST PUSH0 PUSH20 0xFFFFFFFFFFFFFFFFFFFFFFFFFFFFFFFFFFFFFFFF DUP3 AND SWAP1 POP SWAP2 SWAP1 POP JUMP JUMPDEST PUSH0 PUSH2 0x16C DUP3 PUSH2 0x143 JUMP JUMPDEST SWAP1 POP SWAP2 SWAP1 POP JUMP JUMPDEST PUSH2 0x17C DUP2 PUSH2 0x162 JUMP JUMPDEST DUP2 EQ PUSH2 0x186 JUMPI PUSH0 PUSH0 REVERT JUMPDEST POP JUMP JUMPDEST PUSH0 DUP2 MLOAD SWAP1 POP PUSH2 0x197 DUP2 PUSH2 0x173 JUMP JUMPDEST SWAP3 SWAP2 POP POP JUMP JUMPDEST PUSH2 0x1A6 DUP2 PUSH2 0x143 JUMP JUMPDEST DUP2 EQ PUSH2 0x1B0 JUMPI PUSH0 PUSH0 REVERT JUMPDEST POP JUMP JUMPDEST PUSH0 DUP2 MLOAD SWAP1 POP PUSH2 0x1C1 DUP2 PUSH2 0x19D JUMP JUMPDEST SWAP3 SWAP2 POP POP JUMP JUMPDEST PUSH0 DUP2 PUSH1 0x2 SIGNEXTEND SWAP1 POP SWAP2 SWAP1 POP JUMP JUMPDEST PUSH2 0x1DC DUP2 PUSH2 0x1C7 JUMP JUMPDEST DUP2 EQ PUSH2 0x1E6 JUMPI PUSH0 PUSH0 REVERT JUMPDEST POP JUMP JUMPDEST PUSH0 DUP2 MLOAD SWAP1 POP PUSH2 0x1F7 DUP2 PUSH2 0x1D3 JUMP JUMPDEST SWAP3 SWAP2 POP POP JUMP JUMPDEST PUSH0 PUSH0 PUSH0 PUSH0 PUSH1 0x80 DUP6 DUP8 SUB SLT ISZERO PUSH2 0x215 JUMPI PUSH2 0x214 PUSH2 0x13F JUMP JUMPDEST JUMPDEST PUSH0 PUSH2 0x222 DUP8 DUP3 DUP9 ADD PUSH2 0x189 JUMP JUMPDEST SWAP5 POP POP PUSH1 0x20 PUSH2 0x233 DUP8 DUP3 DUP9 ADD PUSH2 0x189 JUMP JUMPDEST SWAP4 POP POP PUSH1 0x40 PUSH2 0x244 DUP8 DUP3 DUP9 ADD PUSH2 0x1B3 JUMP JUMPDEST SWAP3 POP POP PUSH1 0x60 PUSH2 0x255 DUP8 DUP3 DUP9 ADD PUSH2 0x1E9 JUMP JUMPDEST SWAP2 POP POP SWAP3 SWAP6 SWAP2 SWAP5 POP SWAP3 POP JUMP JUMPDEST PUSH1 0x80 MLOAD PUSH1 0xA0 MLOAD PUSH2 0x16E9 PUSH2 0x297 PUSH0 CODECOPY PUSH0 DUP2 DUP2 PUSH2 0x688 ADD MSTORE PUSH2 0xC8B ADD MSTORE PUSH0 DUP2 DUP2 PUSH2 0x203 ADD MSTORE DUP2 DUP2 PUSH2 0x761 ADD MSTORE PUSH2 0xBED ADD MSTORE PUSH2 0x16E9 PUSH0 RETURN INVALID PUSH1 0x80 PUSH1 0x40 MSTORE CALLVALUE DUP1 ISZERO PUSH2 0xF JUMPI PUSH0 PUSH0 REVERT JUMPDEST POP PUSH1 0x4 CALLDATASIZE LT PUSH2 0x91 JUMPI PUSH0 CALLDATALOAD PUSH1 0xE0 SHR DUP1 PUSH4 0x514EA4BF GT PUSH2 0x64 JUMPI DUP1 PUSH4 0x514EA4BF EQ PUSH2 0x121 JUMPI DUP1 PUSH4 0x5339C296 EQ PUSH2 0x151 JUMPI DUP1 PUSH4 0xD21220A7 EQ PUSH2 0x181 JUMPI DUP1 PUSH4 0xE3547335 EQ PUSH2 0x19F JUMPI DUP1 PUSH4 0xF30DBA93 EQ PUSH2 0x1D0 JUMPI PUSH2 0x91 JUMP JUMPDEST DUP1 PUSH4 0xDFE1681 EQ PUSH2 0x95 JUMPI DUP1 PUSH4 0x1A686502 EQ PUSH2 0xB3 JUMPI DUP1 PUSH4 0x3850C7BD EQ PUSH2 0xD1 JUMPI DUP1 PUSH4 0x3C8A7D8D EQ PUSH2 0xF0 JUMPI JUMPDEST PUSH0 PUSH0 REVERT JUMPDEST PUSH2 0x9D PUSH2 0x201 JUMP JUMPDEST PUSH1 0x40 MLOAD PUSH2 0xAA SWAP2 SWAP1 PUSH2 0xD86 JUMP JUMPDEST PUSH1 0x40 MLOAD DUP1 SWAP2 SUB SWAP1 RETURN JUMPDEST PUSH2 0xBB PUSH2 0x225 JUMP JUMPDEST PUSH1 0x40 MLOAD PUSH2 0xC8 SWAP2 SWAP1 PUSH2 0xDC9 JUMP JUMPDEST PUSH1 0x40 MLOAD DUP1 SWAP2 SUB SWAP1 RETURN JUMPDEST PUSH2 0xD9 PUSH2 0x246 JUMP JUMPDEST PUSH1 0x40 MLOAD PUSH2 0xE7 SWAP3 SWAP2 SWAP1 PUSH2 0xE0C JUMP JUMPDEST PUSH1 0x40 MLOAD DUP1 SWAP2 SUB SWAP1 RETURN JUMPDEST PUSH2 0x10A PUSH1 0x4 DUP1 CALLDATASIZE SUB DUP2 ADD SWAP1 PUSH2 0x105 SWAP2 SWAP1 PUSH2 0xF1A JUMP JUMPDEST PUSH2 0x281 JUMP JUMPDEST PUSH1 0x40 MLOAD PUSH2 0x118 SWAP3 SWAP2 SWAP1 PUSH2 0xFC8 JUMP JUMPDEST PUSH1 0x40 MLOAD DUP1 SWAP2 SUB SWAP1 RETURN JUMPDEST PUSH2 0x13B PUSH1 0x4 DUP1 CALLDATASIZE SUB DUP2 ADD SWAP1 PUSH2 0x136 SWAP2 SWAP1 PUSH2 0x1022 JUMP JUMPDEST PUSH2 0x63C JUMP JUMPDEST PUSH1 0x40 MLOAD PUSH2 0x148 SWAP2 SWAP1 PUSH2 0xDC9 JUMP JUMPDEST PUSH1 0x40 MLOAD DUP1 SWAP2 SUB SWAP1 RETURN JUMPDEST PUSH2 0x16B PUSH1 0x4 DUP1 CALLDATASIZE SUB DUP2 ADD SWAP1 PUSH2 0x166 SWAP2 SWAP1 PUSH2 0x1083 JUMP JUMPDEST PUSH2 0x671 JUMP JUMPDEST PUSH1 0x40 MLOAD PUSH2 0x178 SWAP2 SWAP1 PUSH2 0x10AE JUMP JUMPDEST PUSH1 0x40 MLOAD DUP1 SWAP2 SUB SWAP1 RETURN JUMPDEST PUSH2 0x189 PUSH2 0x686 JUMP JUMPDEST PUSH1 0x40 MLOAD PUSH2 0x196 SWAP2 SWAP1 PUSH2 0xD86 JUMP JUMPDEST PUSH1 0x40 MLOAD DUP1 SWAP2 SUB SWAP1 RETURN JUMPDEST PUSH2 0x1B9 PUSH1 0x4 DUP1 CALLDATASIZE SUB DUP2 ADD SWAP1 PUSH2 0x1B4 SWAP2 SWAP1 PUSH2 0x10C7 JUMP JUMPDEST PUSH2 0x6AA JUMP JUMPDEST PUSH1 0x40 MLOAD PUSH2 0x1C7 SWAP3 SWAP2 SWAP1 PUSH2 0x113C JUMP JUMPDEST PUSH1 0x40 MLOAD DUP1 SWAP2 SUB SWAP1 RETURN JUMPDEST PUSH2 0x1EA PUSH1 0x4 DUP1 CALLDATASIZE SUB DUP2 ADD SWAP1 PUSH2 0x1E5 SWAP2 SWAP1 PUSH2 0x1163 JUMP JUMPDEST PUSH2 0x98E JUMP JUMPDEST PUSH1 0x40 MLOAD PUSH2 0x1F8 SWAP3 SWAP2 SWAP1 PUSH2 0x11A8 JUMP JUMPDEST PUSH1 0x40 MLOAD DUP1 SWAP2 SUB SWAP1 RETURN JUMPDEST PUSH32 0x0 DUP2 JUMP JUMPDEST PUSH1 0x1 PUSH0 SWAP1 SLOAD SWAP1 PUSH2 0x100 EXP SWAP1 DIV PUSH16 0xFFFFFFFFFFFFFFFFFFFFFFFFFFFFFFFF AND DUP2 JUMP JUMPDEST PUSH0 DUP1 PUSH0 ADD PUSH0 SWAP1 SLOAD SWAP1 PUSH2 0x100 EXP SWAP1 DIV PUSH20 0xFFFFFFFFFFFFFFFFFFFFFFFFFFFFFFFFFFFFFFFF AND SWAP1 DUP1 PUSH0 ADD PUSH1 0x14 SWAP1 SLOAD SWAP1 PUSH2 0x100 EXP SWAP1 DIV PUSH1 0x2 SIGNEXTEND SWAP1 POP DUP3 JUMP JUMPDEST PUSH0 PUSH0 DUP6 PUSH1 0x2 SIGNEXTEND DUP8 PUSH1 0x2 SIGNEXTEND SLT ISZERO DUP1 PUSH2 0x2BD JUMPI POP PUSH32 0xFFFFFFFFFFFFFFFFFFFFFFFFFFFFFFFFFFFFFFFFFFFFFFFFFFFFFFFFFFF27618 PUSH1 0x2 SIGNEXTEND DUP8 PUSH1 0x2 SIGNEXTEND SLT JUMPDEST DUP1 PUSH2 0x2F6 JUMPI POP PUSH32 0xFFFFFFFFFFFFFFFFFFFFFFFFFFFFFFFFFFFFFFFFFFFFFFFFFFFFFFFFFFF27618 PUSH2 0x2ED SWAP1 PUSH2 0x11FC JUMP JUMPDEST PUSH1 0x2 SIGNEXTEND DUP7 PUSH1 0x2 SIGNEXTEND SGT JUMPDEST ISZERO PUSH2 0x32D JUMPI PUSH1 0x40 MLOAD PUSH32 0x64847D000000000000000000000000000000000000000000000000000000000 DUP2 MSTORE PUSH1 0x4 ADD PUSH1 0x40 MLOAD DUP1 SWAP2 SUB SWAP1 REVERT JUMPDEST PUSH0 DUP6 PUSH16 0xFFFFFFFFFFFFFFFFFFFFFFFFFFFFFFFF AND SUB PUSH2 0x378 JUMPI PUSH1 0x40 MLOAD PUSH32 0x1007454800000000000000000000000000000000000000000000000000000000 DUP2 MSTORE PUSH1 0x4 ADD PUSH1 0x40 MLOAD DUP1 SWAP2 SUB SWAP1 REVERT JUMPDEST PUSH0 PUSH2 0x38F DUP9 DUP8 PUSH1 0x2 PUSH2 0x9D5 SWAP1 SWAP3 SWAP2 SWAP1 PUSH4 0xFFFFFFFF AND JUMP JUMPDEST SWAP1 POP PUSH0 PUSH2 0x3A8 DUP9 DUP9 PUSH1 0x2 PUSH2 0x9D5 SWAP1 SWAP3 SWAP2 SWAP1 PUSH4 0xFFFFFFFF AND JUMP JUMPDEST SWAP1 POP DUP2 ISZERO PUSH2 0x3C8 JUMPI PUSH2 0x3C7 DUP10 PUSH1 0x1 PUSH1 0x3 PUSH2 0xACC SWAP1 SWAP3 SWAP2 SWAP1 PUSH4 0xFFFFFFFF AND JUMP JUMPDEST JUMPDEST DUP1 ISZERO PUSH2 0x3E6 JUMPI PUSH2 0x3E5 DUP9 PUSH1 0x1 PUSH1 0x3 PUSH2 0xACC SWAP1 SWAP3 SWAP2 SWAP1 PUSH4 0xFFFFFFFF AND JUMP JUMPDEST JUMPDEST PUSH0 PUSH2 0x3FF DUP12 DUP12 DUP12 PUSH1 0x4 PUSH2 0xB35 SWAP1 SWAP4 SWAP3 SWAP2 SWAP1 PUSH4 0xFFFFFFFF AND JUMP JUMPDEST SWAP1 POP PUSH2 0x414 DUP9 DUP3 PUSH2 0xB7A SWAP1 SWAP2 SWAP1 PUSH4 0xFFFFFFFF AND JUMP JUMPDEST PUSH8 0xDDD13F10B84EE00 SWAP5 POP PUSH10 0x10F0CF064DD59200000 SWAP4 POP DUP8 PUSH1 0x1 PUSH0 DUP3 DUP3 DUP3 SWAP1 SLOAD SWAP1 PUSH2 0x100 EXP SWAP1 DIV PUSH16 0xFFFFFFFFFFFFFFFFFFFFFFFFFFFFFFFF AND PUSH2 0x458 SWAP2 SWAP1 PUSH2 0x1242 JUMP JUMPDEST SWAP3 POP PUSH2 0x100 EXP DUP2 SLOAD DUP2 PUSH16 0xFFFFFFFFFFFFFFFFFFFFFFFFFFFFFFFF MUL NOT AND SWAP1 DUP4 PUSH16 0xFFFFFFFFFFFFFFFFFFFFFFFFFFFFFFFF AND MUL OR SWAP1 SSTORE POP PUSH0 PUSH0 PUSH0 DUP8 GT ISZERO PUSH2 0x4A3 JUMPI PUSH2 0x4A0 PUSH2 0xBEA JUMP JUMPDEST SWAP2 POP JUMPDEST PUSH0 DUP7 GT ISZERO PUSH2 0x4B6 JUMPI PUSH2 0x4B3 PUSH2 0xC88 JUMP JUMPDEST SWAP1 POP JUMPDEST CALLER PUSH20 0xFFFFFFFFFFFFFFFFFFFFFFFFFFFFFFFFFFFFFFFF AND PUSH4 0xD3487997 DUP9 DUP9 DUP13 DUP13 PUSH1 0x40 MLOAD DUP6 PUSH4 0xFFFFFFFF AND PUSH1 0xE0 SHL DUP2 MSTORE PUSH1 0x4 ADD PUSH2 0x4F5 SWAP5 SWAP4 SWAP3 SWAP2 SWAP1 PUSH2 0x12DF JUMP JUMPDEST PUSH0 PUSH1 0x40 MLOAD DUP1 DUP4 SUB DUP2 PUSH0 DUP8 DUP1 EXTCODESIZE ISZERO DUP1 ISZERO PUSH2 0x50C JUMPI PUSH0 PUSH0 REVERT JUMPDEST POP GAS CALL ISZERO DUP1 ISZERO PUSH2 0x51E JUMPI RETURNDATASIZE PUSH0 PUSH0 RETURNDATACOPY RETURNDATASIZE PUSH0 REVERT JUMPDEST POP POP POP POP PUSH0 DUP8 GT DUP1 ISZERO PUSH2 0x542 JUMPI POP PUSH2 0x534 PUSH2 0xBEA JUMP JUMPDEST DUP8 DUP4 PUSH2 0x540 SWAP2 SWAP1 PUSH2 0x131D JUMP JUMPDEST GT JUMPDEST ISZERO PUSH2 0x579 JUMPI PUSH1 0x40 MLOAD PUSH32 0x98FB56100000000000000000000000000000000000000000000000000000000 DUP2 MSTORE PUSH1 0x4 ADD PUSH1 0x40 MLOAD DUP1 SWAP2 SUB SWAP1 REVERT JUMPDEST PUSH0 DUP7 GT DUP1 ISZERO PUSH2 0x599 JUMPI POP PUSH2 0x58B PUSH2 0xC88 JUMP JUMPDEST DUP7 DUP3 PUSH2 0x597 SWAP2 SWAP1 PUSH2 0x131D JUMP JUMPDEST GT JUMPDEST ISZERO PUSH2 0x5D0 JUMPI PUSH1 0x40 MLOAD PUSH32 0x98FB56100000000000000000000000000000000000000000000000000000000 DUP2 MSTORE PUSH1 0x4 ADD PUSH1 0x40 MLOAD DUP1 SWAP2 SUB SWAP1 REVERT JUMPDEST DUP11 PUSH1 0x2 SIGNEXTEND DUP13 PUSH1 0x2 SIGNEXTEND DUP15 PUSH20 0xFFFFFFFFFFFFFFFFFFFFFFFFFFFFFFFFFFFFFFFF AND PUSH32 0x7A53080BA414158BE7EC69B987B5FB7D07DEE101FE85488F0853AE16239D0BDE CALLER DUP15 DUP13 DUP13 PUSH1 0x40 MLOAD PUSH2 0x624 SWAP5 SWAP4 SWAP3 SWAP2 SWAP1 PUSH2 0x1350 JUMP JUMPDEST PUSH1 0x40 MLOAD DUP1 SWAP2 SUB SWAP1 LOG4 POP POP POP POP POP SWAP7 POP SWAP7 SWAP5 POP POP POP POP POP JUMP JUMPDEST PUSH1 0x4 PUSH1 0x20 MSTORE DUP1 PUSH0 MSTORE PUSH1 0x40 PUSH0 KECCAK256 PUSH0 SWAP2 POP SWAP1 POP DUP1 PUSH0 ADD PUSH0 SWAP1 SLOAD SWAP1 PUSH2 0x100 EXP SWAP1 DIV PUSH16 0xFFFFFFFFFFFFFFFFFFFFFFFFFFFFFFFF AND SWAP1 POP DUP2 JUMP JUMPDEST PUSH1 0x3 PUSH1 0x20 MSTORE DUP1 PUSH0 MSTORE PUSH1 0x40 PUSH0 KECCAK256 PUSH0 SWAP2 POP SWAP1 POP SLOAD DUP2 JUMP JUMPDEST PUSH32 0x0 DUP2 JUMP JUMPDEST PUSH0 PUSH0 PUSH0 PUSH3 0x14CC0 SWAP1 POP PUSH0 PUSH13 0x46BD046408013D67ED5D406B2D SWAP1 POP PUSH32 0xFFFFFFFFFFFFFFFFFFFFFFFFFFFFFFFFFFFFFFFFFFFFFFFFFFE22B3B9E50C0F4 SWAP4 POP PUSH9 0x246DDF97976680000 SWAP3 POP DUP2 DUP2 PUSH0 PUSH0 ADD PUSH1 0x14 PUSH0 PUSH0 ADD PUSH0 DUP5 SWAP2 SWAP1 PUSH2 0x100 EXP DUP2 SLOAD DUP2 PUSH20 0xFFFFFFFFFFFFFFFFFFFFFFFFFFFFFFFFFFFFFFFF MUL NOT AND SWAP1 DUP4 PUSH20 0xFFFFFFFFFFFFFFFFFFFFFFFFFFFFFFFFFFFFFFFF AND MUL OR SWAP1 SSTORE POP DUP4 SWAP2 SWAP1 PUSH2 0x100 EXP DUP2 SLOAD DUP2 PUSH3 0xFFFFFF MUL NOT AND SWAP1 DUP4 PUSH1 0x2 SIGNEXTEND PUSH3 0xFFFFFF AND MUL OR SWAP1 SSTORE POP POP POP PUSH32 0x0 PUSH20 0xFFFFFFFFFFFFFFFFFFFFFFFFFFFFFFFFFFFFFFFF AND PUSH4 0xA9059CBB DUP9 DUP7 PUSH2 0x7A6 SWAP1 PUSH2 0x1393 JUMP JUMPDEST PUSH1 0x40 MLOAD DUP4 PUSH4 0xFFFFFFFF AND PUSH1 0xE0 SHL DUP2 MSTORE PUSH1 0x4 ADD PUSH2 0x7C3 SWAP3 SWAP2 SWAP1 PUSH2 0x13D9 JUMP JUMPDEST PUSH1 0x20 PUSH1 0x40 MLOAD DUP1 DUP4 SUB DUP2 PUSH0 DUP8 GAS CALL ISZERO DUP1 ISZERO PUSH2 0x7DF JUMPI RETURNDATASIZE PUSH0 PUSH0 RETURNDATACOPY RETURNDATASIZE PUSH0 REVERT JUMPDEST POP POP POP POP PUSH1 0x40 MLOAD RETURNDATASIZE PUSH1 0x1F NOT PUSH1 0x1F DUP3 ADD AND DUP3 ADD DUP1 PUSH1 0x40 MSTORE POP DUP2 ADD SWAP1 PUSH2 0x803 SWAP2 SWAP1 PUSH2 0x142A JUMP JUMPDEST POP PUSH0 PUSH2 0x80D PUSH2 0xC88 JUMP JUMPDEST SWAP1 POP CALLER PUSH20 0xFFFFFFFFFFFFFFFFFFFFFFFFFFFFFFFFFFFFFFFF AND PUSH4 0xFA461E33 DUP7 DUP7 DUP11 DUP11 PUSH1 0x40 MLOAD DUP6 PUSH4 0xFFFFFFFF AND PUSH1 0xE0 SHL DUP2 MSTORE PUSH1 0x4 ADD PUSH2 0x84E SWAP5 SWAP4 SWAP3 SWAP2 SWAP1 PUSH2 0x1455 JUMP JUMPDEST PUSH0 PUSH1 0x40 MLOAD DUP1 DUP4 SUB DUP2 PUSH0 DUP8 DUP1 EXTCODESIZE ISZERO DUP1 ISZERO PUSH2 0x865 JUMPI PUSH0 PUSH0 REVERT JUMPDEST POP GAS CALL ISZERO DUP1 ISZERO PUSH2 0x877 JUMPI RETURNDATASIZE PUSH0 PUSH0 RETURNDATACOPY RETURNDATASIZE PUSH0 REVERT JUMPDEST POP POP POP POP PUSH2 0x883 PUSH2 0xC88 JUMP JUMPDEST DUP5 DUP3 PUSH2 0x88F SWAP2 SWAP1 PUSH2 0x131D JUMP JUMPDEST LT ISZERO PUSH2 0x8C7 JUMPI PUSH1 0x40 MLOAD PUSH32 0x98FB56100000000000000000000000000000000000000000000000000000000 DUP2 MSTORE PUSH1 0x4 ADD PUSH1 0x40 MLOAD DUP1 SWAP2 SUB SWAP1 REVERT JUMPDEST DUP8 PUSH20 0xFFFFFFFFFFFFFFFFFFFFFFFFFFFFFFFFFFFFFFFF AND CALLER PUSH20 0xFFFFFFFFFFFFFFFFFFFFFFFFFFFFFFFFFFFFFFFF AND PUSH32 0xC42079F94A6350D7E6235F29174924F928CC2AC818EB64FED8004E115FBCCA67 DUP8 DUP8 PUSH0 PUSH0 ADD PUSH0 SWAP1 SLOAD SWAP1 PUSH2 0x100 EXP SWAP1 DIV PUSH20 0xFFFFFFFFFFFFFFFFFFFFFFFFFFFFFFFFFFFFFFFF AND PUSH1 0x1 PUSH0 SWAP1 SLOAD SWAP1 PUSH2 0x100 EXP SWAP1 DIV PUSH16 0xFFFFFFFFFFFFFFFFFFFFFFFFFFFFFFFF AND PUSH0 PUSH0 ADD PUSH1 0x14 SWAP1 SLOAD SWAP1 PUSH2 0x100 EXP SWAP1 DIV PUSH1 0x2 SIGNEXTEND PUSH1 0x40 MLOAD PUSH2 0x97B SWAP6 SWAP5 SWAP4 SWAP3 SWAP2 SWAP1 PUSH2 0x1493 JUMP JUMPDEST PUSH1 0x40 MLOAD DUP1 SWAP2 SUB SWAP1 LOG3 POP POP POP SWAP4 POP SWAP4 SWAP2 POP POP JUMP JUMPDEST PUSH1 0x2 PUSH1 0x20 MSTORE DUP1 PUSH0 MSTORE PUSH1 0x40 PUSH0 KECCAK256 PUSH0 SWAP2 POP SWAP1 POP DUP1 PUSH0 ADD PUSH0 SWAP1 SLOAD SWAP1 PUSH2 0x100 EXP SWAP1 DIV PUSH1 0xFF AND SWAP1 DUP1 PUSH0 ADD PUSH1 0x1 SWAP1 SLOAD SWAP1 PUSH2 0x100 EXP SWAP1 DIV PUSH16 0xFFFFFFFFFFFFFFFFFFFFFFFFFFFFFFFF AND SWAP1 POP DUP3 JUMP JUMPDEST PUSH0 PUSH0 DUP5 PUSH0 DUP6 PUSH1 0x2 SIGNEXTEND PUSH1 0x2 SIGNEXTEND DUP2 MSTORE PUSH1 0x20 ADD SWAP1 DUP2 MSTORE PUSH1 0x20 ADD PUSH0 KECCAK256 SWAP1 POP PUSH0 DUP2 PUSH0 ADD PUSH1 0x1 SWAP1 SLOAD SWAP1 PUSH2 0x100 EXP SWAP1 DIV PUSH16 0xFFFFFFFFFFFFFFFFFFFFFFFFFFFFFFFF AND SWAP1 POP PUSH0 DUP5 DUP3 PUSH2 0xA1F SWAP2 SWAP1 PUSH2 0x1242 JUMP JUMPDEST SWAP1 POP PUSH0 DUP3 PUSH16 0xFFFFFFFFFFFFFFFFFFFFFFFFFFFFFFFF AND SUB PUSH2 0xA56 JUMPI PUSH1 0x1 DUP4 PUSH0 ADD PUSH0 PUSH2 0x100 EXP DUP2 SLOAD DUP2 PUSH1 0xFF MUL NOT AND SWAP1 DUP4 ISZERO ISZERO MUL OR SWAP1 SSTORE POP JUMPDEST DUP1 DUP4 PUSH0 ADD PUSH1 0x1 PUSH2 0x100 EXP DUP2 SLOAD DUP2 PUSH16 0xFFFFFFFFFFFFFFFFFFFFFFFFFFFFFFFF MUL NOT AND SWAP1 DUP4 PUSH16 0xFFFFFFFFFFFFFFFFFFFFFFFFFFFFFFFF AND MUL OR SWAP1 SSTORE POP PUSH0 DUP3 PUSH16 0xFFFFFFFFFFFFFFFFFFFFFFFFFFFFFFFF AND EQ ISZERO ISZERO PUSH0 DUP3 PUSH16 0xFFFFFFFFFFFFFFFFFFFFFFFFFFFFFFFF AND EQ ISZERO ISZERO EQ ISZERO SWAP4 POP POP POP POP SWAP4 SWAP3 POP POP POP JUMP JUMPDEST PUSH0 DUP2 DUP4 PUSH2 0xAD9 SWAP2 SWAP1 PUSH2 0x1511 JUMP JUMPDEST PUSH1 0x2 SIGNEXTEND EQ PUSH2 0xAE5 JUMPI PUSH0 PUSH0 REVERT JUMPDEST PUSH0 PUSH0 PUSH2 0xAFB DUP4 DUP6 PUSH2 0xAF6 SWAP2 SWAP1 PUSH2 0x1541 JUMP JUMPDEST PUSH2 0xD26 JUMP JUMPDEST SWAP2 POP SWAP2 POP PUSH0 DUP2 PUSH1 0xFF AND PUSH1 0x1 SWAP1 SHL SWAP1 POP DUP1 DUP7 PUSH0 DUP6 PUSH1 0x1 SIGNEXTEND PUSH1 0x1 SIGNEXTEND DUP2 MSTORE PUSH1 0x20 ADD SWAP1 DUP2 MSTORE PUSH1 0x20 ADD PUSH0 KECCAK256 PUSH0 DUP3 DUP3 SLOAD XOR SWAP3 POP POP DUP2 SWAP1 SSTORE POP POP POP POP POP POP POP JUMP JUMPDEST PUSH0 DUP5 PUSH0 DUP6 DUP6 DUP6 PUSH1 0x40 MLOAD PUSH1 0x20 ADD PUSH2 0xB4D SWAP4 SWAP3 SWAP2 SWAP1 PUSH2 0x1622 JUMP JUMPDEST PUSH1 0x40 MLOAD PUSH1 0x20 DUP2 DUP4 SUB SUB DUP2 MSTORE SWAP1 PUSH1 0x40 MSTORE DUP1 MLOAD SWAP1 PUSH1 0x20 ADD KECCAK256 DUP2 MSTORE PUSH1 0x20 ADD SWAP1 DUP2 MSTORE PUSH1 0x20 ADD PUSH0 KECCAK256 SWAP1 POP SWAP5 SWAP4 POP POP POP POP JUMP JUMPDEST PUSH0 DUP3 PUSH0 ADD PUSH0 SWAP1 SLOAD SWAP1 PUSH2 0x100 EXP SWAP1 DIV PUSH16 0xFFFFFFFFFFFFFFFFFFFFFFFFFFFFFFFF AND SWAP1 POP PUSH0 DUP3 DUP3 PUSH2 0xBA9 SWAP2 SWAP1 PUSH2 0x1242 JUMP JUMPDEST SWAP1 POP DUP1 DUP5 PUSH0 ADD PUSH0 PUSH2 0x100 EXP DUP2 SLOAD DUP2 PUSH16 0xFFFFFFFFFFFFFFFFFFFFFFFFFFFFFFFF MUL NOT AND SWAP1 DUP4 PUSH16 0xFFFFFFFFFFFFFFFFFFFFFFFFFFFFFFFF AND MUL OR SWAP1 SSTORE POP POP POP POP POP JUMP JUMPDEST PUSH0 PUSH32 0x0 PUSH20 0xFFFFFFFFFFFFFFFFFFFFFFFFFFFFFFFFFFFFFFFF AND PUSH4 0x70A08231 ADDRESS PUSH1 0x40 MLOAD DUP3 PUSH4 0xFFFFFFFF AND PUSH1 0xE0 SHL DUP2 MSTORE PUSH1 0x4 ADD PUSH2 0xC44 SWAP2 SWAP1 PUSH2 0xD86 JUMP JUMPDEST PUSH1 0x20 PUSH1 0x40 MLOAD DUP1 DUP4 SUB DUP2 DUP7 GAS STATICCALL ISZERO DUP1 ISZERO PUSH2 0xC5F JUMPI RETURNDATASIZE PUSH0 PUSH0 RETURNDATACOPY RETURNDATASIZE PUSH0 REVERT JUMPDEST POP POP POP POP PUSH1 0x40 MLOAD RETURNDATASIZE PUSH1 0x1F NOT PUSH1 0x1F DUP3 ADD AND DUP3 ADD DUP1 PUSH1 0x40 MSTORE POP DUP2 ADD SWAP1 PUSH2 0xC83 SWAP2 SWAP1 PUSH2 0x1688 JUMP JUMPDEST SWAP1 POP SWAP1 JUMP JUMPDEST PUSH0 PUSH32 0x0 PUSH20 0xFFFFFFFFFFFFFFFFFFFFFFFFFFFFFFFFFFFFFFFF AND PUSH4 0x70A08231 ADDRESS PUSH1 0x40 MLOAD DUP3 PUSH4 0xFFFFFFFF AND PUSH1 0xE0 SHL DUP2 MSTORE PUSH1 0x4 ADD PUSH2 0xCE2 SWAP2 SWAP1 PUSH2 0xD86 JUMP JUMPDEST PUSH1 0x20 PUSH1 0x40 MLOAD DUP1 DUP4 SUB DUP2 DUP7 GAS STATICCALL ISZERO DUP1 ISZERO PUSH2 0xCFD JUMPI RETURNDATASIZE PUSH0 PUSH0 RETURNDATACOPY RETURNDATASIZE PUSH0 REVERT JUMPDEST POP POP POP POP PUSH1 0x40 MLOAD RETURNDATASIZE PUSH1 0x1F NOT PUSH1 0x1F DUP3 ADD AND DUP3 ADD DUP1 PUSH1 0x40 MSTORE POP DUP2 ADD SWAP1 PUSH2 0xD21 SWAP2 SWAP1 PUSH2 0x1688 JUMP JUMPDEST SWAP1 POP SWAP1 JUMP JUMPDEST PUSH0 PUSH0 PUSH1 0x8 DUP4 PUSH1 0x2 SIGNEXTEND SWAP1 SAR SWAP2 POP PUSH2 0x100 DUP4 PUSH2 0xD40 SWAP2 SWAP1 PUSH2 0x1511 JUMP JUMPDEST SWAP1 POP SWAP2 POP SWAP2 JUMP JUMPDEST PUSH0 PUSH20 0xFFFFFFFFFFFFFFFFFFFFFFFFFFFFFFFFFFFFFFFF DUP3 AND SWAP1 POP SWAP2 SWAP1 POP JUMP JUMPDEST PUSH0 PUSH2 0xD70 DUP3 PUSH2 0xD47 JUMP JUMPDEST SWAP1 POP SWAP2 SWAP1 POP JUMP JUMPDEST PUSH2 0xD80 DUP2 PUSH2 0xD66 JUMP JUMPDEST DUP3 MSTORE POP POP JUMP JUMPDEST PUSH0 PUSH1 0x20 DUP3 ADD SWAP1 POP PUSH2 0xD99 PUSH0 DUP4 ADD DUP5 PUSH2 0xD77 JUMP JUMPDEST SWAP3 SWAP2 POP POP JUMP JUMPDEST PUSH0 PUSH16 0xFFFFFFFFFFFFFFFFFFFFFFFFFFFFFFFF DUP3 AND SWAP1 POP SWAP2 SWAP1 POP JUMP JUMPDEST PUSH2 0xDC3 DUP2 PUSH2 0xD9F JUMP JUMPDEST DUP3 MSTORE POP POP JUMP JUMPDEST PUSH0 PUSH1 0x20 DUP3 ADD SWAP1 POP PUSH2 0xDDC PUSH0 DUP4 ADD DUP5 PUSH2 0xDBA JUMP JUMPDEST SWAP3 SWAP2 POP POP JUMP JUMPDEST PUSH2 0xDEB DUP2 PUSH2 0xD47 JUMP JUMPDEST DUP3 MSTORE POP POP JUMP JUMPDEST PUSH0 DUP2 PUSH1 0x2 SIGNEXTEND SWAP1 POP SWAP2 SWAP1 POP JUMP JUMPDEST PUSH2 0xE06 DUP2 PUSH2 0xDF1 JUMP JUMPDEST DUP3 MSTORE POP POP JUMP JUMPDEST PUSH0 PUSH1 0x40 DUP3 ADD SWAP1 POP PUSH2 0xE1F PUSH0 DUP4 ADD DUP6 PUSH2 0xDE2 JUMP JUMPDEST PUSH2 0xE2C PUSH1 0x20 DUP4 ADD DUP5 PUSH2 0xDFD JUMP JUMPDEST SWAP4 SWAP3 POP POP POP JUMP JUMPDEST PUSH0 PUSH0 REVERT JUMPDEST PUSH0 PUSH0 REVERT JUMPDEST PUSH2 0xE44 DUP2 PUSH2 0xD66 JUMP JUMPDEST DUP2 EQ PUSH2 0xE4E JUMPI PUSH0 PUSH0 REVERT JUMPDEST POP JUMP JUMPDEST PUSH0 DUP2 CALLDATALOAD SWAP1 POP PUSH2 0xE5F DUP2 PUSH2 0xE3B JUMP JUMPDEST SWAP3 SWAP2 POP POP JUMP JUMPDEST PUSH2 0xE6E DUP2 PUSH2 0xDF1 JUMP JUMPDEST DUP2 EQ PUSH2 0xE78 JUMPI PUSH0 PUSH0 REVERT JUMPDEST POP JUMP JUMPDEST PUSH0 DUP2 CALLDATALOAD SWAP1 POP PUSH2 0xE89 DUP2 PUSH2 0xE65 JUMP JUMPDEST SWAP3 SWAP2 POP POP JUMP JUMPDEST PUSH2 0xE98 DUP2 PUSH2 0xD9F JUMP JUMPDEST DUP2 EQ PUSH2 0xEA2 JUMPI PUSH0 PUSH0 REVERT JUMPDEST POP JUMP JUMPDEST PUSH0 DUP2 CALLDATALOAD SWAP1 POP PUSH2 0xEB3 DUP2 PUSH2 0xE8F JUMP JUMPDEST SWAP3 SWAP2 POP POP JUMP JUMPDEST PUSH0 PUSH0 REVERT JUMPDEST PUSH0 PUSH0 REVERT JUMPDEST PUSH0 PUSH0 REVERT JUMPDEST PUSH0 PUSH0 DUP4 PUSH1 0x1F DUP5 ADD SLT PUSH2 0xEDA JUMPI PUSH2 0xED9 PUSH2 0xEB9 JUMP JUMPDEST JUMPDEST DUP3 CALLDATALOAD SWAP1 POP PUSH8 0xFFFFFFFFFFFFFFFF DUP2 GT ISZERO PUSH2 0xEF7 JUMPI PUSH2 0xEF6 PUSH2 0xEBD JUMP JUMPDEST JUMPDEST PUSH1 0x20 DUP4 ADD SWAP2 POP DUP4 PUSH1 0x1 DUP3 MUL DUP4 ADD GT ISZERO PUSH2 0xF13 JUMPI PUSH2 0xF12 PUSH2 0xEC1 JUMP JUMPDEST JUMPDEST SWAP3 POP SWAP3 SWAP1 POP JUMP JUMPDEST PUSH0 PUSH0 PUSH0 PUSH0 PUSH0 PUSH0 PUSH1 0xA0 DUP8 DUP10 SUB SLT ISZERO PUSH2 0xF34 JUMPI PUSH2 0xF33 PUSH2 0xE33 JUMP JUMPDEST JUMPDEST PUSH0 PUSH2 0xF41 DUP10 DUP3 DUP11 ADD PUSH2 0xE51 JUMP JUMPDEST SWAP7 POP POP PUSH1 0x20 PUSH2 0xF52 DUP10 DUP3 DUP11 ADD PUSH2 0xE7B JUMP JUMPDEST SWAP6 POP POP PUSH1 0x40 PUSH2 0xF63 DUP10 DUP3 DUP11 ADD PUSH2 0xE7B JUMP JUMPDEST SWAP5 POP POP PUSH1 0x60 PUSH2 0xF74 DUP10 DUP3 DUP11 ADD PUSH2 0xEA5 JUMP JUMPDEST SWAP4 POP POP PUSH1 0x80 DUP8 ADD CALLDATALOAD PUSH8 0xFFFFFFFFFFFFFFFF DUP2 GT ISZERO PUSH2 0xF95 JUMPI PUSH2 0xF94 PUSH2 0xE37 JUMP JUMPDEST JUMPDEST PUSH2 0xFA1 DUP10 DUP3 DUP11 ADD PUSH2 0xEC5 JUMP JUMPDEST SWAP3 POP SWAP3 POP POP SWAP3 SWAP6 POP SWAP3 SWAP6 POP SWAP3 SWAP6 JUMP JUMPDEST PUSH0 DUP2 SWAP1 POP SWAP2 SWAP1 POP JUMP JUMPDEST PUSH2 0xFC2 DUP2 PUSH2 0xFB0 JUMP JUMPDEST DUP3 MSTORE POP POP JUMP JUMPDEST PUSH0 PUSH1 0x40 DUP3 ADD SWAP1 POP PUSH2 0xFDB PUSH0 DUP4 ADD DUP6 PUSH2 0xFB9 JUMP JUMPDEST PUSH2 0xFE8 PUSH1 0x20 DUP4 ADD DUP5 PUSH2 0xFB9 JUMP JUMPDEST SWAP4 SWAP3 POP POP POP JUMP JUMPDEST PUSH0 DUP2 SWAP1 POP SWAP2 SWAP1 POP JUMP JUMPDEST PUSH2 0x1001 DUP2 PUSH2 0xFEF JUMP JUMPDEST DUP2 EQ PUSH2 0x100B JUMPI PUSH0 PUSH0 REVERT JUMPDEST POP JUMP JUMPDEST PUSH0 DUP2 CALLDATALOAD SWAP1 POP PUSH2 0x101C DUP2 PUSH2 0xFF8 JUMP JUMPDEST SWAP3 SWAP2 POP POP JUMP JUMPDEST PUSH0 PUSH1 0x20 DUP3 DUP5 SUB SLT ISZERO PUSH2 0x1037 JUMPI PUSH2 0x1036 PUSH2 0xE33 JUMP JUMPDEST JUMPDEST PUSH0 PUSH2 0x1044 DUP5 DUP3 DUP6 ADD PUSH2 0x100E JUMP JUMPDEST SWAP2 POP POP SWAP3 SWAP2 POP POP JUMP JUMPDEST PUSH0 DUP2 PUSH1 0x1 SIGNEXTEND SWAP1 POP SWAP2 SWAP1 POP JUMP JUMPDEST PUSH2 0x1062 DUP2 PUSH2 0x104D JUMP JUMPDEST DUP2 EQ PUSH2 0x106C JUMPI PUSH0 PUSH0 REVERT JUMPDEST POP JUMP JUMPDEST PUSH0 DUP2 CALLDATALOAD SWAP1 POP PUSH2 0x107D DUP2 PUSH2 0x1059 JUMP JUMPDEST SWAP3 SWAP2 POP POP JUMP JUMPDEST PUSH0 PUSH1 0x20 DUP3 DUP5 SUB SLT ISZERO PUSH2 0x1098 JUMPI PUSH2 0x1097 PUSH2 0xE33 JUMP JUMPDEST JUMPDEST PUSH0 PUSH2 0x10A5 DUP5 DUP3 DUP6 ADD PUSH2 0x106F JUMP JUMPDEST SWAP2 POP POP SWAP3 SWAP2 POP POP JUMP JUMPDEST PUSH0 PUSH1 0x20 DUP3 ADD SWAP1 POP PUSH2 0x10C1 PUSH0 DUP4 ADD DUP5 PUSH2 0xFB9 JUMP JUMPDEST SWAP3 SWAP2 POP POP JUMP JUMPDEST PUSH0 PUSH0 PUSH0 PUSH1 0x40 DUP5 DUP7 SUB SLT ISZERO PUSH2 0x10DE JUMPI PUSH2 0x10DD PUSH2 0xE33 JUMP JUMPDEST JUMPDEST PUSH0 PUSH2 0x10EB DUP7 DUP3 DUP8 ADD PUSH2 0xE51 JUMP JUMPDEST SWAP4 POP POP PUSH1 0x20 DUP5 ADD CALLDATALOAD PUSH8 0xFFFFFFFFFFFFFFFF DUP2 GT ISZERO PUSH2 0x110C JUMPI PUSH2 0x110B PUSH2 0xE37 JUMP JUMPDEST JUMPDEST PUSH2 0x1118 DUP7 DUP3 DUP8 ADD PUSH2 0xEC5 JUMP JUMPDEST SWAP3 POP SWAP3 POP POP SWAP3 POP SWAP3 POP SWAP3 JUMP JUMPDEST PUSH0 DUP2 SWAP1 POP SWAP2 SWAP1 POP JUMP JUMPDEST PUSH2 0x1136 DUP2 PUSH2 0x1124 JUMP JUMPDEST DUP3 MSTORE POP POP JUMP JUMPDEST PUSH0 PUSH1 0x40 DUP3 ADD SWAP1 POP PUSH2 0x114F PUSH0 DUP4 ADD DUP6 PUSH2 0x112D JUMP JUMPDEST PUSH2 0x115C PUSH1 0x20 DUP4 ADD DUP5 PUSH2 0x112D JUMP JUMPDEST SWAP4 SWAP3 POP POP POP JUMP JUMPDEST PUSH0 PUSH1 0x20 DUP3 DUP5 SUB SLT ISZERO PUSH2 0x1178 JUMPI PUSH2 0x1177 PUSH2 0xE33 JUMP JUMPDEST JUMPDEST PUSH0 PUSH2 0x1185 DUP5 DUP3 DUP6 ADD PUSH2 0xE7B JUMP JUMPDEST SWAP2 POP POP SWAP3 SWAP2 POP POP JUMP JUMPDEST PUSH0 DUP2 ISZERO ISZERO SWAP1 POP SWAP2 SWAP1 POP JUMP JUMPDEST PUSH2 0x11A2 DUP2 PUSH2 0x118E JUMP JUMPDEST DUP3 MSTORE POP POP JUMP JUMPDEST PUSH0 PUSH1 0x40 DUP3 ADD SWAP1 POP PUSH2 0x11BB PUSH0 DUP4 ADD DUP6 PUSH2 0x1199 JUMP JUMPDEST PUSH2 0x11C8 PUSH1 0x20 DUP4 ADD DUP5 PUSH2 0xDBA JUMP JUMPDEST SWAP4 SWAP3 POP POP POP JUMP JUMPDEST PUSH32 0x4E487B7100000000000000000000000000000000000000000000000000000000 PUSH0 MSTORE PUSH1 0x11 PUSH1 0x4 MSTORE PUSH1 0x24 PUSH0 REVERT JUMPDEST PUSH0 PUSH2 0x1206 DUP3 PUSH2 0xDF1 JUMP JUMPDEST SWAP2 POP PUSH32 0xFFFFFFFFFFFFFFFFFFFFFFFFFFFFFFFFFFFFFFFFFFFFFFFFFFFFFFFFFF800000 DUP3 SUB PUSH2 0x1238 JUMPI PUSH2 0x1237 PUSH2 0x11CF JUMP JUMPDEST JUMPDEST DUP2 PUSH0 SUB SWAP1 POP SWAP2 SWAP1 POP JUMP JUMPDEST PUSH0 PUSH2 0x124C DUP3 PUSH2 0xD9F JUMP JUMPDEST SWAP2 POP PUSH2 0x1257 DUP4 PUSH2 0xD9F JUMP JUMPDEST SWAP3 POP DUP3 DUP3 ADD SWAP1 POP PUSH16 0xFFFFFFFFFFFFFFFFFFFFFFFFFFFFFFFF DUP2 GT ISZERO PUSH2 0x127F JUMPI PUSH2 0x127E PUSH2 0x11CF JUMP JUMPDEST JUMPDEST SWAP3 SWAP2 POP POP JUMP JUMPDEST PUSH0 DUP3 DUP3 MSTORE PUSH1 0x20 DUP3 ADD SWAP1 POP SWAP3 SWAP2 POP POP JUMP JUMPDEST DUP3 DUP2 DUP4 CALLDATACOPY PUSH0 DUP4 DUP4 ADD MSTORE POP POP POP JUMP JUMPDEST PUSH0 PUSH1 0x1F NOT PUSH1 0x1F DUP4 ADD AND SWAP1 POP SWAP2 SWAP1 POP JUMP JUMPDEST PUSH0 PUSH2 0x12BE DUP4 DUP6 PUSH2 0x1285 JUMP JUMPDEST SWAP4 POP PUSH2 0x12CB DUP4 DUP6 DUP5 PUSH2 0x1295 JUMP JUMPDEST PUSH2 0x12D4 DUP4 PUSH2 0x12A3 JUMP JUMPDEST DUP5 ADD SWAP1 POP SWAP4 SWAP3 POP POP POP JUMP JUMPDEST PUSH0 PUSH1 0x60 DUP3 ADD SWAP1 POP PUSH2 0x12F2 PUSH0 DUP4 ADD DUP8 PUSH2 0xFB9 JUMP JUMPDEST PUSH2 0x12FF PUSH1 0x20 DUP4 ADD DUP7 PUSH2 0xFB9 JUMP JUMPDEST DUP2 DUP2 SUB PUSH1 0x40 DUP4 ADD MSTORE PUSH2 0x1312 DUP2 DUP5 DUP7 PUSH2 0x12B3 JUMP JUMPDEST SWAP1 POP SWAP6 SWAP5 POP POP POP POP POP JUMP JUMPDEST PUSH0 PUSH2 0x1327 DUP3 PUSH2 0xFB0 JUMP JUMPDEST SWAP2 POP PUSH2 0x1332 DUP4 PUSH2 0xFB0 JUMP JUMPDEST SWAP3 POP DUP3 DUP3 ADD SWAP1 POP DUP1 DUP3 GT ISZERO PUSH2 0x134A JUMPI PUSH2 0x1349 PUSH2 0x11CF JUMP JUMPDEST JUMPDEST SWAP3 SWAP2 POP POP JUMP JUMPDEST PUSH0 PUSH1 0x80 DUP3 ADD SWAP1 POP PUSH2 0x1363 PUSH0 DUP4 ADD DUP8 PUSH2 0xD77 JUMP JUMPDEST PUSH2 0x1370 PUSH1 0x20 DUP4 ADD DUP7 PUSH2 0xDBA JUMP JUMPDEST PUSH2 0x137D PUSH1 0x40 DUP4 ADD DUP6 PUSH2 0xFB9 JUMP JUMPDEST PUSH2 0x138A PUSH1 0x60 DUP4 ADD DUP5 PUSH2 0xFB9 JUMP JUMPDEST SWAP6 SWAP5 POP POP POP POP POP JUMP JUMPDEST PUSH0 PUSH2 0x139D DUP3 PUSH2 0x1124 JUMP JUMPDEST SWAP2 POP PUSH32 0x8000000000000000000000000000000000000000000000000000000000000000 DUP3 SUB PUSH2 0x13CF JUMPI PUSH2 0x13CE PUSH2 0x11CF JUMP JUMPDEST JUMPDEST DUP2 PUSH0 SUB SWAP1 POP SWAP2 SWAP1 POP JUMP JUMPDEST PUSH0 PUSH1 0x40 DUP3 ADD SWAP1 POP PUSH2 0x13EC PUSH0 DUP4 ADD DUP6 PUSH2 0xD77 JUMP JUMPDEST PUSH2 0x13F9 PUSH1 0x20 DUP4 ADD DUP5 PUSH2 0xFB9 JUMP JUMPDEST SWAP4 SWAP3 POP POP POP JUMP JUMPDEST PUSH2 0x1409 DUP2 PUSH2 0x118E JUMP JUMPDEST DUP2 EQ PUSH2 0x1413 JUMPI PUSH0 PUSH0 REVERT JUMPDEST POP JUMP JUMPDEST PUSH0 DUP2 MLOAD SWAP1 POP PUSH2 0x1424 DUP2 PUSH2 0x1400 JUMP JUMPDEST SWAP3 SWAP2 POP POP JUMP JUMPDEST PUSH0 PUSH1 0x20 DUP3 DUP5 SUB SLT ISZERO PUSH2 0x143F JUMPI PUSH2 0x143E PUSH2 0xE33 JUMP JUMPDEST JUMPDEST PUSH0 PUSH2 0x144C DUP5 DUP3 DUP6 ADD PUSH2 0x1416 JUMP JUMPDEST SWAP2 POP POP SWAP3 SWAP2 POP POP JUMP JUMPDEST PUSH0 PUSH1 0x60 DUP3 ADD SWAP1 POP PUSH2 0x1468 PUSH0 DUP4 ADD DUP8 PUSH2 0x112D JUMP JUMPDEST PUSH2 0x1475 PUSH1 0x20 DUP4 ADD DUP7 PUSH2 0x112D JUMP JUMPDEST DUP2 DUP2 SUB PUSH1 0x40 DUP4 ADD MSTORE PUSH2 0x1488 DUP2 DUP5 DUP7 PUSH2 0x12B3 JUMP JUMPDEST SWAP1 POP SWAP6 SWAP5 POP POP POP POP POP JUMP JUMPDEST PUSH0 PUSH1 0xA0 DUP3 ADD SWAP1 POP PUSH2 0x14A6 PUSH0 DUP4 ADD DUP9 PUSH2 0x112D JUMP JUMPDEST PUSH2 0x14B3 PUSH1 0x20 DUP4 ADD DUP8 PUSH2 0x112D JUMP JUMPDEST PUSH2 0x14C0 PUSH1 0x40 DUP4 ADD DUP7 PUSH2 0xDE2 JUMP JUMPDEST PUSH2 0x14CD PUSH1 0x60 DUP4 ADD DUP6 PUSH2 0xDBA JUMP JUMPDEST PUSH2 0x14DA PUSH1 0x80 DUP4 ADD DUP5 PUSH2 0xDFD JUMP JUMPDEST SWAP7 SWAP6 POP POP POP POP POP POP JUMP JUMPDEST PUSH32 0x4E487B7100000000000000000000000000000000000000000000000000000000 PUSH0 MSTORE PUSH1 0x12 PUSH1 0x4 MSTORE PUSH1 0x24 PUSH0 REVERT JUMPDEST PUSH0 PUSH2 0x151B DUP3 PUSH2 0xDF1 JUMP JUMPDEST SWAP2 POP PUSH2 0x1526 DUP4 PUSH2 0xDF1 JUMP JUMPDEST SWAP3 POP DUP3 PUSH2 0x1536 JUMPI PUSH2 0x1535 PUSH2 0x14E4 JUMP JUMPDEST JUMPDEST DUP3 DUP3 SMOD SWAP1 POP SWAP3 SWAP2 POP POP JUMP JUMPDEST PUSH0 PUSH2 0x154B DUP3 PUSH2 0xDF1 JUMP JUMPDEST SWAP2 POP PUSH2 0x1556 DUP4 PUSH2 0xDF1 JUMP JUMPDEST SWAP3 POP DUP3 PUSH2 0x1566 JUMPI PUSH2 0x1565 PUSH2 0x14E4 JUMP JUMPDEST JUMPDEST PUSH1 0x1 PUSH0 SUB DUP4 EQ PUSH32 0xFFFFFFFFFFFFFFFFFFFFFFFFFFFFFFFFFFFFFFFFFFFFFFFFFFFFFFFFFF800000 DUP4 EQ AND ISZERO PUSH2 0x159E JUMPI PUSH2 0x159D PUSH2 0x11CF JUMP JUMPDEST JUMPDEST DUP3 DUP3 SDIV SWAP1 POP SWAP3 SWAP2 POP POP JUMP JUMPDEST PUSH0 DUP2 PUSH1 0x60 SHL SWAP1 POP SWAP2 SWAP1 POP JUMP JUMPDEST PUSH0 PUSH2 0x15BF DUP3 PUSH2 0x15A9 JUMP JUMPDEST SWAP1 POP SWAP2 SWAP1 POP JUMP JUMPDEST PUSH0 PUSH2 0x15D0 DUP3 PUSH2 0x15B5 JUMP JUMPDEST SWAP1 POP SWAP2 SWAP1 POP JUMP JUMPDEST PUSH2 0x15E8 PUSH2 0x15E3 DUP3 PUSH2 0xD66 JUMP JUMPDEST PUSH2 0x15C6 JUMP JUMPDEST DUP3 MSTORE POP POP JUMP JUMPDEST PUSH0 DUP2 PUSH1 0xE8 SHL SWAP1 POP SWAP2 SWAP1 POP JUMP JUMPDEST PUSH0 PUSH2 0x1604 DUP3 PUSH2 0x15EE JUMP JUMPDEST SWAP1 POP SWAP2 SWAP1 POP JUMP JUMPDEST PUSH2 0x161C PUSH2 0x1617 DUP3 PUSH2 0xDF1 JUMP JUMPDEST PUSH2 0x15FA JUMP JUMPDEST DUP3 MSTORE POP POP JUMP JUMPDEST PUSH0 PUSH2 0x162D DUP3 DUP7 PUSH2 0x15D7 JUMP JUMPDEST PUSH1 0x14 DUP3 ADD SWAP2 POP PUSH2 0x163D DUP3 DUP6 PUSH2 0x160B JUMP JUMPDEST PUSH1 0x3 DUP3 ADD SWAP2 POP PUSH2 0x164D DUP3 DUP5 PUSH2 0x160B JUMP JUMPDEST PUSH1 0x3 DUP3 ADD SWAP2 POP DUP2 SWAP1 POP SWAP5 SWAP4 POP POP POP POP JUMP JUMPDEST PUSH2 0x1667 DUP2 PUSH2 0xFB0 JUMP JUMPDEST DUP2 EQ PUSH2 0x1671 JUMPI PUSH0 PUSH0 REVERT JUMPDEST POP JUMP JUMPDEST PUSH0 DUP2 MLOAD SWAP1 POP PUSH2 0x1682 DUP2 PUSH2 0x165E JUMP JUMPDEST SWAP3 SWAP2 POP POP JUMP JUMPDEST PUSH0 PUSH1 0x20 DUP3 DUP5 SUB SLT ISZERO PUSH2 0x169D JUMPI PUSH2 0x169C PUSH2 0xE33 JUMP JUMPDEST JUMPDEST PUSH0 PUSH2 0x16AA DUP5 DUP3 DUP6 ADD PUSH2 0x1674 JUMP JUMPDEST SWAP2 POP POP SWAP3 SWAP2 POP POP JUMP INVALID LOG2 PUSH5 0x6970667358 0x22 SLT KECCAK256 SLOAD DUP16 LT GT PUSH27 0xC320C92447CF5B9E5BBF4EEBEE36430BDF9F9664BA1542D0FA9E9E PUSH5 0x736F6C6343 STOP ADDMOD 0x1E STOP CALLER "
				},
				"gasEstimates": {
					"creation": {
						"codeDepositCost": "1173000",
						"executionCost": "infinite",
						"totalCost": "infinite"
					},
					"external": {
						"liquidity()": "2489",
						"mint(address,int24,int24,uint128,bytes)": "infinite",
						"positions(bytes32)": "2808",
						"slot0()": "4829",
						"swap(address,bytes)": "infinite",
						"tickBitmap(int16)": "2784",
						"ticks(int24)": "5206",
						"token0()": "infinite",
						"token1()": "infinite"
					},
					"internal": {
						"balance0()": "infinite",
						"balance1()": "infinite"
					}
				},
				"methodIdentifiers": {
					"liquidity()": "1a686502",
					"mint(address,int24,int24,uint128,bytes)": "3c8a7d8d",
					"positions(bytes32)": "514ea4bf",
					"slot0()": "3850c7bd",
					"swap(address,bytes)": "e3547335",
					"tickBitmap(int16)": "5339c296",
					"ticks(int24)": "f30dba93",
					"token0()": "0dfe1681",
					"token1()": "d21220a7"
				}
			},
			"storageLayout": {
				"storage": [
					{
						"astId": 57,
						"contract": "src/UniswapV3Pool.sol:UniswapV3Pool",
						"label": "slot0",
						"offset": 0,
						"slot": "0",
						"type": "t_struct(Slot0)54_storage"
					},
					{
						"astId": 59,
						"contract": "src/UniswapV3Pool.sol:UniswapV3Pool",
						"label": "liquidity",
						"offset": 0,
						"slot": "1",
						"type": "t_uint128"
					},
					{
						"astId": 64,
						"contract": "src/UniswapV3Pool.sol:UniswapV3Pool",
						"label": "ticks",
						"offset": 0,
						"slot": "2",
						"type": "t_mapping(t_int24,t_struct(Info)980_storage)"
					},
					{
						"astId": 68,
						"contract": "src/UniswapV3Pool.sol:UniswapV3Pool",
						"label": "tickBitmap",
						"offset": 0,
						"slot": "3",
						"type": "t_mapping(t_int16,t_uint256)"
					},
					{
						"astId": 73,
						"contract": "src/UniswapV3Pool.sol:UniswapV3Pool",
						"label": "positions",
						"offset": 0,
						"slot": "4",
						"type": "t_mapping(t_bytes32,t_struct(Info)915_storage)"
					}
				],
				"types": {
					"t_bool": {
						"encoding": "inplace",
						"label": "bool",
						"numberOfBytes": "1"
					},
					"t_bytes32": {
						"encoding": "inplace",
						"label": "bytes32",
						"numberOfBytes": "32"
					},
					"t_int16": {
						"encoding": "inplace",
						"label": "int16",
						"numberOfBytes": "2"
					},
					"t_int24": {
						"encoding": "inplace",
						"label": "int24",
						"numberOfBytes": "3"
					},
					"t_mapping(t_bytes32,t_struct(Info)915_storage)": {
						"encoding": "mapping",
						"key": "t_bytes32",
						"label": "mapping(bytes32 => struct Position.Info)",
						"numberOfBytes": "32",
						"value": "t_struct(Info)915_storage"
					},
					"t_mapping(t_int16,t_uint256)": {
						"encoding": "mapping",
						"key": "t_int16",
						"label": "mapping(int16 => uint256)",
						"numberOfBytes": "32",
						"value": "t_uint256"
					},
					"t_mapping(t_int24,t_struct(Info)980_storage)": {
						"encoding": "mapping",
						"key": "t_int24",
						"label": "mapping(int24 => struct Tick.Info)",
						"numberOfBytes": "32",
						"value": "t_struct(Info)980_storage"
					},
					"t_struct(Info)915_storage": {
						"encoding": "inplace",
						"label": "struct Position.Info",
						"members": [
							{
								"astId": 914,
								"contract": "src/UniswapV3Pool.sol:UniswapV3Pool",
								"label": "liquidity",
								"offset": 0,
								"slot": "0",
								"type": "t_uint128"
							}
						],
						"numberOfBytes": "32"
					},
					"t_struct(Info)980_storage": {
						"encoding": "inplace",
						"label": "struct Tick.Info",
						"members": [
							{
								"astId": 977,
								"contract": "src/UniswapV3Pool.sol:UniswapV3Pool",
								"label": "initialized",
								"offset": 0,
								"slot": "0",
								"type": "t_bool"
							},
							{
								"astId": 979,
								"contract": "src/UniswapV3Pool.sol:UniswapV3Pool",
								"label": "liquidity",
								"offset": 1,
								"slot": "0",
								"type": "t_uint128"
							}
						],
						"numberOfBytes": "32"
					},
					"t_struct(Slot0)54_storage": {
						"encoding": "inplace",
						"label": "struct UniswapV3Pool.Slot0",
						"members": [
							{
								"astId": 51,
								"contract": "src/UniswapV3Pool.sol:UniswapV3Pool",
								"label": "sqrtPriceX96",
								"offset": 0,
								"slot": "0",
								"type": "t_uint160"
							},
							{
								"astId": 53,
								"contract": "src/UniswapV3Pool.sol:UniswapV3Pool",
								"label": "tick",
								"offset": 20,
								"slot": "0",
								"type": "t_int24"
							}
						],
						"numberOfBytes": "32"
					},
					"t_uint128": {
						"encoding": "inplace",
						"label": "uint128",
						"numberOfBytes": "16"
					},
					"t_uint160": {
						"encoding": "inplace",
						"label": "uint160",
						"numberOfBytes": "20"
					},
					"t_uint256": {
						"encoding": "inplace",
						"label": "uint256",
						"numberOfBytes": "32"
					}
				}
			},
			"userdoc": {
				"events": {
					"Burn(address,int24,int24,uint128,uint256,uint256)": {
						"notice": "Emitted when a position's liquidity is removed"
					},
					"Collect(address,address,int24,int24,uint128,uint128)": {
						"notice": "Emitted when fees are collected by the owner of a position"
					},
					"CollectProtocol(address,address,uint128,uint128)": {
						"notice": "Emitted when the collected protocol fees are withdrawn by the factory owner"
					},
					"Flash(address,address,uint256,uint256,uint256,uint256)": {
						"notice": "Emitted by the pool for any flashes of token0/token1"
					},
					"IncreaseObservationCardinalityNext(uint16,uint16)": {
						"notice": "Emitted by the pool for increases to the number of observations that can be stored"
					},
					"Initialize(uint160,int24)": {
						"notice": "Emitted exactly once by a pool when #initialize is first called on the pool"
					},
					"Mint(address,address,int24,int24,uint128,uint256,uint256)": {
						"notice": "Emitted when liquidity is minted for a given position"
					},
					"SetFeeProtocol(uint8,uint8,uint8,uint8)": {
						"notice": "Emitted when the protocol fee is changed by the pool"
					},
					"Swap(address,address,int256,int256,uint160,uint128,int24)": {
						"notice": "Emitted by the pool for any swaps between token0 and token1"
					}
				},
				"kind": "user",
				"methods": {},
				"version": 1
			}
		}
	}
}