{
	"src/UniswapV3Pool.sol": {
		"UniswapV3Pool": {
			"abi": [
				{
					"inputs": [
						{
							"internalType": "address",
							"name": "token0_",
							"type": "address"
						},
						{
							"internalType": "address",
							"name": "token1_",
							"type": "address"
						},
						{
							"internalType": "uint160",
							"name": "sqrtPriceX96",
							"type": "uint160"
						},
						{
							"internalType": "int24",
							"name": "tick",
							"type": "int24"
						}
					],
					"stateMutability": "nonpayable",
					"type": "constructor"
				},
				{
					"inputs": [],
					"name": "InsufficientInputAmount",
					"type": "error"
				},
				{
					"inputs": [],
					"name": "InvalidTickRange",
					"type": "error"
				},
				{
					"inputs": [],
					"name": "ZeroLiquidity",
					"type": "error"
				},
				{
					"anonymous": false,
					"inputs": [
						{
							"indexed": true,
							"internalType": "address",
							"name": "owner",
							"type": "address"
						},
						{
							"indexed": true,
							"internalType": "int24",
							"name": "tickLower",
							"type": "int24"
						},
						{
							"indexed": true,
							"internalType": "int24",
							"name": "tickUpper",
							"type": "int24"
						},
						{
							"indexed": false,
							"internalType": "uint128",
							"name": "amount",
							"type": "uint128"
						},
						{
							"indexed": false,
							"internalType": "uint256",
							"name": "amount0",
							"type": "uint256"
						},
						{
							"indexed": false,
							"internalType": "uint256",
							"name": "amount1",
							"type": "uint256"
						}
					],
					"name": "Burn",
					"type": "event"
				},
				{
					"anonymous": false,
					"inputs": [
						{
							"indexed": true,
							"internalType": "address",
							"name": "owner",
							"type": "address"
						},
						{
							"indexed": false,
							"internalType": "address",
							"name": "recipient",
							"type": "address"
						},
						{
							"indexed": true,
							"internalType": "int24",
							"name": "tickLower",
							"type": "int24"
						},
						{
							"indexed": true,
							"internalType": "int24",
							"name": "tickUpper",
							"type": "int24"
						},
						{
							"indexed": false,
							"internalType": "uint128",
							"name": "amount0",
							"type": "uint128"
						},
						{
							"indexed": false,
							"internalType": "uint128",
							"name": "amount1",
							"type": "uint128"
						}
					],
					"name": "Collect",
					"type": "event"
				},
				{
					"anonymous": false,
					"inputs": [
						{
							"indexed": true,
							"internalType": "address",
							"name": "sender",
							"type": "address"
						},
						{
							"indexed": true,
							"internalType": "address",
							"name": "recipient",
							"type": "address"
						},
						{
							"indexed": false,
							"internalType": "uint128",
							"name": "amount0",
							"type": "uint128"
						},
						{
							"indexed": false,
							"internalType": "uint128",
							"name": "amount1",
							"type": "uint128"
						}
					],
					"name": "CollectProtocol",
					"type": "event"
				},
				{
					"anonymous": false,
					"inputs": [
						{
							"indexed": true,
							"internalType": "address",
							"name": "sender",
							"type": "address"
						},
						{
							"indexed": true,
							"internalType": "address",
							"name": "recipient",
							"type": "address"
						},
						{
							"indexed": false,
							"internalType": "uint256",
							"name": "amount0",
							"type": "uint256"
						},
						{
							"indexed": false,
							"internalType": "uint256",
							"name": "amount1",
							"type": "uint256"
						},
						{
							"indexed": false,
							"internalType": "uint256",
							"name": "paid0",
							"type": "uint256"
						},
						{
							"indexed": false,
							"internalType": "uint256",
							"name": "paid1",
							"type": "uint256"
						}
					],
					"name": "Flash",
					"type": "event"
				},
				{
					"anonymous": false,
					"inputs": [
						{
							"indexed": false,
							"internalType": "uint16",
							"name": "observationCardinalityNextOld",
							"type": "uint16"
						},
						{
							"indexed": false,
							"internalType": "uint16",
							"name": "observationCardinalityNextNew",
							"type": "uint16"
						}
					],
					"name": "IncreaseObservationCardinalityNext",
					"type": "event"
				},
				{
					"anonymous": false,
					"inputs": [
						{
							"indexed": false,
							"internalType": "uint160",
							"name": "sqrtPriceX96",
							"type": "uint160"
						},
						{
							"indexed": false,
							"internalType": "int24",
							"name": "tick",
							"type": "int24"
						}
					],
					"name": "Initialize",
					"type": "event"
				},
				{
					"anonymous": false,
					"inputs": [
						{
							"indexed": false,
							"internalType": "address",
							"name": "sender",
							"type": "address"
						},
						{
							"indexed": true,
							"internalType": "address",
							"name": "owner",
							"type": "address"
						},
						{
							"indexed": true,
							"internalType": "int24",
							"name": "tickLower",
							"type": "int24"
						},
						{
							"indexed": true,
							"internalType": "int24",
							"name": "tickUpper",
							"type": "int24"
						},
						{
							"indexed": false,
							"internalType": "uint128",
							"name": "amount",
							"type": "uint128"
						},
						{
							"indexed": false,
							"internalType": "uint256",
							"name": "amount0",
							"type": "uint256"
						},
						{
							"indexed": false,
							"internalType": "uint256",
							"name": "amount1",
							"type": "uint256"
						}
					],
					"name": "Mint",
					"type": "event"
				},
				{
					"anonymous": false,
					"inputs": [
						{
							"indexed": false,
							"internalType": "uint8",
							"name": "feeProtocol0Old",
							"type": "uint8"
						},
						{
							"indexed": false,
							"internalType": "uint8",
							"name": "feeProtocol1Old",
							"type": "uint8"
						},
						{
							"indexed": false,
							"internalType": "uint8",
							"name": "feeProtocol0New",
							"type": "uint8"
						},
						{
							"indexed": false,
							"internalType": "uint8",
							"name": "feeProtocol1New",
							"type": "uint8"
						}
					],
					"name": "SetFeeProtocol",
					"type": "event"
				},
				{
					"anonymous": false,
					"inputs": [
						{
							"indexed": true,
							"internalType": "address",
							"name": "sender",
							"type": "address"
						},
						{
							"indexed": true,
							"internalType": "address",
							"name": "recipient",
							"type": "address"
						},
						{
							"indexed": false,
							"internalType": "int256",
							"name": "amount0",
							"type": "int256"
						},
						{
							"indexed": false,
							"internalType": "int256",
							"name": "amount1",
							"type": "int256"
						},
						{
							"indexed": false,
							"internalType": "uint160",
							"name": "sqrtPriceX96",
							"type": "uint160"
						},
						{
							"indexed": false,
							"internalType": "uint128",
							"name": "liquidity",
							"type": "uint128"
						},
						{
							"indexed": false,
							"internalType": "int24",
							"name": "tick",
							"type": "int24"
						}
					],
					"name": "Swap",
					"type": "event"
				},
				{
					"inputs": [],
					"name": "liquidity",
					"outputs": [
						{
							"internalType": "uint128",
							"name": "",
							"type": "uint128"
						}
					],
					"stateMutability": "view",
					"type": "function"
				},
				{
					"inputs": [
						{
							"internalType": "address",
							"name": "owner",
							"type": "address"
						},
						{
							"internalType": "int24",
							"name": "lowerTick",
							"type": "int24"
						},
						{
							"internalType": "int24",
							"name": "upperTick",
							"type": "int24"
						},
						{
							"internalType": "uint128",
							"name": "amount",
							"type": "uint128"
						},
						{
							"internalType": "bytes",
							"name": "data",
							"type": "bytes"
						}
					],
					"name": "mint",
					"outputs": [
						{
							"internalType": "uint256",
							"name": "amount0",
							"type": "uint256"
						},
						{
							"internalType": "uint256",
							"name": "amount1",
							"type": "uint256"
						}
					],
					"stateMutability": "nonpayable",
					"type": "function"
				},
				{
					"inputs": [
						{
							"internalType": "bytes32",
							"name": "",
							"type": "bytes32"
						}
					],
					"name": "positions",
					"outputs": [
						{
							"internalType": "uint128",
							"name": "liquidity",
							"type": "uint128"
						}
					],
					"stateMutability": "view",
					"type": "function"
				},
				{
					"inputs": [],
					"name": "slot0",
					"outputs": [
						{
							"internalType": "uint160",
							"name": "sqrtPriceX96",
							"type": "uint160"
						},
						{
							"internalType": "int24",
							"name": "tick",
							"type": "int24"
						}
					],
					"stateMutability": "view",
					"type": "function"
				},
				{
					"inputs": [
						{
							"internalType": "address",
							"name": "recipient",
							"type": "address"
						},
						{
							"internalType": "bool",
							"name": "zeroForOne",
							"type": "bool"
						},
						{
							"internalType": "uint256",
							"name": "amountSpecified",
							"type": "uint256"
						},
						{
							"internalType": "bytes",
							"name": "data",
							"type": "bytes"
						}
					],
					"name": "swap",
					"outputs": [
						{
							"internalType": "int256",
							"name": "amount0",
							"type": "int256"
						},
						{
							"internalType": "int256",
							"name": "amount1",
							"type": "int256"
						}
					],
					"stateMutability": "nonpayable",
					"type": "function"
				},
				{
					"inputs": [
						{
							"internalType": "int16",
							"name": "",
							"type": "int16"
						}
					],
					"name": "tickBitmap",
					"outputs": [
						{
							"internalType": "uint256",
							"name": "",
							"type": "uint256"
						}
					],
					"stateMutability": "view",
					"type": "function"
				},
				{
					"inputs": [
						{
							"internalType": "int24",
							"name": "",
							"type": "int24"
						}
					],
					"name": "ticks",
					"outputs": [
						{
							"internalType": "bool",
							"name": "initialized",
							"type": "bool"
						},
						{
							"internalType": "uint128",
							"name": "liquidity",
							"type": "uint128"
						}
					],
					"stateMutability": "view",
					"type": "function"
				},
				{
					"inputs": [],
					"name": "token0",
					"outputs": [
						{
							"internalType": "address",
							"name": "",
							"type": "address"
						}
					],
					"stateMutability": "view",
					"type": "function"
				},
				{
					"inputs": [],
					"name": "token1",
					"outputs": [
						{
							"internalType": "address",
							"name": "",
							"type": "address"
						}
					],
					"stateMutability": "view",
					"type": "function"
				}
			],
			"devdoc": {
				"events": {
					"Burn(address,int24,int24,uint128,uint256,uint256)": {
						"details": "Does not withdraw any fees earned by the liquidity position, which must be withdrawn via #collect",
						"params": {
							"amount": "The amount of liquidity to remove",
							"amount0": "The amount of token0 withdrawn",
							"amount1": "The amount of token1 withdrawn",
							"owner": "The owner of the position for which liquidity is removed",
							"tickLower": "The lower tick of the position",
							"tickUpper": "The upper tick of the position"
						}
					},
					"Collect(address,address,int24,int24,uint128,uint128)": {
						"details": "Collect events may be emitted with zero amount0 and amount1 when the caller chooses not to collect fees",
						"params": {
							"amount0": "The amount of token0 fees collected",
							"amount1": "The amount of token1 fees collected",
							"owner": "The owner of the position for which fees are collected",
							"tickLower": "The lower tick of the position",
							"tickUpper": "The upper tick of the position"
						}
					},
					"CollectProtocol(address,address,uint128,uint128)": {
						"params": {
							"amount0": "The amount of token1 protocol fees that is withdrawn",
							"recipient": "The address that receives the collected protocol fees",
							"sender": "The address that collects the protocol fees"
						}
					},
					"Flash(address,address,uint256,uint256,uint256,uint256)": {
						"params": {
							"amount0": "The amount of token0 that was flashed",
							"amount1": "The amount of token1 that was flashed",
							"paid0": "The amount of token0 paid for the flash, which can exceed the amount0 plus the fee",
							"paid1": "The amount of token1 paid for the flash, which can exceed the amount1 plus the fee",
							"recipient": "The address that received the tokens from flash",
							"sender": "The address that initiated the swap call, and that received the callback"
						}
					},
					"IncreaseObservationCardinalityNext(uint16,uint16)": {
						"details": "observationCardinalityNext is not the observation cardinality until an observation is written at the index just before a mint/swap/burn.",
						"params": {
							"observationCardinalityNextNew": "The updated value of the next observation cardinality",
							"observationCardinalityNextOld": "The previous value of the next observation cardinality"
						}
					},
					"Initialize(uint160,int24)": {
						"details": "Mint/Burn/Swap cannot be emitted by the pool before Initialize",
						"params": {
							"sqrtPriceX96": "The initial sqrt price of the pool, as a Q64.96",
							"tick": "The initial tick of the pool, i.e. log base 1.0001 of the starting price of the pool"
						}
					},
					"Mint(address,address,int24,int24,uint128,uint256,uint256)": {
						"params": {
							"amount": "The amount of liquidity minted to the position range",
							"amount0": "How much token0 was required for the minted liquidity",
							"amount1": "How much token1 was required for the minted liquidity",
							"owner": "The owner of the position and recipient of any minted liquidity",
							"sender": "The address that minted the liquidity",
							"tickLower": "The lower tick of the position",
							"tickUpper": "The upper tick of the position"
						}
					},
					"SetFeeProtocol(uint8,uint8,uint8,uint8)": {
						"params": {
							"feeProtocol0New": "The updated value of the token0 protocol fee",
							"feeProtocol0Old": "The previous value of the token0 protocol fee",
							"feeProtocol1New": "The updated value of the token1 protocol fee",
							"feeProtocol1Old": "The previous value of the token1 protocol fee"
						}
					},
					"Swap(address,address,int256,int256,uint160,uint128,int24)": {
						"params": {
							"amount0": "The delta of the token0 balance of the pool",
							"amount1": "The delta of the token1 balance of the pool",
							"liquidity": "The liquidity of the pool after the swap",
							"recipient": "The address that received the output of the swap",
							"sender": "The address that initiated the swap call, and that received the callback",
							"sqrtPriceX96": "The sqrt(price) of the pool after the swap, as a Q64.96",
							"tick": "The log base 1.0001 of price of the pool after the swap"
						}
					}
				},
				"kind": "dev",
				"methods": {},
				"version": 1
			},
			"evm": {
				"assembly": "    /* \"src/UniswapV3Pool.sol\":446:8170  contract UniswapV3Pool is ... */\n  mstore(0x40, 0xc0)\n    /* \"src/UniswapV3Pool.sol\":1864:2137  constructor(... */\n  callvalue\n  dup1\n  iszero\n  tag_1\n  jumpi\n  revert(0x00, 0x00)\ntag_1:\n  pop\n  mload(0x40)\n  sub(codesize, bytecodeSize)\n  dup1\n  bytecodeSize\n  dup4\n  codecopy\n  dup2\n  dup2\n  add\n  0x40\n  mstore\n  dup2\n  add\n  swap1\n  tag_2\n  swap2\n  swap1\n  tag_3\n  jump\t// in\ntag_2:\n    /* \"src/UniswapV3Pool.sol\":2029:2036  token0_ */\n  dup4\n    /* \"src/UniswapV3Pool.sol\":2020:2036  token0 = token0_ */\n  0xffffffffffffffffffffffffffffffffffffffff\n  and\n  0x80\n  dup2\n  0xffffffffffffffffffffffffffffffffffffffff\n  and\n  dup2\n  mstore\n  pop\n  pop\n    /* \"src/UniswapV3Pool.sol\":2056:2063  token1_ */\n  dup3\n    /* \"src/UniswapV3Pool.sol\":2047:2063  token1 = token1_ */\n  0xffffffffffffffffffffffffffffffffffffffff\n  and\n  0xa0\n  dup2\n  0xffffffffffffffffffffffffffffffffffffffff\n  and\n  dup2\n  mstore\n  pop\n  pop\n    /* \"src/UniswapV3Pool.sol\":2082:2129  Slot0({sqrtPriceX96: sqrtPriceX96, tick: tick}) */\n  mload(0x40)\n  dup1\n  0x40\n  add\n  0x40\n  mstore\n  dup1\n    /* \"src/UniswapV3Pool.sol\":2103:2115  sqrtPriceX96 */\n  dup4\n    /* \"src/UniswapV3Pool.sol\":2082:2129  Slot0({sqrtPriceX96: sqrtPriceX96, tick: tick}) */\n  0xffffffffffffffffffffffffffffffffffffffff\n  and\n  dup2\n  mstore\n  0x20\n  add\n    /* \"src/UniswapV3Pool.sol\":2123:2127  tick */\n  dup3\n    /* \"src/UniswapV3Pool.sol\":2082:2129  Slot0({sqrtPriceX96: sqrtPriceX96, tick: tick}) */\n  0x02\n  signextend\n  dup2\n  mstore\n  pop\n    /* \"src/UniswapV3Pool.sol\":2074:2079  slot0 */\n  0x00\n    /* \"src/UniswapV3Pool.sol\":2074:2129  slot0 = Slot0({sqrtPriceX96: sqrtPriceX96, tick: tick}) */\n  0x00\n  dup3\n  add\n  mload\n  dup2\n  0x00\n  add\n  exp(0x0100, 0x00)\n  dup2\n  sload\n  dup2\n  0xffffffffffffffffffffffffffffffffffffffff\n  mul\n  not\n  and\n  swap1\n  dup4\n  0xffffffffffffffffffffffffffffffffffffffff\n  and\n  mul\n  or\n  swap1\n  sstore\n  pop\n  0x20\n  dup3\n  add\n  mload\n  dup2\n  0x00\n  add\n  exp(0x0100, 0x14)\n  dup2\n  sload\n  dup2\n  0xffffff\n  mul\n  not\n  and\n  swap1\n  dup4\n  0x02\n  signextend\n  0xffffff\n  and\n  mul\n  or\n  swap1\n  sstore\n  pop\n  swap1\n  pop\n  pop\n    /* \"src/UniswapV3Pool.sol\":1864:2137  constructor(... */\n  pop\n  pop\n  pop\n  pop\n    /* \"src/UniswapV3Pool.sol\":446:8170  contract UniswapV3Pool is ... */\n  jump(tag_6)\n    /* \"#utility.yul\":88:205   */\ntag_8:\n    /* \"#utility.yul\":197:198   */\n  0x00\n    /* \"#utility.yul\":194:195   */\n  0x00\n    /* \"#utility.yul\":187:199   */\n  revert\n    /* \"#utility.yul\":334:460   */\ntag_10:\n    /* \"#utility.yul\":371:378   */\n  0x00\n    /* \"#utility.yul\":411:453   */\n  0xffffffffffffffffffffffffffffffffffffffff\n    /* \"#utility.yul\":404:409   */\n  dup3\n    /* \"#utility.yul\":400:454   */\n  and\n    /* \"#utility.yul\":389:454   */\n  swap1\n  pop\n    /* \"#utility.yul\":334:460   */\n  swap2\n  swap1\n  pop\n  jump\t// out\n    /* \"#utility.yul\":466:562   */\ntag_11:\n    /* \"#utility.yul\":503:510   */\n  0x00\n    /* \"#utility.yul\":532:556   */\n  tag_25\n    /* \"#utility.yul\":550:555   */\n  dup3\n    /* \"#utility.yul\":532:556   */\n  tag_10\n  jump\t// in\ntag_25:\n    /* \"#utility.yul\":521:556   */\n  swap1\n  pop\n    /* \"#utility.yul\":466:562   */\n  swap2\n  swap1\n  pop\n  jump\t// out\n    /* \"#utility.yul\":568:690   */\ntag_12:\n    /* \"#utility.yul\":641:665   */\n  tag_27\n    /* \"#utility.yul\":659:664   */\n  dup2\n    /* \"#utility.yul\":641:665   */\n  tag_11\n  jump\t// in\ntag_27:\n    /* \"#utility.yul\":634:639   */\n  dup2\n    /* \"#utility.yul\":631:666   */\n  eq\n    /* \"#utility.yul\":621:684   */\n  tag_28\n  jumpi\n    /* \"#utility.yul\":680:681   */\n  0x00\n    /* \"#utility.yul\":677:678   */\n  0x00\n    /* \"#utility.yul\":670:682   */\n  revert\n    /* \"#utility.yul\":621:684   */\ntag_28:\n    /* \"#utility.yul\":568:690   */\n  pop\n  jump\t// out\n    /* \"#utility.yul\":696:839   */\ntag_13:\n    /* \"#utility.yul\":753:758   */\n  0x00\n    /* \"#utility.yul\":784:790   */\n  dup2\n    /* \"#utility.yul\":778:791   */\n  mload\n    /* \"#utility.yul\":769:791   */\n  swap1\n  pop\n    /* \"#utility.yul\":800:833   */\n  tag_30\n    /* \"#utility.yul\":827:832   */\n  dup2\n    /* \"#utility.yul\":800:833   */\n  tag_12\n  jump\t// in\ntag_30:\n    /* \"#utility.yul\":696:839   */\n  swap3\n  swap2\n  pop\n  pop\n  jump\t// out\n    /* \"#utility.yul\":845:967   */\ntag_14:\n    /* \"#utility.yul\":918:942   */\n  tag_32\n    /* \"#utility.yul\":936:941   */\n  dup2\n    /* \"#utility.yul\":918:942   */\n  tag_10\n  jump\t// in\ntag_32:\n    /* \"#utility.yul\":911:916   */\n  dup2\n    /* \"#utility.yul\":908:943   */\n  eq\n    /* \"#utility.yul\":898:961   */\n  tag_33\n  jumpi\n    /* \"#utility.yul\":957:958   */\n  0x00\n    /* \"#utility.yul\":954:955   */\n  0x00\n    /* \"#utility.yul\":947:959   */\n  revert\n    /* \"#utility.yul\":898:961   */\ntag_33:\n    /* \"#utility.yul\":845:967   */\n  pop\n  jump\t// out\n    /* \"#utility.yul\":973:1116   */\ntag_15:\n    /* \"#utility.yul\":1030:1035   */\n  0x00\n    /* \"#utility.yul\":1061:1067   */\n  dup2\n    /* \"#utility.yul\":1055:1068   */\n  mload\n    /* \"#utility.yul\":1046:1068   */\n  swap1\n  pop\n    /* \"#utility.yul\":1077:1110   */\n  tag_35\n    /* \"#utility.yul\":1104:1109   */\n  dup2\n    /* \"#utility.yul\":1077:1110   */\n  tag_14\n  jump\t// in\ntag_35:\n    /* \"#utility.yul\":973:1116   */\n  swap3\n  swap2\n  pop\n  pop\n  jump\t// out\n    /* \"#utility.yul\":1122:1212   */\ntag_16:\n    /* \"#utility.yul\":1157:1164   */\n  0x00\n    /* \"#utility.yul\":1200:1205   */\n  dup2\n    /* \"#utility.yul\":1197:1198   */\n  0x02\n    /* \"#utility.yul\":1186:1206   */\n  signextend\n    /* \"#utility.yul\":1175:1206   */\n  swap1\n  pop\n    /* \"#utility.yul\":1122:1212   */\n  swap2\n  swap1\n  pop\n  jump\t// out\n    /* \"#utility.yul\":1218:1336   */\ntag_17:\n    /* \"#utility.yul\":1289:1311   */\n  tag_38\n    /* \"#utility.yul\":1305:1310   */\n  dup2\n    /* \"#utility.yul\":1289:1311   */\n  tag_16\n  jump\t// in\ntag_38:\n    /* \"#utility.yul\":1282:1287   */\n  dup2\n    /* \"#utility.yul\":1279:1312   */\n  eq\n    /* \"#utility.yul\":1269:1330   */\n  tag_39\n  jumpi\n    /* \"#utility.yul\":1326:1327   */\n  0x00\n    /* \"#utility.yul\":1323:1324   */\n  0x00\n    /* \"#utility.yul\":1316:1328   */\n  revert\n    /* \"#utility.yul\":1269:1330   */\ntag_39:\n    /* \"#utility.yul\":1218:1336   */\n  pop\n  jump\t// out\n    /* \"#utility.yul\":1342:1481   */\ntag_18:\n    /* \"#utility.yul\":1397:1402   */\n  0x00\n    /* \"#utility.yul\":1428:1434   */\n  dup2\n    /* \"#utility.yul\":1422:1435   */\n  mload\n    /* \"#utility.yul\":1413:1435   */\n  swap1\n  pop\n    /* \"#utility.yul\":1444:1475   */\n  tag_41\n    /* \"#utility.yul\":1469:1474   */\n  dup2\n    /* \"#utility.yul\":1444:1475   */\n  tag_17\n  jump\t// in\ntag_41:\n    /* \"#utility.yul\":1342:1481   */\n  swap3\n  swap2\n  pop\n  pop\n  jump\t// out\n    /* \"#utility.yul\":1487:2303   */\ntag_3:\n    /* \"#utility.yul\":1582:1588   */\n  0x00\n    /* \"#utility.yul\":1590:1596   */\n  0x00\n    /* \"#utility.yul\":1598:1604   */\n  0x00\n    /* \"#utility.yul\":1606:1612   */\n  0x00\n    /* \"#utility.yul\":1655:1658   */\n  0x80\n    /* \"#utility.yul\":1643:1652   */\n  dup6\n    /* \"#utility.yul\":1634:1641   */\n  dup8\n    /* \"#utility.yul\":1630:1653   */\n  sub\n    /* \"#utility.yul\":1626:1659   */\n  slt\n    /* \"#utility.yul\":1623:1743   */\n  iszero\n  tag_43\n  jumpi\n    /* \"#utility.yul\":1662:1741   */\n  tag_44\n  tag_8\n  jump\t// in\ntag_44:\n    /* \"#utility.yul\":1623:1743   */\ntag_43:\n    /* \"#utility.yul\":1782:1783   */\n  0x00\n    /* \"#utility.yul\":1807:1871   */\n  tag_45\n    /* \"#utility.yul\":1863:1870   */\n  dup8\n    /* \"#utility.yul\":1854:1860   */\n  dup3\n    /* \"#utility.yul\":1843:1852   */\n  dup9\n    /* \"#utility.yul\":1839:1861   */\n  add\n    /* \"#utility.yul\":1807:1871   */\n  tag_13\n  jump\t// in\ntag_45:\n    /* \"#utility.yul\":1797:1871   */\n  swap5\n  pop\n    /* \"#utility.yul\":1753:1881   */\n  pop\n    /* \"#utility.yul\":1920:1922   */\n  0x20\n    /* \"#utility.yul\":1946:2010   */\n  tag_46\n    /* \"#utility.yul\":2002:2009   */\n  dup8\n    /* \"#utility.yul\":1993:1999   */\n  dup3\n    /* \"#utility.yul\":1982:1991   */\n  dup9\n    /* \"#utility.yul\":1978:2000   */\n  add\n    /* \"#utility.yul\":1946:2010   */\n  tag_13\n  jump\t// in\ntag_46:\n    /* \"#utility.yul\":1936:2010   */\n  swap4\n  pop\n    /* \"#utility.yul\":1891:2020   */\n  pop\n    /* \"#utility.yul\":2059:2061   */\n  0x40\n    /* \"#utility.yul\":2085:2149   */\n  tag_47\n    /* \"#utility.yul\":2141:2148   */\n  dup8\n    /* \"#utility.yul\":2132:2138   */\n  dup3\n    /* \"#utility.yul\":2121:2130   */\n  dup9\n    /* \"#utility.yul\":2117:2139   */\n  add\n    /* \"#utility.yul\":2085:2149   */\n  tag_15\n  jump\t// in\ntag_47:\n    /* \"#utility.yul\":2075:2149   */\n  swap3\n  pop\n    /* \"#utility.yul\":2030:2159   */\n  pop\n    /* \"#utility.yul\":2198:2200   */\n  0x60\n    /* \"#utility.yul\":2224:2286   */\n  tag_48\n    /* \"#utility.yul\":2278:2285   */\n  dup8\n    /* \"#utility.yul\":2269:2275   */\n  dup3\n    /* \"#utility.yul\":2258:2267   */\n  dup9\n    /* \"#utility.yul\":2254:2276   */\n  add\n    /* \"#utility.yul\":2224:2286   */\n  tag_18\n  jump\t// in\ntag_48:\n    /* \"#utility.yul\":2214:2286   */\n  swap2\n  pop\n    /* \"#utility.yul\":2169:2296   */\n  pop\n    /* \"#utility.yul\":1487:2303   */\n  swap3\n  swap6\n  swap2\n  swap5\n  pop\n  swap3\n  pop\n  jump\t// out\n    /* \"src/UniswapV3Pool.sol\":446:8170  contract UniswapV3Pool is ... */\ntag_6:\n  mload(0x80)\n  mload(0xa0)\n  codecopy(0x00, dataOffset(sub_0), dataSize(sub_0))\n  0x00\n  assignImmutable(\"0xcd41b8bf8f20f7ad95d96d948a315af225b219053fc98a80aee13063b692b681\")\n  0x00\n  assignImmutable(\"0x215d56ac8bbcf4ec574772ebea743ba30ac9d1c5e1b1ff899e5de1045f5df803\")\n  return(0x00, dataSize(sub_0))\nstop\n\nsub_0: assembly {\n        /* \"src/UniswapV3Pool.sol\":446:8170  contract UniswapV3Pool is ... */\n      mstore(0x40, 0x80)\n      callvalue\n      dup1\n      iszero\n      tag_1\n      jumpi\n      revert(0x00, 0x00)\n    tag_1:\n      pop\n      jumpi(tag_2, lt(calldatasize, 0x04))\n      shr(0xe0, calldataload(0x00))\n      dup1\n      0x514ea4bf\n      gt\n      tag_12\n      jumpi\n      dup1\n      0x514ea4bf\n      eq\n      tag_7\n      jumpi\n      dup1\n      0x5339c296\n      eq\n      tag_8\n      jumpi\n      dup1\n      0x80c2c6ef\n      eq\n      tag_9\n      jumpi\n      dup1\n      0xd21220a7\n      eq\n      tag_10\n      jumpi\n      dup1\n      0xf30dba93\n      eq\n      tag_11\n      jumpi\n      jump(tag_2)\n    tag_12:\n      dup1\n      0x0dfe1681\n      eq\n      tag_3\n      jumpi\n      dup1\n      0x1a686502\n      eq\n      tag_4\n      jumpi\n      dup1\n      0x3850c7bd\n      eq\n      tag_5\n      jumpi\n      dup1\n      0x3c8a7d8d\n      eq\n      tag_6\n      jumpi\n    tag_2:\n      revert(0x00, 0x00)\n        /* \"src/UniswapV3Pool.sol\":943:974  address public immutable token0 */\n    tag_3:\n      tag_13\n      tag_14\n      jump\t// in\n    tag_13:\n      mload(0x40)\n      tag_15\n      swap2\n      swap1\n      tag_16\n      jump\t// in\n    tag_15:\n      mload(0x40)\n      dup1\n      swap2\n      sub\n      swap1\n      return\n        /* \"src/UniswapV3Pool.sol\":1245:1269  uint128 public liquidity */\n    tag_4:\n      tag_17\n      tag_18\n      jump\t// in\n    tag_17:\n      mload(0x40)\n      tag_19\n      swap2\n      swap1\n      tag_20\n      jump\t// in\n    tag_19:\n      mload(0x40)\n      dup1\n      swap2\n      sub\n      swap1\n      return\n        /* \"src/UniswapV3Pool.sol\":1187:1205  Slot0 public slot0 */\n    tag_5:\n      tag_21\n      tag_22\n      jump\t// in\n    tag_21:\n      mload(0x40)\n      tag_23\n      swap3\n      swap2\n      swap1\n      tag_24\n      jump\t// in\n    tag_23:\n      mload(0x40)\n      dup1\n      swap2\n      sub\n      swap1\n      return\n        /* \"src/UniswapV3Pool.sol\":2159:4667  function mint(... */\n    tag_6:\n      tag_25\n      0x04\n      dup1\n      calldatasize\n      sub\n      dup2\n      add\n      swap1\n      tag_26\n      swap2\n      swap1\n      tag_27\n      jump\t// in\n    tag_26:\n      tag_28\n      jump\t// in\n    tag_25:\n      mload(0x40)\n      tag_29\n      swap3\n      swap2\n      swap1\n      tag_30\n      jump\t// in\n    tag_29:\n      mload(0x40)\n      dup1\n      swap2\n      sub\n      swap1\n      return\n        /* \"src/UniswapV3Pool.sol\":1438:1488  mapping(bytes32 => Position.Info) public positions */\n    tag_7:\n      tag_31\n      0x04\n      dup1\n      calldatasize\n      sub\n      dup2\n      add\n      swap1\n      tag_32\n      swap2\n      swap1\n      tag_33\n      jump\t// in\n    tag_32:\n      tag_34\n      jump\t// in\n    tag_31:\n      mload(0x40)\n      tag_35\n      swap2\n      swap1\n      tag_20\n      jump\t// in\n    tag_35:\n      mload(0x40)\n      dup1\n      swap2\n      sub\n      swap1\n      return\n        /* \"src/UniswapV3Pool.sol\":1367:1410  mapping(int16 => uint256) public tickBitmap */\n    tag_8:\n      tag_36\n      0x04\n      dup1\n      calldatasize\n      sub\n      dup2\n      add\n      swap1\n      tag_37\n      swap2\n      swap1\n      tag_38\n      jump\t// in\n    tag_37:\n      tag_39\n      jump\t// in\n    tag_36:\n      mload(0x40)\n      tag_40\n      swap2\n      swap1\n      tag_41\n      jump\t// in\n    tag_40:\n      mload(0x40)\n      dup1\n      swap2\n      sub\n      swap1\n      return\n        /* \"src/UniswapV3Pool.sol\":4699:7851  function swap(... */\n    tag_9:\n      tag_42\n      0x04\n      dup1\n      calldatasize\n      sub\n      dup2\n      add\n      swap1\n      tag_43\n      swap2\n      swap1\n      tag_44\n      jump\t// in\n    tag_43:\n      tag_45\n      jump\t// in\n    tag_42:\n      mload(0x40)\n      tag_46\n      swap3\n      swap2\n      swap1\n      tag_47\n      jump\t// in\n    tag_46:\n      mload(0x40)\n      dup1\n      swap2\n      sub\n      swap1\n      return\n        /* \"src/UniswapV3Pool.sol\":981:1012  address public immutable token1 */\n    tag_10:\n      tag_48\n      tag_49\n      jump\t// in\n    tag_48:\n      mload(0x40)\n      tag_50\n      swap2\n      swap1\n      tag_16\n      jump\t// in\n    tag_50:\n      mload(0x40)\n      dup1\n      swap2\n      sub\n      swap1\n      return\n        /* \"src/UniswapV3Pool.sol\":1299:1339  mapping(int24 => Tick.Info) public ticks */\n    tag_11:\n      tag_51\n      0x04\n      dup1\n      calldatasize\n      sub\n      dup2\n      add\n      swap1\n      tag_52\n      swap2\n      swap1\n      tag_53\n      jump\t// in\n    tag_52:\n      tag_54\n      jump\t// in\n    tag_51:\n      mload(0x40)\n      tag_55\n      swap3\n      swap2\n      swap1\n      tag_56\n      jump\t// in\n    tag_55:\n      mload(0x40)\n      dup1\n      swap2\n      sub\n      swap1\n      return\n        /* \"src/UniswapV3Pool.sol\":943:974  address public immutable token0 */\n    tag_14:\n      immutable(\"0x215d56ac8bbcf4ec574772ebea743ba30ac9d1c5e1b1ff899e5de1045f5df803\")\n      dup2\n      jump\t// out\n        /* \"src/UniswapV3Pool.sol\":1245:1269  uint128 public liquidity */\n    tag_18:\n      0x01\n      0x00\n      swap1\n      sload\n      swap1\n      0x0100\n      exp\n      swap1\n      div\n      0xffffffffffffffffffffffffffffffff\n      and\n      dup2\n      jump\t// out\n        /* \"src/UniswapV3Pool.sol\":1187:1205  Slot0 public slot0 */\n    tag_22:\n      0x00\n      dup1\n      0x00\n      add\n      0x00\n      swap1\n      sload\n      swap1\n      0x0100\n      exp\n      swap1\n      div\n      0xffffffffffffffffffffffffffffffffffffffff\n      and\n      swap1\n      dup1\n      0x00\n      add\n      0x14\n      swap1\n      sload\n      swap1\n      0x0100\n      exp\n      swap1\n      div\n      0x02\n      signextend\n      swap1\n      pop\n      dup3\n      jump\t// out\n        /* \"src/UniswapV3Pool.sol\":2159:4667  function mint(... */\n    tag_28:\n        /* \"src/UniswapV3Pool.sol\":2344:2359  uint256 amount0 */\n      0x00\n        /* \"src/UniswapV3Pool.sol\":2361:2376  uint256 amount1 */\n      0x00\n        /* \"src/UniswapV3Pool.sol\":2420:2429  upperTick */\n      dup6\n        /* \"src/UniswapV3Pool.sol\":2407:2429  lowerTick >= upperTick */\n      0x02\n      signextend\n        /* \"src/UniswapV3Pool.sol\":2407:2416  lowerTick */\n      dup8\n        /* \"src/UniswapV3Pool.sol\":2407:2429  lowerTick >= upperTick */\n      0x02\n      signextend\n      slt\n      iszero\n        /* \"src/UniswapV3Pool.sol\":2407:2466  lowerTick >= upperTick ||... */\n      dup1\n      tag_58\n      jumpi\n      pop\n        /* \"src/UniswapV3Pool.sol\":744:751  -887272 */\n      0xfffffffffffffffffffffffffffffffffffffffffffffffffffffffffff27618\n        /* \"src/UniswapV3Pool.sol\":2446:2466  lowerTick < MIN_TICK */\n      0x02\n      signextend\n        /* \"src/UniswapV3Pool.sol\":2446:2455  lowerTick */\n      dup8\n        /* \"src/UniswapV3Pool.sol\":2446:2466  lowerTick < MIN_TICK */\n      0x02\n      signextend\n      slt\n        /* \"src/UniswapV3Pool.sol\":2407:2466  lowerTick >= upperTick ||... */\n    tag_58:\n        /* \"src/UniswapV3Pool.sol\":2407:2503  lowerTick >= upperTick ||... */\n      dup1\n      tag_59\n      jumpi\n      pop\n        /* \"src/UniswapV3Pool.sol\":744:751  -887272 */\n      0xfffffffffffffffffffffffffffffffffffffffffffffffffffffffffff27618\n        /* \"src/UniswapV3Pool.sol\":793:802  -MIN_TICK */\n      tag_60\n      swap1\n      tag_61\n      jump\t// in\n    tag_60:\n        /* \"src/UniswapV3Pool.sol\":2483:2503  upperTick > MAX_TICK */\n      0x02\n      signextend\n        /* \"src/UniswapV3Pool.sol\":2483:2492  upperTick */\n      dup7\n        /* \"src/UniswapV3Pool.sol\":2483:2503  upperTick > MAX_TICK */\n      0x02\n      signextend\n      sgt\n        /* \"src/UniswapV3Pool.sol\":2407:2503  lowerTick >= upperTick ||... */\n    tag_59:\n        /* \"src/UniswapV3Pool.sol\":2389:2540  if (... */\n      iszero\n      tag_62\n      jumpi\n        /* \"src/UniswapV3Pool.sol\":2522:2540  InvalidTickRange() */\n      mload(0x40)\n      0x064847d000000000000000000000000000000000000000000000000000000000\n      dup2\n      mstore\n      0x04\n      add\n      mload(0x40)\n      dup1\n      swap2\n      sub\n      swap1\n      revert\n        /* \"src/UniswapV3Pool.sol\":2389:2540  if (... */\n    tag_62:\n        /* \"src/UniswapV3Pool.sol\":2565:2566  0 */\n      0x00\n        /* \"src/UniswapV3Pool.sol\":2555:2561  amount */\n      dup6\n        /* \"src/UniswapV3Pool.sol\":2555:2566  amount == 0 */\n      0xffffffffffffffffffffffffffffffff\n      and\n      sub\n        /* \"src/UniswapV3Pool.sol\":2551:2590  if (amount == 0) revert ZeroLiquidity() */\n      tag_63\n      jumpi\n        /* \"src/UniswapV3Pool.sol\":2575:2590  ZeroLiquidity() */\n      mload(0x40)\n      0x1007454800000000000000000000000000000000000000000000000000000000\n      dup2\n      mstore\n      0x04\n      add\n      mload(0x40)\n      dup1\n      swap2\n      sub\n      swap1\n      revert\n        /* \"src/UniswapV3Pool.sol\":2551:2590  if (amount == 0) revert ZeroLiquidity() */\n    tag_63:\n        /* \"src/UniswapV3Pool.sol\":2603:2620  bool flippedLower */\n      0x00\n        /* \"src/UniswapV3Pool.sol\":2623:2654  ticks.update(lowerTick, amount) */\n      tag_64\n        /* \"src/UniswapV3Pool.sol\":2636:2645  lowerTick */\n      dup9\n        /* \"src/UniswapV3Pool.sol\":2647:2653  amount */\n      dup8\n        /* \"src/UniswapV3Pool.sol\":2623:2628  ticks */\n      0x02\n        /* \"src/UniswapV3Pool.sol\":2623:2635  ticks.update */\n      tag_65\n      swap1\n        /* \"src/UniswapV3Pool.sol\":2623:2654  ticks.update(lowerTick, amount) */\n      swap3\n      swap2\n      swap1\n      0xffffffff\n      and\n      jump\t// in\n    tag_64:\n        /* \"src/UniswapV3Pool.sol\":2603:2654  bool flippedLower = ticks.update(lowerTick, amount) */\n      swap1\n      pop\n        /* \"src/UniswapV3Pool.sol\":2665:2682  bool flippedUpper */\n      0x00\n        /* \"src/UniswapV3Pool.sol\":2685:2716  ticks.update(upperTick, amount) */\n      tag_66\n        /* \"src/UniswapV3Pool.sol\":2698:2707  upperTick */\n      dup9\n        /* \"src/UniswapV3Pool.sol\":2709:2715  amount */\n      dup9\n        /* \"src/UniswapV3Pool.sol\":2685:2690  ticks */\n      0x02\n        /* \"src/UniswapV3Pool.sol\":2685:2697  ticks.update */\n      tag_65\n      swap1\n        /* \"src/UniswapV3Pool.sol\":2685:2716  ticks.update(upperTick, amount) */\n      swap3\n      swap2\n      swap1\n      0xffffffff\n      and\n      jump\t// in\n    tag_66:\n        /* \"src/UniswapV3Pool.sol\":2665:2716  bool flippedUpper = ticks.update(upperTick, amount) */\n      swap1\n      pop\n        /* \"src/UniswapV3Pool.sol\":2730:2742  flippedLower */\n      dup2\n        /* \"src/UniswapV3Pool.sol\":2727:2804  if(flippedLower) {... */\n      iszero\n      tag_67\n      jumpi\n        /* \"src/UniswapV3Pool.sol\":2759:2792  tickBitmap.flipTick(lowerTick, 1) */\n      tag_68\n        /* \"src/UniswapV3Pool.sol\":2779:2788  lowerTick */\n      dup10\n        /* \"src/UniswapV3Pool.sol\":2790:2791  1 */\n      0x01\n        /* \"src/UniswapV3Pool.sol\":2759:2769  tickBitmap */\n      0x03\n        /* \"src/UniswapV3Pool.sol\":2759:2778  tickBitmap.flipTick */\n      tag_69\n      swap1\n        /* \"src/UniswapV3Pool.sol\":2759:2792  tickBitmap.flipTick(lowerTick, 1) */\n      swap3\n      swap2\n      swap1\n      0xffffffff\n      and\n      jump\t// in\n    tag_68:\n        /* \"src/UniswapV3Pool.sol\":2727:2804  if(flippedLower) {... */\n    tag_67:\n        /* \"src/UniswapV3Pool.sol\":2817:2829  flippedUpper */\n      dup1\n        /* \"src/UniswapV3Pool.sol\":2814:2891  if(flippedUpper) {... */\n      iszero\n      tag_70\n      jumpi\n        /* \"src/UniswapV3Pool.sol\":2846:2879  tickBitmap.flipTick(upperTick, 1) */\n      tag_71\n        /* \"src/UniswapV3Pool.sol\":2866:2875  upperTick */\n      dup9\n        /* \"src/UniswapV3Pool.sol\":2877:2878  1 */\n      0x01\n        /* \"src/UniswapV3Pool.sol\":2846:2856  tickBitmap */\n      0x03\n        /* \"src/UniswapV3Pool.sol\":2846:2865  tickBitmap.flipTick */\n      tag_69\n      swap1\n        /* \"src/UniswapV3Pool.sol\":2846:2879  tickBitmap.flipTick(upperTick, 1) */\n      swap3\n      swap2\n      swap1\n      0xffffffff\n      and\n      jump\t// in\n    tag_71:\n        /* \"src/UniswapV3Pool.sol\":2814:2891  if(flippedUpper) {... */\n    tag_70:\n        /* \"src/UniswapV3Pool.sol\":2903:2933  Position.Info storage position */\n      0x00\n        /* \"src/UniswapV3Pool.sol\":2936:3028  positions.get(... */\n      tag_72\n        /* \"src/UniswapV3Pool.sol\":2964:2969  owner */\n      dup12\n        /* \"src/UniswapV3Pool.sol\":2984:2993  lowerTick */\n      dup12\n        /* \"src/UniswapV3Pool.sol\":3008:3017  upperTick */\n      dup12\n        /* \"src/UniswapV3Pool.sol\":2936:2945  positions */\n      0x04\n        /* \"src/UniswapV3Pool.sol\":2936:2949  positions.get */\n      tag_73\n      swap1\n        /* \"src/UniswapV3Pool.sol\":2936:3028  positions.get(... */\n      swap4\n      swap3\n      swap2\n      swap1\n      0xffffffff\n      and\n      jump\t// in\n    tag_72:\n        /* \"src/UniswapV3Pool.sol\":2903:3028  Position.Info storage position = positions.get(... */\n      swap1\n      pop\n        /* \"src/UniswapV3Pool.sol\":3039:3062  position.update(amount) */\n      tag_74\n        /* \"src/UniswapV3Pool.sol\":3055:3061  amount */\n      dup9\n        /* \"src/UniswapV3Pool.sol\":3039:3047  position */\n      dup3\n        /* \"src/UniswapV3Pool.sol\":3039:3054  position.update */\n      tag_75\n      swap1\n        /* \"src/UniswapV3Pool.sol\":3039:3062  position.update(amount) */\n      swap2\n      swap1\n      0xffffffff\n      and\n      jump\t// in\n    tag_74:\n        /* \"src/UniswapV3Pool.sol\":3075:3094  Slot0 memory slot0_ */\n      0x00\n        /* \"src/UniswapV3Pool.sol\":3097:3102  slot0 */\n      0x00\n        /* \"src/UniswapV3Pool.sol\":3075:3102  Slot0 memory slot0_ = slot0 */\n      mload(0x40)\n      dup1\n      0x40\n      add\n      0x40\n      mstore\n      swap1\n      dup2\n      0x00\n      dup3\n      add\n      0x00\n      swap1\n      sload\n      swap1\n      0x0100\n      exp\n      swap1\n      div\n      0xffffffffffffffffffffffffffffffffffffffff\n      and\n      0xffffffffffffffffffffffffffffffffffffffff\n      and\n      0xffffffffffffffffffffffffffffffffffffffff\n      and\n      dup2\n      mstore\n      0x20\n      add\n      0x00\n      dup3\n      add\n      0x14\n      swap1\n      sload\n      swap1\n      0x0100\n      exp\n      swap1\n      div\n      0x02\n      signextend\n      0x02\n      signextend\n      0x02\n      signextend\n      dup2\n      mstore\n      pop\n      pop\n      swap1\n      pop\n        /* \"src/UniswapV3Pool.sol\":3133:3142  lowerTick */\n      dup11\n        /* \"src/UniswapV3Pool.sol\":3119:3142  slot0_.tick < lowerTick */\n      0x02\n      signextend\n        /* \"src/UniswapV3Pool.sol\":3119:3125  slot0_ */\n      dup2\n        /* \"src/UniswapV3Pool.sol\":3119:3130  slot0_.tick */\n      0x20\n      add\n      mload\n        /* \"src/UniswapV3Pool.sol\":3119:3142  slot0_.tick < lowerTick */\n      0x02\n      signextend\n      slt\n        /* \"src/UniswapV3Pool.sol\":3115:4026  if (slot0_.tick < lowerTick) {... */\n      iszero\n      tag_76\n      jumpi\n        /* \"src/UniswapV3Pool.sol\":3169:3344  Math.calcAmount0Delta(... */\n      tag_77\n        /* \"src/UniswapV3Pool.sol\":3209:3247  TickMath.getSqrtRatioAtTick(lowerTick) */\n      tag_78\n        /* \"src/UniswapV3Pool.sol\":3237:3246  lowerTick */\n      dup13\n        /* \"src/UniswapV3Pool.sol\":3209:3236  TickMath.getSqrtRatioAtTick */\n      tag_79\n        /* \"src/UniswapV3Pool.sol\":3209:3247  TickMath.getSqrtRatioAtTick(lowerTick) */\n      jump\t// in\n    tag_78:\n        /* \"src/UniswapV3Pool.sol\":3266:3304  TickMath.getSqrtRatioAtTick(upperTick) */\n      tag_80\n        /* \"src/UniswapV3Pool.sol\":3294:3303  upperTick */\n      dup13\n        /* \"src/UniswapV3Pool.sol\":3266:3293  TickMath.getSqrtRatioAtTick */\n      tag_79\n        /* \"src/UniswapV3Pool.sol\":3266:3304  TickMath.getSqrtRatioAtTick(upperTick) */\n      jump\t// in\n    tag_80:\n        /* \"src/UniswapV3Pool.sol\":3323:3329  amount */\n      dup12\n        /* \"src/UniswapV3Pool.sol\":3169:3190  Math.calcAmount0Delta */\n      tag_81\n        /* \"src/UniswapV3Pool.sol\":3169:3344  Math.calcAmount0Delta(... */\n      jump\t// in\n    tag_77:\n        /* \"src/UniswapV3Pool.sol\":3159:3344  amount0 = Math.calcAmount0Delta(... */\n      swap6\n      pop\n        /* \"src/UniswapV3Pool.sol\":3115:4026  if (slot0_.tick < lowerTick) {... */\n      jump(tag_82)\n    tag_76:\n        /* \"src/UniswapV3Pool.sol\":3380:3389  upperTick */\n      dup10\n        /* \"src/UniswapV3Pool.sol\":3366:3389  slot0_.tick < upperTick */\n      0x02\n      signextend\n        /* \"src/UniswapV3Pool.sol\":3366:3372  slot0_ */\n      dup2\n        /* \"src/UniswapV3Pool.sol\":3366:3377  slot0_.tick */\n      0x20\n      add\n      mload\n        /* \"src/UniswapV3Pool.sol\":3366:3389  slot0_.tick < upperTick */\n      0x02\n      signextend\n      slt\n        /* \"src/UniswapV3Pool.sol\":3362:4026  if (slot0_.tick < upperTick) {... */\n      iszero\n      tag_83\n      jumpi\n        /* \"src/UniswapV3Pool.sol\":3416:3572  Math.calcAmount0Delta(... */\n      tag_84\n        /* \"src/UniswapV3Pool.sol\":3456:3462  slot0_ */\n      dup2\n        /* \"src/UniswapV3Pool.sol\":3456:3475  slot0_.sqrtPriceX96 */\n      0x00\n      add\n      mload\n        /* \"src/UniswapV3Pool.sol\":3494:3532  TickMath.getSqrtRatioAtTick(upperTick) */\n      tag_85\n        /* \"src/UniswapV3Pool.sol\":3522:3531  upperTick */\n      dup13\n        /* \"src/UniswapV3Pool.sol\":3494:3521  TickMath.getSqrtRatioAtTick */\n      tag_79\n        /* \"src/UniswapV3Pool.sol\":3494:3532  TickMath.getSqrtRatioAtTick(upperTick) */\n      jump\t// in\n    tag_85:\n        /* \"src/UniswapV3Pool.sol\":3551:3557  amount */\n      dup12\n        /* \"src/UniswapV3Pool.sol\":3416:3437  Math.calcAmount0Delta */\n      tag_81\n        /* \"src/UniswapV3Pool.sol\":3416:3572  Math.calcAmount0Delta(... */\n      jump\t// in\n    tag_84:\n        /* \"src/UniswapV3Pool.sol\":3406:3572  amount0 = Math.calcAmount0Delta(... */\n      swap6\n      pop\n        /* \"src/UniswapV3Pool.sol\":3597:3753  Math.calcAmount1Delta(... */\n      tag_86\n        /* \"src/UniswapV3Pool.sol\":3637:3643  slot0_ */\n      dup2\n        /* \"src/UniswapV3Pool.sol\":3637:3656  slot0_.sqrtPriceX96 */\n      0x00\n      add\n      mload\n        /* \"src/UniswapV3Pool.sol\":3675:3713  TickMath.getSqrtRatioAtTick(lowerTick) */\n      tag_87\n        /* \"src/UniswapV3Pool.sol\":3703:3712  lowerTick */\n      dup14\n        /* \"src/UniswapV3Pool.sol\":3675:3702  TickMath.getSqrtRatioAtTick */\n      tag_79\n        /* \"src/UniswapV3Pool.sol\":3675:3713  TickMath.getSqrtRatioAtTick(lowerTick) */\n      jump\t// in\n    tag_87:\n        /* \"src/UniswapV3Pool.sol\":3732:3738  amount */\n      dup12\n        /* \"src/UniswapV3Pool.sol\":3597:3618  Math.calcAmount1Delta */\n      tag_88\n        /* \"src/UniswapV3Pool.sol\":3597:3753  Math.calcAmount1Delta(... */\n      jump\t// in\n    tag_86:\n        /* \"src/UniswapV3Pool.sol\":3587:3753  amount1 = Math.calcAmount1Delta(... */\n      swap5\n      pop\n        /* \"src/UniswapV3Pool.sol\":3789:3795  amount */\n      dup9\n        /* \"src/UniswapV3Pool.sol\":3768:3777  liquidity */\n      0x01\n      0x00\n        /* \"src/UniswapV3Pool.sol\":3768:3796  liquidity += uint128(amount) */\n      dup3\n      dup3\n      dup3\n      swap1\n      sload\n      swap1\n      0x0100\n      exp\n      swap1\n      div\n      0xffffffffffffffffffffffffffffffff\n      and\n      tag_89\n      swap2\n      swap1\n      tag_90\n      jump\t// in\n    tag_89:\n      swap3\n      pop\n      0x0100\n      exp\n      dup2\n      sload\n      dup2\n      0xffffffffffffffffffffffffffffffff\n      mul\n      not\n      and\n      swap1\n      dup4\n      0xffffffffffffffffffffffffffffffff\n      and\n      mul\n      or\n      swap1\n      sstore\n      pop\n        /* \"src/UniswapV3Pool.sol\":3362:4026  if (slot0_.tick < upperTick) {... */\n      jump(tag_91)\n    tag_83:\n        /* \"src/UniswapV3Pool.sol\":3839:4014  Math.calcAmount1Delta(... */\n      tag_92\n        /* \"src/UniswapV3Pool.sol\":3879:3917  TickMath.getSqrtRatioAtTick(lowerTick) */\n      tag_93\n        /* \"src/UniswapV3Pool.sol\":3907:3916  lowerTick */\n      dup13\n        /* \"src/UniswapV3Pool.sol\":3879:3906  TickMath.getSqrtRatioAtTick */\n      tag_79\n        /* \"src/UniswapV3Pool.sol\":3879:3917  TickMath.getSqrtRatioAtTick(lowerTick) */\n      jump\t// in\n    tag_93:\n        /* \"src/UniswapV3Pool.sol\":3936:3974  TickMath.getSqrtRatioAtTick(upperTick) */\n      tag_94\n        /* \"src/UniswapV3Pool.sol\":3964:3973  upperTick */\n      dup13\n        /* \"src/UniswapV3Pool.sol\":3936:3963  TickMath.getSqrtRatioAtTick */\n      tag_79\n        /* \"src/UniswapV3Pool.sol\":3936:3974  TickMath.getSqrtRatioAtTick(upperTick) */\n      jump\t// in\n    tag_94:\n        /* \"src/UniswapV3Pool.sol\":3993:3999  amount */\n      dup12\n        /* \"src/UniswapV3Pool.sol\":3839:3860  Math.calcAmount1Delta */\n      tag_88\n        /* \"src/UniswapV3Pool.sol\":3839:4014  Math.calcAmount1Delta(... */\n      jump\t// in\n    tag_92:\n        /* \"src/UniswapV3Pool.sol\":3829:4014  amount1 = Math.calcAmount1Delta(... */\n      swap5\n      pop\n        /* \"src/UniswapV3Pool.sol\":3362:4026  if (slot0_.tick < upperTick) {... */\n    tag_91:\n        /* \"src/UniswapV3Pool.sol\":3115:4026  if (slot0_.tick < lowerTick) {... */\n    tag_82:\n        /* \"src/UniswapV3Pool.sol\":4038:4060  uint256 balance0Before */\n      0x00\n        /* \"src/UniswapV3Pool.sol\":4071:4093  uint256 balance1Before */\n      0x00\n        /* \"src/UniswapV3Pool.sol\":4118:4119  0 */\n      0x00\n        /* \"src/UniswapV3Pool.sol\":4108:4115  amount0 */\n      dup9\n        /* \"src/UniswapV3Pool.sol\":4108:4119  amount0 > 0 */\n      gt\n        /* \"src/UniswapV3Pool.sol\":4104:4148  if (amount0 > 0) balance0Before = balance0() */\n      iszero\n      tag_95\n      jumpi\n        /* \"src/UniswapV3Pool.sol\":4138:4148  balance0() */\n      tag_96\n        /* \"src/UniswapV3Pool.sol\":4138:4146  balance0 */\n      tag_97\n        /* \"src/UniswapV3Pool.sol\":4138:4148  balance0() */\n      jump\t// in\n    tag_96:\n        /* \"src/UniswapV3Pool.sol\":4121:4148  balance0Before = balance0() */\n      swap2\n      pop\n        /* \"src/UniswapV3Pool.sol\":4104:4148  if (amount0 > 0) balance0Before = balance0() */\n    tag_95:\n        /* \"src/UniswapV3Pool.sol\":4173:4174  0 */\n      0x00\n        /* \"src/UniswapV3Pool.sol\":4163:4170  amount1 */\n      dup8\n        /* \"src/UniswapV3Pool.sol\":4163:4174  amount1 > 0 */\n      gt\n        /* \"src/UniswapV3Pool.sol\":4159:4203  if (amount1 > 0) balance1Before = balance1() */\n      iszero\n      tag_98\n      jumpi\n        /* \"src/UniswapV3Pool.sol\":4193:4203  balance1() */\n      tag_99\n        /* \"src/UniswapV3Pool.sol\":4193:4201  balance1 */\n      tag_100\n        /* \"src/UniswapV3Pool.sol\":4193:4203  balance1() */\n      jump\t// in\n    tag_99:\n        /* \"src/UniswapV3Pool.sol\":4176:4203  balance1Before = balance1() */\n      swap1\n      pop\n        /* \"src/UniswapV3Pool.sol\":4159:4203  if (amount1 > 0) balance1Before = balance1() */\n    tag_98:\n        /* \"src/UniswapV3Pool.sol\":4237:4247  msg.sender */\n      caller\n        /* \"src/UniswapV3Pool.sol\":4214:4270  IUniswapV3MintCallback(msg.sender).uniswapV3MintCallback */\n      0xffffffffffffffffffffffffffffffffffffffff\n      and\n      0xd3487997\n        /* \"src/UniswapV3Pool.sol\":4285:4292  amount0 */\n      dup10\n        /* \"src/UniswapV3Pool.sol\":4307:4314  amount1 */\n      dup10\n        /* \"src/UniswapV3Pool.sol\":4329:4333  data */\n      dup14\n      dup14\n        /* \"src/UniswapV3Pool.sol\":4214:4344  IUniswapV3MintCallback(msg.sender).uniswapV3MintCallback(... */\n      mload(0x40)\n      dup6\n      0xffffffff\n      and\n      0xe0\n      shl\n      dup2\n      mstore\n      0x04\n      add\n      tag_101\n      swap5\n      swap4\n      swap3\n      swap2\n      swap1\n      tag_102\n      jump\t// in\n    tag_101:\n      0x00\n      mload(0x40)\n      dup1\n      dup4\n      sub\n      dup2\n      0x00\n      dup8\n      dup1\n      extcodesize\n      iszero\n      dup1\n      iszero\n      tag_103\n      jumpi\n      revert(0x00, 0x00)\n    tag_103:\n      pop\n      gas\n      call\n      iszero\n      dup1\n      iszero\n      tag_105\n      jumpi\n      returndatacopy(0x00, 0x00, returndatasize)\n      revert(0x00, returndatasize)\n    tag_105:\n      pop\n      pop\n      pop\n      pop\n        /* \"src/UniswapV3Pool.sol\":4369:4370  0 */\n      0x00\n        /* \"src/UniswapV3Pool.sol\":4359:4366  amount0 */\n      dup9\n        /* \"src/UniswapV3Pool.sol\":4359:4370  amount0 > 0 */\n      gt\n        /* \"src/UniswapV3Pool.sol\":4359:4411  amount0 > 0 && balance0Before + amount0 > balance0() */\n      dup1\n      iszero\n      tag_106\n      jumpi\n      pop\n        /* \"src/UniswapV3Pool.sol\":4401:4411  balance0() */\n      tag_107\n        /* \"src/UniswapV3Pool.sol\":4401:4409  balance0 */\n      tag_97\n        /* \"src/UniswapV3Pool.sol\":4401:4411  balance0() */\n      jump\t// in\n    tag_107:\n        /* \"src/UniswapV3Pool.sol\":4391:4398  amount0 */\n      dup9\n        /* \"src/UniswapV3Pool.sol\":4374:4388  balance0Before */\n      dup4\n        /* \"src/UniswapV3Pool.sol\":4374:4398  balance0Before + amount0 */\n      tag_108\n      swap2\n      swap1\n      tag_109\n      jump\t// in\n    tag_108:\n        /* \"src/UniswapV3Pool.sol\":4374:4411  balance0Before + amount0 > balance0() */\n      gt\n        /* \"src/UniswapV3Pool.sol\":4359:4411  amount0 > 0 && balance0Before + amount0 > balance0() */\n    tag_106:\n        /* \"src/UniswapV3Pool.sol\":4355:4458  if (amount0 > 0 && balance0Before + amount0 > balance0())... */\n      iszero\n      tag_110\n      jumpi\n        /* \"src/UniswapV3Pool.sol\":4433:4458  InsufficientInputAmount() */\n      mload(0x40)\n      0x098fb56100000000000000000000000000000000000000000000000000000000\n      dup2\n      mstore\n      0x04\n      add\n      mload(0x40)\n      dup1\n      swap2\n      sub\n      swap1\n      revert\n        /* \"src/UniswapV3Pool.sol\":4355:4458  if (amount0 > 0 && balance0Before + amount0 > balance0())... */\n    tag_110:\n        /* \"src/UniswapV3Pool.sol\":4483:4484  0 */\n      0x00\n        /* \"src/UniswapV3Pool.sol\":4473:4480  amount1 */\n      dup8\n        /* \"src/UniswapV3Pool.sol\":4473:4484  amount1 > 0 */\n      gt\n        /* \"src/UniswapV3Pool.sol\":4473:4525  amount1 > 0 && balance1Before + amount1 > balance1() */\n      dup1\n      iszero\n      tag_111\n      jumpi\n      pop\n        /* \"src/UniswapV3Pool.sol\":4515:4525  balance1() */\n      tag_112\n        /* \"src/UniswapV3Pool.sol\":4515:4523  balance1 */\n      tag_100\n        /* \"src/UniswapV3Pool.sol\":4515:4525  balance1() */\n      jump\t// in\n    tag_112:\n        /* \"src/UniswapV3Pool.sol\":4505:4512  amount1 */\n      dup8\n        /* \"src/UniswapV3Pool.sol\":4488:4502  balance1Before */\n      dup3\n        /* \"src/UniswapV3Pool.sol\":4488:4512  balance1Before + amount1 */\n      tag_113\n      swap2\n      swap1\n      tag_109\n      jump\t// in\n    tag_113:\n        /* \"src/UniswapV3Pool.sol\":4488:4525  balance1Before + amount1 > balance1() */\n      gt\n        /* \"src/UniswapV3Pool.sol\":4473:4525  amount1 > 0 && balance1Before + amount1 > balance1() */\n    tag_111:\n        /* \"src/UniswapV3Pool.sol\":4469:4572  if (amount1 > 0 && balance1Before + amount1 > balance1())... */\n      iszero\n      tag_114\n      jumpi\n        /* \"src/UniswapV3Pool.sol\":4547:4572  InsufficientInputAmount() */\n      mload(0x40)\n      0x098fb56100000000000000000000000000000000000000000000000000000000\n      dup2\n      mstore\n      0x04\n      add\n      mload(0x40)\n      dup1\n      swap2\n      sub\n      swap1\n      revert\n        /* \"src/UniswapV3Pool.sol\":4469:4572  if (amount1 > 0 && balance1Before + amount1 > balance1())... */\n    tag_114:\n        /* \"src/UniswapV3Pool.sol\":4623:4632  upperTick */\n      dup12\n        /* \"src/UniswapV3Pool.sol\":4588:4659  Mint(msg.sender, owner, lowerTick, upperTick, amount, amount0, amount1) */\n      0x02\n      signextend\n        /* \"src/UniswapV3Pool.sol\":4612:4621  lowerTick */\n      dup14\n        /* \"src/UniswapV3Pool.sol\":4588:4659  Mint(msg.sender, owner, lowerTick, upperTick, amount, amount0, amount1) */\n      0x02\n      signextend\n        /* \"src/UniswapV3Pool.sol\":4605:4610  owner */\n      dup16\n        /* \"src/UniswapV3Pool.sol\":4588:4659  Mint(msg.sender, owner, lowerTick, upperTick, amount, amount0, amount1) */\n      0xffffffffffffffffffffffffffffffffffffffff\n      and\n      0x7a53080ba414158be7ec69b987b5fb7d07dee101fe85488f0853ae16239d0bde\n        /* \"src/UniswapV3Pool.sol\":4593:4603  msg.sender */\n      caller\n        /* \"src/UniswapV3Pool.sol\":4634:4640  amount */\n      dup16\n        /* \"src/UniswapV3Pool.sol\":4642:4649  amount0 */\n      dup14\n        /* \"src/UniswapV3Pool.sol\":4651:4658  amount1 */\n      dup14\n        /* \"src/UniswapV3Pool.sol\":4588:4659  Mint(msg.sender, owner, lowerTick, upperTick, amount, amount0, amount1) */\n      mload(0x40)\n      tag_115\n      swap5\n      swap4\n      swap3\n      swap2\n      swap1\n      tag_116\n      jump\t// in\n    tag_115:\n      mload(0x40)\n      dup1\n      swap2\n      sub\n      swap1\n      log4\n        /* \"src/UniswapV3Pool.sol\":2378:4667  {... */\n      pop\n      pop\n      pop\n      pop\n      pop\n      pop\n        /* \"src/UniswapV3Pool.sol\":2159:4667  function mint(... */\n      swap7\n      pop\n      swap7\n      swap5\n      pop\n      pop\n      pop\n      pop\n      pop\n      jump\t// out\n        /* \"src/UniswapV3Pool.sol\":1438:1488  mapping(bytes32 => Position.Info) public positions */\n    tag_34:\n      mstore(0x20, 0x04)\n      dup1\n      0x00\n      mstore\n      keccak256(0x00, 0x40)\n      0x00\n      swap2\n      pop\n      swap1\n      pop\n      dup1\n      0x00\n      add\n      0x00\n      swap1\n      sload\n      swap1\n      0x0100\n      exp\n      swap1\n      div\n      0xffffffffffffffffffffffffffffffff\n      and\n      swap1\n      pop\n      dup2\n      jump\t// out\n        /* \"src/UniswapV3Pool.sol\":1367:1410  mapping(int16 => uint256) public tickBitmap */\n    tag_39:\n      mstore(0x20, 0x03)\n      dup1\n      0x00\n      mstore\n      keccak256(0x00, 0x40)\n      0x00\n      swap2\n      pop\n      swap1\n      pop\n      sload\n      dup2\n      jump\t// out\n        /* \"src/UniswapV3Pool.sol\":4699:7851  function swap(... */\n    tag_45:\n        /* \"src/UniswapV3Pool.sol\":4945:4959  int256 amount0 */\n      0x00\n        /* \"src/UniswapV3Pool.sol\":4961:4975  int256 amount1 */\n      0x00\n        /* \"src/UniswapV3Pool.sol\":4993:5012  Slot0 memory slot0_ */\n      0x00\n        /* \"src/UniswapV3Pool.sol\":5015:5020  slot0 */\n      0x00\n        /* \"src/UniswapV3Pool.sol\":4993:5020  Slot0 memory slot0_ = slot0 */\n      mload(0x40)\n      dup1\n      0x40\n      add\n      0x40\n      mstore\n      swap1\n      dup2\n      0x00\n      dup3\n      add\n      0x00\n      swap1\n      sload\n      swap1\n      0x0100\n      exp\n      swap1\n      div\n      0xffffffffffffffffffffffffffffffffffffffff\n      and\n      0xffffffffffffffffffffffffffffffffffffffff\n      and\n      0xffffffffffffffffffffffffffffffffffffffff\n      and\n      dup2\n      mstore\n      0x20\n      add\n      0x00\n      dup3\n      add\n      0x14\n      swap1\n      sload\n      swap1\n      0x0100\n      exp\n      swap1\n      div\n      0x02\n      signextend\n      0x02\n      signextend\n      0x02\n      signextend\n      dup2\n      mstore\n      pop\n      pop\n      swap1\n      pop\n        /* \"src/UniswapV3Pool.sol\":5033:5055  SwapState memory state */\n      0x00\n        /* \"src/UniswapV3Pool.sol\":5058:5250  SwapState({... */\n      mload(0x40)\n      dup1\n      0x80\n      add\n      0x40\n      mstore\n      dup1\n        /* \"src/UniswapV3Pool.sol\":5109:5124  amountSpecified */\n      dup9\n        /* \"src/UniswapV3Pool.sol\":5058:5250  SwapState({... */\n      dup2\n      mstore\n      0x20\n      add\n        /* \"src/UniswapV3Pool.sol\":5157:5158  0 */\n      0x00\n        /* \"src/UniswapV3Pool.sol\":5058:5250  SwapState({... */\n      dup2\n      mstore\n      0x20\n      add\n        /* \"src/UniswapV3Pool.sol\":5187:5193  slot0_ */\n      dup4\n        /* \"src/UniswapV3Pool.sol\":5187:5206  slot0_.sqrtPriceX96 */\n      0x00\n      add\n      mload\n        /* \"src/UniswapV3Pool.sol\":5058:5250  SwapState({... */\n      0xffffffffffffffffffffffffffffffffffffffff\n      and\n      dup2\n      mstore\n      0x20\n      add\n        /* \"src/UniswapV3Pool.sol\":5227:5233  slot0_ */\n      dup4\n        /* \"src/UniswapV3Pool.sol\":5227:5238  slot0_.tick */\n      0x20\n      add\n      mload\n        /* \"src/UniswapV3Pool.sol\":5058:5250  SwapState({... */\n      0x02\n      signextend\n      dup2\n      mstore\n      pop\n        /* \"src/UniswapV3Pool.sol\":5033:5250  SwapState memory state = SwapState({... */\n      swap1\n      pop\n        /* \"src/UniswapV3Pool.sol\":5263:6282  while (state.amountSpecifiedRemaining > 0) {... */\n    tag_118:\n        /* \"src/UniswapV3Pool.sol\":5303:5304  0 */\n      0x00\n        /* \"src/UniswapV3Pool.sol\":5270:5275  state */\n      dup2\n        /* \"src/UniswapV3Pool.sol\":5270:5300  state.amountSpecifiedRemaining */\n      0x00\n      add\n      mload\n        /* \"src/UniswapV3Pool.sol\":5270:5304  state.amountSpecifiedRemaining > 0 */\n      gt\n        /* \"src/UniswapV3Pool.sol\":5263:6282  while (state.amountSpecifiedRemaining > 0) {... */\n      iszero\n      tag_119\n      jumpi\n        /* \"src/UniswapV3Pool.sol\":5321:5342  StepState memory step */\n      tag_120\n      tag_121\n      jump\t// in\n    tag_120:\n        /* \"src/UniswapV3Pool.sol\":5382:5387  state */\n      dup2\n        /* \"src/UniswapV3Pool.sol\":5382:5400  state.sqrtPriceX96 */\n      0x40\n      add\n      mload\n        /* \"src/UniswapV3Pool.sol\":5357:5361  step */\n      dup2\n        /* \"src/UniswapV3Pool.sol\":5357:5379  step.sqrtPriceStartX96 */\n      0x00\n      add\n        /* \"src/UniswapV3Pool.sol\":5357:5400  step.sqrtPriceStartX96 = state.sqrtPriceX96 */\n      swap1\n      0xffffffffffffffffffffffffffffffffffffffff\n      and\n      swap1\n      dup2\n      0xffffffffffffffffffffffffffffffffffffffff\n      and\n      dup2\n      mstore\n      pop\n      pop\n        /* \"src/UniswapV3Pool.sol\":5435:5571  tickBitmap.nextInitializedTickWithinOneWord(... */\n      tag_122\n        /* \"src/UniswapV3Pool.sol\":5497:5502  state */\n      dup3\n        /* \"src/UniswapV3Pool.sol\":5497:5507  state.tick */\n      0x60\n      add\n      mload\n        /* \"src/UniswapV3Pool.sol\":5526:5527  1 */\n      0x01\n        /* \"src/UniswapV3Pool.sol\":5546:5556  zeroForOne */\n      dup12\n        /* \"src/UniswapV3Pool.sol\":5435:5445  tickBitmap */\n      0x03\n        /* \"src/UniswapV3Pool.sol\":5435:5478  tickBitmap.nextInitializedTickWithinOneWord */\n      tag_123\n      swap1\n        /* \"src/UniswapV3Pool.sol\":5435:5571  tickBitmap.nextInitializedTickWithinOneWord(... */\n      swap4\n      swap3\n      swap2\n      swap1\n      0xffffffff\n      and\n      jump\t// in\n    tag_122:\n        /* \"src/UniswapV3Pool.sol\":5415:5571  (step.nextTick, ) = tickBitmap.nextInitializedTickWithinOneWord(... */\n      pop\n        /* \"src/UniswapV3Pool.sol\":5416:5420  step */\n      dup2\n        /* \"src/UniswapV3Pool.sol\":5416:5429  step.nextTick */\n      0x20\n      add\n        /* \"src/UniswapV3Pool.sol\":5415:5571  (step.nextTick, ) = tickBitmap.nextInitializedTickWithinOneWord(... */\n      dup2\n      0x02\n      signextend\n      0x02\n      signextend\n      dup2\n      mstore\n      pop\n      pop\n        /* \"src/UniswapV3Pool.sol\":5610:5652  TickMath.getSqrtRatioAtTick(step.nextTick) */\n      tag_124\n        /* \"src/UniswapV3Pool.sol\":5638:5642  step */\n      dup2\n        /* \"src/UniswapV3Pool.sol\":5638:5651  step.nextTick */\n      0x20\n      add\n      mload\n        /* \"src/UniswapV3Pool.sol\":5610:5637  TickMath.getSqrtRatioAtTick */\n      tag_79\n        /* \"src/UniswapV3Pool.sol\":5610:5652  TickMath.getSqrtRatioAtTick(step.nextTick) */\n      jump\t// in\n    tag_124:\n        /* \"src/UniswapV3Pool.sol\":5586:5590  step */\n      dup2\n        /* \"src/UniswapV3Pool.sol\":5586:5607  step.sqrtPriceNextX96 */\n      0x40\n      add\n        /* \"src/UniswapV3Pool.sol\":5586:5652  step.sqrtPriceNextX96 = TickMath.getSqrtRatioAtTick(step.nextTick) */\n      swap1\n      0xffffffffffffffffffffffffffffffffffffffff\n      and\n      swap1\n      dup2\n      0xffffffffffffffffffffffffffffffffffffffff\n      and\n      dup2\n      mstore\n      pop\n      pop\n        /* \"src/UniswapV3Pool.sol\":5721:5952  SwapMath... */\n      tag_125\n        /* \"src/UniswapV3Pool.sol\":5786:5791  state */\n      dup3\n        /* \"src/UniswapV3Pool.sol\":5786:5804  state.sqrtPriceX96 */\n      0x40\n      add\n      mload\n        /* \"src/UniswapV3Pool.sol\":5827:5831  step */\n      dup3\n        /* \"src/UniswapV3Pool.sol\":5827:5848  step.sqrtPriceNextX96 */\n      0x40\n      add\n      mload\n        /* \"src/UniswapV3Pool.sol\":5871:5880  liquidity */\n      0x01\n      0x00\n      swap1\n      sload\n      swap1\n      0x0100\n      exp\n      swap1\n      div\n      0xffffffffffffffffffffffffffffffff\n      and\n        /* \"src/UniswapV3Pool.sol\":5903:5908  state */\n      dup6\n        /* \"src/UniswapV3Pool.sol\":5903:5933  state.amountSpecifiedRemaining */\n      0x00\n      add\n      mload\n        /* \"src/UniswapV3Pool.sol\":5721:5763  SwapMath... */\n      tag_126\n        /* \"src/UniswapV3Pool.sol\":5721:5952  SwapMath... */\n      jump\t// in\n    tag_125:\n        /* \"src/UniswapV3Pool.sol\":5668:5673  state */\n      dup5\n        /* \"src/UniswapV3Pool.sol\":5668:5686  state.sqrtPriceX96 */\n      0x40\n      add\n        /* \"src/UniswapV3Pool.sol\":5688:5692  step */\n      dup5\n        /* \"src/UniswapV3Pool.sol\":5688:5701  step.amountIn */\n      0x60\n      add\n        /* \"src/UniswapV3Pool.sol\":5703:5707  step */\n      dup6\n        /* \"src/UniswapV3Pool.sol\":5703:5717  step.amountOut */\n      0x80\n      add\n        /* \"src/UniswapV3Pool.sol\":5667:5952  (state.sqrtPriceX96, step.amountIn, step.amountOut) = SwapMath... */\n      dup4\n      dup2\n      mstore\n      pop\n      dup4\n      dup2\n      mstore\n      pop\n      dup4\n      0xffffffffffffffffffffffffffffffffffffffff\n      and\n      0xffffffffffffffffffffffffffffffffffffffff\n      and\n      dup2\n      mstore\n      pop\n      pop\n      pop\n      pop\n        /* \"src/UniswapV3Pool.sol\":6001:6005  step */\n      dup1\n        /* \"src/UniswapV3Pool.sol\":6001:6014  step.amountIn */\n      0x60\n      add\n      mload\n        /* \"src/UniswapV3Pool.sol\":5967:5972  state */\n      dup3\n        /* \"src/UniswapV3Pool.sol\":5967:5997  state.amountSpecifiedRemaining */\n      0x00\n      add\n        /* \"src/UniswapV3Pool.sol\":5967:6014  state.amountSpecifiedRemaining -= step.amountIn */\n      dup2\n      dup2\n      mload\n      tag_127\n      swap2\n      swap1\n      tag_128\n      jump\t// in\n    tag_127:\n      swap2\n      pop\n      dup2\n      dup2\n      mstore\n      pop\n      pop\n        /* \"src/UniswapV3Pool.sol\":6091:6095  step */\n      dup1\n        /* \"src/UniswapV3Pool.sol\":6091:6105  step.amountOut */\n      0x80\n      add\n      mload\n        /* \"src/UniswapV3Pool.sol\":6065:6070  state */\n      dup3\n        /* \"src/UniswapV3Pool.sol\":6065:6087  state.amountCalculated */\n      0x20\n      add\n        /* \"src/UniswapV3Pool.sol\":6065:6105  state.amountCalculated += step.amountOut */\n      dup2\n      dup2\n      mload\n      tag_129\n      swap2\n      swap1\n      tag_109\n      jump\t// in\n    tag_129:\n      swap2\n      pop\n      dup2\n      dup2\n      mstore\n      pop\n      pop\n        /* \"src/UniswapV3Pool.sol\":6191:6238  TickMath.getTickAtSqrtRatio(state.sqrtPriceX96) */\n      tag_130\n        /* \"src/UniswapV3Pool.sol\":6219:6224  state */\n      dup3\n        /* \"src/UniswapV3Pool.sol\":6219:6237  state.sqrtPriceX96 */\n      0x40\n      add\n      mload\n        /* \"src/UniswapV3Pool.sol\":6191:6218  TickMath.getTickAtSqrtRatio */\n      tag_131\n        /* \"src/UniswapV3Pool.sol\":6191:6238  TickMath.getTickAtSqrtRatio(state.sqrtPriceX96) */\n      jump\t// in\n    tag_130:\n        /* \"src/UniswapV3Pool.sol\":6178:6183  state */\n      dup3\n        /* \"src/UniswapV3Pool.sol\":6178:6188  state.tick */\n      0x60\n      add\n        /* \"src/UniswapV3Pool.sol\":6178:6238  state.tick = TickMath.getTickAtSqrtRatio(state.sqrtPriceX96) */\n      swap1\n      0x02\n      signextend\n      swap1\n      dup2\n      0x02\n      signextend\n      dup2\n      mstore\n      pop\n      pop\n        /* \"src/UniswapV3Pool.sol\":5306:6282  {... */\n      pop\n        /* \"src/UniswapV3Pool.sol\":5263:6282  while (state.amountSpecifiedRemaining > 0) {... */\n      jump(tag_118)\n    tag_119:\n        /* \"src/UniswapV3Pool.sol\":6320:6326  slot0_ */\n      dup2\n        /* \"src/UniswapV3Pool.sol\":6320:6331  slot0_.tick */\n      0x20\n      add\n      mload\n        /* \"src/UniswapV3Pool.sol\":6306:6331  state.tick != slot0_.tick */\n      0x02\n      signextend\n        /* \"src/UniswapV3Pool.sol\":6306:6311  state */\n      dup2\n        /* \"src/UniswapV3Pool.sol\":6306:6316  state.tick */\n      0x60\n      add\n      mload\n        /* \"src/UniswapV3Pool.sol\":6306:6331  state.tick != slot0_.tick */\n      0x02\n      signextend\n      eq\n        /* \"src/UniswapV3Pool.sol\":6302:6427  if (state.tick != slot0_.tick) {... */\n      tag_132\n      jumpi\n        /* \"src/UniswapV3Pool.sol\":6384:6389  state */\n      dup1\n        /* \"src/UniswapV3Pool.sol\":6384:6402  state.sqrtPriceX96 */\n      0x40\n      add\n      mload\n        /* \"src/UniswapV3Pool.sol\":6404:6409  state */\n      dup2\n        /* \"src/UniswapV3Pool.sol\":6404:6414  state.tick */\n      0x60\n      add\n      mload\n        /* \"src/UniswapV3Pool.sol\":6349:6354  slot0 */\n      0x00\n        /* \"src/UniswapV3Pool.sol\":6349:6367  slot0.sqrtPriceX96 */\n      0x00\n      add\n      0x00\n        /* \"src/UniswapV3Pool.sol\":6369:6374  slot0 */\n      0x00\n        /* \"src/UniswapV3Pool.sol\":6369:6379  slot0.tick */\n      0x00\n      add\n      0x14\n        /* \"src/UniswapV3Pool.sol\":6348:6415  (slot0.sqrtPriceX96, slot0.tick) = (state.sqrtPriceX96, state.tick) */\n      dup5\n      swap2\n      swap1\n      0x0100\n      exp\n      dup2\n      sload\n      dup2\n      0xffffff\n      mul\n      not\n      and\n      swap1\n      dup4\n      0x02\n      signextend\n      0xffffff\n      and\n      mul\n      or\n      swap1\n      sstore\n      pop\n      dup4\n      swap2\n      swap1\n      0x0100\n      exp\n      dup2\n      sload\n      dup2\n      0xffffffffffffffffffffffffffffffffffffffff\n      mul\n      not\n      and\n      swap1\n      dup4\n      0xffffffffffffffffffffffffffffffffffffffff\n      and\n      mul\n      or\n      swap1\n      sstore\n      pop\n      pop\n      pop\n        /* \"src/UniswapV3Pool.sol\":6302:6427  if (state.tick != slot0_.tick) {... */\n    tag_132:\n        /* \"src/UniswapV3Pool.sol\":6460:6470  zeroForOne */\n      dup8\n        /* \"src/UniswapV3Pool.sol\":6460:6782  zeroForOne... */\n      tag_133\n      jumpi\n        /* \"src/UniswapV3Pool.sol\":6669:6674  state */\n      dup1\n        /* \"src/UniswapV3Pool.sol\":6669:6691  state.amountCalculated */\n      0x20\n      add\n      mload\n        /* \"src/UniswapV3Pool.sol\":6661:6692  -int256(state.amountCalculated) */\n      tag_134\n      swap1\n      tag_135\n      jump\t// in\n    tag_134:\n        /* \"src/UniswapV3Pool.sol\":6736:6741  state */\n      dup2\n        /* \"src/UniswapV3Pool.sol\":6736:6766  state.amountSpecifiedRemaining */\n      0x00\n      add\n      mload\n        /* \"src/UniswapV3Pool.sol\":6718:6733  amountSpecified */\n      dup9\n        /* \"src/UniswapV3Pool.sol\":6718:6766  amountSpecified - state.amountSpecifiedRemaining */\n      tag_136\n      swap2\n      swap1\n      tag_128\n      jump\t// in\n    tag_136:\n        /* \"src/UniswapV3Pool.sol\":6460:6782  zeroForOne... */\n      jump(tag_137)\n    tag_133:\n        /* \"src/UniswapV3Pool.sol\":6530:6535  state */\n      dup1\n        /* \"src/UniswapV3Pool.sol\":6530:6560  state.amountSpecifiedRemaining */\n      0x00\n      add\n      mload\n        /* \"src/UniswapV3Pool.sol\":6512:6527  amountSpecified */\n      dup8\n        /* \"src/UniswapV3Pool.sol\":6512:6560  amountSpecified - state.amountSpecifiedRemaining */\n      tag_138\n      swap2\n      swap1\n      tag_128\n      jump\t// in\n    tag_138:\n        /* \"src/UniswapV3Pool.sol\":6588:6593  state */\n      dup2\n        /* \"src/UniswapV3Pool.sol\":6588:6610  state.amountCalculated */\n      0x20\n      add\n      mload\n        /* \"src/UniswapV3Pool.sol\":6580:6611  -int256(state.amountCalculated) */\n      tag_139\n      swap1\n      tag_135\n      jump\t// in\n    tag_139:\n        /* \"src/UniswapV3Pool.sol\":6460:6782  zeroForOne... */\n    tag_137:\n        /* \"src/UniswapV3Pool.sol\":6439:6782  (amount0, amount1) = zeroForOne... */\n      dup1\n      swap5\n      pop\n      dup2\n      swap6\n      pop\n      pop\n      pop\n        /* \"src/UniswapV3Pool.sol\":6799:6809  zeroForOne */\n      dup8\n        /* \"src/UniswapV3Pool.sol\":6795:7635  if (zeroForOne) {... */\n      iszero\n      tag_140\n      jumpi\n        /* \"src/UniswapV3Pool.sol\":6833:6839  token1 */\n      immutable(\"0xcd41b8bf8f20f7ad95d96d948a315af225b219053fc98a80aee13063b692b681\")\n        /* \"src/UniswapV3Pool.sol\":6826:6849  IERC20(token1).transfer */\n      0xffffffffffffffffffffffffffffffffffffffff\n      and\n      0xa9059cbb\n        /* \"src/UniswapV3Pool.sol\":6850:6859  recipient */\n      dup11\n        /* \"src/UniswapV3Pool.sol\":6870:6877  amount1 */\n      dup6\n        /* \"src/UniswapV3Pool.sol\":6869:6877  -amount1 */\n      tag_141\n      swap1\n      tag_135\n      jump\t// in\n    tag_141:\n        /* \"src/UniswapV3Pool.sol\":6826:6879  IERC20(token1).transfer(recipient, uint256(-amount1)) */\n      mload(0x40)\n      dup4\n      0xffffffff\n      and\n      0xe0\n      shl\n      dup2\n      mstore\n      0x04\n      add\n      tag_142\n      swap3\n      swap2\n      swap1\n      tag_143\n      jump\t// in\n    tag_142:\n      0x20\n      mload(0x40)\n      dup1\n      dup4\n      sub\n      dup2\n      0x00\n      dup8\n      gas\n      call\n      iszero\n      dup1\n      iszero\n      tag_145\n      jumpi\n      returndatacopy(0x00, 0x00, returndatasize)\n      revert(0x00, returndatasize)\n    tag_145:\n      pop\n      pop\n      pop\n      pop\n      mload(0x40)\n      returndatasize\n      not(0x1f)\n      0x1f\n      dup3\n      add\n      and\n      dup3\n      add\n      dup1\n      0x40\n      mstore\n      pop\n      dup2\n      add\n      swap1\n      tag_146\n      swap2\n      swap1\n      tag_147\n      jump\t// in\n    tag_146:\n      pop\n        /* \"src/UniswapV3Pool.sol\":6896:6918  uint256 balance0Before */\n      0x00\n        /* \"src/UniswapV3Pool.sol\":6921:6931  balance0() */\n      tag_148\n        /* \"src/UniswapV3Pool.sol\":6921:6929  balance0 */\n      tag_97\n        /* \"src/UniswapV3Pool.sol\":6921:6931  balance0() */\n      jump\t// in\n    tag_148:\n        /* \"src/UniswapV3Pool.sol\":6896:6931  uint256 balance0Before = balance0() */\n      swap1\n      pop\n        /* \"src/UniswapV3Pool.sol\":6969:6979  msg.sender */\n      caller\n        /* \"src/UniswapV3Pool.sol\":6946:7002  IUniswapV3SwapCallback(msg.sender).uniswapV3SwapCallback */\n      0xffffffffffffffffffffffffffffffffffffffff\n      and\n      0xfa461e33\n        /* \"src/UniswapV3Pool.sol\":7021:7028  amount0 */\n      dup7\n        /* \"src/UniswapV3Pool.sol\":7047:7054  amount1 */\n      dup7\n        /* \"src/UniswapV3Pool.sol\":7073:7077  data */\n      dup11\n      dup11\n        /* \"src/UniswapV3Pool.sol\":6946:7092  IUniswapV3SwapCallback(msg.sender).uniswapV3SwapCallback(... */\n      mload(0x40)\n      dup6\n      0xffffffff\n      and\n      0xe0\n      shl\n      dup2\n      mstore\n      0x04\n      add\n      tag_149\n      swap5\n      swap4\n      swap3\n      swap2\n      swap1\n      tag_150\n      jump\t// in\n    tag_149:\n      0x00\n      mload(0x40)\n      dup1\n      dup4\n      sub\n      dup2\n      0x00\n      dup8\n      dup1\n      extcodesize\n      iszero\n      dup1\n      iszero\n      tag_151\n      jumpi\n      revert(0x00, 0x00)\n    tag_151:\n      pop\n      gas\n      call\n      iszero\n      dup1\n      iszero\n      tag_153\n      jumpi\n      returndatacopy(0x00, 0x00, returndatasize)\n      revert(0x00, returndatasize)\n    tag_153:\n      pop\n      pop\n      pop\n      pop\n        /* \"src/UniswapV3Pool.sol\":7147:7157  balance0() */\n      tag_154\n        /* \"src/UniswapV3Pool.sol\":7147:7155  balance0 */\n      tag_97\n        /* \"src/UniswapV3Pool.sol\":7147:7157  balance0() */\n      jump\t// in\n    tag_154:\n        /* \"src/UniswapV3Pool.sol\":7136:7143  amount0 */\n      dup6\n        /* \"src/UniswapV3Pool.sol\":7111:7125  balance0Before */\n      dup3\n        /* \"src/UniswapV3Pool.sol\":7111:7144  balance0Before + uint256(amount0) */\n      tag_155\n      swap2\n      swap1\n      tag_109\n      jump\t// in\n    tag_155:\n        /* \"src/UniswapV3Pool.sol\":7111:7157  balance0Before + uint256(amount0) > balance0() */\n      gt\n        /* \"src/UniswapV3Pool.sol\":7107:7208  if (balance0Before + uint256(amount0) > balance0())... */\n      iszero\n      tag_156\n      jumpi\n        /* \"src/UniswapV3Pool.sol\":7183:7208  InsufficientInputAmount() */\n      mload(0x40)\n      0x098fb56100000000000000000000000000000000000000000000000000000000\n      dup2\n      mstore\n      0x04\n      add\n      mload(0x40)\n      dup1\n      swap2\n      sub\n      swap1\n      revert\n        /* \"src/UniswapV3Pool.sol\":7107:7208  if (balance0Before + uint256(amount0) > balance0())... */\n    tag_156:\n        /* \"src/UniswapV3Pool.sol\":6811:7220  {... */\n      pop\n        /* \"src/UniswapV3Pool.sol\":6795:7635  if (zeroForOne) {... */\n      jump(tag_157)\n    tag_140:\n        /* \"src/UniswapV3Pool.sol\":7248:7254  token0 */\n      immutable(\"0x215d56ac8bbcf4ec574772ebea743ba30ac9d1c5e1b1ff899e5de1045f5df803\")\n        /* \"src/UniswapV3Pool.sol\":7241:7264  IERC20(token0).transfer */\n      0xffffffffffffffffffffffffffffffffffffffff\n      and\n      0xa9059cbb\n        /* \"src/UniswapV3Pool.sol\":7265:7274  recipient */\n      dup11\n        /* \"src/UniswapV3Pool.sol\":7285:7292  amount0 */\n      dup7\n        /* \"src/UniswapV3Pool.sol\":7284:7292  -amount0 */\n      tag_158\n      swap1\n      tag_135\n      jump\t// in\n    tag_158:\n        /* \"src/UniswapV3Pool.sol\":7241:7294  IERC20(token0).transfer(recipient, uint256(-amount0)) */\n      mload(0x40)\n      dup4\n      0xffffffff\n      and\n      0xe0\n      shl\n      dup2\n      mstore\n      0x04\n      add\n      tag_159\n      swap3\n      swap2\n      swap1\n      tag_143\n      jump\t// in\n    tag_159:\n      0x20\n      mload(0x40)\n      dup1\n      dup4\n      sub\n      dup2\n      0x00\n      dup8\n      gas\n      call\n      iszero\n      dup1\n      iszero\n      tag_161\n      jumpi\n      returndatacopy(0x00, 0x00, returndatasize)\n      revert(0x00, returndatasize)\n    tag_161:\n      pop\n      pop\n      pop\n      pop\n      mload(0x40)\n      returndatasize\n      not(0x1f)\n      0x1f\n      dup3\n      add\n      and\n      dup3\n      add\n      dup1\n      0x40\n      mstore\n      pop\n      dup2\n      add\n      swap1\n      tag_162\n      swap2\n      swap1\n      tag_147\n      jump\t// in\n    tag_162:\n      pop\n        /* \"src/UniswapV3Pool.sol\":7311:7333  uint256 balance1Before */\n      0x00\n        /* \"src/UniswapV3Pool.sol\":7336:7346  balance1() */\n      tag_163\n        /* \"src/UniswapV3Pool.sol\":7336:7344  balance1 */\n      tag_100\n        /* \"src/UniswapV3Pool.sol\":7336:7346  balance1() */\n      jump\t// in\n    tag_163:\n        /* \"src/UniswapV3Pool.sol\":7311:7346  uint256 balance1Before = balance1() */\n      swap1\n      pop\n        /* \"src/UniswapV3Pool.sol\":7384:7394  msg.sender */\n      caller\n        /* \"src/UniswapV3Pool.sol\":7361:7417  IUniswapV3SwapCallback(msg.sender).uniswapV3SwapCallback */\n      0xffffffffffffffffffffffffffffffffffffffff\n      and\n      0xfa461e33\n        /* \"src/UniswapV3Pool.sol\":7436:7443  amount0 */\n      dup7\n        /* \"src/UniswapV3Pool.sol\":7462:7469  amount1 */\n      dup7\n        /* \"src/UniswapV3Pool.sol\":7488:7492  data */\n      dup11\n      dup11\n        /* \"src/UniswapV3Pool.sol\":7361:7507  IUniswapV3SwapCallback(msg.sender).uniswapV3SwapCallback(... */\n      mload(0x40)\n      dup6\n      0xffffffff\n      and\n      0xe0\n      shl\n      dup2\n      mstore\n      0x04\n      add\n      tag_164\n      swap5\n      swap4\n      swap3\n      swap2\n      swap1\n      tag_150\n      jump\t// in\n    tag_164:\n      0x00\n      mload(0x40)\n      dup1\n      dup4\n      sub\n      dup2\n      0x00\n      dup8\n      dup1\n      extcodesize\n      iszero\n      dup1\n      iszero\n      tag_165\n      jumpi\n      revert(0x00, 0x00)\n    tag_165:\n      pop\n      gas\n      call\n      iszero\n      dup1\n      iszero\n      tag_167\n      jumpi\n      returndatacopy(0x00, 0x00, returndatasize)\n      revert(0x00, returndatasize)\n    tag_167:\n      pop\n      pop\n      pop\n      pop\n        /* \"src/UniswapV3Pool.sol\":7562:7572  balance1() */\n      tag_168\n        /* \"src/UniswapV3Pool.sol\":7562:7570  balance1 */\n      tag_100\n        /* \"src/UniswapV3Pool.sol\":7562:7572  balance1() */\n      jump\t// in\n    tag_168:\n        /* \"src/UniswapV3Pool.sol\":7551:7558  amount1 */\n      dup5\n        /* \"src/UniswapV3Pool.sol\":7526:7540  balance1Before */\n      dup3\n        /* \"src/UniswapV3Pool.sol\":7526:7559  balance1Before + uint256(amount1) */\n      tag_169\n      swap2\n      swap1\n      tag_109\n      jump\t// in\n    tag_169:\n        /* \"src/UniswapV3Pool.sol\":7526:7572  balance1Before + uint256(amount1) > balance1() */\n      gt\n        /* \"src/UniswapV3Pool.sol\":7522:7623  if (balance1Before + uint256(amount1) > balance1())... */\n      iszero\n      tag_170\n      jumpi\n        /* \"src/UniswapV3Pool.sol\":7598:7623  InsufficientInputAmount() */\n      mload(0x40)\n      0x098fb56100000000000000000000000000000000000000000000000000000000\n      dup2\n      mstore\n      0x04\n      add\n      mload(0x40)\n      dup1\n      swap2\n      sub\n      swap1\n      revert\n        /* \"src/UniswapV3Pool.sol\":7522:7623  if (balance1Before + uint256(amount1) > balance1())... */\n    tag_170:\n        /* \"src/UniswapV3Pool.sol\":7226:7635  {... */\n      pop\n        /* \"src/UniswapV3Pool.sol\":6795:7635  if (zeroForOne) {... */\n    tag_157:\n        /* \"src/UniswapV3Pool.sol\":7697:7706  recipient */\n      dup9\n        /* \"src/UniswapV3Pool.sol\":7653:7843  Swap(... */\n      0xffffffffffffffffffffffffffffffffffffffff\n      and\n        /* \"src/UniswapV3Pool.sol\":7672:7682  msg.sender */\n      caller\n        /* \"src/UniswapV3Pool.sol\":7653:7843  Swap(... */\n      0xffffffffffffffffffffffffffffffffffffffff\n      and\n      0xc42079f94a6350d7e6235f29174924f928cc2ac818eb64fed8004e115fbcca67\n        /* \"src/UniswapV3Pool.sol\":7721:7728  amount0 */\n      dup7\n        /* \"src/UniswapV3Pool.sol\":7743:7750  amount1 */\n      dup7\n        /* \"src/UniswapV3Pool.sol\":7765:7770  slot0 */\n      0x00\n        /* \"src/UniswapV3Pool.sol\":7765:7783  slot0.sqrtPriceX96 */\n      0x00\n      add\n      0x00\n      swap1\n      sload\n      swap1\n      0x0100\n      exp\n      swap1\n      div\n      0xffffffffffffffffffffffffffffffffffffffff\n      and\n        /* \"src/UniswapV3Pool.sol\":7798:7807  liquidity */\n      0x01\n      0x00\n      swap1\n      sload\n      swap1\n      0x0100\n      exp\n      swap1\n      div\n      0xffffffffffffffffffffffffffffffff\n      and\n        /* \"src/UniswapV3Pool.sol\":7822:7827  slot0 */\n      0x00\n        /* \"src/UniswapV3Pool.sol\":7822:7832  slot0.tick */\n      0x00\n      add\n      0x14\n      swap1\n      sload\n      swap1\n      0x0100\n      exp\n      swap1\n      div\n      0x02\n      signextend\n        /* \"src/UniswapV3Pool.sol\":7653:7843  Swap(... */\n      mload(0x40)\n      tag_171\n      swap6\n      swap5\n      swap4\n      swap3\n      swap2\n      swap1\n      tag_172\n      jump\t// in\n    tag_171:\n      mload(0x40)\n      dup1\n      swap2\n      sub\n      swap1\n      log3\n        /* \"src/UniswapV3Pool.sol\":4982:7851  {... */\n      pop\n      pop\n        /* \"src/UniswapV3Pool.sol\":4699:7851  function swap(... */\n      swap6\n      pop\n      swap6\n      swap4\n      pop\n      pop\n      pop\n      pop\n      jump\t// out\n        /* \"src/UniswapV3Pool.sol\":981:1012  address public immutable token1 */\n    tag_49:\n      immutable(\"0xcd41b8bf8f20f7ad95d96d948a315af225b219053fc98a80aee13063b692b681\")\n      dup2\n      jump\t// out\n        /* \"src/UniswapV3Pool.sol\":1299:1339  mapping(int24 => Tick.Info) public ticks */\n    tag_54:\n      mstore(0x20, 0x02)\n      dup1\n      0x00\n      mstore\n      keccak256(0x00, 0x40)\n      0x00\n      swap2\n      pop\n      swap1\n      pop\n      dup1\n      0x00\n      add\n      0x00\n      swap1\n      sload\n      swap1\n      0x0100\n      exp\n      swap1\n      div\n      0xff\n      and\n      swap1\n      dup1\n      0x00\n      add\n      0x01\n      swap1\n      sload\n      swap1\n      0x0100\n      exp\n      swap1\n      div\n      0xffffffffffffffffffffffffffffffff\n      and\n      swap1\n      pop\n      dup3\n      jump\t// out\n        /* \"src/lib/Tick.sol\":160:695  function update(... */\n    tag_65:\n        /* \"src/lib/Tick.sol\":302:314  bool flipped */\n      0x00\n        /* \"src/lib/Tick.sol\":326:352  Tick.Info storage tickInfo */\n      0x00\n        /* \"src/lib/Tick.sol\":355:359  self */\n      dup5\n        /* \"src/lib/Tick.sol\":355:365  self[tick] */\n      0x00\n        /* \"src/lib/Tick.sol\":360:364  tick */\n      dup6\n        /* \"src/lib/Tick.sol\":355:365  self[tick] */\n      0x02\n      signextend\n      0x02\n      signextend\n      dup2\n      mstore\n      0x20\n      add\n      swap1\n      dup2\n      mstore\n      0x20\n      add\n      0x00\n      keccak256\n        /* \"src/lib/Tick.sol\":326:365  Tick.Info storage tickInfo = self[tick] */\n      swap1\n      pop\n        /* \"src/lib/Tick.sol\":375:398  uint128 liquidityBefore */\n      0x00\n        /* \"src/lib/Tick.sol\":401:409  tickInfo */\n      dup2\n        /* \"src/lib/Tick.sol\":401:419  tickInfo.liquidity */\n      0x00\n      add\n      0x01\n      swap1\n      sload\n      swap1\n      0x0100\n      exp\n      swap1\n      div\n      0xffffffffffffffffffffffffffffffff\n      and\n        /* \"src/lib/Tick.sol\":375:419  uint128 liquidityBefore = tickInfo.liquidity */\n      swap1\n      pop\n        /* \"src/lib/Tick.sol\":429:451  uint128 liquidityAfter */\n      0x00\n        /* \"src/lib/Tick.sol\":472:486  liquidityDelta */\n      dup5\n        /* \"src/lib/Tick.sol\":454:469  liquidityBefore */\n      dup3\n        /* \"src/lib/Tick.sol\":454:486  liquidityBefore + liquidityDelta */\n      tag_174\n      swap2\n      swap1\n      tag_90\n      jump\t// in\n    tag_174:\n        /* \"src/lib/Tick.sol\":429:486  uint128 liquidityAfter = liquidityBefore + liquidityDelta */\n      swap1\n      pop\n        /* \"src/lib/Tick.sol\":552:553  0 */\n      0x00\n        /* \"src/lib/Tick.sol\":533:548  liquidityBefore */\n      dup3\n        /* \"src/lib/Tick.sol\":533:553  liquidityBefore == 0 */\n      0xffffffffffffffffffffffffffffffff\n      and\n      eq\n        /* \"src/lib/Tick.sol\":507:554  (liquidityAfter == 0) != (liquidityBefore == 0) */\n      iszero\n      iszero\n        /* \"src/lib/Tick.sol\":526:527  0 */\n      0x00\n        /* \"src/lib/Tick.sol\":508:522  liquidityAfter */\n      dup3\n        /* \"src/lib/Tick.sol\":508:527  liquidityAfter == 0 */\n      0xffffffffffffffffffffffffffffffff\n      and\n      eq\n        /* \"src/lib/Tick.sol\":507:554  (liquidityAfter == 0) != (liquidityBefore == 0) */\n      iszero\n      iszero\n      eq\n      iszero\n        /* \"src/lib/Tick.sol\":497:554  flipped = (liquidityAfter == 0) != (liquidityBefore == 0) */\n      swap4\n      pop\n        /* \"src/lib/Tick.sol\":588:589  0 */\n      0x00\n        /* \"src/lib/Tick.sol\":569:584  liquidityBefore */\n      dup3\n        /* \"src/lib/Tick.sol\":569:589  liquidityBefore == 0 */\n      0xffffffffffffffffffffffffffffffff\n      and\n      sub\n        /* \"src/lib/Tick.sol\":565:643  if (liquidityBefore == 0) {... */\n      tag_175\n      jumpi\n        /* \"src/lib/Tick.sol\":628:632  true */\n      0x01\n        /* \"src/lib/Tick.sol\":605:613  tickInfo */\n      dup4\n        /* \"src/lib/Tick.sol\":605:625  tickInfo.initialized */\n      0x00\n      add\n      0x00\n        /* \"src/lib/Tick.sol\":605:632  tickInfo.initialized = true */\n      0x0100\n      exp\n      dup2\n      sload\n      dup2\n      0xff\n      mul\n      not\n      and\n      swap1\n      dup4\n      iszero\n      iszero\n      mul\n      or\n      swap1\n      sstore\n      pop\n        /* \"src/lib/Tick.sol\":565:643  if (liquidityBefore == 0) {... */\n    tag_175:\n        /* \"src/lib/Tick.sol\":674:688  liquidityAfter */\n      dup1\n        /* \"src/lib/Tick.sol\":653:661  tickInfo */\n      dup4\n        /* \"src/lib/Tick.sol\":653:671  tickInfo.liquidity */\n      0x00\n      add\n      0x01\n        /* \"src/lib/Tick.sol\":653:688  tickInfo.liquidity = liquidityAfter */\n      0x0100\n      exp\n      dup2\n      sload\n      dup2\n      0xffffffffffffffffffffffffffffffff\n      mul\n      not\n      and\n      swap1\n      dup4\n      0xffffffffffffffffffffffffffffffff\n      and\n      mul\n      or\n      swap1\n      sstore\n      pop\n        /* \"src/lib/Tick.sol\":316:695  {... */\n      pop\n      pop\n      pop\n        /* \"src/lib/Tick.sol\":160:695  function update(... */\n      swap4\n      swap3\n      pop\n      pop\n      pop\n      jump\t// out\n        /* \"src/lib/TickBitmap.sol\":1110:1458  function flipTick(... */\n    tag_69:\n        /* \"src/lib/TickBitmap.sol\":1278:1279  0 */\n      0x00\n        /* \"src/lib/TickBitmap.sol\":1263:1274  tickSpacing */\n      dup2\n        /* \"src/lib/TickBitmap.sol\":1256:1260  tick */\n      dup4\n        /* \"src/lib/TickBitmap.sol\":1256:1274  tick % tickSpacing */\n      tag_177\n      swap2\n      swap1\n      tag_178\n      jump\t// in\n    tag_177:\n        /* \"src/lib/TickBitmap.sol\":1256:1279  tick % tickSpacing == 0 */\n      0x02\n      signextend\n      eq\n        /* \"src/lib/TickBitmap.sol\":1248:1280  require(tick % tickSpacing == 0) */\n      tag_179\n      jumpi\n      revert(0x00, 0x00)\n    tag_179:\n        /* \"src/lib/TickBitmap.sol\":1325:1338  int16 wordPos */\n      0x00\n        /* \"src/lib/TickBitmap.sol\":1340:1352  uint8 bitPos */\n      0x00\n        /* \"src/lib/TickBitmap.sol\":1356:1384  position(tick / tickSpacing) */\n      tag_180\n        /* \"src/lib/TickBitmap.sol\":1372:1383  tickSpacing */\n      dup4\n        /* \"src/lib/TickBitmap.sol\":1365:1369  tick */\n      dup6\n        /* \"src/lib/TickBitmap.sol\":1365:1383  tick / tickSpacing */\n      tag_181\n      swap2\n      swap1\n      tag_182\n      jump\t// in\n    tag_181:\n        /* \"src/lib/TickBitmap.sol\":1356:1364  position */\n      tag_183\n        /* \"src/lib/TickBitmap.sol\":1356:1384  position(tick / tickSpacing) */\n      jump\t// in\n    tag_180:\n        /* \"src/lib/TickBitmap.sol\":1324:1384  (int16 wordPos, uint8 bitPos) = position(tick / tickSpacing) */\n      swap2\n      pop\n      swap2\n      pop\n        /* \"src/lib/TickBitmap.sol\":1394:1406  uint256 mask */\n      0x00\n        /* \"src/lib/TickBitmap.sol\":1414:1420  bitPos */\n      dup2\n        /* \"src/lib/TickBitmap.sol\":1409:1420  1 << bitPos */\n      0xff\n      and\n        /* \"src/lib/TickBitmap.sol\":1409:1410  1 */\n      0x01\n        /* \"src/lib/TickBitmap.sol\":1409:1420  1 << bitPos */\n      swap1\n      shl\n        /* \"src/lib/TickBitmap.sol\":1394:1420  uint256 mask = 1 << bitPos */\n      swap1\n      pop\n        /* \"src/lib/TickBitmap.sol\":1447:1451  mask */\n      dup1\n        /* \"src/lib/TickBitmap.sol\":1430:1434  self */\n      dup7\n        /* \"src/lib/TickBitmap.sol\":1430:1443  self[wordPos] */\n      0x00\n        /* \"src/lib/TickBitmap.sol\":1435:1442  wordPos */\n      dup6\n        /* \"src/lib/TickBitmap.sol\":1430:1443  self[wordPos] */\n      0x01\n      signextend\n      0x01\n      signextend\n      dup2\n      mstore\n      0x20\n      add\n      swap1\n      dup2\n      mstore\n      0x20\n      add\n      0x00\n      keccak256\n      0x00\n        /* \"src/lib/TickBitmap.sol\":1430:1451  self[wordPos] ^= mask */\n      dup3\n      dup3\n      sload\n      xor\n      swap3\n      pop\n      pop\n      dup2\n      swap1\n      sstore\n      pop\n        /* \"src/lib/TickBitmap.sol\":1238:1458  {... */\n      pop\n      pop\n      pop\n        /* \"src/lib/TickBitmap.sol\":1110:1458  function flipTick(... */\n      pop\n      pop\n      pop\n      jump\t// out\n        /* \"src/lib/Position.sol\":138:444  function get(... */\n    tag_73:\n        /* \"src/lib/Position.sol\":300:330  Position.Info storage position */\n      0x00\n        /* \"src/lib/Position.sol\":353:357  self */\n      dup5\n        /* \"src/lib/Position.sol\":353:437  self[... */\n      0x00\n        /* \"src/lib/Position.sol\":398:403  owner */\n      dup6\n        /* \"src/lib/Position.sol\":405:414  lowerTick */\n      dup6\n        /* \"src/lib/Position.sol\":416:425  upperTick */\n      dup6\n        /* \"src/lib/Position.sol\":381:426  abi.encodePacked(owner, lowerTick, upperTick) */\n      add(0x20, mload(0x40))\n      tag_185\n      swap4\n      swap3\n      swap2\n      swap1\n      tag_186\n      jump\t// in\n    tag_185:\n      mload(0x40)\n      0x20\n      dup2\n      dup4\n      sub\n      sub\n      dup2\n      mstore\n      swap1\n      0x40\n      mstore\n        /* \"src/lib/Position.sol\":371:427  keccak256(abi.encodePacked(owner, lowerTick, upperTick)) */\n      dup1\n      mload\n      swap1\n      0x20\n      add\n      keccak256\n        /* \"src/lib/Position.sol\":353:437  self[... */\n      dup2\n      mstore\n      0x20\n      add\n      swap1\n      dup2\n      mstore\n      0x20\n      add\n      0x00\n      keccak256\n        /* \"src/lib/Position.sol\":342:437  position = self[... */\n      swap1\n      pop\n        /* \"src/lib/Position.sol\":138:444  function get(... */\n      swap5\n      swap4\n      pop\n      pop\n      pop\n      pop\n      jump\t// out\n        /* \"src/lib/Position.sol\":450:684  function update(Info storage self, uint128 liquidityDelta) internal {... */\n    tag_75:\n        /* \"src/lib/Position.sol\":528:551  uint128 liquidityBefore */\n      0x00\n        /* \"src/lib/Position.sol\":554:558  self */\n      dup3\n        /* \"src/lib/Position.sol\":554:568  self.liquidity */\n      0x00\n      add\n      0x00\n      swap1\n      sload\n      swap1\n      0x0100\n      exp\n      swap1\n      div\n      0xffffffffffffffffffffffffffffffff\n      and\n        /* \"src/lib/Position.sol\":528:568  uint128 liquidityBefore = self.liquidity */\n      swap1\n      pop\n        /* \"src/lib/Position.sol\":578:600  uint128 liquidityAfter */\n      0x00\n        /* \"src/lib/Position.sol\":621:635  liquidityDelta */\n      dup3\n        /* \"src/lib/Position.sol\":603:618  liquidityBefore */\n      dup3\n        /* \"src/lib/Position.sol\":603:635  liquidityBefore + liquidityDelta */\n      tag_188\n      swap2\n      swap1\n      tag_90\n      jump\t// in\n    tag_188:\n        /* \"src/lib/Position.sol\":578:635  uint128 liquidityAfter = liquidityBefore + liquidityDelta */\n      swap1\n      pop\n        /* \"src/lib/Position.sol\":663:677  liquidityAfter */\n      dup1\n        /* \"src/lib/Position.sol\":646:650  self */\n      dup5\n        /* \"src/lib/Position.sol\":646:660  self.liquidity */\n      0x00\n      add\n      0x00\n        /* \"src/lib/Position.sol\":646:677  self.liquidity = liquidityAfter */\n      0x0100\n      exp\n      dup2\n      sload\n      dup2\n      0xffffffffffffffffffffffffffffffff\n      mul\n      not\n      and\n      swap1\n      dup4\n      0xffffffffffffffffffffffffffffffff\n      and\n      mul\n      or\n      swap1\n      sstore\n      pop\n        /* \"src/lib/Position.sol\":518:684  {... */\n      pop\n      pop\n        /* \"src/lib/Position.sol\":450:684  function update(Info storage self, uint128 liquidityDelta) internal {... */\n      pop\n      pop\n      jump\t// out\n        /* \"src/lib/TickMath.sol\":1355:3943  function getSqrtRatioAtTick(int24 tick) internal pure returns (uint160 sqrtPriceX96) {... */\n    tag_79:\n        /* \"src/lib/TickMath.sol\":1418:1438  uint160 sqrtPriceX96 */\n      0x00\n        /* \"src/lib/TickMath.sol\":1450:1465  uint256 absTick */\n      0x00\n        /* \"src/lib/TickMath.sol\":1475:1476  0 */\n      0x00\n        /* \"src/lib/TickMath.sol\":1468:1472  tick */\n      dup4\n        /* \"src/lib/TickMath.sol\":1468:1476  tick < 0 */\n      0x02\n      signextend\n      slt\n        /* \"src/lib/TickMath.sol\":1468:1525  tick < 0 ? uint256(-int256(tick)) : uint256(int256(tick)) */\n      tag_190\n      jumpi\n        /* \"src/lib/TickMath.sol\":1519:1523  tick */\n      dup3\n        /* \"src/lib/TickMath.sol\":1512:1524  int256(tick) */\n      0x02\n      signextend\n        /* \"src/lib/TickMath.sol\":1468:1525  tick < 0 ? uint256(-int256(tick)) : uint256(int256(tick)) */\n      jump(tag_191)\n    tag_190:\n        /* \"src/lib/TickMath.sol\":1495:1499  tick */\n      dup3\n        /* \"src/lib/TickMath.sol\":1488:1500  int256(tick) */\n      0x02\n      signextend\n        /* \"src/lib/TickMath.sol\":1487:1500  -int256(tick) */\n      tag_192\n      swap1\n      tag_135\n      jump\t// in\n    tag_192:\n        /* \"src/lib/TickMath.sol\":1468:1525  tick < 0 ? uint256(-int256(tick)) : uint256(int256(tick)) */\n    tag_191:\n        /* \"src/lib/TickMath.sol\":1450:1525  uint256 absTick = tick < 0 ? uint256(-int256(tick)) : uint256(int256(tick)) */\n      swap1\n      pop\n        /* \"src/lib/TickMath.sol\":477:484  -887272 */\n      0xfffffffffffffffffffffffffffffffffffffffffffffffffffffffffff27618\n        /* \"src/lib/TickMath.sol\":637:646  -MIN_TICK */\n      tag_193\n      swap1\n      tag_61\n      jump\t// in\n    tag_193:\n        /* \"src/lib/TickMath.sol\":1554:1579  uint256(uint24(MAX_TICK)) */\n      0xffffff\n      and\n        /* \"src/lib/TickMath.sol\":1543:1550  absTick */\n      dup2\n        /* \"src/lib/TickMath.sol\":1543:1579  absTick <= uint256(uint24(MAX_TICK)) */\n      gt\n      iszero\n        /* \"src/lib/TickMath.sol\":1535:1585  require(absTick <= uint256(uint24(MAX_TICK)), 'T') */\n      tag_194\n      jumpi\n      mload(0x40)\n      0x08c379a000000000000000000000000000000000000000000000000000000000\n      dup2\n      mstore\n      0x04\n      add\n      tag_195\n      swap1\n      tag_196\n      jump\t// in\n    tag_195:\n      mload(0x40)\n      dup1\n      swap2\n      sub\n      swap1\n      revert\n    tag_194:\n        /* \"src/lib/TickMath.sol\":1596:1609  uint256 ratio */\n      0x00\n        /* \"src/lib/TickMath.sol\":1629:1630  0 */\n      0x00\n        /* \"src/lib/TickMath.sol\":1622:1625  0x1 */\n      0x01\n        /* \"src/lib/TickMath.sol\":1612:1619  absTick */\n      dup4\n        /* \"src/lib/TickMath.sol\":1612:1625  absTick & 0x1 */\n      and\n        /* \"src/lib/TickMath.sol\":1612:1630  absTick & 0x1 != 0 */\n      sub\n        /* \"src/lib/TickMath.sol\":1612:1705  absTick & 0x1 != 0 ? 0xfffcb933bd6fad37aa2d162d1a594001 : 0x100000000000000000000000000000000 */\n      tag_197\n      jumpi\n        /* \"src/lib/TickMath.sol\":1670:1705  0x100000000000000000000000000000000 */\n      0x0100000000000000000000000000000000\n        /* \"src/lib/TickMath.sol\":1612:1705  absTick & 0x1 != 0 ? 0xfffcb933bd6fad37aa2d162d1a594001 : 0x100000000000000000000000000000000 */\n      jump(tag_198)\n    tag_197:\n        /* \"src/lib/TickMath.sol\":1633:1667  0xfffcb933bd6fad37aa2d162d1a594001 */\n      0xfffcb933bd6fad37aa2d162d1a594001\n        /* \"src/lib/TickMath.sol\":1612:1705  absTick & 0x1 != 0 ? 0xfffcb933bd6fad37aa2d162d1a594001 : 0x100000000000000000000000000000000 */\n    tag_198:\n        /* \"src/lib/TickMath.sol\":1596:1705  uint256 ratio = absTick & 0x1 != 0 ? 0xfffcb933bd6fad37aa2d162d1a594001 : 0x100000000000000000000000000000000 */\n      0xffffffffffffffffffffffffffffffffff\n      and\n      swap1\n      pop\n        /* \"src/lib/TickMath.sol\":1736:1737  0 */\n      0x00\n        /* \"src/lib/TickMath.sol\":1729:1732  0x2 */\n      0x02\n        /* \"src/lib/TickMath.sol\":1719:1726  absTick */\n      dup4\n        /* \"src/lib/TickMath.sol\":1719:1732  absTick & 0x2 */\n      and\n        /* \"src/lib/TickMath.sol\":1719:1737  absTick & 0x2 != 0 */\n      eq\n        /* \"src/lib/TickMath.sol\":1715:1798  if (absTick & 0x2 != 0) ratio = (ratio * 0xfff97272373d413259a46990580e213a) >> 128 */\n      tag_199\n      jumpi\n        /* \"src/lib/TickMath.sol\":1795:1798  128 */\n      0x80\n        /* \"src/lib/TickMath.sol\":1756:1790  0xfff97272373d413259a46990580e213a */\n      0xfff97272373d413259a46990580e213a\n        /* \"src/lib/TickMath.sol\":1748:1753  ratio */\n      dup3\n        /* \"src/lib/TickMath.sol\":1748:1790  ratio * 0xfff97272373d413259a46990580e213a */\n      tag_200\n      swap2\n      swap1\n      tag_201\n      jump\t// in\n    tag_200:\n        /* \"src/lib/TickMath.sol\":1747:1798  (ratio * 0xfff97272373d413259a46990580e213a) >> 128 */\n      swap1\n      shr\n        /* \"src/lib/TickMath.sol\":1739:1798  ratio = (ratio * 0xfff97272373d413259a46990580e213a) >> 128 */\n      swap1\n      pop\n        /* \"src/lib/TickMath.sol\":1715:1798  if (absTick & 0x2 != 0) ratio = (ratio * 0xfff97272373d413259a46990580e213a) >> 128 */\n    tag_199:\n        /* \"src/lib/TickMath.sol\":1829:1830  0 */\n      0x00\n        /* \"src/lib/TickMath.sol\":1822:1825  0x4 */\n      0x04\n        /* \"src/lib/TickMath.sol\":1812:1819  absTick */\n      dup4\n        /* \"src/lib/TickMath.sol\":1812:1825  absTick & 0x4 */\n      and\n        /* \"src/lib/TickMath.sol\":1812:1830  absTick & 0x4 != 0 */\n      eq\n        /* \"src/lib/TickMath.sol\":1808:1891  if (absTick & 0x4 != 0) ratio = (ratio * 0xfff2e50f5f656932ef12357cf3c7fdcc) >> 128 */\n      tag_202\n      jumpi\n        /* \"src/lib/TickMath.sol\":1888:1891  128 */\n      0x80\n        /* \"src/lib/TickMath.sol\":1849:1883  0xfff2e50f5f656932ef12357cf3c7fdcc */\n      0xfff2e50f5f656932ef12357cf3c7fdcc\n        /* \"src/lib/TickMath.sol\":1841:1846  ratio */\n      dup3\n        /* \"src/lib/TickMath.sol\":1841:1883  ratio * 0xfff2e50f5f656932ef12357cf3c7fdcc */\n      tag_203\n      swap2\n      swap1\n      tag_201\n      jump\t// in\n    tag_203:\n        /* \"src/lib/TickMath.sol\":1840:1891  (ratio * 0xfff2e50f5f656932ef12357cf3c7fdcc) >> 128 */\n      swap1\n      shr\n        /* \"src/lib/TickMath.sol\":1832:1891  ratio = (ratio * 0xfff2e50f5f656932ef12357cf3c7fdcc) >> 128 */\n      swap1\n      pop\n        /* \"src/lib/TickMath.sol\":1808:1891  if (absTick & 0x4 != 0) ratio = (ratio * 0xfff2e50f5f656932ef12357cf3c7fdcc) >> 128 */\n    tag_202:\n        /* \"src/lib/TickMath.sol\":1922:1923  0 */\n      0x00\n        /* \"src/lib/TickMath.sol\":1915:1918  0x8 */\n      0x08\n        /* \"src/lib/TickMath.sol\":1905:1912  absTick */\n      dup4\n        /* \"src/lib/TickMath.sol\":1905:1918  absTick & 0x8 */\n      and\n        /* \"src/lib/TickMath.sol\":1905:1923  absTick & 0x8 != 0 */\n      eq\n        /* \"src/lib/TickMath.sol\":1901:1984  if (absTick & 0x8 != 0) ratio = (ratio * 0xffe5caca7e10e4e61c3624eaa0941cd0) >> 128 */\n      tag_204\n      jumpi\n        /* \"src/lib/TickMath.sol\":1981:1984  128 */\n      0x80\n        /* \"src/lib/TickMath.sol\":1942:1976  0xffe5caca7e10e4e61c3624eaa0941cd0 */\n      0xffe5caca7e10e4e61c3624eaa0941cd0\n        /* \"src/lib/TickMath.sol\":1934:1939  ratio */\n      dup3\n        /* \"src/lib/TickMath.sol\":1934:1976  ratio * 0xffe5caca7e10e4e61c3624eaa0941cd0 */\n      tag_205\n      swap2\n      swap1\n      tag_201\n      jump\t// in\n    tag_205:\n        /* \"src/lib/TickMath.sol\":1933:1984  (ratio * 0xffe5caca7e10e4e61c3624eaa0941cd0) >> 128 */\n      swap1\n      shr\n        /* \"src/lib/TickMath.sol\":1925:1984  ratio = (ratio * 0xffe5caca7e10e4e61c3624eaa0941cd0) >> 128 */\n      swap1\n      pop\n        /* \"src/lib/TickMath.sol\":1901:1984  if (absTick & 0x8 != 0) ratio = (ratio * 0xffe5caca7e10e4e61c3624eaa0941cd0) >> 128 */\n    tag_204:\n        /* \"src/lib/TickMath.sol\":2016:2017  0 */\n      0x00\n        /* \"src/lib/TickMath.sol\":2008:2012  0x10 */\n      0x10\n        /* \"src/lib/TickMath.sol\":1998:2005  absTick */\n      dup4\n        /* \"src/lib/TickMath.sol\":1998:2012  absTick & 0x10 */\n      and\n        /* \"src/lib/TickMath.sol\":1998:2017  absTick & 0x10 != 0 */\n      eq\n        /* \"src/lib/TickMath.sol\":1994:2078  if (absTick & 0x10 != 0) ratio = (ratio * 0xffcb9843d60f6159c9db58835c926644) >> 128 */\n      tag_206\n      jumpi\n        /* \"src/lib/TickMath.sol\":2075:2078  128 */\n      0x80\n        /* \"src/lib/TickMath.sol\":2036:2070  0xffcb9843d60f6159c9db58835c926644 */\n      0xffcb9843d60f6159c9db58835c926644\n        /* \"src/lib/TickMath.sol\":2028:2033  ratio */\n      dup3\n        /* \"src/lib/TickMath.sol\":2028:2070  ratio * 0xffcb9843d60f6159c9db58835c926644 */\n      tag_207\n      swap2\n      swap1\n      tag_201\n      jump\t// in\n    tag_207:\n        /* \"src/lib/TickMath.sol\":2027:2078  (ratio * 0xffcb9843d60f6159c9db58835c926644) >> 128 */\n      swap1\n      shr\n        /* \"src/lib/TickMath.sol\":2019:2078  ratio = (ratio * 0xffcb9843d60f6159c9db58835c926644) >> 128 */\n      swap1\n      pop\n        /* \"src/lib/TickMath.sol\":1994:2078  if (absTick & 0x10 != 0) ratio = (ratio * 0xffcb9843d60f6159c9db58835c926644) >> 128 */\n    tag_206:\n        /* \"src/lib/TickMath.sol\":2110:2111  0 */\n      0x00\n        /* \"src/lib/TickMath.sol\":2102:2106  0x20 */\n      0x20\n        /* \"src/lib/TickMath.sol\":2092:2099  absTick */\n      dup4\n        /* \"src/lib/TickMath.sol\":2092:2106  absTick & 0x20 */\n      and\n        /* \"src/lib/TickMath.sol\":2092:2111  absTick & 0x20 != 0 */\n      eq\n        /* \"src/lib/TickMath.sol\":2088:2172  if (absTick & 0x20 != 0) ratio = (ratio * 0xff973b41fa98c081472e6896dfb254c0) >> 128 */\n      tag_208\n      jumpi\n        /* \"src/lib/TickMath.sol\":2169:2172  128 */\n      0x80\n        /* \"src/lib/TickMath.sol\":2130:2164  0xff973b41fa98c081472e6896dfb254c0 */\n      0xff973b41fa98c081472e6896dfb254c0\n        /* \"src/lib/TickMath.sol\":2122:2127  ratio */\n      dup3\n        /* \"src/lib/TickMath.sol\":2122:2164  ratio * 0xff973b41fa98c081472e6896dfb254c0 */\n      tag_209\n      swap2\n      swap1\n      tag_201\n      jump\t// in\n    tag_209:\n        /* \"src/lib/TickMath.sol\":2121:2172  (ratio * 0xff973b41fa98c081472e6896dfb254c0) >> 128 */\n      swap1\n      shr\n        /* \"src/lib/TickMath.sol\":2113:2172  ratio = (ratio * 0xff973b41fa98c081472e6896dfb254c0) >> 128 */\n      swap1\n      pop\n        /* \"src/lib/TickMath.sol\":2088:2172  if (absTick & 0x20 != 0) ratio = (ratio * 0xff973b41fa98c081472e6896dfb254c0) >> 128 */\n    tag_208:\n        /* \"src/lib/TickMath.sol\":2204:2205  0 */\n      0x00\n        /* \"src/lib/TickMath.sol\":2196:2200  0x40 */\n      0x40\n        /* \"src/lib/TickMath.sol\":2186:2193  absTick */\n      dup4\n        /* \"src/lib/TickMath.sol\":2186:2200  absTick & 0x40 */\n      and\n        /* \"src/lib/TickMath.sol\":2186:2205  absTick & 0x40 != 0 */\n      eq\n        /* \"src/lib/TickMath.sol\":2182:2266  if (absTick & 0x40 != 0) ratio = (ratio * 0xff2ea16466c96a3843ec78b326b52861) >> 128 */\n      tag_210\n      jumpi\n        /* \"src/lib/TickMath.sol\":2263:2266  128 */\n      0x80\n        /* \"src/lib/TickMath.sol\":2224:2258  0xff2ea16466c96a3843ec78b326b52861 */\n      0xff2ea16466c96a3843ec78b326b52861\n        /* \"src/lib/TickMath.sol\":2216:2221  ratio */\n      dup3\n        /* \"src/lib/TickMath.sol\":2216:2258  ratio * 0xff2ea16466c96a3843ec78b326b52861 */\n      tag_211\n      swap2\n      swap1\n      tag_201\n      jump\t// in\n    tag_211:\n        /* \"src/lib/TickMath.sol\":2215:2266  (ratio * 0xff2ea16466c96a3843ec78b326b52861) >> 128 */\n      swap1\n      shr\n        /* \"src/lib/TickMath.sol\":2207:2266  ratio = (ratio * 0xff2ea16466c96a3843ec78b326b52861) >> 128 */\n      swap1\n      pop\n        /* \"src/lib/TickMath.sol\":2182:2266  if (absTick & 0x40 != 0) ratio = (ratio * 0xff2ea16466c96a3843ec78b326b52861) >> 128 */\n    tag_210:\n        /* \"src/lib/TickMath.sol\":2298:2299  0 */\n      0x00\n        /* \"src/lib/TickMath.sol\":2290:2294  0x80 */\n      0x80\n        /* \"src/lib/TickMath.sol\":2280:2287  absTick */\n      dup4\n        /* \"src/lib/TickMath.sol\":2280:2294  absTick & 0x80 */\n      and\n        /* \"src/lib/TickMath.sol\":2280:2299  absTick & 0x80 != 0 */\n      eq\n        /* \"src/lib/TickMath.sol\":2276:2360  if (absTick & 0x80 != 0) ratio = (ratio * 0xfe5dee046a99a2a811c461f1969c3053) >> 128 */\n      tag_212\n      jumpi\n        /* \"src/lib/TickMath.sol\":2357:2360  128 */\n      0x80\n        /* \"src/lib/TickMath.sol\":2318:2352  0xfe5dee046a99a2a811c461f1969c3053 */\n      0xfe5dee046a99a2a811c461f1969c3053\n        /* \"src/lib/TickMath.sol\":2310:2315  ratio */\n      dup3\n        /* \"src/lib/TickMath.sol\":2310:2352  ratio * 0xfe5dee046a99a2a811c461f1969c3053 */\n      tag_213\n      swap2\n      swap1\n      tag_201\n      jump\t// in\n    tag_213:\n        /* \"src/lib/TickMath.sol\":2309:2360  (ratio * 0xfe5dee046a99a2a811c461f1969c3053) >> 128 */\n      swap1\n      shr\n        /* \"src/lib/TickMath.sol\":2301:2360  ratio = (ratio * 0xfe5dee046a99a2a811c461f1969c3053) >> 128 */\n      swap1\n      pop\n        /* \"src/lib/TickMath.sol\":2276:2360  if (absTick & 0x80 != 0) ratio = (ratio * 0xfe5dee046a99a2a811c461f1969c3053) >> 128 */\n    tag_212:\n        /* \"src/lib/TickMath.sol\":2393:2394  0 */\n      0x00\n        /* \"src/lib/TickMath.sol\":2384:2389  0x100 */\n      0x0100\n        /* \"src/lib/TickMath.sol\":2374:2381  absTick */\n      dup4\n        /* \"src/lib/TickMath.sol\":2374:2389  absTick & 0x100 */\n      and\n        /* \"src/lib/TickMath.sol\":2374:2394  absTick & 0x100 != 0 */\n      eq\n        /* \"src/lib/TickMath.sol\":2370:2455  if (absTick & 0x100 != 0) ratio = (ratio * 0xfcbe86c7900a88aedcffc83b479aa3a4) >> 128 */\n      tag_214\n      jumpi\n        /* \"src/lib/TickMath.sol\":2452:2455  128 */\n      0x80\n        /* \"src/lib/TickMath.sol\":2413:2447  0xfcbe86c7900a88aedcffc83b479aa3a4 */\n      0xfcbe86c7900a88aedcffc83b479aa3a4\n        /* \"src/lib/TickMath.sol\":2405:2410  ratio */\n      dup3\n        /* \"src/lib/TickMath.sol\":2405:2447  ratio * 0xfcbe86c7900a88aedcffc83b479aa3a4 */\n      tag_215\n      swap2\n      swap1\n      tag_201\n      jump\t// in\n    tag_215:\n        /* \"src/lib/TickMath.sol\":2404:2455  (ratio * 0xfcbe86c7900a88aedcffc83b479aa3a4) >> 128 */\n      swap1\n      shr\n        /* \"src/lib/TickMath.sol\":2396:2455  ratio = (ratio * 0xfcbe86c7900a88aedcffc83b479aa3a4) >> 128 */\n      swap1\n      pop\n        /* \"src/lib/TickMath.sol\":2370:2455  if (absTick & 0x100 != 0) ratio = (ratio * 0xfcbe86c7900a88aedcffc83b479aa3a4) >> 128 */\n    tag_214:\n        /* \"src/lib/TickMath.sol\":2488:2489  0 */\n      0x00\n        /* \"src/lib/TickMath.sol\":2479:2484  0x200 */\n      0x0200\n        /* \"src/lib/TickMath.sol\":2469:2476  absTick */\n      dup4\n        /* \"src/lib/TickMath.sol\":2469:2484  absTick & 0x200 */\n      and\n        /* \"src/lib/TickMath.sol\":2469:2489  absTick & 0x200 != 0 */\n      eq\n        /* \"src/lib/TickMath.sol\":2465:2550  if (absTick & 0x200 != 0) ratio = (ratio * 0xf987a7253ac413176f2b074cf7815e54) >> 128 */\n      tag_216\n      jumpi\n        /* \"src/lib/TickMath.sol\":2547:2550  128 */\n      0x80\n        /* \"src/lib/TickMath.sol\":2508:2542  0xf987a7253ac413176f2b074cf7815e54 */\n      0xf987a7253ac413176f2b074cf7815e54\n        /* \"src/lib/TickMath.sol\":2500:2505  ratio */\n      dup3\n        /* \"src/lib/TickMath.sol\":2500:2542  ratio * 0xf987a7253ac413176f2b074cf7815e54 */\n      tag_217\n      swap2\n      swap1\n      tag_201\n      jump\t// in\n    tag_217:\n        /* \"src/lib/TickMath.sol\":2499:2550  (ratio * 0xf987a7253ac413176f2b074cf7815e54) >> 128 */\n      swap1\n      shr\n        /* \"src/lib/TickMath.sol\":2491:2550  ratio = (ratio * 0xf987a7253ac413176f2b074cf7815e54) >> 128 */\n      swap1\n      pop\n        /* \"src/lib/TickMath.sol\":2465:2550  if (absTick & 0x200 != 0) ratio = (ratio * 0xf987a7253ac413176f2b074cf7815e54) >> 128 */\n    tag_216:\n        /* \"src/lib/TickMath.sol\":2583:2584  0 */\n      0x00\n        /* \"src/lib/TickMath.sol\":2574:2579  0x400 */\n      0x0400\n        /* \"src/lib/TickMath.sol\":2564:2571  absTick */\n      dup4\n        /* \"src/lib/TickMath.sol\":2564:2579  absTick & 0x400 */\n      and\n        /* \"src/lib/TickMath.sol\":2564:2584  absTick & 0x400 != 0 */\n      eq\n        /* \"src/lib/TickMath.sol\":2560:2645  if (absTick & 0x400 != 0) ratio = (ratio * 0xf3392b0822b70005940c7a398e4b70f3) >> 128 */\n      tag_218\n      jumpi\n        /* \"src/lib/TickMath.sol\":2642:2645  128 */\n      0x80\n        /* \"src/lib/TickMath.sol\":2603:2637  0xf3392b0822b70005940c7a398e4b70f3 */\n      0xf3392b0822b70005940c7a398e4b70f3\n        /* \"src/lib/TickMath.sol\":2595:2600  ratio */\n      dup3\n        /* \"src/lib/TickMath.sol\":2595:2637  ratio * 0xf3392b0822b70005940c7a398e4b70f3 */\n      tag_219\n      swap2\n      swap1\n      tag_201\n      jump\t// in\n    tag_219:\n        /* \"src/lib/TickMath.sol\":2594:2645  (ratio * 0xf3392b0822b70005940c7a398e4b70f3) >> 128 */\n      swap1\n      shr\n        /* \"src/lib/TickMath.sol\":2586:2645  ratio = (ratio * 0xf3392b0822b70005940c7a398e4b70f3) >> 128 */\n      swap1\n      pop\n        /* \"src/lib/TickMath.sol\":2560:2645  if (absTick & 0x400 != 0) ratio = (ratio * 0xf3392b0822b70005940c7a398e4b70f3) >> 128 */\n    tag_218:\n        /* \"src/lib/TickMath.sol\":2678:2679  0 */\n      0x00\n        /* \"src/lib/TickMath.sol\":2669:2674  0x800 */\n      0x0800\n        /* \"src/lib/TickMath.sol\":2659:2666  absTick */\n      dup4\n        /* \"src/lib/TickMath.sol\":2659:2674  absTick & 0x800 */\n      and\n        /* \"src/lib/TickMath.sol\":2659:2679  absTick & 0x800 != 0 */\n      eq\n        /* \"src/lib/TickMath.sol\":2655:2740  if (absTick & 0x800 != 0) ratio = (ratio * 0xe7159475a2c29b7443b29c7fa6e889d9) >> 128 */\n      tag_220\n      jumpi\n        /* \"src/lib/TickMath.sol\":2737:2740  128 */\n      0x80\n        /* \"src/lib/TickMath.sol\":2698:2732  0xe7159475a2c29b7443b29c7fa6e889d9 */\n      0xe7159475a2c29b7443b29c7fa6e889d9\n        /* \"src/lib/TickMath.sol\":2690:2695  ratio */\n      dup3\n        /* \"src/lib/TickMath.sol\":2690:2732  ratio * 0xe7159475a2c29b7443b29c7fa6e889d9 */\n      tag_221\n      swap2\n      swap1\n      tag_201\n      jump\t// in\n    tag_221:\n        /* \"src/lib/TickMath.sol\":2689:2740  (ratio * 0xe7159475a2c29b7443b29c7fa6e889d9) >> 128 */\n      swap1\n      shr\n        /* \"src/lib/TickMath.sol\":2681:2740  ratio = (ratio * 0xe7159475a2c29b7443b29c7fa6e889d9) >> 128 */\n      swap1\n      pop\n        /* \"src/lib/TickMath.sol\":2655:2740  if (absTick & 0x800 != 0) ratio = (ratio * 0xe7159475a2c29b7443b29c7fa6e889d9) >> 128 */\n    tag_220:\n        /* \"src/lib/TickMath.sol\":2774:2775  0 */\n      0x00\n        /* \"src/lib/TickMath.sol\":2764:2770  0x1000 */\n      0x1000\n        /* \"src/lib/TickMath.sol\":2754:2761  absTick */\n      dup4\n        /* \"src/lib/TickMath.sol\":2754:2770  absTick & 0x1000 */\n      and\n        /* \"src/lib/TickMath.sol\":2754:2775  absTick & 0x1000 != 0 */\n      eq\n        /* \"src/lib/TickMath.sol\":2750:2836  if (absTick & 0x1000 != 0) ratio = (ratio * 0xd097f3bdfd2022b8845ad8f792aa5825) >> 128 */\n      tag_222\n      jumpi\n        /* \"src/lib/TickMath.sol\":2833:2836  128 */\n      0x80\n        /* \"src/lib/TickMath.sol\":2794:2828  0xd097f3bdfd2022b8845ad8f792aa5825 */\n      0xd097f3bdfd2022b8845ad8f792aa5825\n        /* \"src/lib/TickMath.sol\":2786:2791  ratio */\n      dup3\n        /* \"src/lib/TickMath.sol\":2786:2828  ratio * 0xd097f3bdfd2022b8845ad8f792aa5825 */\n      tag_223\n      swap2\n      swap1\n      tag_201\n      jump\t// in\n    tag_223:\n        /* \"src/lib/TickMath.sol\":2785:2836  (ratio * 0xd097f3bdfd2022b8845ad8f792aa5825) >> 128 */\n      swap1\n      shr\n        /* \"src/lib/TickMath.sol\":2777:2836  ratio = (ratio * 0xd097f3bdfd2022b8845ad8f792aa5825) >> 128 */\n      swap1\n      pop\n        /* \"src/lib/TickMath.sol\":2750:2836  if (absTick & 0x1000 != 0) ratio = (ratio * 0xd097f3bdfd2022b8845ad8f792aa5825) >> 128 */\n    tag_222:\n        /* \"src/lib/TickMath.sol\":2870:2871  0 */\n      0x00\n        /* \"src/lib/TickMath.sol\":2860:2866  0x2000 */\n      0x2000\n        /* \"src/lib/TickMath.sol\":2850:2857  absTick */\n      dup4\n        /* \"src/lib/TickMath.sol\":2850:2866  absTick & 0x2000 */\n      and\n        /* \"src/lib/TickMath.sol\":2850:2871  absTick & 0x2000 != 0 */\n      eq\n        /* \"src/lib/TickMath.sol\":2846:2932  if (absTick & 0x2000 != 0) ratio = (ratio * 0xa9f746462d870fdf8a65dc1f90e061e5) >> 128 */\n      tag_224\n      jumpi\n        /* \"src/lib/TickMath.sol\":2929:2932  128 */\n      0x80\n        /* \"src/lib/TickMath.sol\":2890:2924  0xa9f746462d870fdf8a65dc1f90e061e5 */\n      0xa9f746462d870fdf8a65dc1f90e061e5\n        /* \"src/lib/TickMath.sol\":2882:2887  ratio */\n      dup3\n        /* \"src/lib/TickMath.sol\":2882:2924  ratio * 0xa9f746462d870fdf8a65dc1f90e061e5 */\n      tag_225\n      swap2\n      swap1\n      tag_201\n      jump\t// in\n    tag_225:\n        /* \"src/lib/TickMath.sol\":2881:2932  (ratio * 0xa9f746462d870fdf8a65dc1f90e061e5) >> 128 */\n      swap1\n      shr\n        /* \"src/lib/TickMath.sol\":2873:2932  ratio = (ratio * 0xa9f746462d870fdf8a65dc1f90e061e5) >> 128 */\n      swap1\n      pop\n        /* \"src/lib/TickMath.sol\":2846:2932  if (absTick & 0x2000 != 0) ratio = (ratio * 0xa9f746462d870fdf8a65dc1f90e061e5) >> 128 */\n    tag_224:\n        /* \"src/lib/TickMath.sol\":2966:2967  0 */\n      0x00\n        /* \"src/lib/TickMath.sol\":2956:2962  0x4000 */\n      0x4000\n        /* \"src/lib/TickMath.sol\":2946:2953  absTick */\n      dup4\n        /* \"src/lib/TickMath.sol\":2946:2962  absTick & 0x4000 */\n      and\n        /* \"src/lib/TickMath.sol\":2946:2967  absTick & 0x4000 != 0 */\n      eq\n        /* \"src/lib/TickMath.sol\":2942:3028  if (absTick & 0x4000 != 0) ratio = (ratio * 0x70d869a156d2a1b890bb3df62baf32f7) >> 128 */\n      tag_226\n      jumpi\n        /* \"src/lib/TickMath.sol\":3025:3028  128 */\n      0x80\n        /* \"src/lib/TickMath.sol\":2986:3020  0x70d869a156d2a1b890bb3df62baf32f7 */\n      0x70d869a156d2a1b890bb3df62baf32f7\n        /* \"src/lib/TickMath.sol\":2978:2983  ratio */\n      dup3\n        /* \"src/lib/TickMath.sol\":2978:3020  ratio * 0x70d869a156d2a1b890bb3df62baf32f7 */\n      tag_227\n      swap2\n      swap1\n      tag_201\n      jump\t// in\n    tag_227:\n        /* \"src/lib/TickMath.sol\":2977:3028  (ratio * 0x70d869a156d2a1b890bb3df62baf32f7) >> 128 */\n      swap1\n      shr\n        /* \"src/lib/TickMath.sol\":2969:3028  ratio = (ratio * 0x70d869a156d2a1b890bb3df62baf32f7) >> 128 */\n      swap1\n      pop\n        /* \"src/lib/TickMath.sol\":2942:3028  if (absTick & 0x4000 != 0) ratio = (ratio * 0x70d869a156d2a1b890bb3df62baf32f7) >> 128 */\n    tag_226:\n        /* \"src/lib/TickMath.sol\":3062:3063  0 */\n      0x00\n        /* \"src/lib/TickMath.sol\":3052:3058  0x8000 */\n      0x8000\n        /* \"src/lib/TickMath.sol\":3042:3049  absTick */\n      dup4\n        /* \"src/lib/TickMath.sol\":3042:3058  absTick & 0x8000 */\n      and\n        /* \"src/lib/TickMath.sol\":3042:3063  absTick & 0x8000 != 0 */\n      eq\n        /* \"src/lib/TickMath.sol\":3038:3124  if (absTick & 0x8000 != 0) ratio = (ratio * 0x31be135f97d08fd981231505542fcfa6) >> 128 */\n      tag_228\n      jumpi\n        /* \"src/lib/TickMath.sol\":3121:3124  128 */\n      0x80\n        /* \"src/lib/TickMath.sol\":3082:3116  0x31be135f97d08fd981231505542fcfa6 */\n      0x31be135f97d08fd981231505542fcfa6\n        /* \"src/lib/TickMath.sol\":3074:3079  ratio */\n      dup3\n        /* \"src/lib/TickMath.sol\":3074:3116  ratio * 0x31be135f97d08fd981231505542fcfa6 */\n      tag_229\n      swap2\n      swap1\n      tag_201\n      jump\t// in\n    tag_229:\n        /* \"src/lib/TickMath.sol\":3073:3124  (ratio * 0x31be135f97d08fd981231505542fcfa6) >> 128 */\n      swap1\n      shr\n        /* \"src/lib/TickMath.sol\":3065:3124  ratio = (ratio * 0x31be135f97d08fd981231505542fcfa6) >> 128 */\n      swap1\n      pop\n        /* \"src/lib/TickMath.sol\":3038:3124  if (absTick & 0x8000 != 0) ratio = (ratio * 0x31be135f97d08fd981231505542fcfa6) >> 128 */\n    tag_228:\n        /* \"src/lib/TickMath.sol\":3159:3160  0 */\n      0x00\n        /* \"src/lib/TickMath.sol\":3148:3155  0x10000 */\n      0x010000\n        /* \"src/lib/TickMath.sol\":3138:3145  absTick */\n      dup4\n        /* \"src/lib/TickMath.sol\":3138:3155  absTick & 0x10000 */\n      and\n        /* \"src/lib/TickMath.sol\":3138:3160  absTick & 0x10000 != 0 */\n      eq\n        /* \"src/lib/TickMath.sol\":3134:3220  if (absTick & 0x10000 != 0) ratio = (ratio * 0x9aa508b5b7a84e1c677de54f3e99bc9) >> 128 */\n      tag_230\n      jumpi\n        /* \"src/lib/TickMath.sol\":3217:3220  128 */\n      0x80\n        /* \"src/lib/TickMath.sol\":3179:3212  0x9aa508b5b7a84e1c677de54f3e99bc9 */\n      0x09aa508b5b7a84e1c677de54f3e99bc9\n        /* \"src/lib/TickMath.sol\":3171:3176  ratio */\n      dup3\n        /* \"src/lib/TickMath.sol\":3171:3212  ratio * 0x9aa508b5b7a84e1c677de54f3e99bc9 */\n      tag_231\n      swap2\n      swap1\n      tag_201\n      jump\t// in\n    tag_231:\n        /* \"src/lib/TickMath.sol\":3170:3220  (ratio * 0x9aa508b5b7a84e1c677de54f3e99bc9) >> 128 */\n      swap1\n      shr\n        /* \"src/lib/TickMath.sol\":3162:3220  ratio = (ratio * 0x9aa508b5b7a84e1c677de54f3e99bc9) >> 128 */\n      swap1\n      pop\n        /* \"src/lib/TickMath.sol\":3134:3220  if (absTick & 0x10000 != 0) ratio = (ratio * 0x9aa508b5b7a84e1c677de54f3e99bc9) >> 128 */\n    tag_230:\n        /* \"src/lib/TickMath.sol\":3255:3256  0 */\n      0x00\n        /* \"src/lib/TickMath.sol\":3244:3251  0x20000 */\n      0x020000\n        /* \"src/lib/TickMath.sol\":3234:3241  absTick */\n      dup4\n        /* \"src/lib/TickMath.sol\":3234:3251  absTick & 0x20000 */\n      and\n        /* \"src/lib/TickMath.sol\":3234:3256  absTick & 0x20000 != 0 */\n      eq\n        /* \"src/lib/TickMath.sol\":3230:3315  if (absTick & 0x20000 != 0) ratio = (ratio * 0x5d6af8dedb81196699c329225ee604) >> 128 */\n      tag_232\n      jumpi\n        /* \"src/lib/TickMath.sol\":3312:3315  128 */\n      0x80\n        /* \"src/lib/TickMath.sol\":3275:3307  0x5d6af8dedb81196699c329225ee604 */\n      0x5d6af8dedb81196699c329225ee604\n        /* \"src/lib/TickMath.sol\":3267:3272  ratio */\n      dup3\n        /* \"src/lib/TickMath.sol\":3267:3307  ratio * 0x5d6af8dedb81196699c329225ee604 */\n      tag_233\n      swap2\n      swap1\n      tag_201\n      jump\t// in\n    tag_233:\n        /* \"src/lib/TickMath.sol\":3266:3315  (ratio * 0x5d6af8dedb81196699c329225ee604) >> 128 */\n      swap1\n      shr\n        /* \"src/lib/TickMath.sol\":3258:3315  ratio = (ratio * 0x5d6af8dedb81196699c329225ee604) >> 128 */\n      swap1\n      pop\n        /* \"src/lib/TickMath.sol\":3230:3315  if (absTick & 0x20000 != 0) ratio = (ratio * 0x5d6af8dedb81196699c329225ee604) >> 128 */\n    tag_232:\n        /* \"src/lib/TickMath.sol\":3350:3351  0 */\n      0x00\n        /* \"src/lib/TickMath.sol\":3339:3346  0x40000 */\n      0x040000\n        /* \"src/lib/TickMath.sol\":3329:3336  absTick */\n      dup4\n        /* \"src/lib/TickMath.sol\":3329:3346  absTick & 0x40000 */\n      and\n        /* \"src/lib/TickMath.sol\":3329:3351  absTick & 0x40000 != 0 */\n      eq\n        /* \"src/lib/TickMath.sol\":3325:3408  if (absTick & 0x40000 != 0) ratio = (ratio * 0x2216e584f5fa1ea926041bedfe98) >> 128 */\n      tag_234\n      jumpi\n        /* \"src/lib/TickMath.sol\":3405:3408  128 */\n      0x80\n        /* \"src/lib/TickMath.sol\":3370:3400  0x2216e584f5fa1ea926041bedfe98 */\n      0x2216e584f5fa1ea926041bedfe98\n        /* \"src/lib/TickMath.sol\":3362:3367  ratio */\n      dup3\n        /* \"src/lib/TickMath.sol\":3362:3400  ratio * 0x2216e584f5fa1ea926041bedfe98 */\n      tag_235\n      swap2\n      swap1\n      tag_201\n      jump\t// in\n    tag_235:\n        /* \"src/lib/TickMath.sol\":3361:3408  (ratio * 0x2216e584f5fa1ea926041bedfe98) >> 128 */\n      swap1\n      shr\n        /* \"src/lib/TickMath.sol\":3353:3408  ratio = (ratio * 0x2216e584f5fa1ea926041bedfe98) >> 128 */\n      swap1\n      pop\n        /* \"src/lib/TickMath.sol\":3325:3408  if (absTick & 0x40000 != 0) ratio = (ratio * 0x2216e584f5fa1ea926041bedfe98) >> 128 */\n    tag_234:\n        /* \"src/lib/TickMath.sol\":3443:3444  0 */\n      0x00\n        /* \"src/lib/TickMath.sol\":3432:3439  0x80000 */\n      0x080000\n        /* \"src/lib/TickMath.sol\":3422:3429  absTick */\n      dup4\n        /* \"src/lib/TickMath.sol\":3422:3439  absTick & 0x80000 */\n      and\n        /* \"src/lib/TickMath.sol\":3422:3444  absTick & 0x80000 != 0 */\n      eq\n        /* \"src/lib/TickMath.sol\":3418:3496  if (absTick & 0x80000 != 0) ratio = (ratio * 0x48a170391f7dc42444e8fa2) >> 128 */\n      tag_236\n      jumpi\n        /* \"src/lib/TickMath.sol\":3493:3496  128 */\n      0x80\n        /* \"src/lib/TickMath.sol\":3463:3488  0x48a170391f7dc42444e8fa2 */\n      0x048a170391f7dc42444e8fa2\n        /* \"src/lib/TickMath.sol\":3455:3460  ratio */\n      dup3\n        /* \"src/lib/TickMath.sol\":3455:3488  ratio * 0x48a170391f7dc42444e8fa2 */\n      tag_237\n      swap2\n      swap1\n      tag_201\n      jump\t// in\n    tag_237:\n        /* \"src/lib/TickMath.sol\":3454:3496  (ratio * 0x48a170391f7dc42444e8fa2) >> 128 */\n      swap1\n      shr\n        /* \"src/lib/TickMath.sol\":3446:3496  ratio = (ratio * 0x48a170391f7dc42444e8fa2) >> 128 */\n      swap1\n      pop\n        /* \"src/lib/TickMath.sol\":3418:3496  if (absTick & 0x80000 != 0) ratio = (ratio * 0x48a170391f7dc42444e8fa2) >> 128 */\n    tag_236:\n        /* \"src/lib/TickMath.sol\":3518:3519  0 */\n      0x00\n        /* \"src/lib/TickMath.sol\":3511:3515  tick */\n      dup5\n        /* \"src/lib/TickMath.sol\":3511:3519  tick > 0 */\n      0x02\n      signextend\n      sgt\n        /* \"src/lib/TickMath.sol\":3507:3554  if (tick > 0) ratio = type(uint256).max / ratio */\n      iszero\n      tag_238\n      jumpi\n        /* \"src/lib/TickMath.sol\":3549:3554  ratio */\n      dup1\n        /* \"src/lib/TickMath.sol\":3529:3546  type(uint256).max */\n      0xffffffffffffffffffffffffffffffffffffffffffffffffffffffffffffffff\n        /* \"src/lib/TickMath.sol\":3529:3554  type(uint256).max / ratio */\n      tag_239\n      swap2\n      swap1\n      tag_240\n      jump\t// in\n    tag_239:\n        /* \"src/lib/TickMath.sol\":3521:3554  ratio = type(uint256).max / ratio */\n      swap1\n      pop\n        /* \"src/lib/TickMath.sol\":3507:3554  if (tick > 0) ratio = type(uint256).max / ratio */\n    tag_238:\n        /* \"src/lib/TickMath.sol\":3925:3926  0 */\n      0x00\n        /* \"src/lib/TickMath.sol\":3913:3920  1 << 32 */\n      0x0100000000\n        /* \"src/lib/TickMath.sol\":3904:3909  ratio */\n      dup3\n        /* \"src/lib/TickMath.sol\":3904:3921  ratio % (1 << 32) */\n      tag_241\n      swap2\n      swap1\n      tag_242\n      jump\t// in\n    tag_241:\n        /* \"src/lib/TickMath.sol\":3904:3926  ratio % (1 << 32) == 0 */\n      eq\n        /* \"src/lib/TickMath.sol\":3904:3934  ratio % (1 << 32) == 0 ? 0 : 1 */\n      tag_243\n      jumpi\n        /* \"src/lib/TickMath.sol\":3933:3934  1 */\n      0x01\n        /* \"src/lib/TickMath.sol\":3904:3934  ratio % (1 << 32) == 0 ? 0 : 1 */\n      jump(tag_244)\n    tag_243:\n        /* \"src/lib/TickMath.sol\":3929:3930  0 */\n      0x00\n        /* \"src/lib/TickMath.sol\":3904:3934  ratio % (1 << 32) == 0 ? 0 : 1 */\n    tag_244:\n        /* \"src/lib/TickMath.sol\":3887:3935  (ratio >> 32) + (ratio % (1 << 32) == 0 ? 0 : 1) */\n      0xff\n      and\n        /* \"src/lib/TickMath.sol\":3897:3899  32 */\n      0x20\n        /* \"src/lib/TickMath.sol\":3888:3893  ratio */\n      dup3\n        /* \"src/lib/TickMath.sol\":3888:3899  ratio >> 32 */\n      swap1\n      shr\n        /* \"src/lib/TickMath.sol\":3887:3935  (ratio >> 32) + (ratio % (1 << 32) == 0 ? 0 : 1) */\n      tag_245\n      swap2\n      swap1\n      tag_109\n      jump\t// in\n    tag_245:\n        /* \"src/lib/TickMath.sol\":3864:3936  sqrtPriceX96 = uint160((ratio >> 32) + (ratio % (1 << 32) == 0 ? 0 : 1)) */\n      swap3\n      pop\n        /* \"src/lib/TickMath.sol\":1440:3943  {... */\n      pop\n      pop\n        /* \"src/lib/TickMath.sol\":1355:3943  function getSqrtRatioAtTick(int24 tick) internal pure returns (uint160 sqrtPriceX96) {... */\n      swap2\n      swap1\n      pop\n      jump\t// out\n        /* \"src/lib/Math.sol\":245:830  function calcAmount0Delta(... */\n    tag_81:\n        /* \"src/lib/Math.sol\":389:404  uint256 amount0 */\n      0x00\n        /* \"src/lib/Math.sol\":436:449  sqrtPriceBX96 */\n      dup3\n        /* \"src/lib/Math.sol\":420:449  sqrtPriceAX96 > sqrtPriceBX96 */\n      0xffffffffffffffffffffffffffffffffffffffff\n      and\n        /* \"src/lib/Math.sol\":420:433  sqrtPriceAX96 */\n      dup5\n        /* \"src/lib/Math.sol\":420:449  sqrtPriceAX96 > sqrtPriceBX96 */\n      0xffffffffffffffffffffffffffffffffffffffff\n      and\n      gt\n        /* \"src/lib/Math.sol\":416:526  if (sqrtPriceAX96 > sqrtPriceBX96)... */\n      iszero\n      tag_247\n      jumpi\n        /* \"src/lib/Math.sol\":497:510  sqrtPriceBX96 */\n      dup3\n        /* \"src/lib/Math.sol\":512:525  sqrtPriceAX96 */\n      dup5\n        /* \"src/lib/Math.sol\":463:526  (sqrtPriceAX96, sqrtPriceBX96) = (sqrtPriceBX96, sqrtPriceAX96) */\n      dup1\n      swap5\n      pop\n      dup2\n      swap6\n      pop\n      pop\n      pop\n        /* \"src/lib/Math.sol\":416:526  if (sqrtPriceAX96 > sqrtPriceBX96)... */\n    tag_247:\n        /* \"src/lib/Math.sol\":561:562  0 */\n      0x00\n        /* \"src/lib/Math.sol\":545:558  sqrtPriceAX96 */\n      dup5\n        /* \"src/lib/Math.sol\":545:562  sqrtPriceAX96 > 0 */\n      0xffffffffffffffffffffffffffffffffffffffff\n      and\n      gt\n        /* \"src/lib/Math.sol\":537:563  require(sqrtPriceAX96 > 0) */\n      tag_248\n      jumpi\n      revert(0x00, 0x00)\n    tag_248:\n        /* \"src/lib/Math.sol\":584:823  divRoundingUp(... */\n      tag_249\n        /* \"src/lib/Math.sol\":611:786  mulDivRoundingUp(... */\n      tag_250\n        /* \"src/lib/FixedPoint96.sol\":135:137  96 */\n      0x60\n        /* \"src/lib/Math.sol\":646:691  uint256(liquidity) << FixedPoint96.RESOLUTION */\n      0xff\n      and\n        /* \"src/lib/Math.sol\":654:663  liquidity */\n      dup5\n        /* \"src/lib/Math.sol\":646:664  uint256(liquidity) */\n      0xffffffffffffffffffffffffffffffff\n      and\n        /* \"src/lib/Math.sol\":646:691  uint256(liquidity) << FixedPoint96.RESOLUTION */\n      swap1\n      shl\n        /* \"src/lib/Math.sol\":727:740  sqrtPriceAX96 */\n      dup7\n        /* \"src/lib/Math.sol\":711:724  sqrtPriceBX96 */\n      dup7\n        /* \"src/lib/Math.sol\":711:740  sqrtPriceBX96 - sqrtPriceAX96 */\n      tag_251\n      swap2\n      swap1\n      tag_252\n      jump\t// in\n    tag_251:\n        /* \"src/lib/Math.sol\":611:786  mulDivRoundingUp(... */\n      0xffffffffffffffffffffffffffffffffffffffff\n      and\n        /* \"src/lib/Math.sol\":759:772  sqrtPriceBX96 */\n      dup7\n        /* \"src/lib/Math.sol\":611:786  mulDivRoundingUp(... */\n      0xffffffffffffffffffffffffffffffffffffffff\n      and\n        /* \"src/lib/Math.sol\":611:627  mulDivRoundingUp */\n      tag_253\n        /* \"src/lib/Math.sol\":611:786  mulDivRoundingUp(... */\n      jump\t// in\n    tag_250:\n        /* \"src/lib/Math.sol\":800:813  sqrtPriceAX96 */\n      dup6\n        /* \"src/lib/Math.sol\":584:823  divRoundingUp(... */\n      0xffffffffffffffffffffffffffffffffffffffff\n      and\n        /* \"src/lib/Math.sol\":584:597  divRoundingUp */\n      tag_254\n        /* \"src/lib/Math.sol\":584:823  divRoundingUp(... */\n      jump\t// in\n    tag_249:\n        /* \"src/lib/Math.sol\":574:823  amount0 = divRoundingUp(... */\n      swap1\n      pop\n        /* \"src/lib/Math.sol\":245:830  function calcAmount0Delta(... */\n      swap4\n      swap3\n      pop\n      pop\n      pop\n      jump\t// out\n        /* \"src/lib/Math.sol\":945:1378  function calcAmount1Delta(... */\n    tag_88:\n        /* \"src/lib/Math.sol\":1089:1104  uint256 amount1 */\n      0x00\n        /* \"src/lib/Math.sol\":1136:1149  sqrtPriceBX96 */\n      dup3\n        /* \"src/lib/Math.sol\":1120:1149  sqrtPriceAX96 > sqrtPriceBX96 */\n      0xffffffffffffffffffffffffffffffffffffffff\n      and\n        /* \"src/lib/Math.sol\":1120:1133  sqrtPriceAX96 */\n      dup5\n        /* \"src/lib/Math.sol\":1120:1149  sqrtPriceAX96 > sqrtPriceBX96 */\n      0xffffffffffffffffffffffffffffffffffffffff\n      and\n      gt\n        /* \"src/lib/Math.sol\":1116:1226  if (sqrtPriceAX96 > sqrtPriceBX96)... */\n      iszero\n      tag_256\n      jumpi\n        /* \"src/lib/Math.sol\":1197:1210  sqrtPriceBX96 */\n      dup3\n        /* \"src/lib/Math.sol\":1212:1225  sqrtPriceAX96 */\n      dup5\n        /* \"src/lib/Math.sol\":1163:1226  (sqrtPriceAX96, sqrtPriceBX96) = (sqrtPriceBX96, sqrtPriceAX96) */\n      dup1\n      swap5\n      pop\n      dup2\n      swap6\n      pop\n      pop\n      pop\n        /* \"src/lib/Math.sol\":1116:1226  if (sqrtPriceAX96 > sqrtPriceBX96)... */\n    tag_256:\n        /* \"src/lib/Math.sol\":1247:1371  mulDivRoundingUp(... */\n      tag_257\n        /* \"src/lib/Math.sol\":1277:1286  liquidity */\n      dup3\n        /* \"src/lib/Math.sol\":1247:1371  mulDivRoundingUp(... */\n      0xffffffffffffffffffffffffffffffff\n      and\n        /* \"src/lib/Math.sol\":1317:1330  sqrtPriceAX96 */\n      dup6\n        /* \"src/lib/Math.sol\":1301:1314  sqrtPriceBX96 */\n      dup6\n        /* \"src/lib/Math.sol\":1301:1330  sqrtPriceBX96 - sqrtPriceAX96 */\n      tag_258\n      swap2\n      swap1\n      tag_252\n      jump\t// in\n    tag_258:\n        /* \"src/lib/Math.sol\":1247:1371  mulDivRoundingUp(... */\n      0xffffffffffffffffffffffffffffffffffffffff\n      and\n        /* \"src/lib/FixedPoint96.sol\":175:180  2**96 */\n      0x01000000000000000000000000\n        /* \"src/lib/Math.sol\":1247:1263  mulDivRoundingUp */\n      tag_253\n        /* \"src/lib/Math.sol\":1247:1371  mulDivRoundingUp(... */\n      jump\t// in\n    tag_257:\n        /* \"src/lib/Math.sol\":1237:1371  amount1 = mulDivRoundingUp(... */\n      swap1\n      pop\n        /* \"src/lib/Math.sol\":945:1378  function calcAmount1Delta(... */\n      swap4\n      swap3\n      pop\n      pop\n      pop\n      jump\t// out\n        /* \"src/UniswapV3Pool.sol\":7880:8008  function balance0() internal view returns (uint256 balance) {... */\n    tag_97:\n        /* \"src/UniswapV3Pool.sol\":7923:7938  uint256 balance */\n      0x00\n        /* \"src/UniswapV3Pool.sol\":7968:7974  token0 */\n      immutable(\"0x215d56ac8bbcf4ec574772ebea743ba30ac9d1c5e1b1ff899e5de1045f5df803\")\n        /* \"src/UniswapV3Pool.sol\":7961:7985  IERC20(token0).balanceOf */\n      0xffffffffffffffffffffffffffffffffffffffff\n      and\n      0x70a08231\n        /* \"src/UniswapV3Pool.sol\":7994:7998  this */\n      address\n        /* \"src/UniswapV3Pool.sol\":7961:8000  IERC20(token0).balanceOf(address(this)) */\n      mload(0x40)\n      dup3\n      0xffffffff\n      and\n      0xe0\n      shl\n      dup2\n      mstore\n      0x04\n      add\n      tag_260\n      swap2\n      swap1\n      tag_16\n      jump\t// in\n    tag_260:\n      0x20\n      mload(0x40)\n      dup1\n      dup4\n      sub\n      dup2\n      dup7\n      gas\n      staticcall\n      iszero\n      dup1\n      iszero\n      tag_262\n      jumpi\n      returndatacopy(0x00, 0x00, returndatasize)\n      revert(0x00, returndatasize)\n    tag_262:\n      pop\n      pop\n      pop\n      pop\n      mload(0x40)\n      returndatasize\n      not(0x1f)\n      0x1f\n      dup3\n      add\n      and\n      dup3\n      add\n      dup1\n      0x40\n      mstore\n      pop\n      dup2\n      add\n      swap1\n      tag_263\n      swap2\n      swap1\n      tag_264\n      jump\t// in\n    tag_263:\n        /* \"src/UniswapV3Pool.sol\":7951:8000  balance = IERC20(token0).balanceOf(address(this)) */\n      swap1\n      pop\n        /* \"src/UniswapV3Pool.sol\":7880:8008  function balance0() internal view returns (uint256 balance) {... */\n      swap1\n      jump\t// out\n        /* \"src/UniswapV3Pool.sol\":8037:8165  function balance1() internal view returns (uint256 balance) {... */\n    tag_100:\n        /* \"src/UniswapV3Pool.sol\":8080:8095  uint256 balance */\n      0x00\n        /* \"src/UniswapV3Pool.sol\":8125:8131  token1 */\n      immutable(\"0xcd41b8bf8f20f7ad95d96d948a315af225b219053fc98a80aee13063b692b681\")\n        /* \"src/UniswapV3Pool.sol\":8118:8142  IERC20(token1).balanceOf */\n      0xffffffffffffffffffffffffffffffffffffffff\n      and\n      0x70a08231\n        /* \"src/UniswapV3Pool.sol\":8151:8155  this */\n      address\n        /* \"src/UniswapV3Pool.sol\":8118:8157  IERC20(token1).balanceOf(address(this)) */\n      mload(0x40)\n      dup3\n      0xffffffff\n      and\n      0xe0\n      shl\n      dup2\n      mstore\n      0x04\n      add\n      tag_266\n      swap2\n      swap1\n      tag_16\n      jump\t// in\n    tag_266:\n      0x20\n      mload(0x40)\n      dup1\n      dup4\n      sub\n      dup2\n      dup7\n      gas\n      staticcall\n      iszero\n      dup1\n      iszero\n      tag_268\n      jumpi\n      returndatacopy(0x00, 0x00, returndatasize)\n      revert(0x00, returndatasize)\n    tag_268:\n      pop\n      pop\n      pop\n      pop\n      mload(0x40)\n      returndatasize\n      not(0x1f)\n      0x1f\n      dup3\n      add\n      and\n      dup3\n      add\n      dup1\n      0x40\n      mstore\n      pop\n      dup2\n      add\n      swap1\n      tag_269\n      swap2\n      swap1\n      tag_264\n      jump\t// in\n    tag_269:\n        /* \"src/UniswapV3Pool.sol\":8108:8157  balance = IERC20(token1).balanceOf(address(this)) */\n      swap1\n      pop\n        /* \"src/UniswapV3Pool.sol\":8037:8165  function balance1() internal view returns (uint256 balance) {... */\n      swap1\n      jump\t// out\n        /* \"src/lib/TickBitmap.sol\":2196:4153  function nextInitializedTickWithinOneWord(... */\n    tag_123:\n        /* \"src/lib/TickBitmap.sol\":2380:2390  int24 next */\n      0x00\n        /* \"src/lib/TickBitmap.sol\":2392:2408  bool initialized */\n      0x00\n        /* \"src/lib/TickBitmap.sol\":2420:2436  int24 compressed */\n      0x00\n        /* \"src/lib/TickBitmap.sol\":2446:2457  tickSpacing */\n      dup5\n        /* \"src/lib/TickBitmap.sol\":2439:2443  tick */\n      dup7\n        /* \"src/lib/TickBitmap.sol\":2439:2457  tick / tickSpacing */\n      tag_271\n      swap2\n      swap1\n      tag_182\n      jump\t// in\n    tag_271:\n        /* \"src/lib/TickBitmap.sol\":2420:2457  int24 compressed = tick / tickSpacing */\n      swap1\n      pop\n        /* \"src/lib/TickBitmap.sol\":2478:2479  0 */\n      0x00\n        /* \"src/lib/TickBitmap.sol\":2471:2475  tick */\n      dup7\n        /* \"src/lib/TickBitmap.sol\":2471:2479  tick < 0 */\n      0x02\n      signextend\n      slt\n        /* \"src/lib/TickBitmap.sol\":2471:2506  tick < 0 && tick % tickSpacing != 0 */\n      dup1\n      iszero\n      tag_272\n      jumpi\n      pop\n        /* \"src/lib/TickBitmap.sol\":2505:2506  0 */\n      0x00\n        /* \"src/lib/TickBitmap.sol\":2490:2501  tickSpacing */\n      dup6\n        /* \"src/lib/TickBitmap.sol\":2483:2487  tick */\n      dup8\n        /* \"src/lib/TickBitmap.sol\":2483:2501  tick % tickSpacing */\n      tag_273\n      swap2\n      swap1\n      tag_178\n      jump\t// in\n    tag_273:\n        /* \"src/lib/TickBitmap.sol\":2483:2506  tick % tickSpacing != 0 */\n      0x02\n      signextend\n      eq\n      iszero\n        /* \"src/lib/TickBitmap.sol\":2471:2506  tick < 0 && tick % tickSpacing != 0 */\n    tag_272:\n        /* \"src/lib/TickBitmap.sol\":2467:2520  if (tick < 0 && tick % tickSpacing != 0) compressed-- */\n      iszero\n      tag_274\n      jumpi\n        /* \"src/lib/TickBitmap.sol\":2508:2520  compressed-- */\n      dup1\n      dup1\n      tag_275\n      swap1\n      tag_276\n      jump\t// in\n    tag_275:\n      swap2\n      pop\n      pop\n        /* \"src/lib/TickBitmap.sol\":2467:2520  if (tick < 0 && tick % tickSpacing != 0) compressed-- */\n    tag_274:\n        /* \"src/lib/TickBitmap.sol\":2570:2573  lte */\n      dup4\n        /* \"src/lib/TickBitmap.sol\":2566:4147  if (lte) {... */\n      iszero\n      tag_277\n      jumpi\n        /* \"src/lib/TickBitmap.sol\":2590:2603  int16 wordPos */\n      0x00\n        /* \"src/lib/TickBitmap.sol\":2605:2617  uint8 bitPos */\n      0x00\n        /* \"src/lib/TickBitmap.sol\":2621:2641  position(compressed) */\n      tag_278\n        /* \"src/lib/TickBitmap.sol\":2630:2640  compressed */\n      dup4\n        /* \"src/lib/TickBitmap.sol\":2621:2629  position */\n      tag_183\n        /* \"src/lib/TickBitmap.sol\":2621:2641  position(compressed) */\n      jump\t// in\n    tag_278:\n        /* \"src/lib/TickBitmap.sol\":2589:2641  (int16 wordPos, uint8 bitPos) = position(compressed) */\n      swap2\n      pop\n      swap2\n      pop\n        /* \"src/lib/TickBitmap.sol\":2722:2734  uint256 mask */\n      0x00\n        /* \"src/lib/TickBitmap.sol\":2763:2769  bitPos */\n      dup2\n        /* \"src/lib/TickBitmap.sol\":2758:2769  1 << bitPos */\n      0xff\n      and\n        /* \"src/lib/TickBitmap.sol\":2758:2759  1 */\n      0x01\n        /* \"src/lib/TickBitmap.sol\":2758:2769  1 << bitPos */\n      swap1\n      shl\n        /* \"src/lib/TickBitmap.sol\":2753:2754  1 */\n      0x01\n        /* \"src/lib/TickBitmap.sol\":2743:2749  bitPos */\n      dup4\n        /* \"src/lib/TickBitmap.sol\":2738:2749  1 << bitPos */\n      0xff\n      and\n        /* \"src/lib/TickBitmap.sol\":2738:2739  1 */\n      0x01\n        /* \"src/lib/TickBitmap.sol\":2738:2749  1 << bitPos */\n      swap1\n      shl\n        /* \"src/lib/TickBitmap.sol\":2737:2754  (1 << bitPos) - 1 */\n      tag_279\n      swap2\n      swap1\n      tag_128\n      jump\t// in\n    tag_279:\n        /* \"src/lib/TickBitmap.sol\":2737:2770  (1 << bitPos) - 1 + (1 << bitPos) */\n      tag_280\n      swap2\n      swap1\n      tag_109\n      jump\t// in\n    tag_280:\n        /* \"src/lib/TickBitmap.sol\":2722:2770  uint256 mask = (1 << bitPos) - 1 + (1 << bitPos) */\n      swap1\n      pop\n        /* \"src/lib/TickBitmap.sol\":2784:2798  uint256 masked */\n      0x00\n        /* \"src/lib/TickBitmap.sol\":2817:2821  mask */\n      dup2\n        /* \"src/lib/TickBitmap.sol\":2801:2805  self */\n      dup12\n        /* \"src/lib/TickBitmap.sol\":2801:2814  self[wordPos] */\n      0x00\n        /* \"src/lib/TickBitmap.sol\":2806:2813  wordPos */\n      dup7\n        /* \"src/lib/TickBitmap.sol\":2801:2814  self[wordPos] */\n      0x01\n      signextend\n      0x01\n      signextend\n      dup2\n      mstore\n      0x20\n      add\n      swap1\n      dup2\n      mstore\n      0x20\n      add\n      0x00\n      keccak256\n      sload\n        /* \"src/lib/TickBitmap.sol\":2801:2821  self[wordPos] & mask */\n      and\n        /* \"src/lib/TickBitmap.sol\":2784:2821  uint256 masked = self[wordPos] & mask */\n      swap1\n      pop\n        /* \"src/lib/TickBitmap.sol\":2978:2979  0 */\n      0x00\n        /* \"src/lib/TickBitmap.sol\":2968:2974  masked */\n      dup2\n        /* \"src/lib/TickBitmap.sol\":2968:2979  masked != 0 */\n      eq\n      iszero\n        /* \"src/lib/TickBitmap.sol\":2954:2979  initialized = masked != 0 */\n      swap6\n      pop\n        /* \"src/lib/TickBitmap.sol\":3110:3121  initialized */\n      dup6\n        /* \"src/lib/TickBitmap.sol\":3110:3296  initialized... */\n      tag_281\n      jumpi\n        /* \"src/lib/TickBitmap.sol\":3285:3296  tickSpacing */\n      dup9\n        /* \"src/lib/TickBitmap.sol\":3273:3279  bitPos */\n      dup4\n        /* \"src/lib/TickBitmap.sol\":3266:3280  uint24(bitPos) */\n      0xff\n      and\n        /* \"src/lib/TickBitmap.sol\":3247:3257  compressed */\n      dup7\n        /* \"src/lib/TickBitmap.sol\":3247:3281  compressed - int24(uint24(bitPos)) */\n      tag_282\n      swap2\n      swap1\n      tag_283\n      jump\t// in\n    tag_282:\n        /* \"src/lib/TickBitmap.sol\":3246:3296  (compressed - int24(uint24(bitPos))) * tickSpacing */\n      tag_284\n      swap2\n      swap1\n      tag_285\n      jump\t// in\n    tag_284:\n        /* \"src/lib/TickBitmap.sol\":3110:3296  initialized... */\n      jump(tag_286)\n    tag_281:\n        /* \"src/lib/TickBitmap.sol\":3216:3227  tickSpacing */\n      dup9\n        /* \"src/lib/TickBitmap.sol\":3176:3210  BitMath.mostSignificantBit(masked) */\n      tag_287\n        /* \"src/lib/TickBitmap.sol\":3203:3209  masked */\n      dup3\n        /* \"src/lib/TickBitmap.sol\":3176:3202  BitMath.mostSignificantBit */\n      tag_288\n        /* \"src/lib/TickBitmap.sol\":3176:3210  BitMath.mostSignificantBit(masked) */\n      jump\t// in\n    tag_287:\n        /* \"src/lib/TickBitmap.sol\":3167:3173  bitPos */\n      dup5\n        /* \"src/lib/TickBitmap.sol\":3167:3210  bitPos - BitMath.mostSignificantBit(masked) */\n      tag_289\n      swap2\n      swap1\n      tag_290\n      jump\t// in\n    tag_289:\n        /* \"src/lib/TickBitmap.sol\":3160:3211  uint24(bitPos - BitMath.mostSignificantBit(masked)) */\n      0xff\n      and\n        /* \"src/lib/TickBitmap.sol\":3141:3151  compressed */\n      dup7\n        /* \"src/lib/TickBitmap.sol\":3141:3212  compressed - int24(uint24(bitPos - BitMath.mostSignificantBit(masked))) */\n      tag_291\n      swap2\n      swap1\n      tag_283\n      jump\t// in\n    tag_291:\n        /* \"src/lib/TickBitmap.sol\":3140:3227  (compressed - int24(uint24(bitPos - BitMath.mostSignificantBit(masked)))) * tickSpacing */\n      tag_292\n      swap2\n      swap1\n      tag_285\n      jump\t// in\n    tag_292:\n        /* \"src/lib/TickBitmap.sol\":3110:3296  initialized... */\n    tag_286:\n        /* \"src/lib/TickBitmap.sol\":3103:3296  next = initialized... */\n      swap7\n      pop\n        /* \"src/lib/TickBitmap.sol\":2575:3307  {... */\n      pop\n      pop\n      pop\n      pop\n        /* \"src/lib/TickBitmap.sol\":2566:4147  if (lte) {... */\n      jump(tag_293)\n    tag_277:\n        /* \"src/lib/TickBitmap.sol\":3425:3438  int16 wordPos */\n      0x00\n        /* \"src/lib/TickBitmap.sol\":3440:3452  uint8 bitPos */\n      0x00\n        /* \"src/lib/TickBitmap.sol\":3456:3480  position(compressed + 1) */\n      tag_294\n        /* \"src/lib/TickBitmap.sol\":3478:3479  1 */\n      0x01\n        /* \"src/lib/TickBitmap.sol\":3465:3475  compressed */\n      dup5\n        /* \"src/lib/TickBitmap.sol\":3465:3479  compressed + 1 */\n      tag_295\n      swap2\n      swap1\n      tag_296\n      jump\t// in\n    tag_295:\n        /* \"src/lib/TickBitmap.sol\":3456:3464  position */\n      tag_183\n        /* \"src/lib/TickBitmap.sol\":3456:3480  position(compressed + 1) */\n      jump\t// in\n    tag_294:\n        /* \"src/lib/TickBitmap.sol\":3424:3480  (int16 wordPos, uint8 bitPos) = position(compressed + 1) */\n      swap2\n      pop\n      swap2\n      pop\n        /* \"src/lib/TickBitmap.sol\":3552:3564  uint256 mask */\n      0x00\n        /* \"src/lib/TickBitmap.sol\":3585:3586  1 */\n      0x01\n        /* \"src/lib/TickBitmap.sol\":3575:3581  bitPos */\n      dup3\n        /* \"src/lib/TickBitmap.sol\":3570:3581  1 << bitPos */\n      0xff\n      and\n        /* \"src/lib/TickBitmap.sol\":3570:3571  1 */\n      0x01\n        /* \"src/lib/TickBitmap.sol\":3570:3581  1 << bitPos */\n      swap1\n      shl\n        /* \"src/lib/TickBitmap.sol\":3569:3586  (1 << bitPos) - 1 */\n      tag_297\n      swap2\n      swap1\n      tag_128\n      jump\t// in\n    tag_297:\n        /* \"src/lib/TickBitmap.sol\":3567:3587  ~((1 << bitPos) - 1) */\n      not\n        /* \"src/lib/TickBitmap.sol\":3552:3587  uint256 mask = ~((1 << bitPos) - 1) */\n      swap1\n      pop\n        /* \"src/lib/TickBitmap.sol\":3601:3615  uint256 masked */\n      0x00\n        /* \"src/lib/TickBitmap.sol\":3634:3638  mask */\n      dup2\n        /* \"src/lib/TickBitmap.sol\":3618:3622  self */\n      dup12\n        /* \"src/lib/TickBitmap.sol\":3618:3631  self[wordPos] */\n      0x00\n        /* \"src/lib/TickBitmap.sol\":3623:3630  wordPos */\n      dup7\n        /* \"src/lib/TickBitmap.sol\":3618:3631  self[wordPos] */\n      0x01\n      signextend\n      0x01\n      signextend\n      dup2\n      mstore\n      0x20\n      add\n      swap1\n      dup2\n      mstore\n      0x20\n      add\n      0x00\n      keccak256\n      sload\n        /* \"src/lib/TickBitmap.sol\":3618:3638  self[wordPos] & mask */\n      and\n        /* \"src/lib/TickBitmap.sol\":3601:3638  uint256 masked = self[wordPos] & mask */\n      swap1\n      pop\n        /* \"src/lib/TickBitmap.sol\":3787:3788  0 */\n      0x00\n        /* \"src/lib/TickBitmap.sol\":3777:3783  masked */\n      dup2\n        /* \"src/lib/TickBitmap.sol\":3777:3788  masked != 0 */\n      eq\n      iszero\n        /* \"src/lib/TickBitmap.sol\":3763:3788  initialized = masked != 0 */\n      swap6\n      pop\n        /* \"src/lib/TickBitmap.sol\":3919:3930  initialized */\n      dup6\n        /* \"src/lib/TickBitmap.sol\":3919:4136  initialized... */\n      tag_298\n      jumpi\n        /* \"src/lib/TickBitmap.sol\":4125:4136  tickSpacing */\n      dup9\n        /* \"src/lib/TickBitmap.sol\":4112:4118  bitPos */\n      dup4\n        /* \"src/lib/TickBitmap.sol\":4094:4109  type(uint8).max */\n      0xff\n        /* \"src/lib/TickBitmap.sol\":4094:4118  type(uint8).max - bitPos */\n      tag_299\n      swap2\n      swap1\n      tag_290\n      jump\t// in\n    tag_299:\n        /* \"src/lib/TickBitmap.sol\":4086:4120  uint24((type(uint8).max - bitPos)) */\n      0xff\n      and\n        /* \"src/lib/TickBitmap.sol\":4076:4077  1 */\n      0x01\n        /* \"src/lib/TickBitmap.sol\":4063:4073  compressed */\n      dup8\n        /* \"src/lib/TickBitmap.sol\":4063:4077  compressed + 1 */\n      tag_300\n      swap2\n      swap1\n      tag_296\n      jump\t// in\n    tag_300:\n        /* \"src/lib/TickBitmap.sol\":4063:4121  compressed + 1 + int24(uint24((type(uint8).max - bitPos))) */\n      tag_301\n      swap2\n      swap1\n      tag_296\n      jump\t// in\n    tag_301:\n        /* \"src/lib/TickBitmap.sol\":4062:4136  (compressed + 1 + int24(uint24((type(uint8).max - bitPos)))) * tickSpacing */\n      tag_302\n      swap2\n      swap1\n      tag_285\n      jump\t// in\n    tag_302:\n        /* \"src/lib/TickBitmap.sol\":3919:4136  initialized... */\n      jump(tag_303)\n    tag_298:\n        /* \"src/lib/TickBitmap.sol\":4032:4043  tickSpacing */\n      dup9\n        /* \"src/lib/TickBitmap.sol\":4019:4025  bitPos */\n      dup4\n        /* \"src/lib/TickBitmap.sol\":3981:4016  BitMath.leastSignificantBit(masked) */\n      tag_304\n        /* \"src/lib/TickBitmap.sol\":4009:4015  masked */\n      dup4\n        /* \"src/lib/TickBitmap.sol\":3981:4008  BitMath.leastSignificantBit */\n      tag_305\n        /* \"src/lib/TickBitmap.sol\":3981:4016  BitMath.leastSignificantBit(masked) */\n      jump\t// in\n    tag_304:\n        /* \"src/lib/TickBitmap.sol\":3981:4025  BitMath.leastSignificantBit(masked) - bitPos */\n      tag_306\n      swap2\n      swap1\n      tag_290\n      jump\t// in\n    tag_306:\n        /* \"src/lib/TickBitmap.sol\":3973:4027  uint24((BitMath.leastSignificantBit(masked) - bitPos)) */\n      0xff\n      and\n        /* \"src/lib/TickBitmap.sol\":3963:3964  1 */\n      0x01\n        /* \"src/lib/TickBitmap.sol\":3950:3960  compressed */\n      dup8\n        /* \"src/lib/TickBitmap.sol\":3950:3964  compressed + 1 */\n      tag_307\n      swap2\n      swap1\n      tag_296\n      jump\t// in\n    tag_307:\n        /* \"src/lib/TickBitmap.sol\":3950:4028  compressed + 1 + int24(uint24((BitMath.leastSignificantBit(masked) - bitPos))) */\n      tag_308\n      swap2\n      swap1\n      tag_296\n      jump\t// in\n    tag_308:\n        /* \"src/lib/TickBitmap.sol\":3949:4043  (compressed + 1 + int24(uint24((BitMath.leastSignificantBit(masked) - bitPos)))) * tickSpacing */\n      tag_309\n      swap2\n      swap1\n      tag_285\n      jump\t// in\n    tag_309:\n        /* \"src/lib/TickBitmap.sol\":3919:4136  initialized... */\n    tag_303:\n        /* \"src/lib/TickBitmap.sol\":3912:4136  next = initialized... */\n      swap7\n      pop\n        /* \"src/lib/TickBitmap.sol\":3313:4147  {... */\n      pop\n      pop\n      pop\n      pop\n        /* \"src/lib/TickBitmap.sol\":2566:4147  if (lte) {... */\n    tag_293:\n        /* \"src/lib/TickBitmap.sol\":2410:4153  {... */\n      pop\n        /* \"src/lib/TickBitmap.sol\":2196:4153  function nextInitializedTickWithinOneWord(... */\n      swap5\n      pop\n      swap5\n      swap3\n      pop\n      pop\n      pop\n      jump\t// out\n        /* \"src/lib/SwapMath.sol\":108:1081  function computeSwapStep(... */\n    tag_126:\n        /* \"src/lib/SwapMath.sol\":332:356  uint160 sqrtPriceNextX96 */\n      0x00\n        /* \"src/lib/SwapMath.sol\":389:405  uint256 amountIn */\n      0x00\n        /* \"src/lib/SwapMath.sol\":419:436  uint256 amountOut */\n      0x00\n        /* \"src/lib/SwapMath.sol\":461:476  bool zeroForOne */\n      0x00\n        /* \"src/lib/SwapMath.sol\":502:520  sqrtPriceTargetX96 */\n      dup7\n        /* \"src/lib/SwapMath.sol\":479:520  sqrtPriceCurrentX96 >= sqrtPriceTargetX96 */\n      0xffffffffffffffffffffffffffffffffffffffff\n      and\n        /* \"src/lib/SwapMath.sol\":479:498  sqrtPriceCurrentX96 */\n      dup9\n        /* \"src/lib/SwapMath.sol\":479:520  sqrtPriceCurrentX96 >= sqrtPriceTargetX96 */\n      0xffffffffffffffffffffffffffffffffffffffff\n      and\n      lt\n      iszero\n        /* \"src/lib/SwapMath.sol\":461:520  bool zeroForOne = sqrtPriceCurrentX96 >= sqrtPriceTargetX96 */\n      swap1\n      pop\n        /* \"src/lib/SwapMath.sol\":550:699  Math.getNextSqrtPriceFromInput(... */\n      tag_311\n        /* \"src/lib/SwapMath.sol\":594:613  sqrtPriceCurrentX96 */\n      dup9\n        /* \"src/lib/SwapMath.sol\":627:636  liquidity */\n      dup8\n        /* \"src/lib/SwapMath.sol\":650:665  amountRemaining */\n      dup8\n        /* \"src/lib/SwapMath.sol\":679:689  zeroForOne */\n      dup5\n        /* \"src/lib/SwapMath.sol\":550:580  Math.getNextSqrtPriceFromInput */\n      tag_312\n        /* \"src/lib/SwapMath.sol\":550:699  Math.getNextSqrtPriceFromInput(... */\n      jump\t// in\n    tag_311:\n        /* \"src/lib/SwapMath.sol\":531:699  sqrtPriceNextX96 = Math.getNextSqrtPriceFromInput(... */\n      swap4\n      pop\n        /* \"src/lib/SwapMath.sol\":721:838  Math.calcAmount0Delta(... */\n      tag_313\n        /* \"src/lib/SwapMath.sol\":756:775  sqrtPriceCurrentX96 */\n      dup9\n        /* \"src/lib/SwapMath.sol\":789:805  sqrtPriceNextX96 */\n      dup6\n        /* \"src/lib/SwapMath.sol\":819:828  liquidity */\n      dup9\n        /* \"src/lib/SwapMath.sol\":721:742  Math.calcAmount0Delta */\n      tag_81\n        /* \"src/lib/SwapMath.sol\":721:838  Math.calcAmount0Delta(... */\n      jump\t// in\n    tag_313:\n        /* \"src/lib/SwapMath.sol\":710:838  amountIn = Math.calcAmount0Delta(... */\n      swap3\n      pop\n        /* \"src/lib/SwapMath.sol\":860:977  Math.calcAmount1Delta(... */\n      tag_314\n        /* \"src/lib/SwapMath.sol\":895:914  sqrtPriceCurrentX96 */\n      dup9\n        /* \"src/lib/SwapMath.sol\":928:944  sqrtPriceNextX96 */\n      dup6\n        /* \"src/lib/SwapMath.sol\":958:967  liquidity */\n      dup9\n        /* \"src/lib/SwapMath.sol\":860:881  Math.calcAmount1Delta */\n      tag_88\n        /* \"src/lib/SwapMath.sol\":860:977  Math.calcAmount1Delta(... */\n      jump\t// in\n    tag_314:\n        /* \"src/lib/SwapMath.sol\":848:977  amountOut = Math.calcAmount1Delta(... */\n      swap2\n      pop\n        /* \"src/lib/SwapMath.sol\":993:1003  zeroForOne */\n      dup1\n        /* \"src/lib/SwapMath.sol\":988:1075  if (!zeroForOne) {... */\n      tag_315\n      jumpi\n        /* \"src/lib/SwapMath.sol\":1044:1053  amountOut */\n      dup2\n        /* \"src/lib/SwapMath.sol\":1055:1063  amountIn */\n      dup4\n        /* \"src/lib/SwapMath.sol\":1019:1064  (amountIn, amountOut) = (amountOut, amountIn) */\n      dup1\n      swap4\n      pop\n      dup2\n      swap5\n      pop\n      pop\n      pop\n        /* \"src/lib/SwapMath.sol\":988:1075  if (!zeroForOne) {... */\n    tag_315:\n        /* \"src/lib/SwapMath.sol\":451:1081  {... */\n      pop\n        /* \"src/lib/SwapMath.sol\":108:1081  function computeSwapStep(... */\n      swap5\n      pop\n      swap5\n      pop\n      swap5\n      swap2\n      pop\n      pop\n      jump\t// out\n        /* \"src/lib/TickMath.sol\":4362:8643  function getTickAtSqrtRatio(uint160 sqrtPriceX96) internal pure returns (int24 tick) {... */\n    tag_131:\n        /* \"src/lib/TickMath.sol\":4435:4445  int24 tick */\n      0x00\n        /* \"src/lib/TickMath.sol\":817:827  4295128739 */\n      0x01000276a3\n        /* \"src/lib/TickMath.sol\":4564:4594  sqrtPriceX96 >= MIN_SQRT_RATIO */\n      0xffffffffffffffffffffffffffffffffffffffff\n      and\n        /* \"src/lib/TickMath.sol\":4564:4576  sqrtPriceX96 */\n      dup3\n        /* \"src/lib/TickMath.sol\":4564:4594  sqrtPriceX96 >= MIN_SQRT_RATIO */\n      0xffffffffffffffffffffffffffffffffffffffff\n      and\n      lt\n      iszero\n        /* \"src/lib/TickMath.sol\":4564:4627  sqrtPriceX96 >= MIN_SQRT_RATIO && sqrtPriceX96 < MAX_SQRT_RATIO */\n      dup1\n      iszero\n      tag_317\n      jumpi\n      pop\n        /* \"src/lib/TickMath.sol\":997:1046  1461446703485210103287273052203988822378723970342 */\n      0xfffd8963efd1fc6a506488495d951d5263988d26\n        /* \"src/lib/TickMath.sol\":4598:4627  sqrtPriceX96 < MAX_SQRT_RATIO */\n      0xffffffffffffffffffffffffffffffffffffffff\n      and\n        /* \"src/lib/TickMath.sol\":4598:4610  sqrtPriceX96 */\n      dup3\n        /* \"src/lib/TickMath.sol\":4598:4627  sqrtPriceX96 < MAX_SQRT_RATIO */\n      0xffffffffffffffffffffffffffffffffffffffff\n      and\n      lt\n        /* \"src/lib/TickMath.sol\":4564:4627  sqrtPriceX96 >= MIN_SQRT_RATIO && sqrtPriceX96 < MAX_SQRT_RATIO */\n    tag_317:\n        /* \"src/lib/TickMath.sol\":4556:4633  require(sqrtPriceX96 >= MIN_SQRT_RATIO && sqrtPriceX96 < MAX_SQRT_RATIO, 'R') */\n      tag_318\n      jumpi\n      mload(0x40)\n      0x08c379a000000000000000000000000000000000000000000000000000000000\n      dup2\n      mstore\n      0x04\n      add\n      tag_319\n      swap1\n      tag_320\n      jump\t// in\n    tag_319:\n      mload(0x40)\n      dup1\n      swap2\n      sub\n      swap1\n      revert\n    tag_318:\n        /* \"src/lib/TickMath.sol\":4643:4656  uint256 ratio */\n      0x00\n        /* \"src/lib/TickMath.sol\":4684:4686  32 */\n      0x20\n        /* \"src/lib/TickMath.sol\":4667:4679  sqrtPriceX96 */\n      dup4\n        /* \"src/lib/TickMath.sol\":4659:4680  uint256(sqrtPriceX96) */\n      0xffffffffffffffffffffffffffffffffffffffff\n      and\n        /* \"src/lib/TickMath.sol\":4659:4686  uint256(sqrtPriceX96) << 32 */\n      swap1\n      shl\n        /* \"src/lib/TickMath.sol\":4643:4686  uint256 ratio = uint256(sqrtPriceX96) << 32 */\n      swap1\n      pop\n        /* \"src/lib/TickMath.sol\":4697:4706  uint256 r */\n      0x00\n        /* \"src/lib/TickMath.sol\":4709:4714  ratio */\n      dup2\n        /* \"src/lib/TickMath.sol\":4697:4714  uint256 r = ratio */\n      swap1\n      pop\n        /* \"src/lib/TickMath.sol\":4724:4735  uint256 msb */\n      0x00\n        /* \"src/lib/TickMath.sol\":4738:4739  0 */\n      0x00\n        /* \"src/lib/TickMath.sol\":4724:4739  uint256 msb = 0 */\n      swap1\n      pop\n        /* \"src/lib/TickMath.sol\":4795:4829  0xFFFFFFFFFFFFFFFFFFFFFFFFFFFFFFFF */\n      0xffffffffffffffffffffffffffffffff\n        /* \"src/lib/TickMath.sol\":4792:4793  r */\n      dup3\n        /* \"src/lib/TickMath.sol\":4789:4830  gt(r, 0xFFFFFFFFFFFFFFFFFFFFFFFFFFFFFFFF) */\n      gt\n        /* \"src/lib/TickMath.sol\":4786:4787  7 */\n      0x07\n        /* \"src/lib/TickMath.sol\":4782:4831  shl(7, gt(r, 0xFFFFFFFFFFFFFFFFFFFFFFFFFFFFFFFF)) */\n      shl\n        /* \"src/lib/TickMath.sol\":4859:4860  f */\n      dup1\n        /* \"src/lib/TickMath.sol\":4854:4857  msb */\n      dup3\n        /* \"src/lib/TickMath.sol\":4851:4861  or(msb, f) */\n      or\n        /* \"src/lib/TickMath.sol\":4844:4861  msb := or(msb, f) */\n      swap2\n      pop\n        /* \"src/lib/TickMath.sol\":4886:4887  r */\n      dup3\n        /* \"src/lib/TickMath.sol\":4883:4884  f */\n      dup2\n        /* \"src/lib/TickMath.sol\":4879:4888  shr(f, r) */\n      shr\n        /* \"src/lib/TickMath.sol\":4874:4888  r := shr(f, r) */\n      swap3\n      pop\n        /* \"src/lib/TickMath.sol\":4759:4898  {... */\n      pop\n        /* \"src/lib/TickMath.sol\":4952:4970  0xFFFFFFFFFFFFFFFF */\n      0xffffffffffffffff\n        /* \"src/lib/TickMath.sol\":4949:4950  r */\n      dup3\n        /* \"src/lib/TickMath.sol\":4946:4971  gt(r, 0xFFFFFFFFFFFFFFFF) */\n      gt\n        /* \"src/lib/TickMath.sol\":4943:4944  6 */\n      0x06\n        /* \"src/lib/TickMath.sol\":4939:4972  shl(6, gt(r, 0xFFFFFFFFFFFFFFFF)) */\n      shl\n        /* \"src/lib/TickMath.sol\":5000:5001  f */\n      dup1\n        /* \"src/lib/TickMath.sol\":4995:4998  msb */\n      dup3\n        /* \"src/lib/TickMath.sol\":4992:5002  or(msb, f) */\n      or\n        /* \"src/lib/TickMath.sol\":4985:5002  msb := or(msb, f) */\n      swap2\n      pop\n        /* \"src/lib/TickMath.sol\":5027:5028  r */\n      dup3\n        /* \"src/lib/TickMath.sol\":5024:5025  f */\n      dup2\n        /* \"src/lib/TickMath.sol\":5020:5029  shr(f, r) */\n      shr\n        /* \"src/lib/TickMath.sol\":5015:5029  r := shr(f, r) */\n      swap3\n      pop\n        /* \"src/lib/TickMath.sol\":4916:5039  {... */\n      pop\n        /* \"src/lib/TickMath.sol\":5093:5103  0xFFFFFFFF */\n      0xffffffff\n        /* \"src/lib/TickMath.sol\":5090:5091  r */\n      dup3\n        /* \"src/lib/TickMath.sol\":5087:5104  gt(r, 0xFFFFFFFF) */\n      gt\n        /* \"src/lib/TickMath.sol\":5084:5085  5 */\n      0x05\n        /* \"src/lib/TickMath.sol\":5080:5105  shl(5, gt(r, 0xFFFFFFFF)) */\n      shl\n        /* \"src/lib/TickMath.sol\":5133:5134  f */\n      dup1\n        /* \"src/lib/TickMath.sol\":5128:5131  msb */\n      dup3\n        /* \"src/lib/TickMath.sol\":5125:5135  or(msb, f) */\n      or\n        /* \"src/lib/TickMath.sol\":5118:5135  msb := or(msb, f) */\n      swap2\n      pop\n        /* \"src/lib/TickMath.sol\":5160:5161  r */\n      dup3\n        /* \"src/lib/TickMath.sol\":5157:5158  f */\n      dup2\n        /* \"src/lib/TickMath.sol\":5153:5162  shr(f, r) */\n      shr\n        /* \"src/lib/TickMath.sol\":5148:5162  r := shr(f, r) */\n      swap3\n      pop\n        /* \"src/lib/TickMath.sol\":5057:5172  {... */\n      pop\n        /* \"src/lib/TickMath.sol\":5226:5232  0xFFFF */\n      0xffff\n        /* \"src/lib/TickMath.sol\":5223:5224  r */\n      dup3\n        /* \"src/lib/TickMath.sol\":5220:5233  gt(r, 0xFFFF) */\n      gt\n        /* \"src/lib/TickMath.sol\":5217:5218  4 */\n      0x04\n        /* \"src/lib/TickMath.sol\":5213:5234  shl(4, gt(r, 0xFFFF)) */\n      shl\n        /* \"src/lib/TickMath.sol\":5262:5263  f */\n      dup1\n        /* \"src/lib/TickMath.sol\":5257:5260  msb */\n      dup3\n        /* \"src/lib/TickMath.sol\":5254:5264  or(msb, f) */\n      or\n        /* \"src/lib/TickMath.sol\":5247:5264  msb := or(msb, f) */\n      swap2\n      pop\n        /* \"src/lib/TickMath.sol\":5289:5290  r */\n      dup3\n        /* \"src/lib/TickMath.sol\":5286:5287  f */\n      dup2\n        /* \"src/lib/TickMath.sol\":5282:5291  shr(f, r) */\n      shr\n        /* \"src/lib/TickMath.sol\":5277:5291  r := shr(f, r) */\n      swap3\n      pop\n        /* \"src/lib/TickMath.sol\":5190:5301  {... */\n      pop\n        /* \"src/lib/TickMath.sol\":5355:5359  0xFF */\n      0xff\n        /* \"src/lib/TickMath.sol\":5352:5353  r */\n      dup3\n        /* \"src/lib/TickMath.sol\":5349:5360  gt(r, 0xFF) */\n      gt\n        /* \"src/lib/TickMath.sol\":5346:5347  3 */\n      0x03\n        /* \"src/lib/TickMath.sol\":5342:5361  shl(3, gt(r, 0xFF)) */\n      shl\n        /* \"src/lib/TickMath.sol\":5389:5390  f */\n      dup1\n        /* \"src/lib/TickMath.sol\":5384:5387  msb */\n      dup3\n        /* \"src/lib/TickMath.sol\":5381:5391  or(msb, f) */\n      or\n        /* \"src/lib/TickMath.sol\":5374:5391  msb := or(msb, f) */\n      swap2\n      pop\n        /* \"src/lib/TickMath.sol\":5416:5417  r */\n      dup3\n        /* \"src/lib/TickMath.sol\":5413:5414  f */\n      dup2\n        /* \"src/lib/TickMath.sol\":5409:5418  shr(f, r) */\n      shr\n        /* \"src/lib/TickMath.sol\":5404:5418  r := shr(f, r) */\n      swap3\n      pop\n        /* \"src/lib/TickMath.sol\":5319:5428  {... */\n      pop\n        /* \"src/lib/TickMath.sol\":5482:5485  0xF */\n      0x0f\n        /* \"src/lib/TickMath.sol\":5479:5480  r */\n      dup3\n        /* \"src/lib/TickMath.sol\":5476:5486  gt(r, 0xF) */\n      gt\n        /* \"src/lib/TickMath.sol\":5473:5474  2 */\n      0x02\n        /* \"src/lib/TickMath.sol\":5469:5487  shl(2, gt(r, 0xF)) */\n      shl\n        /* \"src/lib/TickMath.sol\":5515:5516  f */\n      dup1\n        /* \"src/lib/TickMath.sol\":5510:5513  msb */\n      dup3\n        /* \"src/lib/TickMath.sol\":5507:5517  or(msb, f) */\n      or\n        /* \"src/lib/TickMath.sol\":5500:5517  msb := or(msb, f) */\n      swap2\n      pop\n        /* \"src/lib/TickMath.sol\":5542:5543  r */\n      dup3\n        /* \"src/lib/TickMath.sol\":5539:5540  f */\n      dup2\n        /* \"src/lib/TickMath.sol\":5535:5544  shr(f, r) */\n      shr\n        /* \"src/lib/TickMath.sol\":5530:5544  r := shr(f, r) */\n      swap3\n      pop\n        /* \"src/lib/TickMath.sol\":5446:5554  {... */\n      pop\n        /* \"src/lib/TickMath.sol\":5608:5611  0x3 */\n      0x03\n        /* \"src/lib/TickMath.sol\":5605:5606  r */\n      dup3\n        /* \"src/lib/TickMath.sol\":5602:5612  gt(r, 0x3) */\n      gt\n        /* \"src/lib/TickMath.sol\":5599:5600  1 */\n      0x01\n        /* \"src/lib/TickMath.sol\":5595:5613  shl(1, gt(r, 0x3)) */\n      shl\n        /* \"src/lib/TickMath.sol\":5641:5642  f */\n      dup1\n        /* \"src/lib/TickMath.sol\":5636:5639  msb */\n      dup3\n        /* \"src/lib/TickMath.sol\":5633:5643  or(msb, f) */\n      or\n        /* \"src/lib/TickMath.sol\":5626:5643  msb := or(msb, f) */\n      swap2\n      pop\n        /* \"src/lib/TickMath.sol\":5668:5669  r */\n      dup3\n        /* \"src/lib/TickMath.sol\":5665:5666  f */\n      dup2\n        /* \"src/lib/TickMath.sol\":5661:5670  shr(f, r) */\n      shr\n        /* \"src/lib/TickMath.sol\":5656:5670  r := shr(f, r) */\n      swap3\n      pop\n        /* \"src/lib/TickMath.sol\":5572:5680  {... */\n      pop\n        /* \"src/lib/TickMath.sol\":5727:5730  0x1 */\n      0x01\n        /* \"src/lib/TickMath.sol\":5724:5725  r */\n      dup3\n        /* \"src/lib/TickMath.sol\":5721:5731  gt(r, 0x1) */\n      gt\n        /* \"src/lib/TickMath.sol\":5759:5760  f */\n      dup1\n        /* \"src/lib/TickMath.sol\":5754:5757  msb */\n      dup3\n        /* \"src/lib/TickMath.sol\":5751:5761  or(msb, f) */\n      or\n        /* \"src/lib/TickMath.sol\":5744:5761  msb := or(msb, f) */\n      swap2\n      pop\n        /* \"src/lib/TickMath.sol\":5698:5771  {... */\n      pop\n        /* \"src/lib/TickMath.sol\":5792:5795  128 */\n      0x80\n        /* \"src/lib/TickMath.sol\":5785:5788  msb */\n      dup2\n        /* \"src/lib/TickMath.sol\":5785:5795  msb >= 128 */\n      lt\n        /* \"src/lib/TickMath.sol\":5781:5860  if (msb >= 128) r = ratio >> (msb - 127);... */\n      tag_321\n      jumpi\n        /* \"src/lib/TickMath.sol\":5817:5820  127 */\n      0x7f\n        /* \"src/lib/TickMath.sol\":5811:5814  msb */\n      dup2\n        /* \"src/lib/TickMath.sol\":5811:5820  msb - 127 */\n      tag_322\n      swap2\n      swap1\n      tag_128\n      jump\t// in\n    tag_322:\n        /* \"src/lib/TickMath.sol\":5801:5806  ratio */\n      dup4\n        /* \"src/lib/TickMath.sol\":5801:5821  ratio >> (msb - 127) */\n      swap1\n      shr\n        /* \"src/lib/TickMath.sol\":5797:5821  r = ratio >> (msb - 127) */\n      swap2\n      pop\n        /* \"src/lib/TickMath.sol\":5781:5860  if (msb >= 128) r = ratio >> (msb - 127);... */\n      jump(tag_323)\n    tag_321:\n        /* \"src/lib/TickMath.sol\":5856:5859  msb */\n      dup1\n        /* \"src/lib/TickMath.sol\":5850:5853  127 */\n      0x7f\n        /* \"src/lib/TickMath.sol\":5850:5859  127 - msb */\n      tag_324\n      swap2\n      swap1\n      tag_128\n      jump\t// in\n    tag_324:\n        /* \"src/lib/TickMath.sol\":5840:5845  ratio */\n      dup4\n        /* \"src/lib/TickMath.sol\":5840:5860  ratio << (127 - msb) */\n      swap1\n      shl\n        /* \"src/lib/TickMath.sol\":5836:5860  r = ratio << (127 - msb) */\n      swap2\n      pop\n        /* \"src/lib/TickMath.sol\":5781:5860  if (msb >= 128) r = ratio >> (msb - 127);... */\n    tag_323:\n        /* \"src/lib/TickMath.sol\":5871:5883  int256 log_2 */\n      0x00\n        /* \"src/lib/TickMath.sol\":5909:5911  64 */\n      0x40\n        /* \"src/lib/TickMath.sol\":5901:5904  128 */\n      0x80\n        /* \"src/lib/TickMath.sol\":5894:5897  msb */\n      dup4\n        /* \"src/lib/TickMath.sol\":5887:5904  int256(msb) - 128 */\n      tag_325\n      swap2\n      swap1\n      tag_326\n      jump\t// in\n    tag_325:\n        /* \"src/lib/TickMath.sol\":5886:5911  (int256(msb) - 128) << 64 */\n      swap1\n      shl\n        /* \"src/lib/TickMath.sol\":5871:5911  int256 log_2 = (int256(msb) - 128) << 64 */\n      swap1\n      pop\n        /* \"src/lib/TickMath.sol\":5966:5967  r */\n      dup3\n        /* \"src/lib/TickMath.sol\":5963:5964  r */\n      dup4\n        /* \"src/lib/TickMath.sol\":5959:5968  mul(r, r) */\n      mul\n        /* \"src/lib/TickMath.sol\":5954:5957  127 */\n      0x7f\n        /* \"src/lib/TickMath.sol\":5950:5969  shr(127, mul(r, r)) */\n      shr\n        /* \"src/lib/TickMath.sol\":5945:5969  r := shr(127, mul(r, r)) */\n      swap3\n      pop\n        /* \"src/lib/TickMath.sol\":6000:6001  r */\n      dup3\n        /* \"src/lib/TickMath.sol\":5995:5998  128 */\n      0x80\n        /* \"src/lib/TickMath.sol\":5991:6002  shr(128, r) */\n      shr\n        /* \"src/lib/TickMath.sol\":6042:6043  f */\n      dup1\n        /* \"src/lib/TickMath.sol\":6038:6040  63 */\n      0x3f\n        /* \"src/lib/TickMath.sol\":6034:6044  shl(63, f) */\n      shl\n        /* \"src/lib/TickMath.sol\":6027:6032  log_2 */\n      dup3\n        /* \"src/lib/TickMath.sol\":6024:6045  or(log_2, shl(63, f)) */\n      or\n        /* \"src/lib/TickMath.sol\":6015:6045  log_2 := or(log_2, shl(63, f)) */\n      swap2\n      pop\n        /* \"src/lib/TickMath.sol\":6070:6071  r */\n      dup4\n        /* \"src/lib/TickMath.sol\":6067:6068  f */\n      dup2\n        /* \"src/lib/TickMath.sol\":6063:6072  shr(f, r) */\n      shr\n        /* \"src/lib/TickMath.sol\":6058:6072  r := shr(f, r) */\n      swap4\n      pop\n        /* \"src/lib/TickMath.sol\":5931:6082  {... */\n      pop\n        /* \"src/lib/TickMath.sol\":6135:6136  r */\n      dup3\n        /* \"src/lib/TickMath.sol\":6132:6133  r */\n      dup4\n        /* \"src/lib/TickMath.sol\":6128:6137  mul(r, r) */\n      mul\n        /* \"src/lib/TickMath.sol\":6123:6126  127 */\n      0x7f\n        /* \"src/lib/TickMath.sol\":6119:6138  shr(127, mul(r, r)) */\n      shr\n        /* \"src/lib/TickMath.sol\":6114:6138  r := shr(127, mul(r, r)) */\n      swap3\n      pop\n        /* \"src/lib/TickMath.sol\":6169:6170  r */\n      dup3\n        /* \"src/lib/TickMath.sol\":6164:6167  128 */\n      0x80\n        /* \"src/lib/TickMath.sol\":6160:6171  shr(128, r) */\n      shr\n        /* \"src/lib/TickMath.sol\":6211:6212  f */\n      dup1\n        /* \"src/lib/TickMath.sol\":6207:6209  62 */\n      0x3e\n        /* \"src/lib/TickMath.sol\":6203:6213  shl(62, f) */\n      shl\n        /* \"src/lib/TickMath.sol\":6196:6201  log_2 */\n      dup3\n        /* \"src/lib/TickMath.sol\":6193:6214  or(log_2, shl(62, f)) */\n      or\n        /* \"src/lib/TickMath.sol\":6184:6214  log_2 := or(log_2, shl(62, f)) */\n      swap2\n      pop\n        /* \"src/lib/TickMath.sol\":6239:6240  r */\n      dup4\n        /* \"src/lib/TickMath.sol\":6236:6237  f */\n      dup2\n        /* \"src/lib/TickMath.sol\":6232:6241  shr(f, r) */\n      shr\n        /* \"src/lib/TickMath.sol\":6227:6241  r := shr(f, r) */\n      swap4\n      pop\n        /* \"src/lib/TickMath.sol\":6100:6251  {... */\n      pop\n        /* \"src/lib/TickMath.sol\":6304:6305  r */\n      dup3\n        /* \"src/lib/TickMath.sol\":6301:6302  r */\n      dup4\n        /* \"src/lib/TickMath.sol\":6297:6306  mul(r, r) */\n      mul\n        /* \"src/lib/TickMath.sol\":6292:6295  127 */\n      0x7f\n        /* \"src/lib/TickMath.sol\":6288:6307  shr(127, mul(r, r)) */\n      shr\n        /* \"src/lib/TickMath.sol\":6283:6307  r := shr(127, mul(r, r)) */\n      swap3\n      pop\n        /* \"src/lib/TickMath.sol\":6338:6339  r */\n      dup3\n        /* \"src/lib/TickMath.sol\":6333:6336  128 */\n      0x80\n        /* \"src/lib/TickMath.sol\":6329:6340  shr(128, r) */\n      shr\n        /* \"src/lib/TickMath.sol\":6380:6381  f */\n      dup1\n        /* \"src/lib/TickMath.sol\":6376:6378  61 */\n      0x3d\n        /* \"src/lib/TickMath.sol\":6372:6382  shl(61, f) */\n      shl\n        /* \"src/lib/TickMath.sol\":6365:6370  log_2 */\n      dup3\n        /* \"src/lib/TickMath.sol\":6362:6383  or(log_2, shl(61, f)) */\n      or\n        /* \"src/lib/TickMath.sol\":6353:6383  log_2 := or(log_2, shl(61, f)) */\n      swap2\n      pop\n        /* \"src/lib/TickMath.sol\":6408:6409  r */\n      dup4\n        /* \"src/lib/TickMath.sol\":6405:6406  f */\n      dup2\n        /* \"src/lib/TickMath.sol\":6401:6410  shr(f, r) */\n      shr\n        /* \"src/lib/TickMath.sol\":6396:6410  r := shr(f, r) */\n      swap4\n      pop\n        /* \"src/lib/TickMath.sol\":6269:6420  {... */\n      pop\n        /* \"src/lib/TickMath.sol\":6473:6474  r */\n      dup3\n        /* \"src/lib/TickMath.sol\":6470:6471  r */\n      dup4\n        /* \"src/lib/TickMath.sol\":6466:6475  mul(r, r) */\n      mul\n        /* \"src/lib/TickMath.sol\":6461:6464  127 */\n      0x7f\n        /* \"src/lib/TickMath.sol\":6457:6476  shr(127, mul(r, r)) */\n      shr\n        /* \"src/lib/TickMath.sol\":6452:6476  r := shr(127, mul(r, r)) */\n      swap3\n      pop\n        /* \"src/lib/TickMath.sol\":6507:6508  r */\n      dup3\n        /* \"src/lib/TickMath.sol\":6502:6505  128 */\n      0x80\n        /* \"src/lib/TickMath.sol\":6498:6509  shr(128, r) */\n      shr\n        /* \"src/lib/TickMath.sol\":6549:6550  f */\n      dup1\n        /* \"src/lib/TickMath.sol\":6545:6547  60 */\n      0x3c\n        /* \"src/lib/TickMath.sol\":6541:6551  shl(60, f) */\n      shl\n        /* \"src/lib/TickMath.sol\":6534:6539  log_2 */\n      dup3\n        /* \"src/lib/TickMath.sol\":6531:6552  or(log_2, shl(60, f)) */\n      or\n        /* \"src/lib/TickMath.sol\":6522:6552  log_2 := or(log_2, shl(60, f)) */\n      swap2\n      pop\n        /* \"src/lib/TickMath.sol\":6577:6578  r */\n      dup4\n        /* \"src/lib/TickMath.sol\":6574:6575  f */\n      dup2\n        /* \"src/lib/TickMath.sol\":6570:6579  shr(f, r) */\n      shr\n        /* \"src/lib/TickMath.sol\":6565:6579  r := shr(f, r) */\n      swap4\n      pop\n        /* \"src/lib/TickMath.sol\":6438:6589  {... */\n      pop\n        /* \"src/lib/TickMath.sol\":6642:6643  r */\n      dup3\n        /* \"src/lib/TickMath.sol\":6639:6640  r */\n      dup4\n        /* \"src/lib/TickMath.sol\":6635:6644  mul(r, r) */\n      mul\n        /* \"src/lib/TickMath.sol\":6630:6633  127 */\n      0x7f\n        /* \"src/lib/TickMath.sol\":6626:6645  shr(127, mul(r, r)) */\n      shr\n        /* \"src/lib/TickMath.sol\":6621:6645  r := shr(127, mul(r, r)) */\n      swap3\n      pop\n        /* \"src/lib/TickMath.sol\":6676:6677  r */\n      dup3\n        /* \"src/lib/TickMath.sol\":6671:6674  128 */\n      0x80\n        /* \"src/lib/TickMath.sol\":6667:6678  shr(128, r) */\n      shr\n        /* \"src/lib/TickMath.sol\":6718:6719  f */\n      dup1\n        /* \"src/lib/TickMath.sol\":6714:6716  59 */\n      0x3b\n        /* \"src/lib/TickMath.sol\":6710:6720  shl(59, f) */\n      shl\n        /* \"src/lib/TickMath.sol\":6703:6708  log_2 */\n      dup3\n        /* \"src/lib/TickMath.sol\":6700:6721  or(log_2, shl(59, f)) */\n      or\n        /* \"src/lib/TickMath.sol\":6691:6721  log_2 := or(log_2, shl(59, f)) */\n      swap2\n      pop\n        /* \"src/lib/TickMath.sol\":6746:6747  r */\n      dup4\n        /* \"src/lib/TickMath.sol\":6743:6744  f */\n      dup2\n        /* \"src/lib/TickMath.sol\":6739:6748  shr(f, r) */\n      shr\n        /* \"src/lib/TickMath.sol\":6734:6748  r := shr(f, r) */\n      swap4\n      pop\n        /* \"src/lib/TickMath.sol\":6607:6758  {... */\n      pop\n        /* \"src/lib/TickMath.sol\":6811:6812  r */\n      dup3\n        /* \"src/lib/TickMath.sol\":6808:6809  r */\n      dup4\n        /* \"src/lib/TickMath.sol\":6804:6813  mul(r, r) */\n      mul\n        /* \"src/lib/TickMath.sol\":6799:6802  127 */\n      0x7f\n        /* \"src/lib/TickMath.sol\":6795:6814  shr(127, mul(r, r)) */\n      shr\n        /* \"src/lib/TickMath.sol\":6790:6814  r := shr(127, mul(r, r)) */\n      swap3\n      pop\n        /* \"src/lib/TickMath.sol\":6845:6846  r */\n      dup3\n        /* \"src/lib/TickMath.sol\":6840:6843  128 */\n      0x80\n        /* \"src/lib/TickMath.sol\":6836:6847  shr(128, r) */\n      shr\n        /* \"src/lib/TickMath.sol\":6887:6888  f */\n      dup1\n        /* \"src/lib/TickMath.sol\":6883:6885  58 */\n      0x3a\n        /* \"src/lib/TickMath.sol\":6879:6889  shl(58, f) */\n      shl\n        /* \"src/lib/TickMath.sol\":6872:6877  log_2 */\n      dup3\n        /* \"src/lib/TickMath.sol\":6869:6890  or(log_2, shl(58, f)) */\n      or\n        /* \"src/lib/TickMath.sol\":6860:6890  log_2 := or(log_2, shl(58, f)) */\n      swap2\n      pop\n        /* \"src/lib/TickMath.sol\":6915:6916  r */\n      dup4\n        /* \"src/lib/TickMath.sol\":6912:6913  f */\n      dup2\n        /* \"src/lib/TickMath.sol\":6908:6917  shr(f, r) */\n      shr\n        /* \"src/lib/TickMath.sol\":6903:6917  r := shr(f, r) */\n      swap4\n      pop\n        /* \"src/lib/TickMath.sol\":6776:6927  {... */\n      pop\n        /* \"src/lib/TickMath.sol\":6980:6981  r */\n      dup3\n        /* \"src/lib/TickMath.sol\":6977:6978  r */\n      dup4\n        /* \"src/lib/TickMath.sol\":6973:6982  mul(r, r) */\n      mul\n        /* \"src/lib/TickMath.sol\":6968:6971  127 */\n      0x7f\n        /* \"src/lib/TickMath.sol\":6964:6983  shr(127, mul(r, r)) */\n      shr\n        /* \"src/lib/TickMath.sol\":6959:6983  r := shr(127, mul(r, r)) */\n      swap3\n      pop\n        /* \"src/lib/TickMath.sol\":7014:7015  r */\n      dup3\n        /* \"src/lib/TickMath.sol\":7009:7012  128 */\n      0x80\n        /* \"src/lib/TickMath.sol\":7005:7016  shr(128, r) */\n      shr\n        /* \"src/lib/TickMath.sol\":7056:7057  f */\n      dup1\n        /* \"src/lib/TickMath.sol\":7052:7054  57 */\n      0x39\n        /* \"src/lib/TickMath.sol\":7048:7058  shl(57, f) */\n      shl\n        /* \"src/lib/TickMath.sol\":7041:7046  log_2 */\n      dup3\n        /* \"src/lib/TickMath.sol\":7038:7059  or(log_2, shl(57, f)) */\n      or\n        /* \"src/lib/TickMath.sol\":7029:7059  log_2 := or(log_2, shl(57, f)) */\n      swap2\n      pop\n        /* \"src/lib/TickMath.sol\":7084:7085  r */\n      dup4\n        /* \"src/lib/TickMath.sol\":7081:7082  f */\n      dup2\n        /* \"src/lib/TickMath.sol\":7077:7086  shr(f, r) */\n      shr\n        /* \"src/lib/TickMath.sol\":7072:7086  r := shr(f, r) */\n      swap4\n      pop\n        /* \"src/lib/TickMath.sol\":6945:7096  {... */\n      pop\n        /* \"src/lib/TickMath.sol\":7149:7150  r */\n      dup3\n        /* \"src/lib/TickMath.sol\":7146:7147  r */\n      dup4\n        /* \"src/lib/TickMath.sol\":7142:7151  mul(r, r) */\n      mul\n        /* \"src/lib/TickMath.sol\":7137:7140  127 */\n      0x7f\n        /* \"src/lib/TickMath.sol\":7133:7152  shr(127, mul(r, r)) */\n      shr\n        /* \"src/lib/TickMath.sol\":7128:7152  r := shr(127, mul(r, r)) */\n      swap3\n      pop\n        /* \"src/lib/TickMath.sol\":7183:7184  r */\n      dup3\n        /* \"src/lib/TickMath.sol\":7178:7181  128 */\n      0x80\n        /* \"src/lib/TickMath.sol\":7174:7185  shr(128, r) */\n      shr\n        /* \"src/lib/TickMath.sol\":7225:7226  f */\n      dup1\n        /* \"src/lib/TickMath.sol\":7221:7223  56 */\n      0x38\n        /* \"src/lib/TickMath.sol\":7217:7227  shl(56, f) */\n      shl\n        /* \"src/lib/TickMath.sol\":7210:7215  log_2 */\n      dup3\n        /* \"src/lib/TickMath.sol\":7207:7228  or(log_2, shl(56, f)) */\n      or\n        /* \"src/lib/TickMath.sol\":7198:7228  log_2 := or(log_2, shl(56, f)) */\n      swap2\n      pop\n        /* \"src/lib/TickMath.sol\":7253:7254  r */\n      dup4\n        /* \"src/lib/TickMath.sol\":7250:7251  f */\n      dup2\n        /* \"src/lib/TickMath.sol\":7246:7255  shr(f, r) */\n      shr\n        /* \"src/lib/TickMath.sol\":7241:7255  r := shr(f, r) */\n      swap4\n      pop\n        /* \"src/lib/TickMath.sol\":7114:7265  {... */\n      pop\n        /* \"src/lib/TickMath.sol\":7318:7319  r */\n      dup3\n        /* \"src/lib/TickMath.sol\":7315:7316  r */\n      dup4\n        /* \"src/lib/TickMath.sol\":7311:7320  mul(r, r) */\n      mul\n        /* \"src/lib/TickMath.sol\":7306:7309  127 */\n      0x7f\n        /* \"src/lib/TickMath.sol\":7302:7321  shr(127, mul(r, r)) */\n      shr\n        /* \"src/lib/TickMath.sol\":7297:7321  r := shr(127, mul(r, r)) */\n      swap3\n      pop\n        /* \"src/lib/TickMath.sol\":7352:7353  r */\n      dup3\n        /* \"src/lib/TickMath.sol\":7347:7350  128 */\n      0x80\n        /* \"src/lib/TickMath.sol\":7343:7354  shr(128, r) */\n      shr\n        /* \"src/lib/TickMath.sol\":7394:7395  f */\n      dup1\n        /* \"src/lib/TickMath.sol\":7390:7392  55 */\n      0x37\n        /* \"src/lib/TickMath.sol\":7386:7396  shl(55, f) */\n      shl\n        /* \"src/lib/TickMath.sol\":7379:7384  log_2 */\n      dup3\n        /* \"src/lib/TickMath.sol\":7376:7397  or(log_2, shl(55, f)) */\n      or\n        /* \"src/lib/TickMath.sol\":7367:7397  log_2 := or(log_2, shl(55, f)) */\n      swap2\n      pop\n        /* \"src/lib/TickMath.sol\":7422:7423  r */\n      dup4\n        /* \"src/lib/TickMath.sol\":7419:7420  f */\n      dup2\n        /* \"src/lib/TickMath.sol\":7415:7424  shr(f, r) */\n      shr\n        /* \"src/lib/TickMath.sol\":7410:7424  r := shr(f, r) */\n      swap4\n      pop\n        /* \"src/lib/TickMath.sol\":7283:7434  {... */\n      pop\n        /* \"src/lib/TickMath.sol\":7487:7488  r */\n      dup3\n        /* \"src/lib/TickMath.sol\":7484:7485  r */\n      dup4\n        /* \"src/lib/TickMath.sol\":7480:7489  mul(r, r) */\n      mul\n        /* \"src/lib/TickMath.sol\":7475:7478  127 */\n      0x7f\n        /* \"src/lib/TickMath.sol\":7471:7490  shr(127, mul(r, r)) */\n      shr\n        /* \"src/lib/TickMath.sol\":7466:7490  r := shr(127, mul(r, r)) */\n      swap3\n      pop\n        /* \"src/lib/TickMath.sol\":7521:7522  r */\n      dup3\n        /* \"src/lib/TickMath.sol\":7516:7519  128 */\n      0x80\n        /* \"src/lib/TickMath.sol\":7512:7523  shr(128, r) */\n      shr\n        /* \"src/lib/TickMath.sol\":7563:7564  f */\n      dup1\n        /* \"src/lib/TickMath.sol\":7559:7561  54 */\n      0x36\n        /* \"src/lib/TickMath.sol\":7555:7565  shl(54, f) */\n      shl\n        /* \"src/lib/TickMath.sol\":7548:7553  log_2 */\n      dup3\n        /* \"src/lib/TickMath.sol\":7545:7566  or(log_2, shl(54, f)) */\n      or\n        /* \"src/lib/TickMath.sol\":7536:7566  log_2 := or(log_2, shl(54, f)) */\n      swap2\n      pop\n        /* \"src/lib/TickMath.sol\":7591:7592  r */\n      dup4\n        /* \"src/lib/TickMath.sol\":7588:7589  f */\n      dup2\n        /* \"src/lib/TickMath.sol\":7584:7593  shr(f, r) */\n      shr\n        /* \"src/lib/TickMath.sol\":7579:7593  r := shr(f, r) */\n      swap4\n      pop\n        /* \"src/lib/TickMath.sol\":7452:7603  {... */\n      pop\n        /* \"src/lib/TickMath.sol\":7656:7657  r */\n      dup3\n        /* \"src/lib/TickMath.sol\":7653:7654  r */\n      dup4\n        /* \"src/lib/TickMath.sol\":7649:7658  mul(r, r) */\n      mul\n        /* \"src/lib/TickMath.sol\":7644:7647  127 */\n      0x7f\n        /* \"src/lib/TickMath.sol\":7640:7659  shr(127, mul(r, r)) */\n      shr\n        /* \"src/lib/TickMath.sol\":7635:7659  r := shr(127, mul(r, r)) */\n      swap3\n      pop\n        /* \"src/lib/TickMath.sol\":7690:7691  r */\n      dup3\n        /* \"src/lib/TickMath.sol\":7685:7688  128 */\n      0x80\n        /* \"src/lib/TickMath.sol\":7681:7692  shr(128, r) */\n      shr\n        /* \"src/lib/TickMath.sol\":7732:7733  f */\n      dup1\n        /* \"src/lib/TickMath.sol\":7728:7730  53 */\n      0x35\n        /* \"src/lib/TickMath.sol\":7724:7734  shl(53, f) */\n      shl\n        /* \"src/lib/TickMath.sol\":7717:7722  log_2 */\n      dup3\n        /* \"src/lib/TickMath.sol\":7714:7735  or(log_2, shl(53, f)) */\n      or\n        /* \"src/lib/TickMath.sol\":7705:7735  log_2 := or(log_2, shl(53, f)) */\n      swap2\n      pop\n        /* \"src/lib/TickMath.sol\":7760:7761  r */\n      dup4\n        /* \"src/lib/TickMath.sol\":7757:7758  f */\n      dup2\n        /* \"src/lib/TickMath.sol\":7753:7762  shr(f, r) */\n      shr\n        /* \"src/lib/TickMath.sol\":7748:7762  r := shr(f, r) */\n      swap4\n      pop\n        /* \"src/lib/TickMath.sol\":7621:7772  {... */\n      pop\n        /* \"src/lib/TickMath.sol\":7825:7826  r */\n      dup3\n        /* \"src/lib/TickMath.sol\":7822:7823  r */\n      dup4\n        /* \"src/lib/TickMath.sol\":7818:7827  mul(r, r) */\n      mul\n        /* \"src/lib/TickMath.sol\":7813:7816  127 */\n      0x7f\n        /* \"src/lib/TickMath.sol\":7809:7828  shr(127, mul(r, r)) */\n      shr\n        /* \"src/lib/TickMath.sol\":7804:7828  r := shr(127, mul(r, r)) */\n      swap3\n      pop\n        /* \"src/lib/TickMath.sol\":7859:7860  r */\n      dup3\n        /* \"src/lib/TickMath.sol\":7854:7857  128 */\n      0x80\n        /* \"src/lib/TickMath.sol\":7850:7861  shr(128, r) */\n      shr\n        /* \"src/lib/TickMath.sol\":7901:7902  f */\n      dup1\n        /* \"src/lib/TickMath.sol\":7897:7899  52 */\n      0x34\n        /* \"src/lib/TickMath.sol\":7893:7903  shl(52, f) */\n      shl\n        /* \"src/lib/TickMath.sol\":7886:7891  log_2 */\n      dup3\n        /* \"src/lib/TickMath.sol\":7883:7904  or(log_2, shl(52, f)) */\n      or\n        /* \"src/lib/TickMath.sol\":7874:7904  log_2 := or(log_2, shl(52, f)) */\n      swap2\n      pop\n        /* \"src/lib/TickMath.sol\":7929:7930  r */\n      dup4\n        /* \"src/lib/TickMath.sol\":7926:7927  f */\n      dup2\n        /* \"src/lib/TickMath.sol\":7922:7931  shr(f, r) */\n      shr\n        /* \"src/lib/TickMath.sol\":7917:7931  r := shr(f, r) */\n      swap4\n      pop\n        /* \"src/lib/TickMath.sol\":7790:7941  {... */\n      pop\n        /* \"src/lib/TickMath.sol\":7994:7995  r */\n      dup3\n        /* \"src/lib/TickMath.sol\":7991:7992  r */\n      dup4\n        /* \"src/lib/TickMath.sol\":7987:7996  mul(r, r) */\n      mul\n        /* \"src/lib/TickMath.sol\":7982:7985  127 */\n      0x7f\n        /* \"src/lib/TickMath.sol\":7978:7997  shr(127, mul(r, r)) */\n      shr\n        /* \"src/lib/TickMath.sol\":7973:7997  r := shr(127, mul(r, r)) */\n      swap3\n      pop\n        /* \"src/lib/TickMath.sol\":8028:8029  r */\n      dup3\n        /* \"src/lib/TickMath.sol\":8023:8026  128 */\n      0x80\n        /* \"src/lib/TickMath.sol\":8019:8030  shr(128, r) */\n      shr\n        /* \"src/lib/TickMath.sol\":8070:8071  f */\n      dup1\n        /* \"src/lib/TickMath.sol\":8066:8068  51 */\n      0x33\n        /* \"src/lib/TickMath.sol\":8062:8072  shl(51, f) */\n      shl\n        /* \"src/lib/TickMath.sol\":8055:8060  log_2 */\n      dup3\n        /* \"src/lib/TickMath.sol\":8052:8073  or(log_2, shl(51, f)) */\n      or\n        /* \"src/lib/TickMath.sol\":8043:8073  log_2 := or(log_2, shl(51, f)) */\n      swap2\n      pop\n        /* \"src/lib/TickMath.sol\":8098:8099  r */\n      dup4\n        /* \"src/lib/TickMath.sol\":8095:8096  f */\n      dup2\n        /* \"src/lib/TickMath.sol\":8091:8100  shr(f, r) */\n      shr\n        /* \"src/lib/TickMath.sol\":8086:8100  r := shr(f, r) */\n      swap4\n      pop\n        /* \"src/lib/TickMath.sol\":7959:8110  {... */\n      pop\n        /* \"src/lib/TickMath.sol\":8163:8164  r */\n      dup3\n        /* \"src/lib/TickMath.sol\":8160:8161  r */\n      dup4\n        /* \"src/lib/TickMath.sol\":8156:8165  mul(r, r) */\n      mul\n        /* \"src/lib/TickMath.sol\":8151:8154  127 */\n      0x7f\n        /* \"src/lib/TickMath.sol\":8147:8166  shr(127, mul(r, r)) */\n      shr\n        /* \"src/lib/TickMath.sol\":8142:8166  r := shr(127, mul(r, r)) */\n      swap3\n      pop\n        /* \"src/lib/TickMath.sol\":8197:8198  r */\n      dup3\n        /* \"src/lib/TickMath.sol\":8192:8195  128 */\n      0x80\n        /* \"src/lib/TickMath.sol\":8188:8199  shr(128, r) */\n      shr\n        /* \"src/lib/TickMath.sol\":8239:8240  f */\n      dup1\n        /* \"src/lib/TickMath.sol\":8235:8237  50 */\n      0x32\n        /* \"src/lib/TickMath.sol\":8231:8241  shl(50, f) */\n      shl\n        /* \"src/lib/TickMath.sol\":8224:8229  log_2 */\n      dup3\n        /* \"src/lib/TickMath.sol\":8221:8242  or(log_2, shl(50, f)) */\n      or\n        /* \"src/lib/TickMath.sol\":8212:8242  log_2 := or(log_2, shl(50, f)) */\n      swap2\n      pop\n        /* \"src/lib/TickMath.sol\":8128:8252  {... */\n      pop\n        /* \"src/lib/TickMath.sol\":8262:8282  int256 log_sqrt10001 */\n      0x00\n        /* \"src/lib/TickMath.sol\":8293:8317  255738958999603826347141 */\n      0x3627a301d71055774c85\n        /* \"src/lib/TickMath.sol\":8285:8290  log_2 */\n      dup3\n        /* \"src/lib/TickMath.sol\":8285:8317  log_2 * 255738958999603826347141 */\n      tag_327\n      swap2\n      swap1\n      tag_328\n      jump\t// in\n    tag_327:\n        /* \"src/lib/TickMath.sol\":8262:8317  int256 log_sqrt10001 = log_2 * 255738958999603826347141 */\n      swap1\n      pop\n        /* \"src/lib/TickMath.sol\":8346:8359  int24 tickLow */\n      0x00\n        /* \"src/lib/TickMath.sol\":8427:8430  128 */\n      0x80\n        /* \"src/lib/TickMath.sol\":8385:8422  3402992956809132418596140100660247210 */\n      0x028f6481ab7f045a5af012a19d003aaa\n        /* \"src/lib/TickMath.sol\":8369:8382  log_sqrt10001 */\n      dup4\n        /* \"src/lib/TickMath.sol\":8369:8422  log_sqrt10001 - 3402992956809132418596140100660247210 */\n      tag_329\n      swap2\n      swap1\n      tag_326\n      jump\t// in\n    tag_329:\n        /* \"src/lib/TickMath.sol\":8368:8430  (log_sqrt10001 - 3402992956809132418596140100660247210) >> 128 */\n      swap1\n      sar\n        /* \"src/lib/TickMath.sol\":8346:8431  int24 tickLow = int24((log_sqrt10001 - 3402992956809132418596140100660247210) >> 128) */\n      swap1\n      pop\n        /* \"src/lib/TickMath.sol\":8441:8453  int24 tickHi */\n      0x00\n        /* \"src/lib/TickMath.sol\":8523:8526  128 */\n      0x80\n        /* \"src/lib/TickMath.sol\":8479:8518  291339464771989622907027621153398088495 */\n      0xdb2df09e81959a81455e260799a0632f\n        /* \"src/lib/TickMath.sol\":8463:8476  log_sqrt10001 */\n      dup5\n        /* \"src/lib/TickMath.sol\":8463:8518  log_sqrt10001 + 291339464771989622907027621153398088495 */\n      tag_330\n      swap2\n      swap1\n      tag_331\n      jump\t// in\n    tag_330:\n        /* \"src/lib/TickMath.sol\":8462:8526  (log_sqrt10001 + 291339464771989622907027621153398088495) >> 128 */\n      swap1\n      sar\n        /* \"src/lib/TickMath.sol\":8441:8527  int24 tickHi = int24((log_sqrt10001 + 291339464771989622907027621153398088495) >> 128) */\n      swap1\n      pop\n        /* \"src/lib/TickMath.sol\":8556:8562  tickHi */\n      dup1\n        /* \"src/lib/TickMath.sol\":8545:8562  tickLow == tickHi */\n      0x02\n      signextend\n        /* \"src/lib/TickMath.sol\":8545:8552  tickLow */\n      dup3\n        /* \"src/lib/TickMath.sol\":8545:8562  tickLow == tickHi */\n      0x02\n      signextend\n      eq\n        /* \"src/lib/TickMath.sol\":8545:8636  tickLow == tickHi ? tickLow : getSqrtRatioAtTick(tickHi) <= sqrtPriceX96 ? tickHi : tickLow */\n      tag_332\n      jumpi\n        /* \"src/lib/TickMath.sol\":8605:8617  sqrtPriceX96 */\n      dup9\n        /* \"src/lib/TickMath.sol\":8575:8617  getSqrtRatioAtTick(tickHi) <= sqrtPriceX96 */\n      0xffffffffffffffffffffffffffffffffffffffff\n      and\n        /* \"src/lib/TickMath.sol\":8575:8601  getSqrtRatioAtTick(tickHi) */\n      tag_333\n        /* \"src/lib/TickMath.sol\":8594:8600  tickHi */\n      dup3\n        /* \"src/lib/TickMath.sol\":8575:8593  getSqrtRatioAtTick */\n      tag_79\n        /* \"src/lib/TickMath.sol\":8575:8601  getSqrtRatioAtTick(tickHi) */\n      jump\t// in\n    tag_333:\n        /* \"src/lib/TickMath.sol\":8575:8617  getSqrtRatioAtTick(tickHi) <= sqrtPriceX96 */\n      0xffffffffffffffffffffffffffffffffffffffff\n      and\n      gt\n      iszero\n        /* \"src/lib/TickMath.sol\":8575:8636  getSqrtRatioAtTick(tickHi) <= sqrtPriceX96 ? tickHi : tickLow */\n      tag_334\n      jumpi\n        /* \"src/lib/TickMath.sol\":8629:8636  tickLow */\n      dup2\n        /* \"src/lib/TickMath.sol\":8575:8636  getSqrtRatioAtTick(tickHi) <= sqrtPriceX96 ? tickHi : tickLow */\n      jump(tag_335)\n    tag_334:\n        /* \"src/lib/TickMath.sol\":8620:8626  tickHi */\n      dup1\n        /* \"src/lib/TickMath.sol\":8575:8636  getSqrtRatioAtTick(tickHi) <= sqrtPriceX96 ? tickHi : tickLow */\n    tag_335:\n        /* \"src/lib/TickMath.sol\":8545:8636  tickLow == tickHi ? tickLow : getSqrtRatioAtTick(tickHi) <= sqrtPriceX96 ? tickHi : tickLow */\n      jump(tag_336)\n    tag_332:\n        /* \"src/lib/TickMath.sol\":8565:8572  tickLow */\n      dup2\n        /* \"src/lib/TickMath.sol\":8545:8636  tickLow == tickHi ? tickLow : getSqrtRatioAtTick(tickHi) <= sqrtPriceX96 ? tickHi : tickLow */\n    tag_336:\n        /* \"src/lib/TickMath.sol\":8538:8636  tick = tickLow == tickHi ? tickLow : getSqrtRatioAtTick(tickHi) <= sqrtPriceX96 ? tickHi : tickLow */\n      swap8\n      pop\n        /* \"src/lib/TickMath.sol\":4447:8643  {... */\n      pop\n      pop\n      pop\n      pop\n      pop\n      pop\n      pop\n        /* \"src/lib/TickMath.sol\":4362:8643  function getTickAtSqrtRatio(uint160 sqrtPriceX96) internal pure returns (int24 tick) {... */\n      swap2\n      swap1\n      pop\n      jump\t// out\n        /* \"src/lib/TickBitmap.sol\":686:854  function position(int24 tick) private pure returns (int16 wordPos, uint8 bitPos) {... */\n    tag_183:\n        /* \"src/lib/TickBitmap.sol\":738:751  int16 wordPos */\n      0x00\n        /* \"src/lib/TickBitmap.sol\":753:765  uint8 bitPos */\n      0x00\n        /* \"src/lib/TickBitmap.sol\":801:802  8 */\n      0x08\n        /* \"src/lib/TickBitmap.sol\":793:797  tick */\n      dup4\n        /* \"src/lib/TickBitmap.sol\":793:802  tick >> 8 */\n      0x02\n      signextend\n      swap1\n      sar\n        /* \"src/lib/TickBitmap.sol\":777:803  wordPos = int16(tick >> 8) */\n      swap2\n      pop\n        /* \"src/lib/TickBitmap.sol\":842:845  256 */\n      0x0100\n        /* \"src/lib/TickBitmap.sol\":835:839  tick */\n      dup4\n        /* \"src/lib/TickBitmap.sol\":835:845  tick % 256 */\n      tag_338\n      swap2\n      swap1\n      tag_178\n      jump\t// in\n    tag_338:\n        /* \"src/lib/TickBitmap.sol\":813:847  bitPos = uint8(uint24(tick % 256)) */\n      swap1\n      pop\n        /* \"src/lib/TickBitmap.sol\":686:854  function position(int24 tick) private pure returns (int16 wordPos, uint8 bitPos) {... */\n      swap2\n      pop\n      swap2\n      jump\t// out\n        /* \"src/lib/Math.sol\":3124:3447  function mulDivRoundingUp(... */\n    tag_253:\n        /* \"src/lib/Math.sol\":3246:3260  uint256 result */\n      0x00\n        /* \"src/lib/Math.sol\":3281:3314  PRBMath.mulDiv(a, b, denominator) */\n      tag_340\n        /* \"src/lib/Math.sol\":3296:3297  a */\n      dup5\n        /* \"src/lib/Math.sol\":3299:3300  b */\n      dup5\n        /* \"src/lib/Math.sol\":3302:3313  denominator */\n      dup5\n        /* \"src/lib/Math.sol\":3281:3295  PRBMath.mulDiv */\n      tag_341\n        /* \"src/lib/Math.sol\":3281:3314  PRBMath.mulDiv(a, b, denominator) */\n      jump\t// in\n    tag_340:\n        /* \"src/lib/Math.sol\":3272:3314  result = PRBMath.mulDiv(a, b, denominator) */\n      swap1\n      pop\n        /* \"src/lib/Math.sol\":3356:3357  0 */\n      0x00\n        /* \"src/lib/Math.sol\":3341:3352  denominator */\n      dup3\n        /* \"src/lib/Math.sol\":3328:3353  mulmod(a, b, denominator) */\n      dup1\n      tag_342\n      jumpi\n      tag_343\n      tag_344\n      jump\t// in\n    tag_343:\n    tag_342:\n        /* \"src/lib/Math.sol\":3338:3339  b */\n      dup5\n        /* \"src/lib/Math.sol\":3335:3336  a */\n      dup7\n        /* \"src/lib/Math.sol\":3328:3353  mulmod(a, b, denominator) */\n      mulmod\n        /* \"src/lib/Math.sol\":3328:3357  mulmod(a, b, denominator) > 0 */\n      gt\n        /* \"src/lib/Math.sol\":3324:3441  if (mulmod(a, b, denominator) > 0) {... */\n      iszero\n      tag_345\n      jumpi\n        /* \"src/lib/Math.sol\":3390:3407  type(uint256).max */\n      0xffffffffffffffffffffffffffffffffffffffffffffffffffffffffffffffff\n        /* \"src/lib/Math.sol\":3381:3387  result */\n      dup2\n        /* \"src/lib/Math.sol\":3381:3407  result < type(uint256).max */\n      lt\n        /* \"src/lib/Math.sol\":3373:3408  require(result < type(uint256).max) */\n      tag_346\n      jumpi\n      revert(0x00, 0x00)\n    tag_346:\n        /* \"src/lib/Math.sol\":3422:3430  result++ */\n      dup1\n      dup1\n      tag_347\n      swap1\n      tag_348\n      jump\t// in\n    tag_347:\n      swap2\n      pop\n      pop\n        /* \"src/lib/Math.sol\":3324:3441  if (mulmod(a, b, denominator) > 0) {... */\n    tag_345:\n        /* \"src/lib/Math.sol\":3124:3447  function mulDivRoundingUp(... */\n      swap4\n      swap3\n      pop\n      pop\n      pop\n      jump\t// out\n        /* \"src/lib/Math.sol\":3453:3756  function divRoundingUp(uint256 numerator, uint256 denominator)... */\n    tag_254:\n        /* \"src/lib/Math.sol\":3563:3577  uint256 result */\n      0x00\n        /* \"src/lib/Math.sol\":3724:3725  0 */\n      0x00\n        /* \"src/lib/Math.sol\":3710:3721  denominator */\n      dup3\n        /* \"src/lib/Math.sol\":3699:3708  numerator */\n      dup5\n        /* \"src/lib/Math.sol\":3695:3722  mod(numerator, denominator) */\n      mod\n        /* \"src/lib/Math.sol\":3692:3726  gt(mod(numerator, denominator), 0) */\n      gt\n        /* \"src/lib/Math.sol\":3662:3673  denominator */\n      dup3\n        /* \"src/lib/Math.sol\":3651:3660  numerator */\n      dup5\n        /* \"src/lib/Math.sol\":3647:3674  div(numerator, denominator) */\n      div\n        /* \"src/lib/Math.sol\":3626:3740  add(... */\n      add\n        /* \"src/lib/Math.sol\":3616:3740  result := add(... */\n      swap1\n      pop\n        /* \"src/lib/Math.sol\":3453:3756  function divRoundingUp(uint256 numerator, uint256 denominator)... */\n      swap3\n      swap2\n      pop\n      pop\n      jump\t// out\n        /* \"src/lib/BitMath.sol\":671:1402  function mostSignificantBit(uint256 x) internal pure returns (uint8 r) {... */\n    tag_288:\n        /* \"src/lib/BitMath.sol\":733:740  uint8 r */\n      0x00\n        /* \"src/lib/BitMath.sol\":764:765  0 */\n      0x00\n        /* \"src/lib/BitMath.sol\":760:761  x */\n      dup3\n        /* \"src/lib/BitMath.sol\":760:765  x > 0 */\n      gt\n        /* \"src/lib/BitMath.sol\":752:766  require(x > 0) */\n      tag_351\n      jumpi\n      revert(0x00, 0x00)\n    tag_351:\n        /* \"src/lib/BitMath.sol\":786:821  0x100000000000000000000000000000000 */\n      0x0100000000000000000000000000000000\n        /* \"src/lib/BitMath.sol\":781:782  x */\n      dup3\n        /* \"src/lib/BitMath.sol\":781:821  x >= 0x100000000000000000000000000000000 */\n      lt\n        /* \"src/lib/BitMath.sol\":777:879  if (x >= 0x100000000000000000000000000000000) {... */\n      tag_352\n      jumpi\n        /* \"src/lib/BitMath.sol\":843:846  128 */\n      0x80\n        /* \"src/lib/BitMath.sol\":837:846  x >>= 128 */\n      dup3\n      swap1\n      shr\n      swap2\n      pop\n        /* \"src/lib/BitMath.sol\":865:868  128 */\n      0x80\n        /* \"src/lib/BitMath.sol\":860:868  r += 128 */\n      dup2\n      tag_353\n      swap2\n      swap1\n      tag_354\n      jump\t// in\n    tag_353:\n      swap1\n      pop\n        /* \"src/lib/BitMath.sol\":777:879  if (x >= 0x100000000000000000000000000000000) {... */\n    tag_352:\n        /* \"src/lib/BitMath.sol\":897:916  0x10000000000000000 */\n      0x010000000000000000\n        /* \"src/lib/BitMath.sol\":892:893  x */\n      dup3\n        /* \"src/lib/BitMath.sol\":892:916  x >= 0x10000000000000000 */\n      lt\n        /* \"src/lib/BitMath.sol\":888:972  if (x >= 0x10000000000000000) {... */\n      tag_355\n      jumpi\n        /* \"src/lib/BitMath.sol\":938:940  64 */\n      0x40\n        /* \"src/lib/BitMath.sol\":932:940  x >>= 64 */\n      dup3\n      swap1\n      shr\n      swap2\n      pop\n        /* \"src/lib/BitMath.sol\":959:961  64 */\n      0x40\n        /* \"src/lib/BitMath.sol\":954:961  r += 64 */\n      dup2\n      tag_356\n      swap2\n      swap1\n      tag_354\n      jump\t// in\n    tag_356:\n      swap1\n      pop\n        /* \"src/lib/BitMath.sol\":888:972  if (x >= 0x10000000000000000) {... */\n    tag_355:\n        /* \"src/lib/BitMath.sol\":990:1001  0x100000000 */\n      0x0100000000\n        /* \"src/lib/BitMath.sol\":985:986  x */\n      dup3\n        /* \"src/lib/BitMath.sol\":985:1001  x >= 0x100000000 */\n      lt\n        /* \"src/lib/BitMath.sol\":981:1057  if (x >= 0x100000000) {... */\n      tag_357\n      jumpi\n        /* \"src/lib/BitMath.sol\":1023:1025  32 */\n      0x20\n        /* \"src/lib/BitMath.sol\":1017:1025  x >>= 32 */\n      dup3\n      swap1\n      shr\n      swap2\n      pop\n        /* \"src/lib/BitMath.sol\":1044:1046  32 */\n      0x20\n        /* \"src/lib/BitMath.sol\":1039:1046  r += 32 */\n      dup2\n      tag_358\n      swap2\n      swap1\n      tag_354\n      jump\t// in\n    tag_358:\n      swap1\n      pop\n        /* \"src/lib/BitMath.sol\":981:1057  if (x >= 0x100000000) {... */\n    tag_357:\n        /* \"src/lib/BitMath.sol\":1075:1082  0x10000 */\n      0x010000\n        /* \"src/lib/BitMath.sol\":1070:1071  x */\n      dup3\n        /* \"src/lib/BitMath.sol\":1070:1082  x >= 0x10000 */\n      lt\n        /* \"src/lib/BitMath.sol\":1066:1138  if (x >= 0x10000) {... */\n      tag_359\n      jumpi\n        /* \"src/lib/BitMath.sol\":1104:1106  16 */\n      0x10\n        /* \"src/lib/BitMath.sol\":1098:1106  x >>= 16 */\n      dup3\n      swap1\n      shr\n      swap2\n      pop\n        /* \"src/lib/BitMath.sol\":1125:1127  16 */\n      0x10\n        /* \"src/lib/BitMath.sol\":1120:1127  r += 16 */\n      dup2\n      tag_360\n      swap2\n      swap1\n      tag_354\n      jump\t// in\n    tag_360:\n      swap1\n      pop\n        /* \"src/lib/BitMath.sol\":1066:1138  if (x >= 0x10000) {... */\n    tag_359:\n        /* \"src/lib/BitMath.sol\":1156:1161  0x100 */\n      0x0100\n        /* \"src/lib/BitMath.sol\":1151:1152  x */\n      dup3\n        /* \"src/lib/BitMath.sol\":1151:1161  x >= 0x100 */\n      lt\n        /* \"src/lib/BitMath.sol\":1147:1215  if (x >= 0x100) {... */\n      tag_361\n      jumpi\n        /* \"src/lib/BitMath.sol\":1183:1184  8 */\n      0x08\n        /* \"src/lib/BitMath.sol\":1177:1184  x >>= 8 */\n      dup3\n      swap1\n      shr\n      swap2\n      pop\n        /* \"src/lib/BitMath.sol\":1203:1204  8 */\n      0x08\n        /* \"src/lib/BitMath.sol\":1198:1204  r += 8 */\n      dup2\n      tag_362\n      swap2\n      swap1\n      tag_354\n      jump\t// in\n    tag_362:\n      swap1\n      pop\n        /* \"src/lib/BitMath.sol\":1147:1215  if (x >= 0x100) {... */\n    tag_361:\n        /* \"src/lib/BitMath.sol\":1233:1237  0x10 */\n      0x10\n        /* \"src/lib/BitMath.sol\":1228:1229  x */\n      dup3\n        /* \"src/lib/BitMath.sol\":1228:1237  x >= 0x10 */\n      lt\n        /* \"src/lib/BitMath.sol\":1224:1291  if (x >= 0x10) {... */\n      tag_363\n      jumpi\n        /* \"src/lib/BitMath.sol\":1259:1260  4 */\n      0x04\n        /* \"src/lib/BitMath.sol\":1253:1260  x >>= 4 */\n      dup3\n      swap1\n      shr\n      swap2\n      pop\n        /* \"src/lib/BitMath.sol\":1279:1280  4 */\n      0x04\n        /* \"src/lib/BitMath.sol\":1274:1280  r += 4 */\n      dup2\n      tag_364\n      swap2\n      swap1\n      tag_354\n      jump\t// in\n    tag_364:\n      swap1\n      pop\n        /* \"src/lib/BitMath.sol\":1224:1291  if (x >= 0x10) {... */\n    tag_363:\n        /* \"src/lib/BitMath.sol\":1309:1312  0x4 */\n      0x04\n        /* \"src/lib/BitMath.sol\":1304:1305  x */\n      dup3\n        /* \"src/lib/BitMath.sol\":1304:1312  x >= 0x4 */\n      lt\n        /* \"src/lib/BitMath.sol\":1300:1366  if (x >= 0x4) {... */\n      tag_365\n      jumpi\n        /* \"src/lib/BitMath.sol\":1334:1335  2 */\n      0x02\n        /* \"src/lib/BitMath.sol\":1328:1335  x >>= 2 */\n      dup3\n      swap1\n      shr\n      swap2\n      pop\n        /* \"src/lib/BitMath.sol\":1354:1355  2 */\n      0x02\n        /* \"src/lib/BitMath.sol\":1349:1355  r += 2 */\n      dup2\n      tag_366\n      swap2\n      swap1\n      tag_354\n      jump\t// in\n    tag_366:\n      swap1\n      pop\n        /* \"src/lib/BitMath.sol\":1300:1366  if (x >= 0x4) {... */\n    tag_365:\n        /* \"src/lib/BitMath.sol\":1384:1387  0x2 */\n      0x02\n        /* \"src/lib/BitMath.sol\":1379:1380  x */\n      dup3\n        /* \"src/lib/BitMath.sol\":1379:1387  x >= 0x2 */\n      lt\n        /* \"src/lib/BitMath.sol\":1375:1395  if (x >= 0x2) r += 1 */\n      tag_367\n      jumpi\n        /* \"src/lib/BitMath.sol\":1394:1395  1 */\n      0x01\n        /* \"src/lib/BitMath.sol\":1389:1395  r += 1 */\n      dup2\n      tag_368\n      swap2\n      swap1\n      tag_354\n      jump\t// in\n    tag_368:\n      swap1\n      pop\n        /* \"src/lib/BitMath.sol\":1375:1395  if (x >= 0x2) r += 1 */\n    tag_367:\n        /* \"src/lib/BitMath.sol\":671:1402  function mostSignificantBit(uint256 x) internal pure returns (uint8 r) {... */\n      swap2\n      swap1\n      pop\n      jump\t// out\n        /* \"src/lib/BitMath.sol\":1893:2787  function leastSignificantBit(uint256 x) internal pure returns (uint8 r) {... */\n    tag_305:\n        /* \"src/lib/BitMath.sol\":1956:1963  uint8 r */\n      0x00\n        /* \"src/lib/BitMath.sol\":1987:1988  0 */\n      0x00\n        /* \"src/lib/BitMath.sol\":1983:1984  x */\n      dup3\n        /* \"src/lib/BitMath.sol\":1983:1988  x > 0 */\n      gt\n        /* \"src/lib/BitMath.sol\":1975:1989  require(x > 0) */\n      tag_370\n      jumpi\n      revert(0x00, 0x00)\n    tag_370:\n        /* \"src/lib/BitMath.sol\":2004:2007  255 */\n      0xff\n        /* \"src/lib/BitMath.sol\":2000:2007  r = 255 */\n      swap1\n      pop\n        /* \"src/lib/BitMath.sol\":2045:2046  0 */\n      0x00\n        /* \"src/lib/BitMath.sol\":2025:2042  type(uint128).max */\n      0xffffffffffffffffffffffffffffffff\n        /* \"src/lib/BitMath.sol\":2021:2042  x & type(uint128).max */\n      dup1\n      and\n        /* \"src/lib/BitMath.sol\":2021:2022  x */\n      dup4\n        /* \"src/lib/BitMath.sol\":2021:2042  x & type(uint128).max */\n      and\n        /* \"src/lib/BitMath.sol\":2021:2046  x & type(uint128).max > 0 */\n      gt\n        /* \"src/lib/BitMath.sol\":2017:2121  if (x & type(uint128).max > 0) {... */\n      iszero\n      tag_371\n      jumpi\n        /* \"src/lib/BitMath.sol\":2067:2070  128 */\n      0x80\n        /* \"src/lib/BitMath.sol\":2062:2070  r -= 128 */\n      dup2\n      tag_372\n      swap2\n      swap1\n      tag_290\n      jump\t// in\n    tag_372:\n      swap1\n      pop\n        /* \"src/lib/BitMath.sol\":2017:2121  if (x & type(uint128).max > 0) {... */\n      jump(tag_373)\n    tag_371:\n        /* \"src/lib/BitMath.sol\":2107:2110  128 */\n      0x80\n        /* \"src/lib/BitMath.sol\":2101:2110  x >>= 128 */\n      dup3\n      swap1\n      shr\n      swap2\n      pop\n        /* \"src/lib/BitMath.sol\":2017:2121  if (x & type(uint128).max > 0) {... */\n    tag_373:\n        /* \"src/lib/BitMath.sol\":2157:2158  0 */\n      0x00\n        /* \"src/lib/BitMath.sol\":2138:2154  type(uint64).max */\n      0xffffffffffffffff\n        /* \"src/lib/BitMath.sol\":2134:2154  x & type(uint64).max */\n      dup1\n      and\n        /* \"src/lib/BitMath.sol\":2134:2135  x */\n      dup4\n        /* \"src/lib/BitMath.sol\":2134:2154  x & type(uint64).max */\n      and\n        /* \"src/lib/BitMath.sol\":2134:2158  x & type(uint64).max > 0 */\n      gt\n        /* \"src/lib/BitMath.sol\":2130:2231  if (x & type(uint64).max > 0) {... */\n      iszero\n      tag_374\n      jumpi\n        /* \"src/lib/BitMath.sol\":2179:2181  64 */\n      0x40\n        /* \"src/lib/BitMath.sol\":2174:2181  r -= 64 */\n      dup2\n      tag_375\n      swap2\n      swap1\n      tag_290\n      jump\t// in\n    tag_375:\n      swap1\n      pop\n        /* \"src/lib/BitMath.sol\":2130:2231  if (x & type(uint64).max > 0) {... */\n      jump(tag_376)\n    tag_374:\n        /* \"src/lib/BitMath.sol\":2218:2220  64 */\n      0x40\n        /* \"src/lib/BitMath.sol\":2212:2220  x >>= 64 */\n      dup3\n      swap1\n      shr\n      swap2\n      pop\n        /* \"src/lib/BitMath.sol\":2130:2231  if (x & type(uint64).max > 0) {... */\n    tag_376:\n        /* \"src/lib/BitMath.sol\":2267:2268  0 */\n      0x00\n        /* \"src/lib/BitMath.sol\":2248:2264  type(uint32).max */\n      0xffffffff\n        /* \"src/lib/BitMath.sol\":2244:2264  x & type(uint32).max */\n      dup1\n      and\n        /* \"src/lib/BitMath.sol\":2244:2245  x */\n      dup4\n        /* \"src/lib/BitMath.sol\":2244:2264  x & type(uint32).max */\n      and\n        /* \"src/lib/BitMath.sol\":2244:2268  x & type(uint32).max > 0 */\n      gt\n        /* \"src/lib/BitMath.sol\":2240:2341  if (x & type(uint32).max > 0) {... */\n      iszero\n      tag_377\n      jumpi\n        /* \"src/lib/BitMath.sol\":2289:2291  32 */\n      0x20\n        /* \"src/lib/BitMath.sol\":2284:2291  r -= 32 */\n      dup2\n      tag_378\n      swap2\n      swap1\n      tag_290\n      jump\t// in\n    tag_378:\n      swap1\n      pop\n        /* \"src/lib/BitMath.sol\":2240:2341  if (x & type(uint32).max > 0) {... */\n      jump(tag_379)\n    tag_377:\n        /* \"src/lib/BitMath.sol\":2328:2330  32 */\n      0x20\n        /* \"src/lib/BitMath.sol\":2322:2330  x >>= 32 */\n      dup3\n      swap1\n      shr\n      swap2\n      pop\n        /* \"src/lib/BitMath.sol\":2240:2341  if (x & type(uint32).max > 0) {... */\n    tag_379:\n        /* \"src/lib/BitMath.sol\":2377:2378  0 */\n      0x00\n        /* \"src/lib/BitMath.sol\":2358:2374  type(uint16).max */\n      0xffff\n        /* \"src/lib/BitMath.sol\":2354:2374  x & type(uint16).max */\n      dup1\n      and\n        /* \"src/lib/BitMath.sol\":2354:2355  x */\n      dup4\n        /* \"src/lib/BitMath.sol\":2354:2374  x & type(uint16).max */\n      and\n        /* \"src/lib/BitMath.sol\":2354:2378  x & type(uint16).max > 0 */\n      gt\n        /* \"src/lib/BitMath.sol\":2350:2451  if (x & type(uint16).max > 0) {... */\n      iszero\n      tag_380\n      jumpi\n        /* \"src/lib/BitMath.sol\":2399:2401  16 */\n      0x10\n        /* \"src/lib/BitMath.sol\":2394:2401  r -= 16 */\n      dup2\n      tag_381\n      swap2\n      swap1\n      tag_290\n      jump\t// in\n    tag_381:\n      swap1\n      pop\n        /* \"src/lib/BitMath.sol\":2350:2451  if (x & type(uint16).max > 0) {... */\n      jump(tag_382)\n    tag_380:\n        /* \"src/lib/BitMath.sol\":2438:2440  16 */\n      0x10\n        /* \"src/lib/BitMath.sol\":2432:2440  x >>= 16 */\n      dup3\n      swap1\n      shr\n      swap2\n      pop\n        /* \"src/lib/BitMath.sol\":2350:2451  if (x & type(uint16).max > 0) {... */\n    tag_382:\n        /* \"src/lib/BitMath.sol\":2486:2487  0 */\n      0x00\n        /* \"src/lib/BitMath.sol\":2468:2483  type(uint8).max */\n      0xff\n        /* \"src/lib/BitMath.sol\":2464:2483  x & type(uint8).max */\n      dup1\n      and\n        /* \"src/lib/BitMath.sol\":2464:2465  x */\n      dup4\n        /* \"src/lib/BitMath.sol\":2464:2483  x & type(uint8).max */\n      and\n        /* \"src/lib/BitMath.sol\":2464:2487  x & type(uint8).max > 0 */\n      gt\n        /* \"src/lib/BitMath.sol\":2460:2558  if (x & type(uint8).max > 0) {... */\n      iszero\n      tag_383\n      jumpi\n        /* \"src/lib/BitMath.sol\":2508:2509  8 */\n      0x08\n        /* \"src/lib/BitMath.sol\":2503:2509  r -= 8 */\n      dup2\n      tag_384\n      swap2\n      swap1\n      tag_290\n      jump\t// in\n    tag_384:\n      swap1\n      pop\n        /* \"src/lib/BitMath.sol\":2460:2558  if (x & type(uint8).max > 0) {... */\n      jump(tag_385)\n    tag_383:\n        /* \"src/lib/BitMath.sol\":2546:2547  8 */\n      0x08\n        /* \"src/lib/BitMath.sol\":2540:2547  x >>= 8 */\n      dup3\n      swap1\n      shr\n      swap2\n      pop\n        /* \"src/lib/BitMath.sol\":2460:2558  if (x & type(uint8).max > 0) {... */\n    tag_385:\n        /* \"src/lib/BitMath.sol\":2581:2582  0 */\n      0x00\n        /* \"src/lib/BitMath.sol\":2575:2578  0xf */\n      0x0f\n        /* \"src/lib/BitMath.sol\":2571:2572  x */\n      dup4\n        /* \"src/lib/BitMath.sol\":2571:2578  x & 0xf */\n      and\n        /* \"src/lib/BitMath.sol\":2571:2582  x & 0xf > 0 */\n      gt\n        /* \"src/lib/BitMath.sol\":2567:2653  if (x & 0xf > 0) {... */\n      iszero\n      tag_386\n      jumpi\n        /* \"src/lib/BitMath.sol\":2603:2604  4 */\n      0x04\n        /* \"src/lib/BitMath.sol\":2598:2604  r -= 4 */\n      dup2\n      tag_387\n      swap2\n      swap1\n      tag_290\n      jump\t// in\n    tag_387:\n      swap1\n      pop\n        /* \"src/lib/BitMath.sol\":2567:2653  if (x & 0xf > 0) {... */\n      jump(tag_388)\n    tag_386:\n        /* \"src/lib/BitMath.sol\":2641:2642  4 */\n      0x04\n        /* \"src/lib/BitMath.sol\":2635:2642  x >>= 4 */\n      dup3\n      swap1\n      shr\n      swap2\n      pop\n        /* \"src/lib/BitMath.sol\":2567:2653  if (x & 0xf > 0) {... */\n    tag_388:\n        /* \"src/lib/BitMath.sol\":2676:2677  0 */\n      0x00\n        /* \"src/lib/BitMath.sol\":2670:2673  0x3 */\n      0x03\n        /* \"src/lib/BitMath.sol\":2666:2667  x */\n      dup4\n        /* \"src/lib/BitMath.sol\":2666:2673  x & 0x3 */\n      and\n        /* \"src/lib/BitMath.sol\":2666:2677  x & 0x3 > 0 */\n      gt\n        /* \"src/lib/BitMath.sol\":2662:2748  if (x & 0x3 > 0) {... */\n      iszero\n      tag_389\n      jumpi\n        /* \"src/lib/BitMath.sol\":2698:2699  2 */\n      0x02\n        /* \"src/lib/BitMath.sol\":2693:2699  r -= 2 */\n      dup2\n      tag_390\n      swap2\n      swap1\n      tag_290\n      jump\t// in\n    tag_390:\n      swap1\n      pop\n        /* \"src/lib/BitMath.sol\":2662:2748  if (x & 0x3 > 0) {... */\n      jump(tag_391)\n    tag_389:\n        /* \"src/lib/BitMath.sol\":2736:2737  2 */\n      0x02\n        /* \"src/lib/BitMath.sol\":2730:2737  x >>= 2 */\n      dup3\n      swap1\n      shr\n      swap2\n      pop\n        /* \"src/lib/BitMath.sol\":2662:2748  if (x & 0x3 > 0) {... */\n    tag_391:\n        /* \"src/lib/BitMath.sol\":2771:2772  0 */\n      0x00\n        /* \"src/lib/BitMath.sol\":2765:2768  0x1 */\n      0x01\n        /* \"src/lib/BitMath.sol\":2761:2762  x */\n      dup4\n        /* \"src/lib/BitMath.sol\":2761:2768  x & 0x1 */\n      and\n        /* \"src/lib/BitMath.sol\":2761:2772  x & 0x1 > 0 */\n      gt\n        /* \"src/lib/BitMath.sol\":2757:2780  if (x & 0x1 > 0) r -= 1 */\n      iszero\n      tag_392\n      jumpi\n        /* \"src/lib/BitMath.sol\":2779:2780  1 */\n      0x01\n        /* \"src/lib/BitMath.sol\":2774:2780  r -= 1 */\n      dup2\n      tag_393\n      swap2\n      swap1\n      tag_290\n      jump\t// in\n    tag_393:\n      swap1\n      pop\n        /* \"src/lib/BitMath.sol\":2757:2780  if (x & 0x1 > 0) r -= 1 */\n    tag_392:\n        /* \"src/lib/BitMath.sol\":1893:2787  function leastSignificantBit(uint256 x) internal pure returns (uint8 r) {... */\n      swap2\n      swap1\n      pop\n      jump\t// out\n        /* \"src/lib/Math.sol\":1384:1928  function getNextSqrtPriceFromInput(... */\n    tag_312:\n        /* \"src/lib/Math.sol\":1556:1580  uint160 sqrtPriceNextX96 */\n      0x00\n        /* \"src/lib/Math.sol\":1611:1621  zeroForOne */\n      dup2\n        /* \"src/lib/Math.sol\":1611:1921  zeroForOne... */\n      tag_395\n      jumpi\n        /* \"src/lib/Math.sol\":1785:1921  getNextSqrtPriceFromAmount1RoundingDown(... */\n      tag_396\n        /* \"src/lib/Math.sol\":1842:1854  sqrtPriceX96 */\n      dup6\n        /* \"src/lib/Math.sol\":1872:1881  liquidity */\n      dup6\n        /* \"src/lib/Math.sol\":1899:1907  amountIn */\n      dup6\n        /* \"src/lib/Math.sol\":1785:1824  getNextSqrtPriceFromAmount1RoundingDown */\n      tag_397\n        /* \"src/lib/Math.sol\":1785:1921  getNextSqrtPriceFromAmount1RoundingDown(... */\n      jump\t// in\n    tag_396:\n        /* \"src/lib/Math.sol\":1611:1921  zeroForOne... */\n      jump(tag_398)\n    tag_395:\n        /* \"src/lib/Math.sol\":1636:1770  getNextSqrtPriceFromAmount0RoundingUp(... */\n      tag_399\n        /* \"src/lib/Math.sol\":1691:1703  sqrtPriceX96 */\n      dup6\n        /* \"src/lib/Math.sol\":1721:1730  liquidity */\n      dup6\n        /* \"src/lib/Math.sol\":1748:1756  amountIn */\n      dup6\n        /* \"src/lib/Math.sol\":1636:1673  getNextSqrtPriceFromAmount0RoundingUp */\n      tag_400\n        /* \"src/lib/Math.sol\":1636:1770  getNextSqrtPriceFromAmount0RoundingUp(... */\n      jump\t// in\n    tag_399:\n        /* \"src/lib/Math.sol\":1611:1921  zeroForOne... */\n    tag_398:\n        /* \"src/lib/Math.sol\":1592:1921  sqrtPriceNextX96 = zeroForOne... */\n      swap1\n      pop\n        /* \"src/lib/Math.sol\":1384:1928  function getNextSqrtPriceFromInput(... */\n      swap5\n      swap4\n      pop\n      pop\n      pop\n      pop\n      jump\t// out\n        /* \"src/lib/PRBMath.sol\":1169:3554  function mulDiv(... */\n    tag_341:\n        /* \"src/lib/PRBMath.sol\":1285:1299  uint256 result */\n      0x00\n        /* \"src/lib/PRBMath.sol\":1392:1405  uint256 prod0 */\n      0x00\n        /* \"src/lib/PRBMath.sol\":1465:1478  uint256 prod1 */\n      0x00\n        /* \"src/lib/PRBMath.sol\":1594:1595  0 */\n      0x00\n        /* \"src/lib/PRBMath.sol\":1590:1596  not(0) */\n      not\n        /* \"src/lib/PRBMath.sol\":1587:1588  y */\n      dup6\n        /* \"src/lib/PRBMath.sol\":1584:1585  x */\n      dup8\n        /* \"src/lib/PRBMath.sol\":1577:1597  mulmod(x, y, not(0)) */\n      mulmod\n        /* \"src/lib/PRBMath.sol\":1631:1632  y */\n      dup6\n        /* \"src/lib/PRBMath.sol\":1628:1629  x */\n      dup8\n        /* \"src/lib/PRBMath.sol\":1624:1633  mul(x, y) */\n      mul\n        /* \"src/lib/PRBMath.sol\":1615:1633  prod0 := mul(x, y) */\n      swap3\n      pop\n        /* \"src/lib/PRBMath.sol\":1687:1692  prod0 */\n      dup3\n        /* \"src/lib/PRBMath.sol\":1683:1685  mm */\n      dup2\n        /* \"src/lib/PRBMath.sol\":1680:1693  lt(mm, prod0) */\n      lt\n        /* \"src/lib/PRBMath.sol\":1672:1677  prod0 */\n      dup4\n        /* \"src/lib/PRBMath.sol\":1668:1670  mm */\n      dup3\n        /* \"src/lib/PRBMath.sol\":1664:1678  sub(mm, prod0) */\n      sub\n        /* \"src/lib/PRBMath.sol\":1660:1694  sub(sub(mm, prod0), lt(mm, prod0)) */\n      sub\n        /* \"src/lib/PRBMath.sol\":1651:1694  prod1 := sub(sub(mm, prod0), lt(mm, prod0)) */\n      swap2\n      pop\n        /* \"src/lib/PRBMath.sol\":1548:1709  {... */\n      pop\n        /* \"src/lib/PRBMath.sol\":1801:1802  0 */\n      0x00\n        /* \"src/lib/PRBMath.sol\":1792:1797  prod1 */\n      dup2\n        /* \"src/lib/PRBMath.sol\":1792:1802  prod1 == 0 */\n      sub\n        /* \"src/lib/PRBMath.sol\":1788:1865  if (prod1 == 0) {... */\n      tag_402\n      jumpi\n        /* \"src/lib/PRBMath.sol\":1838:1849  denominator */\n      dup4\n        /* \"src/lib/PRBMath.sol\":1830:1835  prod0 */\n      dup3\n        /* \"src/lib/PRBMath.sol\":1830:1849  prod0 / denominator */\n      dup2\n      tag_403\n      jumpi\n      tag_404\n      tag_344\n      jump\t// in\n    tag_404:\n    tag_403:\n      div\n        /* \"src/lib/PRBMath.sol\":1823:1849  return prod0 / denominator */\n      swap3\n      pop\n      pop\n      pop\n      jump(tag_401)\n        /* \"src/lib/PRBMath.sol\":1788:1865  if (prod1 == 0) {... */\n    tag_402:\n        /* \"src/lib/PRBMath.sol\":1960:1965  prod1 */\n      dup1\n        /* \"src/lib/PRBMath.sol\":1946:1957  denominator */\n      dup5\n        /* \"src/lib/PRBMath.sol\":1946:1965  denominator > prod1 */\n      gt\n        /* \"src/lib/PRBMath.sol\":1938:1987  require(denominator > prod1, \"PRBMath: overflow\") */\n      tag_405\n      jumpi\n      mload(0x40)\n      0x08c379a000000000000000000000000000000000000000000000000000000000\n      dup2\n      mstore\n      0x04\n      add\n      tag_406\n      swap1\n      tag_407\n      jump\t// in\n    tag_406:\n      mload(0x40)\n      dup1\n      swap2\n      sub\n      swap1\n      revert\n    tag_405:\n        /* \"src/lib/PRBMath.sol\":2249:2266  uint256 remainder */\n      0x00\n        /* \"src/lib/PRBMath.sol\":2335:2346  denominator */\n      dup5\n        /* \"src/lib/PRBMath.sol\":2332:2333  y */\n      dup7\n        /* \"src/lib/PRBMath.sol\":2329:2330  x */\n      dup9\n        /* \"src/lib/PRBMath.sol\":2322:2347  mulmod(x, y, denominator) */\n      mulmod\n        /* \"src/lib/PRBMath.sol\":2309:2347  remainder := mulmod(x, y, denominator) */\n      swap1\n      pop\n        /* \"src/lib/PRBMath.sol\":2399:2404  prod0 */\n      dup3\n        /* \"src/lib/PRBMath.sol\":2388:2397  remainder */\n      dup2\n        /* \"src/lib/PRBMath.sol\":2385:2405  gt(remainder, prod0) */\n      gt\n        /* \"src/lib/PRBMath.sol\":2378:2383  prod1 */\n      dup3\n        /* \"src/lib/PRBMath.sol\":2374:2406  sub(prod1, gt(remainder, prod0)) */\n      sub\n        /* \"src/lib/PRBMath.sol\":2365:2406  prod1 := sub(prod1, gt(remainder, prod0)) */\n      swap2\n      pop\n        /* \"src/lib/PRBMath.sol\":2444:2453  remainder */\n      dup1\n        /* \"src/lib/PRBMath.sol\":2437:2442  prod0 */\n      dup4\n        /* \"src/lib/PRBMath.sol\":2433:2454  sub(prod0, remainder) */\n      sub\n        /* \"src/lib/PRBMath.sol\":2424:2454  prod0 := sub(prod0, remainder) */\n      swap3\n      pop\n        /* \"src/lib/PRBMath.sol\":2582:2597  uint256 lpotdod */\n      0x00\n        /* \"src/lib/PRBMath.sol\":2630:2631  1 */\n      0x01\n        /* \"src/lib/PRBMath.sol\":2616:2627  denominator */\n      dup7\n        /* \"src/lib/PRBMath.sol\":2615:2627  ~denominator */\n      not\n        /* \"src/lib/PRBMath.sol\":2615:2631  ~denominator + 1 */\n      add\n        /* \"src/lib/PRBMath.sol\":2600:2611  denominator */\n      dup7\n        /* \"src/lib/PRBMath.sol\":2600:2632  denominator & (~denominator + 1) */\n      and\n        /* \"src/lib/PRBMath.sol\":2582:2632  uint256 lpotdod = denominator & (~denominator + 1) */\n      swap1\n      pop\n        /* \"src/lib/PRBMath.sol\":2707:2714  lpotdod */\n      dup1\n        /* \"src/lib/PRBMath.sol\":2694:2705  denominator */\n      dup7\n        /* \"src/lib/PRBMath.sol\":2690:2715  div(denominator, lpotdod) */\n      div\n        /* \"src/lib/PRBMath.sol\":2675:2715  denominator := div(denominator, lpotdod) */\n      swap6\n      pop\n        /* \"src/lib/PRBMath.sol\":2753:2760  lpotdod */\n      dup1\n        /* \"src/lib/PRBMath.sol\":2746:2751  prod0 */\n      dup5\n        /* \"src/lib/PRBMath.sol\":2742:2761  div(prod0, lpotdod) */\n      div\n        /* \"src/lib/PRBMath.sol\":2733:2761  prod0 := div(prod0, lpotdod) */\n      swap4\n      pop\n        /* \"src/lib/PRBMath.sol\":2825:2826  1 */\n      0x01\n        /* \"src/lib/PRBMath.sol\":2815:2822  lpotdod */\n      dup2\n        /* \"src/lib/PRBMath.sol\":2805:2812  lpotdod */\n      dup3\n        /* \"src/lib/PRBMath.sol\":2802:2803  0 */\n      0x00\n        /* \"src/lib/PRBMath.sol\":2798:2813  sub(0, lpotdod) */\n      sub\n        /* \"src/lib/PRBMath.sol\":2794:2823  div(sub(0, lpotdod), lpotdod) */\n      div\n        /* \"src/lib/PRBMath.sol\":2790:2827  add(div(sub(0, lpotdod), lpotdod), 1) */\n      add\n        /* \"src/lib/PRBMath.sol\":2779:2827  lpotdod := add(div(sub(0, lpotdod), lpotdod), 1) */\n      swap1\n      pop\n        /* \"src/lib/PRBMath.sol\":2927:2934  lpotdod */\n      dup1\n        /* \"src/lib/PRBMath.sol\":2919:2924  prod1 */\n      dup4\n        /* \"src/lib/PRBMath.sol\":2919:2934  prod1 * lpotdod */\n      mul\n        /* \"src/lib/PRBMath.sol\":2910:2934  prod0 |= prod1 * lpotdod */\n      dup5\n      or\n      swap4\n      pop\n        /* \"src/lib/PRBMath.sol\":3000:3015  uint256 inverse */\n      0x00\n        /* \"src/lib/PRBMath.sol\":3038:3039  2 */\n      0x02\n        /* \"src/lib/PRBMath.sol\":3023:3034  denominator */\n      dup8\n        /* \"src/lib/PRBMath.sol\":3019:3020  3 */\n      0x03\n        /* \"src/lib/PRBMath.sol\":3019:3034  3 * denominator */\n      mul\n        /* \"src/lib/PRBMath.sol\":3018:3039  (3 * denominator) ^ 2 */\n      xor\n        /* \"src/lib/PRBMath.sol\":3000:3039  uint256 inverse = (3 * denominator) ^ 2 */\n      swap1\n      pop\n        /* \"src/lib/PRBMath.sol\":3083:3090  inverse */\n      dup1\n        /* \"src/lib/PRBMath.sol\":3069:3080  denominator */\n      dup8\n        /* \"src/lib/PRBMath.sol\":3069:3090  denominator * inverse */\n      mul\n        /* \"src/lib/PRBMath.sol\":3065:3066  2 */\n      0x02\n        /* \"src/lib/PRBMath.sol\":3065:3090  2 - denominator * inverse */\n      sub\n        /* \"src/lib/PRBMath.sol\":3054:3090  inverse *= 2 - denominator * inverse */\n      dup2\n      mul\n      swap1\n      pop\n        /* \"src/lib/PRBMath.sol\":3153:3160  inverse */\n      dup1\n        /* \"src/lib/PRBMath.sol\":3139:3150  denominator */\n      dup8\n        /* \"src/lib/PRBMath.sol\":3139:3160  denominator * inverse */\n      mul\n        /* \"src/lib/PRBMath.sol\":3135:3136  2 */\n      0x02\n        /* \"src/lib/PRBMath.sol\":3135:3160  2 - denominator * inverse */\n      sub\n        /* \"src/lib/PRBMath.sol\":3124:3160  inverse *= 2 - denominator * inverse */\n      dup2\n      mul\n      swap1\n      pop\n        /* \"src/lib/PRBMath.sol\":3224:3231  inverse */\n      dup1\n        /* \"src/lib/PRBMath.sol\":3210:3221  denominator */\n      dup8\n        /* \"src/lib/PRBMath.sol\":3210:3231  denominator * inverse */\n      mul\n        /* \"src/lib/PRBMath.sol\":3206:3207  2 */\n      0x02\n        /* \"src/lib/PRBMath.sol\":3206:3231  2 - denominator * inverse */\n      sub\n        /* \"src/lib/PRBMath.sol\":3195:3231  inverse *= 2 - denominator * inverse */\n      dup2\n      mul\n      swap1\n      pop\n        /* \"src/lib/PRBMath.sol\":3295:3302  inverse */\n      dup1\n        /* \"src/lib/PRBMath.sol\":3281:3292  denominator */\n      dup8\n        /* \"src/lib/PRBMath.sol\":3281:3302  denominator * inverse */\n      mul\n        /* \"src/lib/PRBMath.sol\":3277:3278  2 */\n      0x02\n        /* \"src/lib/PRBMath.sol\":3277:3302  2 - denominator * inverse */\n      sub\n        /* \"src/lib/PRBMath.sol\":3266:3302  inverse *= 2 - denominator * inverse */\n      dup2\n      mul\n      swap1\n      pop\n        /* \"src/lib/PRBMath.sol\":3366:3373  inverse */\n      dup1\n        /* \"src/lib/PRBMath.sol\":3352:3363  denominator */\n      dup8\n        /* \"src/lib/PRBMath.sol\":3352:3373  denominator * inverse */\n      mul\n        /* \"src/lib/PRBMath.sol\":3348:3349  2 */\n      0x02\n        /* \"src/lib/PRBMath.sol\":3348:3373  2 - denominator * inverse */\n      sub\n        /* \"src/lib/PRBMath.sol\":3337:3373  inverse *= 2 - denominator * inverse */\n      dup2\n      mul\n      swap1\n      pop\n        /* \"src/lib/PRBMath.sol\":3438:3445  inverse */\n      dup1\n        /* \"src/lib/PRBMath.sol\":3424:3435  denominator */\n      dup8\n        /* \"src/lib/PRBMath.sol\":3424:3445  denominator * inverse */\n      mul\n        /* \"src/lib/PRBMath.sol\":3420:3421  2 */\n      0x02\n        /* \"src/lib/PRBMath.sol\":3420:3445  2 - denominator * inverse */\n      sub\n        /* \"src/lib/PRBMath.sol\":3409:3445  inverse *= 2 - denominator * inverse */\n      dup2\n      mul\n      swap1\n      pop\n        /* \"src/lib/PRBMath.sol\":3500:3507  inverse */\n      dup1\n        /* \"src/lib/PRBMath.sol\":3492:3497  prod0 */\n      dup6\n        /* \"src/lib/PRBMath.sol\":3492:3507  prod0 * inverse */\n      mul\n        /* \"src/lib/PRBMath.sol\":3483:3507  result = prod0 * inverse */\n      swap6\n      pop\n        /* \"src/lib/PRBMath.sol\":3522:3535  return result */\n      pop\n      pop\n      pop\n      pop\n      pop\n        /* \"src/lib/PRBMath.sol\":1169:3554  function mulDiv(... */\n    tag_401:\n      swap4\n      swap3\n      pop\n      pop\n      pop\n      jump\t// out\n        /* \"src/lib/Math.sol\":2827:3118  function getNextSqrtPriceFromAmount1RoundingDown(... */\n    tag_397:\n        /* \"src/lib/Math.sol\":2988:2995  uint160 */\n      0x00\n        /* \"src/lib/Math.sol\":3101:3110  liquidity */\n      dup3\n        /* \"src/lib/Math.sol\":3061:3110  (amountIn << FixedPoint96.RESOLUTION) / liquidity */\n      0xffffffffffffffffffffffffffffffff\n      and\n        /* \"src/lib/FixedPoint96.sol\":135:137  96 */\n      0x60\n        /* \"src/lib/Math.sol\":3062:3097  amountIn << FixedPoint96.RESOLUTION */\n      0xff\n      and\n        /* \"src/lib/Math.sol\":3062:3070  amountIn */\n      dup4\n        /* \"src/lib/Math.sol\":3062:3097  amountIn << FixedPoint96.RESOLUTION */\n      swap1\n      shl\n        /* \"src/lib/Math.sol\":3061:3110  (amountIn << FixedPoint96.RESOLUTION) / liquidity */\n      tag_409\n      swap2\n      swap1\n      tag_240\n      jump\t// in\n    tag_409:\n        /* \"src/lib/Math.sol\":3026:3038  sqrtPriceX96 */\n      dup5\n        /* \"src/lib/Math.sol\":3026:3111  sqrtPriceX96 +... */\n      tag_410\n      swap2\n      swap1\n      tag_411\n      jump\t// in\n    tag_410:\n        /* \"src/lib/Math.sol\":3007:3111  return... */\n      swap1\n      pop\n        /* \"src/lib/Math.sol\":2827:3118  function getNextSqrtPriceFromAmount1RoundingDown(... */\n      swap4\n      swap3\n      pop\n      pop\n      pop\n      jump\t// out\n        /* \"src/lib/Math.sol\":1934:2821  function getNextSqrtPriceFromAmount0RoundingUp(... */\n    tag_400:\n        /* \"src/lib/Math.sol\":2093:2100  uint160 */\n      0x00\n        /* \"src/lib/Math.sol\":2112:2129  uint256 numerator */\n      0x00\n        /* \"src/lib/FixedPoint96.sol\":135:137  96 */\n      0x60\n        /* \"src/lib/Math.sol\":2132:2177  uint256(liquidity) << FixedPoint96.RESOLUTION */\n      0xff\n      and\n        /* \"src/lib/Math.sol\":2140:2149  liquidity */\n      dup5\n        /* \"src/lib/Math.sol\":2132:2150  uint256(liquidity) */\n      0xffffffffffffffffffffffffffffffff\n      and\n        /* \"src/lib/Math.sol\":2132:2177  uint256(liquidity) << FixedPoint96.RESOLUTION */\n      swap1\n      shl\n        /* \"src/lib/Math.sol\":2112:2177  uint256 numerator = uint256(liquidity) << FixedPoint96.RESOLUTION */\n      swap1\n      pop\n        /* \"src/lib/Math.sol\":2187:2202  uint256 product */\n      0x00\n        /* \"src/lib/Math.sol\":2216:2228  sqrtPriceX96 */\n      dup6\n        /* \"src/lib/Math.sol\":2205:2228  amountIn * sqrtPriceX96 */\n      0xffffffffffffffffffffffffffffffffffffffff\n      and\n        /* \"src/lib/Math.sol\":2205:2213  amountIn */\n      dup5\n        /* \"src/lib/Math.sol\":2205:2228  amountIn * sqrtPriceX96 */\n      tag_413\n      swap2\n      swap1\n      tag_201\n      jump\t// in\n    tag_413:\n        /* \"src/lib/Math.sol\":2187:2228  uint256 product = amountIn * sqrtPriceX96 */\n      swap1\n      pop\n        /* \"src/lib/Math.sol\":2330:2342  sqrtPriceX96 */\n      dup6\n        /* \"src/lib/Math.sol\":2308:2342  product / amountIn == sqrtPriceX96 */\n      0xffffffffffffffffffffffffffffffffffffffff\n      and\n        /* \"src/lib/Math.sol\":2318:2326  amountIn */\n      dup5\n        /* \"src/lib/Math.sol\":2308:2315  product */\n      dup3\n        /* \"src/lib/Math.sol\":2308:2326  product / amountIn */\n      tag_414\n      swap2\n      swap1\n      tag_240\n      jump\t// in\n    tag_414:\n        /* \"src/lib/Math.sol\":2308:2342  product / amountIn == sqrtPriceX96 */\n      sub\n        /* \"src/lib/Math.sol\":2304:2622  if (product / amountIn == sqrtPriceX96) {... */\n      tag_415\n      jumpi\n        /* \"src/lib/Math.sol\":2358:2377  uint256 denominator */\n      0x00\n        /* \"src/lib/Math.sol\":2392:2399  product */\n      dup2\n        /* \"src/lib/Math.sol\":2380:2389  numerator */\n      dup4\n        /* \"src/lib/Math.sol\":2380:2399  numerator + product */\n      tag_416\n      swap2\n      swap1\n      tag_109\n      jump\t// in\n    tag_416:\n        /* \"src/lib/Math.sol\":2358:2399  uint256 denominator = numerator + product */\n      swap1\n      pop\n        /* \"src/lib/Math.sol\":2432:2441  numerator */\n      dup3\n        /* \"src/lib/Math.sol\":2417:2428  denominator */\n      dup2\n        /* \"src/lib/Math.sol\":2417:2441  denominator >= numerator */\n      lt\n        /* \"src/lib/Math.sol\":2413:2612  if (denominator >= numerator) {... */\n      tag_417\n      jumpi\n        /* \"src/lib/Math.sol\":2521:2575  mulDivRoundingUp(numerator, sqrtPriceX96, denominator) */\n      tag_418\n        /* \"src/lib/Math.sol\":2538:2547  numerator */\n      dup4\n        /* \"src/lib/Math.sol\":2549:2561  sqrtPriceX96 */\n      dup9\n        /* \"src/lib/Math.sol\":2521:2575  mulDivRoundingUp(numerator, sqrtPriceX96, denominator) */\n      0xffffffffffffffffffffffffffffffffffffffff\n      and\n        /* \"src/lib/Math.sol\":2563:2574  denominator */\n      dup4\n        /* \"src/lib/Math.sol\":2521:2537  mulDivRoundingUp */\n      tag_253\n        /* \"src/lib/Math.sol\":2521:2575  mulDivRoundingUp(numerator, sqrtPriceX96, denominator) */\n      jump\t// in\n    tag_418:\n        /* \"src/lib/Math.sol\":2461:2597  return... */\n      swap4\n      pop\n      pop\n      pop\n      pop\n      jump(tag_412)\n        /* \"src/lib/Math.sol\":2413:2612  if (denominator >= numerator) {... */\n    tag_417:\n        /* \"src/lib/Math.sol\":2344:2622  {... */\n      pop\n        /* \"src/lib/Math.sol\":2304:2622  if (product / amountIn == sqrtPriceX96) {... */\n    tag_415:\n        /* \"src/lib/Math.sol\":2737:2800  divRoundingUp(numerator, (numerator / sqrtPriceX96) + amountIn) */\n      tag_419\n        /* \"src/lib/Math.sol\":2751:2760  numerator */\n      dup3\n        /* \"src/lib/Math.sol\":2791:2799  amountIn */\n      dup6\n        /* \"src/lib/Math.sol\":2775:2787  sqrtPriceX96 */\n      dup9\n        /* \"src/lib/Math.sol\":2763:2787  numerator / sqrtPriceX96 */\n      0xffffffffffffffffffffffffffffffffffffffff\n      and\n        /* \"src/lib/Math.sol\":2763:2772  numerator */\n      dup6\n        /* \"src/lib/Math.sol\":2763:2787  numerator / sqrtPriceX96 */\n      tag_420\n      swap2\n      swap1\n      tag_240\n      jump\t// in\n    tag_420:\n        /* \"src/lib/Math.sol\":2762:2799  (numerator / sqrtPriceX96) + amountIn */\n      tag_421\n      swap2\n      swap1\n      tag_109\n      jump\t// in\n    tag_421:\n        /* \"src/lib/Math.sol\":2737:2750  divRoundingUp */\n      tag_254\n        /* \"src/lib/Math.sol\":2737:2800  divRoundingUp(numerator, (numerator / sqrtPriceX96) + amountIn) */\n      jump\t// in\n    tag_419:\n        /* \"src/lib/Math.sol\":2693:2814  return... */\n      swap3\n      pop\n      pop\n      pop\n        /* \"src/lib/Math.sol\":1934:2821  function getNextSqrtPriceFromAmount0RoundingUp(... */\n    tag_412:\n      swap4\n      swap3\n      pop\n      pop\n      pop\n      jump\t// out\n    tag_121:\n      mload(0x40)\n      dup1\n      0xa0\n      add\n      0x40\n      mstore\n      dup1\n      and(0xffffffffffffffffffffffffffffffffffffffff, 0x00)\n      dup2\n      mstore\n      0x20\n      add\n      signextend(0x02, 0x00)\n      dup2\n      mstore\n      0x20\n      add\n      and(0xffffffffffffffffffffffffffffffffffffffff, 0x00)\n      dup2\n      mstore\n      0x20\n      add\n      0x00\n      dup2\n      mstore\n      0x20\n      add\n      0x00\n      dup2\n      mstore\n      pop\n      swap1\n      jump\t// out\n        /* \"#utility.yul\":7:133   */\n    tag_422:\n        /* \"#utility.yul\":44:51   */\n      0x00\n        /* \"#utility.yul\":84:126   */\n      0xffffffffffffffffffffffffffffffffffffffff\n        /* \"#utility.yul\":77:82   */\n      dup3\n        /* \"#utility.yul\":73:127   */\n      and\n        /* \"#utility.yul\":62:127   */\n      swap1\n      pop\n        /* \"#utility.yul\":7:133   */\n      swap2\n      swap1\n      pop\n      jump\t// out\n        /* \"#utility.yul\":139:235   */\n    tag_423:\n        /* \"#utility.yul\":176:183   */\n      0x00\n        /* \"#utility.yul\":205:229   */\n      tag_484\n        /* \"#utility.yul\":223:228   */\n      dup3\n        /* \"#utility.yul\":205:229   */\n      tag_422\n      jump\t// in\n    tag_484:\n        /* \"#utility.yul\":194:229   */\n      swap1\n      pop\n        /* \"#utility.yul\":139:235   */\n      swap2\n      swap1\n      pop\n      jump\t// out\n        /* \"#utility.yul\":241:359   */\n    tag_424:\n        /* \"#utility.yul\":328:352   */\n      tag_486\n        /* \"#utility.yul\":346:351   */\n      dup2\n        /* \"#utility.yul\":328:352   */\n      tag_423\n      jump\t// in\n    tag_486:\n        /* \"#utility.yul\":323:326   */\n      dup3\n        /* \"#utility.yul\":316:353   */\n      mstore\n        /* \"#utility.yul\":241:359   */\n      pop\n      pop\n      jump\t// out\n        /* \"#utility.yul\":365:587   */\n    tag_16:\n        /* \"#utility.yul\":458:462   */\n      0x00\n        /* \"#utility.yul\":496:498   */\n      0x20\n        /* \"#utility.yul\":485:494   */\n      dup3\n        /* \"#utility.yul\":481:499   */\n      add\n        /* \"#utility.yul\":473:499   */\n      swap1\n      pop\n        /* \"#utility.yul\":509:580   */\n      tag_488\n        /* \"#utility.yul\":577:578   */\n      0x00\n        /* \"#utility.yul\":566:575   */\n      dup4\n        /* \"#utility.yul\":562:579   */\n      add\n        /* \"#utility.yul\":553:559   */\n      dup5\n        /* \"#utility.yul\":509:580   */\n      tag_424\n      jump\t// in\n    tag_488:\n        /* \"#utility.yul\":365:587   */\n      swap3\n      swap2\n      pop\n      pop\n      jump\t// out\n        /* \"#utility.yul\":593:711   */\n    tag_425:\n        /* \"#utility.yul\":630:637   */\n      0x00\n        /* \"#utility.yul\":670:704   */\n      0xffffffffffffffffffffffffffffffff\n        /* \"#utility.yul\":663:668   */\n      dup3\n        /* \"#utility.yul\":659:705   */\n      and\n        /* \"#utility.yul\":648:705   */\n      swap1\n      pop\n        /* \"#utility.yul\":593:711   */\n      swap2\n      swap1\n      pop\n      jump\t// out\n        /* \"#utility.yul\":717:835   */\n    tag_426:\n        /* \"#utility.yul\":804:828   */\n      tag_491\n        /* \"#utility.yul\":822:827   */\n      dup2\n        /* \"#utility.yul\":804:828   */\n      tag_425\n      jump\t// in\n    tag_491:\n        /* \"#utility.yul\":799:802   */\n      dup3\n        /* \"#utility.yul\":792:829   */\n      mstore\n        /* \"#utility.yul\":717:835   */\n      pop\n      pop\n      jump\t// out\n        /* \"#utility.yul\":841:1063   */\n    tag_20:\n        /* \"#utility.yul\":934:938   */\n      0x00\n        /* \"#utility.yul\":972:974   */\n      0x20\n        /* \"#utility.yul\":961:970   */\n      dup3\n        /* \"#utility.yul\":957:975   */\n      add\n        /* \"#utility.yul\":949:975   */\n      swap1\n      pop\n        /* \"#utility.yul\":985:1056   */\n      tag_493\n        /* \"#utility.yul\":1053:1054   */\n      0x00\n        /* \"#utility.yul\":1042:1051   */\n      dup4\n        /* \"#utility.yul\":1038:1055   */\n      add\n        /* \"#utility.yul\":1029:1035   */\n      dup5\n        /* \"#utility.yul\":985:1056   */\n      tag_426\n      jump\t// in\n    tag_493:\n        /* \"#utility.yul\":841:1063   */\n      swap3\n      swap2\n      pop\n      pop\n      jump\t// out\n        /* \"#utility.yul\":1069:1187   */\n    tag_427:\n        /* \"#utility.yul\":1156:1180   */\n      tag_495\n        /* \"#utility.yul\":1174:1179   */\n      dup2\n        /* \"#utility.yul\":1156:1180   */\n      tag_422\n      jump\t// in\n    tag_495:\n        /* \"#utility.yul\":1151:1154   */\n      dup3\n        /* \"#utility.yul\":1144:1181   */\n      mstore\n        /* \"#utility.yul\":1069:1187   */\n      pop\n      pop\n      jump\t// out\n        /* \"#utility.yul\":1193:1283   */\n    tag_428:\n        /* \"#utility.yul\":1228:1235   */\n      0x00\n        /* \"#utility.yul\":1271:1276   */\n      dup2\n        /* \"#utility.yul\":1268:1269   */\n      0x02\n        /* \"#utility.yul\":1257:1277   */\n      signextend\n        /* \"#utility.yul\":1246:1277   */\n      swap1\n      pop\n        /* \"#utility.yul\":1193:1283   */\n      swap2\n      swap1\n      pop\n      jump\t// out\n        /* \"#utility.yul\":1289:1401   */\n    tag_429:\n        /* \"#utility.yul\":1372:1394   */\n      tag_498\n        /* \"#utility.yul\":1388:1393   */\n      dup2\n        /* \"#utility.yul\":1372:1394   */\n      tag_428\n      jump\t// in\n    tag_498:\n        /* \"#utility.yul\":1367:1370   */\n      dup3\n        /* \"#utility.yul\":1360:1395   */\n      mstore\n        /* \"#utility.yul\":1289:1401   */\n      pop\n      pop\n      jump\t// out\n        /* \"#utility.yul\":1407:1731   */\n    tag_24:\n        /* \"#utility.yul\":1524:1528   */\n      0x00\n        /* \"#utility.yul\":1562:1564   */\n      0x40\n        /* \"#utility.yul\":1551:1560   */\n      dup3\n        /* \"#utility.yul\":1547:1565   */\n      add\n        /* \"#utility.yul\":1539:1565   */\n      swap1\n      pop\n        /* \"#utility.yul\":1575:1646   */\n      tag_500\n        /* \"#utility.yul\":1643:1644   */\n      0x00\n        /* \"#utility.yul\":1632:1641   */\n      dup4\n        /* \"#utility.yul\":1628:1645   */\n      add\n        /* \"#utility.yul\":1619:1625   */\n      dup6\n        /* \"#utility.yul\":1575:1646   */\n      tag_427\n      jump\t// in\n    tag_500:\n        /* \"#utility.yul\":1656:1724   */\n      tag_501\n        /* \"#utility.yul\":1720:1722   */\n      0x20\n        /* \"#utility.yul\":1709:1718   */\n      dup4\n        /* \"#utility.yul\":1705:1723   */\n      add\n        /* \"#utility.yul\":1696:1702   */\n      dup5\n        /* \"#utility.yul\":1656:1724   */\n      tag_429\n      jump\t// in\n    tag_501:\n        /* \"#utility.yul\":1407:1731   */\n      swap4\n      swap3\n      pop\n      pop\n      pop\n      jump\t// out\n        /* \"#utility.yul\":1818:1935   */\n    tag_431:\n        /* \"#utility.yul\":1927:1928   */\n      0x00\n        /* \"#utility.yul\":1924:1925   */\n      0x00\n        /* \"#utility.yul\":1917:1929   */\n      revert\n        /* \"#utility.yul\":1941:2058   */\n    tag_432:\n        /* \"#utility.yul\":2050:2051   */\n      0x00\n        /* \"#utility.yul\":2047:2048   */\n      0x00\n        /* \"#utility.yul\":2040:2052   */\n      revert\n        /* \"#utility.yul\":2064:2186   */\n    tag_433:\n        /* \"#utility.yul\":2137:2161   */\n      tag_506\n        /* \"#utility.yul\":2155:2160   */\n      dup2\n        /* \"#utility.yul\":2137:2161   */\n      tag_423\n      jump\t// in\n    tag_506:\n        /* \"#utility.yul\":2130:2135   */\n      dup2\n        /* \"#utility.yul\":2127:2162   */\n      eq\n        /* \"#utility.yul\":2117:2180   */\n      tag_507\n      jumpi\n        /* \"#utility.yul\":2176:2177   */\n      0x00\n        /* \"#utility.yul\":2173:2174   */\n      0x00\n        /* \"#utility.yul\":2166:2178   */\n      revert\n        /* \"#utility.yul\":2117:2180   */\n    tag_507:\n        /* \"#utility.yul\":2064:2186   */\n      pop\n      jump\t// out\n        /* \"#utility.yul\":2192:2331   */\n    tag_434:\n        /* \"#utility.yul\":2238:2243   */\n      0x00\n        /* \"#utility.yul\":2276:2282   */\n      dup2\n        /* \"#utility.yul\":2263:2283   */\n      calldataload\n        /* \"#utility.yul\":2254:2283   */\n      swap1\n      pop\n        /* \"#utility.yul\":2292:2325   */\n      tag_509\n        /* \"#utility.yul\":2319:2324   */\n      dup2\n        /* \"#utility.yul\":2292:2325   */\n      tag_433\n      jump\t// in\n    tag_509:\n        /* \"#utility.yul\":2192:2331   */\n      swap3\n      swap2\n      pop\n      pop\n      jump\t// out\n        /* \"#utility.yul\":2337:2455   */\n    tag_435:\n        /* \"#utility.yul\":2408:2430   */\n      tag_511\n        /* \"#utility.yul\":2424:2429   */\n      dup2\n        /* \"#utility.yul\":2408:2430   */\n      tag_428\n      jump\t// in\n    tag_511:\n        /* \"#utility.yul\":2401:2406   */\n      dup2\n        /* \"#utility.yul\":2398:2431   */\n      eq\n        /* \"#utility.yul\":2388:2449   */\n      tag_512\n      jumpi\n        /* \"#utility.yul\":2445:2446   */\n      0x00\n        /* \"#utility.yul\":2442:2443   */\n      0x00\n        /* \"#utility.yul\":2435:2447   */\n      revert\n        /* \"#utility.yul\":2388:2449   */\n    tag_512:\n        /* \"#utility.yul\":2337:2455   */\n      pop\n      jump\t// out\n        /* \"#utility.yul\":2461:2596   */\n    tag_436:\n        /* \"#utility.yul\":2505:2510   */\n      0x00\n        /* \"#utility.yul\":2543:2549   */\n      dup2\n        /* \"#utility.yul\":2530:2550   */\n      calldataload\n        /* \"#utility.yul\":2521:2550   */\n      swap1\n      pop\n        /* \"#utility.yul\":2559:2590   */\n      tag_514\n        /* \"#utility.yul\":2584:2589   */\n      dup2\n        /* \"#utility.yul\":2559:2590   */\n      tag_435\n      jump\t// in\n    tag_514:\n        /* \"#utility.yul\":2461:2596   */\n      swap3\n      swap2\n      pop\n      pop\n      jump\t// out\n        /* \"#utility.yul\":2602:2724   */\n    tag_437:\n        /* \"#utility.yul\":2675:2699   */\n      tag_516\n        /* \"#utility.yul\":2693:2698   */\n      dup2\n        /* \"#utility.yul\":2675:2699   */\n      tag_425\n      jump\t// in\n    tag_516:\n        /* \"#utility.yul\":2668:2673   */\n      dup2\n        /* \"#utility.yul\":2665:2700   */\n      eq\n        /* \"#utility.yul\":2655:2718   */\n      tag_517\n      jumpi\n        /* \"#utility.yul\":2714:2715   */\n      0x00\n        /* \"#utility.yul\":2711:2712   */\n      0x00\n        /* \"#utility.yul\":2704:2716   */\n      revert\n        /* \"#utility.yul\":2655:2718   */\n    tag_517:\n        /* \"#utility.yul\":2602:2724   */\n      pop\n      jump\t// out\n        /* \"#utility.yul\":2730:2869   */\n    tag_438:\n        /* \"#utility.yul\":2776:2781   */\n      0x00\n        /* \"#utility.yul\":2814:2820   */\n      dup2\n        /* \"#utility.yul\":2801:2821   */\n      calldataload\n        /* \"#utility.yul\":2792:2821   */\n      swap1\n      pop\n        /* \"#utility.yul\":2830:2863   */\n      tag_519\n        /* \"#utility.yul\":2857:2862   */\n      dup2\n        /* \"#utility.yul\":2830:2863   */\n      tag_437\n      jump\t// in\n    tag_519:\n        /* \"#utility.yul\":2730:2869   */\n      swap3\n      swap2\n      pop\n      pop\n      jump\t// out\n        /* \"#utility.yul\":2875:2992   */\n    tag_439:\n        /* \"#utility.yul\":2984:2985   */\n      0x00\n        /* \"#utility.yul\":2981:2982   */\n      0x00\n        /* \"#utility.yul\":2974:2986   */\n      revert\n        /* \"#utility.yul\":2998:3115   */\n    tag_440:\n        /* \"#utility.yul\":3107:3108   */\n      0x00\n        /* \"#utility.yul\":3104:3105   */\n      0x00\n        /* \"#utility.yul\":3097:3109   */\n      revert\n        /* \"#utility.yul\":3121:3238   */\n    tag_441:\n        /* \"#utility.yul\":3230:3231   */\n      0x00\n        /* \"#utility.yul\":3227:3228   */\n      0x00\n        /* \"#utility.yul\":3220:3232   */\n      revert\n        /* \"#utility.yul\":3257:3809   */\n    tag_442:\n        /* \"#utility.yul\":3314:3322   */\n      0x00\n        /* \"#utility.yul\":3324:3330   */\n      0x00\n        /* \"#utility.yul\":3374:3377   */\n      dup4\n        /* \"#utility.yul\":3367:3371   */\n      0x1f\n        /* \"#utility.yul\":3359:3365   */\n      dup5\n        /* \"#utility.yul\":3355:3372   */\n      add\n        /* \"#utility.yul\":3351:3378   */\n      slt\n        /* \"#utility.yul\":3341:3463   */\n      tag_524\n      jumpi\n        /* \"#utility.yul\":3382:3461   */\n      tag_525\n      tag_439\n      jump\t// in\n    tag_525:\n        /* \"#utility.yul\":3341:3463   */\n    tag_524:\n        /* \"#utility.yul\":3495:3501   */\n      dup3\n        /* \"#utility.yul\":3482:3502   */\n      calldataload\n        /* \"#utility.yul\":3472:3502   */\n      swap1\n      pop\n        /* \"#utility.yul\":3525:3543   */\n      0xffffffffffffffff\n        /* \"#utility.yul\":3517:3523   */\n      dup2\n        /* \"#utility.yul\":3514:3544   */\n      gt\n        /* \"#utility.yul\":3511:3628   */\n      iszero\n      tag_526\n      jumpi\n        /* \"#utility.yul\":3547:3626   */\n      tag_527\n      tag_440\n      jump\t// in\n    tag_527:\n        /* \"#utility.yul\":3511:3628   */\n    tag_526:\n        /* \"#utility.yul\":3661:3665   */\n      0x20\n        /* \"#utility.yul\":3653:3659   */\n      dup4\n        /* \"#utility.yul\":3649:3666   */\n      add\n        /* \"#utility.yul\":3637:3666   */\n      swap2\n      pop\n        /* \"#utility.yul\":3715:3718   */\n      dup4\n        /* \"#utility.yul\":3707:3711   */\n      0x01\n        /* \"#utility.yul\":3699:3705   */\n      dup3\n        /* \"#utility.yul\":3695:3712   */\n      mul\n        /* \"#utility.yul\":3685:3693   */\n      dup4\n        /* \"#utility.yul\":3681:3713   */\n      add\n        /* \"#utility.yul\":3678:3719   */\n      gt\n        /* \"#utility.yul\":3675:3803   */\n      iszero\n      tag_528\n      jumpi\n        /* \"#utility.yul\":3722:3801   */\n      tag_529\n      tag_441\n      jump\t// in\n    tag_529:\n        /* \"#utility.yul\":3675:3803   */\n    tag_528:\n        /* \"#utility.yul\":3257:3809   */\n      swap3\n      pop\n      swap3\n      swap1\n      pop\n      jump\t// out\n        /* \"#utility.yul\":3815:4916   */\n    tag_27:\n        /* \"#utility.yul\":3917:3923   */\n      0x00\n        /* \"#utility.yul\":3925:3931   */\n      0x00\n        /* \"#utility.yul\":3933:3939   */\n      0x00\n        /* \"#utility.yul\":3941:3947   */\n      0x00\n        /* \"#utility.yul\":3949:3955   */\n      0x00\n        /* \"#utility.yul\":3957:3963   */\n      0x00\n        /* \"#utility.yul\":4006:4009   */\n      0xa0\n        /* \"#utility.yul\":3994:4003   */\n      dup8\n        /* \"#utility.yul\":3985:3992   */\n      dup10\n        /* \"#utility.yul\":3981:4004   */\n      sub\n        /* \"#utility.yul\":3977:4010   */\n      slt\n        /* \"#utility.yul\":3974:4094   */\n      iszero\n      tag_531\n      jumpi\n        /* \"#utility.yul\":4013:4092   */\n      tag_532\n      tag_431\n      jump\t// in\n    tag_532:\n        /* \"#utility.yul\":3974:4094   */\n    tag_531:\n        /* \"#utility.yul\":4133:4134   */\n      0x00\n        /* \"#utility.yul\":4158:4211   */\n      tag_533\n        /* \"#utility.yul\":4203:4210   */\n      dup10\n        /* \"#utility.yul\":4194:4200   */\n      dup3\n        /* \"#utility.yul\":4183:4192   */\n      dup11\n        /* \"#utility.yul\":4179:4201   */\n      add\n        /* \"#utility.yul\":4158:4211   */\n      tag_434\n      jump\t// in\n    tag_533:\n        /* \"#utility.yul\":4148:4211   */\n      swap7\n      pop\n        /* \"#utility.yul\":4104:4221   */\n      pop\n        /* \"#utility.yul\":4260:4262   */\n      0x20\n        /* \"#utility.yul\":4286:4337   */\n      tag_534\n        /* \"#utility.yul\":4329:4336   */\n      dup10\n        /* \"#utility.yul\":4320:4326   */\n      dup3\n        /* \"#utility.yul\":4309:4318   */\n      dup11\n        /* \"#utility.yul\":4305:4327   */\n      add\n        /* \"#utility.yul\":4286:4337   */\n      tag_436\n      jump\t// in\n    tag_534:\n        /* \"#utility.yul\":4276:4337   */\n      swap6\n      pop\n        /* \"#utility.yul\":4231:4347   */\n      pop\n        /* \"#utility.yul\":4386:4388   */\n      0x40\n        /* \"#utility.yul\":4412:4463   */\n      tag_535\n        /* \"#utility.yul\":4455:4462   */\n      dup10\n        /* \"#utility.yul\":4446:4452   */\n      dup3\n        /* \"#utility.yul\":4435:4444   */\n      dup11\n        /* \"#utility.yul\":4431:4453   */\n      add\n        /* \"#utility.yul\":4412:4463   */\n      tag_436\n      jump\t// in\n    tag_535:\n        /* \"#utility.yul\":4402:4463   */\n      swap5\n      pop\n        /* \"#utility.yul\":4357:4473   */\n      pop\n        /* \"#utility.yul\":4512:4514   */\n      0x60\n        /* \"#utility.yul\":4538:4591   */\n      tag_536\n        /* \"#utility.yul\":4583:4590   */\n      dup10\n        /* \"#utility.yul\":4574:4580   */\n      dup3\n        /* \"#utility.yul\":4563:4572   */\n      dup11\n        /* \"#utility.yul\":4559:4581   */\n      add\n        /* \"#utility.yul\":4538:4591   */\n      tag_438\n      jump\t// in\n    tag_536:\n        /* \"#utility.yul\":4528:4591   */\n      swap4\n      pop\n        /* \"#utility.yul\":4483:4601   */\n      pop\n        /* \"#utility.yul\":4668:4671   */\n      0x80\n        /* \"#utility.yul\":4657:4666   */\n      dup8\n        /* \"#utility.yul\":4653:4672   */\n      add\n        /* \"#utility.yul\":4640:4673   */\n      calldataload\n        /* \"#utility.yul\":4700:4718   */\n      0xffffffffffffffff\n        /* \"#utility.yul\":4692:4698   */\n      dup2\n        /* \"#utility.yul\":4689:4719   */\n      gt\n        /* \"#utility.yul\":4686:4803   */\n      iszero\n      tag_537\n      jumpi\n        /* \"#utility.yul\":4722:4801   */\n      tag_538\n      tag_432\n      jump\t// in\n    tag_538:\n        /* \"#utility.yul\":4686:4803   */\n    tag_537:\n        /* \"#utility.yul\":4835:4899   */\n      tag_539\n        /* \"#utility.yul\":4891:4898   */\n      dup10\n        /* \"#utility.yul\":4882:4888   */\n      dup3\n        /* \"#utility.yul\":4871:4880   */\n      dup11\n        /* \"#utility.yul\":4867:4889   */\n      add\n        /* \"#utility.yul\":4835:4899   */\n      tag_442\n      jump\t// in\n    tag_539:\n        /* \"#utility.yul\":4817:4899   */\n      swap3\n      pop\n      swap3\n      pop\n        /* \"#utility.yul\":4611:4909   */\n      pop\n        /* \"#utility.yul\":3815:4916   */\n      swap3\n      swap6\n      pop\n      swap3\n      swap6\n      pop\n      swap3\n      swap6\n      jump\t// out\n        /* \"#utility.yul\":4922:4999   */\n    tag_443:\n        /* \"#utility.yul\":4959:4966   */\n      0x00\n        /* \"#utility.yul\":4988:4993   */\n      dup2\n        /* \"#utility.yul\":4977:4993   */\n      swap1\n      pop\n        /* \"#utility.yul\":4922:4999   */\n      swap2\n      swap1\n      pop\n      jump\t// out\n        /* \"#utility.yul\":5005:5123   */\n    tag_444:\n        /* \"#utility.yul\":5092:5116   */\n      tag_542\n        /* \"#utility.yul\":5110:5115   */\n      dup2\n        /* \"#utility.yul\":5092:5116   */\n      tag_443\n      jump\t// in\n    tag_542:\n        /* \"#utility.yul\":5087:5090   */\n      dup3\n        /* \"#utility.yul\":5080:5117   */\n      mstore\n        /* \"#utility.yul\":5005:5123   */\n      pop\n      pop\n      jump\t// out\n        /* \"#utility.yul\":5129:5461   */\n    tag_30:\n        /* \"#utility.yul\":5250:5254   */\n      0x00\n        /* \"#utility.yul\":5288:5290   */\n      0x40\n        /* \"#utility.yul\":5277:5286   */\n      dup3\n        /* \"#utility.yul\":5273:5291   */\n      add\n        /* \"#utility.yul\":5265:5291   */\n      swap1\n      pop\n        /* \"#utility.yul\":5301:5372   */\n      tag_544\n        /* \"#utility.yul\":5369:5370   */\n      0x00\n        /* \"#utility.yul\":5358:5367   */\n      dup4\n        /* \"#utility.yul\":5354:5371   */\n      add\n        /* \"#utility.yul\":5345:5351   */\n      dup6\n        /* \"#utility.yul\":5301:5372   */\n      tag_444\n      jump\t// in\n    tag_544:\n        /* \"#utility.yul\":5382:5454   */\n      tag_545\n        /* \"#utility.yul\":5450:5452   */\n      0x20\n        /* \"#utility.yul\":5439:5448   */\n      dup4\n        /* \"#utility.yul\":5435:5453   */\n      add\n        /* \"#utility.yul\":5426:5432   */\n      dup5\n        /* \"#utility.yul\":5382:5454   */\n      tag_444\n      jump\t// in\n    tag_545:\n        /* \"#utility.yul\":5129:5461   */\n      swap4\n      swap3\n      pop\n      pop\n      pop\n      jump\t// out\n        /* \"#utility.yul\":5467:5544   */\n    tag_445:\n        /* \"#utility.yul\":5504:5511   */\n      0x00\n        /* \"#utility.yul\":5533:5538   */\n      dup2\n        /* \"#utility.yul\":5522:5538   */\n      swap1\n      pop\n        /* \"#utility.yul\":5467:5544   */\n      swap2\n      swap1\n      pop\n      jump\t// out\n        /* \"#utility.yul\":5550:5672   */\n    tag_446:\n        /* \"#utility.yul\":5623:5647   */\n      tag_548\n        /* \"#utility.yul\":5641:5646   */\n      dup2\n        /* \"#utility.yul\":5623:5647   */\n      tag_445\n      jump\t// in\n    tag_548:\n        /* \"#utility.yul\":5616:5621   */\n      dup2\n        /* \"#utility.yul\":5613:5648   */\n      eq\n        /* \"#utility.yul\":5603:5666   */\n      tag_549\n      jumpi\n        /* \"#utility.yul\":5662:5663   */\n      0x00\n        /* \"#utility.yul\":5659:5660   */\n      0x00\n        /* \"#utility.yul\":5652:5664   */\n      revert\n        /* \"#utility.yul\":5603:5666   */\n    tag_549:\n        /* \"#utility.yul\":5550:5672   */\n      pop\n      jump\t// out\n        /* \"#utility.yul\":5678:5817   */\n    tag_447:\n        /* \"#utility.yul\":5724:5729   */\n      0x00\n        /* \"#utility.yul\":5762:5768   */\n      dup2\n        /* \"#utility.yul\":5749:5769   */\n      calldataload\n        /* \"#utility.yul\":5740:5769   */\n      swap1\n      pop\n        /* \"#utility.yul\":5778:5811   */\n      tag_551\n        /* \"#utility.yul\":5805:5810   */\n      dup2\n        /* \"#utility.yul\":5778:5811   */\n      tag_446\n      jump\t// in\n    tag_551:\n        /* \"#utility.yul\":5678:5817   */\n      swap3\n      swap2\n      pop\n      pop\n      jump\t// out\n        /* \"#utility.yul\":5823:6152   */\n    tag_33:\n        /* \"#utility.yul\":5882:5888   */\n      0x00\n        /* \"#utility.yul\":5931:5933   */\n      0x20\n        /* \"#utility.yul\":5919:5928   */\n      dup3\n        /* \"#utility.yul\":5910:5917   */\n      dup5\n        /* \"#utility.yul\":5906:5929   */\n      sub\n        /* \"#utility.yul\":5902:5934   */\n      slt\n        /* \"#utility.yul\":5899:6018   */\n      iszero\n      tag_553\n      jumpi\n        /* \"#utility.yul\":5937:6016   */\n      tag_554\n      tag_431\n      jump\t// in\n    tag_554:\n        /* \"#utility.yul\":5899:6018   */\n    tag_553:\n        /* \"#utility.yul\":6057:6058   */\n      0x00\n        /* \"#utility.yul\":6082:6135   */\n      tag_555\n        /* \"#utility.yul\":6127:6134   */\n      dup5\n        /* \"#utility.yul\":6118:6124   */\n      dup3\n        /* \"#utility.yul\":6107:6116   */\n      dup6\n        /* \"#utility.yul\":6103:6125   */\n      add\n        /* \"#utility.yul\":6082:6135   */\n      tag_447\n      jump\t// in\n    tag_555:\n        /* \"#utility.yul\":6072:6135   */\n      swap2\n      pop\n        /* \"#utility.yul\":6028:6145   */\n      pop\n        /* \"#utility.yul\":5823:6152   */\n      swap3\n      swap2\n      pop\n      pop\n      jump\t// out\n        /* \"#utility.yul\":6158:6248   */\n    tag_448:\n        /* \"#utility.yul\":6193:6200   */\n      0x00\n        /* \"#utility.yul\":6236:6241   */\n      dup2\n        /* \"#utility.yul\":6233:6234   */\n      0x01\n        /* \"#utility.yul\":6222:6242   */\n      signextend\n        /* \"#utility.yul\":6211:6242   */\n      swap1\n      pop\n        /* \"#utility.yul\":6158:6248   */\n      swap2\n      swap1\n      pop\n      jump\t// out\n        /* \"#utility.yul\":6254:6372   */\n    tag_449:\n        /* \"#utility.yul\":6325:6347   */\n      tag_558\n        /* \"#utility.yul\":6341:6346   */\n      dup2\n        /* \"#utility.yul\":6325:6347   */\n      tag_448\n      jump\t// in\n    tag_558:\n        /* \"#utility.yul\":6318:6323   */\n      dup2\n        /* \"#utility.yul\":6315:6348   */\n      eq\n        /* \"#utility.yul\":6305:6366   */\n      tag_559\n      jumpi\n        /* \"#utility.yul\":6362:6363   */\n      0x00\n        /* \"#utility.yul\":6359:6360   */\n      0x00\n        /* \"#utility.yul\":6352:6364   */\n      revert\n        /* \"#utility.yul\":6305:6366   */\n    tag_559:\n        /* \"#utility.yul\":6254:6372   */\n      pop\n      jump\t// out\n        /* \"#utility.yul\":6378:6513   */\n    tag_450:\n        /* \"#utility.yul\":6422:6427   */\n      0x00\n        /* \"#utility.yul\":6460:6466   */\n      dup2\n        /* \"#utility.yul\":6447:6467   */\n      calldataload\n        /* \"#utility.yul\":6438:6467   */\n      swap1\n      pop\n        /* \"#utility.yul\":6476:6507   */\n      tag_561\n        /* \"#utility.yul\":6501:6506   */\n      dup2\n        /* \"#utility.yul\":6476:6507   */\n      tag_449\n      jump\t// in\n    tag_561:\n        /* \"#utility.yul\":6378:6513   */\n      swap3\n      swap2\n      pop\n      pop\n      jump\t// out\n        /* \"#utility.yul\":6519:6844   */\n    tag_38:\n        /* \"#utility.yul\":6576:6582   */\n      0x00\n        /* \"#utility.yul\":6625:6627   */\n      0x20\n        /* \"#utility.yul\":6613:6622   */\n      dup3\n        /* \"#utility.yul\":6604:6611   */\n      dup5\n        /* \"#utility.yul\":6600:6623   */\n      sub\n        /* \"#utility.yul\":6596:6628   */\n      slt\n        /* \"#utility.yul\":6593:6712   */\n      iszero\n      tag_563\n      jumpi\n        /* \"#utility.yul\":6631:6710   */\n      tag_564\n      tag_431\n      jump\t// in\n    tag_564:\n        /* \"#utility.yul\":6593:6712   */\n    tag_563:\n        /* \"#utility.yul\":6751:6752   */\n      0x00\n        /* \"#utility.yul\":6776:6827   */\n      tag_565\n        /* \"#utility.yul\":6819:6826   */\n      dup5\n        /* \"#utility.yul\":6810:6816   */\n      dup3\n        /* \"#utility.yul\":6799:6808   */\n      dup6\n        /* \"#utility.yul\":6795:6817   */\n      add\n        /* \"#utility.yul\":6776:6827   */\n      tag_450\n      jump\t// in\n    tag_565:\n        /* \"#utility.yul\":6766:6827   */\n      swap2\n      pop\n        /* \"#utility.yul\":6722:6837   */\n      pop\n        /* \"#utility.yul\":6519:6844   */\n      swap3\n      swap2\n      pop\n      pop\n      jump\t// out\n        /* \"#utility.yul\":6850:7072   */\n    tag_41:\n        /* \"#utility.yul\":6943:6947   */\n      0x00\n        /* \"#utility.yul\":6981:6983   */\n      0x20\n        /* \"#utility.yul\":6970:6979   */\n      dup3\n        /* \"#utility.yul\":6966:6984   */\n      add\n        /* \"#utility.yul\":6958:6984   */\n      swap1\n      pop\n        /* \"#utility.yul\":6994:7065   */\n      tag_567\n        /* \"#utility.yul\":7062:7063   */\n      0x00\n        /* \"#utility.yul\":7051:7060   */\n      dup4\n        /* \"#utility.yul\":7047:7064   */\n      add\n        /* \"#utility.yul\":7038:7044   */\n      dup5\n        /* \"#utility.yul\":6994:7065   */\n      tag_444\n      jump\t// in\n    tag_567:\n        /* \"#utility.yul\":6850:7072   */\n      swap3\n      swap2\n      pop\n      pop\n      jump\t// out\n        /* \"#utility.yul\":7078:7168   */\n    tag_451:\n        /* \"#utility.yul\":7112:7119   */\n      0x00\n        /* \"#utility.yul\":7155:7160   */\n      dup2\n        /* \"#utility.yul\":7148:7161   */\n      iszero\n        /* \"#utility.yul\":7141:7162   */\n      iszero\n        /* \"#utility.yul\":7130:7162   */\n      swap1\n      pop\n        /* \"#utility.yul\":7078:7168   */\n      swap2\n      swap1\n      pop\n      jump\t// out\n        /* \"#utility.yul\":7174:7290   */\n    tag_452:\n        /* \"#utility.yul\":7244:7265   */\n      tag_570\n        /* \"#utility.yul\":7259:7264   */\n      dup2\n        /* \"#utility.yul\":7244:7265   */\n      tag_451\n      jump\t// in\n    tag_570:\n        /* \"#utility.yul\":7237:7242   */\n      dup2\n        /* \"#utility.yul\":7234:7266   */\n      eq\n        /* \"#utility.yul\":7224:7284   */\n      tag_571\n      jumpi\n        /* \"#utility.yul\":7280:7281   */\n      0x00\n        /* \"#utility.yul\":7277:7278   */\n      0x00\n        /* \"#utility.yul\":7270:7282   */\n      revert\n        /* \"#utility.yul\":7224:7284   */\n    tag_571:\n        /* \"#utility.yul\":7174:7290   */\n      pop\n      jump\t// out\n        /* \"#utility.yul\":7296:7429   */\n    tag_453:\n        /* \"#utility.yul\":7339:7344   */\n      0x00\n        /* \"#utility.yul\":7377:7383   */\n      dup2\n        /* \"#utility.yul\":7364:7384   */\n      calldataload\n        /* \"#utility.yul\":7355:7384   */\n      swap1\n      pop\n        /* \"#utility.yul\":7393:7423   */\n      tag_573\n        /* \"#utility.yul\":7417:7422   */\n      dup2\n        /* \"#utility.yul\":7393:7423   */\n      tag_452\n      jump\t// in\n    tag_573:\n        /* \"#utility.yul\":7296:7429   */\n      swap3\n      swap2\n      pop\n      pop\n      jump\t// out\n        /* \"#utility.yul\":7435:7557   */\n    tag_454:\n        /* \"#utility.yul\":7508:7532   */\n      tag_575\n        /* \"#utility.yul\":7526:7531   */\n      dup2\n        /* \"#utility.yul\":7508:7532   */\n      tag_443\n      jump\t// in\n    tag_575:\n        /* \"#utility.yul\":7501:7506   */\n      dup2\n        /* \"#utility.yul\":7498:7533   */\n      eq\n        /* \"#utility.yul\":7488:7551   */\n      tag_576\n      jumpi\n        /* \"#utility.yul\":7547:7548   */\n      0x00\n        /* \"#utility.yul\":7544:7545   */\n      0x00\n        /* \"#utility.yul\":7537:7549   */\n      revert\n        /* \"#utility.yul\":7488:7551   */\n    tag_576:\n        /* \"#utility.yul\":7435:7557   */\n      pop\n      jump\t// out\n        /* \"#utility.yul\":7563:7702   */\n    tag_455:\n        /* \"#utility.yul\":7609:7614   */\n      0x00\n        /* \"#utility.yul\":7647:7653   */\n      dup2\n        /* \"#utility.yul\":7634:7654   */\n      calldataload\n        /* \"#utility.yul\":7625:7654   */\n      swap1\n      pop\n        /* \"#utility.yul\":7663:7696   */\n      tag_578\n        /* \"#utility.yul\":7690:7695   */\n      dup2\n        /* \"#utility.yul\":7663:7696   */\n      tag_454\n      jump\t// in\n    tag_578:\n        /* \"#utility.yul\":7563:7702   */\n      swap3\n      swap2\n      pop\n      pop\n      jump\t// out\n        /* \"#utility.yul\":7708:8665   */\n    tag_44:\n        /* \"#utility.yul\":7802:7808   */\n      0x00\n        /* \"#utility.yul\":7810:7816   */\n      0x00\n        /* \"#utility.yul\":7818:7824   */\n      0x00\n        /* \"#utility.yul\":7826:7832   */\n      0x00\n        /* \"#utility.yul\":7834:7840   */\n      0x00\n        /* \"#utility.yul\":7883:7886   */\n      0x80\n        /* \"#utility.yul\":7871:7880   */\n      dup7\n        /* \"#utility.yul\":7862:7869   */\n      dup9\n        /* \"#utility.yul\":7858:7881   */\n      sub\n        /* \"#utility.yul\":7854:7887   */\n      slt\n        /* \"#utility.yul\":7851:7971   */\n      iszero\n      tag_580\n      jumpi\n        /* \"#utility.yul\":7890:7969   */\n      tag_581\n      tag_431\n      jump\t// in\n    tag_581:\n        /* \"#utility.yul\":7851:7971   */\n    tag_580:\n        /* \"#utility.yul\":8010:8011   */\n      0x00\n        /* \"#utility.yul\":8035:8088   */\n      tag_582\n        /* \"#utility.yul\":8080:8087   */\n      dup9\n        /* \"#utility.yul\":8071:8077   */\n      dup3\n        /* \"#utility.yul\":8060:8069   */\n      dup10\n        /* \"#utility.yul\":8056:8078   */\n      add\n        /* \"#utility.yul\":8035:8088   */\n      tag_434\n      jump\t// in\n    tag_582:\n        /* \"#utility.yul\":8025:8088   */\n      swap6\n      pop\n        /* \"#utility.yul\":7981:8098   */\n      pop\n        /* \"#utility.yul\":8137:8139   */\n      0x20\n        /* \"#utility.yul\":8163:8213   */\n      tag_583\n        /* \"#utility.yul\":8205:8212   */\n      dup9\n        /* \"#utility.yul\":8196:8202   */\n      dup3\n        /* \"#utility.yul\":8185:8194   */\n      dup10\n        /* \"#utility.yul\":8181:8203   */\n      add\n        /* \"#utility.yul\":8163:8213   */\n      tag_453\n      jump\t// in\n    tag_583:\n        /* \"#utility.yul\":8153:8213   */\n      swap5\n      pop\n        /* \"#utility.yul\":8108:8223   */\n      pop\n        /* \"#utility.yul\":8262:8264   */\n      0x40\n        /* \"#utility.yul\":8288:8341   */\n      tag_584\n        /* \"#utility.yul\":8333:8340   */\n      dup9\n        /* \"#utility.yul\":8324:8330   */\n      dup3\n        /* \"#utility.yul\":8313:8322   */\n      dup10\n        /* \"#utility.yul\":8309:8331   */\n      add\n        /* \"#utility.yul\":8288:8341   */\n      tag_455\n      jump\t// in\n    tag_584:\n        /* \"#utility.yul\":8278:8341   */\n      swap4\n      pop\n        /* \"#utility.yul\":8233:8351   */\n      pop\n        /* \"#utility.yul\":8418:8420   */\n      0x60\n        /* \"#utility.yul\":8407:8416   */\n      dup7\n        /* \"#utility.yul\":8403:8421   */\n      add\n        /* \"#utility.yul\":8390:8422   */\n      calldataload\n        /* \"#utility.yul\":8449:8467   */\n      0xffffffffffffffff\n        /* \"#utility.yul\":8441:8447   */\n      dup2\n        /* \"#utility.yul\":8438:8468   */\n      gt\n        /* \"#utility.yul\":8435:8552   */\n      iszero\n      tag_585\n      jumpi\n        /* \"#utility.yul\":8471:8550   */\n      tag_586\n      tag_432\n      jump\t// in\n    tag_586:\n        /* \"#utility.yul\":8435:8552   */\n    tag_585:\n        /* \"#utility.yul\":8584:8648   */\n      tag_587\n        /* \"#utility.yul\":8640:8647   */\n      dup9\n        /* \"#utility.yul\":8631:8637   */\n      dup3\n        /* \"#utility.yul\":8620:8629   */\n      dup10\n        /* \"#utility.yul\":8616:8638   */\n      add\n        /* \"#utility.yul\":8584:8648   */\n      tag_442\n      jump\t// in\n    tag_587:\n        /* \"#utility.yul\":8566:8648   */\n      swap3\n      pop\n      swap3\n      pop\n        /* \"#utility.yul\":8361:8658   */\n      pop\n        /* \"#utility.yul\":7708:8665   */\n      swap3\n      swap6\n      pop\n      swap3\n      swap6\n      swap1\n      swap4\n      pop\n      jump\t// out\n        /* \"#utility.yul\":8671:8747   */\n    tag_456:\n        /* \"#utility.yul\":8707:8714   */\n      0x00\n        /* \"#utility.yul\":8736:8741   */\n      dup2\n        /* \"#utility.yul\":8725:8741   */\n      swap1\n      pop\n        /* \"#utility.yul\":8671:8747   */\n      swap2\n      swap1\n      pop\n      jump\t// out\n        /* \"#utility.yul\":8753:8868   */\n    tag_457:\n        /* \"#utility.yul\":8838:8861   */\n      tag_590\n        /* \"#utility.yul\":8855:8860   */\n      dup2\n        /* \"#utility.yul\":8838:8861   */\n      tag_456\n      jump\t// in\n    tag_590:\n        /* \"#utility.yul\":8833:8836   */\n      dup3\n        /* \"#utility.yul\":8826:8862   */\n      mstore\n        /* \"#utility.yul\":8753:8868   */\n      pop\n      pop\n      jump\t// out\n        /* \"#utility.yul\":8874:9198   */\n    tag_47:\n        /* \"#utility.yul\":8991:8995   */\n      0x00\n        /* \"#utility.yul\":9029:9031   */\n      0x40\n        /* \"#utility.yul\":9018:9027   */\n      dup3\n        /* \"#utility.yul\":9014:9032   */\n      add\n        /* \"#utility.yul\":9006:9032   */\n      swap1\n      pop\n        /* \"#utility.yul\":9042:9111   */\n      tag_592\n        /* \"#utility.yul\":9108:9109   */\n      0x00\n        /* \"#utility.yul\":9097:9106   */\n      dup4\n        /* \"#utility.yul\":9093:9110   */\n      add\n        /* \"#utility.yul\":9084:9090   */\n      dup6\n        /* \"#utility.yul\":9042:9111   */\n      tag_457\n      jump\t// in\n    tag_592:\n        /* \"#utility.yul\":9121:9191   */\n      tag_593\n        /* \"#utility.yul\":9187:9189   */\n      0x20\n        /* \"#utility.yul\":9176:9185   */\n      dup4\n        /* \"#utility.yul\":9172:9190   */\n      add\n        /* \"#utility.yul\":9163:9169   */\n      dup5\n        /* \"#utility.yul\":9121:9191   */\n      tag_457\n      jump\t// in\n    tag_593:\n        /* \"#utility.yul\":8874:9198   */\n      swap4\n      swap3\n      pop\n      pop\n      pop\n      jump\t// out\n        /* \"#utility.yul\":9204:9529   */\n    tag_53:\n        /* \"#utility.yul\":9261:9267   */\n      0x00\n        /* \"#utility.yul\":9310:9312   */\n      0x20\n        /* \"#utility.yul\":9298:9307   */\n      dup3\n        /* \"#utility.yul\":9289:9296   */\n      dup5\n        /* \"#utility.yul\":9285:9308   */\n      sub\n        /* \"#utility.yul\":9281:9313   */\n      slt\n        /* \"#utility.yul\":9278:9397   */\n      iszero\n      tag_595\n      jumpi\n        /* \"#utility.yul\":9316:9395   */\n      tag_596\n      tag_431\n      jump\t// in\n    tag_596:\n        /* \"#utility.yul\":9278:9397   */\n    tag_595:\n        /* \"#utility.yul\":9436:9437   */\n      0x00\n        /* \"#utility.yul\":9461:9512   */\n      tag_597\n        /* \"#utility.yul\":9504:9511   */\n      dup5\n        /* \"#utility.yul\":9495:9501   */\n      dup3\n        /* \"#utility.yul\":9484:9493   */\n      dup6\n        /* \"#utility.yul\":9480:9502   */\n      add\n        /* \"#utility.yul\":9461:9512   */\n      tag_436\n      jump\t// in\n    tag_597:\n        /* \"#utility.yul\":9451:9512   */\n      swap2\n      pop\n        /* \"#utility.yul\":9407:9522   */\n      pop\n        /* \"#utility.yul\":9204:9529   */\n      swap3\n      swap2\n      pop\n      pop\n      jump\t// out\n        /* \"#utility.yul\":9535:9644   */\n    tag_458:\n        /* \"#utility.yul\":9616:9637   */\n      tag_599\n        /* \"#utility.yul\":9631:9636   */\n      dup2\n        /* \"#utility.yul\":9616:9637   */\n      tag_451\n      jump\t// in\n    tag_599:\n        /* \"#utility.yul\":9611:9614   */\n      dup3\n        /* \"#utility.yul\":9604:9638   */\n      mstore\n        /* \"#utility.yul\":9535:9644   */\n      pop\n      pop\n      jump\t// out\n        /* \"#utility.yul\":9650:9970   */\n    tag_56:\n        /* \"#utility.yul\":9765:9769   */\n      0x00\n        /* \"#utility.yul\":9803:9805   */\n      0x40\n        /* \"#utility.yul\":9792:9801   */\n      dup3\n        /* \"#utility.yul\":9788:9806   */\n      add\n        /* \"#utility.yul\":9780:9806   */\n      swap1\n      pop\n        /* \"#utility.yul\":9816:9881   */\n      tag_601\n        /* \"#utility.yul\":9878:9879   */\n      0x00\n        /* \"#utility.yul\":9867:9876   */\n      dup4\n        /* \"#utility.yul\":9863:9880   */\n      add\n        /* \"#utility.yul\":9854:9860   */\n      dup6\n        /* \"#utility.yul\":9816:9881   */\n      tag_458\n      jump\t// in\n    tag_601:\n        /* \"#utility.yul\":9891:9963   */\n      tag_602\n        /* \"#utility.yul\":9959:9961   */\n      0x20\n        /* \"#utility.yul\":9948:9957   */\n      dup4\n        /* \"#utility.yul\":9944:9962   */\n      add\n        /* \"#utility.yul\":9935:9941   */\n      dup5\n        /* \"#utility.yul\":9891:9963   */\n      tag_426\n      jump\t// in\n    tag_602:\n        /* \"#utility.yul\":9650:9970   */\n      swap4\n      swap3\n      pop\n      pop\n      pop\n      jump\t// out\n        /* \"#utility.yul\":9976:10156   */\n    tag_459:\n        /* \"#utility.yul\":10024:10101   */\n      0x4e487b7100000000000000000000000000000000000000000000000000000000\n        /* \"#utility.yul\":10021:10022   */\n      0x00\n        /* \"#utility.yul\":10014:10102   */\n      mstore\n        /* \"#utility.yul\":10121:10125   */\n      0x11\n        /* \"#utility.yul\":10118:10119   */\n      0x04\n        /* \"#utility.yul\":10111:10126   */\n      mstore\n        /* \"#utility.yul\":10145:10149   */\n      0x24\n        /* \"#utility.yul\":10142:10143   */\n      0x00\n        /* \"#utility.yul\":10135:10150   */\n      revert\n        /* \"#utility.yul\":10162:10388   */\n    tag_61:\n        /* \"#utility.yul\":10196:10199   */\n      0x00\n        /* \"#utility.yul\":10219:10241   */\n      tag_605\n        /* \"#utility.yul\":10235:10240   */\n      dup3\n        /* \"#utility.yul\":10219:10241   */\n      tag_428\n      jump\t// in\n    tag_605:\n        /* \"#utility.yul\":10210:10241   */\n      swap2\n      pop\n        /* \"#utility.yul\":10263:10329   */\n      0xffffffffffffffffffffffffffffffffffffffffffffffffffffffffff800000\n        /* \"#utility.yul\":10256:10261   */\n      dup3\n        /* \"#utility.yul\":10253:10330   */\n      sub\n        /* \"#utility.yul\":10250:10353   */\n      tag_606\n      jumpi\n        /* \"#utility.yul\":10333:10351   */\n      tag_607\n      tag_459\n      jump\t// in\n    tag_607:\n        /* \"#utility.yul\":10250:10353   */\n    tag_606:\n        /* \"#utility.yul\":10376:10381   */\n      dup2\n        /* \"#utility.yul\":10373:10374   */\n      0x00\n        /* \"#utility.yul\":10369:10382   */\n      sub\n        /* \"#utility.yul\":10362:10382   */\n      swap1\n      pop\n        /* \"#utility.yul\":10162:10388   */\n      swap2\n      swap1\n      pop\n      jump\t// out\n        /* \"#utility.yul\":10394:10618   */\n    tag_90:\n        /* \"#utility.yul\":10434:10437   */\n      0x00\n        /* \"#utility.yul\":10453:10473   */\n      tag_609\n        /* \"#utility.yul\":10471:10472   */\n      dup3\n        /* \"#utility.yul\":10453:10473   */\n      tag_425\n      jump\t// in\n    tag_609:\n        /* \"#utility.yul\":10448:10473   */\n      swap2\n      pop\n        /* \"#utility.yul\":10487:10507   */\n      tag_610\n        /* \"#utility.yul\":10505:10506   */\n      dup4\n        /* \"#utility.yul\":10487:10507   */\n      tag_425\n      jump\t// in\n    tag_610:\n        /* \"#utility.yul\":10482:10507   */\n      swap3\n      pop\n        /* \"#utility.yul\":10530:10531   */\n      dup3\n        /* \"#utility.yul\":10527:10528   */\n      dup3\n        /* \"#utility.yul\":10523:10532   */\n      add\n        /* \"#utility.yul\":10516:10532   */\n      swap1\n      pop\n        /* \"#utility.yul\":10553:10587   */\n      0xffffffffffffffffffffffffffffffff\n        /* \"#utility.yul\":10548:10551   */\n      dup2\n        /* \"#utility.yul\":10545:10588   */\n      gt\n        /* \"#utility.yul\":10542:10611   */\n      iszero\n      tag_611\n      jumpi\n        /* \"#utility.yul\":10591:10609   */\n      tag_612\n      tag_459\n      jump\t// in\n    tag_612:\n        /* \"#utility.yul\":10542:10611   */\n    tag_611:\n        /* \"#utility.yul\":10394:10618   */\n      swap3\n      swap2\n      pop\n      pop\n      jump\t// out\n        /* \"#utility.yul\":10624:10792   */\n    tag_460:\n        /* \"#utility.yul\":10707:10718   */\n      0x00\n        /* \"#utility.yul\":10741:10747   */\n      dup3\n        /* \"#utility.yul\":10736:10739   */\n      dup3\n        /* \"#utility.yul\":10729:10748   */\n      mstore\n        /* \"#utility.yul\":10781:10785   */\n      0x20\n        /* \"#utility.yul\":10776:10779   */\n      dup3\n        /* \"#utility.yul\":10772:10786   */\n      add\n        /* \"#utility.yul\":10757:10786   */\n      swap1\n      pop\n        /* \"#utility.yul\":10624:10792   */\n      swap3\n      swap2\n      pop\n      pop\n      jump\t// out\n        /* \"#utility.yul\":10798:10946   */\n    tag_461:\n        /* \"#utility.yul\":10896:10902   */\n      dup3\n        /* \"#utility.yul\":10891:10894   */\n      dup2\n        /* \"#utility.yul\":10886:10889   */\n      dup4\n        /* \"#utility.yul\":10873:10903   */\n      calldatacopy\n        /* \"#utility.yul\":10937:10938   */\n      0x00\n        /* \"#utility.yul\":10928:10934   */\n      dup4\n        /* \"#utility.yul\":10923:10926   */\n      dup4\n        /* \"#utility.yul\":10919:10935   */\n      add\n        /* \"#utility.yul\":10912:10939   */\n      mstore\n        /* \"#utility.yul\":10798:10946   */\n      pop\n      pop\n      pop\n      jump\t// out\n        /* \"#utility.yul\":10952:11054   */\n    tag_462:\n        /* \"#utility.yul\":10993:10999   */\n      0x00\n        /* \"#utility.yul\":11044:11046   */\n      0x1f\n        /* \"#utility.yul\":11040:11047   */\n      not\n        /* \"#utility.yul\":11035:11037   */\n      0x1f\n        /* \"#utility.yul\":11028:11033   */\n      dup4\n        /* \"#utility.yul\":11024:11038   */\n      add\n        /* \"#utility.yul\":11020:11048   */\n      and\n        /* \"#utility.yul\":11010:11048   */\n      swap1\n      pop\n        /* \"#utility.yul\":10952:11054   */\n      swap2\n      swap1\n      pop\n      jump\t// out\n        /* \"#utility.yul\":11082:11396   */\n    tag_463:\n        /* \"#utility.yul\":11178:11181   */\n      0x00\n        /* \"#utility.yul\":11199:11269   */\n      tag_617\n        /* \"#utility.yul\":11262:11268   */\n      dup4\n        /* \"#utility.yul\":11257:11260   */\n      dup6\n        /* \"#utility.yul\":11199:11269   */\n      tag_460\n      jump\t// in\n    tag_617:\n        /* \"#utility.yul\":11192:11269   */\n      swap4\n      pop\n        /* \"#utility.yul\":11279:11335   */\n      tag_618\n        /* \"#utility.yul\":11328:11334   */\n      dup4\n        /* \"#utility.yul\":11323:11326   */\n      dup6\n        /* \"#utility.yul\":11316:11321   */\n      dup5\n        /* \"#utility.yul\":11279:11335   */\n      tag_461\n      jump\t// in\n    tag_618:\n        /* \"#utility.yul\":11360:11389   */\n      tag_619\n        /* \"#utility.yul\":11382:11388   */\n      dup4\n        /* \"#utility.yul\":11360:11389   */\n      tag_462\n      jump\t// in\n    tag_619:\n        /* \"#utility.yul\":11355:11358   */\n      dup5\n        /* \"#utility.yul\":11351:11390   */\n      add\n        /* \"#utility.yul\":11344:11390   */\n      swap1\n      pop\n        /* \"#utility.yul\":11082:11396   */\n      swap4\n      swap3\n      pop\n      pop\n      pop\n      jump\t// out\n        /* \"#utility.yul\":11402:11951   */\n    tag_102:\n        /* \"#utility.yul\":11579:11583   */\n      0x00\n        /* \"#utility.yul\":11617:11619   */\n      0x60\n        /* \"#utility.yul\":11606:11615   */\n      dup3\n        /* \"#utility.yul\":11602:11620   */\n      add\n        /* \"#utility.yul\":11594:11620   */\n      swap1\n      pop\n        /* \"#utility.yul\":11630:11701   */\n      tag_621\n        /* \"#utility.yul\":11698:11699   */\n      0x00\n        /* \"#utility.yul\":11687:11696   */\n      dup4\n        /* \"#utility.yul\":11683:11700   */\n      add\n        /* \"#utility.yul\":11674:11680   */\n      dup8\n        /* \"#utility.yul\":11630:11701   */\n      tag_444\n      jump\t// in\n    tag_621:\n        /* \"#utility.yul\":11711:11783   */\n      tag_622\n        /* \"#utility.yul\":11779:11781   */\n      0x20\n        /* \"#utility.yul\":11768:11777   */\n      dup4\n        /* \"#utility.yul\":11764:11782   */\n      add\n        /* \"#utility.yul\":11755:11761   */\n      dup7\n        /* \"#utility.yul\":11711:11783   */\n      tag_444\n      jump\t// in\n    tag_622:\n        /* \"#utility.yul\":11830:11839   */\n      dup2\n        /* \"#utility.yul\":11824:11828   */\n      dup2\n        /* \"#utility.yul\":11820:11840   */\n      sub\n        /* \"#utility.yul\":11815:11817   */\n      0x40\n        /* \"#utility.yul\":11804:11813   */\n      dup4\n        /* \"#utility.yul\":11800:11818   */\n      add\n        /* \"#utility.yul\":11793:11841   */\n      mstore\n        /* \"#utility.yul\":11858:11944   */\n      tag_623\n        /* \"#utility.yul\":11939:11943   */\n      dup2\n        /* \"#utility.yul\":11930:11936   */\n      dup5\n        /* \"#utility.yul\":11922:11928   */\n      dup7\n        /* \"#utility.yul\":11858:11944   */\n      tag_463\n      jump\t// in\n    tag_623:\n        /* \"#utility.yul\":11850:11944   */\n      swap1\n      pop\n        /* \"#utility.yul\":11402:11951   */\n      swap6\n      swap5\n      pop\n      pop\n      pop\n      pop\n      pop\n      jump\t// out\n        /* \"#utility.yul\":11957:12148   */\n    tag_109:\n        /* \"#utility.yul\":11997:12000   */\n      0x00\n        /* \"#utility.yul\":12016:12036   */\n      tag_625\n        /* \"#utility.yul\":12034:12035   */\n      dup3\n        /* \"#utility.yul\":12016:12036   */\n      tag_443\n      jump\t// in\n    tag_625:\n        /* \"#utility.yul\":12011:12036   */\n      swap2\n      pop\n        /* \"#utility.yul\":12050:12070   */\n      tag_626\n        /* \"#utility.yul\":12068:12069   */\n      dup4\n        /* \"#utility.yul\":12050:12070   */\n      tag_443\n      jump\t// in\n    tag_626:\n        /* \"#utility.yul\":12045:12070   */\n      swap3\n      pop\n        /* \"#utility.yul\":12093:12094   */\n      dup3\n        /* \"#utility.yul\":12090:12091   */\n      dup3\n        /* \"#utility.yul\":12086:12095   */\n      add\n        /* \"#utility.yul\":12079:12095   */\n      swap1\n      pop\n        /* \"#utility.yul\":12114:12117   */\n      dup1\n        /* \"#utility.yul\":12111:12112   */\n      dup3\n        /* \"#utility.yul\":12108:12118   */\n      gt\n        /* \"#utility.yul\":12105:12141   */\n      iszero\n      tag_627\n      jumpi\n        /* \"#utility.yul\":12121:12139   */\n      tag_628\n      tag_459\n      jump\t// in\n    tag_628:\n        /* \"#utility.yul\":12105:12141   */\n    tag_627:\n        /* \"#utility.yul\":11957:12148   */\n      swap3\n      swap2\n      pop\n      pop\n      jump\t// out\n        /* \"#utility.yul\":12154:12707   */\n    tag_116:\n        /* \"#utility.yul\":12331:12335   */\n      0x00\n        /* \"#utility.yul\":12369:12372   */\n      0x80\n        /* \"#utility.yul\":12358:12367   */\n      dup3\n        /* \"#utility.yul\":12354:12373   */\n      add\n        /* \"#utility.yul\":12346:12373   */\n      swap1\n      pop\n        /* \"#utility.yul\":12383:12454   */\n      tag_630\n        /* \"#utility.yul\":12451:12452   */\n      0x00\n        /* \"#utility.yul\":12440:12449   */\n      dup4\n        /* \"#utility.yul\":12436:12453   */\n      add\n        /* \"#utility.yul\":12427:12433   */\n      dup8\n        /* \"#utility.yul\":12383:12454   */\n      tag_424\n      jump\t// in\n    tag_630:\n        /* \"#utility.yul\":12464:12536   */\n      tag_631\n        /* \"#utility.yul\":12532:12534   */\n      0x20\n        /* \"#utility.yul\":12521:12530   */\n      dup4\n        /* \"#utility.yul\":12517:12535   */\n      add\n        /* \"#utility.yul\":12508:12514   */\n      dup7\n        /* \"#utility.yul\":12464:12536   */\n      tag_426\n      jump\t// in\n    tag_631:\n        /* \"#utility.yul\":12546:12618   */\n      tag_632\n        /* \"#utility.yul\":12614:12616   */\n      0x40\n        /* \"#utility.yul\":12603:12612   */\n      dup4\n        /* \"#utility.yul\":12599:12617   */\n      add\n        /* \"#utility.yul\":12590:12596   */\n      dup6\n        /* \"#utility.yul\":12546:12618   */\n      tag_444\n      jump\t// in\n    tag_632:\n        /* \"#utility.yul\":12628:12700   */\n      tag_633\n        /* \"#utility.yul\":12696:12698   */\n      0x60\n        /* \"#utility.yul\":12685:12694   */\n      dup4\n        /* \"#utility.yul\":12681:12699   */\n      add\n        /* \"#utility.yul\":12672:12678   */\n      dup5\n        /* \"#utility.yul\":12628:12700   */\n      tag_444\n      jump\t// in\n    tag_633:\n        /* \"#utility.yul\":12154:12707   */\n      swap6\n      swap5\n      pop\n      pop\n      pop\n      pop\n      pop\n      jump\t// out\n        /* \"#utility.yul\":12713:12907   */\n    tag_128:\n        /* \"#utility.yul\":12753:12757   */\n      0x00\n        /* \"#utility.yul\":12773:12793   */\n      tag_635\n        /* \"#utility.yul\":12791:12792   */\n      dup3\n        /* \"#utility.yul\":12773:12793   */\n      tag_443\n      jump\t// in\n    tag_635:\n        /* \"#utility.yul\":12768:12793   */\n      swap2\n      pop\n        /* \"#utility.yul\":12807:12827   */\n      tag_636\n        /* \"#utility.yul\":12825:12826   */\n      dup4\n        /* \"#utility.yul\":12807:12827   */\n      tag_443\n      jump\t// in\n    tag_636:\n        /* \"#utility.yul\":12802:12827   */\n      swap3\n      pop\n        /* \"#utility.yul\":12851:12852   */\n      dup3\n        /* \"#utility.yul\":12848:12849   */\n      dup3\n        /* \"#utility.yul\":12844:12853   */\n      sub\n        /* \"#utility.yul\":12836:12853   */\n      swap1\n      pop\n        /* \"#utility.yul\":12875:12876   */\n      dup2\n        /* \"#utility.yul\":12869:12873   */\n      dup2\n        /* \"#utility.yul\":12866:12877   */\n      gt\n        /* \"#utility.yul\":12863:12900   */\n      iszero\n      tag_637\n      jumpi\n        /* \"#utility.yul\":12880:12898   */\n      tag_638\n      tag_459\n      jump\t// in\n    tag_638:\n        /* \"#utility.yul\":12863:12900   */\n    tag_637:\n        /* \"#utility.yul\":12713:12907   */\n      swap3\n      swap2\n      pop\n      pop\n      jump\t// out\n        /* \"#utility.yul\":12913:13141   */\n    tag_135:\n        /* \"#utility.yul\":12948:12951   */\n      0x00\n        /* \"#utility.yul\":12971:12994   */\n      tag_640\n        /* \"#utility.yul\":12988:12993   */\n      dup3\n        /* \"#utility.yul\":12971:12994   */\n      tag_456\n      jump\t// in\n    tag_640:\n        /* \"#utility.yul\":12962:12994   */\n      swap2\n      pop\n        /* \"#utility.yul\":13016:13082   */\n      0x8000000000000000000000000000000000000000000000000000000000000000\n        /* \"#utility.yul\":13009:13014   */\n      dup3\n        /* \"#utility.yul\":13006:13083   */\n      sub\n        /* \"#utility.yul\":13003:13106   */\n      tag_641\n      jumpi\n        /* \"#utility.yul\":13086:13104   */\n      tag_642\n      tag_459\n      jump\t// in\n    tag_642:\n        /* \"#utility.yul\":13003:13106   */\n    tag_641:\n        /* \"#utility.yul\":13129:13134   */\n      dup2\n        /* \"#utility.yul\":13126:13127   */\n      0x00\n        /* \"#utility.yul\":13122:13135   */\n      sub\n        /* \"#utility.yul\":13115:13135   */\n      swap1\n      pop\n        /* \"#utility.yul\":12913:13141   */\n      swap2\n      swap1\n      pop\n      jump\t// out\n        /* \"#utility.yul\":13147:13479   */\n    tag_143:\n        /* \"#utility.yul\":13268:13272   */\n      0x00\n        /* \"#utility.yul\":13306:13308   */\n      0x40\n        /* \"#utility.yul\":13295:13304   */\n      dup3\n        /* \"#utility.yul\":13291:13309   */\n      add\n        /* \"#utility.yul\":13283:13309   */\n      swap1\n      pop\n        /* \"#utility.yul\":13319:13390   */\n      tag_644\n        /* \"#utility.yul\":13387:13388   */\n      0x00\n        /* \"#utility.yul\":13376:13385   */\n      dup4\n        /* \"#utility.yul\":13372:13389   */\n      add\n        /* \"#utility.yul\":13363:13369   */\n      dup6\n        /* \"#utility.yul\":13319:13390   */\n      tag_424\n      jump\t// in\n    tag_644:\n        /* \"#utility.yul\":13400:13472   */\n      tag_645\n        /* \"#utility.yul\":13468:13470   */\n      0x20\n        /* \"#utility.yul\":13457:13466   */\n      dup4\n        /* \"#utility.yul\":13453:13471   */\n      add\n        /* \"#utility.yul\":13444:13450   */\n      dup5\n        /* \"#utility.yul\":13400:13472   */\n      tag_444\n      jump\t// in\n    tag_645:\n        /* \"#utility.yul\":13147:13479   */\n      swap4\n      swap3\n      pop\n      pop\n      pop\n      jump\t// out\n        /* \"#utility.yul\":13485:13622   */\n    tag_464:\n        /* \"#utility.yul\":13539:13544   */\n      0x00\n        /* \"#utility.yul\":13570:13576   */\n      dup2\n        /* \"#utility.yul\":13564:13577   */\n      mload\n        /* \"#utility.yul\":13555:13577   */\n      swap1\n      pop\n        /* \"#utility.yul\":13586:13616   */\n      tag_647\n        /* \"#utility.yul\":13610:13615   */\n      dup2\n        /* \"#utility.yul\":13586:13616   */\n      tag_452\n      jump\t// in\n    tag_647:\n        /* \"#utility.yul\":13485:13622   */\n      swap3\n      swap2\n      pop\n      pop\n      jump\t// out\n        /* \"#utility.yul\":13628:13973   */\n    tag_147:\n        /* \"#utility.yul\":13695:13701   */\n      0x00\n        /* \"#utility.yul\":13744:13746   */\n      0x20\n        /* \"#utility.yul\":13732:13741   */\n      dup3\n        /* \"#utility.yul\":13723:13730   */\n      dup5\n        /* \"#utility.yul\":13719:13742   */\n      sub\n        /* \"#utility.yul\":13715:13747   */\n      slt\n        /* \"#utility.yul\":13712:13831   */\n      iszero\n      tag_649\n      jumpi\n        /* \"#utility.yul\":13750:13829   */\n      tag_650\n      tag_431\n      jump\t// in\n    tag_650:\n        /* \"#utility.yul\":13712:13831   */\n    tag_649:\n        /* \"#utility.yul\":13870:13871   */\n      0x00\n        /* \"#utility.yul\":13895:13956   */\n      tag_651\n        /* \"#utility.yul\":13948:13955   */\n      dup5\n        /* \"#utility.yul\":13939:13945   */\n      dup3\n        /* \"#utility.yul\":13928:13937   */\n      dup6\n        /* \"#utility.yul\":13924:13946   */\n      add\n        /* \"#utility.yul\":13895:13956   */\n      tag_464\n      jump\t// in\n    tag_651:\n        /* \"#utility.yul\":13885:13956   */\n      swap2\n      pop\n        /* \"#utility.yul\":13841:13966   */\n      pop\n        /* \"#utility.yul\":13628:13973   */\n      swap3\n      swap2\n      pop\n      pop\n      jump\t// out\n        /* \"#utility.yul\":13979:14520   */\n    tag_150:\n        /* \"#utility.yul\":14152:14156   */\n      0x00\n        /* \"#utility.yul\":14190:14192   */\n      0x60\n        /* \"#utility.yul\":14179:14188   */\n      dup3\n        /* \"#utility.yul\":14175:14193   */\n      add\n        /* \"#utility.yul\":14167:14193   */\n      swap1\n      pop\n        /* \"#utility.yul\":14203:14272   */\n      tag_653\n        /* \"#utility.yul\":14269:14270   */\n      0x00\n        /* \"#utility.yul\":14258:14267   */\n      dup4\n        /* \"#utility.yul\":14254:14271   */\n      add\n        /* \"#utility.yul\":14245:14251   */\n      dup8\n        /* \"#utility.yul\":14203:14272   */\n      tag_457\n      jump\t// in\n    tag_653:\n        /* \"#utility.yul\":14282:14352   */\n      tag_654\n        /* \"#utility.yul\":14348:14350   */\n      0x20\n        /* \"#utility.yul\":14337:14346   */\n      dup4\n        /* \"#utility.yul\":14333:14351   */\n      add\n        /* \"#utility.yul\":14324:14330   */\n      dup7\n        /* \"#utility.yul\":14282:14352   */\n      tag_457\n      jump\t// in\n    tag_654:\n        /* \"#utility.yul\":14399:14408   */\n      dup2\n        /* \"#utility.yul\":14393:14397   */\n      dup2\n        /* \"#utility.yul\":14389:14409   */\n      sub\n        /* \"#utility.yul\":14384:14386   */\n      0x40\n        /* \"#utility.yul\":14373:14382   */\n      dup4\n        /* \"#utility.yul\":14369:14387   */\n      add\n        /* \"#utility.yul\":14362:14410   */\n      mstore\n        /* \"#utility.yul\":14427:14513   */\n      tag_655\n        /* \"#utility.yul\":14508:14512   */\n      dup2\n        /* \"#utility.yul\":14499:14505   */\n      dup5\n        /* \"#utility.yul\":14491:14497   */\n      dup7\n        /* \"#utility.yul\":14427:14513   */\n      tag_463\n      jump\t// in\n    tag_655:\n        /* \"#utility.yul\":14419:14513   */\n      swap1\n      pop\n        /* \"#utility.yul\":13979:14520   */\n      swap6\n      swap5\n      pop\n      pop\n      pop\n      pop\n      pop\n      jump\t// out\n        /* \"#utility.yul\":14526:15174   */\n    tag_172:\n        /* \"#utility.yul\":14723:14727   */\n      0x00\n        /* \"#utility.yul\":14761:14764   */\n      0xa0\n        /* \"#utility.yul\":14750:14759   */\n      dup3\n        /* \"#utility.yul\":14746:14765   */\n      add\n        /* \"#utility.yul\":14738:14765   */\n      swap1\n      pop\n        /* \"#utility.yul\":14775:14844   */\n      tag_657\n        /* \"#utility.yul\":14841:14842   */\n      0x00\n        /* \"#utility.yul\":14830:14839   */\n      dup4\n        /* \"#utility.yul\":14826:14843   */\n      add\n        /* \"#utility.yul\":14817:14823   */\n      dup9\n        /* \"#utility.yul\":14775:14844   */\n      tag_457\n      jump\t// in\n    tag_657:\n        /* \"#utility.yul\":14854:14924   */\n      tag_658\n        /* \"#utility.yul\":14920:14922   */\n      0x20\n        /* \"#utility.yul\":14909:14918   */\n      dup4\n        /* \"#utility.yul\":14905:14923   */\n      add\n        /* \"#utility.yul\":14896:14902   */\n      dup8\n        /* \"#utility.yul\":14854:14924   */\n      tag_457\n      jump\t// in\n    tag_658:\n        /* \"#utility.yul\":14934:15006   */\n      tag_659\n        /* \"#utility.yul\":15002:15004   */\n      0x40\n        /* \"#utility.yul\":14991:15000   */\n      dup4\n        /* \"#utility.yul\":14987:15005   */\n      add\n        /* \"#utility.yul\":14978:14984   */\n      dup7\n        /* \"#utility.yul\":14934:15006   */\n      tag_427\n      jump\t// in\n    tag_659:\n        /* \"#utility.yul\":15016:15088   */\n      tag_660\n        /* \"#utility.yul\":15084:15086   */\n      0x60\n        /* \"#utility.yul\":15073:15082   */\n      dup4\n        /* \"#utility.yul\":15069:15087   */\n      add\n        /* \"#utility.yul\":15060:15066   */\n      dup6\n        /* \"#utility.yul\":15016:15088   */\n      tag_426\n      jump\t// in\n    tag_660:\n        /* \"#utility.yul\":15098:15167   */\n      tag_661\n        /* \"#utility.yul\":15162:15165   */\n      0x80\n        /* \"#utility.yul\":15151:15160   */\n      dup4\n        /* \"#utility.yul\":15147:15166   */\n      add\n        /* \"#utility.yul\":15138:15144   */\n      dup5\n        /* \"#utility.yul\":15098:15167   */\n      tag_429\n      jump\t// in\n    tag_661:\n        /* \"#utility.yul\":14526:15174   */\n      swap7\n      swap6\n      pop\n      pop\n      pop\n      pop\n      pop\n      pop\n      jump\t// out\n        /* \"#utility.yul\":15180:15360   */\n    tag_344:\n        /* \"#utility.yul\":15228:15305   */\n      0x4e487b7100000000000000000000000000000000000000000000000000000000\n        /* \"#utility.yul\":15225:15226   */\n      0x00\n        /* \"#utility.yul\":15218:15306   */\n      mstore\n        /* \"#utility.yul\":15325:15329   */\n      0x12\n        /* \"#utility.yul\":15322:15323   */\n      0x04\n        /* \"#utility.yul\":15315:15330   */\n      mstore\n        /* \"#utility.yul\":15349:15353   */\n      0x24\n        /* \"#utility.yul\":15346:15347   */\n      0x00\n        /* \"#utility.yul\":15339:15354   */\n      revert\n        /* \"#utility.yul\":15366:15537   */\n    tag_178:\n        /* \"#utility.yul\":15396:15397   */\n      0x00\n        /* \"#utility.yul\":15413:15431   */\n      tag_664\n        /* \"#utility.yul\":15429:15430   */\n      dup3\n        /* \"#utility.yul\":15413:15431   */\n      tag_428\n      jump\t// in\n    tag_664:\n        /* \"#utility.yul\":15408:15431   */\n      swap2\n      pop\n        /* \"#utility.yul\":15445:15463   */\n      tag_665\n        /* \"#utility.yul\":15461:15462   */\n      dup4\n        /* \"#utility.yul\":15445:15463   */\n      tag_428\n      jump\t// in\n    tag_665:\n        /* \"#utility.yul\":15440:15463   */\n      swap3\n      pop\n        /* \"#utility.yul\":15482:15483   */\n      dup3\n        /* \"#utility.yul\":15472:15507   */\n      tag_666\n      jumpi\n        /* \"#utility.yul\":15487:15505   */\n      tag_667\n      tag_344\n      jump\t// in\n    tag_667:\n        /* \"#utility.yul\":15472:15507   */\n    tag_666:\n        /* \"#utility.yul\":15529:15530   */\n      dup3\n        /* \"#utility.yul\":15526:15527   */\n      dup3\n        /* \"#utility.yul\":15521:15531   */\n      smod\n        /* \"#utility.yul\":15516:15531   */\n      swap1\n      pop\n        /* \"#utility.yul\":15366:15537   */\n      swap3\n      swap2\n      pop\n      pop\n      jump\t// out\n        /* \"#utility.yul\":15543:15925   */\n    tag_182:\n        /* \"#utility.yul\":15581:15582   */\n      0x00\n        /* \"#utility.yul\":15598:15616   */\n      tag_669\n        /* \"#utility.yul\":15614:15615   */\n      dup3\n        /* \"#utility.yul\":15598:15616   */\n      tag_428\n      jump\t// in\n    tag_669:\n        /* \"#utility.yul\":15593:15616   */\n      swap2\n      pop\n        /* \"#utility.yul\":15630:15648   */\n      tag_670\n        /* \"#utility.yul\":15646:15647   */\n      dup4\n        /* \"#utility.yul\":15630:15648   */\n      tag_428\n      jump\t// in\n    tag_670:\n        /* \"#utility.yul\":15625:15648   */\n      swap3\n      pop\n        /* \"#utility.yul\":15667:15668   */\n      dup3\n        /* \"#utility.yul\":15657:15692   */\n      tag_671\n      jumpi\n        /* \"#utility.yul\":15672:15690   */\n      tag_672\n      tag_344\n      jump\t// in\n    tag_672:\n        /* \"#utility.yul\":15657:15692   */\n    tag_671:\n        /* \"#utility.yul\":15858:15859   */\n      0x01\n        /* \"#utility.yul\":15855:15856   */\n      0x00\n        /* \"#utility.yul\":15851:15860   */\n      sub\n        /* \"#utility.yul\":15848:15849   */\n      dup4\n        /* \"#utility.yul\":15845:15861   */\n      eq\n        /* \"#utility.yul\":15764:15830   */\n      0xffffffffffffffffffffffffffffffffffffffffffffffffffffffffff800000\n        /* \"#utility.yul\":15761:15762   */\n      dup4\n        /* \"#utility.yul\":15758:15831   */\n      eq\n        /* \"#utility.yul\":15741:15871   */\n      and\n        /* \"#utility.yul\":15738:15894   */\n      iszero\n      tag_673\n      jumpi\n        /* \"#utility.yul\":15874:15892   */\n      tag_674\n      tag_459\n      jump\t// in\n    tag_674:\n        /* \"#utility.yul\":15738:15894   */\n    tag_673:\n        /* \"#utility.yul\":15917:15918   */\n      dup3\n        /* \"#utility.yul\":15914:15915   */\n      dup3\n        /* \"#utility.yul\":15909:15919   */\n      sdiv\n        /* \"#utility.yul\":15904:15919   */\n      swap1\n      pop\n        /* \"#utility.yul\":15543:15925   */\n      swap3\n      swap2\n      pop\n      pop\n      jump\t// out\n        /* \"#utility.yul\":15931:16025   */\n    tag_465:\n        /* \"#utility.yul\":15964:15972   */\n      0x00\n        /* \"#utility.yul\":16012:16017   */\n      dup2\n        /* \"#utility.yul\":16008:16010   */\n      0x60\n        /* \"#utility.yul\":16004:16018   */\n      shl\n        /* \"#utility.yul\":15983:16018   */\n      swap1\n      pop\n        /* \"#utility.yul\":15931:16025   */\n      swap2\n      swap1\n      pop\n      jump\t// out\n        /* \"#utility.yul\":16031:16125   */\n    tag_466:\n        /* \"#utility.yul\":16070:16077   */\n      0x00\n        /* \"#utility.yul\":16099:16119   */\n      tag_677\n        /* \"#utility.yul\":16113:16118   */\n      dup3\n        /* \"#utility.yul\":16099:16119   */\n      tag_465\n      jump\t// in\n    tag_677:\n        /* \"#utility.yul\":16088:16119   */\n      swap1\n      pop\n        /* \"#utility.yul\":16031:16125   */\n      swap2\n      swap1\n      pop\n      jump\t// out\n        /* \"#utility.yul\":16131:16231   */\n    tag_467:\n        /* \"#utility.yul\":16170:16177   */\n      0x00\n        /* \"#utility.yul\":16199:16225   */\n      tag_679\n        /* \"#utility.yul\":16219:16224   */\n      dup3\n        /* \"#utility.yul\":16199:16225   */\n      tag_466\n      jump\t// in\n    tag_679:\n        /* \"#utility.yul\":16188:16225   */\n      swap1\n      pop\n        /* \"#utility.yul\":16131:16231   */\n      swap2\n      swap1\n      pop\n      jump\t// out\n        /* \"#utility.yul\":16237:16394   */\n    tag_468:\n        /* \"#utility.yul\":16342:16387   */\n      tag_681\n        /* \"#utility.yul\":16362:16386   */\n      tag_682\n        /* \"#utility.yul\":16380:16385   */\n      dup3\n        /* \"#utility.yul\":16362:16386   */\n      tag_423\n      jump\t// in\n    tag_682:\n        /* \"#utility.yul\":16342:16387   */\n      tag_467\n      jump\t// in\n    tag_681:\n        /* \"#utility.yul\":16337:16340   */\n      dup3\n        /* \"#utility.yul\":16330:16388   */\n      mstore\n        /* \"#utility.yul\":16237:16394   */\n      pop\n      pop\n      jump\t// out\n        /* \"#utility.yul\":16400:16496   */\n    tag_469:\n        /* \"#utility.yul\":16434:16442   */\n      0x00\n        /* \"#utility.yul\":16483:16488   */\n      dup2\n        /* \"#utility.yul\":16478:16481   */\n      0xe8\n        /* \"#utility.yul\":16474:16489   */\n      shl\n        /* \"#utility.yul\":16453:16489   */\n      swap1\n      pop\n        /* \"#utility.yul\":16400:16496   */\n      swap2\n      swap1\n      pop\n      jump\t// out\n        /* \"#utility.yul\":16502:16595   */\n    tag_470:\n        /* \"#utility.yul\":16539:16546   */\n      0x00\n        /* \"#utility.yul\":16568:16589   */\n      tag_685\n        /* \"#utility.yul\":16583:16588   */\n      dup3\n        /* \"#utility.yul\":16568:16589   */\n      tag_469\n      jump\t// in\n    tag_685:\n        /* \"#utility.yul\":16557:16589   */\n      swap1\n      pop\n        /* \"#utility.yul\":16502:16595   */\n      swap2\n      swap1\n      pop\n      jump\t// out\n        /* \"#utility.yul\":16601:16750   */\n    tag_471:\n        /* \"#utility.yul\":16702:16743   */\n      tag_687\n        /* \"#utility.yul\":16720:16742   */\n      tag_688\n        /* \"#utility.yul\":16736:16741   */\n      dup3\n        /* \"#utility.yul\":16720:16742   */\n      tag_428\n      jump\t// in\n    tag_688:\n        /* \"#utility.yul\":16702:16743   */\n      tag_470\n      jump\t// in\n    tag_687:\n        /* \"#utility.yul\":16697:16700   */\n      dup3\n        /* \"#utility.yul\":16690:16744   */\n      mstore\n        /* \"#utility.yul\":16601:16750   */\n      pop\n      pop\n      jump\t// out\n        /* \"#utility.yul\":16756:17276   */\n    tag_186:\n        /* \"#utility.yul\":16916:16919   */\n      0x00\n        /* \"#utility.yul\":16931:17006   */\n      tag_690\n        /* \"#utility.yul\":17002:17005   */\n      dup3\n        /* \"#utility.yul\":16993:16999   */\n      dup7\n        /* \"#utility.yul\":16931:17006   */\n      tag_468\n      jump\t// in\n    tag_690:\n        /* \"#utility.yul\":17031:17033   */\n      0x14\n        /* \"#utility.yul\":17026:17029   */\n      dup3\n        /* \"#utility.yul\":17022:17034   */\n      add\n        /* \"#utility.yul\":17015:17034   */\n      swap2\n      pop\n        /* \"#utility.yul\":17044:17115   */\n      tag_691\n        /* \"#utility.yul\":17111:17114   */\n      dup3\n        /* \"#utility.yul\":17102:17108   */\n      dup6\n        /* \"#utility.yul\":17044:17115   */\n      tag_471\n      jump\t// in\n    tag_691:\n        /* \"#utility.yul\":17140:17141   */\n      0x03\n        /* \"#utility.yul\":17135:17138   */\n      dup3\n        /* \"#utility.yul\":17131:17142   */\n      add\n        /* \"#utility.yul\":17124:17142   */\n      swap2\n      pop\n        /* \"#utility.yul\":17152:17223   */\n      tag_692\n        /* \"#utility.yul\":17219:17222   */\n      dup3\n        /* \"#utility.yul\":17210:17216   */\n      dup5\n        /* \"#utility.yul\":17152:17223   */\n      tag_471\n      jump\t// in\n    tag_692:\n        /* \"#utility.yul\":17248:17249   */\n      0x03\n        /* \"#utility.yul\":17243:17246   */\n      dup3\n        /* \"#utility.yul\":17239:17250   */\n      add\n        /* \"#utility.yul\":17232:17250   */\n      swap2\n      pop\n        /* \"#utility.yul\":17267:17270   */\n      dup2\n        /* \"#utility.yul\":17260:17270   */\n      swap1\n      pop\n        /* \"#utility.yul\":16756:17276   */\n      swap5\n      swap4\n      pop\n      pop\n      pop\n      pop\n      jump\t// out\n        /* \"#utility.yul\":17282:17451   */\n    tag_472:\n        /* \"#utility.yul\":17366:17377   */\n      0x00\n        /* \"#utility.yul\":17400:17406   */\n      dup3\n        /* \"#utility.yul\":17395:17398   */\n      dup3\n        /* \"#utility.yul\":17388:17407   */\n      mstore\n        /* \"#utility.yul\":17440:17444   */\n      0x20\n        /* \"#utility.yul\":17435:17438   */\n      dup3\n        /* \"#utility.yul\":17431:17445   */\n      add\n        /* \"#utility.yul\":17416:17445   */\n      swap1\n      pop\n        /* \"#utility.yul\":17282:17451   */\n      swap3\n      swap2\n      pop\n      pop\n      jump\t// out\n        /* \"#utility.yul\":17457:17608   */\n    tag_473:\n        /* \"#utility.yul\":17597:17600   */\n      0x5400000000000000000000000000000000000000000000000000000000000000\n        /* \"#utility.yul\":17593:17594   */\n      0x00\n        /* \"#utility.yul\":17585:17591   */\n      dup3\n        /* \"#utility.yul\":17581:17595   */\n      add\n        /* \"#utility.yul\":17574:17601   */\n      mstore\n        /* \"#utility.yul\":17457:17608   */\n      pop\n      jump\t// out\n        /* \"#utility.yul\":17614:17979   */\n    tag_474:\n        /* \"#utility.yul\":17756:17759   */\n      0x00\n        /* \"#utility.yul\":17777:17843   */\n      tag_696\n        /* \"#utility.yul\":17841:17842   */\n      0x01\n        /* \"#utility.yul\":17836:17839   */\n      dup4\n        /* \"#utility.yul\":17777:17843   */\n      tag_472\n      jump\t// in\n    tag_696:\n        /* \"#utility.yul\":17770:17843   */\n      swap2\n      pop\n        /* \"#utility.yul\":17852:17945   */\n      tag_697\n        /* \"#utility.yul\":17941:17944   */\n      dup3\n        /* \"#utility.yul\":17852:17945   */\n      tag_473\n      jump\t// in\n    tag_697:\n        /* \"#utility.yul\":17970:17972   */\n      0x20\n        /* \"#utility.yul\":17965:17968   */\n      dup3\n        /* \"#utility.yul\":17961:17973   */\n      add\n        /* \"#utility.yul\":17954:17973   */\n      swap1\n      pop\n        /* \"#utility.yul\":17614:17979   */\n      swap2\n      swap1\n      pop\n      jump\t// out\n        /* \"#utility.yul\":17985:18404   */\n    tag_196:\n        /* \"#utility.yul\":18151:18155   */\n      0x00\n        /* \"#utility.yul\":18189:18191   */\n      0x20\n        /* \"#utility.yul\":18178:18187   */\n      dup3\n        /* \"#utility.yul\":18174:18192   */\n      add\n        /* \"#utility.yul\":18166:18192   */\n      swap1\n      pop\n        /* \"#utility.yul\":18238:18247   */\n      dup2\n        /* \"#utility.yul\":18232:18236   */\n      dup2\n        /* \"#utility.yul\":18228:18248   */\n      sub\n        /* \"#utility.yul\":18224:18225   */\n      0x00\n        /* \"#utility.yul\":18213:18222   */\n      dup4\n        /* \"#utility.yul\":18209:18226   */\n      add\n        /* \"#utility.yul\":18202:18249   */\n      mstore\n        /* \"#utility.yul\":18266:18397   */\n      tag_699\n        /* \"#utility.yul\":18392:18396   */\n      dup2\n        /* \"#utility.yul\":18266:18397   */\n      tag_474\n      jump\t// in\n    tag_699:\n        /* \"#utility.yul\":18258:18397   */\n      swap1\n      pop\n        /* \"#utility.yul\":17985:18404   */\n      swap2\n      swap1\n      pop\n      jump\t// out\n        /* \"#utility.yul\":18410:18820   */\n    tag_201:\n        /* \"#utility.yul\":18450:18457   */\n      0x00\n        /* \"#utility.yul\":18473:18493   */\n      tag_701\n        /* \"#utility.yul\":18491:18492   */\n      dup3\n        /* \"#utility.yul\":18473:18493   */\n      tag_443\n      jump\t// in\n    tag_701:\n        /* \"#utility.yul\":18468:18493   */\n      swap2\n      pop\n        /* \"#utility.yul\":18507:18527   */\n      tag_702\n        /* \"#utility.yul\":18525:18526   */\n      dup4\n        /* \"#utility.yul\":18507:18527   */\n      tag_443\n      jump\t// in\n    tag_702:\n        /* \"#utility.yul\":18502:18527   */\n      swap3\n      pop\n        /* \"#utility.yul\":18562:18563   */\n      dup3\n        /* \"#utility.yul\":18559:18560   */\n      dup3\n        /* \"#utility.yul\":18555:18564   */\n      mul\n        /* \"#utility.yul\":18584:18614   */\n      tag_703\n        /* \"#utility.yul\":18602:18613   */\n      dup2\n        /* \"#utility.yul\":18584:18614   */\n      tag_443\n      jump\t// in\n    tag_703:\n        /* \"#utility.yul\":18573:18614   */\n      swap2\n      pop\n        /* \"#utility.yul\":18763:18764   */\n      dup3\n        /* \"#utility.yul\":18754:18761   */\n      dup3\n        /* \"#utility.yul\":18750:18765   */\n      div\n        /* \"#utility.yul\":18747:18748   */\n      dup5\n        /* \"#utility.yul\":18744:18766   */\n      eq\n        /* \"#utility.yul\":18724:18725   */\n      dup4\n        /* \"#utility.yul\":18717:18726   */\n      iszero\n        /* \"#utility.yul\":18697:18780   */\n      or\n        /* \"#utility.yul\":18674:18813   */\n      tag_704\n      jumpi\n        /* \"#utility.yul\":18793:18811   */\n      tag_705\n      tag_459\n      jump\t// in\n    tag_705:\n        /* \"#utility.yul\":18674:18813   */\n    tag_704:\n        /* \"#utility.yul\":18458:18820   */\n      pop\n        /* \"#utility.yul\":18410:18820   */\n      swap3\n      swap2\n      pop\n      pop\n      jump\t// out\n        /* \"#utility.yul\":18826:19011   */\n    tag_240:\n        /* \"#utility.yul\":18866:18867   */\n      0x00\n        /* \"#utility.yul\":18883:18903   */\n      tag_707\n        /* \"#utility.yul\":18901:18902   */\n      dup3\n        /* \"#utility.yul\":18883:18903   */\n      tag_443\n      jump\t// in\n    tag_707:\n        /* \"#utility.yul\":18878:18903   */\n      swap2\n      pop\n        /* \"#utility.yul\":18917:18937   */\n      tag_708\n        /* \"#utility.yul\":18935:18936   */\n      dup4\n        /* \"#utility.yul\":18917:18937   */\n      tag_443\n      jump\t// in\n    tag_708:\n        /* \"#utility.yul\":18912:18937   */\n      swap3\n      pop\n        /* \"#utility.yul\":18956:18957   */\n      dup3\n        /* \"#utility.yul\":18946:18981   */\n      tag_709\n      jumpi\n        /* \"#utility.yul\":18961:18979   */\n      tag_710\n      tag_344\n      jump\t// in\n    tag_710:\n        /* \"#utility.yul\":18946:18981   */\n    tag_709:\n        /* \"#utility.yul\":19003:19004   */\n      dup3\n        /* \"#utility.yul\":19000:19001   */\n      dup3\n        /* \"#utility.yul\":18996:19005   */\n      div\n        /* \"#utility.yul\":18991:19005   */\n      swap1\n      pop\n        /* \"#utility.yul\":18826:19011   */\n      swap3\n      swap2\n      pop\n      pop\n      jump\t// out\n        /* \"#utility.yul\":19017:19193   */\n    tag_242:\n        /* \"#utility.yul\":19049:19050   */\n      0x00\n        /* \"#utility.yul\":19066:19086   */\n      tag_712\n        /* \"#utility.yul\":19084:19085   */\n      dup3\n        /* \"#utility.yul\":19066:19086   */\n      tag_443\n      jump\t// in\n    tag_712:\n        /* \"#utility.yul\":19061:19086   */\n      swap2\n      pop\n        /* \"#utility.yul\":19100:19120   */\n      tag_713\n        /* \"#utility.yul\":19118:19119   */\n      dup4\n        /* \"#utility.yul\":19100:19120   */\n      tag_443\n      jump\t// in\n    tag_713:\n        /* \"#utility.yul\":19095:19120   */\n      swap3\n      pop\n        /* \"#utility.yul\":19139:19140   */\n      dup3\n        /* \"#utility.yul\":19129:19164   */\n      tag_714\n      jumpi\n        /* \"#utility.yul\":19144:19162   */\n      tag_715\n      tag_344\n      jump\t// in\n    tag_715:\n        /* \"#utility.yul\":19129:19164   */\n    tag_714:\n        /* \"#utility.yul\":19185:19186   */\n      dup3\n        /* \"#utility.yul\":19182:19183   */\n      dup3\n        /* \"#utility.yul\":19178:19187   */\n      mod\n        /* \"#utility.yul\":19173:19187   */\n      swap1\n      pop\n        /* \"#utility.yul\":19017:19193   */\n      swap3\n      swap2\n      pop\n      pop\n      jump\t// out\n        /* \"#utility.yul\":19199:19434   */\n    tag_252:\n        /* \"#utility.yul\":19239:19243   */\n      0x00\n        /* \"#utility.yul\":19259:19279   */\n      tag_717\n        /* \"#utility.yul\":19277:19278   */\n      dup3\n        /* \"#utility.yul\":19259:19279   */\n      tag_422\n      jump\t// in\n    tag_717:\n        /* \"#utility.yul\":19254:19279   */\n      swap2\n      pop\n        /* \"#utility.yul\":19293:19313   */\n      tag_718\n        /* \"#utility.yul\":19311:19312   */\n      dup4\n        /* \"#utility.yul\":19293:19313   */\n      tag_422\n      jump\t// in\n    tag_718:\n        /* \"#utility.yul\":19288:19313   */\n      swap3\n      pop\n        /* \"#utility.yul\":19337:19338   */\n      dup3\n        /* \"#utility.yul\":19334:19335   */\n      dup3\n        /* \"#utility.yul\":19330:19339   */\n      sub\n        /* \"#utility.yul\":19322:19339   */\n      swap1\n      pop\n        /* \"#utility.yul\":19361:19403   */\n      0xffffffffffffffffffffffffffffffffffffffff\n        /* \"#utility.yul\":19355:19359   */\n      dup2\n        /* \"#utility.yul\":19352:19404   */\n      gt\n        /* \"#utility.yul\":19349:19427   */\n      iszero\n      tag_719\n      jumpi\n        /* \"#utility.yul\":19407:19425   */\n      tag_720\n      tag_459\n      jump\t// in\n    tag_720:\n        /* \"#utility.yul\":19349:19427   */\n    tag_719:\n        /* \"#utility.yul\":19199:19434   */\n      swap3\n      swap2\n      pop\n      pop\n      jump\t// out\n        /* \"#utility.yul\":19440:19583   */\n    tag_475:\n        /* \"#utility.yul\":19497:19502   */\n      0x00\n        /* \"#utility.yul\":19528:19534   */\n      dup2\n        /* \"#utility.yul\":19522:19535   */\n      mload\n        /* \"#utility.yul\":19513:19535   */\n      swap1\n      pop\n        /* \"#utility.yul\":19544:19577   */\n      tag_722\n        /* \"#utility.yul\":19571:19576   */\n      dup2\n        /* \"#utility.yul\":19544:19577   */\n      tag_454\n      jump\t// in\n    tag_722:\n        /* \"#utility.yul\":19440:19583   */\n      swap3\n      swap2\n      pop\n      pop\n      jump\t// out\n        /* \"#utility.yul\":19589:19940   */\n    tag_264:\n        /* \"#utility.yul\":19659:19665   */\n      0x00\n        /* \"#utility.yul\":19708:19710   */\n      0x20\n        /* \"#utility.yul\":19696:19705   */\n      dup3\n        /* \"#utility.yul\":19687:19694   */\n      dup5\n        /* \"#utility.yul\":19683:19706   */\n      sub\n        /* \"#utility.yul\":19679:19711   */\n      slt\n        /* \"#utility.yul\":19676:19795   */\n      iszero\n      tag_724\n      jumpi\n        /* \"#utility.yul\":19714:19793   */\n      tag_725\n      tag_431\n      jump\t// in\n    tag_725:\n        /* \"#utility.yul\":19676:19795   */\n    tag_724:\n        /* \"#utility.yul\":19834:19835   */\n      0x00\n        /* \"#utility.yul\":19859:19923   */\n      tag_726\n        /* \"#utility.yul\":19915:19922   */\n      dup5\n        /* \"#utility.yul\":19906:19912   */\n      dup3\n        /* \"#utility.yul\":19895:19904   */\n      dup6\n        /* \"#utility.yul\":19891:19913   */\n      add\n        /* \"#utility.yul\":19859:19923   */\n      tag_475\n      jump\t// in\n    tag_726:\n        /* \"#utility.yul\":19849:19923   */\n      swap2\n      pop\n        /* \"#utility.yul\":19805:19933   */\n      pop\n        /* \"#utility.yul\":19589:19940   */\n      swap3\n      swap2\n      pop\n      pop\n      jump\t// out\n        /* \"#utility.yul\":19946:20175   */\n    tag_276:\n        /* \"#utility.yul\":19983:19986   */\n      0x00\n        /* \"#utility.yul\":20006:20028   */\n      tag_728\n        /* \"#utility.yul\":20022:20027   */\n      dup3\n        /* \"#utility.yul\":20006:20028   */\n      tag_428\n      jump\t// in\n    tag_728:\n        /* \"#utility.yul\":19997:20028   */\n      swap2\n      pop\n        /* \"#utility.yul\":20050:20116   */\n      0xffffffffffffffffffffffffffffffffffffffffffffffffffffffffff800000\n        /* \"#utility.yul\":20043:20048   */\n      dup3\n        /* \"#utility.yul\":20040:20117   */\n      sub\n        /* \"#utility.yul\":20037:20140   */\n      tag_729\n      jumpi\n        /* \"#utility.yul\":20120:20138   */\n      tag_730\n      tag_459\n      jump\t// in\n    tag_730:\n        /* \"#utility.yul\":20037:20140   */\n    tag_729:\n        /* \"#utility.yul\":20167:20168   */\n      0x01\n        /* \"#utility.yul\":20160:20165   */\n      dup3\n        /* \"#utility.yul\":20156:20169   */\n      sub\n        /* \"#utility.yul\":20149:20169   */\n      swap1\n      pop\n        /* \"#utility.yul\":19946:20175   */\n      swap2\n      swap1\n      pop\n      jump\t// out\n        /* \"#utility.yul\":20181:20494   */\n    tag_283:\n        /* \"#utility.yul\":20219:20223   */\n      0x00\n        /* \"#utility.yul\":20239:20257   */\n      tag_732\n        /* \"#utility.yul\":20255:20256   */\n      dup3\n        /* \"#utility.yul\":20239:20257   */\n      tag_428\n      jump\t// in\n    tag_732:\n        /* \"#utility.yul\":20234:20257   */\n      swap2\n      pop\n        /* \"#utility.yul\":20271:20289   */\n      tag_733\n        /* \"#utility.yul\":20287:20288   */\n      dup4\n        /* \"#utility.yul\":20271:20289   */\n      tag_428\n      jump\t// in\n    tag_733:\n        /* \"#utility.yul\":20266:20289   */\n      swap3\n      pop\n        /* \"#utility.yul\":20313:20314   */\n      dup3\n        /* \"#utility.yul\":20310:20311   */\n      dup3\n        /* \"#utility.yul\":20306:20315   */\n      sub\n        /* \"#utility.yul\":20298:20315   */\n      swap1\n      pop\n        /* \"#utility.yul\":20445:20453   */\n      0x7fffff\n        /* \"#utility.yul\":20439:20443   */\n      dup2\n        /* \"#utility.yul\":20435:20454   */\n      sgt\n        /* \"#utility.yul\":20354:20420   */\n      0xffffffffffffffffffffffffffffffffffffffffffffffffffffffffff800000\n        /* \"#utility.yul\":20348:20352   */\n      dup3\n        /* \"#utility.yul\":20344:20421   */\n      slt\n        /* \"#utility.yul\":20328:20464   */\n      or\n        /* \"#utility.yul\":20325:20487   */\n      iszero\n      tag_734\n      jumpi\n        /* \"#utility.yul\":20467:20485   */\n      tag_735\n      tag_459\n      jump\t// in\n    tag_735:\n        /* \"#utility.yul\":20325:20487   */\n    tag_734:\n        /* \"#utility.yul\":20181:20494   */\n      swap3\n      swap2\n      pop\n      pop\n      jump\t// out\n        /* \"#utility.yul\":20500:20771   */\n    tag_285:\n        /* \"#utility.yul\":20538:20545   */\n      0x00\n        /* \"#utility.yul\":20561:20579   */\n      tag_737\n        /* \"#utility.yul\":20577:20578   */\n      dup3\n        /* \"#utility.yul\":20561:20579   */\n      tag_428\n      jump\t// in\n    tag_737:\n        /* \"#utility.yul\":20556:20579   */\n      swap2\n      pop\n        /* \"#utility.yul\":20593:20611   */\n      tag_738\n        /* \"#utility.yul\":20609:20610   */\n      dup4\n        /* \"#utility.yul\":20593:20611   */\n      tag_428\n      jump\t// in\n    tag_738:\n        /* \"#utility.yul\":20588:20611   */\n      swap3\n      pop\n        /* \"#utility.yul\":20646:20647   */\n      dup3\n        /* \"#utility.yul\":20643:20644   */\n      dup3\n        /* \"#utility.yul\":20639:20648   */\n      mul\n        /* \"#utility.yul\":20668:20696   */\n      tag_739\n        /* \"#utility.yul\":20684:20695   */\n      dup2\n        /* \"#utility.yul\":20668:20696   */\n      tag_428\n      jump\t// in\n    tag_739:\n        /* \"#utility.yul\":20657:20696   */\n      swap2\n      pop\n        /* \"#utility.yul\":20728:20739   */\n      dup1\n        /* \"#utility.yul\":20719:20726   */\n      dup3\n        /* \"#utility.yul\":20716:20740   */\n      eq\n        /* \"#utility.yul\":20706:20764   */\n      tag_740\n      jumpi\n        /* \"#utility.yul\":20744:20762   */\n      tag_741\n      tag_459\n      jump\t// in\n    tag_741:\n        /* \"#utility.yul\":20706:20764   */\n    tag_740:\n        /* \"#utility.yul\":20546:20771   */\n      pop\n        /* \"#utility.yul\":20500:20771   */\n      swap3\n      swap2\n      pop\n      pop\n      jump\t// out\n        /* \"#utility.yul\":20777:20863   */\n    tag_476:\n        /* \"#utility.yul\":20812:20819   */\n      0x00\n        /* \"#utility.yul\":20852:20856   */\n      0xff\n        /* \"#utility.yul\":20845:20850   */\n      dup3\n        /* \"#utility.yul\":20841:20857   */\n      and\n        /* \"#utility.yul\":20830:20857   */\n      swap1\n      pop\n        /* \"#utility.yul\":20777:20863   */\n      swap2\n      swap1\n      pop\n      jump\t// out\n        /* \"#utility.yul\":20869:21060   */\n    tag_290:\n        /* \"#utility.yul\":20907:20911   */\n      0x00\n        /* \"#utility.yul\":20927:20945   */\n      tag_744\n        /* \"#utility.yul\":20943:20944   */\n      dup3\n        /* \"#utility.yul\":20927:20945   */\n      tag_476\n      jump\t// in\n    tag_744:\n        /* \"#utility.yul\":20922:20945   */\n      swap2\n      pop\n        /* \"#utility.yul\":20959:20977   */\n      tag_745\n        /* \"#utility.yul\":20975:20976   */\n      dup4\n        /* \"#utility.yul\":20959:20977   */\n      tag_476\n      jump\t// in\n    tag_745:\n        /* \"#utility.yul\":20954:20977   */\n      swap3\n      pop\n        /* \"#utility.yul\":21001:21002   */\n      dup3\n        /* \"#utility.yul\":20998:20999   */\n      dup3\n        /* \"#utility.yul\":20994:21003   */\n      sub\n        /* \"#utility.yul\":20986:21003   */\n      swap1\n      pop\n        /* \"#utility.yul\":21025:21029   */\n      0xff\n        /* \"#utility.yul\":21019:21023   */\n      dup2\n        /* \"#utility.yul\":21016:21030   */\n      gt\n        /* \"#utility.yul\":21013:21053   */\n      iszero\n      tag_746\n      jumpi\n        /* \"#utility.yul\":21033:21051   */\n      tag_747\n      tag_459\n      jump\t// in\n    tag_747:\n        /* \"#utility.yul\":21013:21053   */\n    tag_746:\n        /* \"#utility.yul\":20869:21060   */\n      swap3\n      swap2\n      pop\n      pop\n      jump\t// out\n        /* \"#utility.yul\":21066:21375   */\n    tag_296:\n        /* \"#utility.yul\":21104:21107   */\n      0x00\n        /* \"#utility.yul\":21123:21141   */\n      tag_749\n        /* \"#utility.yul\":21139:21140   */\n      dup3\n        /* \"#utility.yul\":21123:21141   */\n      tag_428\n      jump\t// in\n    tag_749:\n        /* \"#utility.yul\":21118:21141   */\n      swap2\n      pop\n        /* \"#utility.yul\":21155:21173   */\n      tag_750\n        /* \"#utility.yul\":21171:21172   */\n      dup4\n        /* \"#utility.yul\":21155:21173   */\n      tag_428\n      jump\t// in\n    tag_750:\n        /* \"#utility.yul\":21150:21173   */\n      swap3\n      pop\n        /* \"#utility.yul\":21196:21197   */\n      dup3\n        /* \"#utility.yul\":21193:21194   */\n      dup3\n        /* \"#utility.yul\":21189:21198   */\n      add\n        /* \"#utility.yul\":21182:21198   */\n      swap1\n      pop\n        /* \"#utility.yul\":21268:21334   */\n      0xffffffffffffffffffffffffffffffffffffffffffffffffffffffffff800000\n        /* \"#utility.yul\":21263:21266   */\n      dup2\n        /* \"#utility.yul\":21259:21335   */\n      slt\n        /* \"#utility.yul\":21236:21244   */\n      0x7fffff\n        /* \"#utility.yul\":21231:21234   */\n      dup3\n        /* \"#utility.yul\":21227:21245   */\n      sgt\n        /* \"#utility.yul\":21211:21345   */\n      or\n        /* \"#utility.yul\":21208:21368   */\n      iszero\n      tag_751\n      jumpi\n        /* \"#utility.yul\":21348:21366   */\n      tag_752\n      tag_459\n      jump\t// in\n    tag_752:\n        /* \"#utility.yul\":21208:21368   */\n    tag_751:\n        /* \"#utility.yul\":21066:21375   */\n      swap3\n      swap2\n      pop\n      pop\n      jump\t// out\n        /* \"#utility.yul\":21381:21532   */\n    tag_477:\n        /* \"#utility.yul\":21521:21524   */\n      0x5200000000000000000000000000000000000000000000000000000000000000\n        /* \"#utility.yul\":21517:21518   */\n      0x00\n        /* \"#utility.yul\":21509:21515   */\n      dup3\n        /* \"#utility.yul\":21505:21519   */\n      add\n        /* \"#utility.yul\":21498:21525   */\n      mstore\n        /* \"#utility.yul\":21381:21532   */\n      pop\n      jump\t// out\n        /* \"#utility.yul\":21538:21903   */\n    tag_478:\n        /* \"#utility.yul\":21680:21683   */\n      0x00\n        /* \"#utility.yul\":21701:21767   */\n      tag_755\n        /* \"#utility.yul\":21765:21766   */\n      0x01\n        /* \"#utility.yul\":21760:21763   */\n      dup4\n        /* \"#utility.yul\":21701:21767   */\n      tag_472\n      jump\t// in\n    tag_755:\n        /* \"#utility.yul\":21694:21767   */\n      swap2\n      pop\n        /* \"#utility.yul\":21776:21869   */\n      tag_756\n        /* \"#utility.yul\":21865:21868   */\n      dup3\n        /* \"#utility.yul\":21776:21869   */\n      tag_477\n      jump\t// in\n    tag_756:\n        /* \"#utility.yul\":21894:21896   */\n      0x20\n        /* \"#utility.yul\":21889:21892   */\n      dup3\n        /* \"#utility.yul\":21885:21897   */\n      add\n        /* \"#utility.yul\":21878:21897   */\n      swap1\n      pop\n        /* \"#utility.yul\":21538:21903   */\n      swap2\n      swap1\n      pop\n      jump\t// out\n        /* \"#utility.yul\":21909:22328   */\n    tag_320:\n        /* \"#utility.yul\":22075:22079   */\n      0x00\n        /* \"#utility.yul\":22113:22115   */\n      0x20\n        /* \"#utility.yul\":22102:22111   */\n      dup3\n        /* \"#utility.yul\":22098:22116   */\n      add\n        /* \"#utility.yul\":22090:22116   */\n      swap1\n      pop\n        /* \"#utility.yul\":22162:22171   */\n      dup2\n        /* \"#utility.yul\":22156:22160   */\n      dup2\n        /* \"#utility.yul\":22152:22172   */\n      sub\n        /* \"#utility.yul\":22148:22149   */\n      0x00\n        /* \"#utility.yul\":22137:22146   */\n      dup4\n        /* \"#utility.yul\":22133:22150   */\n      add\n        /* \"#utility.yul\":22126:22173   */\n      mstore\n        /* \"#utility.yul\":22190:22321   */\n      tag_758\n        /* \"#utility.yul\":22316:22320   */\n      dup2\n        /* \"#utility.yul\":22190:22321   */\n      tag_478\n      jump\t// in\n    tag_758:\n        /* \"#utility.yul\":22182:22321   */\n      swap1\n      pop\n        /* \"#utility.yul\":21909:22328   */\n      swap2\n      swap1\n      pop\n      jump\t// out\n        /* \"#utility.yul\":22334:22706   */\n    tag_326:\n        /* \"#utility.yul\":22373:22377   */\n      0x00\n        /* \"#utility.yul\":22393:22412   */\n      tag_760\n        /* \"#utility.yul\":22410:22411   */\n      dup3\n        /* \"#utility.yul\":22393:22412   */\n      tag_456\n      jump\t// in\n    tag_760:\n        /* \"#utility.yul\":22388:22412   */\n      swap2\n      pop\n        /* \"#utility.yul\":22426:22445   */\n      tag_761\n        /* \"#utility.yul\":22443:22444   */\n      dup4\n        /* \"#utility.yul\":22426:22445   */\n      tag_456\n      jump\t// in\n    tag_761:\n        /* \"#utility.yul\":22421:22445   */\n      swap3\n      pop\n        /* \"#utility.yul\":22469:22470   */\n      dup3\n        /* \"#utility.yul\":22466:22467   */\n      dup3\n        /* \"#utility.yul\":22462:22471   */\n      sub\n        /* \"#utility.yul\":22454:22471   */\n      swap1\n      pop\n        /* \"#utility.yul\":22663:22664   */\n      dup2\n        /* \"#utility.yul\":22657:22661   */\n      dup2\n        /* \"#utility.yul\":22653:22665   */\n      slt\n        /* \"#utility.yul\":22649:22650   */\n      0x00\n        /* \"#utility.yul\":22646:22647   */\n      dup5\n        /* \"#utility.yul\":22642:22651   */\n      slt\n        /* \"#utility.yul\":22638:22666   */\n      and\n        /* \"#utility.yul\":22621:22622   */\n      dup3\n        /* \"#utility.yul\":22615:22619   */\n      dup3\n        /* \"#utility.yul\":22611:22623   */\n      sgt\n        /* \"#utility.yul\":22606:22607   */\n      0x00\n        /* \"#utility.yul\":22603:22604   */\n      dup6\n        /* \"#utility.yul\":22599:22608   */\n      slt\n        /* \"#utility.yul\":22592:22609   */\n      iszero\n        /* \"#utility.yul\":22588:22624   */\n      and\n        /* \"#utility.yul\":22572:22676   */\n      or\n        /* \"#utility.yul\":22569:22699   */\n      iszero\n      tag_762\n      jumpi\n        /* \"#utility.yul\":22679:22697   */\n      tag_763\n      tag_459\n      jump\t// in\n    tag_763:\n        /* \"#utility.yul\":22569:22699   */\n    tag_762:\n        /* \"#utility.yul\":22334:22706   */\n      swap3\n      swap2\n      pop\n      pop\n      jump\t// out\n        /* \"#utility.yul\":22712:23268   */\n    tag_328:\n        /* \"#utility.yul\":22751:22758   */\n      0x00\n        /* \"#utility.yul\":22774:22793   */\n      tag_765\n        /* \"#utility.yul\":22791:22792   */\n      dup3\n        /* \"#utility.yul\":22774:22793   */\n      tag_456\n      jump\t// in\n    tag_765:\n        /* \"#utility.yul\":22769:22793   */\n      swap2\n      pop\n        /* \"#utility.yul\":22807:22826   */\n      tag_766\n        /* \"#utility.yul\":22824:22825   */\n      dup4\n        /* \"#utility.yul\":22807:22826   */\n      tag_456\n      jump\t// in\n    tag_766:\n        /* \"#utility.yul\":22802:22826   */\n      swap3\n      pop\n        /* \"#utility.yul\":22861:22862   */\n      dup3\n        /* \"#utility.yul\":22858:22859   */\n      dup3\n        /* \"#utility.yul\":22854:22863   */\n      mul\n        /* \"#utility.yul\":22883:22912   */\n      tag_767\n        /* \"#utility.yul\":22900:22911   */\n      dup2\n        /* \"#utility.yul\":22883:22912   */\n      tag_456\n      jump\t// in\n    tag_767:\n        /* \"#utility.yul\":22872:22912   */\n      swap2\n      pop\n        /* \"#utility.yul\":22970:23036   */\n      0x8000000000000000000000000000000000000000000000000000000000000000\n        /* \"#utility.yul\":22967:22968   */\n      dup5\n        /* \"#utility.yul\":22964:23037   */\n      eq\n        /* \"#utility.yul\":22960:22961   */\n      0x00\n        /* \"#utility.yul\":22957:22958   */\n      dup5\n        /* \"#utility.yul\":22953:22962   */\n      slt\n        /* \"#utility.yul\":22949:23038   */\n      and\n        /* \"#utility.yul\":22946:23061   */\n      iszero\n      tag_768\n      jumpi\n        /* \"#utility.yul\":23041:23059   */\n      tag_769\n      tag_459\n      jump\t// in\n    tag_769:\n        /* \"#utility.yul\":22946:23061   */\n    tag_768:\n        /* \"#utility.yul\":23211:23212   */\n      dup3\n        /* \"#utility.yul\":23202:23209   */\n      dup3\n        /* \"#utility.yul\":23197:23213   */\n      sdiv\n        /* \"#utility.yul\":23194:23195   */\n      dup5\n        /* \"#utility.yul\":23191:23214   */\n      eq\n        /* \"#utility.yul\":23171:23172   */\n      dup4\n        /* \"#utility.yul\":23164:23173   */\n      iszero\n        /* \"#utility.yul\":23144:23228   */\n      or\n        /* \"#utility.yul\":23121:23261   */\n      tag_770\n      jumpi\n        /* \"#utility.yul\":23241:23259   */\n      tag_771\n      tag_459\n      jump\t// in\n    tag_771:\n        /* \"#utility.yul\":23121:23261   */\n    tag_770:\n        /* \"#utility.yul\":22759:23268   */\n      pop\n        /* \"#utility.yul\":22712:23268   */\n      swap3\n      swap2\n      pop\n      pop\n      jump\t// out\n        /* \"#utility.yul\":23274:23649   */\n    tag_331:\n        /* \"#utility.yul\":23313:23316   */\n      0x00\n        /* \"#utility.yul\":23332:23351   */\n      tag_773\n        /* \"#utility.yul\":23349:23350   */\n      dup3\n        /* \"#utility.yul\":23332:23351   */\n      tag_456\n      jump\t// in\n    tag_773:\n        /* \"#utility.yul\":23327:23351   */\n      swap2\n      pop\n        /* \"#utility.yul\":23365:23384   */\n      tag_774\n        /* \"#utility.yul\":23382:23383   */\n      dup4\n        /* \"#utility.yul\":23365:23384   */\n      tag_456\n      jump\t// in\n    tag_774:\n        /* \"#utility.yul\":23360:23384   */\n      swap3\n      pop\n        /* \"#utility.yul\":23407:23408   */\n      dup3\n        /* \"#utility.yul\":23404:23405   */\n      dup3\n        /* \"#utility.yul\":23400:23409   */\n      add\n        /* \"#utility.yul\":23393:23409   */\n      swap1\n      pop\n        /* \"#utility.yul\":23605:23606   */\n      dup3\n        /* \"#utility.yul\":23600:23603   */\n      dup2\n        /* \"#utility.yul\":23596:23607   */\n      slt\n        /* \"#utility.yul\":23589:23608   */\n      iszero\n        /* \"#utility.yul\":23585:23586   */\n      0x00\n        /* \"#utility.yul\":23582:23583   */\n      dup4\n        /* \"#utility.yul\":23578:23587   */\n      slt\n        /* \"#utility.yul\":23574:23609   */\n      and\n        /* \"#utility.yul\":23557:23558   */\n      dup4\n        /* \"#utility.yul\":23552:23555   */\n      dup3\n        /* \"#utility.yul\":23548:23559   */\n      slt\n        /* \"#utility.yul\":23543:23544   */\n      0x00\n        /* \"#utility.yul\":23540:23541   */\n      dup5\n        /* \"#utility.yul\":23536:23545   */\n      slt\n        /* \"#utility.yul\":23529:23546   */\n      iszero\n        /* \"#utility.yul\":23525:23560   */\n      and\n        /* \"#utility.yul\":23509:23619   */\n      or\n        /* \"#utility.yul\":23506:23642   */\n      iszero\n      tag_775\n      jumpi\n        /* \"#utility.yul\":23622:23640   */\n      tag_776\n      tag_459\n      jump\t// in\n    tag_776:\n        /* \"#utility.yul\":23506:23642   */\n    tag_775:\n        /* \"#utility.yul\":23274:23649   */\n      swap3\n      swap2\n      pop\n      pop\n      jump\t// out\n        /* \"#utility.yul\":23655:23888   */\n    tag_348:\n        /* \"#utility.yul\":23694:23697   */\n      0x00\n        /* \"#utility.yul\":23717:23741   */\n      tag_778\n        /* \"#utility.yul\":23735:23740   */\n      dup3\n        /* \"#utility.yul\":23717:23741   */\n      tag_443\n      jump\t// in\n    tag_778:\n        /* \"#utility.yul\":23708:23741   */\n      swap2\n      pop\n        /* \"#utility.yul\":23763:23829   */\n      0xffffffffffffffffffffffffffffffffffffffffffffffffffffffffffffffff\n        /* \"#utility.yul\":23756:23761   */\n      dup3\n        /* \"#utility.yul\":23753:23830   */\n      sub\n        /* \"#utility.yul\":23750:23853   */\n      tag_779\n      jumpi\n        /* \"#utility.yul\":23833:23851   */\n      tag_780\n      tag_459\n      jump\t// in\n    tag_780:\n        /* \"#utility.yul\":23750:23853   */\n    tag_779:\n        /* \"#utility.yul\":23880:23881   */\n      0x01\n        /* \"#utility.yul\":23873:23878   */\n      dup3\n        /* \"#utility.yul\":23869:23882   */\n      add\n        /* \"#utility.yul\":23862:23882   */\n      swap1\n      pop\n        /* \"#utility.yul\":23655:23888   */\n      swap2\n      swap1\n      pop\n      jump\t// out\n        /* \"#utility.yul\":23894:24082   */\n    tag_354:\n        /* \"#utility.yul\":23932:23935   */\n      0x00\n        /* \"#utility.yul\":23951:23969   */\n      tag_782\n        /* \"#utility.yul\":23967:23968   */\n      dup3\n        /* \"#utility.yul\":23951:23969   */\n      tag_476\n      jump\t// in\n    tag_782:\n        /* \"#utility.yul\":23946:23969   */\n      swap2\n      pop\n        /* \"#utility.yul\":23983:24001   */\n      tag_783\n        /* \"#utility.yul\":23999:24000   */\n      dup4\n        /* \"#utility.yul\":23983:24001   */\n      tag_476\n      jump\t// in\n    tag_783:\n        /* \"#utility.yul\":23978:24001   */\n      swap3\n      pop\n        /* \"#utility.yul\":24024:24025   */\n      dup3\n        /* \"#utility.yul\":24021:24022   */\n      dup3\n        /* \"#utility.yul\":24017:24026   */\n      add\n        /* \"#utility.yul\":24010:24026   */\n      swap1\n      pop\n        /* \"#utility.yul\":24047:24051   */\n      0xff\n        /* \"#utility.yul\":24042:24045   */\n      dup2\n        /* \"#utility.yul\":24039:24052   */\n      gt\n        /* \"#utility.yul\":24036:24075   */\n      iszero\n      tag_784\n      jumpi\n        /* \"#utility.yul\":24055:24073   */\n      tag_785\n      tag_459\n      jump\t// in\n    tag_785:\n        /* \"#utility.yul\":24036:24075   */\n    tag_784:\n        /* \"#utility.yul\":23894:24082   */\n      swap3\n      swap2\n      pop\n      pop\n      jump\t// out\n        /* \"#utility.yul\":24088:24255   */\n    tag_479:\n        /* \"#utility.yul\":24228:24247   */\n      0x5052424d6174683a206f766572666c6f77000000000000000000000000000000\n        /* \"#utility.yul\":24224:24225   */\n      0x00\n        /* \"#utility.yul\":24216:24222   */\n      dup3\n        /* \"#utility.yul\":24212:24226   */\n      add\n        /* \"#utility.yul\":24205:24248   */\n      mstore\n        /* \"#utility.yul\":24088:24255   */\n      pop\n      jump\t// out\n        /* \"#utility.yul\":24261:24627   */\n    tag_480:\n        /* \"#utility.yul\":24403:24406   */\n      0x00\n        /* \"#utility.yul\":24424:24491   */\n      tag_788\n        /* \"#utility.yul\":24488:24490   */\n      0x11\n        /* \"#utility.yul\":24483:24486   */\n      dup4\n        /* \"#utility.yul\":24424:24491   */\n      tag_472\n      jump\t// in\n    tag_788:\n        /* \"#utility.yul\":24417:24491   */\n      swap2\n      pop\n        /* \"#utility.yul\":24500:24593   */\n      tag_789\n        /* \"#utility.yul\":24589:24592   */\n      dup3\n        /* \"#utility.yul\":24500:24593   */\n      tag_479\n      jump\t// in\n    tag_789:\n        /* \"#utility.yul\":24618:24620   */\n      0x20\n        /* \"#utility.yul\":24613:24616   */\n      dup3\n        /* \"#utility.yul\":24609:24621   */\n      add\n        /* \"#utility.yul\":24602:24621   */\n      swap1\n      pop\n        /* \"#utility.yul\":24261:24627   */\n      swap2\n      swap1\n      pop\n      jump\t// out\n        /* \"#utility.yul\":24633:25052   */\n    tag_407:\n        /* \"#utility.yul\":24799:24803   */\n      0x00\n        /* \"#utility.yul\":24837:24839   */\n      0x20\n        /* \"#utility.yul\":24826:24835   */\n      dup3\n        /* \"#utility.yul\":24822:24840   */\n      add\n        /* \"#utility.yul\":24814:24840   */\n      swap1\n      pop\n        /* \"#utility.yul\":24886:24895   */\n      dup2\n        /* \"#utility.yul\":24880:24884   */\n      dup2\n        /* \"#utility.yul\":24876:24896   */\n      sub\n        /* \"#utility.yul\":24872:24873   */\n      0x00\n        /* \"#utility.yul\":24861:24870   */\n      dup4\n        /* \"#utility.yul\":24857:24874   */\n      add\n        /* \"#utility.yul\":24850:24897   */\n      mstore\n        /* \"#utility.yul\":24914:25045   */\n      tag_791\n        /* \"#utility.yul\":25040:25044   */\n      dup2\n        /* \"#utility.yul\":24914:25045   */\n      tag_480\n      jump\t// in\n    tag_791:\n        /* \"#utility.yul\":24906:25045   */\n      swap1\n      pop\n        /* \"#utility.yul\":24633:25052   */\n      swap2\n      swap1\n      pop\n      jump\t// out\n        /* \"#utility.yul\":25058:25290   */\n    tag_411:\n        /* \"#utility.yul\":25098:25101   */\n      0x00\n        /* \"#utility.yul\":25117:25137   */\n      tag_793\n        /* \"#utility.yul\":25135:25136   */\n      dup3\n        /* \"#utility.yul\":25117:25137   */\n      tag_422\n      jump\t// in\n    tag_793:\n        /* \"#utility.yul\":25112:25137   */\n      swap2\n      pop\n        /* \"#utility.yul\":25151:25171   */\n      tag_794\n        /* \"#utility.yul\":25169:25170   */\n      dup4\n        /* \"#utility.yul\":25151:25171   */\n      tag_422\n      jump\t// in\n    tag_794:\n        /* \"#utility.yul\":25146:25171   */\n      swap3\n      pop\n        /* \"#utility.yul\":25194:25195   */\n      dup3\n        /* \"#utility.yul\":25191:25192   */\n      dup3\n        /* \"#utility.yul\":25187:25196   */\n      add\n        /* \"#utility.yul\":25180:25196   */\n      swap1\n      pop\n        /* \"#utility.yul\":25217:25259   */\n      0xffffffffffffffffffffffffffffffffffffffff\n        /* \"#utility.yul\":25212:25215   */\n      dup2\n        /* \"#utility.yul\":25209:25260   */\n      gt\n        /* \"#utility.yul\":25206:25283   */\n      iszero\n      tag_795\n      jumpi\n        /* \"#utility.yul\":25263:25281   */\n      tag_796\n      tag_459\n      jump\t// in\n    tag_796:\n        /* \"#utility.yul\":25206:25283   */\n    tag_795:\n        /* \"#utility.yul\":25058:25290   */\n      swap3\n      swap2\n      pop\n      pop\n      jump\t// out\n\n    auxdata: 0xa264697066735822122001f569d86aa03a33d1bd9400bc0ad1a8f02305822c506f18c435f7ffe893569a64736f6c634300081e0033\n}\n",
				"bytecode": {
					"linkReferences": {},
					"object": "60c060405234801561000f575f5ffd5b50604051613697380380613697833981810160405281019061003191906101fd565b8373ffffffffffffffffffffffffffffffffffffffff1660808173ffffffffffffffffffffffffffffffffffffffff16815250508273ffffffffffffffffffffffffffffffffffffffff1660a08173ffffffffffffffffffffffffffffffffffffffff168152505060405180604001604052808373ffffffffffffffffffffffffffffffffffffffff1681526020018260020b8152505f5f820151815f015f6101000a81548173ffffffffffffffffffffffffffffffffffffffff021916908373ffffffffffffffffffffffffffffffffffffffff1602179055506020820151815f0160146101000a81548162ffffff021916908360020b62ffffff16021790555090505050505050610261565b5f5ffd5b5f73ffffffffffffffffffffffffffffffffffffffff82169050919050565b5f61016c82610143565b9050919050565b61017c81610162565b8114610186575f5ffd5b50565b5f8151905061019781610173565b92915050565b6101a681610143565b81146101b0575f5ffd5b50565b5f815190506101c18161019d565b92915050565b5f8160020b9050919050565b6101dc816101c7565b81146101e6575f5ffd5b50565b5f815190506101f7816101d3565b92915050565b5f5f5f5f608085870312156102155761021461013f565b5b5f61022287828801610189565b945050602061023387828801610189565b9350506040610244878288016101b3565b9250506060610255878288016101e9565b91505092959194509250565b60805160a0516133f961029e5f395f8181610ac401528181610e6401526117af01525f818161020301528181610c32015261171101526133f95ff3fe608060405234801561000f575f5ffd5b5060043610610091575f3560e01c8063514ea4bf11610064578063514ea4bf146101215780635339c2961461015157806380c2c6ef14610181578063d21220a7146101b2578063f30dba93146101d057610091565b80630dfe1681146100955780631a686502146100b35780633850c7bd146100d15780633c8a7d8d146100f0575b5f5ffd5b61009d610201565b6040516100aa91906124b4565b60405180910390f35b6100bb610225565b6040516100c891906124f7565b60405180910390f35b6100d9610246565b6040516100e792919061253a565b60405180910390f35b61010a60048036038101906101059190612648565b610281565b6040516101189291906126f6565b60405180910390f35b61013b60048036038101906101369190612750565b61073e565b60405161014891906124f7565b60405180910390f35b61016b600480360381019061016691906127b1565b610773565b60405161017891906127dc565b60405180910390f35b61019b60048036038101906101969190612854565b610788565b6040516101a99291906128f0565b60405180910390f35b6101ba610e62565b6040516101c791906124b4565b60405180910390f35b6101ea60048036038101906101e59190612917565b610e86565b6040516101f8929190612951565b60405180910390f35b7f000000000000000000000000000000000000000000000000000000000000000081565b60015f9054906101000a90046fffffffffffffffffffffffffffffffff1681565b5f805f015f9054906101000a900473ffffffffffffffffffffffffffffffffffffffff1690805f0160149054906101000a900460020b905082565b5f5f8560020b8760020b1215806102bd57507ffffffffffffffffffffffffffffffffffffffffffffffffffffffffffff2761860020b8760020b125b806102f657507ffffffffffffffffffffffffffffffffffffffffffffffffffffffffffff276186102ed906129a5565b60020b8660020b135b1561032d576040517f064847d000000000000000000000000000000000000000000000000000000000815260040160405180910390fd5b5f856fffffffffffffffffffffffffffffffff1603610378576040517f1007454800000000000000000000000000000000000000000000000000000000815260040160405180910390fd5b5f61038f88876002610ecd9092919063ffffffff16565b90505f6103a888886002610ecd9092919063ffffffff16565b905081156103c8576103c78960016003610fc49092919063ffffffff16565b5b80156103e6576103e58860016003610fc49092919063ffffffff16565b5b5f6103ff8b8b8b600461102d909392919063ffffffff16565b9050610414888261107290919063ffffffff16565b5f5f6040518060400160405290815f82015f9054906101000a900473ffffffffffffffffffffffffffffffffffffffff1673ffffffffffffffffffffffffffffffffffffffff1673ffffffffffffffffffffffffffffffffffffffff1681526020015f820160149054906101000a900460020b60020b60020b8152505090508a60020b816020015160020b12156104c7576104c06104b18c6110e2565b6104ba8c6110e2565b8b611596565b955061058f565b8960020b816020015160020b1215610570576104ef815f01516104e98c6110e2565b8b611596565b9550610507815f01516105018d6110e2565b8b61167a565b94508860015f8282829054906101000a90046fffffffffffffffffffffffffffffffff1661053591906129eb565b92506101000a8154816fffffffffffffffffffffffffffffffff02191690836fffffffffffffffffffffffffffffffff16021790555061058e565b61058b61057c8c6110e2565b6105858c6110e2565b8b61167a565b94505b5b5f5f5f8811156105a4576105a161170e565b91505b5f8711156105b7576105b46117ac565b90505b3373ffffffffffffffffffffffffffffffffffffffff1663d348799789898d8d6040518563ffffffff1660e01b81526004016105f69493929190612a88565b5f604051808303815f87803b15801561060d575f5ffd5b505af115801561061f573d5f5f3e3d5ffd5b505050505f88118015610643575061063561170e565b88836106419190612ac6565b115b1561067a576040517f098fb56100000000000000000000000000000000000000000000000000000000815260040160405180910390fd5b5f8711801561069a575061068c6117ac565b87826106989190612ac6565b115b156106d1576040517f098fb56100000000000000000000000000000000000000000000000000000000815260040160405180910390fd5b8b60020b8d60020b8f73ffffffffffffffffffffffffffffffffffffffff167f7a53080ba414158be7ec69b987b5fb7d07dee101fe85488f0853ae16239d0bde338f8d8d6040516107259493929190612af9565b60405180910390a4505050505050965096945050505050565b6004602052805f5260405f205f91509050805f015f9054906101000a90046fffffffffffffffffffffffffffffffff16905081565b6003602052805f5260405f205f915090505481565b5f5f5f5f6040518060400160405290815f82015f9054906101000a900473ffffffffffffffffffffffffffffffffffffffff1673ffffffffffffffffffffffffffffffffffffffff1673ffffffffffffffffffffffffffffffffffffffff1681526020015f820160149054906101000a900460020b60020b60020b8152505090505f60405180608001604052808881526020015f8152602001835f015173ffffffffffffffffffffffffffffffffffffffff168152602001836020015160020b81525090505b5f815f015111156109e55761086161241c565b8160400151815f019073ffffffffffffffffffffffffffffffffffffffff16908173ffffffffffffffffffffffffffffffffffffffff16815250506108b9826060015160018b600361184a909392919063ffffffff16565b50816020018160020b60020b815250506108d681602001516110e2565b816040019073ffffffffffffffffffffffffffffffffffffffff16908173ffffffffffffffffffffffffffffffffffffffff16815250506109418260400151826040015160015f9054906101000a90046fffffffffffffffffffffffffffffffff16855f0151611a28565b84604001846060018560800183815250838152508373ffffffffffffffffffffffffffffffffffffffff1673ffffffffffffffffffffffffffffffffffffffff168152505050508060600151825f0181815161099d9190612b3c565b915081815250508060800151826020018181516109ba9190612ac6565b915081815250506109ce8260400151611aa1565b826060019060020b908160020b815250505061084e565b816020015160020b816060015160020b14610a6f57806040015181606001515f5f015f5f5f0160148491906101000a81548162ffffff021916908360020b62ffffff1602179055508391906101000a81548173ffffffffffffffffffffffffffffffffffffffff021916908373ffffffffffffffffffffffffffffffffffffffff16021790555050505b87610a96578060200151610a8290612b6f565b815f015188610a919190612b3c565b610ab4565b805f015187610aa59190612b3c565b8160200151610ab390612b6f565b5b80945081955050508715610c30577f000000000000000000000000000000000000000000000000000000000000000073ffffffffffffffffffffffffffffffffffffffff1663a9059cbb8a85610b0990612b6f565b6040518363ffffffff1660e01b8152600401610b26929190612bb5565b6020604051808303815f875af1158015610b42573d5f5f3e3d5ffd5b505050506040513d601f19601f82011682018060405250810190610b669190612bf0565b505f610b7061170e565b90503373ffffffffffffffffffffffffffffffffffffffff1663fa461e3386868a8a6040518563ffffffff1660e01b8152600401610bb19493929190612c1b565b5f604051808303815f87803b158015610bc8575f5ffd5b505af1158015610bda573d5f5f3e3d5ffd5b50505050610be661170e565b8582610bf29190612ac6565b1115610c2a576040517f098fb56100000000000000000000000000000000000000000000000000000000815260040160405180910390fd5b50610d9a565b7f000000000000000000000000000000000000000000000000000000000000000073ffffffffffffffffffffffffffffffffffffffff1663a9059cbb8a86610c7790612b6f565b6040518363ffffffff1660e01b8152600401610c94929190612bb5565b6020604051808303815f875af1158015610cb0573d5f5f3e3d5ffd5b505050506040513d601f19601f82011682018060405250810190610cd49190612bf0565b505f610cde6117ac565b90503373ffffffffffffffffffffffffffffffffffffffff1663fa461e3386868a8a6040518563ffffffff1660e01b8152600401610d1f9493929190612c1b565b5f604051808303815f87803b158015610d36575f5ffd5b505af1158015610d48573d5f5f3e3d5ffd5b50505050610d546117ac565b8482610d609190612ac6565b1115610d98576040517f098fb56100000000000000000000000000000000000000000000000000000000815260040160405180910390fd5b505b8873ffffffffffffffffffffffffffffffffffffffff163373ffffffffffffffffffffffffffffffffffffffff167fc42079f94a6350d7e6235f29174924f928cc2ac818eb64fed8004e115fbcca6786865f5f015f9054906101000a900473ffffffffffffffffffffffffffffffffffffffff1660015f9054906101000a90046fffffffffffffffffffffffffffffffff165f5f0160149054906101000a900460020b604051610e4e959493929190612c59565b60405180910390a350509550959350505050565b7f000000000000000000000000000000000000000000000000000000000000000081565b6002602052805f5260405f205f91509050805f015f9054906101000a900460ff1690805f0160019054906101000a90046fffffffffffffffffffffffffffffffff16905082565b5f5f845f8560020b60020b81526020019081526020015f2090505f815f0160019054906101000a90046fffffffffffffffffffffffffffffffff1690505f8482610f1791906129eb565b90505f826fffffffffffffffffffffffffffffffff161415155f826fffffffffffffffffffffffffffffffff16141515141593505f826fffffffffffffffffffffffffffffffff1603610f80576001835f015f6101000a81548160ff0219169083151502179055505b80835f0160016101000a8154816fffffffffffffffffffffffffffffffff02191690836fffffffffffffffffffffffffffffffff1602179055505050509392505050565b5f8183610fd19190612cd7565b60020b14610fdd575f5ffd5b5f5f610ff38385610fee9190612d07565b611e9b565b915091505f8160ff166001901b905080865f8560010b60010b81526020019081526020015f205f8282541892505081905550505050505050565b5f845f85858560405160200161104593929190612de8565b6040516020818303038152906040528051906020012081526020019081526020015f209050949350505050565b5f825f015f9054906101000a90046fffffffffffffffffffffffffffffffff1690505f82826110a191906129eb565b905080845f015f6101000a8154816fffffffffffffffffffffffffffffffff02191690836fffffffffffffffffffffffffffffffff16021790555050505050565b5f5f5f8360020b126110f7578260020b611105565b8260020b61110490612b6f565b5b90507ffffffffffffffffffffffffffffffffffffffffffffffffffffffffffff27618611131906129a5565b62ffffff16811115611178576040517f08c379a000000000000000000000000000000000000000000000000000000000815260040161116f90612e7e565b60405180910390fd5b5f5f600183160361119a577001000000000000000000000000000000006111ac565b6ffffcb933bd6fad37aa2d162d1a5940015b70ffffffffffffffffffffffffffffffffff1690505f60028316146111ee5760806ffff97272373d413259a46990580e213a826111e99190612e9c565b901c90505b5f600483161461121b5760806ffff2e50f5f656932ef12357cf3c7fdcc826112169190612e9c565b901c90505b5f60088316146112485760806fffe5caca7e10e4e61c3624eaa0941cd0826112439190612e9c565b901c90505b5f60108316146112755760806fffcb9843d60f6159c9db58835c926644826112709190612e9c565b901c90505b5f60208316146112a25760806fff973b41fa98c081472e6896dfb254c08261129d9190612e9c565b901c90505b5f60408316146112cf5760806fff2ea16466c96a3843ec78b326b52861826112ca9190612e9c565b901c90505b5f60808316146112fc5760806ffe5dee046a99a2a811c461f1969c3053826112f79190612e9c565b901c90505b5f61010083161461132a5760806ffcbe86c7900a88aedcffc83b479aa3a4826113259190612e9c565b901c90505b5f6102008316146113585760806ff987a7253ac413176f2b074cf7815e54826113539190612e9c565b901c90505b5f6104008316146113865760806ff3392b0822b70005940c7a398e4b70f3826113819190612e9c565b901c90505b5f6108008316146113b45760806fe7159475a2c29b7443b29c7fa6e889d9826113af9190612e9c565b901c90505b5f6110008316146113e25760806fd097f3bdfd2022b8845ad8f792aa5825826113dd9190612e9c565b901c90505b5f6120008316146114105760806fa9f746462d870fdf8a65dc1f90e061e58261140b9190612e9c565b901c90505b5f61400083161461143e5760806f70d869a156d2a1b890bb3df62baf32f7826114399190612e9c565b901c90505b5f61800083161461146c5760806f31be135f97d08fd981231505542fcfa6826114679190612e9c565b901c90505b5f6201000083161461149b5760806f09aa508b5b7a84e1c677de54f3e99bc9826114969190612e9c565b901c90505b5f620200008316146114c95760806e5d6af8dedb81196699c329225ee604826114c49190612e9c565b901c90505b5f620400008316146114f65760806d2216e584f5fa1ea926041bedfe98826114f19190612e9c565b901c90505b5f620800008316146115215760806b048a170391f7dc42444e8fa28261151c9190612e9c565b901c90505b5f8460020b131561155b57807fffffffffffffffffffffffffffffffffffffffffffffffffffffffffffffffff6115589190612edd565b90505b5f6401000000008261156d9190612f0d565b1461157957600161157b565b5f5b60ff16602082901c61158d9190612ac6565b92505050919050565b5f8273ffffffffffffffffffffffffffffffffffffffff168473ffffffffffffffffffffffffffffffffffffffff1611156115d657828480945081955050505b5f8473ffffffffffffffffffffffffffffffffffffffff16116115f7575f5ffd5b611671611655606060ff16846fffffffffffffffffffffffffffffffff16901b86866116239190612f3d565b73ffffffffffffffffffffffffffffffffffffffff168673ffffffffffffffffffffffffffffffffffffffff16611ebc565b8573ffffffffffffffffffffffffffffffffffffffff16611f24565b90509392505050565b5f8273ffffffffffffffffffffffffffffffffffffffff168473ffffffffffffffffffffffffffffffffffffffff1611156116ba57828480945081955050505b611705826fffffffffffffffffffffffffffffffff1685856116dc9190612f3d565b73ffffffffffffffffffffffffffffffffffffffff166c01000000000000000000000000611ebc565b90509392505050565b5f7f000000000000000000000000000000000000000000000000000000000000000073ffffffffffffffffffffffffffffffffffffffff166370a08231306040518263ffffffff1660e01b815260040161176891906124b4565b602060405180830381865afa158015611783573d5f5f3e3d5ffd5b505050506040513d601f19601f820116820180604052508101906117a79190612f98565b905090565b5f7f000000000000000000000000000000000000000000000000000000000000000073ffffffffffffffffffffffffffffffffffffffff166370a08231306040518263ffffffff1660e01b815260040161180691906124b4565b602060405180830381865afa158015611821573d5f5f3e3d5ffd5b505050506040513d601f19601f820116820180604052508101906118459190612f98565b905090565b5f5f5f84866118599190612d07565b90505f8660020b12801561187b57505f85876118759190612cd7565b60020b14155b1561188f57808061188b90612fc3565b9150505b831561194c575f5f6118a083611e9b565b915091505f8160ff166001901b60018360ff166001901b6118c19190612b3c565b6118cb9190612ac6565b90505f818b5f8660010b60010b81526020019081526020015f20541690505f81141595508561191357888360ff1686611904919061300a565b61190e9190613064565b611941565b8861191d82611f36565b8461192891906130ac565b60ff1686611936919061300a565b6119409190613064565b5b965050505050611a1e565b5f5f61196360018461195e91906130e0565b611e9b565b915091505f60018260ff166001901b61197c9190612b3c565b1990505f818b5f8660010b60010b81526020019081526020015f20541690505f8114159550856119dd57888360ff6119b491906130ac565b60ff166001876119c491906130e0565b6119ce91906130e0565b6119d89190613064565b611a17565b88836119e883612057565b6119f291906130ac565b60ff16600187611a0291906130e0565b611a0c91906130e0565b611a169190613064565b5b9650505050505b5094509492505050565b5f5f5f5f8673ffffffffffffffffffffffffffffffffffffffff168873ffffffffffffffffffffffffffffffffffffffff1610159050611a6a888787846121bc565b9350611a77888588611596565b9250611a8488858861167a565b915080611a9657818380935081945050505b509450945094915050565b5f6401000276a373ffffffffffffffffffffffffffffffffffffffff168273ffffffffffffffffffffffffffffffffffffffff1610158015611b22575073fffd8963efd1fc6a506488495d951d5263988d2673ffffffffffffffffffffffffffffffffffffffff168273ffffffffffffffffffffffffffffffffffffffff16105b611b61576040517f08c379a0000000000000000000000000000000000000000000000000000000008152600401611b5890613184565b60405180910390fd5b5f60208373ffffffffffffffffffffffffffffffffffffffff16901b90505f8190505f5f90506fffffffffffffffffffffffffffffffff821160071b808217915082811c92505067ffffffffffffffff821160061b808217915082811c92505063ffffffff821160051b808217915082811c92505061ffff821160041b808217915082811c92505060ff821160031b808217915082811c925050600f821160021b808217915082811c9250506003821160011b808217915082811c9250506001821180821791505060808110611c4857607f81611c3e9190612b3c565b83901c9150611c5b565b80607f611c559190612b3c565b83901b91505b5f6040608083611c6b91906131a2565b901b9050828302607f1c92508260801c80603f1b8217915083811c935050828302607f1c92508260801c80603e1b8217915083811c935050828302607f1c92508260801c80603d1b8217915083811c935050828302607f1c92508260801c80603c1b8217915083811c935050828302607f1c92508260801c80603b1b8217915083811c935050828302607f1c92508260801c80603a1b8217915083811c935050828302607f1c92508260801c8060391b8217915083811c935050828302607f1c92508260801c8060381b8217915083811c935050828302607f1c92508260801c8060371b8217915083811c935050828302607f1c92508260801c8060361b8217915083811c935050828302607f1c92508260801c8060351b8217915083811c935050828302607f1c92508260801c8060341b8217915083811c935050828302607f1c92508260801c8060331b8217915083811c935050828302607f1c92508260801c8060321b82179150505f693627a301d71055774c8582611ded91906131e2565b90505f60806f028f6481ab7f045a5af012a19d003aaa83611e0e91906131a2565b901d90505f60806fdb2df09e81959a81455e260799a0632f84611e319190613258565b901d90508060020b8260020b14611e8b578873ffffffffffffffffffffffffffffffffffffffff16611e62826110e2565b73ffffffffffffffffffffffffffffffffffffffff161115611e845781611e86565b805b611e8d565b815b975050505050505050919050565b5f5f60088360020b901d915061010083611eb59190612cd7565b9050915091565b5f611ec88484846121e8565b90505f8280611eda57611ed9612caa565b5b8486091115611f1d577fffffffffffffffffffffffffffffffffffffffffffffffffffffffffffffffff8110611f0e575f5ffd5b8080611f1990613299565b9150505b9392505050565b5f5f8284061182840401905092915050565b5f5f8211611f42575f5ffd5b7001000000000000000000000000000000008210611f7157608082901c9150608081611f6e91906132e0565b90505b680100000000000000008210611f9857604082901c9150604081611f9591906132e0565b90505b6401000000008210611fbb57602082901c9150602081611fb891906132e0565b90505b620100008210611fdc57601082901c9150601081611fd991906132e0565b90505b6101008210611ffc57600882901c9150600881611ff991906132e0565b90505b6010821061201b57600482901c915060048161201891906132e0565b90505b6004821061203a57600282901c915060028161203791906132e0565b90505b600282106120525760018161204f91906132e0565b90505b919050565b5f5f8211612063575f5ffd5b60ff90505f6fffffffffffffffffffffffffffffffff8016831611156120975760808161209091906130ac565b905061209f565b608082901c91505b5f67ffffffffffffffff8016831611156120c7576040816120c091906130ac565b90506120cf565b604082901c91505b5f63ffffffff8016831611156120f3576020816120ec91906130ac565b90506120fb565b602082901c91505b5f61ffff80168316111561211d5760108161211691906130ac565b9050612125565b601082901c91505b5f60ff8016831611156121465760088161213f91906130ac565b905061214e565b600882901c91505b5f600f8316111561216d5760048161216691906130ac565b9050612175565b600482901c91505b5f6003831611156121945760028161218d91906130ac565b905061219c565b600282901c91505b5f6001831611156121b7576001816121b491906130ac565b90505b919050565b5f816121d2576121cd8585856122f2565b6121de565b6121dd85858561232c565b5b9050949350505050565b5f5f5f5f198587098587029250828110838203039150505f81036122205783828161221657612215612caa565b5b04925050506122eb565b808411612262576040517f08c379a00000000000000000000000000000000000000000000000000000000081526004016122599061335e565b60405180910390fd5b5f8486880990508281118203915080830392505f60018619018616905080860495508084049350600181825f0304019050808302841793505f600287600302189050808702600203810290508087026002038102905080870260020381029050808702600203810290508087026002038102905080870260020381029050808502955050505050505b9392505050565b5f826fffffffffffffffffffffffffffffffff16606060ff1683901b6123189190612edd565b84612323919061337c565b90509392505050565b5f5f606060ff16846fffffffffffffffffffffffffffffffff16901b90505f8573ffffffffffffffffffffffffffffffffffffffff168461236d9190612e9c565b90508573ffffffffffffffffffffffffffffffffffffffff1684826123929190612edd565b036123da575f81836123a49190612ac6565b90508281106123d8576123ce838873ffffffffffffffffffffffffffffffffffffffff1683611ebc565b9350505050612415565b505b61241082858873ffffffffffffffffffffffffffffffffffffffff16856124019190612edd565b61240b9190612ac6565b611f24565b925050505b9392505050565b6040518060a001604052805f73ffffffffffffffffffffffffffffffffffffffff1681526020015f60020b81526020015f73ffffffffffffffffffffffffffffffffffffffff1681526020015f81526020015f81525090565b5f73ffffffffffffffffffffffffffffffffffffffff82169050919050565b5f61249e82612475565b9050919050565b6124ae81612494565b82525050565b5f6020820190506124c75f8301846124a5565b92915050565b5f6fffffffffffffffffffffffffffffffff82169050919050565b6124f1816124cd565b82525050565b5f60208201905061250a5f8301846124e8565b92915050565b61251981612475565b82525050565b5f8160020b9050919050565b6125348161251f565b82525050565b5f60408201905061254d5f830185612510565b61255a602083018461252b565b9392505050565b5f5ffd5b5f5ffd5b61257281612494565b811461257c575f5ffd5b50565b5f8135905061258d81612569565b92915050565b61259c8161251f565b81146125a6575f5ffd5b50565b5f813590506125b781612593565b92915050565b6125c6816124cd565b81146125d0575f5ffd5b50565b5f813590506125e1816125bd565b92915050565b5f5ffd5b5f5ffd5b5f5ffd5b5f5f83601f840112612608576126076125e7565b5b8235905067ffffffffffffffff811115612625576126246125eb565b5b602083019150836001820283011115612641576126406125ef565b5b9250929050565b5f5f5f5f5f5f60a0878903121561266257612661612561565b5b5f61266f89828a0161257f565b965050602061268089828a016125a9565b955050604061269189828a016125a9565b94505060606126a289828a016125d3565b935050608087013567ffffffffffffffff8111156126c3576126c2612565565b5b6126cf89828a016125f3565b92509250509295509295509295565b5f819050919050565b6126f0816126de565b82525050565b5f6040820190506127095f8301856126e7565b61271660208301846126e7565b9392505050565b5f819050919050565b61272f8161271d565b8114612739575f5ffd5b50565b5f8135905061274a81612726565b92915050565b5f6020828403121561276557612764612561565b5b5f6127728482850161273c565b91505092915050565b5f8160010b9050919050565b6127908161277b565b811461279a575f5ffd5b50565b5f813590506127ab81612787565b92915050565b5f602082840312156127c6576127c5612561565b5b5f6127d38482850161279d565b91505092915050565b5f6020820190506127ef5f8301846126e7565b92915050565b5f8115159050919050565b612809816127f5565b8114612813575f5ffd5b50565b5f8135905061282481612800565b92915050565b612833816126de565b811461283d575f5ffd5b50565b5f8135905061284e8161282a565b92915050565b5f5f5f5f5f6080868803121561286d5761286c612561565b5b5f61287a8882890161257f565b955050602061288b88828901612816565b945050604061289c88828901612840565b935050606086013567ffffffffffffffff8111156128bd576128bc612565565b5b6128c9888289016125f3565b92509250509295509295909350565b5f819050919050565b6128ea816128d8565b82525050565b5f6040820190506129035f8301856128e1565b61291060208301846128e1565b9392505050565b5f6020828403121561292c5761292b612561565b5b5f612939848285016125a9565b91505092915050565b61294b816127f5565b82525050565b5f6040820190506129645f830185612942565b61297160208301846124e8565b9392505050565b7f4e487b71000000000000000000000000000000000000000000000000000000005f52601160045260245ffd5b5f6129af8261251f565b91507fffffffffffffffffffffffffffffffffffffffffffffffffffffffffff80000082036129e1576129e0612978565b5b815f039050919050565b5f6129f5826124cd565b9150612a00836124cd565b925082820190506fffffffffffffffffffffffffffffffff811115612a2857612a27612978565b5b92915050565b5f82825260208201905092915050565b828183375f83830152505050565b5f601f19601f8301169050919050565b5f612a678385612a2e565b9350612a74838584612a3e565b612a7d83612a4c565b840190509392505050565b5f606082019050612a9b5f8301876126e7565b612aa860208301866126e7565b8181036040830152612abb818486612a5c565b905095945050505050565b5f612ad0826126de565b9150612adb836126de565b9250828201905080821115612af357612af2612978565b5b92915050565b5f608082019050612b0c5f8301876124a5565b612b1960208301866124e8565b612b2660408301856126e7565b612b3360608301846126e7565b95945050505050565b5f612b46826126de565b9150612b51836126de565b9250828203905081811115612b6957612b68612978565b5b92915050565b5f612b79826128d8565b91507f80000000000000000000000000000000000000000000000000000000000000008203612bab57612baa612978565b5b815f039050919050565b5f604082019050612bc85f8301856124a5565b612bd560208301846126e7565b9392505050565b5f81519050612bea81612800565b92915050565b5f60208284031215612c0557612c04612561565b5b5f612c1284828501612bdc565b91505092915050565b5f606082019050612c2e5f8301876128e1565b612c3b60208301866128e1565b8181036040830152612c4e818486612a5c565b905095945050505050565b5f60a082019050612c6c5f8301886128e1565b612c7960208301876128e1565b612c866040830186612510565b612c9360608301856124e8565b612ca0608083018461252b565b9695505050505050565b7f4e487b71000000000000000000000000000000000000000000000000000000005f52601260045260245ffd5b5f612ce18261251f565b9150612cec8361251f565b925082612cfc57612cfb612caa565b5b828207905092915050565b5f612d118261251f565b9150612d1c8361251f565b925082612d2c57612d2b612caa565b5b60015f0383147fffffffffffffffffffffffffffffffffffffffffffffffffffffffffff80000083141615612d6457612d63612978565b5b828205905092915050565b5f8160601b9050919050565b5f612d8582612d6f565b9050919050565b5f612d9682612d7b565b9050919050565b612dae612da982612494565b612d8c565b82525050565b5f8160e81b9050919050565b5f612dca82612db4565b9050919050565b612de2612ddd8261251f565b612dc0565b82525050565b5f612df38286612d9d565b601482019150612e038285612dd1565b600382019150612e138284612dd1565b600382019150819050949350505050565b5f82825260208201905092915050565b7f54000000000000000000000000000000000000000000000000000000000000005f82015250565b5f612e68600183612e24565b9150612e7382612e34565b602082019050919050565b5f6020820190508181035f830152612e9581612e5c565b9050919050565b5f612ea6826126de565b9150612eb1836126de565b9250828202612ebf816126de565b91508282048414831517612ed657612ed5612978565b5b5092915050565b5f612ee7826126de565b9150612ef2836126de565b925082612f0257612f01612caa565b5b828204905092915050565b5f612f17826126de565b9150612f22836126de565b925082612f3257612f31612caa565b5b828206905092915050565b5f612f4782612475565b9150612f5283612475565b9250828203905073ffffffffffffffffffffffffffffffffffffffff811115612f7e57612f7d612978565b5b92915050565b5f81519050612f928161282a565b92915050565b5f60208284031215612fad57612fac612561565b5b5f612fba84828501612f84565b91505092915050565b5f612fcd8261251f565b91507fffffffffffffffffffffffffffffffffffffffffffffffffffffffffff8000008203612fff57612ffe612978565b5b600182039050919050565b5f6130148261251f565b915061301f8361251f565b92508282039050627fffff81137fffffffffffffffffffffffffffffffffffffffffffffffffffffffffff8000008212171561305e5761305d612978565b5b92915050565b5f61306e8261251f565b91506130798361251f565b92508282026130878161251f565b915080821461309957613098612978565b5b5092915050565b5f60ff82169050919050565b5f6130b6826130a0565b91506130c1836130a0565b9250828203905060ff8111156130da576130d9612978565b5b92915050565b5f6130ea8261251f565b91506130f58361251f565b925082820190507fffffffffffffffffffffffffffffffffffffffffffffffffffffffffff8000008112627fffff8213171561313457613133612978565b5b92915050565b7f52000000000000000000000000000000000000000000000000000000000000005f82015250565b5f61316e600183612e24565b91506131798261313a565b602082019050919050565b5f6020820190508181035f83015261319b81613162565b9050919050565b5f6131ac826128d8565b91506131b7836128d8565b925082820390508181125f8412168282135f8512151617156131dc576131db612978565b5b92915050565b5f6131ec826128d8565b91506131f7836128d8565b9250828202613205816128d8565b91507f800000000000000000000000000000000000000000000000000000000000000084145f8412161561323c5761323b612978565b5b828205841483151761325157613250612978565b5b5092915050565b5f613262826128d8565b915061326d836128d8565b92508282019050828112155f8312168382125f84121516171561329357613292612978565b5b92915050565b5f6132a3826126de565b91507fffffffffffffffffffffffffffffffffffffffffffffffffffffffffffffffff82036132d5576132d4612978565b5b600182019050919050565b5f6132ea826130a0565b91506132f5836130a0565b9250828201905060ff81111561330e5761330d612978565b5b92915050565b7f5052424d6174683a206f766572666c6f770000000000000000000000000000005f82015250565b5f613348601183612e24565b915061335382613314565b602082019050919050565b5f6020820190508181035f8301526133758161333c565b9050919050565b5f61338682612475565b915061339183612475565b9250828201905073ffffffffffffffffffffffffffffffffffffffff8111156133bd576133bc612978565b5b9291505056fea264697066735822122001f569d86aa03a33d1bd9400bc0ad1a8f02305822c506f18c435f7ffe893569a64736f6c634300081e0033",
					"opcodes": "PUSH1 0xC0 PUSH1 0x40 MSTORE CALLVALUE DUP1 ISZERO PUSH2 0xF JUMPI PUSH0 PUSH0 REVERT JUMPDEST POP PUSH1 0x40 MLOAD PUSH2 0x3697 CODESIZE SUB DUP1 PUSH2 0x3697 DUP4 CODECOPY DUP2 DUP2 ADD PUSH1 0x40 MSTORE DUP2 ADD SWAP1 PUSH2 0x31 SWAP2 SWAP1 PUSH2 0x1FD JUMP JUMPDEST DUP4 PUSH20 0xFFFFFFFFFFFFFFFFFFFFFFFFFFFFFFFFFFFFFFFF AND PUSH1 0x80 DUP2 PUSH20 0xFFFFFFFFFFFFFFFFFFFFFFFFFFFFFFFFFFFFFFFF AND DUP2 MSTORE POP POP DUP3 PUSH20 0xFFFFFFFFFFFFFFFFFFFFFFFFFFFFFFFFFFFFFFFF AND PUSH1 0xA0 DUP2 PUSH20 0xFFFFFFFFFFFFFFFFFFFFFFFFFFFFFFFFFFFFFFFF AND DUP2 MSTORE POP POP PUSH1 0x40 MLOAD DUP1 PUSH1 0x40 ADD PUSH1 0x40 MSTORE DUP1 DUP4 PUSH20 0xFFFFFFFFFFFFFFFFFFFFFFFFFFFFFFFFFFFFFFFF AND DUP2 MSTORE PUSH1 0x20 ADD DUP3 PUSH1 0x2 SIGNEXTEND DUP2 MSTORE POP PUSH0 PUSH0 DUP3 ADD MLOAD DUP2 PUSH0 ADD PUSH0 PUSH2 0x100 EXP DUP2 SLOAD DUP2 PUSH20 0xFFFFFFFFFFFFFFFFFFFFFFFFFFFFFFFFFFFFFFFF MUL NOT AND SWAP1 DUP4 PUSH20 0xFFFFFFFFFFFFFFFFFFFFFFFFFFFFFFFFFFFFFFFF AND MUL OR SWAP1 SSTORE POP PUSH1 0x20 DUP3 ADD MLOAD DUP2 PUSH0 ADD PUSH1 0x14 PUSH2 0x100 EXP DUP2 SLOAD DUP2 PUSH3 0xFFFFFF MUL NOT AND SWAP1 DUP4 PUSH1 0x2 SIGNEXTEND PUSH3 0xFFFFFF AND MUL OR SWAP1 SSTORE POP SWAP1 POP POP POP POP POP POP PUSH2 0x261 JUMP JUMPDEST PUSH0 PUSH0 REVERT JUMPDEST PUSH0 PUSH20 0xFFFFFFFFFFFFFFFFFFFFFFFFFFFFFFFFFFFFFFFF DUP3 AND SWAP1 POP SWAP2 SWAP1 POP JUMP JUMPDEST PUSH0 PUSH2 0x16C DUP3 PUSH2 0x143 JUMP JUMPDEST SWAP1 POP SWAP2 SWAP1 POP JUMP JUMPDEST PUSH2 0x17C DUP2 PUSH2 0x162 JUMP JUMPDEST DUP2 EQ PUSH2 0x186 JUMPI PUSH0 PUSH0 REVERT JUMPDEST POP JUMP JUMPDEST PUSH0 DUP2 MLOAD SWAP1 POP PUSH2 0x197 DUP2 PUSH2 0x173 JUMP JUMPDEST SWAP3 SWAP2 POP POP JUMP JUMPDEST PUSH2 0x1A6 DUP2 PUSH2 0x143 JUMP JUMPDEST DUP2 EQ PUSH2 0x1B0 JUMPI PUSH0 PUSH0 REVERT JUMPDEST POP JUMP JUMPDEST PUSH0 DUP2 MLOAD SWAP1 POP PUSH2 0x1C1 DUP2 PUSH2 0x19D JUMP JUMPDEST SWAP3 SWAP2 POP POP JUMP JUMPDEST PUSH0 DUP2 PUSH1 0x2 SIGNEXTEND SWAP1 POP SWAP2 SWAP1 POP JUMP JUMPDEST PUSH2 0x1DC DUP2 PUSH2 0x1C7 JUMP JUMPDEST DUP2 EQ PUSH2 0x1E6 JUMPI PUSH0 PUSH0 REVERT JUMPDEST POP JUMP JUMPDEST PUSH0 DUP2 MLOAD SWAP1 POP PUSH2 0x1F7 DUP2 PUSH2 0x1D3 JUMP JUMPDEST SWAP3 SWAP2 POP POP JUMP JUMPDEST PUSH0 PUSH0 PUSH0 PUSH0 PUSH1 0x80 DUP6 DUP8 SUB SLT ISZERO PUSH2 0x215 JUMPI PUSH2 0x214 PUSH2 0x13F JUMP JUMPDEST JUMPDEST PUSH0 PUSH2 0x222 DUP8 DUP3 DUP9 ADD PUSH2 0x189 JUMP JUMPDEST SWAP5 POP POP PUSH1 0x20 PUSH2 0x233 DUP8 DUP3 DUP9 ADD PUSH2 0x189 JUMP JUMPDEST SWAP4 POP POP PUSH1 0x40 PUSH2 0x244 DUP8 DUP3 DUP9 ADD PUSH2 0x1B3 JUMP JUMPDEST SWAP3 POP POP PUSH1 0x60 PUSH2 0x255 DUP8 DUP3 DUP9 ADD PUSH2 0x1E9 JUMP JUMPDEST SWAP2 POP POP SWAP3 SWAP6 SWAP2 SWAP5 POP SWAP3 POP JUMP JUMPDEST PUSH1 0x80 MLOAD PUSH1 0xA0 MLOAD PUSH2 0x33F9 PUSH2 0x29E PUSH0 CODECOPY PUSH0 DUP2 DUP2 PUSH2 0xAC4 ADD MSTORE DUP2 DUP2 PUSH2 0xE64 ADD MSTORE PUSH2 0x17AF ADD MSTORE PUSH0 DUP2 DUP2 PUSH2 0x203 ADD MSTORE DUP2 DUP2 PUSH2 0xC32 ADD MSTORE PUSH2 0x1711 ADD MSTORE PUSH2 0x33F9 PUSH0 RETURN INVALID PUSH1 0x80 PUSH1 0x40 MSTORE CALLVALUE DUP1 ISZERO PUSH2 0xF JUMPI PUSH0 PUSH0 REVERT JUMPDEST POP PUSH1 0x4 CALLDATASIZE LT PUSH2 0x91 JUMPI PUSH0 CALLDATALOAD PUSH1 0xE0 SHR DUP1 PUSH4 0x514EA4BF GT PUSH2 0x64 JUMPI DUP1 PUSH4 0x514EA4BF EQ PUSH2 0x121 JUMPI DUP1 PUSH4 0x5339C296 EQ PUSH2 0x151 JUMPI DUP1 PUSH4 0x80C2C6EF EQ PUSH2 0x181 JUMPI DUP1 PUSH4 0xD21220A7 EQ PUSH2 0x1B2 JUMPI DUP1 PUSH4 0xF30DBA93 EQ PUSH2 0x1D0 JUMPI PUSH2 0x91 JUMP JUMPDEST DUP1 PUSH4 0xDFE1681 EQ PUSH2 0x95 JUMPI DUP1 PUSH4 0x1A686502 EQ PUSH2 0xB3 JUMPI DUP1 PUSH4 0x3850C7BD EQ PUSH2 0xD1 JUMPI DUP1 PUSH4 0x3C8A7D8D EQ PUSH2 0xF0 JUMPI JUMPDEST PUSH0 PUSH0 REVERT JUMPDEST PUSH2 0x9D PUSH2 0x201 JUMP JUMPDEST PUSH1 0x40 MLOAD PUSH2 0xAA SWAP2 SWAP1 PUSH2 0x24B4 JUMP JUMPDEST PUSH1 0x40 MLOAD DUP1 SWAP2 SUB SWAP1 RETURN JUMPDEST PUSH2 0xBB PUSH2 0x225 JUMP JUMPDEST PUSH1 0x40 MLOAD PUSH2 0xC8 SWAP2 SWAP1 PUSH2 0x24F7 JUMP JUMPDEST PUSH1 0x40 MLOAD DUP1 SWAP2 SUB SWAP1 RETURN JUMPDEST PUSH2 0xD9 PUSH2 0x246 JUMP JUMPDEST PUSH1 0x40 MLOAD PUSH2 0xE7 SWAP3 SWAP2 SWAP1 PUSH2 0x253A JUMP JUMPDEST PUSH1 0x40 MLOAD DUP1 SWAP2 SUB SWAP1 RETURN JUMPDEST PUSH2 0x10A PUSH1 0x4 DUP1 CALLDATASIZE SUB DUP2 ADD SWAP1 PUSH2 0x105 SWAP2 SWAP1 PUSH2 0x2648 JUMP JUMPDEST PUSH2 0x281 JUMP JUMPDEST PUSH1 0x40 MLOAD PUSH2 0x118 SWAP3 SWAP2 SWAP1 PUSH2 0x26F6 JUMP JUMPDEST PUSH1 0x40 MLOAD DUP1 SWAP2 SUB SWAP1 RETURN JUMPDEST PUSH2 0x13B PUSH1 0x4 DUP1 CALLDATASIZE SUB DUP2 ADD SWAP1 PUSH2 0x136 SWAP2 SWAP1 PUSH2 0x2750 JUMP JUMPDEST PUSH2 0x73E JUMP JUMPDEST PUSH1 0x40 MLOAD PUSH2 0x148 SWAP2 SWAP1 PUSH2 0x24F7 JUMP JUMPDEST PUSH1 0x40 MLOAD DUP1 SWAP2 SUB SWAP1 RETURN JUMPDEST PUSH2 0x16B PUSH1 0x4 DUP1 CALLDATASIZE SUB DUP2 ADD SWAP1 PUSH2 0x166 SWAP2 SWAP1 PUSH2 0x27B1 JUMP JUMPDEST PUSH2 0x773 JUMP JUMPDEST PUSH1 0x40 MLOAD PUSH2 0x178 SWAP2 SWAP1 PUSH2 0x27DC JUMP JUMPDEST PUSH1 0x40 MLOAD DUP1 SWAP2 SUB SWAP1 RETURN JUMPDEST PUSH2 0x19B PUSH1 0x4 DUP1 CALLDATASIZE SUB DUP2 ADD SWAP1 PUSH2 0x196 SWAP2 SWAP1 PUSH2 0x2854 JUMP JUMPDEST PUSH2 0x788 JUMP JUMPDEST PUSH1 0x40 MLOAD PUSH2 0x1A9 SWAP3 SWAP2 SWAP1 PUSH2 0x28F0 JUMP JUMPDEST PUSH1 0x40 MLOAD DUP1 SWAP2 SUB SWAP1 RETURN JUMPDEST PUSH2 0x1BA PUSH2 0xE62 JUMP JUMPDEST PUSH1 0x40 MLOAD PUSH2 0x1C7 SWAP2 SWAP1 PUSH2 0x24B4 JUMP JUMPDEST PUSH1 0x40 MLOAD DUP1 SWAP2 SUB SWAP1 RETURN JUMPDEST PUSH2 0x1EA PUSH1 0x4 DUP1 CALLDATASIZE SUB DUP2 ADD SWAP1 PUSH2 0x1E5 SWAP2 SWAP1 PUSH2 0x2917 JUMP JUMPDEST PUSH2 0xE86 JUMP JUMPDEST PUSH1 0x40 MLOAD PUSH2 0x1F8 SWAP3 SWAP2 SWAP1 PUSH2 0x2951 JUMP JUMPDEST PUSH1 0x40 MLOAD DUP1 SWAP2 SUB SWAP1 RETURN JUMPDEST PUSH32 0x0 DUP2 JUMP JUMPDEST PUSH1 0x1 PUSH0 SWAP1 SLOAD SWAP1 PUSH2 0x100 EXP SWAP1 DIV PUSH16 0xFFFFFFFFFFFFFFFFFFFFFFFFFFFFFFFF AND DUP2 JUMP JUMPDEST PUSH0 DUP1 PUSH0 ADD PUSH0 SWAP1 SLOAD SWAP1 PUSH2 0x100 EXP SWAP1 DIV PUSH20 0xFFFFFFFFFFFFFFFFFFFFFFFFFFFFFFFFFFFFFFFF AND SWAP1 DUP1 PUSH0 ADD PUSH1 0x14 SWAP1 SLOAD SWAP1 PUSH2 0x100 EXP SWAP1 DIV PUSH1 0x2 SIGNEXTEND SWAP1 POP DUP3 JUMP JUMPDEST PUSH0 PUSH0 DUP6 PUSH1 0x2 SIGNEXTEND DUP8 PUSH1 0x2 SIGNEXTEND SLT ISZERO DUP1 PUSH2 0x2BD JUMPI POP PUSH32 0xFFFFFFFFFFFFFFFFFFFFFFFFFFFFFFFFFFFFFFFFFFFFFFFFFFFFFFFFFFF27618 PUSH1 0x2 SIGNEXTEND DUP8 PUSH1 0x2 SIGNEXTEND SLT JUMPDEST DUP1 PUSH2 0x2F6 JUMPI POP PUSH32 0xFFFFFFFFFFFFFFFFFFFFFFFFFFFFFFFFFFFFFFFFFFFFFFFFFFFFFFFFFFF27618 PUSH2 0x2ED SWAP1 PUSH2 0x29A5 JUMP JUMPDEST PUSH1 0x2 SIGNEXTEND DUP7 PUSH1 0x2 SIGNEXTEND SGT JUMPDEST ISZERO PUSH2 0x32D JUMPI PUSH1 0x40 MLOAD PUSH32 0x64847D000000000000000000000000000000000000000000000000000000000 DUP2 MSTORE PUSH1 0x4 ADD PUSH1 0x40 MLOAD DUP1 SWAP2 SUB SWAP1 REVERT JUMPDEST PUSH0 DUP6 PUSH16 0xFFFFFFFFFFFFFFFFFFFFFFFFFFFFFFFF AND SUB PUSH2 0x378 JUMPI PUSH1 0x40 MLOAD PUSH32 0x1007454800000000000000000000000000000000000000000000000000000000 DUP2 MSTORE PUSH1 0x4 ADD PUSH1 0x40 MLOAD DUP1 SWAP2 SUB SWAP1 REVERT JUMPDEST PUSH0 PUSH2 0x38F DUP9 DUP8 PUSH1 0x2 PUSH2 0xECD SWAP1 SWAP3 SWAP2 SWAP1 PUSH4 0xFFFFFFFF AND JUMP JUMPDEST SWAP1 POP PUSH0 PUSH2 0x3A8 DUP9 DUP9 PUSH1 0x2 PUSH2 0xECD SWAP1 SWAP3 SWAP2 SWAP1 PUSH4 0xFFFFFFFF AND JUMP JUMPDEST SWAP1 POP DUP2 ISZERO PUSH2 0x3C8 JUMPI PUSH2 0x3C7 DUP10 PUSH1 0x1 PUSH1 0x3 PUSH2 0xFC4 SWAP1 SWAP3 SWAP2 SWAP1 PUSH4 0xFFFFFFFF AND JUMP JUMPDEST JUMPDEST DUP1 ISZERO PUSH2 0x3E6 JUMPI PUSH2 0x3E5 DUP9 PUSH1 0x1 PUSH1 0x3 PUSH2 0xFC4 SWAP1 SWAP3 SWAP2 SWAP1 PUSH4 0xFFFFFFFF AND JUMP JUMPDEST JUMPDEST PUSH0 PUSH2 0x3FF DUP12 DUP12 DUP12 PUSH1 0x4 PUSH2 0x102D SWAP1 SWAP4 SWAP3 SWAP2 SWAP1 PUSH4 0xFFFFFFFF AND JUMP JUMPDEST SWAP1 POP PUSH2 0x414 DUP9 DUP3 PUSH2 0x1072 SWAP1 SWAP2 SWAP1 PUSH4 0xFFFFFFFF AND JUMP JUMPDEST PUSH0 PUSH0 PUSH1 0x40 MLOAD DUP1 PUSH1 0x40 ADD PUSH1 0x40 MSTORE SWAP1 DUP2 PUSH0 DUP3 ADD PUSH0 SWAP1 SLOAD SWAP1 PUSH2 0x100 EXP SWAP1 DIV PUSH20 0xFFFFFFFFFFFFFFFFFFFFFFFFFFFFFFFFFFFFFFFF AND PUSH20 0xFFFFFFFFFFFFFFFFFFFFFFFFFFFFFFFFFFFFFFFF AND PUSH20 0xFFFFFFFFFFFFFFFFFFFFFFFFFFFFFFFFFFFFFFFF AND DUP2 MSTORE PUSH1 0x20 ADD PUSH0 DUP3 ADD PUSH1 0x14 SWAP1 SLOAD SWAP1 PUSH2 0x100 EXP SWAP1 DIV PUSH1 0x2 SIGNEXTEND PUSH1 0x2 SIGNEXTEND PUSH1 0x2 SIGNEXTEND DUP2 MSTORE POP POP SWAP1 POP DUP11 PUSH1 0x2 SIGNEXTEND DUP2 PUSH1 0x20 ADD MLOAD PUSH1 0x2 SIGNEXTEND SLT ISZERO PUSH2 0x4C7 JUMPI PUSH2 0x4C0 PUSH2 0x4B1 DUP13 PUSH2 0x10E2 JUMP JUMPDEST PUSH2 0x4BA DUP13 PUSH2 0x10E2 JUMP JUMPDEST DUP12 PUSH2 0x1596 JUMP JUMPDEST SWAP6 POP PUSH2 0x58F JUMP JUMPDEST DUP10 PUSH1 0x2 SIGNEXTEND DUP2 PUSH1 0x20 ADD MLOAD PUSH1 0x2 SIGNEXTEND SLT ISZERO PUSH2 0x570 JUMPI PUSH2 0x4EF DUP2 PUSH0 ADD MLOAD PUSH2 0x4E9 DUP13 PUSH2 0x10E2 JUMP JUMPDEST DUP12 PUSH2 0x1596 JUMP JUMPDEST SWAP6 POP PUSH2 0x507 DUP2 PUSH0 ADD MLOAD PUSH2 0x501 DUP14 PUSH2 0x10E2 JUMP JUMPDEST DUP12 PUSH2 0x167A JUMP JUMPDEST SWAP5 POP DUP9 PUSH1 0x1 PUSH0 DUP3 DUP3 DUP3 SWAP1 SLOAD SWAP1 PUSH2 0x100 EXP SWAP1 DIV PUSH16 0xFFFFFFFFFFFFFFFFFFFFFFFFFFFFFFFF AND PUSH2 0x535 SWAP2 SWAP1 PUSH2 0x29EB JUMP JUMPDEST SWAP3 POP PUSH2 0x100 EXP DUP2 SLOAD DUP2 PUSH16 0xFFFFFFFFFFFFFFFFFFFFFFFFFFFFFFFF MUL NOT AND SWAP1 DUP4 PUSH16 0xFFFFFFFFFFFFFFFFFFFFFFFFFFFFFFFF AND MUL OR SWAP1 SSTORE POP PUSH2 0x58E JUMP JUMPDEST PUSH2 0x58B PUSH2 0x57C DUP13 PUSH2 0x10E2 JUMP JUMPDEST PUSH2 0x585 DUP13 PUSH2 0x10E2 JUMP JUMPDEST DUP12 PUSH2 0x167A JUMP JUMPDEST SWAP5 POP JUMPDEST JUMPDEST PUSH0 PUSH0 PUSH0 DUP9 GT ISZERO PUSH2 0x5A4 JUMPI PUSH2 0x5A1 PUSH2 0x170E JUMP JUMPDEST SWAP2 POP JUMPDEST PUSH0 DUP8 GT ISZERO PUSH2 0x5B7 JUMPI PUSH2 0x5B4 PUSH2 0x17AC JUMP JUMPDEST SWAP1 POP JUMPDEST CALLER PUSH20 0xFFFFFFFFFFFFFFFFFFFFFFFFFFFFFFFFFFFFFFFF AND PUSH4 0xD3487997 DUP10 DUP10 DUP14 DUP14 PUSH1 0x40 MLOAD DUP6 PUSH4 0xFFFFFFFF AND PUSH1 0xE0 SHL DUP2 MSTORE PUSH1 0x4 ADD PUSH2 0x5F6 SWAP5 SWAP4 SWAP3 SWAP2 SWAP1 PUSH2 0x2A88 JUMP JUMPDEST PUSH0 PUSH1 0x40 MLOAD DUP1 DUP4 SUB DUP2 PUSH0 DUP8 DUP1 EXTCODESIZE ISZERO DUP1 ISZERO PUSH2 0x60D JUMPI PUSH0 PUSH0 REVERT JUMPDEST POP GAS CALL ISZERO DUP1 ISZERO PUSH2 0x61F JUMPI RETURNDATASIZE PUSH0 PUSH0 RETURNDATACOPY RETURNDATASIZE PUSH0 REVERT JUMPDEST POP POP POP POP PUSH0 DUP9 GT DUP1 ISZERO PUSH2 0x643 JUMPI POP PUSH2 0x635 PUSH2 0x170E JUMP JUMPDEST DUP9 DUP4 PUSH2 0x641 SWAP2 SWAP1 PUSH2 0x2AC6 JUMP JUMPDEST GT JUMPDEST ISZERO PUSH2 0x67A JUMPI PUSH1 0x40 MLOAD PUSH32 0x98FB56100000000000000000000000000000000000000000000000000000000 DUP2 MSTORE PUSH1 0x4 ADD PUSH1 0x40 MLOAD DUP1 SWAP2 SUB SWAP1 REVERT JUMPDEST PUSH0 DUP8 GT DUP1 ISZERO PUSH2 0x69A JUMPI POP PUSH2 0x68C PUSH2 0x17AC JUMP JUMPDEST DUP8 DUP3 PUSH2 0x698 SWAP2 SWAP1 PUSH2 0x2AC6 JUMP JUMPDEST GT JUMPDEST ISZERO PUSH2 0x6D1 JUMPI PUSH1 0x40 MLOAD PUSH32 0x98FB56100000000000000000000000000000000000000000000000000000000 DUP2 MSTORE PUSH1 0x4 ADD PUSH1 0x40 MLOAD DUP1 SWAP2 SUB SWAP1 REVERT JUMPDEST DUP12 PUSH1 0x2 SIGNEXTEND DUP14 PUSH1 0x2 SIGNEXTEND DUP16 PUSH20 0xFFFFFFFFFFFFFFFFFFFFFFFFFFFFFFFFFFFFFFFF AND PUSH32 0x7A53080BA414158BE7EC69B987B5FB7D07DEE101FE85488F0853AE16239D0BDE CALLER DUP16 DUP14 DUP14 PUSH1 0x40 MLOAD PUSH2 0x725 SWAP5 SWAP4 SWAP3 SWAP2 SWAP1 PUSH2 0x2AF9 JUMP JUMPDEST PUSH1 0x40 MLOAD DUP1 SWAP2 SUB SWAP1 LOG4 POP POP POP POP POP POP SWAP7 POP SWAP7 SWAP5 POP POP POP POP POP JUMP JUMPDEST PUSH1 0x4 PUSH1 0x20 MSTORE DUP1 PUSH0 MSTORE PUSH1 0x40 PUSH0 KECCAK256 PUSH0 SWAP2 POP SWAP1 POP DUP1 PUSH0 ADD PUSH0 SWAP1 SLOAD SWAP1 PUSH2 0x100 EXP SWAP1 DIV PUSH16 0xFFFFFFFFFFFFFFFFFFFFFFFFFFFFFFFF AND SWAP1 POP DUP2 JUMP JUMPDEST PUSH1 0x3 PUSH1 0x20 MSTORE DUP1 PUSH0 MSTORE PUSH1 0x40 PUSH0 KECCAK256 PUSH0 SWAP2 POP SWAP1 POP SLOAD DUP2 JUMP JUMPDEST PUSH0 PUSH0 PUSH0 PUSH0 PUSH1 0x40 MLOAD DUP1 PUSH1 0x40 ADD PUSH1 0x40 MSTORE SWAP1 DUP2 PUSH0 DUP3 ADD PUSH0 SWAP1 SLOAD SWAP1 PUSH2 0x100 EXP SWAP1 DIV PUSH20 0xFFFFFFFFFFFFFFFFFFFFFFFFFFFFFFFFFFFFFFFF AND PUSH20 0xFFFFFFFFFFFFFFFFFFFFFFFFFFFFFFFFFFFFFFFF AND PUSH20 0xFFFFFFFFFFFFFFFFFFFFFFFFFFFFFFFFFFFFFFFF AND DUP2 MSTORE PUSH1 0x20 ADD PUSH0 DUP3 ADD PUSH1 0x14 SWAP1 SLOAD SWAP1 PUSH2 0x100 EXP SWAP1 DIV PUSH1 0x2 SIGNEXTEND PUSH1 0x2 SIGNEXTEND PUSH1 0x2 SIGNEXTEND DUP2 MSTORE POP POP SWAP1 POP PUSH0 PUSH1 0x40 MLOAD DUP1 PUSH1 0x80 ADD PUSH1 0x40 MSTORE DUP1 DUP9 DUP2 MSTORE PUSH1 0x20 ADD PUSH0 DUP2 MSTORE PUSH1 0x20 ADD DUP4 PUSH0 ADD MLOAD PUSH20 0xFFFFFFFFFFFFFFFFFFFFFFFFFFFFFFFFFFFFFFFF AND DUP2 MSTORE PUSH1 0x20 ADD DUP4 PUSH1 0x20 ADD MLOAD PUSH1 0x2 SIGNEXTEND DUP2 MSTORE POP SWAP1 POP JUMPDEST PUSH0 DUP2 PUSH0 ADD MLOAD GT ISZERO PUSH2 0x9E5 JUMPI PUSH2 0x861 PUSH2 0x241C JUMP JUMPDEST DUP2 PUSH1 0x40 ADD MLOAD DUP2 PUSH0 ADD SWAP1 PUSH20 0xFFFFFFFFFFFFFFFFFFFFFFFFFFFFFFFFFFFFFFFF AND SWAP1 DUP2 PUSH20 0xFFFFFFFFFFFFFFFFFFFFFFFFFFFFFFFFFFFFFFFF AND DUP2 MSTORE POP POP PUSH2 0x8B9 DUP3 PUSH1 0x60 ADD MLOAD PUSH1 0x1 DUP12 PUSH1 0x3 PUSH2 0x184A SWAP1 SWAP4 SWAP3 SWAP2 SWAP1 PUSH4 0xFFFFFFFF AND JUMP JUMPDEST POP DUP2 PUSH1 0x20 ADD DUP2 PUSH1 0x2 SIGNEXTEND PUSH1 0x2 SIGNEXTEND DUP2 MSTORE POP POP PUSH2 0x8D6 DUP2 PUSH1 0x20 ADD MLOAD PUSH2 0x10E2 JUMP JUMPDEST DUP2 PUSH1 0x40 ADD SWAP1 PUSH20 0xFFFFFFFFFFFFFFFFFFFFFFFFFFFFFFFFFFFFFFFF AND SWAP1 DUP2 PUSH20 0xFFFFFFFFFFFFFFFFFFFFFFFFFFFFFFFFFFFFFFFF AND DUP2 MSTORE POP POP PUSH2 0x941 DUP3 PUSH1 0x40 ADD MLOAD DUP3 PUSH1 0x40 ADD MLOAD PUSH1 0x1 PUSH0 SWAP1 SLOAD SWAP1 PUSH2 0x100 EXP SWAP1 DIV PUSH16 0xFFFFFFFFFFFFFFFFFFFFFFFFFFFFFFFF AND DUP6 PUSH0 ADD MLOAD PUSH2 0x1A28 JUMP JUMPDEST DUP5 PUSH1 0x40 ADD DUP5 PUSH1 0x60 ADD DUP6 PUSH1 0x80 ADD DUP4 DUP2 MSTORE POP DUP4 DUP2 MSTORE POP DUP4 PUSH20 0xFFFFFFFFFFFFFFFFFFFFFFFFFFFFFFFFFFFFFFFF AND PUSH20 0xFFFFFFFFFFFFFFFFFFFFFFFFFFFFFFFFFFFFFFFF AND DUP2 MSTORE POP POP POP POP DUP1 PUSH1 0x60 ADD MLOAD DUP3 PUSH0 ADD DUP2 DUP2 MLOAD PUSH2 0x99D SWAP2 SWAP1 PUSH2 0x2B3C JUMP JUMPDEST SWAP2 POP DUP2 DUP2 MSTORE POP POP DUP1 PUSH1 0x80 ADD MLOAD DUP3 PUSH1 0x20 ADD DUP2 DUP2 MLOAD PUSH2 0x9BA SWAP2 SWAP1 PUSH2 0x2AC6 JUMP JUMPDEST SWAP2 POP DUP2 DUP2 MSTORE POP POP PUSH2 0x9CE DUP3 PUSH1 0x40 ADD MLOAD PUSH2 0x1AA1 JUMP JUMPDEST DUP3 PUSH1 0x60 ADD SWAP1 PUSH1 0x2 SIGNEXTEND SWAP1 DUP2 PUSH1 0x2 SIGNEXTEND DUP2 MSTORE POP POP POP PUSH2 0x84E JUMP JUMPDEST DUP2 PUSH1 0x20 ADD MLOAD PUSH1 0x2 SIGNEXTEND DUP2 PUSH1 0x60 ADD MLOAD PUSH1 0x2 SIGNEXTEND EQ PUSH2 0xA6F JUMPI DUP1 PUSH1 0x40 ADD MLOAD DUP2 PUSH1 0x60 ADD MLOAD PUSH0 PUSH0 ADD PUSH0 PUSH0 PUSH0 ADD PUSH1 0x14 DUP5 SWAP2 SWAP1 PUSH2 0x100 EXP DUP2 SLOAD DUP2 PUSH3 0xFFFFFF MUL NOT AND SWAP1 DUP4 PUSH1 0x2 SIGNEXTEND PUSH3 0xFFFFFF AND MUL OR SWAP1 SSTORE POP DUP4 SWAP2 SWAP1 PUSH2 0x100 EXP DUP2 SLOAD DUP2 PUSH20 0xFFFFFFFFFFFFFFFFFFFFFFFFFFFFFFFFFFFFFFFF MUL NOT AND SWAP1 DUP4 PUSH20 0xFFFFFFFFFFFFFFFFFFFFFFFFFFFFFFFFFFFFFFFF AND MUL OR SWAP1 SSTORE POP POP POP JUMPDEST DUP8 PUSH2 0xA96 JUMPI DUP1 PUSH1 0x20 ADD MLOAD PUSH2 0xA82 SWAP1 PUSH2 0x2B6F JUMP JUMPDEST DUP2 PUSH0 ADD MLOAD DUP9 PUSH2 0xA91 SWAP2 SWAP1 PUSH2 0x2B3C JUMP JUMPDEST PUSH2 0xAB4 JUMP JUMPDEST DUP1 PUSH0 ADD MLOAD DUP8 PUSH2 0xAA5 SWAP2 SWAP1 PUSH2 0x2B3C JUMP JUMPDEST DUP2 PUSH1 0x20 ADD MLOAD PUSH2 0xAB3 SWAP1 PUSH2 0x2B6F JUMP JUMPDEST JUMPDEST DUP1 SWAP5 POP DUP2 SWAP6 POP POP POP DUP8 ISZERO PUSH2 0xC30 JUMPI PUSH32 0x0 PUSH20 0xFFFFFFFFFFFFFFFFFFFFFFFFFFFFFFFFFFFFFFFF AND PUSH4 0xA9059CBB DUP11 DUP6 PUSH2 0xB09 SWAP1 PUSH2 0x2B6F JUMP JUMPDEST PUSH1 0x40 MLOAD DUP4 PUSH4 0xFFFFFFFF AND PUSH1 0xE0 SHL DUP2 MSTORE PUSH1 0x4 ADD PUSH2 0xB26 SWAP3 SWAP2 SWAP1 PUSH2 0x2BB5 JUMP JUMPDEST PUSH1 0x20 PUSH1 0x40 MLOAD DUP1 DUP4 SUB DUP2 PUSH0 DUP8 GAS CALL ISZERO DUP1 ISZERO PUSH2 0xB42 JUMPI RETURNDATASIZE PUSH0 PUSH0 RETURNDATACOPY RETURNDATASIZE PUSH0 REVERT JUMPDEST POP POP POP POP PUSH1 0x40 MLOAD RETURNDATASIZE PUSH1 0x1F NOT PUSH1 0x1F DUP3 ADD AND DUP3 ADD DUP1 PUSH1 0x40 MSTORE POP DUP2 ADD SWAP1 PUSH2 0xB66 SWAP2 SWAP1 PUSH2 0x2BF0 JUMP JUMPDEST POP PUSH0 PUSH2 0xB70 PUSH2 0x170E JUMP JUMPDEST SWAP1 POP CALLER PUSH20 0xFFFFFFFFFFFFFFFFFFFFFFFFFFFFFFFFFFFFFFFF AND PUSH4 0xFA461E33 DUP7 DUP7 DUP11 DUP11 PUSH1 0x40 MLOAD DUP6 PUSH4 0xFFFFFFFF AND PUSH1 0xE0 SHL DUP2 MSTORE PUSH1 0x4 ADD PUSH2 0xBB1 SWAP5 SWAP4 SWAP3 SWAP2 SWAP1 PUSH2 0x2C1B JUMP JUMPDEST PUSH0 PUSH1 0x40 MLOAD DUP1 DUP4 SUB DUP2 PUSH0 DUP8 DUP1 EXTCODESIZE ISZERO DUP1 ISZERO PUSH2 0xBC8 JUMPI PUSH0 PUSH0 REVERT JUMPDEST POP GAS CALL ISZERO DUP1 ISZERO PUSH2 0xBDA JUMPI RETURNDATASIZE PUSH0 PUSH0 RETURNDATACOPY RETURNDATASIZE PUSH0 REVERT JUMPDEST POP POP POP POP PUSH2 0xBE6 PUSH2 0x170E JUMP JUMPDEST DUP6 DUP3 PUSH2 0xBF2 SWAP2 SWAP1 PUSH2 0x2AC6 JUMP JUMPDEST GT ISZERO PUSH2 0xC2A JUMPI PUSH1 0x40 MLOAD PUSH32 0x98FB56100000000000000000000000000000000000000000000000000000000 DUP2 MSTORE PUSH1 0x4 ADD PUSH1 0x40 MLOAD DUP1 SWAP2 SUB SWAP1 REVERT JUMPDEST POP PUSH2 0xD9A JUMP JUMPDEST PUSH32 0x0 PUSH20 0xFFFFFFFFFFFFFFFFFFFFFFFFFFFFFFFFFFFFFFFF AND PUSH4 0xA9059CBB DUP11 DUP7 PUSH2 0xC77 SWAP1 PUSH2 0x2B6F JUMP JUMPDEST PUSH1 0x40 MLOAD DUP4 PUSH4 0xFFFFFFFF AND PUSH1 0xE0 SHL DUP2 MSTORE PUSH1 0x4 ADD PUSH2 0xC94 SWAP3 SWAP2 SWAP1 PUSH2 0x2BB5 JUMP JUMPDEST PUSH1 0x20 PUSH1 0x40 MLOAD DUP1 DUP4 SUB DUP2 PUSH0 DUP8 GAS CALL ISZERO DUP1 ISZERO PUSH2 0xCB0 JUMPI RETURNDATASIZE PUSH0 PUSH0 RETURNDATACOPY RETURNDATASIZE PUSH0 REVERT JUMPDEST POP POP POP POP PUSH1 0x40 MLOAD RETURNDATASIZE PUSH1 0x1F NOT PUSH1 0x1F DUP3 ADD AND DUP3 ADD DUP1 PUSH1 0x40 MSTORE POP DUP2 ADD SWAP1 PUSH2 0xCD4 SWAP2 SWAP1 PUSH2 0x2BF0 JUMP JUMPDEST POP PUSH0 PUSH2 0xCDE PUSH2 0x17AC JUMP JUMPDEST SWAP1 POP CALLER PUSH20 0xFFFFFFFFFFFFFFFFFFFFFFFFFFFFFFFFFFFFFFFF AND PUSH4 0xFA461E33 DUP7 DUP7 DUP11 DUP11 PUSH1 0x40 MLOAD DUP6 PUSH4 0xFFFFFFFF AND PUSH1 0xE0 SHL DUP2 MSTORE PUSH1 0x4 ADD PUSH2 0xD1F SWAP5 SWAP4 SWAP3 SWAP2 SWAP1 PUSH2 0x2C1B JUMP JUMPDEST PUSH0 PUSH1 0x40 MLOAD DUP1 DUP4 SUB DUP2 PUSH0 DUP8 DUP1 EXTCODESIZE ISZERO DUP1 ISZERO PUSH2 0xD36 JUMPI PUSH0 PUSH0 REVERT JUMPDEST POP GAS CALL ISZERO DUP1 ISZERO PUSH2 0xD48 JUMPI RETURNDATASIZE PUSH0 PUSH0 RETURNDATACOPY RETURNDATASIZE PUSH0 REVERT JUMPDEST POP POP POP POP PUSH2 0xD54 PUSH2 0x17AC JUMP JUMPDEST DUP5 DUP3 PUSH2 0xD60 SWAP2 SWAP1 PUSH2 0x2AC6 JUMP JUMPDEST GT ISZERO PUSH2 0xD98 JUMPI PUSH1 0x40 MLOAD PUSH32 0x98FB56100000000000000000000000000000000000000000000000000000000 DUP2 MSTORE PUSH1 0x4 ADD PUSH1 0x40 MLOAD DUP1 SWAP2 SUB SWAP1 REVERT JUMPDEST POP JUMPDEST DUP9 PUSH20 0xFFFFFFFFFFFFFFFFFFFFFFFFFFFFFFFFFFFFFFFF AND CALLER PUSH20 0xFFFFFFFFFFFFFFFFFFFFFFFFFFFFFFFFFFFFFFFF AND PUSH32 0xC42079F94A6350D7E6235F29174924F928CC2AC818EB64FED8004E115FBCCA67 DUP7 DUP7 PUSH0 PUSH0 ADD PUSH0 SWAP1 SLOAD SWAP1 PUSH2 0x100 EXP SWAP1 DIV PUSH20 0xFFFFFFFFFFFFFFFFFFFFFFFFFFFFFFFFFFFFFFFF AND PUSH1 0x1 PUSH0 SWAP1 SLOAD SWAP1 PUSH2 0x100 EXP SWAP1 DIV PUSH16 0xFFFFFFFFFFFFFFFFFFFFFFFFFFFFFFFF AND PUSH0 PUSH0 ADD PUSH1 0x14 SWAP1 SLOAD SWAP1 PUSH2 0x100 EXP SWAP1 DIV PUSH1 0x2 SIGNEXTEND PUSH1 0x40 MLOAD PUSH2 0xE4E SWAP6 SWAP5 SWAP4 SWAP3 SWAP2 SWAP1 PUSH2 0x2C59 JUMP JUMPDEST PUSH1 0x40 MLOAD DUP1 SWAP2 SUB SWAP1 LOG3 POP POP SWAP6 POP SWAP6 SWAP4 POP POP POP POP JUMP JUMPDEST PUSH32 0x0 DUP2 JUMP JUMPDEST PUSH1 0x2 PUSH1 0x20 MSTORE DUP1 PUSH0 MSTORE PUSH1 0x40 PUSH0 KECCAK256 PUSH0 SWAP2 POP SWAP1 POP DUP1 PUSH0 ADD PUSH0 SWAP1 SLOAD SWAP1 PUSH2 0x100 EXP SWAP1 DIV PUSH1 0xFF AND SWAP1 DUP1 PUSH0 ADD PUSH1 0x1 SWAP1 SLOAD SWAP1 PUSH2 0x100 EXP SWAP1 DIV PUSH16 0xFFFFFFFFFFFFFFFFFFFFFFFFFFFFFFFF AND SWAP1 POP DUP3 JUMP JUMPDEST PUSH0 PUSH0 DUP5 PUSH0 DUP6 PUSH1 0x2 SIGNEXTEND PUSH1 0x2 SIGNEXTEND DUP2 MSTORE PUSH1 0x20 ADD SWAP1 DUP2 MSTORE PUSH1 0x20 ADD PUSH0 KECCAK256 SWAP1 POP PUSH0 DUP2 PUSH0 ADD PUSH1 0x1 SWAP1 SLOAD SWAP1 PUSH2 0x100 EXP SWAP1 DIV PUSH16 0xFFFFFFFFFFFFFFFFFFFFFFFFFFFFFFFF AND SWAP1 POP PUSH0 DUP5 DUP3 PUSH2 0xF17 SWAP2 SWAP1 PUSH2 0x29EB JUMP JUMPDEST SWAP1 POP PUSH0 DUP3 PUSH16 0xFFFFFFFFFFFFFFFFFFFFFFFFFFFFFFFF AND EQ ISZERO ISZERO PUSH0 DUP3 PUSH16 0xFFFFFFFFFFFFFFFFFFFFFFFFFFFFFFFF AND EQ ISZERO ISZERO EQ ISZERO SWAP4 POP PUSH0 DUP3 PUSH16 0xFFFFFFFFFFFFFFFFFFFFFFFFFFFFFFFF AND SUB PUSH2 0xF80 JUMPI PUSH1 0x1 DUP4 PUSH0 ADD PUSH0 PUSH2 0x100 EXP DUP2 SLOAD DUP2 PUSH1 0xFF MUL NOT AND SWAP1 DUP4 ISZERO ISZERO MUL OR SWAP1 SSTORE POP JUMPDEST DUP1 DUP4 PUSH0 ADD PUSH1 0x1 PUSH2 0x100 EXP DUP2 SLOAD DUP2 PUSH16 0xFFFFFFFFFFFFFFFFFFFFFFFFFFFFFFFF MUL NOT AND SWAP1 DUP4 PUSH16 0xFFFFFFFFFFFFFFFFFFFFFFFFFFFFFFFF AND MUL OR SWAP1 SSTORE POP POP POP POP SWAP4 SWAP3 POP POP POP JUMP JUMPDEST PUSH0 DUP2 DUP4 PUSH2 0xFD1 SWAP2 SWAP1 PUSH2 0x2CD7 JUMP JUMPDEST PUSH1 0x2 SIGNEXTEND EQ PUSH2 0xFDD JUMPI PUSH0 PUSH0 REVERT JUMPDEST PUSH0 PUSH0 PUSH2 0xFF3 DUP4 DUP6 PUSH2 0xFEE SWAP2 SWAP1 PUSH2 0x2D07 JUMP JUMPDEST PUSH2 0x1E9B JUMP JUMPDEST SWAP2 POP SWAP2 POP PUSH0 DUP2 PUSH1 0xFF AND PUSH1 0x1 SWAP1 SHL SWAP1 POP DUP1 DUP7 PUSH0 DUP6 PUSH1 0x1 SIGNEXTEND PUSH1 0x1 SIGNEXTEND DUP2 MSTORE PUSH1 0x20 ADD SWAP1 DUP2 MSTORE PUSH1 0x20 ADD PUSH0 KECCAK256 PUSH0 DUP3 DUP3 SLOAD XOR SWAP3 POP POP DUP2 SWAP1 SSTORE POP POP POP POP POP POP POP JUMP JUMPDEST PUSH0 DUP5 PUSH0 DUP6 DUP6 DUP6 PUSH1 0x40 MLOAD PUSH1 0x20 ADD PUSH2 0x1045 SWAP4 SWAP3 SWAP2 SWAP1 PUSH2 0x2DE8 JUMP JUMPDEST PUSH1 0x40 MLOAD PUSH1 0x20 DUP2 DUP4 SUB SUB DUP2 MSTORE SWAP1 PUSH1 0x40 MSTORE DUP1 MLOAD SWAP1 PUSH1 0x20 ADD KECCAK256 DUP2 MSTORE PUSH1 0x20 ADD SWAP1 DUP2 MSTORE PUSH1 0x20 ADD PUSH0 KECCAK256 SWAP1 POP SWAP5 SWAP4 POP POP POP POP JUMP JUMPDEST PUSH0 DUP3 PUSH0 ADD PUSH0 SWAP1 SLOAD SWAP1 PUSH2 0x100 EXP SWAP1 DIV PUSH16 0xFFFFFFFFFFFFFFFFFFFFFFFFFFFFFFFF AND SWAP1 POP PUSH0 DUP3 DUP3 PUSH2 0x10A1 SWAP2 SWAP1 PUSH2 0x29EB JUMP JUMPDEST SWAP1 POP DUP1 DUP5 PUSH0 ADD PUSH0 PUSH2 0x100 EXP DUP2 SLOAD DUP2 PUSH16 0xFFFFFFFFFFFFFFFFFFFFFFFFFFFFFFFF MUL NOT AND SWAP1 DUP4 PUSH16 0xFFFFFFFFFFFFFFFFFFFFFFFFFFFFFFFF AND MUL OR SWAP1 SSTORE POP POP POP POP POP JUMP JUMPDEST PUSH0 PUSH0 PUSH0 DUP4 PUSH1 0x2 SIGNEXTEND SLT PUSH2 0x10F7 JUMPI DUP3 PUSH1 0x2 SIGNEXTEND PUSH2 0x1105 JUMP JUMPDEST DUP3 PUSH1 0x2 SIGNEXTEND PUSH2 0x1104 SWAP1 PUSH2 0x2B6F JUMP JUMPDEST JUMPDEST SWAP1 POP PUSH32 0xFFFFFFFFFFFFFFFFFFFFFFFFFFFFFFFFFFFFFFFFFFFFFFFFFFFFFFFFFFF27618 PUSH2 0x1131 SWAP1 PUSH2 0x29A5 JUMP JUMPDEST PUSH3 0xFFFFFF AND DUP2 GT ISZERO PUSH2 0x1178 JUMPI PUSH1 0x40 MLOAD PUSH32 0x8C379A000000000000000000000000000000000000000000000000000000000 DUP2 MSTORE PUSH1 0x4 ADD PUSH2 0x116F SWAP1 PUSH2 0x2E7E JUMP JUMPDEST PUSH1 0x40 MLOAD DUP1 SWAP2 SUB SWAP1 REVERT JUMPDEST PUSH0 PUSH0 PUSH1 0x1 DUP4 AND SUB PUSH2 0x119A JUMPI PUSH17 0x100000000000000000000000000000000 PUSH2 0x11AC JUMP JUMPDEST PUSH16 0xFFFCB933BD6FAD37AA2D162D1A594001 JUMPDEST PUSH17 0xFFFFFFFFFFFFFFFFFFFFFFFFFFFFFFFFFF AND SWAP1 POP PUSH0 PUSH1 0x2 DUP4 AND EQ PUSH2 0x11EE JUMPI PUSH1 0x80 PUSH16 0xFFF97272373D413259A46990580E213A DUP3 PUSH2 0x11E9 SWAP2 SWAP1 PUSH2 0x2E9C JUMP JUMPDEST SWAP1 SHR SWAP1 POP JUMPDEST PUSH0 PUSH1 0x4 DUP4 AND EQ PUSH2 0x121B JUMPI PUSH1 0x80 PUSH16 0xFFF2E50F5F656932EF12357CF3C7FDCC DUP3 PUSH2 0x1216 SWAP2 SWAP1 PUSH2 0x2E9C JUMP JUMPDEST SWAP1 SHR SWAP1 POP JUMPDEST PUSH0 PUSH1 0x8 DUP4 AND EQ PUSH2 0x1248 JUMPI PUSH1 0x80 PUSH16 0xFFE5CACA7E10E4E61C3624EAA0941CD0 DUP3 PUSH2 0x1243 SWAP2 SWAP1 PUSH2 0x2E9C JUMP JUMPDEST SWAP1 SHR SWAP1 POP JUMPDEST PUSH0 PUSH1 0x10 DUP4 AND EQ PUSH2 0x1275 JUMPI PUSH1 0x80 PUSH16 0xFFCB9843D60F6159C9DB58835C926644 DUP3 PUSH2 0x1270 SWAP2 SWAP1 PUSH2 0x2E9C JUMP JUMPDEST SWAP1 SHR SWAP1 POP JUMPDEST PUSH0 PUSH1 0x20 DUP4 AND EQ PUSH2 0x12A2 JUMPI PUSH1 0x80 PUSH16 0xFF973B41FA98C081472E6896DFB254C0 DUP3 PUSH2 0x129D SWAP2 SWAP1 PUSH2 0x2E9C JUMP JUMPDEST SWAP1 SHR SWAP1 POP JUMPDEST PUSH0 PUSH1 0x40 DUP4 AND EQ PUSH2 0x12CF JUMPI PUSH1 0x80 PUSH16 0xFF2EA16466C96A3843EC78B326B52861 DUP3 PUSH2 0x12CA SWAP2 SWAP1 PUSH2 0x2E9C JUMP JUMPDEST SWAP1 SHR SWAP1 POP JUMPDEST PUSH0 PUSH1 0x80 DUP4 AND EQ PUSH2 0x12FC JUMPI PUSH1 0x80 PUSH16 0xFE5DEE046A99A2A811C461F1969C3053 DUP3 PUSH2 0x12F7 SWAP2 SWAP1 PUSH2 0x2E9C JUMP JUMPDEST SWAP1 SHR SWAP1 POP JUMPDEST PUSH0 PUSH2 0x100 DUP4 AND EQ PUSH2 0x132A JUMPI PUSH1 0x80 PUSH16 0xFCBE86C7900A88AEDCFFC83B479AA3A4 DUP3 PUSH2 0x1325 SWAP2 SWAP1 PUSH2 0x2E9C JUMP JUMPDEST SWAP1 SHR SWAP1 POP JUMPDEST PUSH0 PUSH2 0x200 DUP4 AND EQ PUSH2 0x1358 JUMPI PUSH1 0x80 PUSH16 0xF987A7253AC413176F2B074CF7815E54 DUP3 PUSH2 0x1353 SWAP2 SWAP1 PUSH2 0x2E9C JUMP JUMPDEST SWAP1 SHR SWAP1 POP JUMPDEST PUSH0 PUSH2 0x400 DUP4 AND EQ PUSH2 0x1386 JUMPI PUSH1 0x80 PUSH16 0xF3392B0822B70005940C7A398E4B70F3 DUP3 PUSH2 0x1381 SWAP2 SWAP1 PUSH2 0x2E9C JUMP JUMPDEST SWAP1 SHR SWAP1 POP JUMPDEST PUSH0 PUSH2 0x800 DUP4 AND EQ PUSH2 0x13B4 JUMPI PUSH1 0x80 PUSH16 0xE7159475A2C29B7443B29C7FA6E889D9 DUP3 PUSH2 0x13AF SWAP2 SWAP1 PUSH2 0x2E9C JUMP JUMPDEST SWAP1 SHR SWAP1 POP JUMPDEST PUSH0 PUSH2 0x1000 DUP4 AND EQ PUSH2 0x13E2 JUMPI PUSH1 0x80 PUSH16 0xD097F3BDFD2022B8845AD8F792AA5825 DUP3 PUSH2 0x13DD SWAP2 SWAP1 PUSH2 0x2E9C JUMP JUMPDEST SWAP1 SHR SWAP1 POP JUMPDEST PUSH0 PUSH2 0x2000 DUP4 AND EQ PUSH2 0x1410 JUMPI PUSH1 0x80 PUSH16 0xA9F746462D870FDF8A65DC1F90E061E5 DUP3 PUSH2 0x140B SWAP2 SWAP1 PUSH2 0x2E9C JUMP JUMPDEST SWAP1 SHR SWAP1 POP JUMPDEST PUSH0 PUSH2 0x4000 DUP4 AND EQ PUSH2 0x143E JUMPI PUSH1 0x80 PUSH16 0x70D869A156D2A1B890BB3DF62BAF32F7 DUP3 PUSH2 0x1439 SWAP2 SWAP1 PUSH2 0x2E9C JUMP JUMPDEST SWAP1 SHR SWAP1 POP JUMPDEST PUSH0 PUSH2 0x8000 DUP4 AND EQ PUSH2 0x146C JUMPI PUSH1 0x80 PUSH16 0x31BE135F97D08FD981231505542FCFA6 DUP3 PUSH2 0x1467 SWAP2 SWAP1 PUSH2 0x2E9C JUMP JUMPDEST SWAP1 SHR SWAP1 POP JUMPDEST PUSH0 PUSH3 0x10000 DUP4 AND EQ PUSH2 0x149B JUMPI PUSH1 0x80 PUSH16 0x9AA508B5B7A84E1C677DE54F3E99BC9 DUP3 PUSH2 0x1496 SWAP2 SWAP1 PUSH2 0x2E9C JUMP JUMPDEST SWAP1 SHR SWAP1 POP JUMPDEST PUSH0 PUSH3 0x20000 DUP4 AND EQ PUSH2 0x14C9 JUMPI PUSH1 0x80 PUSH15 0x5D6AF8DEDB81196699C329225EE604 DUP3 PUSH2 0x14C4 SWAP2 SWAP1 PUSH2 0x2E9C JUMP JUMPDEST SWAP1 SHR SWAP1 POP JUMPDEST PUSH0 PUSH3 0x40000 DUP4 AND EQ PUSH2 0x14F6 JUMPI PUSH1 0x80 PUSH14 0x2216E584F5FA1EA926041BEDFE98 DUP3 PUSH2 0x14F1 SWAP2 SWAP1 PUSH2 0x2E9C JUMP JUMPDEST SWAP1 SHR SWAP1 POP JUMPDEST PUSH0 PUSH3 0x80000 DUP4 AND EQ PUSH2 0x1521 JUMPI PUSH1 0x80 PUSH12 0x48A170391F7DC42444E8FA2 DUP3 PUSH2 0x151C SWAP2 SWAP1 PUSH2 0x2E9C JUMP JUMPDEST SWAP1 SHR SWAP1 POP JUMPDEST PUSH0 DUP5 PUSH1 0x2 SIGNEXTEND SGT ISZERO PUSH2 0x155B JUMPI DUP1 PUSH32 0xFFFFFFFFFFFFFFFFFFFFFFFFFFFFFFFFFFFFFFFFFFFFFFFFFFFFFFFFFFFFFFFF PUSH2 0x1558 SWAP2 SWAP1 PUSH2 0x2EDD JUMP JUMPDEST SWAP1 POP JUMPDEST PUSH0 PUSH5 0x100000000 DUP3 PUSH2 0x156D SWAP2 SWAP1 PUSH2 0x2F0D JUMP JUMPDEST EQ PUSH2 0x1579 JUMPI PUSH1 0x1 PUSH2 0x157B JUMP JUMPDEST PUSH0 JUMPDEST PUSH1 0xFF AND PUSH1 0x20 DUP3 SWAP1 SHR PUSH2 0x158D SWAP2 SWAP1 PUSH2 0x2AC6 JUMP JUMPDEST SWAP3 POP POP POP SWAP2 SWAP1 POP JUMP JUMPDEST PUSH0 DUP3 PUSH20 0xFFFFFFFFFFFFFFFFFFFFFFFFFFFFFFFFFFFFFFFF AND DUP5 PUSH20 0xFFFFFFFFFFFFFFFFFFFFFFFFFFFFFFFFFFFFFFFF AND GT ISZERO PUSH2 0x15D6 JUMPI DUP3 DUP5 DUP1 SWAP5 POP DUP2 SWAP6 POP POP POP JUMPDEST PUSH0 DUP5 PUSH20 0xFFFFFFFFFFFFFFFFFFFFFFFFFFFFFFFFFFFFFFFF AND GT PUSH2 0x15F7 JUMPI PUSH0 PUSH0 REVERT JUMPDEST PUSH2 0x1671 PUSH2 0x1655 PUSH1 0x60 PUSH1 0xFF AND DUP5 PUSH16 0xFFFFFFFFFFFFFFFFFFFFFFFFFFFFFFFF AND SWAP1 SHL DUP7 DUP7 PUSH2 0x1623 SWAP2 SWAP1 PUSH2 0x2F3D JUMP JUMPDEST PUSH20 0xFFFFFFFFFFFFFFFFFFFFFFFFFFFFFFFFFFFFFFFF AND DUP7 PUSH20 0xFFFFFFFFFFFFFFFFFFFFFFFFFFFFFFFFFFFFFFFF AND PUSH2 0x1EBC JUMP JUMPDEST DUP6 PUSH20 0xFFFFFFFFFFFFFFFFFFFFFFFFFFFFFFFFFFFFFFFF AND PUSH2 0x1F24 JUMP JUMPDEST SWAP1 POP SWAP4 SWAP3 POP POP POP JUMP JUMPDEST PUSH0 DUP3 PUSH20 0xFFFFFFFFFFFFFFFFFFFFFFFFFFFFFFFFFFFFFFFF AND DUP5 PUSH20 0xFFFFFFFFFFFFFFFFFFFFFFFFFFFFFFFFFFFFFFFF AND GT ISZERO PUSH2 0x16BA JUMPI DUP3 DUP5 DUP1 SWAP5 POP DUP2 SWAP6 POP POP POP JUMPDEST PUSH2 0x1705 DUP3 PUSH16 0xFFFFFFFFFFFFFFFFFFFFFFFFFFFFFFFF AND DUP6 DUP6 PUSH2 0x16DC SWAP2 SWAP1 PUSH2 0x2F3D JUMP JUMPDEST PUSH20 0xFFFFFFFFFFFFFFFFFFFFFFFFFFFFFFFFFFFFFFFF AND PUSH13 0x1000000000000000000000000 PUSH2 0x1EBC JUMP JUMPDEST SWAP1 POP SWAP4 SWAP3 POP POP POP JUMP JUMPDEST PUSH0 PUSH32 0x0 PUSH20 0xFFFFFFFFFFFFFFFFFFFFFFFFFFFFFFFFFFFFFFFF AND PUSH4 0x70A08231 ADDRESS PUSH1 0x40 MLOAD DUP3 PUSH4 0xFFFFFFFF AND PUSH1 0xE0 SHL DUP2 MSTORE PUSH1 0x4 ADD PUSH2 0x1768 SWAP2 SWAP1 PUSH2 0x24B4 JUMP JUMPDEST PUSH1 0x20 PUSH1 0x40 MLOAD DUP1 DUP4 SUB DUP2 DUP7 GAS STATICCALL ISZERO DUP1 ISZERO PUSH2 0x1783 JUMPI RETURNDATASIZE PUSH0 PUSH0 RETURNDATACOPY RETURNDATASIZE PUSH0 REVERT JUMPDEST POP POP POP POP PUSH1 0x40 MLOAD RETURNDATASIZE PUSH1 0x1F NOT PUSH1 0x1F DUP3 ADD AND DUP3 ADD DUP1 PUSH1 0x40 MSTORE POP DUP2 ADD SWAP1 PUSH2 0x17A7 SWAP2 SWAP1 PUSH2 0x2F98 JUMP JUMPDEST SWAP1 POP SWAP1 JUMP JUMPDEST PUSH0 PUSH32 0x0 PUSH20 0xFFFFFFFFFFFFFFFFFFFFFFFFFFFFFFFFFFFFFFFF AND PUSH4 0x70A08231 ADDRESS PUSH1 0x40 MLOAD DUP3 PUSH4 0xFFFFFFFF AND PUSH1 0xE0 SHL DUP2 MSTORE PUSH1 0x4 ADD PUSH2 0x1806 SWAP2 SWAP1 PUSH2 0x24B4 JUMP JUMPDEST PUSH1 0x20 PUSH1 0x40 MLOAD DUP1 DUP4 SUB DUP2 DUP7 GAS STATICCALL ISZERO DUP1 ISZERO PUSH2 0x1821 JUMPI RETURNDATASIZE PUSH0 PUSH0 RETURNDATACOPY RETURNDATASIZE PUSH0 REVERT JUMPDEST POP POP POP POP PUSH1 0x40 MLOAD RETURNDATASIZE PUSH1 0x1F NOT PUSH1 0x1F DUP3 ADD AND DUP3 ADD DUP1 PUSH1 0x40 MSTORE POP DUP2 ADD SWAP1 PUSH2 0x1845 SWAP2 SWAP1 PUSH2 0x2F98 JUMP JUMPDEST SWAP1 POP SWAP1 JUMP JUMPDEST PUSH0 PUSH0 PUSH0 DUP5 DUP7 PUSH2 0x1859 SWAP2 SWAP1 PUSH2 0x2D07 JUMP JUMPDEST SWAP1 POP PUSH0 DUP7 PUSH1 0x2 SIGNEXTEND SLT DUP1 ISZERO PUSH2 0x187B JUMPI POP PUSH0 DUP6 DUP8 PUSH2 0x1875 SWAP2 SWAP1 PUSH2 0x2CD7 JUMP JUMPDEST PUSH1 0x2 SIGNEXTEND EQ ISZERO JUMPDEST ISZERO PUSH2 0x188F JUMPI DUP1 DUP1 PUSH2 0x188B SWAP1 PUSH2 0x2FC3 JUMP JUMPDEST SWAP2 POP POP JUMPDEST DUP4 ISZERO PUSH2 0x194C JUMPI PUSH0 PUSH0 PUSH2 0x18A0 DUP4 PUSH2 0x1E9B JUMP JUMPDEST SWAP2 POP SWAP2 POP PUSH0 DUP2 PUSH1 0xFF AND PUSH1 0x1 SWAP1 SHL PUSH1 0x1 DUP4 PUSH1 0xFF AND PUSH1 0x1 SWAP1 SHL PUSH2 0x18C1 SWAP2 SWAP1 PUSH2 0x2B3C JUMP JUMPDEST PUSH2 0x18CB SWAP2 SWAP1 PUSH2 0x2AC6 JUMP JUMPDEST SWAP1 POP PUSH0 DUP2 DUP12 PUSH0 DUP7 PUSH1 0x1 SIGNEXTEND PUSH1 0x1 SIGNEXTEND DUP2 MSTORE PUSH1 0x20 ADD SWAP1 DUP2 MSTORE PUSH1 0x20 ADD PUSH0 KECCAK256 SLOAD AND SWAP1 POP PUSH0 DUP2 EQ ISZERO SWAP6 POP DUP6 PUSH2 0x1913 JUMPI DUP9 DUP4 PUSH1 0xFF AND DUP7 PUSH2 0x1904 SWAP2 SWAP1 PUSH2 0x300A JUMP JUMPDEST PUSH2 0x190E SWAP2 SWAP1 PUSH2 0x3064 JUMP JUMPDEST PUSH2 0x1941 JUMP JUMPDEST DUP9 PUSH2 0x191D DUP3 PUSH2 0x1F36 JUMP JUMPDEST DUP5 PUSH2 0x1928 SWAP2 SWAP1 PUSH2 0x30AC JUMP JUMPDEST PUSH1 0xFF AND DUP7 PUSH2 0x1936 SWAP2 SWAP1 PUSH2 0x300A JUMP JUMPDEST PUSH2 0x1940 SWAP2 SWAP1 PUSH2 0x3064 JUMP JUMPDEST JUMPDEST SWAP7 POP POP POP POP POP PUSH2 0x1A1E JUMP JUMPDEST PUSH0 PUSH0 PUSH2 0x1963 PUSH1 0x1 DUP5 PUSH2 0x195E SWAP2 SWAP1 PUSH2 0x30E0 JUMP JUMPDEST PUSH2 0x1E9B JUMP JUMPDEST SWAP2 POP SWAP2 POP PUSH0 PUSH1 0x1 DUP3 PUSH1 0xFF AND PUSH1 0x1 SWAP1 SHL PUSH2 0x197C SWAP2 SWAP1 PUSH2 0x2B3C JUMP JUMPDEST NOT SWAP1 POP PUSH0 DUP2 DUP12 PUSH0 DUP7 PUSH1 0x1 SIGNEXTEND PUSH1 0x1 SIGNEXTEND DUP2 MSTORE PUSH1 0x20 ADD SWAP1 DUP2 MSTORE PUSH1 0x20 ADD PUSH0 KECCAK256 SLOAD AND SWAP1 POP PUSH0 DUP2 EQ ISZERO SWAP6 POP DUP6 PUSH2 0x19DD JUMPI DUP9 DUP4 PUSH1 0xFF PUSH2 0x19B4 SWAP2 SWAP1 PUSH2 0x30AC JUMP JUMPDEST PUSH1 0xFF AND PUSH1 0x1 DUP8 PUSH2 0x19C4 SWAP2 SWAP1 PUSH2 0x30E0 JUMP JUMPDEST PUSH2 0x19CE SWAP2 SWAP1 PUSH2 0x30E0 JUMP JUMPDEST PUSH2 0x19D8 SWAP2 SWAP1 PUSH2 0x3064 JUMP JUMPDEST PUSH2 0x1A17 JUMP JUMPDEST DUP9 DUP4 PUSH2 0x19E8 DUP4 PUSH2 0x2057 JUMP JUMPDEST PUSH2 0x19F2 SWAP2 SWAP1 PUSH2 0x30AC JUMP JUMPDEST PUSH1 0xFF AND PUSH1 0x1 DUP8 PUSH2 0x1A02 SWAP2 SWAP1 PUSH2 0x30E0 JUMP JUMPDEST PUSH2 0x1A0C SWAP2 SWAP1 PUSH2 0x30E0 JUMP JUMPDEST PUSH2 0x1A16 SWAP2 SWAP1 PUSH2 0x3064 JUMP JUMPDEST JUMPDEST SWAP7 POP POP POP POP POP JUMPDEST POP SWAP5 POP SWAP5 SWAP3 POP POP POP JUMP JUMPDEST PUSH0 PUSH0 PUSH0 PUSH0 DUP7 PUSH20 0xFFFFFFFFFFFFFFFFFFFFFFFFFFFFFFFFFFFFFFFF AND DUP9 PUSH20 0xFFFFFFFFFFFFFFFFFFFFFFFFFFFFFFFFFFFFFFFF AND LT ISZERO SWAP1 POP PUSH2 0x1A6A DUP9 DUP8 DUP8 DUP5 PUSH2 0x21BC JUMP JUMPDEST SWAP4 POP PUSH2 0x1A77 DUP9 DUP6 DUP9 PUSH2 0x1596 JUMP JUMPDEST SWAP3 POP PUSH2 0x1A84 DUP9 DUP6 DUP9 PUSH2 0x167A JUMP JUMPDEST SWAP2 POP DUP1 PUSH2 0x1A96 JUMPI DUP2 DUP4 DUP1 SWAP4 POP DUP2 SWAP5 POP POP POP JUMPDEST POP SWAP5 POP SWAP5 POP SWAP5 SWAP2 POP POP JUMP JUMPDEST PUSH0 PUSH5 0x1000276A3 PUSH20 0xFFFFFFFFFFFFFFFFFFFFFFFFFFFFFFFFFFFFFFFF AND DUP3 PUSH20 0xFFFFFFFFFFFFFFFFFFFFFFFFFFFFFFFFFFFFFFFF AND LT ISZERO DUP1 ISZERO PUSH2 0x1B22 JUMPI POP PUSH20 0xFFFD8963EFD1FC6A506488495D951D5263988D26 PUSH20 0xFFFFFFFFFFFFFFFFFFFFFFFFFFFFFFFFFFFFFFFF AND DUP3 PUSH20 0xFFFFFFFFFFFFFFFFFFFFFFFFFFFFFFFFFFFFFFFF AND LT JUMPDEST PUSH2 0x1B61 JUMPI PUSH1 0x40 MLOAD PUSH32 0x8C379A000000000000000000000000000000000000000000000000000000000 DUP2 MSTORE PUSH1 0x4 ADD PUSH2 0x1B58 SWAP1 PUSH2 0x3184 JUMP JUMPDEST PUSH1 0x40 MLOAD DUP1 SWAP2 SUB SWAP1 REVERT JUMPDEST PUSH0 PUSH1 0x20 DUP4 PUSH20 0xFFFFFFFFFFFFFFFFFFFFFFFFFFFFFFFFFFFFFFFF AND SWAP1 SHL SWAP1 POP PUSH0 DUP2 SWAP1 POP PUSH0 PUSH0 SWAP1 POP PUSH16 0xFFFFFFFFFFFFFFFFFFFFFFFFFFFFFFFF DUP3 GT PUSH1 0x7 SHL DUP1 DUP3 OR SWAP2 POP DUP3 DUP2 SHR SWAP3 POP POP PUSH8 0xFFFFFFFFFFFFFFFF DUP3 GT PUSH1 0x6 SHL DUP1 DUP3 OR SWAP2 POP DUP3 DUP2 SHR SWAP3 POP POP PUSH4 0xFFFFFFFF DUP3 GT PUSH1 0x5 SHL DUP1 DUP3 OR SWAP2 POP DUP3 DUP2 SHR SWAP3 POP POP PUSH2 0xFFFF DUP3 GT PUSH1 0x4 SHL DUP1 DUP3 OR SWAP2 POP DUP3 DUP2 SHR SWAP3 POP POP PUSH1 0xFF DUP3 GT PUSH1 0x3 SHL DUP1 DUP3 OR SWAP2 POP DUP3 DUP2 SHR SWAP3 POP POP PUSH1 0xF DUP3 GT PUSH1 0x2 SHL DUP1 DUP3 OR SWAP2 POP DUP3 DUP2 SHR SWAP3 POP POP PUSH1 0x3 DUP3 GT PUSH1 0x1 SHL DUP1 DUP3 OR SWAP2 POP DUP3 DUP2 SHR SWAP3 POP POP PUSH1 0x1 DUP3 GT DUP1 DUP3 OR SWAP2 POP POP PUSH1 0x80 DUP2 LT PUSH2 0x1C48 JUMPI PUSH1 0x7F DUP2 PUSH2 0x1C3E SWAP2 SWAP1 PUSH2 0x2B3C JUMP JUMPDEST DUP4 SWAP1 SHR SWAP2 POP PUSH2 0x1C5B JUMP JUMPDEST DUP1 PUSH1 0x7F PUSH2 0x1C55 SWAP2 SWAP1 PUSH2 0x2B3C JUMP JUMPDEST DUP4 SWAP1 SHL SWAP2 POP JUMPDEST PUSH0 PUSH1 0x40 PUSH1 0x80 DUP4 PUSH2 0x1C6B SWAP2 SWAP1 PUSH2 0x31A2 JUMP JUMPDEST SWAP1 SHL SWAP1 POP DUP3 DUP4 MUL PUSH1 0x7F SHR SWAP3 POP DUP3 PUSH1 0x80 SHR DUP1 PUSH1 0x3F SHL DUP3 OR SWAP2 POP DUP4 DUP2 SHR SWAP4 POP POP DUP3 DUP4 MUL PUSH1 0x7F SHR SWAP3 POP DUP3 PUSH1 0x80 SHR DUP1 PUSH1 0x3E SHL DUP3 OR SWAP2 POP DUP4 DUP2 SHR SWAP4 POP POP DUP3 DUP4 MUL PUSH1 0x7F SHR SWAP3 POP DUP3 PUSH1 0x80 SHR DUP1 PUSH1 0x3D SHL DUP3 OR SWAP2 POP DUP4 DUP2 SHR SWAP4 POP POP DUP3 DUP4 MUL PUSH1 0x7F SHR SWAP3 POP DUP3 PUSH1 0x80 SHR DUP1 PUSH1 0x3C SHL DUP3 OR SWAP2 POP DUP4 DUP2 SHR SWAP4 POP POP DUP3 DUP4 MUL PUSH1 0x7F SHR SWAP3 POP DUP3 PUSH1 0x80 SHR DUP1 PUSH1 0x3B SHL DUP3 OR SWAP2 POP DUP4 DUP2 SHR SWAP4 POP POP DUP3 DUP4 MUL PUSH1 0x7F SHR SWAP3 POP DUP3 PUSH1 0x80 SHR DUP1 PUSH1 0x3A SHL DUP3 OR SWAP2 POP DUP4 DUP2 SHR SWAP4 POP POP DUP3 DUP4 MUL PUSH1 0x7F SHR SWAP3 POP DUP3 PUSH1 0x80 SHR DUP1 PUSH1 0x39 SHL DUP3 OR SWAP2 POP DUP4 DUP2 SHR SWAP4 POP POP DUP3 DUP4 MUL PUSH1 0x7F SHR SWAP3 POP DUP3 PUSH1 0x80 SHR DUP1 PUSH1 0x38 SHL DUP3 OR SWAP2 POP DUP4 DUP2 SHR SWAP4 POP POP DUP3 DUP4 MUL PUSH1 0x7F SHR SWAP3 POP DUP3 PUSH1 0x80 SHR DUP1 PUSH1 0x37 SHL DUP3 OR SWAP2 POP DUP4 DUP2 SHR SWAP4 POP POP DUP3 DUP4 MUL PUSH1 0x7F SHR SWAP3 POP DUP3 PUSH1 0x80 SHR DUP1 PUSH1 0x36 SHL DUP3 OR SWAP2 POP DUP4 DUP2 SHR SWAP4 POP POP DUP3 DUP4 MUL PUSH1 0x7F SHR SWAP3 POP DUP3 PUSH1 0x80 SHR DUP1 PUSH1 0x35 SHL DUP3 OR SWAP2 POP DUP4 DUP2 SHR SWAP4 POP POP DUP3 DUP4 MUL PUSH1 0x7F SHR SWAP3 POP DUP3 PUSH1 0x80 SHR DUP1 PUSH1 0x34 SHL DUP3 OR SWAP2 POP DUP4 DUP2 SHR SWAP4 POP POP DUP3 DUP4 MUL PUSH1 0x7F SHR SWAP3 POP DUP3 PUSH1 0x80 SHR DUP1 PUSH1 0x33 SHL DUP3 OR SWAP2 POP DUP4 DUP2 SHR SWAP4 POP POP DUP3 DUP4 MUL PUSH1 0x7F SHR SWAP3 POP DUP3 PUSH1 0x80 SHR DUP1 PUSH1 0x32 SHL DUP3 OR SWAP2 POP POP PUSH0 PUSH10 0x3627A301D71055774C85 DUP3 PUSH2 0x1DED SWAP2 SWAP1 PUSH2 0x31E2 JUMP JUMPDEST SWAP1 POP PUSH0 PUSH1 0x80 PUSH16 0x28F6481AB7F045A5AF012A19D003AAA DUP4 PUSH2 0x1E0E SWAP2 SWAP1 PUSH2 0x31A2 JUMP JUMPDEST SWAP1 SAR SWAP1 POP PUSH0 PUSH1 0x80 PUSH16 0xDB2DF09E81959A81455E260799A0632F DUP5 PUSH2 0x1E31 SWAP2 SWAP1 PUSH2 0x3258 JUMP JUMPDEST SWAP1 SAR SWAP1 POP DUP1 PUSH1 0x2 SIGNEXTEND DUP3 PUSH1 0x2 SIGNEXTEND EQ PUSH2 0x1E8B JUMPI DUP9 PUSH20 0xFFFFFFFFFFFFFFFFFFFFFFFFFFFFFFFFFFFFFFFF AND PUSH2 0x1E62 DUP3 PUSH2 0x10E2 JUMP JUMPDEST PUSH20 0xFFFFFFFFFFFFFFFFFFFFFFFFFFFFFFFFFFFFFFFF AND GT ISZERO PUSH2 0x1E84 JUMPI DUP2 PUSH2 0x1E86 JUMP JUMPDEST DUP1 JUMPDEST PUSH2 0x1E8D JUMP JUMPDEST DUP2 JUMPDEST SWAP8 POP POP POP POP POP POP POP POP SWAP2 SWAP1 POP JUMP JUMPDEST PUSH0 PUSH0 PUSH1 0x8 DUP4 PUSH1 0x2 SIGNEXTEND SWAP1 SAR SWAP2 POP PUSH2 0x100 DUP4 PUSH2 0x1EB5 SWAP2 SWAP1 PUSH2 0x2CD7 JUMP JUMPDEST SWAP1 POP SWAP2 POP SWAP2 JUMP JUMPDEST PUSH0 PUSH2 0x1EC8 DUP5 DUP5 DUP5 PUSH2 0x21E8 JUMP JUMPDEST SWAP1 POP PUSH0 DUP3 DUP1 PUSH2 0x1EDA JUMPI PUSH2 0x1ED9 PUSH2 0x2CAA JUMP JUMPDEST JUMPDEST DUP5 DUP7 MULMOD GT ISZERO PUSH2 0x1F1D JUMPI PUSH32 0xFFFFFFFFFFFFFFFFFFFFFFFFFFFFFFFFFFFFFFFFFFFFFFFFFFFFFFFFFFFFFFFF DUP2 LT PUSH2 0x1F0E JUMPI PUSH0 PUSH0 REVERT JUMPDEST DUP1 DUP1 PUSH2 0x1F19 SWAP1 PUSH2 0x3299 JUMP JUMPDEST SWAP2 POP POP JUMPDEST SWAP4 SWAP3 POP POP POP JUMP JUMPDEST PUSH0 PUSH0 DUP3 DUP5 MOD GT DUP3 DUP5 DIV ADD SWAP1 POP SWAP3 SWAP2 POP POP JUMP JUMPDEST PUSH0 PUSH0 DUP3 GT PUSH2 0x1F42 JUMPI PUSH0 PUSH0 REVERT JUMPDEST PUSH17 0x100000000000000000000000000000000 DUP3 LT PUSH2 0x1F71 JUMPI PUSH1 0x80 DUP3 SWAP1 SHR SWAP2 POP PUSH1 0x80 DUP2 PUSH2 0x1F6E SWAP2 SWAP1 PUSH2 0x32E0 JUMP JUMPDEST SWAP1 POP JUMPDEST PUSH9 0x10000000000000000 DUP3 LT PUSH2 0x1F98 JUMPI PUSH1 0x40 DUP3 SWAP1 SHR SWAP2 POP PUSH1 0x40 DUP2 PUSH2 0x1F95 SWAP2 SWAP1 PUSH2 0x32E0 JUMP JUMPDEST SWAP1 POP JUMPDEST PUSH5 0x100000000 DUP3 LT PUSH2 0x1FBB JUMPI PUSH1 0x20 DUP3 SWAP1 SHR SWAP2 POP PUSH1 0x20 DUP2 PUSH2 0x1FB8 SWAP2 SWAP1 PUSH2 0x32E0 JUMP JUMPDEST SWAP1 POP JUMPDEST PUSH3 0x10000 DUP3 LT PUSH2 0x1FDC JUMPI PUSH1 0x10 DUP3 SWAP1 SHR SWAP2 POP PUSH1 0x10 DUP2 PUSH2 0x1FD9 SWAP2 SWAP1 PUSH2 0x32E0 JUMP JUMPDEST SWAP1 POP JUMPDEST PUSH2 0x100 DUP3 LT PUSH2 0x1FFC JUMPI PUSH1 0x8 DUP3 SWAP1 SHR SWAP2 POP PUSH1 0x8 DUP2 PUSH2 0x1FF9 SWAP2 SWAP1 PUSH2 0x32E0 JUMP JUMPDEST SWAP1 POP JUMPDEST PUSH1 0x10 DUP3 LT PUSH2 0x201B JUMPI PUSH1 0x4 DUP3 SWAP1 SHR SWAP2 POP PUSH1 0x4 DUP2 PUSH2 0x2018 SWAP2 SWAP1 PUSH2 0x32E0 JUMP JUMPDEST SWAP1 POP JUMPDEST PUSH1 0x4 DUP3 LT PUSH2 0x203A JUMPI PUSH1 0x2 DUP3 SWAP1 SHR SWAP2 POP PUSH1 0x2 DUP2 PUSH2 0x2037 SWAP2 SWAP1 PUSH2 0x32E0 JUMP JUMPDEST SWAP1 POP JUMPDEST PUSH1 0x2 DUP3 LT PUSH2 0x2052 JUMPI PUSH1 0x1 DUP2 PUSH2 0x204F SWAP2 SWAP1 PUSH2 0x32E0 JUMP JUMPDEST SWAP1 POP JUMPDEST SWAP2 SWAP1 POP JUMP JUMPDEST PUSH0 PUSH0 DUP3 GT PUSH2 0x2063 JUMPI PUSH0 PUSH0 REVERT JUMPDEST PUSH1 0xFF SWAP1 POP PUSH0 PUSH16 0xFFFFFFFFFFFFFFFFFFFFFFFFFFFFFFFF DUP1 AND DUP4 AND GT ISZERO PUSH2 0x2097 JUMPI PUSH1 0x80 DUP2 PUSH2 0x2090 SWAP2 SWAP1 PUSH2 0x30AC JUMP JUMPDEST SWAP1 POP PUSH2 0x209F JUMP JUMPDEST PUSH1 0x80 DUP3 SWAP1 SHR SWAP2 POP JUMPDEST PUSH0 PUSH8 0xFFFFFFFFFFFFFFFF DUP1 AND DUP4 AND GT ISZERO PUSH2 0x20C7 JUMPI PUSH1 0x40 DUP2 PUSH2 0x20C0 SWAP2 SWAP1 PUSH2 0x30AC JUMP JUMPDEST SWAP1 POP PUSH2 0x20CF JUMP JUMPDEST PUSH1 0x40 DUP3 SWAP1 SHR SWAP2 POP JUMPDEST PUSH0 PUSH4 0xFFFFFFFF DUP1 AND DUP4 AND GT ISZERO PUSH2 0x20F3 JUMPI PUSH1 0x20 DUP2 PUSH2 0x20EC SWAP2 SWAP1 PUSH2 0x30AC JUMP JUMPDEST SWAP1 POP PUSH2 0x20FB JUMP JUMPDEST PUSH1 0x20 DUP3 SWAP1 SHR SWAP2 POP JUMPDEST PUSH0 PUSH2 0xFFFF DUP1 AND DUP4 AND GT ISZERO PUSH2 0x211D JUMPI PUSH1 0x10 DUP2 PUSH2 0x2116 SWAP2 SWAP1 PUSH2 0x30AC JUMP JUMPDEST SWAP1 POP PUSH2 0x2125 JUMP JUMPDEST PUSH1 0x10 DUP3 SWAP1 SHR SWAP2 POP JUMPDEST PUSH0 PUSH1 0xFF DUP1 AND DUP4 AND GT ISZERO PUSH2 0x2146 JUMPI PUSH1 0x8 DUP2 PUSH2 0x213F SWAP2 SWAP1 PUSH2 0x30AC JUMP JUMPDEST SWAP1 POP PUSH2 0x214E JUMP JUMPDEST PUSH1 0x8 DUP3 SWAP1 SHR SWAP2 POP JUMPDEST PUSH0 PUSH1 0xF DUP4 AND GT ISZERO PUSH2 0x216D JUMPI PUSH1 0x4 DUP2 PUSH2 0x2166 SWAP2 SWAP1 PUSH2 0x30AC JUMP JUMPDEST SWAP1 POP PUSH2 0x2175 JUMP JUMPDEST PUSH1 0x4 DUP3 SWAP1 SHR SWAP2 POP JUMPDEST PUSH0 PUSH1 0x3 DUP4 AND GT ISZERO PUSH2 0x2194 JUMPI PUSH1 0x2 DUP2 PUSH2 0x218D SWAP2 SWAP1 PUSH2 0x30AC JUMP JUMPDEST SWAP1 POP PUSH2 0x219C JUMP JUMPDEST PUSH1 0x2 DUP3 SWAP1 SHR SWAP2 POP JUMPDEST PUSH0 PUSH1 0x1 DUP4 AND GT ISZERO PUSH2 0x21B7 JUMPI PUSH1 0x1 DUP2 PUSH2 0x21B4 SWAP2 SWAP1 PUSH2 0x30AC JUMP JUMPDEST SWAP1 POP JUMPDEST SWAP2 SWAP1 POP JUMP JUMPDEST PUSH0 DUP2 PUSH2 0x21D2 JUMPI PUSH2 0x21CD DUP6 DUP6 DUP6 PUSH2 0x22F2 JUMP JUMPDEST PUSH2 0x21DE JUMP JUMPDEST PUSH2 0x21DD DUP6 DUP6 DUP6 PUSH2 0x232C JUMP JUMPDEST JUMPDEST SWAP1 POP SWAP5 SWAP4 POP POP POP POP JUMP JUMPDEST PUSH0 PUSH0 PUSH0 PUSH0 NOT DUP6 DUP8 MULMOD DUP6 DUP8 MUL SWAP3 POP DUP3 DUP2 LT DUP4 DUP3 SUB SUB SWAP2 POP POP PUSH0 DUP2 SUB PUSH2 0x2220 JUMPI DUP4 DUP3 DUP2 PUSH2 0x2216 JUMPI PUSH2 0x2215 PUSH2 0x2CAA JUMP JUMPDEST JUMPDEST DIV SWAP3 POP POP POP PUSH2 0x22EB JUMP JUMPDEST DUP1 DUP5 GT PUSH2 0x2262 JUMPI PUSH1 0x40 MLOAD PUSH32 0x8C379A000000000000000000000000000000000000000000000000000000000 DUP2 MSTORE PUSH1 0x4 ADD PUSH2 0x2259 SWAP1 PUSH2 0x335E JUMP JUMPDEST PUSH1 0x40 MLOAD DUP1 SWAP2 SUB SWAP1 REVERT JUMPDEST PUSH0 DUP5 DUP7 DUP9 MULMOD SWAP1 POP DUP3 DUP2 GT DUP3 SUB SWAP2 POP DUP1 DUP4 SUB SWAP3 POP PUSH0 PUSH1 0x1 DUP7 NOT ADD DUP7 AND SWAP1 POP DUP1 DUP7 DIV SWAP6 POP DUP1 DUP5 DIV SWAP4 POP PUSH1 0x1 DUP2 DUP3 PUSH0 SUB DIV ADD SWAP1 POP DUP1 DUP4 MUL DUP5 OR SWAP4 POP PUSH0 PUSH1 0x2 DUP8 PUSH1 0x3 MUL XOR SWAP1 POP DUP1 DUP8 MUL PUSH1 0x2 SUB DUP2 MUL SWAP1 POP DUP1 DUP8 MUL PUSH1 0x2 SUB DUP2 MUL SWAP1 POP DUP1 DUP8 MUL PUSH1 0x2 SUB DUP2 MUL SWAP1 POP DUP1 DUP8 MUL PUSH1 0x2 SUB DUP2 MUL SWAP1 POP DUP1 DUP8 MUL PUSH1 0x2 SUB DUP2 MUL SWAP1 POP DUP1 DUP8 MUL PUSH1 0x2 SUB DUP2 MUL SWAP1 POP DUP1 DUP6 MUL SWAP6 POP POP POP POP POP POP JUMPDEST SWAP4 SWAP3 POP POP POP JUMP JUMPDEST PUSH0 DUP3 PUSH16 0xFFFFFFFFFFFFFFFFFFFFFFFFFFFFFFFF AND PUSH1 0x60 PUSH1 0xFF AND DUP4 SWAP1 SHL PUSH2 0x2318 SWAP2 SWAP1 PUSH2 0x2EDD JUMP JUMPDEST DUP5 PUSH2 0x2323 SWAP2 SWAP1 PUSH2 0x337C JUMP JUMPDEST SWAP1 POP SWAP4 SWAP3 POP POP POP JUMP JUMPDEST PUSH0 PUSH0 PUSH1 0x60 PUSH1 0xFF AND DUP5 PUSH16 0xFFFFFFFFFFFFFFFFFFFFFFFFFFFFFFFF AND SWAP1 SHL SWAP1 POP PUSH0 DUP6 PUSH20 0xFFFFFFFFFFFFFFFFFFFFFFFFFFFFFFFFFFFFFFFF AND DUP5 PUSH2 0x236D SWAP2 SWAP1 PUSH2 0x2E9C JUMP JUMPDEST SWAP1 POP DUP6 PUSH20 0xFFFFFFFFFFFFFFFFFFFFFFFFFFFFFFFFFFFFFFFF AND DUP5 DUP3 PUSH2 0x2392 SWAP2 SWAP1 PUSH2 0x2EDD JUMP JUMPDEST SUB PUSH2 0x23DA JUMPI PUSH0 DUP2 DUP4 PUSH2 0x23A4 SWAP2 SWAP1 PUSH2 0x2AC6 JUMP JUMPDEST SWAP1 POP DUP3 DUP2 LT PUSH2 0x23D8 JUMPI PUSH2 0x23CE DUP4 DUP9 PUSH20 0xFFFFFFFFFFFFFFFFFFFFFFFFFFFFFFFFFFFFFFFF AND DUP4 PUSH2 0x1EBC JUMP JUMPDEST SWAP4 POP POP POP POP PUSH2 0x2415 JUMP JUMPDEST POP JUMPDEST PUSH2 0x2410 DUP3 DUP6 DUP9 PUSH20 0xFFFFFFFFFFFFFFFFFFFFFFFFFFFFFFFFFFFFFFFF AND DUP6 PUSH2 0x2401 SWAP2 SWAP1 PUSH2 0x2EDD JUMP JUMPDEST PUSH2 0x240B SWAP2 SWAP1 PUSH2 0x2AC6 JUMP JUMPDEST PUSH2 0x1F24 JUMP JUMPDEST SWAP3 POP POP POP JUMPDEST SWAP4 SWAP3 POP POP POP JUMP JUMPDEST PUSH1 0x40 MLOAD DUP1 PUSH1 0xA0 ADD PUSH1 0x40 MSTORE DUP1 PUSH0 PUSH20 0xFFFFFFFFFFFFFFFFFFFFFFFFFFFFFFFFFFFFFFFF AND DUP2 MSTORE PUSH1 0x20 ADD PUSH0 PUSH1 0x2 SIGNEXTEND DUP2 MSTORE PUSH1 0x20 ADD PUSH0 PUSH20 0xFFFFFFFFFFFFFFFFFFFFFFFFFFFFFFFFFFFFFFFF AND DUP2 MSTORE PUSH1 0x20 ADD PUSH0 DUP2 MSTORE PUSH1 0x20 ADD PUSH0 DUP2 MSTORE POP SWAP1 JUMP JUMPDEST PUSH0 PUSH20 0xFFFFFFFFFFFFFFFFFFFFFFFFFFFFFFFFFFFFFFFF DUP3 AND SWAP1 POP SWAP2 SWAP1 POP JUMP JUMPDEST PUSH0 PUSH2 0x249E DUP3 PUSH2 0x2475 JUMP JUMPDEST SWAP1 POP SWAP2 SWAP1 POP JUMP JUMPDEST PUSH2 0x24AE DUP2 PUSH2 0x2494 JUMP JUMPDEST DUP3 MSTORE POP POP JUMP JUMPDEST PUSH0 PUSH1 0x20 DUP3 ADD SWAP1 POP PUSH2 0x24C7 PUSH0 DUP4 ADD DUP5 PUSH2 0x24A5 JUMP JUMPDEST SWAP3 SWAP2 POP POP JUMP JUMPDEST PUSH0 PUSH16 0xFFFFFFFFFFFFFFFFFFFFFFFFFFFFFFFF DUP3 AND SWAP1 POP SWAP2 SWAP1 POP JUMP JUMPDEST PUSH2 0x24F1 DUP2 PUSH2 0x24CD JUMP JUMPDEST DUP3 MSTORE POP POP JUMP JUMPDEST PUSH0 PUSH1 0x20 DUP3 ADD SWAP1 POP PUSH2 0x250A PUSH0 DUP4 ADD DUP5 PUSH2 0x24E8 JUMP JUMPDEST SWAP3 SWAP2 POP POP JUMP JUMPDEST PUSH2 0x2519 DUP2 PUSH2 0x2475 JUMP JUMPDEST DUP3 MSTORE POP POP JUMP JUMPDEST PUSH0 DUP2 PUSH1 0x2 SIGNEXTEND SWAP1 POP SWAP2 SWAP1 POP JUMP JUMPDEST PUSH2 0x2534 DUP2 PUSH2 0x251F JUMP JUMPDEST DUP3 MSTORE POP POP JUMP JUMPDEST PUSH0 PUSH1 0x40 DUP3 ADD SWAP1 POP PUSH2 0x254D PUSH0 DUP4 ADD DUP6 PUSH2 0x2510 JUMP JUMPDEST PUSH2 0x255A PUSH1 0x20 DUP4 ADD DUP5 PUSH2 0x252B JUMP JUMPDEST SWAP4 SWAP3 POP POP POP JUMP JUMPDEST PUSH0 PUSH0 REVERT JUMPDEST PUSH0 PUSH0 REVERT JUMPDEST PUSH2 0x2572 DUP2 PUSH2 0x2494 JUMP JUMPDEST DUP2 EQ PUSH2 0x257C JUMPI PUSH0 PUSH0 REVERT JUMPDEST POP JUMP JUMPDEST PUSH0 DUP2 CALLDATALOAD SWAP1 POP PUSH2 0x258D DUP2 PUSH2 0x2569 JUMP JUMPDEST SWAP3 SWAP2 POP POP JUMP JUMPDEST PUSH2 0x259C DUP2 PUSH2 0x251F JUMP JUMPDEST DUP2 EQ PUSH2 0x25A6 JUMPI PUSH0 PUSH0 REVERT JUMPDEST POP JUMP JUMPDEST PUSH0 DUP2 CALLDATALOAD SWAP1 POP PUSH2 0x25B7 DUP2 PUSH2 0x2593 JUMP JUMPDEST SWAP3 SWAP2 POP POP JUMP JUMPDEST PUSH2 0x25C6 DUP2 PUSH2 0x24CD JUMP JUMPDEST DUP2 EQ PUSH2 0x25D0 JUMPI PUSH0 PUSH0 REVERT JUMPDEST POP JUMP JUMPDEST PUSH0 DUP2 CALLDATALOAD SWAP1 POP PUSH2 0x25E1 DUP2 PUSH2 0x25BD JUMP JUMPDEST SWAP3 SWAP2 POP POP JUMP JUMPDEST PUSH0 PUSH0 REVERT JUMPDEST PUSH0 PUSH0 REVERT JUMPDEST PUSH0 PUSH0 REVERT JUMPDEST PUSH0 PUSH0 DUP4 PUSH1 0x1F DUP5 ADD SLT PUSH2 0x2608 JUMPI PUSH2 0x2607 PUSH2 0x25E7 JUMP JUMPDEST JUMPDEST DUP3 CALLDATALOAD SWAP1 POP PUSH8 0xFFFFFFFFFFFFFFFF DUP2 GT ISZERO PUSH2 0x2625 JUMPI PUSH2 0x2624 PUSH2 0x25EB JUMP JUMPDEST JUMPDEST PUSH1 0x20 DUP4 ADD SWAP2 POP DUP4 PUSH1 0x1 DUP3 MUL DUP4 ADD GT ISZERO PUSH2 0x2641 JUMPI PUSH2 0x2640 PUSH2 0x25EF JUMP JUMPDEST JUMPDEST SWAP3 POP SWAP3 SWAP1 POP JUMP JUMPDEST PUSH0 PUSH0 PUSH0 PUSH0 PUSH0 PUSH0 PUSH1 0xA0 DUP8 DUP10 SUB SLT ISZERO PUSH2 0x2662 JUMPI PUSH2 0x2661 PUSH2 0x2561 JUMP JUMPDEST JUMPDEST PUSH0 PUSH2 0x266F DUP10 DUP3 DUP11 ADD PUSH2 0x257F JUMP JUMPDEST SWAP7 POP POP PUSH1 0x20 PUSH2 0x2680 DUP10 DUP3 DUP11 ADD PUSH2 0x25A9 JUMP JUMPDEST SWAP6 POP POP PUSH1 0x40 PUSH2 0x2691 DUP10 DUP3 DUP11 ADD PUSH2 0x25A9 JUMP JUMPDEST SWAP5 POP POP PUSH1 0x60 PUSH2 0x26A2 DUP10 DUP3 DUP11 ADD PUSH2 0x25D3 JUMP JUMPDEST SWAP4 POP POP PUSH1 0x80 DUP8 ADD CALLDATALOAD PUSH8 0xFFFFFFFFFFFFFFFF DUP2 GT ISZERO PUSH2 0x26C3 JUMPI PUSH2 0x26C2 PUSH2 0x2565 JUMP JUMPDEST JUMPDEST PUSH2 0x26CF DUP10 DUP3 DUP11 ADD PUSH2 0x25F3 JUMP JUMPDEST SWAP3 POP SWAP3 POP POP SWAP3 SWAP6 POP SWAP3 SWAP6 POP SWAP3 SWAP6 JUMP JUMPDEST PUSH0 DUP2 SWAP1 POP SWAP2 SWAP1 POP JUMP JUMPDEST PUSH2 0x26F0 DUP2 PUSH2 0x26DE JUMP JUMPDEST DUP3 MSTORE POP POP JUMP JUMPDEST PUSH0 PUSH1 0x40 DUP3 ADD SWAP1 POP PUSH2 0x2709 PUSH0 DUP4 ADD DUP6 PUSH2 0x26E7 JUMP JUMPDEST PUSH2 0x2716 PUSH1 0x20 DUP4 ADD DUP5 PUSH2 0x26E7 JUMP JUMPDEST SWAP4 SWAP3 POP POP POP JUMP JUMPDEST PUSH0 DUP2 SWAP1 POP SWAP2 SWAP1 POP JUMP JUMPDEST PUSH2 0x272F DUP2 PUSH2 0x271D JUMP JUMPDEST DUP2 EQ PUSH2 0x2739 JUMPI PUSH0 PUSH0 REVERT JUMPDEST POP JUMP JUMPDEST PUSH0 DUP2 CALLDATALOAD SWAP1 POP PUSH2 0x274A DUP2 PUSH2 0x2726 JUMP JUMPDEST SWAP3 SWAP2 POP POP JUMP JUMPDEST PUSH0 PUSH1 0x20 DUP3 DUP5 SUB SLT ISZERO PUSH2 0x2765 JUMPI PUSH2 0x2764 PUSH2 0x2561 JUMP JUMPDEST JUMPDEST PUSH0 PUSH2 0x2772 DUP5 DUP3 DUP6 ADD PUSH2 0x273C JUMP JUMPDEST SWAP2 POP POP SWAP3 SWAP2 POP POP JUMP JUMPDEST PUSH0 DUP2 PUSH1 0x1 SIGNEXTEND SWAP1 POP SWAP2 SWAP1 POP JUMP JUMPDEST PUSH2 0x2790 DUP2 PUSH2 0x277B JUMP JUMPDEST DUP2 EQ PUSH2 0x279A JUMPI PUSH0 PUSH0 REVERT JUMPDEST POP JUMP JUMPDEST PUSH0 DUP2 CALLDATALOAD SWAP1 POP PUSH2 0x27AB DUP2 PUSH2 0x2787 JUMP JUMPDEST SWAP3 SWAP2 POP POP JUMP JUMPDEST PUSH0 PUSH1 0x20 DUP3 DUP5 SUB SLT ISZERO PUSH2 0x27C6 JUMPI PUSH2 0x27C5 PUSH2 0x2561 JUMP JUMPDEST JUMPDEST PUSH0 PUSH2 0x27D3 DUP5 DUP3 DUP6 ADD PUSH2 0x279D JUMP JUMPDEST SWAP2 POP POP SWAP3 SWAP2 POP POP JUMP JUMPDEST PUSH0 PUSH1 0x20 DUP3 ADD SWAP1 POP PUSH2 0x27EF PUSH0 DUP4 ADD DUP5 PUSH2 0x26E7 JUMP JUMPDEST SWAP3 SWAP2 POP POP JUMP JUMPDEST PUSH0 DUP2 ISZERO ISZERO SWAP1 POP SWAP2 SWAP1 POP JUMP JUMPDEST PUSH2 0x2809 DUP2 PUSH2 0x27F5 JUMP JUMPDEST DUP2 EQ PUSH2 0x2813 JUMPI PUSH0 PUSH0 REVERT JUMPDEST POP JUMP JUMPDEST PUSH0 DUP2 CALLDATALOAD SWAP1 POP PUSH2 0x2824 DUP2 PUSH2 0x2800 JUMP JUMPDEST SWAP3 SWAP2 POP POP JUMP JUMPDEST PUSH2 0x2833 DUP2 PUSH2 0x26DE JUMP JUMPDEST DUP2 EQ PUSH2 0x283D JUMPI PUSH0 PUSH0 REVERT JUMPDEST POP JUMP JUMPDEST PUSH0 DUP2 CALLDATALOAD SWAP1 POP PUSH2 0x284E DUP2 PUSH2 0x282A JUMP JUMPDEST SWAP3 SWAP2 POP POP JUMP JUMPDEST PUSH0 PUSH0 PUSH0 PUSH0 PUSH0 PUSH1 0x80 DUP7 DUP9 SUB SLT ISZERO PUSH2 0x286D JUMPI PUSH2 0x286C PUSH2 0x2561 JUMP JUMPDEST JUMPDEST PUSH0 PUSH2 0x287A DUP9 DUP3 DUP10 ADD PUSH2 0x257F JUMP JUMPDEST SWAP6 POP POP PUSH1 0x20 PUSH2 0x288B DUP9 DUP3 DUP10 ADD PUSH2 0x2816 JUMP JUMPDEST SWAP5 POP POP PUSH1 0x40 PUSH2 0x289C DUP9 DUP3 DUP10 ADD PUSH2 0x2840 JUMP JUMPDEST SWAP4 POP POP PUSH1 0x60 DUP7 ADD CALLDATALOAD PUSH8 0xFFFFFFFFFFFFFFFF DUP2 GT ISZERO PUSH2 0x28BD JUMPI PUSH2 0x28BC PUSH2 0x2565 JUMP JUMPDEST JUMPDEST PUSH2 0x28C9 DUP9 DUP3 DUP10 ADD PUSH2 0x25F3 JUMP JUMPDEST SWAP3 POP SWAP3 POP POP SWAP3 SWAP6 POP SWAP3 SWAP6 SWAP1 SWAP4 POP JUMP JUMPDEST PUSH0 DUP2 SWAP1 POP SWAP2 SWAP1 POP JUMP JUMPDEST PUSH2 0x28EA DUP2 PUSH2 0x28D8 JUMP JUMPDEST DUP3 MSTORE POP POP JUMP JUMPDEST PUSH0 PUSH1 0x40 DUP3 ADD SWAP1 POP PUSH2 0x2903 PUSH0 DUP4 ADD DUP6 PUSH2 0x28E1 JUMP JUMPDEST PUSH2 0x2910 PUSH1 0x20 DUP4 ADD DUP5 PUSH2 0x28E1 JUMP JUMPDEST SWAP4 SWAP3 POP POP POP JUMP JUMPDEST PUSH0 PUSH1 0x20 DUP3 DUP5 SUB SLT ISZERO PUSH2 0x292C JUMPI PUSH2 0x292B PUSH2 0x2561 JUMP JUMPDEST JUMPDEST PUSH0 PUSH2 0x2939 DUP5 DUP3 DUP6 ADD PUSH2 0x25A9 JUMP JUMPDEST SWAP2 POP POP SWAP3 SWAP2 POP POP JUMP JUMPDEST PUSH2 0x294B DUP2 PUSH2 0x27F5 JUMP JUMPDEST DUP3 MSTORE POP POP JUMP JUMPDEST PUSH0 PUSH1 0x40 DUP3 ADD SWAP1 POP PUSH2 0x2964 PUSH0 DUP4 ADD DUP6 PUSH2 0x2942 JUMP JUMPDEST PUSH2 0x2971 PUSH1 0x20 DUP4 ADD DUP5 PUSH2 0x24E8 JUMP JUMPDEST SWAP4 SWAP3 POP POP POP JUMP JUMPDEST PUSH32 0x4E487B7100000000000000000000000000000000000000000000000000000000 PUSH0 MSTORE PUSH1 0x11 PUSH1 0x4 MSTORE PUSH1 0x24 PUSH0 REVERT JUMPDEST PUSH0 PUSH2 0x29AF DUP3 PUSH2 0x251F JUMP JUMPDEST SWAP2 POP PUSH32 0xFFFFFFFFFFFFFFFFFFFFFFFFFFFFFFFFFFFFFFFFFFFFFFFFFFFFFFFFFF800000 DUP3 SUB PUSH2 0x29E1 JUMPI PUSH2 0x29E0 PUSH2 0x2978 JUMP JUMPDEST JUMPDEST DUP2 PUSH0 SUB SWAP1 POP SWAP2 SWAP1 POP JUMP JUMPDEST PUSH0 PUSH2 0x29F5 DUP3 PUSH2 0x24CD JUMP JUMPDEST SWAP2 POP PUSH2 0x2A00 DUP4 PUSH2 0x24CD JUMP JUMPDEST SWAP3 POP DUP3 DUP3 ADD SWAP1 POP PUSH16 0xFFFFFFFFFFFFFFFFFFFFFFFFFFFFFFFF DUP2 GT ISZERO PUSH2 0x2A28 JUMPI PUSH2 0x2A27 PUSH2 0x2978 JUMP JUMPDEST JUMPDEST SWAP3 SWAP2 POP POP JUMP JUMPDEST PUSH0 DUP3 DUP3 MSTORE PUSH1 0x20 DUP3 ADD SWAP1 POP SWAP3 SWAP2 POP POP JUMP JUMPDEST DUP3 DUP2 DUP4 CALLDATACOPY PUSH0 DUP4 DUP4 ADD MSTORE POP POP POP JUMP JUMPDEST PUSH0 PUSH1 0x1F NOT PUSH1 0x1F DUP4 ADD AND SWAP1 POP SWAP2 SWAP1 POP JUMP JUMPDEST PUSH0 PUSH2 0x2A67 DUP4 DUP6 PUSH2 0x2A2E JUMP JUMPDEST SWAP4 POP PUSH2 0x2A74 DUP4 DUP6 DUP5 PUSH2 0x2A3E JUMP JUMPDEST PUSH2 0x2A7D DUP4 PUSH2 0x2A4C JUMP JUMPDEST DUP5 ADD SWAP1 POP SWAP4 SWAP3 POP POP POP JUMP JUMPDEST PUSH0 PUSH1 0x60 DUP3 ADD SWAP1 POP PUSH2 0x2A9B PUSH0 DUP4 ADD DUP8 PUSH2 0x26E7 JUMP JUMPDEST PUSH2 0x2AA8 PUSH1 0x20 DUP4 ADD DUP7 PUSH2 0x26E7 JUMP JUMPDEST DUP2 DUP2 SUB PUSH1 0x40 DUP4 ADD MSTORE PUSH2 0x2ABB DUP2 DUP5 DUP7 PUSH2 0x2A5C JUMP JUMPDEST SWAP1 POP SWAP6 SWAP5 POP POP POP POP POP JUMP JUMPDEST PUSH0 PUSH2 0x2AD0 DUP3 PUSH2 0x26DE JUMP JUMPDEST SWAP2 POP PUSH2 0x2ADB DUP4 PUSH2 0x26DE JUMP JUMPDEST SWAP3 POP DUP3 DUP3 ADD SWAP1 POP DUP1 DUP3 GT ISZERO PUSH2 0x2AF3 JUMPI PUSH2 0x2AF2 PUSH2 0x2978 JUMP JUMPDEST JUMPDEST SWAP3 SWAP2 POP POP JUMP JUMPDEST PUSH0 PUSH1 0x80 DUP3 ADD SWAP1 POP PUSH2 0x2B0C PUSH0 DUP4 ADD DUP8 PUSH2 0x24A5 JUMP JUMPDEST PUSH2 0x2B19 PUSH1 0x20 DUP4 ADD DUP7 PUSH2 0x24E8 JUMP JUMPDEST PUSH2 0x2B26 PUSH1 0x40 DUP4 ADD DUP6 PUSH2 0x26E7 JUMP JUMPDEST PUSH2 0x2B33 PUSH1 0x60 DUP4 ADD DUP5 PUSH2 0x26E7 JUMP JUMPDEST SWAP6 SWAP5 POP POP POP POP POP JUMP JUMPDEST PUSH0 PUSH2 0x2B46 DUP3 PUSH2 0x26DE JUMP JUMPDEST SWAP2 POP PUSH2 0x2B51 DUP4 PUSH2 0x26DE JUMP JUMPDEST SWAP3 POP DUP3 DUP3 SUB SWAP1 POP DUP2 DUP2 GT ISZERO PUSH2 0x2B69 JUMPI PUSH2 0x2B68 PUSH2 0x2978 JUMP JUMPDEST JUMPDEST SWAP3 SWAP2 POP POP JUMP JUMPDEST PUSH0 PUSH2 0x2B79 DUP3 PUSH2 0x28D8 JUMP JUMPDEST SWAP2 POP PUSH32 0x8000000000000000000000000000000000000000000000000000000000000000 DUP3 SUB PUSH2 0x2BAB JUMPI PUSH2 0x2BAA PUSH2 0x2978 JUMP JUMPDEST JUMPDEST DUP2 PUSH0 SUB SWAP1 POP SWAP2 SWAP1 POP JUMP JUMPDEST PUSH0 PUSH1 0x40 DUP3 ADD SWAP1 POP PUSH2 0x2BC8 PUSH0 DUP4 ADD DUP6 PUSH2 0x24A5 JUMP JUMPDEST PUSH2 0x2BD5 PUSH1 0x20 DUP4 ADD DUP5 PUSH2 0x26E7 JUMP JUMPDEST SWAP4 SWAP3 POP POP POP JUMP JUMPDEST PUSH0 DUP2 MLOAD SWAP1 POP PUSH2 0x2BEA DUP2 PUSH2 0x2800 JUMP JUMPDEST SWAP3 SWAP2 POP POP JUMP JUMPDEST PUSH0 PUSH1 0x20 DUP3 DUP5 SUB SLT ISZERO PUSH2 0x2C05 JUMPI PUSH2 0x2C04 PUSH2 0x2561 JUMP JUMPDEST JUMPDEST PUSH0 PUSH2 0x2C12 DUP5 DUP3 DUP6 ADD PUSH2 0x2BDC JUMP JUMPDEST SWAP2 POP POP SWAP3 SWAP2 POP POP JUMP JUMPDEST PUSH0 PUSH1 0x60 DUP3 ADD SWAP1 POP PUSH2 0x2C2E PUSH0 DUP4 ADD DUP8 PUSH2 0x28E1 JUMP JUMPDEST PUSH2 0x2C3B PUSH1 0x20 DUP4 ADD DUP7 PUSH2 0x28E1 JUMP JUMPDEST DUP2 DUP2 SUB PUSH1 0x40 DUP4 ADD MSTORE PUSH2 0x2C4E DUP2 DUP5 DUP7 PUSH2 0x2A5C JUMP JUMPDEST SWAP1 POP SWAP6 SWAP5 POP POP POP POP POP JUMP JUMPDEST PUSH0 PUSH1 0xA0 DUP3 ADD SWAP1 POP PUSH2 0x2C6C PUSH0 DUP4 ADD DUP9 PUSH2 0x28E1 JUMP JUMPDEST PUSH2 0x2C79 PUSH1 0x20 DUP4 ADD DUP8 PUSH2 0x28E1 JUMP JUMPDEST PUSH2 0x2C86 PUSH1 0x40 DUP4 ADD DUP7 PUSH2 0x2510 JUMP JUMPDEST PUSH2 0x2C93 PUSH1 0x60 DUP4 ADD DUP6 PUSH2 0x24E8 JUMP JUMPDEST PUSH2 0x2CA0 PUSH1 0x80 DUP4 ADD DUP5 PUSH2 0x252B JUMP JUMPDEST SWAP7 SWAP6 POP POP POP POP POP POP JUMP JUMPDEST PUSH32 0x4E487B7100000000000000000000000000000000000000000000000000000000 PUSH0 MSTORE PUSH1 0x12 PUSH1 0x4 MSTORE PUSH1 0x24 PUSH0 REVERT JUMPDEST PUSH0 PUSH2 0x2CE1 DUP3 PUSH2 0x251F JUMP JUMPDEST SWAP2 POP PUSH2 0x2CEC DUP4 PUSH2 0x251F JUMP JUMPDEST SWAP3 POP DUP3 PUSH2 0x2CFC JUMPI PUSH2 0x2CFB PUSH2 0x2CAA JUMP JUMPDEST JUMPDEST DUP3 DUP3 SMOD SWAP1 POP SWAP3 SWAP2 POP POP JUMP JUMPDEST PUSH0 PUSH2 0x2D11 DUP3 PUSH2 0x251F JUMP JUMPDEST SWAP2 POP PUSH2 0x2D1C DUP4 PUSH2 0x251F JUMP JUMPDEST SWAP3 POP DUP3 PUSH2 0x2D2C JUMPI PUSH2 0x2D2B PUSH2 0x2CAA JUMP JUMPDEST JUMPDEST PUSH1 0x1 PUSH0 SUB DUP4 EQ PUSH32 0xFFFFFFFFFFFFFFFFFFFFFFFFFFFFFFFFFFFFFFFFFFFFFFFFFFFFFFFFFF800000 DUP4 EQ AND ISZERO PUSH2 0x2D64 JUMPI PUSH2 0x2D63 PUSH2 0x2978 JUMP JUMPDEST JUMPDEST DUP3 DUP3 SDIV SWAP1 POP SWAP3 SWAP2 POP POP JUMP JUMPDEST PUSH0 DUP2 PUSH1 0x60 SHL SWAP1 POP SWAP2 SWAP1 POP JUMP JUMPDEST PUSH0 PUSH2 0x2D85 DUP3 PUSH2 0x2D6F JUMP JUMPDEST SWAP1 POP SWAP2 SWAP1 POP JUMP JUMPDEST PUSH0 PUSH2 0x2D96 DUP3 PUSH2 0x2D7B JUMP JUMPDEST SWAP1 POP SWAP2 SWAP1 POP JUMP JUMPDEST PUSH2 0x2DAE PUSH2 0x2DA9 DUP3 PUSH2 0x2494 JUMP JUMPDEST PUSH2 0x2D8C JUMP JUMPDEST DUP3 MSTORE POP POP JUMP JUMPDEST PUSH0 DUP2 PUSH1 0xE8 SHL SWAP1 POP SWAP2 SWAP1 POP JUMP JUMPDEST PUSH0 PUSH2 0x2DCA DUP3 PUSH2 0x2DB4 JUMP JUMPDEST SWAP1 POP SWAP2 SWAP1 POP JUMP JUMPDEST PUSH2 0x2DE2 PUSH2 0x2DDD DUP3 PUSH2 0x251F JUMP JUMPDEST PUSH2 0x2DC0 JUMP JUMPDEST DUP3 MSTORE POP POP JUMP JUMPDEST PUSH0 PUSH2 0x2DF3 DUP3 DUP7 PUSH2 0x2D9D JUMP JUMPDEST PUSH1 0x14 DUP3 ADD SWAP2 POP PUSH2 0x2E03 DUP3 DUP6 PUSH2 0x2DD1 JUMP JUMPDEST PUSH1 0x3 DUP3 ADD SWAP2 POP PUSH2 0x2E13 DUP3 DUP5 PUSH2 0x2DD1 JUMP JUMPDEST PUSH1 0x3 DUP3 ADD SWAP2 POP DUP2 SWAP1 POP SWAP5 SWAP4 POP POP POP POP JUMP JUMPDEST PUSH0 DUP3 DUP3 MSTORE PUSH1 0x20 DUP3 ADD SWAP1 POP SWAP3 SWAP2 POP POP JUMP JUMPDEST PUSH32 0x5400000000000000000000000000000000000000000000000000000000000000 PUSH0 DUP3 ADD MSTORE POP JUMP JUMPDEST PUSH0 PUSH2 0x2E68 PUSH1 0x1 DUP4 PUSH2 0x2E24 JUMP JUMPDEST SWAP2 POP PUSH2 0x2E73 DUP3 PUSH2 0x2E34 JUMP JUMPDEST PUSH1 0x20 DUP3 ADD SWAP1 POP SWAP2 SWAP1 POP JUMP JUMPDEST PUSH0 PUSH1 0x20 DUP3 ADD SWAP1 POP DUP2 DUP2 SUB PUSH0 DUP4 ADD MSTORE PUSH2 0x2E95 DUP2 PUSH2 0x2E5C JUMP JUMPDEST SWAP1 POP SWAP2 SWAP1 POP JUMP JUMPDEST PUSH0 PUSH2 0x2EA6 DUP3 PUSH2 0x26DE JUMP JUMPDEST SWAP2 POP PUSH2 0x2EB1 DUP4 PUSH2 0x26DE JUMP JUMPDEST SWAP3 POP DUP3 DUP3 MUL PUSH2 0x2EBF DUP2 PUSH2 0x26DE JUMP JUMPDEST SWAP2 POP DUP3 DUP3 DIV DUP5 EQ DUP4 ISZERO OR PUSH2 0x2ED6 JUMPI PUSH2 0x2ED5 PUSH2 0x2978 JUMP JUMPDEST JUMPDEST POP SWAP3 SWAP2 POP POP JUMP JUMPDEST PUSH0 PUSH2 0x2EE7 DUP3 PUSH2 0x26DE JUMP JUMPDEST SWAP2 POP PUSH2 0x2EF2 DUP4 PUSH2 0x26DE JUMP JUMPDEST SWAP3 POP DUP3 PUSH2 0x2F02 JUMPI PUSH2 0x2F01 PUSH2 0x2CAA JUMP JUMPDEST JUMPDEST DUP3 DUP3 DIV SWAP1 POP SWAP3 SWAP2 POP POP JUMP JUMPDEST PUSH0 PUSH2 0x2F17 DUP3 PUSH2 0x26DE JUMP JUMPDEST SWAP2 POP PUSH2 0x2F22 DUP4 PUSH2 0x26DE JUMP JUMPDEST SWAP3 POP DUP3 PUSH2 0x2F32 JUMPI PUSH2 0x2F31 PUSH2 0x2CAA JUMP JUMPDEST JUMPDEST DUP3 DUP3 MOD SWAP1 POP SWAP3 SWAP2 POP POP JUMP JUMPDEST PUSH0 PUSH2 0x2F47 DUP3 PUSH2 0x2475 JUMP JUMPDEST SWAP2 POP PUSH2 0x2F52 DUP4 PUSH2 0x2475 JUMP JUMPDEST SWAP3 POP DUP3 DUP3 SUB SWAP1 POP PUSH20 0xFFFFFFFFFFFFFFFFFFFFFFFFFFFFFFFFFFFFFFFF DUP2 GT ISZERO PUSH2 0x2F7E JUMPI PUSH2 0x2F7D PUSH2 0x2978 JUMP JUMPDEST JUMPDEST SWAP3 SWAP2 POP POP JUMP JUMPDEST PUSH0 DUP2 MLOAD SWAP1 POP PUSH2 0x2F92 DUP2 PUSH2 0x282A JUMP JUMPDEST SWAP3 SWAP2 POP POP JUMP JUMPDEST PUSH0 PUSH1 0x20 DUP3 DUP5 SUB SLT ISZERO PUSH2 0x2FAD JUMPI PUSH2 0x2FAC PUSH2 0x2561 JUMP JUMPDEST JUMPDEST PUSH0 PUSH2 0x2FBA DUP5 DUP3 DUP6 ADD PUSH2 0x2F84 JUMP JUMPDEST SWAP2 POP POP SWAP3 SWAP2 POP POP JUMP JUMPDEST PUSH0 PUSH2 0x2FCD DUP3 PUSH2 0x251F JUMP JUMPDEST SWAP2 POP PUSH32 0xFFFFFFFFFFFFFFFFFFFFFFFFFFFFFFFFFFFFFFFFFFFFFFFFFFFFFFFFFF800000 DUP3 SUB PUSH2 0x2FFF JUMPI PUSH2 0x2FFE PUSH2 0x2978 JUMP JUMPDEST JUMPDEST PUSH1 0x1 DUP3 SUB SWAP1 POP SWAP2 SWAP1 POP JUMP JUMPDEST PUSH0 PUSH2 0x3014 DUP3 PUSH2 0x251F JUMP JUMPDEST SWAP2 POP PUSH2 0x301F DUP4 PUSH2 0x251F JUMP JUMPDEST SWAP3 POP DUP3 DUP3 SUB SWAP1 POP PUSH3 0x7FFFFF DUP2 SGT PUSH32 0xFFFFFFFFFFFFFFFFFFFFFFFFFFFFFFFFFFFFFFFFFFFFFFFFFFFFFFFFFF800000 DUP3 SLT OR ISZERO PUSH2 0x305E JUMPI PUSH2 0x305D PUSH2 0x2978 JUMP JUMPDEST JUMPDEST SWAP3 SWAP2 POP POP JUMP JUMPDEST PUSH0 PUSH2 0x306E DUP3 PUSH2 0x251F JUMP JUMPDEST SWAP2 POP PUSH2 0x3079 DUP4 PUSH2 0x251F JUMP JUMPDEST SWAP3 POP DUP3 DUP3 MUL PUSH2 0x3087 DUP2 PUSH2 0x251F JUMP JUMPDEST SWAP2 POP DUP1 DUP3 EQ PUSH2 0x3099 JUMPI PUSH2 0x3098 PUSH2 0x2978 JUMP JUMPDEST JUMPDEST POP SWAP3 SWAP2 POP POP JUMP JUMPDEST PUSH0 PUSH1 0xFF DUP3 AND SWAP1 POP SWAP2 SWAP1 POP JUMP JUMPDEST PUSH0 PUSH2 0x30B6 DUP3 PUSH2 0x30A0 JUMP JUMPDEST SWAP2 POP PUSH2 0x30C1 DUP4 PUSH2 0x30A0 JUMP JUMPDEST SWAP3 POP DUP3 DUP3 SUB SWAP1 POP PUSH1 0xFF DUP2 GT ISZERO PUSH2 0x30DA JUMPI PUSH2 0x30D9 PUSH2 0x2978 JUMP JUMPDEST JUMPDEST SWAP3 SWAP2 POP POP JUMP JUMPDEST PUSH0 PUSH2 0x30EA DUP3 PUSH2 0x251F JUMP JUMPDEST SWAP2 POP PUSH2 0x30F5 DUP4 PUSH2 0x251F JUMP JUMPDEST SWAP3 POP DUP3 DUP3 ADD SWAP1 POP PUSH32 0xFFFFFFFFFFFFFFFFFFFFFFFFFFFFFFFFFFFFFFFFFFFFFFFFFFFFFFFFFF800000 DUP2 SLT PUSH3 0x7FFFFF DUP3 SGT OR ISZERO PUSH2 0x3134 JUMPI PUSH2 0x3133 PUSH2 0x2978 JUMP JUMPDEST JUMPDEST SWAP3 SWAP2 POP POP JUMP JUMPDEST PUSH32 0x5200000000000000000000000000000000000000000000000000000000000000 PUSH0 DUP3 ADD MSTORE POP JUMP JUMPDEST PUSH0 PUSH2 0x316E PUSH1 0x1 DUP4 PUSH2 0x2E24 JUMP JUMPDEST SWAP2 POP PUSH2 0x3179 DUP3 PUSH2 0x313A JUMP JUMPDEST PUSH1 0x20 DUP3 ADD SWAP1 POP SWAP2 SWAP1 POP JUMP JUMPDEST PUSH0 PUSH1 0x20 DUP3 ADD SWAP1 POP DUP2 DUP2 SUB PUSH0 DUP4 ADD MSTORE PUSH2 0x319B DUP2 PUSH2 0x3162 JUMP JUMPDEST SWAP1 POP SWAP2 SWAP1 POP JUMP JUMPDEST PUSH0 PUSH2 0x31AC DUP3 PUSH2 0x28D8 JUMP JUMPDEST SWAP2 POP PUSH2 0x31B7 DUP4 PUSH2 0x28D8 JUMP JUMPDEST SWAP3 POP DUP3 DUP3 SUB SWAP1 POP DUP2 DUP2 SLT PUSH0 DUP5 SLT AND DUP3 DUP3 SGT PUSH0 DUP6 SLT ISZERO AND OR ISZERO PUSH2 0x31DC JUMPI PUSH2 0x31DB PUSH2 0x2978 JUMP JUMPDEST JUMPDEST SWAP3 SWAP2 POP POP JUMP JUMPDEST PUSH0 PUSH2 0x31EC DUP3 PUSH2 0x28D8 JUMP JUMPDEST SWAP2 POP PUSH2 0x31F7 DUP4 PUSH2 0x28D8 JUMP JUMPDEST SWAP3 POP DUP3 DUP3 MUL PUSH2 0x3205 DUP2 PUSH2 0x28D8 JUMP JUMPDEST SWAP2 POP PUSH32 0x8000000000000000000000000000000000000000000000000000000000000000 DUP5 EQ PUSH0 DUP5 SLT AND ISZERO PUSH2 0x323C JUMPI PUSH2 0x323B PUSH2 0x2978 JUMP JUMPDEST JUMPDEST DUP3 DUP3 SDIV DUP5 EQ DUP4 ISZERO OR PUSH2 0x3251 JUMPI PUSH2 0x3250 PUSH2 0x2978 JUMP JUMPDEST JUMPDEST POP SWAP3 SWAP2 POP POP JUMP JUMPDEST PUSH0 PUSH2 0x3262 DUP3 PUSH2 0x28D8 JUMP JUMPDEST SWAP2 POP PUSH2 0x326D DUP4 PUSH2 0x28D8 JUMP JUMPDEST SWAP3 POP DUP3 DUP3 ADD SWAP1 POP DUP3 DUP2 SLT ISZERO PUSH0 DUP4 SLT AND DUP4 DUP3 SLT PUSH0 DUP5 SLT ISZERO AND OR ISZERO PUSH2 0x3293 JUMPI PUSH2 0x3292 PUSH2 0x2978 JUMP JUMPDEST JUMPDEST SWAP3 SWAP2 POP POP JUMP JUMPDEST PUSH0 PUSH2 0x32A3 DUP3 PUSH2 0x26DE JUMP JUMPDEST SWAP2 POP PUSH32 0xFFFFFFFFFFFFFFFFFFFFFFFFFFFFFFFFFFFFFFFFFFFFFFFFFFFFFFFFFFFFFFFF DUP3 SUB PUSH2 0x32D5 JUMPI PUSH2 0x32D4 PUSH2 0x2978 JUMP JUMPDEST JUMPDEST PUSH1 0x1 DUP3 ADD SWAP1 POP SWAP2 SWAP1 POP JUMP JUMPDEST PUSH0 PUSH2 0x32EA DUP3 PUSH2 0x30A0 JUMP JUMPDEST SWAP2 POP PUSH2 0x32F5 DUP4 PUSH2 0x30A0 JUMP JUMPDEST SWAP3 POP DUP3 DUP3 ADD SWAP1 POP PUSH1 0xFF DUP2 GT ISZERO PUSH2 0x330E JUMPI PUSH2 0x330D PUSH2 0x2978 JUMP JUMPDEST JUMPDEST SWAP3 SWAP2 POP POP JUMP JUMPDEST PUSH32 0x5052424D6174683A206F766572666C6F77000000000000000000000000000000 PUSH0 DUP3 ADD MSTORE POP JUMP JUMPDEST PUSH0 PUSH2 0x3348 PUSH1 0x11 DUP4 PUSH2 0x2E24 JUMP JUMPDEST SWAP2 POP PUSH2 0x3353 DUP3 PUSH2 0x3314 JUMP JUMPDEST PUSH1 0x20 DUP3 ADD SWAP1 POP SWAP2 SWAP1 POP JUMP JUMPDEST PUSH0 PUSH1 0x20 DUP3 ADD SWAP1 POP DUP2 DUP2 SUB PUSH0 DUP4 ADD MSTORE PUSH2 0x3375 DUP2 PUSH2 0x333C JUMP JUMPDEST SWAP1 POP SWAP2 SWAP1 POP JUMP JUMPDEST PUSH0 PUSH2 0x3386 DUP3 PUSH2 0x2475 JUMP JUMPDEST SWAP2 POP PUSH2 0x3391 DUP4 PUSH2 0x2475 JUMP JUMPDEST SWAP3 POP DUP3 DUP3 ADD SWAP1 POP PUSH20 0xFFFFFFFFFFFFFFFFFFFFFFFFFFFFFFFFFFFFFFFF DUP2 GT ISZERO PUSH2 0x33BD JUMPI PUSH2 0x33BC PUSH2 0x2978 JUMP JUMPDEST JUMPDEST SWAP3 SWAP2 POP POP JUMP INVALID LOG2 PUSH5 0x6970667358 0x22 SLT KECCAK256 ADD CREATE2 PUSH10 0xD86AA03A33D1BD9400BC EXP DATALOADN 0xA8F0 0x23 SDIV DUP3 0x2C POP PUSH16 0x18C435F7FFE893569A64736F6C634300 ADDMOD 0x1E STOP CALLER "
				},
				"gasEstimates": {
					"creation": {
						"codeDepositCost": "2661000",
						"executionCost": "infinite",
						"totalCost": "infinite"
					},
					"external": {
						"liquidity()": "2489",
						"mint(address,int24,int24,uint128,bytes)": "infinite",
						"positions(bytes32)": "2808",
						"slot0()": "4829",
						"swap(address,bool,uint256,bytes)": "infinite",
						"tickBitmap(int16)": "2784",
						"ticks(int24)": "5206",
						"token0()": "infinite",
						"token1()": "infinite"
					},
					"internal": {
						"balance0()": "infinite",
						"balance1()": "infinite"
					}
				},
				"methodIdentifiers": {
					"liquidity()": "1a686502",
					"mint(address,int24,int24,uint128,bytes)": "3c8a7d8d",
					"positions(bytes32)": "514ea4bf",
					"slot0()": "3850c7bd",
					"swap(address,bool,uint256,bytes)": "80c2c6ef",
					"tickBitmap(int16)": "5339c296",
					"ticks(int24)": "f30dba93",
					"token0()": "0dfe1681",
					"token1()": "d21220a7"
				}
			},
			"storageLayout": {
				"storage": [
					{
						"astId": 60,
						"contract": "src/UniswapV3Pool.sol:UniswapV3Pool",
						"label": "slot0",
						"offset": 0,
						"slot": "0",
						"type": "t_struct(Slot0)57_storage"
					},
					{
						"astId": 62,
						"contract": "src/UniswapV3Pool.sol:UniswapV3Pool",
						"label": "liquidity",
						"offset": 0,
						"slot": "1",
						"type": "t_uint128"
					},
					{
						"astId": 67,
						"contract": "src/UniswapV3Pool.sol:UniswapV3Pool",
						"label": "ticks",
						"offset": 0,
						"slot": "2",
						"type": "t_mapping(t_int24,t_struct(Info)1781_storage)"
					},
					{
						"astId": 71,
						"contract": "src/UniswapV3Pool.sol:UniswapV3Pool",
						"label": "tickBitmap",
						"offset": 0,
						"slot": "3",
						"type": "t_mapping(t_int16,t_uint256)"
					},
					{
						"astId": 76,
						"contract": "src/UniswapV3Pool.sol:UniswapV3Pool",
						"label": "positions",
						"offset": 0,
						"slot": "4",
						"type": "t_mapping(t_bytes32,t_struct(Info)1648_storage)"
					}
				],
				"types": {
					"t_bool": {
						"encoding": "inplace",
						"label": "bool",
						"numberOfBytes": "1"
					},
					"t_bytes32": {
						"encoding": "inplace",
						"label": "bytes32",
						"numberOfBytes": "32"
					},
					"t_int16": {
						"encoding": "inplace",
						"label": "int16",
						"numberOfBytes": "2"
					},
					"t_int24": {
						"encoding": "inplace",
						"label": "int24",
						"numberOfBytes": "3"
					},
					"t_mapping(t_bytes32,t_struct(Info)1648_storage)": {
						"encoding": "mapping",
						"key": "t_bytes32",
						"label": "mapping(bytes32 => struct Position.Info)",
						"numberOfBytes": "32",
						"value": "t_struct(Info)1648_storage"
					},
					"t_mapping(t_int16,t_uint256)": {
						"encoding": "mapping",
						"key": "t_int16",
						"label": "mapping(int16 => uint256)",
						"numberOfBytes": "32",
						"value": "t_uint256"
					},
					"t_mapping(t_int24,t_struct(Info)1781_storage)": {
						"encoding": "mapping",
						"key": "t_int24",
						"label": "mapping(int24 => struct Tick.Info)",
						"numberOfBytes": "32",
						"value": "t_struct(Info)1781_storage"
					},
					"t_struct(Info)1648_storage": {
						"encoding": "inplace",
						"label": "struct Position.Info",
						"members": [
							{
								"astId": 1647,
								"contract": "src/UniswapV3Pool.sol:UniswapV3Pool",
								"label": "liquidity",
								"offset": 0,
								"slot": "0",
								"type": "t_uint128"
							}
						],
						"numberOfBytes": "32"
					},
					"t_struct(Info)1781_storage": {
						"encoding": "inplace",
						"label": "struct Tick.Info",
						"members": [
							{
								"astId": 1778,
								"contract": "src/UniswapV3Pool.sol:UniswapV3Pool",
								"label": "initialized",
								"offset": 0,
								"slot": "0",
								"type": "t_bool"
							},
							{
								"astId": 1780,
								"contract": "src/UniswapV3Pool.sol:UniswapV3Pool",
								"label": "liquidity",
								"offset": 1,
								"slot": "0",
								"type": "t_uint128"
							}
						],
						"numberOfBytes": "32"
					},
					"t_struct(Slot0)57_storage": {
						"encoding": "inplace",
						"label": "struct UniswapV3Pool.Slot0",
						"members": [
							{
								"astId": 54,
								"contract": "src/UniswapV3Pool.sol:UniswapV3Pool",
								"label": "sqrtPriceX96",
								"offset": 0,
								"slot": "0",
								"type": "t_uint160"
							},
							{
								"astId": 56,
								"contract": "src/UniswapV3Pool.sol:UniswapV3Pool",
								"label": "tick",
								"offset": 20,
								"slot": "0",
								"type": "t_int24"
							}
						],
						"numberOfBytes": "32"
					},
					"t_uint128": {
						"encoding": "inplace",
						"label": "uint128",
						"numberOfBytes": "16"
					},
					"t_uint160": {
						"encoding": "inplace",
						"label": "uint160",
						"numberOfBytes": "20"
					},
					"t_uint256": {
						"encoding": "inplace",
						"label": "uint256",
						"numberOfBytes": "32"
					}
				}
			},
			"userdoc": {
				"events": {
					"Burn(address,int24,int24,uint128,uint256,uint256)": {
						"notice": "Emitted when a position's liquidity is removed"
					},
					"Collect(address,address,int24,int24,uint128,uint128)": {
						"notice": "Emitted when fees are collected by the owner of a position"
					},
					"CollectProtocol(address,address,uint128,uint128)": {
						"notice": "Emitted when the collected protocol fees are withdrawn by the factory owner"
					},
					"Flash(address,address,uint256,uint256,uint256,uint256)": {
						"notice": "Emitted by the pool for any flashes of token0/token1"
					},
					"IncreaseObservationCardinalityNext(uint16,uint16)": {
						"notice": "Emitted by the pool for increases to the number of observations that can be stored"
					},
					"Initialize(uint160,int24)": {
						"notice": "Emitted exactly once by a pool when #initialize is first called on the pool"
					},
					"Mint(address,address,int24,int24,uint128,uint256,uint256)": {
						"notice": "Emitted when liquidity is minted for a given position"
					},
					"SetFeeProtocol(uint8,uint8,uint8,uint8)": {
						"notice": "Emitted when the protocol fee is changed by the pool"
					},
					"Swap(address,address,int256,int256,uint160,uint128,int24)": {
						"notice": "Emitted by the pool for any swaps between token0 and token1"
					}
				},
				"kind": "user",
				"methods": {},
				"version": 1
			}
		}
	}
}