{
	"src/UniswapV3Pool.sol": {
		"UniswapV3Pool": {
			"abi": [
				{
					"inputs": [
						{
							"internalType": "address",
							"name": "token0_",
							"type": "address"
						},
						{
							"internalType": "address",
							"name": "token1_",
							"type": "address"
						},
						{
							"internalType": "uint160",
							"name": "sqrtPriceX96",
							"type": "uint160"
						},
						{
							"internalType": "int24",
							"name": "tick",
							"type": "int24"
						}
					],
					"stateMutability": "nonpayable",
					"type": "constructor"
				},
				{
					"inputs": [],
					"name": "InsufficientInputAmount",
					"type": "error"
				},
				{
					"inputs": [],
					"name": "InvalidTickRange",
					"type": "error"
				},
				{
					"inputs": [],
					"name": "ZeroLiquidity",
					"type": "error"
				},
				{
					"anonymous": false,
					"inputs": [
						{
							"indexed": true,
							"internalType": "address",
							"name": "owner",
							"type": "address"
						},
						{
							"indexed": true,
							"internalType": "int24",
							"name": "tickLower",
							"type": "int24"
						},
						{
							"indexed": true,
							"internalType": "int24",
							"name": "tickUpper",
							"type": "int24"
						},
						{
							"indexed": false,
							"internalType": "uint128",
							"name": "amount",
							"type": "uint128"
						},
						{
							"indexed": false,
							"internalType": "uint256",
							"name": "amount0",
							"type": "uint256"
						},
						{
							"indexed": false,
							"internalType": "uint256",
							"name": "amount1",
							"type": "uint256"
						}
					],
					"name": "Burn",
					"type": "event"
				},
				{
					"anonymous": false,
					"inputs": [
						{
							"indexed": true,
							"internalType": "address",
							"name": "owner",
							"type": "address"
						},
						{
							"indexed": false,
							"internalType": "address",
							"name": "recipient",
							"type": "address"
						},
						{
							"indexed": true,
							"internalType": "int24",
							"name": "tickLower",
							"type": "int24"
						},
						{
							"indexed": true,
							"internalType": "int24",
							"name": "tickUpper",
							"type": "int24"
						},
						{
							"indexed": false,
							"internalType": "uint128",
							"name": "amount0",
							"type": "uint128"
						},
						{
							"indexed": false,
							"internalType": "uint128",
							"name": "amount1",
							"type": "uint128"
						}
					],
					"name": "Collect",
					"type": "event"
				},
				{
					"anonymous": false,
					"inputs": [
						{
							"indexed": true,
							"internalType": "address",
							"name": "sender",
							"type": "address"
						},
						{
							"indexed": true,
							"internalType": "address",
							"name": "recipient",
							"type": "address"
						},
						{
							"indexed": false,
							"internalType": "uint128",
							"name": "amount0",
							"type": "uint128"
						},
						{
							"indexed": false,
							"internalType": "uint128",
							"name": "amount1",
							"type": "uint128"
						}
					],
					"name": "CollectProtocol",
					"type": "event"
				},
				{
					"anonymous": false,
					"inputs": [
						{
							"indexed": true,
							"internalType": "address",
							"name": "sender",
							"type": "address"
						},
						{
							"indexed": true,
							"internalType": "address",
							"name": "recipient",
							"type": "address"
						},
						{
							"indexed": false,
							"internalType": "uint256",
							"name": "amount0",
							"type": "uint256"
						},
						{
							"indexed": false,
							"internalType": "uint256",
							"name": "amount1",
							"type": "uint256"
						},
						{
							"indexed": false,
							"internalType": "uint256",
							"name": "paid0",
							"type": "uint256"
						},
						{
							"indexed": false,
							"internalType": "uint256",
							"name": "paid1",
							"type": "uint256"
						}
					],
					"name": "Flash",
					"type": "event"
				},
				{
					"anonymous": false,
					"inputs": [
						{
							"indexed": false,
							"internalType": "uint16",
							"name": "observationCardinalityNextOld",
							"type": "uint16"
						},
						{
							"indexed": false,
							"internalType": "uint16",
							"name": "observationCardinalityNextNew",
							"type": "uint16"
						}
					],
					"name": "IncreaseObservationCardinalityNext",
					"type": "event"
				},
				{
					"anonymous": false,
					"inputs": [
						{
							"indexed": false,
							"internalType": "uint160",
							"name": "sqrtPriceX96",
							"type": "uint160"
						},
						{
							"indexed": false,
							"internalType": "int24",
							"name": "tick",
							"type": "int24"
						}
					],
					"name": "Initialize",
					"type": "event"
				},
				{
					"anonymous": false,
					"inputs": [
						{
							"indexed": false,
							"internalType": "address",
							"name": "sender",
							"type": "address"
						},
						{
							"indexed": true,
							"internalType": "address",
							"name": "owner",
							"type": "address"
						},
						{
							"indexed": true,
							"internalType": "int24",
							"name": "tickLower",
							"type": "int24"
						},
						{
							"indexed": true,
							"internalType": "int24",
							"name": "tickUpper",
							"type": "int24"
						},
						{
							"indexed": false,
							"internalType": "uint128",
							"name": "amount",
							"type": "uint128"
						},
						{
							"indexed": false,
							"internalType": "uint256",
							"name": "amount0",
							"type": "uint256"
						},
						{
							"indexed": false,
							"internalType": "uint256",
							"name": "amount1",
							"type": "uint256"
						}
					],
					"name": "Mint",
					"type": "event"
				},
				{
					"anonymous": false,
					"inputs": [
						{
							"indexed": false,
							"internalType": "uint8",
							"name": "feeProtocol0Old",
							"type": "uint8"
						},
						{
							"indexed": false,
							"internalType": "uint8",
							"name": "feeProtocol1Old",
							"type": "uint8"
						},
						{
							"indexed": false,
							"internalType": "uint8",
							"name": "feeProtocol0New",
							"type": "uint8"
						},
						{
							"indexed": false,
							"internalType": "uint8",
							"name": "feeProtocol1New",
							"type": "uint8"
						}
					],
					"name": "SetFeeProtocol",
					"type": "event"
				},
				{
					"anonymous": false,
					"inputs": [
						{
							"indexed": true,
							"internalType": "address",
							"name": "sender",
							"type": "address"
						},
						{
							"indexed": true,
							"internalType": "address",
							"name": "recipient",
							"type": "address"
						},
						{
							"indexed": false,
							"internalType": "int256",
							"name": "amount0",
							"type": "int256"
						},
						{
							"indexed": false,
							"internalType": "int256",
							"name": "amount1",
							"type": "int256"
						},
						{
							"indexed": false,
							"internalType": "uint160",
							"name": "sqrtPriceX96",
							"type": "uint160"
						},
						{
							"indexed": false,
							"internalType": "uint128",
							"name": "liquidity",
							"type": "uint128"
						},
						{
							"indexed": false,
							"internalType": "int24",
							"name": "tick",
							"type": "int24"
						}
					],
					"name": "Swap",
					"type": "event"
				},
				{
					"inputs": [],
					"name": "liquidity",
					"outputs": [
						{
							"internalType": "uint128",
							"name": "",
							"type": "uint128"
						}
					],
					"stateMutability": "view",
					"type": "function"
				},
				{
					"inputs": [
						{
							"internalType": "address",
							"name": "owner",
							"type": "address"
						},
						{
							"internalType": "int24",
							"name": "lowerTick",
							"type": "int24"
						},
						{
							"internalType": "int24",
							"name": "upperTick",
							"type": "int24"
						},
						{
							"internalType": "uint128",
							"name": "amount",
							"type": "uint128"
						},
						{
							"internalType": "bytes",
							"name": "data",
							"type": "bytes"
						}
					],
					"name": "mint",
					"outputs": [
						{
							"internalType": "uint256",
							"name": "amount0",
							"type": "uint256"
						},
						{
							"internalType": "uint256",
							"name": "amount1",
							"type": "uint256"
						}
					],
					"stateMutability": "nonpayable",
					"type": "function"
				},
				{
					"inputs": [
						{
							"internalType": "bytes32",
							"name": "",
							"type": "bytes32"
						}
					],
					"name": "positions",
					"outputs": [
						{
							"internalType": "uint128",
							"name": "liquidity",
							"type": "uint128"
						}
					],
					"stateMutability": "view",
					"type": "function"
				},
				{
					"inputs": [],
					"name": "slot0",
					"outputs": [
						{
							"internalType": "uint160",
							"name": "sqrtPriceX96",
							"type": "uint160"
						},
						{
							"internalType": "int24",
							"name": "tick",
							"type": "int24"
						}
					],
					"stateMutability": "view",
					"type": "function"
				},
				{
					"inputs": [
						{
							"internalType": "address",
							"name": "recipient",
							"type": "address"
						},
						{
							"internalType": "bytes",
							"name": "data",
							"type": "bytes"
						}
					],
					"name": "swap",
					"outputs": [
						{
							"internalType": "int256",
							"name": "amount0",
							"type": "int256"
						},
						{
							"internalType": "int256",
							"name": "amount1",
							"type": "int256"
						}
					],
					"stateMutability": "nonpayable",
					"type": "function"
				},
				{
					"inputs": [
						{
							"internalType": "int16",
							"name": "",
							"type": "int16"
						}
					],
					"name": "tickBitmap",
					"outputs": [
						{
							"internalType": "uint256",
							"name": "",
							"type": "uint256"
						}
					],
					"stateMutability": "view",
					"type": "function"
				},
				{
					"inputs": [
						{
							"internalType": "int24",
							"name": "",
							"type": "int24"
						}
					],
					"name": "ticks",
					"outputs": [
						{
							"internalType": "bool",
							"name": "initialized",
							"type": "bool"
						},
						{
							"internalType": "uint128",
							"name": "liquidity",
							"type": "uint128"
						}
					],
					"stateMutability": "view",
					"type": "function"
				},
				{
					"inputs": [],
					"name": "token0",
					"outputs": [
						{
							"internalType": "address",
							"name": "",
							"type": "address"
						}
					],
					"stateMutability": "view",
					"type": "function"
				},
				{
					"inputs": [],
					"name": "token1",
					"outputs": [
						{
							"internalType": "address",
							"name": "",
							"type": "address"
						}
					],
					"stateMutability": "view",
					"type": "function"
				}
			],
			"devdoc": {
				"events": {
					"Burn(address,int24,int24,uint128,uint256,uint256)": {
						"details": "Does not withdraw any fees earned by the liquidity position, which must be withdrawn via #collect",
						"params": {
							"amount": "The amount of liquidity to remove",
							"amount0": "The amount of token0 withdrawn",
							"amount1": "The amount of token1 withdrawn",
							"owner": "The owner of the position for which liquidity is removed",
							"tickLower": "The lower tick of the position",
							"tickUpper": "The upper tick of the position"
						}
					},
					"Collect(address,address,int24,int24,uint128,uint128)": {
						"details": "Collect events may be emitted with zero amount0 and amount1 when the caller chooses not to collect fees",
						"params": {
							"amount0": "The amount of token0 fees collected",
							"amount1": "The amount of token1 fees collected",
							"owner": "The owner of the position for which fees are collected",
							"tickLower": "The lower tick of the position",
							"tickUpper": "The upper tick of the position"
						}
					},
					"CollectProtocol(address,address,uint128,uint128)": {
						"params": {
							"amount0": "The amount of token1 protocol fees that is withdrawn",
							"recipient": "The address that receives the collected protocol fees",
							"sender": "The address that collects the protocol fees"
						}
					},
					"Flash(address,address,uint256,uint256,uint256,uint256)": {
						"params": {
							"amount0": "The amount of token0 that was flashed",
							"amount1": "The amount of token1 that was flashed",
							"paid0": "The amount of token0 paid for the flash, which can exceed the amount0 plus the fee",
							"paid1": "The amount of token1 paid for the flash, which can exceed the amount1 plus the fee",
							"recipient": "The address that received the tokens from flash",
							"sender": "The address that initiated the swap call, and that received the callback"
						}
					},
					"IncreaseObservationCardinalityNext(uint16,uint16)": {
						"details": "observationCardinalityNext is not the observation cardinality until an observation is written at the index just before a mint/swap/burn.",
						"params": {
							"observationCardinalityNextNew": "The updated value of the next observation cardinality",
							"observationCardinalityNextOld": "The previous value of the next observation cardinality"
						}
					},
					"Initialize(uint160,int24)": {
						"details": "Mint/Burn/Swap cannot be emitted by the pool before Initialize",
						"params": {
							"sqrtPriceX96": "The initial sqrt price of the pool, as a Q64.96",
							"tick": "The initial tick of the pool, i.e. log base 1.0001 of the starting price of the pool"
						}
					},
					"Mint(address,address,int24,int24,uint128,uint256,uint256)": {
						"params": {
							"amount": "The amount of liquidity minted to the position range",
							"amount0": "How much token0 was required for the minted liquidity",
							"amount1": "How much token1 was required for the minted liquidity",
							"owner": "The owner of the position and recipient of any minted liquidity",
							"sender": "The address that minted the liquidity",
							"tickLower": "The lower tick of the position",
							"tickUpper": "The upper tick of the position"
						}
					},
					"SetFeeProtocol(uint8,uint8,uint8,uint8)": {
						"params": {
							"feeProtocol0New": "The updated value of the token0 protocol fee",
							"feeProtocol0Old": "The previous value of the token0 protocol fee",
							"feeProtocol1New": "The updated value of the token1 protocol fee",
							"feeProtocol1Old": "The previous value of the token1 protocol fee"
						}
					},
					"Swap(address,address,int256,int256,uint160,uint128,int24)": {
						"params": {
							"amount0": "The delta of the token0 balance of the pool",
							"amount1": "The delta of the token1 balance of the pool",
							"liquidity": "The liquidity of the pool after the swap",
							"recipient": "The address that received the output of the swap",
							"sender": "The address that initiated the swap call, and that received the callback",
							"sqrtPriceX96": "The sqrt(price) of the pool after the swap, as a Q64.96",
							"tick": "The log base 1.0001 of price of the pool after the swap"
						}
					}
				},
				"kind": "dev",
				"methods": {},
				"version": 1
			},
			"evm": {
				"assembly": "    /* \"src/UniswapV3Pool.sol\":416:5014  contract UniswapV3Pool is ... */\n  mstore(0x40, 0xc0)\n    /* \"src/UniswapV3Pool.sol\":1487:1738  constructor(... */\n  callvalue\n  dup1\n  iszero\n  tag_1\n  jumpi\n  revert(0x00, 0x00)\ntag_1:\n  pop\n  mload(0x40)\n  sub(codesize, bytecodeSize)\n  dup1\n  bytecodeSize\n  dup4\n  codecopy\n  dup2\n  dup2\n  add\n  0x40\n  mstore\n  dup2\n  add\n  swap1\n  tag_2\n  swap2\n  swap1\n  tag_3\n  jump\t// in\ntag_2:\n    /* \"src/UniswapV3Pool.sol\":1630:1637  token0_ */\n  dup4\n    /* \"src/UniswapV3Pool.sol\":1621:1637  token0 = token0_ */\n  0xffffffffffffffffffffffffffffffffffffffff\n  and\n  0x80\n  dup2\n  0xffffffffffffffffffffffffffffffffffffffff\n  and\n  dup2\n  mstore\n  pop\n  pop\n    /* \"src/UniswapV3Pool.sol\":1657:1664  token1_ */\n  dup3\n    /* \"src/UniswapV3Pool.sol\":1648:1664  token1 = token1_ */\n  0xffffffffffffffffffffffffffffffffffffffff\n  and\n  0xa0\n  dup2\n  0xffffffffffffffffffffffffffffffffffffffff\n  and\n  dup2\n  mstore\n  pop\n  pop\n    /* \"src/UniswapV3Pool.sol\":1683:1730  Slot0({sqrtPriceX96: sqrtPriceX96, tick: tick}) */\n  mload(0x40)\n  dup1\n  0x40\n  add\n  0x40\n  mstore\n  dup1\n    /* \"src/UniswapV3Pool.sol\":1704:1716  sqrtPriceX96 */\n  dup4\n    /* \"src/UniswapV3Pool.sol\":1683:1730  Slot0({sqrtPriceX96: sqrtPriceX96, tick: tick}) */\n  0xffffffffffffffffffffffffffffffffffffffff\n  and\n  dup2\n  mstore\n  0x20\n  add\n    /* \"src/UniswapV3Pool.sol\":1724:1728  tick */\n  dup3\n    /* \"src/UniswapV3Pool.sol\":1683:1730  Slot0({sqrtPriceX96: sqrtPriceX96, tick: tick}) */\n  0x02\n  signextend\n  dup2\n  mstore\n  pop\n    /* \"src/UniswapV3Pool.sol\":1675:1680  slot0 */\n  0x00\n    /* \"src/UniswapV3Pool.sol\":1675:1730  slot0 = Slot0({sqrtPriceX96: sqrtPriceX96, tick: tick}) */\n  0x00\n  dup3\n  add\n  mload\n  dup2\n  0x00\n  add\n  exp(0x0100, 0x00)\n  dup2\n  sload\n  dup2\n  0xffffffffffffffffffffffffffffffffffffffff\n  mul\n  not\n  and\n  swap1\n  dup4\n  0xffffffffffffffffffffffffffffffffffffffff\n  and\n  mul\n  or\n  swap1\n  sstore\n  pop\n  0x20\n  dup3\n  add\n  mload\n  dup2\n  0x00\n  add\n  exp(0x0100, 0x14)\n  dup2\n  sload\n  dup2\n  0xffffff\n  mul\n  not\n  and\n  swap1\n  dup4\n  0x02\n  signextend\n  0xffffff\n  and\n  mul\n  or\n  swap1\n  sstore\n  pop\n  swap1\n  pop\n  pop\n    /* \"src/UniswapV3Pool.sol\":1487:1738  constructor(... */\n  pop\n  pop\n  pop\n  pop\n    /* \"src/UniswapV3Pool.sol\":416:5014  contract UniswapV3Pool is ... */\n  jump(tag_6)\n    /* \"#utility.yul\":88:205   */\ntag_8:\n    /* \"#utility.yul\":197:198   */\n  0x00\n    /* \"#utility.yul\":194:195   */\n  0x00\n    /* \"#utility.yul\":187:199   */\n  revert\n    /* \"#utility.yul\":334:460   */\ntag_10:\n    /* \"#utility.yul\":371:378   */\n  0x00\n    /* \"#utility.yul\":411:453   */\n  0xffffffffffffffffffffffffffffffffffffffff\n    /* \"#utility.yul\":404:409   */\n  dup3\n    /* \"#utility.yul\":400:454   */\n  and\n    /* \"#utility.yul\":389:454   */\n  swap1\n  pop\n    /* \"#utility.yul\":334:460   */\n  swap2\n  swap1\n  pop\n  jump\t// out\n    /* \"#utility.yul\":466:562   */\ntag_11:\n    /* \"#utility.yul\":503:510   */\n  0x00\n    /* \"#utility.yul\":532:556   */\n  tag_25\n    /* \"#utility.yul\":550:555   */\n  dup3\n    /* \"#utility.yul\":532:556   */\n  tag_10\n  jump\t// in\ntag_25:\n    /* \"#utility.yul\":521:556   */\n  swap1\n  pop\n    /* \"#utility.yul\":466:562   */\n  swap2\n  swap1\n  pop\n  jump\t// out\n    /* \"#utility.yul\":568:690   */\ntag_12:\n    /* \"#utility.yul\":641:665   */\n  tag_27\n    /* \"#utility.yul\":659:664   */\n  dup2\n    /* \"#utility.yul\":641:665   */\n  tag_11\n  jump\t// in\ntag_27:\n    /* \"#utility.yul\":634:639   */\n  dup2\n    /* \"#utility.yul\":631:666   */\n  eq\n    /* \"#utility.yul\":621:684   */\n  tag_28\n  jumpi\n    /* \"#utility.yul\":680:681   */\n  0x00\n    /* \"#utility.yul\":677:678   */\n  0x00\n    /* \"#utility.yul\":670:682   */\n  revert\n    /* \"#utility.yul\":621:684   */\ntag_28:\n    /* \"#utility.yul\":568:690   */\n  pop\n  jump\t// out\n    /* \"#utility.yul\":696:839   */\ntag_13:\n    /* \"#utility.yul\":753:758   */\n  0x00\n    /* \"#utility.yul\":784:790   */\n  dup2\n    /* \"#utility.yul\":778:791   */\n  mload\n    /* \"#utility.yul\":769:791   */\n  swap1\n  pop\n    /* \"#utility.yul\":800:833   */\n  tag_30\n    /* \"#utility.yul\":827:832   */\n  dup2\n    /* \"#utility.yul\":800:833   */\n  tag_12\n  jump\t// in\ntag_30:\n    /* \"#utility.yul\":696:839   */\n  swap3\n  swap2\n  pop\n  pop\n  jump\t// out\n    /* \"#utility.yul\":845:967   */\ntag_14:\n    /* \"#utility.yul\":918:942   */\n  tag_32\n    /* \"#utility.yul\":936:941   */\n  dup2\n    /* \"#utility.yul\":918:942   */\n  tag_10\n  jump\t// in\ntag_32:\n    /* \"#utility.yul\":911:916   */\n  dup2\n    /* \"#utility.yul\":908:943   */\n  eq\n    /* \"#utility.yul\":898:961   */\n  tag_33\n  jumpi\n    /* \"#utility.yul\":957:958   */\n  0x00\n    /* \"#utility.yul\":954:955   */\n  0x00\n    /* \"#utility.yul\":947:959   */\n  revert\n    /* \"#utility.yul\":898:961   */\ntag_33:\n    /* \"#utility.yul\":845:967   */\n  pop\n  jump\t// out\n    /* \"#utility.yul\":973:1116   */\ntag_15:\n    /* \"#utility.yul\":1030:1035   */\n  0x00\n    /* \"#utility.yul\":1061:1067   */\n  dup2\n    /* \"#utility.yul\":1055:1068   */\n  mload\n    /* \"#utility.yul\":1046:1068   */\n  swap1\n  pop\n    /* \"#utility.yul\":1077:1110   */\n  tag_35\n    /* \"#utility.yul\":1104:1109   */\n  dup2\n    /* \"#utility.yul\":1077:1110   */\n  tag_14\n  jump\t// in\ntag_35:\n    /* \"#utility.yul\":973:1116   */\n  swap3\n  swap2\n  pop\n  pop\n  jump\t// out\n    /* \"#utility.yul\":1122:1212   */\ntag_16:\n    /* \"#utility.yul\":1157:1164   */\n  0x00\n    /* \"#utility.yul\":1200:1205   */\n  dup2\n    /* \"#utility.yul\":1197:1198   */\n  0x02\n    /* \"#utility.yul\":1186:1206   */\n  signextend\n    /* \"#utility.yul\":1175:1206   */\n  swap1\n  pop\n    /* \"#utility.yul\":1122:1212   */\n  swap2\n  swap1\n  pop\n  jump\t// out\n    /* \"#utility.yul\":1218:1336   */\ntag_17:\n    /* \"#utility.yul\":1289:1311   */\n  tag_38\n    /* \"#utility.yul\":1305:1310   */\n  dup2\n    /* \"#utility.yul\":1289:1311   */\n  tag_16\n  jump\t// in\ntag_38:\n    /* \"#utility.yul\":1282:1287   */\n  dup2\n    /* \"#utility.yul\":1279:1312   */\n  eq\n    /* \"#utility.yul\":1269:1330   */\n  tag_39\n  jumpi\n    /* \"#utility.yul\":1326:1327   */\n  0x00\n    /* \"#utility.yul\":1323:1324   */\n  0x00\n    /* \"#utility.yul\":1316:1328   */\n  revert\n    /* \"#utility.yul\":1269:1330   */\ntag_39:\n    /* \"#utility.yul\":1218:1336   */\n  pop\n  jump\t// out\n    /* \"#utility.yul\":1342:1481   */\ntag_18:\n    /* \"#utility.yul\":1397:1402   */\n  0x00\n    /* \"#utility.yul\":1428:1434   */\n  dup2\n    /* \"#utility.yul\":1422:1435   */\n  mload\n    /* \"#utility.yul\":1413:1435   */\n  swap1\n  pop\n    /* \"#utility.yul\":1444:1475   */\n  tag_41\n    /* \"#utility.yul\":1469:1474   */\n  dup2\n    /* \"#utility.yul\":1444:1475   */\n  tag_17\n  jump\t// in\ntag_41:\n    /* \"#utility.yul\":1342:1481   */\n  swap3\n  swap2\n  pop\n  pop\n  jump\t// out\n    /* \"#utility.yul\":1487:2303   */\ntag_3:\n    /* \"#utility.yul\":1582:1588   */\n  0x00\n    /* \"#utility.yul\":1590:1596   */\n  0x00\n    /* \"#utility.yul\":1598:1604   */\n  0x00\n    /* \"#utility.yul\":1606:1612   */\n  0x00\n    /* \"#utility.yul\":1655:1658   */\n  0x80\n    /* \"#utility.yul\":1643:1652   */\n  dup6\n    /* \"#utility.yul\":1634:1641   */\n  dup8\n    /* \"#utility.yul\":1630:1653   */\n  sub\n    /* \"#utility.yul\":1626:1659   */\n  slt\n    /* \"#utility.yul\":1623:1743   */\n  iszero\n  tag_43\n  jumpi\n    /* \"#utility.yul\":1662:1741   */\n  tag_44\n  tag_8\n  jump\t// in\ntag_44:\n    /* \"#utility.yul\":1623:1743   */\ntag_43:\n    /* \"#utility.yul\":1782:1783   */\n  0x00\n    /* \"#utility.yul\":1807:1871   */\n  tag_45\n    /* \"#utility.yul\":1863:1870   */\n  dup8\n    /* \"#utility.yul\":1854:1860   */\n  dup3\n    /* \"#utility.yul\":1843:1852   */\n  dup9\n    /* \"#utility.yul\":1839:1861   */\n  add\n    /* \"#utility.yul\":1807:1871   */\n  tag_13\n  jump\t// in\ntag_45:\n    /* \"#utility.yul\":1797:1871   */\n  swap5\n  pop\n    /* \"#utility.yul\":1753:1881   */\n  pop\n    /* \"#utility.yul\":1920:1922   */\n  0x20\n    /* \"#utility.yul\":1946:2010   */\n  tag_46\n    /* \"#utility.yul\":2002:2009   */\n  dup8\n    /* \"#utility.yul\":1993:1999   */\n  dup3\n    /* \"#utility.yul\":1982:1991   */\n  dup9\n    /* \"#utility.yul\":1978:2000   */\n  add\n    /* \"#utility.yul\":1946:2010   */\n  tag_13\n  jump\t// in\ntag_46:\n    /* \"#utility.yul\":1936:2010   */\n  swap4\n  pop\n    /* \"#utility.yul\":1891:2020   */\n  pop\n    /* \"#utility.yul\":2059:2061   */\n  0x40\n    /* \"#utility.yul\":2085:2149   */\n  tag_47\n    /* \"#utility.yul\":2141:2148   */\n  dup8\n    /* \"#utility.yul\":2132:2138   */\n  dup3\n    /* \"#utility.yul\":2121:2130   */\n  dup9\n    /* \"#utility.yul\":2117:2139   */\n  add\n    /* \"#utility.yul\":2085:2149   */\n  tag_15\n  jump\t// in\ntag_47:\n    /* \"#utility.yul\":2075:2149   */\n  swap3\n  pop\n    /* \"#utility.yul\":2030:2159   */\n  pop\n    /* \"#utility.yul\":2198:2200   */\n  0x60\n    /* \"#utility.yul\":2224:2286   */\n  tag_48\n    /* \"#utility.yul\":2278:2285   */\n  dup8\n    /* \"#utility.yul\":2269:2275   */\n  dup3\n    /* \"#utility.yul\":2258:2267   */\n  dup9\n    /* \"#utility.yul\":2254:2276   */\n  add\n    /* \"#utility.yul\":2224:2286   */\n  tag_18\n  jump\t// in\ntag_48:\n    /* \"#utility.yul\":2214:2286   */\n  swap2\n  pop\n    /* \"#utility.yul\":2169:2296   */\n  pop\n    /* \"#utility.yul\":1487:2303   */\n  swap3\n  swap6\n  swap2\n  swap5\n  pop\n  swap3\n  pop\n  jump\t// out\n    /* \"src/UniswapV3Pool.sol\":416:5014  contract UniswapV3Pool is ... */\ntag_6:\n  mload(0x80)\n  mload(0xa0)\n  codecopy(0x00, dataOffset(sub_0), dataSize(sub_0))\n  0x00\n  assignImmutable(\"0xf928ede1c39c5595ff22fe845412ee05a93eeaa584f8ef0c46b5eeb14cb99ec8\")\n  0x00\n  assignImmutable(\"0x59c0d2b7af0a8e6d3d8e710a078764bd67b7223777026c424cdb4f599824bb79\")\n  return(0x00, dataSize(sub_0))\nstop\n\nsub_0: assembly {\n        /* \"src/UniswapV3Pool.sol\":416:5014  contract UniswapV3Pool is ... */\n      mstore(0x40, 0x80)\n      callvalue\n      dup1\n      iszero\n      tag_1\n      jumpi\n      revert(0x00, 0x00)\n    tag_1:\n      pop\n      jumpi(tag_2, lt(calldatasize, 0x04))\n      shr(0xe0, calldataload(0x00))\n      dup1\n      0x514ea4bf\n      gt\n      tag_12\n      jumpi\n      dup1\n      0x514ea4bf\n      eq\n      tag_7\n      jumpi\n      dup1\n      0x5339c296\n      eq\n      tag_8\n      jumpi\n      dup1\n      0xd21220a7\n      eq\n      tag_9\n      jumpi\n      dup1\n      0xe3547335\n      eq\n      tag_10\n      jumpi\n      dup1\n      0xf30dba93\n      eq\n      tag_11\n      jumpi\n      jump(tag_2)\n    tag_12:\n      dup1\n      0x0dfe1681\n      eq\n      tag_3\n      jumpi\n      dup1\n      0x1a686502\n      eq\n      tag_4\n      jumpi\n      dup1\n      0x3850c7bd\n      eq\n      tag_5\n      jumpi\n      dup1\n      0x3c8a7d8d\n      eq\n      tag_6\n      jumpi\n    tag_2:\n      revert(0x00, 0x00)\n        /* \"src/UniswapV3Pool.sol\":913:944  address public immutable token0 */\n    tag_3:\n      tag_13\n      tag_14\n      jump\t// in\n    tag_13:\n      mload(0x40)\n      tag_15\n      swap2\n      swap1\n      tag_16\n      jump\t// in\n    tag_15:\n      mload(0x40)\n      dup1\n      swap2\n      sub\n      swap1\n      return\n        /* \"src/UniswapV3Pool.sol\":1215:1239  uint128 public liquidity */\n    tag_4:\n      tag_17\n      tag_18\n      jump\t// in\n    tag_17:\n      mload(0x40)\n      tag_19\n      swap2\n      swap1\n      tag_20\n      jump\t// in\n    tag_19:\n      mload(0x40)\n      dup1\n      swap2\n      sub\n      swap1\n      return\n        /* \"src/UniswapV3Pool.sol\":1157:1175  Slot0 public slot0 */\n    tag_5:\n      tag_21\n      tag_22\n      jump\t// in\n    tag_21:\n      mload(0x40)\n      tag_23\n      swap3\n      swap2\n      swap1\n      tag_24\n      jump\t// in\n    tag_23:\n      mload(0x40)\n      dup1\n      swap2\n      sub\n      swap1\n      return\n        /* \"src/UniswapV3Pool.sol\":1760:3714  function mint(... */\n    tag_6:\n      tag_25\n      0x04\n      dup1\n      calldatasize\n      sub\n      dup2\n      add\n      swap1\n      tag_26\n      swap2\n      swap1\n      tag_27\n      jump\t// in\n    tag_26:\n      tag_28\n      jump\t// in\n    tag_25:\n      mload(0x40)\n      tag_29\n      swap3\n      swap2\n      swap1\n      tag_30\n      jump\t// in\n    tag_29:\n      mload(0x40)\n      dup1\n      swap2\n      sub\n      swap1\n      return\n        /* \"src/UniswapV3Pool.sol\":1408:1458  mapping(bytes32 => Position.Info) public positions */\n    tag_7:\n      tag_31\n      0x04\n      dup1\n      calldatasize\n      sub\n      dup2\n      add\n      swap1\n      tag_32\n      swap2\n      swap1\n      tag_33\n      jump\t// in\n    tag_32:\n      tag_34\n      jump\t// in\n    tag_31:\n      mload(0x40)\n      tag_35\n      swap2\n      swap1\n      tag_20\n      jump\t// in\n    tag_35:\n      mload(0x40)\n      dup1\n      swap2\n      sub\n      swap1\n      return\n        /* \"src/UniswapV3Pool.sol\":1337:1380  mapping(int16 => uint256) public tickBitmap */\n    tag_8:\n      tag_36\n      0x04\n      dup1\n      calldatasize\n      sub\n      dup2\n      add\n      swap1\n      tag_37\n      swap2\n      swap1\n      tag_38\n      jump\t// in\n    tag_37:\n      tag_39\n      jump\t// in\n    tag_36:\n      mload(0x40)\n      tag_40\n      swap2\n      swap1\n      tag_41\n      jump\t// in\n    tag_40:\n      mload(0x40)\n      dup1\n      swap2\n      sub\n      swap1\n      return\n        /* \"src/UniswapV3Pool.sol\":951:982  address public immutable token1 */\n    tag_9:\n      tag_42\n      tag_43\n      jump\t// in\n    tag_42:\n      mload(0x40)\n      tag_44\n      swap2\n      swap1\n      tag_16\n      jump\t// in\n    tag_44:\n      mload(0x40)\n      dup1\n      swap2\n      sub\n      swap1\n      return\n        /* \"src/UniswapV3Pool.sol\":3746:4695  function swap(address recipient, bytes calldata data)... */\n    tag_10:\n      tag_45\n      0x04\n      dup1\n      calldatasize\n      sub\n      dup2\n      add\n      swap1\n      tag_46\n      swap2\n      swap1\n      tag_47\n      jump\t// in\n    tag_46:\n      tag_48\n      jump\t// in\n    tag_45:\n      mload(0x40)\n      tag_49\n      swap3\n      swap2\n      swap1\n      tag_50\n      jump\t// in\n    tag_49:\n      mload(0x40)\n      dup1\n      swap2\n      sub\n      swap1\n      return\n        /* \"src/UniswapV3Pool.sol\":1269:1309  mapping(int24 => Tick.Info) public ticks */\n    tag_11:\n      tag_51\n      0x04\n      dup1\n      calldatasize\n      sub\n      dup2\n      add\n      swap1\n      tag_52\n      swap2\n      swap1\n      tag_53\n      jump\t// in\n    tag_52:\n      tag_54\n      jump\t// in\n    tag_51:\n      mload(0x40)\n      tag_55\n      swap3\n      swap2\n      swap1\n      tag_56\n      jump\t// in\n    tag_55:\n      mload(0x40)\n      dup1\n      swap2\n      sub\n      swap1\n      return\n        /* \"src/UniswapV3Pool.sol\":913:944  address public immutable token0 */\n    tag_14:\n      immutable(\"0x59c0d2b7af0a8e6d3d8e710a078764bd67b7223777026c424cdb4f599824bb79\")\n      dup2\n      jump\t// out\n        /* \"src/UniswapV3Pool.sol\":1215:1239  uint128 public liquidity */\n    tag_18:\n      0x01\n      0x00\n      swap1\n      sload\n      swap1\n      0x0100\n      exp\n      swap1\n      div\n      0xffffffffffffffffffffffffffffffff\n      and\n      dup2\n      jump\t// out\n        /* \"src/UniswapV3Pool.sol\":1157:1175  Slot0 public slot0 */\n    tag_22:\n      0x00\n      dup1\n      0x00\n      add\n      0x00\n      swap1\n      sload\n      swap1\n      0x0100\n      exp\n      swap1\n      div\n      0xffffffffffffffffffffffffffffffffffffffff\n      and\n      swap1\n      dup1\n      0x00\n      add\n      0x14\n      swap1\n      sload\n      swap1\n      0x0100\n      exp\n      swap1\n      div\n      0x02\n      signextend\n      swap1\n      pop\n      dup3\n      jump\t// out\n        /* \"src/UniswapV3Pool.sol\":1760:3714  function mint(... */\n    tag_28:\n        /* \"src/UniswapV3Pool.sol\":1945:1960  uint256 amount0 */\n      0x00\n        /* \"src/UniswapV3Pool.sol\":1962:1977  uint256 amount1 */\n      0x00\n        /* \"src/UniswapV3Pool.sol\":2021:2030  upperTick */\n      dup6\n        /* \"src/UniswapV3Pool.sol\":2008:2030  lowerTick >= upperTick */\n      0x02\n      signextend\n        /* \"src/UniswapV3Pool.sol\":2008:2017  lowerTick */\n      dup8\n        /* \"src/UniswapV3Pool.sol\":2008:2030  lowerTick >= upperTick */\n      0x02\n      signextend\n      slt\n      iszero\n        /* \"src/UniswapV3Pool.sol\":2008:2067  lowerTick >= upperTick ||... */\n      dup1\n      tag_58\n      jumpi\n      pop\n        /* \"src/UniswapV3Pool.sol\":714:721  -887272 */\n      0xfffffffffffffffffffffffffffffffffffffffffffffffffffffffffff27618\n        /* \"src/UniswapV3Pool.sol\":2047:2067  lowerTick < MIN_TICK */\n      0x02\n      signextend\n        /* \"src/UniswapV3Pool.sol\":2047:2056  lowerTick */\n      dup8\n        /* \"src/UniswapV3Pool.sol\":2047:2067  lowerTick < MIN_TICK */\n      0x02\n      signextend\n      slt\n        /* \"src/UniswapV3Pool.sol\":2008:2067  lowerTick >= upperTick ||... */\n    tag_58:\n        /* \"src/UniswapV3Pool.sol\":2008:2104  lowerTick >= upperTick ||... */\n      dup1\n      tag_59\n      jumpi\n      pop\n        /* \"src/UniswapV3Pool.sol\":714:721  -887272 */\n      0xfffffffffffffffffffffffffffffffffffffffffffffffffffffffffff27618\n        /* \"src/UniswapV3Pool.sol\":763:772  -MIN_TICK */\n      tag_60\n      swap1\n      tag_61\n      jump\t// in\n    tag_60:\n        /* \"src/UniswapV3Pool.sol\":2084:2104  upperTick > MAX_TICK */\n      0x02\n      signextend\n        /* \"src/UniswapV3Pool.sol\":2084:2093  upperTick */\n      dup7\n        /* \"src/UniswapV3Pool.sol\":2084:2104  upperTick > MAX_TICK */\n      0x02\n      signextend\n      sgt\n        /* \"src/UniswapV3Pool.sol\":2008:2104  lowerTick >= upperTick ||... */\n    tag_59:\n        /* \"src/UniswapV3Pool.sol\":1990:2141  if (... */\n      iszero\n      tag_62\n      jumpi\n        /* \"src/UniswapV3Pool.sol\":2123:2141  InvalidTickRange() */\n      mload(0x40)\n      0x064847d000000000000000000000000000000000000000000000000000000000\n      dup2\n      mstore\n      0x04\n      add\n      mload(0x40)\n      dup1\n      swap2\n      sub\n      swap1\n      revert\n        /* \"src/UniswapV3Pool.sol\":1990:2141  if (... */\n    tag_62:\n        /* \"src/UniswapV3Pool.sol\":2166:2167  0 */\n      0x00\n        /* \"src/UniswapV3Pool.sol\":2156:2162  amount */\n      dup6\n        /* \"src/UniswapV3Pool.sol\":2156:2167  amount == 0 */\n      0xffffffffffffffffffffffffffffffff\n      and\n      sub\n        /* \"src/UniswapV3Pool.sol\":2152:2191  if (amount == 0) revert ZeroLiquidity() */\n      tag_63\n      jumpi\n        /* \"src/UniswapV3Pool.sol\":2176:2191  ZeroLiquidity() */\n      mload(0x40)\n      0x1007454800000000000000000000000000000000000000000000000000000000\n      dup2\n      mstore\n      0x04\n      add\n      mload(0x40)\n      dup1\n      swap2\n      sub\n      swap1\n      revert\n        /* \"src/UniswapV3Pool.sol\":2152:2191  if (amount == 0) revert ZeroLiquidity() */\n    tag_63:\n        /* \"src/UniswapV3Pool.sol\":2204:2221  bool flippedLower */\n      0x00\n        /* \"src/UniswapV3Pool.sol\":2224:2255  ticks.update(lowerTick, amount) */\n      tag_64\n        /* \"src/UniswapV3Pool.sol\":2237:2246  lowerTick */\n      dup9\n        /* \"src/UniswapV3Pool.sol\":2248:2254  amount */\n      dup8\n        /* \"src/UniswapV3Pool.sol\":2224:2229  ticks */\n      0x02\n        /* \"src/UniswapV3Pool.sol\":2224:2236  ticks.update */\n      tag_65\n      swap1\n        /* \"src/UniswapV3Pool.sol\":2224:2255  ticks.update(lowerTick, amount) */\n      swap3\n      swap2\n      swap1\n      0xffffffff\n      and\n      jump\t// in\n    tag_64:\n        /* \"src/UniswapV3Pool.sol\":2204:2255  bool flippedLower = ticks.update(lowerTick, amount) */\n      swap1\n      pop\n        /* \"src/UniswapV3Pool.sol\":2266:2283  bool flippedUpper */\n      0x00\n        /* \"src/UniswapV3Pool.sol\":2286:2317  ticks.update(upperTick, amount) */\n      tag_66\n        /* \"src/UniswapV3Pool.sol\":2299:2308  upperTick */\n      dup9\n        /* \"src/UniswapV3Pool.sol\":2310:2316  amount */\n      dup9\n        /* \"src/UniswapV3Pool.sol\":2286:2291  ticks */\n      0x02\n        /* \"src/UniswapV3Pool.sol\":2286:2298  ticks.update */\n      tag_65\n      swap1\n        /* \"src/UniswapV3Pool.sol\":2286:2317  ticks.update(upperTick, amount) */\n      swap3\n      swap2\n      swap1\n      0xffffffff\n      and\n      jump\t// in\n    tag_66:\n        /* \"src/UniswapV3Pool.sol\":2266:2317  bool flippedUpper = ticks.update(upperTick, amount) */\n      swap1\n      pop\n        /* \"src/UniswapV3Pool.sol\":2331:2343  flippedLower */\n      dup2\n        /* \"src/UniswapV3Pool.sol\":2328:2405  if(flippedLower) {... */\n      iszero\n      tag_67\n      jumpi\n        /* \"src/UniswapV3Pool.sol\":2360:2393  tickBitmap.flipTick(lowerTick, 1) */\n      tag_68\n        /* \"src/UniswapV3Pool.sol\":2380:2389  lowerTick */\n      dup10\n        /* \"src/UniswapV3Pool.sol\":2391:2392  1 */\n      0x01\n        /* \"src/UniswapV3Pool.sol\":2360:2370  tickBitmap */\n      0x03\n        /* \"src/UniswapV3Pool.sol\":2360:2379  tickBitmap.flipTick */\n      tag_69\n      swap1\n        /* \"src/UniswapV3Pool.sol\":2360:2393  tickBitmap.flipTick(lowerTick, 1) */\n      swap3\n      swap2\n      swap1\n      0xffffffff\n      and\n      jump\t// in\n    tag_68:\n        /* \"src/UniswapV3Pool.sol\":2328:2405  if(flippedLower) {... */\n    tag_67:\n        /* \"src/UniswapV3Pool.sol\":2418:2430  flippedUpper */\n      dup1\n        /* \"src/UniswapV3Pool.sol\":2415:2492  if(flippedUpper) {... */\n      iszero\n      tag_70\n      jumpi\n        /* \"src/UniswapV3Pool.sol\":2447:2480  tickBitmap.flipTick(upperTick, 1) */\n      tag_71\n        /* \"src/UniswapV3Pool.sol\":2467:2476  upperTick */\n      dup9\n        /* \"src/UniswapV3Pool.sol\":2478:2479  1 */\n      0x01\n        /* \"src/UniswapV3Pool.sol\":2447:2457  tickBitmap */\n      0x03\n        /* \"src/UniswapV3Pool.sol\":2447:2466  tickBitmap.flipTick */\n      tag_69\n      swap1\n        /* \"src/UniswapV3Pool.sol\":2447:2480  tickBitmap.flipTick(upperTick, 1) */\n      swap3\n      swap2\n      swap1\n      0xffffffff\n      and\n      jump\t// in\n    tag_71:\n        /* \"src/UniswapV3Pool.sol\":2415:2492  if(flippedUpper) {... */\n    tag_70:\n        /* \"src/UniswapV3Pool.sol\":2504:2534  Position.Info storage position */\n      0x00\n        /* \"src/UniswapV3Pool.sol\":2537:2629  positions.get(... */\n      tag_72\n        /* \"src/UniswapV3Pool.sol\":2565:2570  owner */\n      dup12\n        /* \"src/UniswapV3Pool.sol\":2585:2594  lowerTick */\n      dup12\n        /* \"src/UniswapV3Pool.sol\":2609:2618  upperTick */\n      dup12\n        /* \"src/UniswapV3Pool.sol\":2537:2546  positions */\n      0x04\n        /* \"src/UniswapV3Pool.sol\":2537:2550  positions.get */\n      tag_73\n      swap1\n        /* \"src/UniswapV3Pool.sol\":2537:2629  positions.get(... */\n      swap4\n      swap3\n      swap2\n      swap1\n      0xffffffff\n      and\n      jump\t// in\n    tag_72:\n        /* \"src/UniswapV3Pool.sol\":2504:2629  Position.Info storage position = positions.get(... */\n      swap1\n      pop\n        /* \"src/UniswapV3Pool.sol\":2640:2663  position.update(amount) */\n      tag_74\n        /* \"src/UniswapV3Pool.sol\":2656:2662  amount */\n      dup9\n        /* \"src/UniswapV3Pool.sol\":2640:2648  position */\n      dup3\n        /* \"src/UniswapV3Pool.sol\":2640:2655  position.update */\n      tag_75\n      swap1\n        /* \"src/UniswapV3Pool.sol\":2640:2663  position.update(amount) */\n      swap2\n      swap1\n      0xffffffff\n      and\n      jump\t// in\n    tag_74:\n        /* \"src/UniswapV3Pool.sol\":2676:2695  Slot0 memory slot0_ */\n      0x00\n        /* \"src/UniswapV3Pool.sol\":2698:2703  slot0 */\n      0x00\n        /* \"src/UniswapV3Pool.sol\":2676:2703  Slot0 memory slot0_ = slot0 */\n      mload(0x40)\n      dup1\n      0x40\n      add\n      0x40\n      mstore\n      swap1\n      dup2\n      0x00\n      dup3\n      add\n      0x00\n      swap1\n      sload\n      swap1\n      0x0100\n      exp\n      swap1\n      div\n      0xffffffffffffffffffffffffffffffffffffffff\n      and\n      0xffffffffffffffffffffffffffffffffffffffff\n      and\n      0xffffffffffffffffffffffffffffffffffffffff\n      and\n      dup2\n      mstore\n      0x20\n      add\n      0x00\n      dup3\n      add\n      0x14\n      swap1\n      sload\n      swap1\n      0x0100\n      exp\n      swap1\n      div\n      0x02\n      signextend\n      0x02\n      signextend\n      0x02\n      signextend\n      dup2\n      mstore\n      pop\n      pop\n      swap1\n      pop\n        /* \"src/UniswapV3Pool.sol\":2726:2866  Math.calcAmount0Delta(... */\n      tag_76\n        /* \"src/UniswapV3Pool.sol\":2762:2768  slot0_ */\n      dup2\n        /* \"src/UniswapV3Pool.sol\":2762:2781  slot0_.sqrtPriceX96 */\n      0x00\n      add\n      mload\n        /* \"src/UniswapV3Pool.sol\":2796:2834  TickMath.getSqrtRatioAtTick(upperTick) */\n      tag_77\n        /* \"src/UniswapV3Pool.sol\":2824:2833  upperTick */\n      dup13\n        /* \"src/UniswapV3Pool.sol\":2796:2823  TickMath.getSqrtRatioAtTick */\n      tag_78\n        /* \"src/UniswapV3Pool.sol\":2796:2834  TickMath.getSqrtRatioAtTick(upperTick) */\n      jump\t// in\n    tag_77:\n        /* \"src/UniswapV3Pool.sol\":2849:2855  amount */\n      dup12\n        /* \"src/UniswapV3Pool.sol\":2726:2747  Math.calcAmount0Delta */\n      tag_79\n        /* \"src/UniswapV3Pool.sol\":2726:2866  Math.calcAmount0Delta(... */\n      jump\t// in\n    tag_76:\n        /* \"src/UniswapV3Pool.sol\":2716:2866  amount0 = Math.calcAmount0Delta(... */\n      swap6\n      pop\n        /* \"src/UniswapV3Pool.sol\":2889:3029  Math.calcAmount1Delta(... */\n      tag_80\n        /* \"src/UniswapV3Pool.sol\":2925:2931  slot0_ */\n      dup2\n        /* \"src/UniswapV3Pool.sol\":2925:2944  slot0_.sqrtPriceX96 */\n      0x00\n      add\n      mload\n        /* \"src/UniswapV3Pool.sol\":2959:2997  TickMath.getSqrtRatioAtTick(lowerTick) */\n      tag_81\n        /* \"src/UniswapV3Pool.sol\":2987:2996  lowerTick */\n      dup14\n        /* \"src/UniswapV3Pool.sol\":2959:2986  TickMath.getSqrtRatioAtTick */\n      tag_78\n        /* \"src/UniswapV3Pool.sol\":2959:2997  TickMath.getSqrtRatioAtTick(lowerTick) */\n      jump\t// in\n    tag_81:\n        /* \"src/UniswapV3Pool.sol\":3012:3018  amount */\n      dup12\n        /* \"src/UniswapV3Pool.sol\":2889:2910  Math.calcAmount1Delta */\n      tag_82\n        /* \"src/UniswapV3Pool.sol\":2889:3029  Math.calcAmount1Delta(... */\n      jump\t// in\n    tag_80:\n        /* \"src/UniswapV3Pool.sol\":2879:3029  amount1 = Math.calcAmount1Delta(... */\n      swap5\n      pop\n        /* \"src/UniswapV3Pool.sol\":3063:3069  amount */\n      dup9\n        /* \"src/UniswapV3Pool.sol\":3042:3051  liquidity */\n      0x01\n      0x00\n        /* \"src/UniswapV3Pool.sol\":3042:3070  liquidity += uint128(amount) */\n      dup3\n      dup3\n      dup3\n      swap1\n      sload\n      swap1\n      0x0100\n      exp\n      swap1\n      div\n      0xffffffffffffffffffffffffffffffff\n      and\n      tag_83\n      swap2\n      swap1\n      tag_84\n      jump\t// in\n    tag_83:\n      swap3\n      pop\n      0x0100\n      exp\n      dup2\n      sload\n      dup2\n      0xffffffffffffffffffffffffffffffff\n      mul\n      not\n      and\n      swap1\n      dup4\n      0xffffffffffffffffffffffffffffffff\n      and\n      mul\n      or\n      swap1\n      sstore\n      pop\n        /* \"src/UniswapV3Pool.sol\":3083:3105  uint256 balance0Before */\n      0x00\n        /* \"src/UniswapV3Pool.sol\":3116:3138  uint256 balance1Before */\n      0x00\n        /* \"src/UniswapV3Pool.sol\":3163:3164  0 */\n      0x00\n        /* \"src/UniswapV3Pool.sol\":3153:3160  amount0 */\n      dup9\n        /* \"src/UniswapV3Pool.sol\":3153:3164  amount0 > 0 */\n      gt\n        /* \"src/UniswapV3Pool.sol\":3149:3193  if (amount0 > 0) balance0Before = balance0() */\n      iszero\n      tag_85\n      jumpi\n        /* \"src/UniswapV3Pool.sol\":3183:3193  balance0() */\n      tag_86\n        /* \"src/UniswapV3Pool.sol\":3183:3191  balance0 */\n      tag_87\n        /* \"src/UniswapV3Pool.sol\":3183:3193  balance0() */\n      jump\t// in\n    tag_86:\n        /* \"src/UniswapV3Pool.sol\":3166:3193  balance0Before = balance0() */\n      swap2\n      pop\n        /* \"src/UniswapV3Pool.sol\":3149:3193  if (amount0 > 0) balance0Before = balance0() */\n    tag_85:\n        /* \"src/UniswapV3Pool.sol\":3218:3219  0 */\n      0x00\n        /* \"src/UniswapV3Pool.sol\":3208:3215  amount1 */\n      dup8\n        /* \"src/UniswapV3Pool.sol\":3208:3219  amount1 > 0 */\n      gt\n        /* \"src/UniswapV3Pool.sol\":3204:3248  if (amount1 > 0) balance1Before = balance1() */\n      iszero\n      tag_88\n      jumpi\n        /* \"src/UniswapV3Pool.sol\":3238:3248  balance1() */\n      tag_89\n        /* \"src/UniswapV3Pool.sol\":3238:3246  balance1 */\n      tag_90\n        /* \"src/UniswapV3Pool.sol\":3238:3248  balance1() */\n      jump\t// in\n    tag_89:\n        /* \"src/UniswapV3Pool.sol\":3221:3248  balance1Before = balance1() */\n      swap1\n      pop\n        /* \"src/UniswapV3Pool.sol\":3204:3248  if (amount1 > 0) balance1Before = balance1() */\n    tag_88:\n        /* \"src/UniswapV3Pool.sol\":3282:3292  msg.sender */\n      caller\n        /* \"src/UniswapV3Pool.sol\":3259:3315  IUniswapV3MintCallback(msg.sender).uniswapV3MintCallback */\n      0xffffffffffffffffffffffffffffffffffffffff\n      and\n      0xd3487997\n        /* \"src/UniswapV3Pool.sol\":3330:3337  amount0 */\n      dup10\n        /* \"src/UniswapV3Pool.sol\":3352:3359  amount1 */\n      dup10\n        /* \"src/UniswapV3Pool.sol\":3374:3378  data */\n      dup14\n      dup14\n        /* \"src/UniswapV3Pool.sol\":3259:3389  IUniswapV3MintCallback(msg.sender).uniswapV3MintCallback(... */\n      mload(0x40)\n      dup6\n      0xffffffff\n      and\n      0xe0\n      shl\n      dup2\n      mstore\n      0x04\n      add\n      tag_91\n      swap5\n      swap4\n      swap3\n      swap2\n      swap1\n      tag_92\n      jump\t// in\n    tag_91:\n      0x00\n      mload(0x40)\n      dup1\n      dup4\n      sub\n      dup2\n      0x00\n      dup8\n      dup1\n      extcodesize\n      iszero\n      dup1\n      iszero\n      tag_93\n      jumpi\n      revert(0x00, 0x00)\n    tag_93:\n      pop\n      gas\n      call\n      iszero\n      dup1\n      iszero\n      tag_95\n      jumpi\n      returndatacopy(0x00, 0x00, returndatasize)\n      revert(0x00, returndatasize)\n    tag_95:\n      pop\n      pop\n      pop\n      pop\n        /* \"src/UniswapV3Pool.sol\":3414:3415  0 */\n      0x00\n        /* \"src/UniswapV3Pool.sol\":3404:3411  amount0 */\n      dup9\n        /* \"src/UniswapV3Pool.sol\":3404:3415  amount0 > 0 */\n      gt\n        /* \"src/UniswapV3Pool.sol\":3404:3456  amount0 > 0 && balance0Before + amount0 > balance0() */\n      dup1\n      iszero\n      tag_96\n      jumpi\n      pop\n        /* \"src/UniswapV3Pool.sol\":3446:3456  balance0() */\n      tag_97\n        /* \"src/UniswapV3Pool.sol\":3446:3454  balance0 */\n      tag_87\n        /* \"src/UniswapV3Pool.sol\":3446:3456  balance0() */\n      jump\t// in\n    tag_97:\n        /* \"src/UniswapV3Pool.sol\":3436:3443  amount0 */\n      dup9\n        /* \"src/UniswapV3Pool.sol\":3419:3433  balance0Before */\n      dup4\n        /* \"src/UniswapV3Pool.sol\":3419:3443  balance0Before + amount0 */\n      tag_98\n      swap2\n      swap1\n      tag_99\n      jump\t// in\n    tag_98:\n        /* \"src/UniswapV3Pool.sol\":3419:3456  balance0Before + amount0 > balance0() */\n      gt\n        /* \"src/UniswapV3Pool.sol\":3404:3456  amount0 > 0 && balance0Before + amount0 > balance0() */\n    tag_96:\n        /* \"src/UniswapV3Pool.sol\":3400:3503  if (amount0 > 0 && balance0Before + amount0 > balance0())... */\n      iszero\n      tag_100\n      jumpi\n        /* \"src/UniswapV3Pool.sol\":3478:3503  InsufficientInputAmount() */\n      mload(0x40)\n      0x098fb56100000000000000000000000000000000000000000000000000000000\n      dup2\n      mstore\n      0x04\n      add\n      mload(0x40)\n      dup1\n      swap2\n      sub\n      swap1\n      revert\n        /* \"src/UniswapV3Pool.sol\":3400:3503  if (amount0 > 0 && balance0Before + amount0 > balance0())... */\n    tag_100:\n        /* \"src/UniswapV3Pool.sol\":3528:3529  0 */\n      0x00\n        /* \"src/UniswapV3Pool.sol\":3518:3525  amount1 */\n      dup8\n        /* \"src/UniswapV3Pool.sol\":3518:3529  amount1 > 0 */\n      gt\n        /* \"src/UniswapV3Pool.sol\":3518:3570  amount1 > 0 && balance1Before + amount1 > balance1() */\n      dup1\n      iszero\n      tag_101\n      jumpi\n      pop\n        /* \"src/UniswapV3Pool.sol\":3560:3570  balance1() */\n      tag_102\n        /* \"src/UniswapV3Pool.sol\":3560:3568  balance1 */\n      tag_90\n        /* \"src/UniswapV3Pool.sol\":3560:3570  balance1() */\n      jump\t// in\n    tag_102:\n        /* \"src/UniswapV3Pool.sol\":3550:3557  amount1 */\n      dup8\n        /* \"src/UniswapV3Pool.sol\":3533:3547  balance1Before */\n      dup3\n        /* \"src/UniswapV3Pool.sol\":3533:3557  balance1Before + amount1 */\n      tag_103\n      swap2\n      swap1\n      tag_99\n      jump\t// in\n    tag_103:\n        /* \"src/UniswapV3Pool.sol\":3533:3570  balance1Before + amount1 > balance1() */\n      gt\n        /* \"src/UniswapV3Pool.sol\":3518:3570  amount1 > 0 && balance1Before + amount1 > balance1() */\n    tag_101:\n        /* \"src/UniswapV3Pool.sol\":3514:3617  if (amount1 > 0 && balance1Before + amount1 > balance1())... */\n      iszero\n      tag_104\n      jumpi\n        /* \"src/UniswapV3Pool.sol\":3592:3617  InsufficientInputAmount() */\n      mload(0x40)\n      0x098fb56100000000000000000000000000000000000000000000000000000000\n      dup2\n      mstore\n      0x04\n      add\n      mload(0x40)\n      dup1\n      swap2\n      sub\n      swap1\n      revert\n        /* \"src/UniswapV3Pool.sol\":3514:3617  if (amount1 > 0 && balance1Before + amount1 > balance1())... */\n    tag_104:\n        /* \"src/UniswapV3Pool.sol\":3670:3679  upperTick */\n      dup12\n        /* \"src/UniswapV3Pool.sol\":3635:3706  Mint(msg.sender, owner, lowerTick, upperTick, amount, amount0, amount1) */\n      0x02\n      signextend\n        /* \"src/UniswapV3Pool.sol\":3659:3668  lowerTick */\n      dup14\n        /* \"src/UniswapV3Pool.sol\":3635:3706  Mint(msg.sender, owner, lowerTick, upperTick, amount, amount0, amount1) */\n      0x02\n      signextend\n        /* \"src/UniswapV3Pool.sol\":3652:3657  owner */\n      dup16\n        /* \"src/UniswapV3Pool.sol\":3635:3706  Mint(msg.sender, owner, lowerTick, upperTick, amount, amount0, amount1) */\n      0xffffffffffffffffffffffffffffffffffffffff\n      and\n      0x7a53080ba414158be7ec69b987b5fb7d07dee101fe85488f0853ae16239d0bde\n        /* \"src/UniswapV3Pool.sol\":3640:3650  msg.sender */\n      caller\n        /* \"src/UniswapV3Pool.sol\":3681:3687  amount */\n      dup16\n        /* \"src/UniswapV3Pool.sol\":3689:3696  amount0 */\n      dup14\n        /* \"src/UniswapV3Pool.sol\":3698:3705  amount1 */\n      dup14\n        /* \"src/UniswapV3Pool.sol\":3635:3706  Mint(msg.sender, owner, lowerTick, upperTick, amount, amount0, amount1) */\n      mload(0x40)\n      tag_105\n      swap5\n      swap4\n      swap3\n      swap2\n      swap1\n      tag_106\n      jump\t// in\n    tag_105:\n      mload(0x40)\n      dup1\n      swap2\n      sub\n      swap1\n      log4\n        /* \"src/UniswapV3Pool.sol\":1979:3714  {... */\n      pop\n      pop\n      pop\n      pop\n      pop\n      pop\n        /* \"src/UniswapV3Pool.sol\":1760:3714  function mint(... */\n      swap7\n      pop\n      swap7\n      swap5\n      pop\n      pop\n      pop\n      pop\n      pop\n      jump\t// out\n        /* \"src/UniswapV3Pool.sol\":1408:1458  mapping(bytes32 => Position.Info) public positions */\n    tag_34:\n      mstore(0x20, 0x04)\n      dup1\n      0x00\n      mstore\n      keccak256(0x00, 0x40)\n      0x00\n      swap2\n      pop\n      swap1\n      pop\n      dup1\n      0x00\n      add\n      0x00\n      swap1\n      sload\n      swap1\n      0x0100\n      exp\n      swap1\n      div\n      0xffffffffffffffffffffffffffffffff\n      and\n      swap1\n      pop\n      dup2\n      jump\t// out\n        /* \"src/UniswapV3Pool.sol\":1337:1380  mapping(int16 => uint256) public tickBitmap */\n    tag_39:\n      mstore(0x20, 0x03)\n      dup1\n      0x00\n      mstore\n      keccak256(0x00, 0x40)\n      0x00\n      swap2\n      pop\n      swap1\n      pop\n      sload\n      dup2\n      jump\t// out\n        /* \"src/UniswapV3Pool.sol\":951:982  address public immutable token1 */\n    tag_43:\n      immutable(\"0xf928ede1c39c5595ff22fe845412ee05a93eeaa584f8ef0c46b5eeb14cb99ec8\")\n      dup2\n      jump\t// out\n        /* \"src/UniswapV3Pool.sol\":3746:4695  function swap(address recipient, bytes calldata data)... */\n    tag_48:\n        /* \"src/UniswapV3Pool.sol\":3834:3848  int256 amount0 */\n      0x00\n        /* \"src/UniswapV3Pool.sol\":3850:3864  int256 amount1 */\n      0x00\n        /* \"src/UniswapV3Pool.sol\":3882:3896  int24 nextTick */\n      0x00\n        /* \"src/UniswapV3Pool.sol\":3899:3904  85184 */\n      0x014cc0\n        /* \"src/UniswapV3Pool.sol\":3882:3904  int24 nextTick = 85184 */\n      swap1\n      pop\n        /* \"src/UniswapV3Pool.sol\":3915:3932  uint160 nextPrice */\n      0x00\n        /* \"src/UniswapV3Pool.sol\":3935:3966  5604469350942327889444743441197 */\n      0x46bd046408013d67ed5d406b2d\n        /* \"src/UniswapV3Pool.sol\":3915:3966  uint160 nextPrice = 5604469350942327889444743441197 */\n      swap1\n      pop\n        /* \"src/UniswapV3Pool.sol\":3987:4014  -0.008396714242162444 ether */\n      0xffffffffffffffffffffffffffffffffffffffffffffffffffe22b3b9e50c0f4\n        /* \"src/UniswapV3Pool.sol\":3977:4014  amount0 = -0.008396714242162444 ether */\n      swap4\n      pop\n        /* \"src/UniswapV3Pool.sol\":4035:4043  42 ether */\n      0x0246ddf97976680000\n        /* \"src/UniswapV3Pool.sol\":4025:4043  amount1 = 42 ether */\n      swap3\n      pop\n        /* \"src/UniswapV3Pool.sol\":4090:4098  nextTick */\n      dup2\n        /* \"src/UniswapV3Pool.sol\":4100:4109  nextPrice */\n      dup2\n        /* \"src/UniswapV3Pool.sol\":4055:4060  slot0 */\n      0x00\n        /* \"src/UniswapV3Pool.sol\":4055:4065  slot0.tick */\n      0x00\n      add\n      0x14\n        /* \"src/UniswapV3Pool.sol\":4067:4072  slot0 */\n      0x00\n        /* \"src/UniswapV3Pool.sol\":4067:4085  slot0.sqrtPriceX96 */\n      0x00\n      add\n      0x00\n        /* \"src/UniswapV3Pool.sol\":4054:4110  (slot0.tick, slot0.sqrtPriceX96) = (nextTick, nextPrice) */\n      dup5\n      swap2\n      swap1\n      0x0100\n      exp\n      dup2\n      sload\n      dup2\n      0xffffffffffffffffffffffffffffffffffffffff\n      mul\n      not\n      and\n      swap1\n      dup4\n      0xffffffffffffffffffffffffffffffffffffffff\n      and\n      mul\n      or\n      swap1\n      sstore\n      pop\n      dup4\n      swap2\n      swap1\n      0x0100\n      exp\n      dup2\n      sload\n      dup2\n      0xffffff\n      mul\n      not\n      and\n      swap1\n      dup4\n      0x02\n      signextend\n      0xffffff\n      and\n      mul\n      or\n      swap1\n      sstore\n      pop\n      pop\n      pop\n        /* \"src/UniswapV3Pool.sol\":4138:4144  token0 */\n      immutable(\"0x59c0d2b7af0a8e6d3d8e710a078764bd67b7223777026c424cdb4f599824bb79\")\n        /* \"src/UniswapV3Pool.sol\":4131:4154  IERC20(token0).transfer */\n      0xffffffffffffffffffffffffffffffffffffffff\n      and\n      0xa9059cbb\n        /* \"src/UniswapV3Pool.sol\":4155:4164  recipient */\n      dup9\n        /* \"src/UniswapV3Pool.sol\":4175:4182  amount0 */\n      dup7\n        /* \"src/UniswapV3Pool.sol\":4174:4182  -amount0 */\n      tag_108\n      swap1\n      tag_109\n      jump\t// in\n    tag_108:\n        /* \"src/UniswapV3Pool.sol\":4131:4184  IERC20(token0).transfer(recipient, uint256(-amount0)) */\n      mload(0x40)\n      dup4\n      0xffffffff\n      and\n      0xe0\n      shl\n      dup2\n      mstore\n      0x04\n      add\n      tag_110\n      swap3\n      swap2\n      swap1\n      tag_111\n      jump\t// in\n    tag_110:\n      0x20\n      mload(0x40)\n      dup1\n      dup4\n      sub\n      dup2\n      0x00\n      dup8\n      gas\n      call\n      iszero\n      dup1\n      iszero\n      tag_113\n      jumpi\n      returndatacopy(0x00, 0x00, returndatasize)\n      revert(0x00, returndatasize)\n    tag_113:\n      pop\n      pop\n      pop\n      pop\n      mload(0x40)\n      returndatasize\n      not(0x1f)\n      0x1f\n      dup3\n      add\n      and\n      dup3\n      add\n      dup1\n      0x40\n      mstore\n      pop\n      dup2\n      add\n      swap1\n      tag_114\n      swap2\n      swap1\n      tag_115\n      jump\t// in\n    tag_114:\n      pop\n        /* \"src/UniswapV3Pool.sol\":4195:4217  uint256 balance1Before */\n      0x00\n        /* \"src/UniswapV3Pool.sol\":4220:4230  balance1() */\n      tag_116\n        /* \"src/UniswapV3Pool.sol\":4220:4228  balance1 */\n      tag_90\n        /* \"src/UniswapV3Pool.sol\":4220:4230  balance1() */\n      jump\t// in\n    tag_116:\n        /* \"src/UniswapV3Pool.sol\":4195:4230  uint256 balance1Before = balance1() */\n      swap1\n      pop\n        /* \"src/UniswapV3Pool.sol\":4264:4274  msg.sender */\n      caller\n        /* \"src/UniswapV3Pool.sol\":4241:4297  IUniswapV3SwapCallback(msg.sender).uniswapV3SwapCallback */\n      0xffffffffffffffffffffffffffffffffffffffff\n      and\n      0xfa461e33\n        /* \"src/UniswapV3Pool.sol\":4312:4319  amount0 */\n      dup7\n        /* \"src/UniswapV3Pool.sol\":4334:4341  amount1 */\n      dup7\n        /* \"src/UniswapV3Pool.sol\":4356:4360  data */\n      dup11\n      dup11\n        /* \"src/UniswapV3Pool.sol\":4241:4371  IUniswapV3SwapCallback(msg.sender).uniswapV3SwapCallback(... */\n      mload(0x40)\n      dup6\n      0xffffffff\n      and\n      0xe0\n      shl\n      dup2\n      mstore\n      0x04\n      add\n      tag_117\n      swap5\n      swap4\n      swap3\n      swap2\n      swap1\n      tag_118\n      jump\t// in\n    tag_117:\n      0x00\n      mload(0x40)\n      dup1\n      dup4\n      sub\n      dup2\n      0x00\n      dup8\n      dup1\n      extcodesize\n      iszero\n      dup1\n      iszero\n      tag_119\n      jumpi\n      revert(0x00, 0x00)\n    tag_119:\n      pop\n      gas\n      call\n      iszero\n      dup1\n      iszero\n      tag_121\n      jumpi\n      returndatacopy(0x00, 0x00, returndatasize)\n      revert(0x00, returndatasize)\n    tag_121:\n      pop\n      pop\n      pop\n      pop\n        /* \"src/UniswapV3Pool.sol\":4422:4432  balance1() */\n      tag_122\n        /* \"src/UniswapV3Pool.sol\":4422:4430  balance1 */\n      tag_90\n        /* \"src/UniswapV3Pool.sol\":4422:4432  balance1() */\n      jump\t// in\n    tag_122:\n        /* \"src/UniswapV3Pool.sol\":4411:4418  amount1 */\n      dup5\n        /* \"src/UniswapV3Pool.sol\":4386:4400  balance1Before */\n      dup3\n        /* \"src/UniswapV3Pool.sol\":4386:4419  balance1Before + uint256(amount1) */\n      tag_123\n      swap2\n      swap1\n      tag_99\n      jump\t// in\n    tag_123:\n        /* \"src/UniswapV3Pool.sol\":4386:4432  balance1Before + uint256(amount1) < balance1() */\n      lt\n        /* \"src/UniswapV3Pool.sol\":4382:4479  if (balance1Before + uint256(amount1) < balance1())... */\n      iszero\n      tag_124\n      jumpi\n        /* \"src/UniswapV3Pool.sol\":4454:4479  InsufficientInputAmount() */\n      mload(0x40)\n      0x098fb56100000000000000000000000000000000000000000000000000000000\n      dup2\n      mstore\n      0x04\n      add\n      mload(0x40)\n      dup1\n      swap2\n      sub\n      swap1\n      revert\n        /* \"src/UniswapV3Pool.sol\":4382:4479  if (balance1Before + uint256(amount1) < balance1())... */\n    tag_124:\n        /* \"src/UniswapV3Pool.sol\":4541:4550  recipient */\n      dup8\n        /* \"src/UniswapV3Pool.sol\":4497:4687  Swap(... */\n      0xffffffffffffffffffffffffffffffffffffffff\n      and\n        /* \"src/UniswapV3Pool.sol\":4516:4526  msg.sender */\n      caller\n        /* \"src/UniswapV3Pool.sol\":4497:4687  Swap(... */\n      0xffffffffffffffffffffffffffffffffffffffff\n      and\n      0xc42079f94a6350d7e6235f29174924f928cc2ac818eb64fed8004e115fbcca67\n        /* \"src/UniswapV3Pool.sol\":4565:4572  amount0 */\n      dup8\n        /* \"src/UniswapV3Pool.sol\":4587:4594  amount1 */\n      dup8\n        /* \"src/UniswapV3Pool.sol\":4609:4614  slot0 */\n      0x00\n        /* \"src/UniswapV3Pool.sol\":4609:4627  slot0.sqrtPriceX96 */\n      0x00\n      add\n      0x00\n      swap1\n      sload\n      swap1\n      0x0100\n      exp\n      swap1\n      div\n      0xffffffffffffffffffffffffffffffffffffffff\n      and\n        /* \"src/UniswapV3Pool.sol\":4642:4651  liquidity */\n      0x01\n      0x00\n      swap1\n      sload\n      swap1\n      0x0100\n      exp\n      swap1\n      div\n      0xffffffffffffffffffffffffffffffff\n      and\n        /* \"src/UniswapV3Pool.sol\":4666:4671  slot0 */\n      0x00\n        /* \"src/UniswapV3Pool.sol\":4666:4676  slot0.tick */\n      0x00\n      add\n      0x14\n      swap1\n      sload\n      swap1\n      0x0100\n      exp\n      swap1\n      div\n      0x02\n      signextend\n        /* \"src/UniswapV3Pool.sol\":4497:4687  Swap(... */\n      mload(0x40)\n      tag_125\n      swap6\n      swap5\n      swap4\n      swap3\n      swap2\n      swap1\n      tag_126\n      jump\t// in\n    tag_125:\n      mload(0x40)\n      dup1\n      swap2\n      sub\n      swap1\n      log3\n        /* \"src/UniswapV3Pool.sol\":3871:4695  {... */\n      pop\n      pop\n      pop\n        /* \"src/UniswapV3Pool.sol\":3746:4695  function swap(address recipient, bytes calldata data)... */\n      swap4\n      pop\n      swap4\n      swap2\n      pop\n      pop\n      jump\t// out\n        /* \"src/UniswapV3Pool.sol\":1269:1309  mapping(int24 => Tick.Info) public ticks */\n    tag_54:\n      mstore(0x20, 0x02)\n      dup1\n      0x00\n      mstore\n      keccak256(0x00, 0x40)\n      0x00\n      swap2\n      pop\n      swap1\n      pop\n      dup1\n      0x00\n      add\n      0x00\n      swap1\n      sload\n      swap1\n      0x0100\n      exp\n      swap1\n      div\n      0xff\n      and\n      swap1\n      dup1\n      0x00\n      add\n      0x01\n      swap1\n      sload\n      swap1\n      0x0100\n      exp\n      swap1\n      div\n      0xffffffffffffffffffffffffffffffff\n      and\n      swap1\n      pop\n      dup3\n      jump\t// out\n        /* \"src/lib/Tick.sol\":160:695  function update(... */\n    tag_65:\n        /* \"src/lib/Tick.sol\":302:314  bool flipped */\n      0x00\n        /* \"src/lib/Tick.sol\":326:352  Tick.Info storage tickInfo */\n      0x00\n        /* \"src/lib/Tick.sol\":355:359  self */\n      dup5\n        /* \"src/lib/Tick.sol\":355:365  self[tick] */\n      0x00\n        /* \"src/lib/Tick.sol\":360:364  tick */\n      dup6\n        /* \"src/lib/Tick.sol\":355:365  self[tick] */\n      0x02\n      signextend\n      0x02\n      signextend\n      dup2\n      mstore\n      0x20\n      add\n      swap1\n      dup2\n      mstore\n      0x20\n      add\n      0x00\n      keccak256\n        /* \"src/lib/Tick.sol\":326:365  Tick.Info storage tickInfo = self[tick] */\n      swap1\n      pop\n        /* \"src/lib/Tick.sol\":375:398  uint128 liquidityBefore */\n      0x00\n        /* \"src/lib/Tick.sol\":401:409  tickInfo */\n      dup2\n        /* \"src/lib/Tick.sol\":401:419  tickInfo.liquidity */\n      0x00\n      add\n      0x01\n      swap1\n      sload\n      swap1\n      0x0100\n      exp\n      swap1\n      div\n      0xffffffffffffffffffffffffffffffff\n      and\n        /* \"src/lib/Tick.sol\":375:419  uint128 liquidityBefore = tickInfo.liquidity */\n      swap1\n      pop\n        /* \"src/lib/Tick.sol\":429:451  uint128 liquidityAfter */\n      0x00\n        /* \"src/lib/Tick.sol\":472:486  liquidityDelta */\n      dup5\n        /* \"src/lib/Tick.sol\":454:469  liquidityBefore */\n      dup3\n        /* \"src/lib/Tick.sol\":454:486  liquidityBefore + liquidityDelta */\n      tag_128\n      swap2\n      swap1\n      tag_84\n      jump\t// in\n    tag_128:\n        /* \"src/lib/Tick.sol\":429:486  uint128 liquidityAfter = liquidityBefore + liquidityDelta */\n      swap1\n      pop\n        /* \"src/lib/Tick.sol\":552:553  0 */\n      0x00\n        /* \"src/lib/Tick.sol\":533:548  liquidityBefore */\n      dup3\n        /* \"src/lib/Tick.sol\":533:553  liquidityBefore == 0 */\n      0xffffffffffffffffffffffffffffffff\n      and\n      eq\n        /* \"src/lib/Tick.sol\":507:554  (liquidityAfter == 0) != (liquidityBefore == 0) */\n      iszero\n      iszero\n        /* \"src/lib/Tick.sol\":526:527  0 */\n      0x00\n        /* \"src/lib/Tick.sol\":508:522  liquidityAfter */\n      dup3\n        /* \"src/lib/Tick.sol\":508:527  liquidityAfter == 0 */\n      0xffffffffffffffffffffffffffffffff\n      and\n      eq\n        /* \"src/lib/Tick.sol\":507:554  (liquidityAfter == 0) != (liquidityBefore == 0) */\n      iszero\n      iszero\n      eq\n      iszero\n        /* \"src/lib/Tick.sol\":497:554  flipped = (liquidityAfter == 0) != (liquidityBefore == 0) */\n      swap4\n      pop\n        /* \"src/lib/Tick.sol\":588:589  0 */\n      0x00\n        /* \"src/lib/Tick.sol\":569:584  liquidityBefore */\n      dup3\n        /* \"src/lib/Tick.sol\":569:589  liquidityBefore == 0 */\n      0xffffffffffffffffffffffffffffffff\n      and\n      sub\n        /* \"src/lib/Tick.sol\":565:643  if (liquidityBefore == 0) {... */\n      tag_129\n      jumpi\n        /* \"src/lib/Tick.sol\":628:632  true */\n      0x01\n        /* \"src/lib/Tick.sol\":605:613  tickInfo */\n      dup4\n        /* \"src/lib/Tick.sol\":605:625  tickInfo.initialized */\n      0x00\n      add\n      0x00\n        /* \"src/lib/Tick.sol\":605:632  tickInfo.initialized = true */\n      0x0100\n      exp\n      dup2\n      sload\n      dup2\n      0xff\n      mul\n      not\n      and\n      swap1\n      dup4\n      iszero\n      iszero\n      mul\n      or\n      swap1\n      sstore\n      pop\n        /* \"src/lib/Tick.sol\":565:643  if (liquidityBefore == 0) {... */\n    tag_129:\n        /* \"src/lib/Tick.sol\":674:688  liquidityAfter */\n      dup1\n        /* \"src/lib/Tick.sol\":653:661  tickInfo */\n      dup4\n        /* \"src/lib/Tick.sol\":653:671  tickInfo.liquidity */\n      0x00\n      add\n      0x01\n        /* \"src/lib/Tick.sol\":653:688  tickInfo.liquidity = liquidityAfter */\n      0x0100\n      exp\n      dup2\n      sload\n      dup2\n      0xffffffffffffffffffffffffffffffff\n      mul\n      not\n      and\n      swap1\n      dup4\n      0xffffffffffffffffffffffffffffffff\n      and\n      mul\n      or\n      swap1\n      sstore\n      pop\n        /* \"src/lib/Tick.sol\":316:695  {... */\n      pop\n      pop\n      pop\n        /* \"src/lib/Tick.sol\":160:695  function update(... */\n      swap4\n      swap3\n      pop\n      pop\n      pop\n      jump\t// out\n        /* \"src/lib/TickBitmap.sol\":1110:1458  function flipTick(... */\n    tag_69:\n        /* \"src/lib/TickBitmap.sol\":1278:1279  0 */\n      0x00\n        /* \"src/lib/TickBitmap.sol\":1263:1274  tickSpacing */\n      dup2\n        /* \"src/lib/TickBitmap.sol\":1256:1260  tick */\n      dup4\n        /* \"src/lib/TickBitmap.sol\":1256:1274  tick % tickSpacing */\n      tag_131\n      swap2\n      swap1\n      tag_132\n      jump\t// in\n    tag_131:\n        /* \"src/lib/TickBitmap.sol\":1256:1279  tick % tickSpacing == 0 */\n      0x02\n      signextend\n      eq\n        /* \"src/lib/TickBitmap.sol\":1248:1280  require(tick % tickSpacing == 0) */\n      tag_133\n      jumpi\n      revert(0x00, 0x00)\n    tag_133:\n        /* \"src/lib/TickBitmap.sol\":1325:1338  int16 wordPos */\n      0x00\n        /* \"src/lib/TickBitmap.sol\":1340:1352  uint8 bitPos */\n      0x00\n        /* \"src/lib/TickBitmap.sol\":1356:1384  position(tick / tickSpacing) */\n      tag_134\n        /* \"src/lib/TickBitmap.sol\":1372:1383  tickSpacing */\n      dup4\n        /* \"src/lib/TickBitmap.sol\":1365:1369  tick */\n      dup6\n        /* \"src/lib/TickBitmap.sol\":1365:1383  tick / tickSpacing */\n      tag_135\n      swap2\n      swap1\n      tag_136\n      jump\t// in\n    tag_135:\n        /* \"src/lib/TickBitmap.sol\":1356:1364  position */\n      tag_137\n        /* \"src/lib/TickBitmap.sol\":1356:1384  position(tick / tickSpacing) */\n      jump\t// in\n    tag_134:\n        /* \"src/lib/TickBitmap.sol\":1324:1384  (int16 wordPos, uint8 bitPos) = position(tick / tickSpacing) */\n      swap2\n      pop\n      swap2\n      pop\n        /* \"src/lib/TickBitmap.sol\":1394:1406  uint256 mask */\n      0x00\n        /* \"src/lib/TickBitmap.sol\":1414:1420  bitPos */\n      dup2\n        /* \"src/lib/TickBitmap.sol\":1409:1420  1 << bitPos */\n      0xff\n      and\n        /* \"src/lib/TickBitmap.sol\":1409:1410  1 */\n      0x01\n        /* \"src/lib/TickBitmap.sol\":1409:1420  1 << bitPos */\n      swap1\n      shl\n        /* \"src/lib/TickBitmap.sol\":1394:1420  uint256 mask = 1 << bitPos */\n      swap1\n      pop\n        /* \"src/lib/TickBitmap.sol\":1447:1451  mask */\n      dup1\n        /* \"src/lib/TickBitmap.sol\":1430:1434  self */\n      dup7\n        /* \"src/lib/TickBitmap.sol\":1430:1443  self[wordPos] */\n      0x00\n        /* \"src/lib/TickBitmap.sol\":1435:1442  wordPos */\n      dup6\n        /* \"src/lib/TickBitmap.sol\":1430:1443  self[wordPos] */\n      0x01\n      signextend\n      0x01\n      signextend\n      dup2\n      mstore\n      0x20\n      add\n      swap1\n      dup2\n      mstore\n      0x20\n      add\n      0x00\n      keccak256\n      0x00\n        /* \"src/lib/TickBitmap.sol\":1430:1451  self[wordPos] ^= mask */\n      dup3\n      dup3\n      sload\n      xor\n      swap3\n      pop\n      pop\n      dup2\n      swap1\n      sstore\n      pop\n        /* \"src/lib/TickBitmap.sol\":1238:1458  {... */\n      pop\n      pop\n      pop\n        /* \"src/lib/TickBitmap.sol\":1110:1458  function flipTick(... */\n      pop\n      pop\n      pop\n      jump\t// out\n        /* \"src/lib/Position.sol\":138:444  function get(... */\n    tag_73:\n        /* \"src/lib/Position.sol\":300:330  Position.Info storage position */\n      0x00\n        /* \"src/lib/Position.sol\":353:357  self */\n      dup5\n        /* \"src/lib/Position.sol\":353:437  self[... */\n      0x00\n        /* \"src/lib/Position.sol\":398:403  owner */\n      dup6\n        /* \"src/lib/Position.sol\":405:414  lowerTick */\n      dup6\n        /* \"src/lib/Position.sol\":416:425  upperTick */\n      dup6\n        /* \"src/lib/Position.sol\":381:426  abi.encodePacked(owner, lowerTick, upperTick) */\n      add(0x20, mload(0x40))\n      tag_139\n      swap4\n      swap3\n      swap2\n      swap1\n      tag_140\n      jump\t// in\n    tag_139:\n      mload(0x40)\n      0x20\n      dup2\n      dup4\n      sub\n      sub\n      dup2\n      mstore\n      swap1\n      0x40\n      mstore\n        /* \"src/lib/Position.sol\":371:427  keccak256(abi.encodePacked(owner, lowerTick, upperTick)) */\n      dup1\n      mload\n      swap1\n      0x20\n      add\n      keccak256\n        /* \"src/lib/Position.sol\":353:437  self[... */\n      dup2\n      mstore\n      0x20\n      add\n      swap1\n      dup2\n      mstore\n      0x20\n      add\n      0x00\n      keccak256\n        /* \"src/lib/Position.sol\":342:437  position = self[... */\n      swap1\n      pop\n        /* \"src/lib/Position.sol\":138:444  function get(... */\n      swap5\n      swap4\n      pop\n      pop\n      pop\n      pop\n      jump\t// out\n        /* \"src/lib/Position.sol\":450:684  function update(Info storage self, uint128 liquidityDelta) internal {... */\n    tag_75:\n        /* \"src/lib/Position.sol\":528:551  uint128 liquidityBefore */\n      0x00\n        /* \"src/lib/Position.sol\":554:558  self */\n      dup3\n        /* \"src/lib/Position.sol\":554:568  self.liquidity */\n      0x00\n      add\n      0x00\n      swap1\n      sload\n      swap1\n      0x0100\n      exp\n      swap1\n      div\n      0xffffffffffffffffffffffffffffffff\n      and\n        /* \"src/lib/Position.sol\":528:568  uint128 liquidityBefore = self.liquidity */\n      swap1\n      pop\n        /* \"src/lib/Position.sol\":578:600  uint128 liquidityAfter */\n      0x00\n        /* \"src/lib/Position.sol\":621:635  liquidityDelta */\n      dup3\n        /* \"src/lib/Position.sol\":603:618  liquidityBefore */\n      dup3\n        /* \"src/lib/Position.sol\":603:635  liquidityBefore + liquidityDelta */\n      tag_142\n      swap2\n      swap1\n      tag_84\n      jump\t// in\n    tag_142:\n        /* \"src/lib/Position.sol\":578:635  uint128 liquidityAfter = liquidityBefore + liquidityDelta */\n      swap1\n      pop\n        /* \"src/lib/Position.sol\":663:677  liquidityAfter */\n      dup1\n        /* \"src/lib/Position.sol\":646:650  self */\n      dup5\n        /* \"src/lib/Position.sol\":646:660  self.liquidity */\n      0x00\n      add\n      0x00\n        /* \"src/lib/Position.sol\":646:677  self.liquidity = liquidityAfter */\n      0x0100\n      exp\n      dup2\n      sload\n      dup2\n      0xffffffffffffffffffffffffffffffff\n      mul\n      not\n      and\n      swap1\n      dup4\n      0xffffffffffffffffffffffffffffffff\n      and\n      mul\n      or\n      swap1\n      sstore\n      pop\n        /* \"src/lib/Position.sol\":518:684  {... */\n      pop\n      pop\n        /* \"src/lib/Position.sol\":450:684  function update(Info storage self, uint128 liquidityDelta) internal {... */\n      pop\n      pop\n      jump\t// out\n        /* \"src/lib/TickMath.sol\":1355:3943  function getSqrtRatioAtTick(int24 tick) internal pure returns (uint160 sqrtPriceX96) {... */\n    tag_78:\n        /* \"src/lib/TickMath.sol\":1418:1438  uint160 sqrtPriceX96 */\n      0x00\n        /* \"src/lib/TickMath.sol\":1450:1465  uint256 absTick */\n      0x00\n        /* \"src/lib/TickMath.sol\":1475:1476  0 */\n      0x00\n        /* \"src/lib/TickMath.sol\":1468:1472  tick */\n      dup4\n        /* \"src/lib/TickMath.sol\":1468:1476  tick < 0 */\n      0x02\n      signextend\n      slt\n        /* \"src/lib/TickMath.sol\":1468:1525  tick < 0 ? uint256(-int256(tick)) : uint256(int256(tick)) */\n      tag_144\n      jumpi\n        /* \"src/lib/TickMath.sol\":1519:1523  tick */\n      dup3\n        /* \"src/lib/TickMath.sol\":1512:1524  int256(tick) */\n      0x02\n      signextend\n        /* \"src/lib/TickMath.sol\":1468:1525  tick < 0 ? uint256(-int256(tick)) : uint256(int256(tick)) */\n      jump(tag_145)\n    tag_144:\n        /* \"src/lib/TickMath.sol\":1495:1499  tick */\n      dup3\n        /* \"src/lib/TickMath.sol\":1488:1500  int256(tick) */\n      0x02\n      signextend\n        /* \"src/lib/TickMath.sol\":1487:1500  -int256(tick) */\n      tag_146\n      swap1\n      tag_109\n      jump\t// in\n    tag_146:\n        /* \"src/lib/TickMath.sol\":1468:1525  tick < 0 ? uint256(-int256(tick)) : uint256(int256(tick)) */\n    tag_145:\n        /* \"src/lib/TickMath.sol\":1450:1525  uint256 absTick = tick < 0 ? uint256(-int256(tick)) : uint256(int256(tick)) */\n      swap1\n      pop\n        /* \"src/lib/TickMath.sol\":477:484  -887272 */\n      0xfffffffffffffffffffffffffffffffffffffffffffffffffffffffffff27618\n        /* \"src/lib/TickMath.sol\":637:646  -MIN_TICK */\n      tag_147\n      swap1\n      tag_61\n      jump\t// in\n    tag_147:\n        /* \"src/lib/TickMath.sol\":1554:1579  uint256(uint24(MAX_TICK)) */\n      0xffffff\n      and\n        /* \"src/lib/TickMath.sol\":1543:1550  absTick */\n      dup2\n        /* \"src/lib/TickMath.sol\":1543:1579  absTick <= uint256(uint24(MAX_TICK)) */\n      gt\n      iszero\n        /* \"src/lib/TickMath.sol\":1535:1585  require(absTick <= uint256(uint24(MAX_TICK)), 'T') */\n      tag_148\n      jumpi\n      mload(0x40)\n      0x08c379a000000000000000000000000000000000000000000000000000000000\n      dup2\n      mstore\n      0x04\n      add\n      tag_149\n      swap1\n      tag_150\n      jump\t// in\n    tag_149:\n      mload(0x40)\n      dup1\n      swap2\n      sub\n      swap1\n      revert\n    tag_148:\n        /* \"src/lib/TickMath.sol\":1596:1609  uint256 ratio */\n      0x00\n        /* \"src/lib/TickMath.sol\":1629:1630  0 */\n      0x00\n        /* \"src/lib/TickMath.sol\":1622:1625  0x1 */\n      0x01\n        /* \"src/lib/TickMath.sol\":1612:1619  absTick */\n      dup4\n        /* \"src/lib/TickMath.sol\":1612:1625  absTick & 0x1 */\n      and\n        /* \"src/lib/TickMath.sol\":1612:1630  absTick & 0x1 != 0 */\n      sub\n        /* \"src/lib/TickMath.sol\":1612:1705  absTick & 0x1 != 0 ? 0xfffcb933bd6fad37aa2d162d1a594001 : 0x100000000000000000000000000000000 */\n      tag_151\n      jumpi\n        /* \"src/lib/TickMath.sol\":1670:1705  0x100000000000000000000000000000000 */\n      0x0100000000000000000000000000000000\n        /* \"src/lib/TickMath.sol\":1612:1705  absTick & 0x1 != 0 ? 0xfffcb933bd6fad37aa2d162d1a594001 : 0x100000000000000000000000000000000 */\n      jump(tag_152)\n    tag_151:\n        /* \"src/lib/TickMath.sol\":1633:1667  0xfffcb933bd6fad37aa2d162d1a594001 */\n      0xfffcb933bd6fad37aa2d162d1a594001\n        /* \"src/lib/TickMath.sol\":1612:1705  absTick & 0x1 != 0 ? 0xfffcb933bd6fad37aa2d162d1a594001 : 0x100000000000000000000000000000000 */\n    tag_152:\n        /* \"src/lib/TickMath.sol\":1596:1705  uint256 ratio = absTick & 0x1 != 0 ? 0xfffcb933bd6fad37aa2d162d1a594001 : 0x100000000000000000000000000000000 */\n      0xffffffffffffffffffffffffffffffffff\n      and\n      swap1\n      pop\n        /* \"src/lib/TickMath.sol\":1736:1737  0 */\n      0x00\n        /* \"src/lib/TickMath.sol\":1729:1732  0x2 */\n      0x02\n        /* \"src/lib/TickMath.sol\":1719:1726  absTick */\n      dup4\n        /* \"src/lib/TickMath.sol\":1719:1732  absTick & 0x2 */\n      and\n        /* \"src/lib/TickMath.sol\":1719:1737  absTick & 0x2 != 0 */\n      eq\n        /* \"src/lib/TickMath.sol\":1715:1798  if (absTick & 0x2 != 0) ratio = (ratio * 0xfff97272373d413259a46990580e213a) >> 128 */\n      tag_153\n      jumpi\n        /* \"src/lib/TickMath.sol\":1795:1798  128 */\n      0x80\n        /* \"src/lib/TickMath.sol\":1756:1790  0xfff97272373d413259a46990580e213a */\n      0xfff97272373d413259a46990580e213a\n        /* \"src/lib/TickMath.sol\":1748:1753  ratio */\n      dup3\n        /* \"src/lib/TickMath.sol\":1748:1790  ratio * 0xfff97272373d413259a46990580e213a */\n      tag_154\n      swap2\n      swap1\n      tag_155\n      jump\t// in\n    tag_154:\n        /* \"src/lib/TickMath.sol\":1747:1798  (ratio * 0xfff97272373d413259a46990580e213a) >> 128 */\n      swap1\n      shr\n        /* \"src/lib/TickMath.sol\":1739:1798  ratio = (ratio * 0xfff97272373d413259a46990580e213a) >> 128 */\n      swap1\n      pop\n        /* \"src/lib/TickMath.sol\":1715:1798  if (absTick & 0x2 != 0) ratio = (ratio * 0xfff97272373d413259a46990580e213a) >> 128 */\n    tag_153:\n        /* \"src/lib/TickMath.sol\":1829:1830  0 */\n      0x00\n        /* \"src/lib/TickMath.sol\":1822:1825  0x4 */\n      0x04\n        /* \"src/lib/TickMath.sol\":1812:1819  absTick */\n      dup4\n        /* \"src/lib/TickMath.sol\":1812:1825  absTick & 0x4 */\n      and\n        /* \"src/lib/TickMath.sol\":1812:1830  absTick & 0x4 != 0 */\n      eq\n        /* \"src/lib/TickMath.sol\":1808:1891  if (absTick & 0x4 != 0) ratio = (ratio * 0xfff2e50f5f656932ef12357cf3c7fdcc) >> 128 */\n      tag_156\n      jumpi\n        /* \"src/lib/TickMath.sol\":1888:1891  128 */\n      0x80\n        /* \"src/lib/TickMath.sol\":1849:1883  0xfff2e50f5f656932ef12357cf3c7fdcc */\n      0xfff2e50f5f656932ef12357cf3c7fdcc\n        /* \"src/lib/TickMath.sol\":1841:1846  ratio */\n      dup3\n        /* \"src/lib/TickMath.sol\":1841:1883  ratio * 0xfff2e50f5f656932ef12357cf3c7fdcc */\n      tag_157\n      swap2\n      swap1\n      tag_155\n      jump\t// in\n    tag_157:\n        /* \"src/lib/TickMath.sol\":1840:1891  (ratio * 0xfff2e50f5f656932ef12357cf3c7fdcc) >> 128 */\n      swap1\n      shr\n        /* \"src/lib/TickMath.sol\":1832:1891  ratio = (ratio * 0xfff2e50f5f656932ef12357cf3c7fdcc) >> 128 */\n      swap1\n      pop\n        /* \"src/lib/TickMath.sol\":1808:1891  if (absTick & 0x4 != 0) ratio = (ratio * 0xfff2e50f5f656932ef12357cf3c7fdcc) >> 128 */\n    tag_156:\n        /* \"src/lib/TickMath.sol\":1922:1923  0 */\n      0x00\n        /* \"src/lib/TickMath.sol\":1915:1918  0x8 */\n      0x08\n        /* \"src/lib/TickMath.sol\":1905:1912  absTick */\n      dup4\n        /* \"src/lib/TickMath.sol\":1905:1918  absTick & 0x8 */\n      and\n        /* \"src/lib/TickMath.sol\":1905:1923  absTick & 0x8 != 0 */\n      eq\n        /* \"src/lib/TickMath.sol\":1901:1984  if (absTick & 0x8 != 0) ratio = (ratio * 0xffe5caca7e10e4e61c3624eaa0941cd0) >> 128 */\n      tag_158\n      jumpi\n        /* \"src/lib/TickMath.sol\":1981:1984  128 */\n      0x80\n        /* \"src/lib/TickMath.sol\":1942:1976  0xffe5caca7e10e4e61c3624eaa0941cd0 */\n      0xffe5caca7e10e4e61c3624eaa0941cd0\n        /* \"src/lib/TickMath.sol\":1934:1939  ratio */\n      dup3\n        /* \"src/lib/TickMath.sol\":1934:1976  ratio * 0xffe5caca7e10e4e61c3624eaa0941cd0 */\n      tag_159\n      swap2\n      swap1\n      tag_155\n      jump\t// in\n    tag_159:\n        /* \"src/lib/TickMath.sol\":1933:1984  (ratio * 0xffe5caca7e10e4e61c3624eaa0941cd0) >> 128 */\n      swap1\n      shr\n        /* \"src/lib/TickMath.sol\":1925:1984  ratio = (ratio * 0xffe5caca7e10e4e61c3624eaa0941cd0) >> 128 */\n      swap1\n      pop\n        /* \"src/lib/TickMath.sol\":1901:1984  if (absTick & 0x8 != 0) ratio = (ratio * 0xffe5caca7e10e4e61c3624eaa0941cd0) >> 128 */\n    tag_158:\n        /* \"src/lib/TickMath.sol\":2016:2017  0 */\n      0x00\n        /* \"src/lib/TickMath.sol\":2008:2012  0x10 */\n      0x10\n        /* \"src/lib/TickMath.sol\":1998:2005  absTick */\n      dup4\n        /* \"src/lib/TickMath.sol\":1998:2012  absTick & 0x10 */\n      and\n        /* \"src/lib/TickMath.sol\":1998:2017  absTick & 0x10 != 0 */\n      eq\n        /* \"src/lib/TickMath.sol\":1994:2078  if (absTick & 0x10 != 0) ratio = (ratio * 0xffcb9843d60f6159c9db58835c926644) >> 128 */\n      tag_160\n      jumpi\n        /* \"src/lib/TickMath.sol\":2075:2078  128 */\n      0x80\n        /* \"src/lib/TickMath.sol\":2036:2070  0xffcb9843d60f6159c9db58835c926644 */\n      0xffcb9843d60f6159c9db58835c926644\n        /* \"src/lib/TickMath.sol\":2028:2033  ratio */\n      dup3\n        /* \"src/lib/TickMath.sol\":2028:2070  ratio * 0xffcb9843d60f6159c9db58835c926644 */\n      tag_161\n      swap2\n      swap1\n      tag_155\n      jump\t// in\n    tag_161:\n        /* \"src/lib/TickMath.sol\":2027:2078  (ratio * 0xffcb9843d60f6159c9db58835c926644) >> 128 */\n      swap1\n      shr\n        /* \"src/lib/TickMath.sol\":2019:2078  ratio = (ratio * 0xffcb9843d60f6159c9db58835c926644) >> 128 */\n      swap1\n      pop\n        /* \"src/lib/TickMath.sol\":1994:2078  if (absTick & 0x10 != 0) ratio = (ratio * 0xffcb9843d60f6159c9db58835c926644) >> 128 */\n    tag_160:\n        /* \"src/lib/TickMath.sol\":2110:2111  0 */\n      0x00\n        /* \"src/lib/TickMath.sol\":2102:2106  0x20 */\n      0x20\n        /* \"src/lib/TickMath.sol\":2092:2099  absTick */\n      dup4\n        /* \"src/lib/TickMath.sol\":2092:2106  absTick & 0x20 */\n      and\n        /* \"src/lib/TickMath.sol\":2092:2111  absTick & 0x20 != 0 */\n      eq\n        /* \"src/lib/TickMath.sol\":2088:2172  if (absTick & 0x20 != 0) ratio = (ratio * 0xff973b41fa98c081472e6896dfb254c0) >> 128 */\n      tag_162\n      jumpi\n        /* \"src/lib/TickMath.sol\":2169:2172  128 */\n      0x80\n        /* \"src/lib/TickMath.sol\":2130:2164  0xff973b41fa98c081472e6896dfb254c0 */\n      0xff973b41fa98c081472e6896dfb254c0\n        /* \"src/lib/TickMath.sol\":2122:2127  ratio */\n      dup3\n        /* \"src/lib/TickMath.sol\":2122:2164  ratio * 0xff973b41fa98c081472e6896dfb254c0 */\n      tag_163\n      swap2\n      swap1\n      tag_155\n      jump\t// in\n    tag_163:\n        /* \"src/lib/TickMath.sol\":2121:2172  (ratio * 0xff973b41fa98c081472e6896dfb254c0) >> 128 */\n      swap1\n      shr\n        /* \"src/lib/TickMath.sol\":2113:2172  ratio = (ratio * 0xff973b41fa98c081472e6896dfb254c0) >> 128 */\n      swap1\n      pop\n        /* \"src/lib/TickMath.sol\":2088:2172  if (absTick & 0x20 != 0) ratio = (ratio * 0xff973b41fa98c081472e6896dfb254c0) >> 128 */\n    tag_162:\n        /* \"src/lib/TickMath.sol\":2204:2205  0 */\n      0x00\n        /* \"src/lib/TickMath.sol\":2196:2200  0x40 */\n      0x40\n        /* \"src/lib/TickMath.sol\":2186:2193  absTick */\n      dup4\n        /* \"src/lib/TickMath.sol\":2186:2200  absTick & 0x40 */\n      and\n        /* \"src/lib/TickMath.sol\":2186:2205  absTick & 0x40 != 0 */\n      eq\n        /* \"src/lib/TickMath.sol\":2182:2266  if (absTick & 0x40 != 0) ratio = (ratio * 0xff2ea16466c96a3843ec78b326b52861) >> 128 */\n      tag_164\n      jumpi\n        /* \"src/lib/TickMath.sol\":2263:2266  128 */\n      0x80\n        /* \"src/lib/TickMath.sol\":2224:2258  0xff2ea16466c96a3843ec78b326b52861 */\n      0xff2ea16466c96a3843ec78b326b52861\n        /* \"src/lib/TickMath.sol\":2216:2221  ratio */\n      dup3\n        /* \"src/lib/TickMath.sol\":2216:2258  ratio * 0xff2ea16466c96a3843ec78b326b52861 */\n      tag_165\n      swap2\n      swap1\n      tag_155\n      jump\t// in\n    tag_165:\n        /* \"src/lib/TickMath.sol\":2215:2266  (ratio * 0xff2ea16466c96a3843ec78b326b52861) >> 128 */\n      swap1\n      shr\n        /* \"src/lib/TickMath.sol\":2207:2266  ratio = (ratio * 0xff2ea16466c96a3843ec78b326b52861) >> 128 */\n      swap1\n      pop\n        /* \"src/lib/TickMath.sol\":2182:2266  if (absTick & 0x40 != 0) ratio = (ratio * 0xff2ea16466c96a3843ec78b326b52861) >> 128 */\n    tag_164:\n        /* \"src/lib/TickMath.sol\":2298:2299  0 */\n      0x00\n        /* \"src/lib/TickMath.sol\":2290:2294  0x80 */\n      0x80\n        /* \"src/lib/TickMath.sol\":2280:2287  absTick */\n      dup4\n        /* \"src/lib/TickMath.sol\":2280:2294  absTick & 0x80 */\n      and\n        /* \"src/lib/TickMath.sol\":2280:2299  absTick & 0x80 != 0 */\n      eq\n        /* \"src/lib/TickMath.sol\":2276:2360  if (absTick & 0x80 != 0) ratio = (ratio * 0xfe5dee046a99a2a811c461f1969c3053) >> 128 */\n      tag_166\n      jumpi\n        /* \"src/lib/TickMath.sol\":2357:2360  128 */\n      0x80\n        /* \"src/lib/TickMath.sol\":2318:2352  0xfe5dee046a99a2a811c461f1969c3053 */\n      0xfe5dee046a99a2a811c461f1969c3053\n        /* \"src/lib/TickMath.sol\":2310:2315  ratio */\n      dup3\n        /* \"src/lib/TickMath.sol\":2310:2352  ratio * 0xfe5dee046a99a2a811c461f1969c3053 */\n      tag_167\n      swap2\n      swap1\n      tag_155\n      jump\t// in\n    tag_167:\n        /* \"src/lib/TickMath.sol\":2309:2360  (ratio * 0xfe5dee046a99a2a811c461f1969c3053) >> 128 */\n      swap1\n      shr\n        /* \"src/lib/TickMath.sol\":2301:2360  ratio = (ratio * 0xfe5dee046a99a2a811c461f1969c3053) >> 128 */\n      swap1\n      pop\n        /* \"src/lib/TickMath.sol\":2276:2360  if (absTick & 0x80 != 0) ratio = (ratio * 0xfe5dee046a99a2a811c461f1969c3053) >> 128 */\n    tag_166:\n        /* \"src/lib/TickMath.sol\":2393:2394  0 */\n      0x00\n        /* \"src/lib/TickMath.sol\":2384:2389  0x100 */\n      0x0100\n        /* \"src/lib/TickMath.sol\":2374:2381  absTick */\n      dup4\n        /* \"src/lib/TickMath.sol\":2374:2389  absTick & 0x100 */\n      and\n        /* \"src/lib/TickMath.sol\":2374:2394  absTick & 0x100 != 0 */\n      eq\n        /* \"src/lib/TickMath.sol\":2370:2455  if (absTick & 0x100 != 0) ratio = (ratio * 0xfcbe86c7900a88aedcffc83b479aa3a4) >> 128 */\n      tag_168\n      jumpi\n        /* \"src/lib/TickMath.sol\":2452:2455  128 */\n      0x80\n        /* \"src/lib/TickMath.sol\":2413:2447  0xfcbe86c7900a88aedcffc83b479aa3a4 */\n      0xfcbe86c7900a88aedcffc83b479aa3a4\n        /* \"src/lib/TickMath.sol\":2405:2410  ratio */\n      dup3\n        /* \"src/lib/TickMath.sol\":2405:2447  ratio * 0xfcbe86c7900a88aedcffc83b479aa3a4 */\n      tag_169\n      swap2\n      swap1\n      tag_155\n      jump\t// in\n    tag_169:\n        /* \"src/lib/TickMath.sol\":2404:2455  (ratio * 0xfcbe86c7900a88aedcffc83b479aa3a4) >> 128 */\n      swap1\n      shr\n        /* \"src/lib/TickMath.sol\":2396:2455  ratio = (ratio * 0xfcbe86c7900a88aedcffc83b479aa3a4) >> 128 */\n      swap1\n      pop\n        /* \"src/lib/TickMath.sol\":2370:2455  if (absTick & 0x100 != 0) ratio = (ratio * 0xfcbe86c7900a88aedcffc83b479aa3a4) >> 128 */\n    tag_168:\n        /* \"src/lib/TickMath.sol\":2488:2489  0 */\n      0x00\n        /* \"src/lib/TickMath.sol\":2479:2484  0x200 */\n      0x0200\n        /* \"src/lib/TickMath.sol\":2469:2476  absTick */\n      dup4\n        /* \"src/lib/TickMath.sol\":2469:2484  absTick & 0x200 */\n      and\n        /* \"src/lib/TickMath.sol\":2469:2489  absTick & 0x200 != 0 */\n      eq\n        /* \"src/lib/TickMath.sol\":2465:2550  if (absTick & 0x200 != 0) ratio = (ratio * 0xf987a7253ac413176f2b074cf7815e54) >> 128 */\n      tag_170\n      jumpi\n        /* \"src/lib/TickMath.sol\":2547:2550  128 */\n      0x80\n        /* \"src/lib/TickMath.sol\":2508:2542  0xf987a7253ac413176f2b074cf7815e54 */\n      0xf987a7253ac413176f2b074cf7815e54\n        /* \"src/lib/TickMath.sol\":2500:2505  ratio */\n      dup3\n        /* \"src/lib/TickMath.sol\":2500:2542  ratio * 0xf987a7253ac413176f2b074cf7815e54 */\n      tag_171\n      swap2\n      swap1\n      tag_155\n      jump\t// in\n    tag_171:\n        /* \"src/lib/TickMath.sol\":2499:2550  (ratio * 0xf987a7253ac413176f2b074cf7815e54) >> 128 */\n      swap1\n      shr\n        /* \"src/lib/TickMath.sol\":2491:2550  ratio = (ratio * 0xf987a7253ac413176f2b074cf7815e54) >> 128 */\n      swap1\n      pop\n        /* \"src/lib/TickMath.sol\":2465:2550  if (absTick & 0x200 != 0) ratio = (ratio * 0xf987a7253ac413176f2b074cf7815e54) >> 128 */\n    tag_170:\n        /* \"src/lib/TickMath.sol\":2583:2584  0 */\n      0x00\n        /* \"src/lib/TickMath.sol\":2574:2579  0x400 */\n      0x0400\n        /* \"src/lib/TickMath.sol\":2564:2571  absTick */\n      dup4\n        /* \"src/lib/TickMath.sol\":2564:2579  absTick & 0x400 */\n      and\n        /* \"src/lib/TickMath.sol\":2564:2584  absTick & 0x400 != 0 */\n      eq\n        /* \"src/lib/TickMath.sol\":2560:2645  if (absTick & 0x400 != 0) ratio = (ratio * 0xf3392b0822b70005940c7a398e4b70f3) >> 128 */\n      tag_172\n      jumpi\n        /* \"src/lib/TickMath.sol\":2642:2645  128 */\n      0x80\n        /* \"src/lib/TickMath.sol\":2603:2637  0xf3392b0822b70005940c7a398e4b70f3 */\n      0xf3392b0822b70005940c7a398e4b70f3\n        /* \"src/lib/TickMath.sol\":2595:2600  ratio */\n      dup3\n        /* \"src/lib/TickMath.sol\":2595:2637  ratio * 0xf3392b0822b70005940c7a398e4b70f3 */\n      tag_173\n      swap2\n      swap1\n      tag_155\n      jump\t// in\n    tag_173:\n        /* \"src/lib/TickMath.sol\":2594:2645  (ratio * 0xf3392b0822b70005940c7a398e4b70f3) >> 128 */\n      swap1\n      shr\n        /* \"src/lib/TickMath.sol\":2586:2645  ratio = (ratio * 0xf3392b0822b70005940c7a398e4b70f3) >> 128 */\n      swap1\n      pop\n        /* \"src/lib/TickMath.sol\":2560:2645  if (absTick & 0x400 != 0) ratio = (ratio * 0xf3392b0822b70005940c7a398e4b70f3) >> 128 */\n    tag_172:\n        /* \"src/lib/TickMath.sol\":2678:2679  0 */\n      0x00\n        /* \"src/lib/TickMath.sol\":2669:2674  0x800 */\n      0x0800\n        /* \"src/lib/TickMath.sol\":2659:2666  absTick */\n      dup4\n        /* \"src/lib/TickMath.sol\":2659:2674  absTick & 0x800 */\n      and\n        /* \"src/lib/TickMath.sol\":2659:2679  absTick & 0x800 != 0 */\n      eq\n        /* \"src/lib/TickMath.sol\":2655:2740  if (absTick & 0x800 != 0) ratio = (ratio * 0xe7159475a2c29b7443b29c7fa6e889d9) >> 128 */\n      tag_174\n      jumpi\n        /* \"src/lib/TickMath.sol\":2737:2740  128 */\n      0x80\n        /* \"src/lib/TickMath.sol\":2698:2732  0xe7159475a2c29b7443b29c7fa6e889d9 */\n      0xe7159475a2c29b7443b29c7fa6e889d9\n        /* \"src/lib/TickMath.sol\":2690:2695  ratio */\n      dup3\n        /* \"src/lib/TickMath.sol\":2690:2732  ratio * 0xe7159475a2c29b7443b29c7fa6e889d9 */\n      tag_175\n      swap2\n      swap1\n      tag_155\n      jump\t// in\n    tag_175:\n        /* \"src/lib/TickMath.sol\":2689:2740  (ratio * 0xe7159475a2c29b7443b29c7fa6e889d9) >> 128 */\n      swap1\n      shr\n        /* \"src/lib/TickMath.sol\":2681:2740  ratio = (ratio * 0xe7159475a2c29b7443b29c7fa6e889d9) >> 128 */\n      swap1\n      pop\n        /* \"src/lib/TickMath.sol\":2655:2740  if (absTick & 0x800 != 0) ratio = (ratio * 0xe7159475a2c29b7443b29c7fa6e889d9) >> 128 */\n    tag_174:\n        /* \"src/lib/TickMath.sol\":2774:2775  0 */\n      0x00\n        /* \"src/lib/TickMath.sol\":2764:2770  0x1000 */\n      0x1000\n        /* \"src/lib/TickMath.sol\":2754:2761  absTick */\n      dup4\n        /* \"src/lib/TickMath.sol\":2754:2770  absTick & 0x1000 */\n      and\n        /* \"src/lib/TickMath.sol\":2754:2775  absTick & 0x1000 != 0 */\n      eq\n        /* \"src/lib/TickMath.sol\":2750:2836  if (absTick & 0x1000 != 0) ratio = (ratio * 0xd097f3bdfd2022b8845ad8f792aa5825) >> 128 */\n      tag_176\n      jumpi\n        /* \"src/lib/TickMath.sol\":2833:2836  128 */\n      0x80\n        /* \"src/lib/TickMath.sol\":2794:2828  0xd097f3bdfd2022b8845ad8f792aa5825 */\n      0xd097f3bdfd2022b8845ad8f792aa5825\n        /* \"src/lib/TickMath.sol\":2786:2791  ratio */\n      dup3\n        /* \"src/lib/TickMath.sol\":2786:2828  ratio * 0xd097f3bdfd2022b8845ad8f792aa5825 */\n      tag_177\n      swap2\n      swap1\n      tag_155\n      jump\t// in\n    tag_177:\n        /* \"src/lib/TickMath.sol\":2785:2836  (ratio * 0xd097f3bdfd2022b8845ad8f792aa5825) >> 128 */\n      swap1\n      shr\n        /* \"src/lib/TickMath.sol\":2777:2836  ratio = (ratio * 0xd097f3bdfd2022b8845ad8f792aa5825) >> 128 */\n      swap1\n      pop\n        /* \"src/lib/TickMath.sol\":2750:2836  if (absTick & 0x1000 != 0) ratio = (ratio * 0xd097f3bdfd2022b8845ad8f792aa5825) >> 128 */\n    tag_176:\n        /* \"src/lib/TickMath.sol\":2870:2871  0 */\n      0x00\n        /* \"src/lib/TickMath.sol\":2860:2866  0x2000 */\n      0x2000\n        /* \"src/lib/TickMath.sol\":2850:2857  absTick */\n      dup4\n        /* \"src/lib/TickMath.sol\":2850:2866  absTick & 0x2000 */\n      and\n        /* \"src/lib/TickMath.sol\":2850:2871  absTick & 0x2000 != 0 */\n      eq\n        /* \"src/lib/TickMath.sol\":2846:2932  if (absTick & 0x2000 != 0) ratio = (ratio * 0xa9f746462d870fdf8a65dc1f90e061e5) >> 128 */\n      tag_178\n      jumpi\n        /* \"src/lib/TickMath.sol\":2929:2932  128 */\n      0x80\n        /* \"src/lib/TickMath.sol\":2890:2924  0xa9f746462d870fdf8a65dc1f90e061e5 */\n      0xa9f746462d870fdf8a65dc1f90e061e5\n        /* \"src/lib/TickMath.sol\":2882:2887  ratio */\n      dup3\n        /* \"src/lib/TickMath.sol\":2882:2924  ratio * 0xa9f746462d870fdf8a65dc1f90e061e5 */\n      tag_179\n      swap2\n      swap1\n      tag_155\n      jump\t// in\n    tag_179:\n        /* \"src/lib/TickMath.sol\":2881:2932  (ratio * 0xa9f746462d870fdf8a65dc1f90e061e5) >> 128 */\n      swap1\n      shr\n        /* \"src/lib/TickMath.sol\":2873:2932  ratio = (ratio * 0xa9f746462d870fdf8a65dc1f90e061e5) >> 128 */\n      swap1\n      pop\n        /* \"src/lib/TickMath.sol\":2846:2932  if (absTick & 0x2000 != 0) ratio = (ratio * 0xa9f746462d870fdf8a65dc1f90e061e5) >> 128 */\n    tag_178:\n        /* \"src/lib/TickMath.sol\":2966:2967  0 */\n      0x00\n        /* \"src/lib/TickMath.sol\":2956:2962  0x4000 */\n      0x4000\n        /* \"src/lib/TickMath.sol\":2946:2953  absTick */\n      dup4\n        /* \"src/lib/TickMath.sol\":2946:2962  absTick & 0x4000 */\n      and\n        /* \"src/lib/TickMath.sol\":2946:2967  absTick & 0x4000 != 0 */\n      eq\n        /* \"src/lib/TickMath.sol\":2942:3028  if (absTick & 0x4000 != 0) ratio = (ratio * 0x70d869a156d2a1b890bb3df62baf32f7) >> 128 */\n      tag_180\n      jumpi\n        /* \"src/lib/TickMath.sol\":3025:3028  128 */\n      0x80\n        /* \"src/lib/TickMath.sol\":2986:3020  0x70d869a156d2a1b890bb3df62baf32f7 */\n      0x70d869a156d2a1b890bb3df62baf32f7\n        /* \"src/lib/TickMath.sol\":2978:2983  ratio */\n      dup3\n        /* \"src/lib/TickMath.sol\":2978:3020  ratio * 0x70d869a156d2a1b890bb3df62baf32f7 */\n      tag_181\n      swap2\n      swap1\n      tag_155\n      jump\t// in\n    tag_181:\n        /* \"src/lib/TickMath.sol\":2977:3028  (ratio * 0x70d869a156d2a1b890bb3df62baf32f7) >> 128 */\n      swap1\n      shr\n        /* \"src/lib/TickMath.sol\":2969:3028  ratio = (ratio * 0x70d869a156d2a1b890bb3df62baf32f7) >> 128 */\n      swap1\n      pop\n        /* \"src/lib/TickMath.sol\":2942:3028  if (absTick & 0x4000 != 0) ratio = (ratio * 0x70d869a156d2a1b890bb3df62baf32f7) >> 128 */\n    tag_180:\n        /* \"src/lib/TickMath.sol\":3062:3063  0 */\n      0x00\n        /* \"src/lib/TickMath.sol\":3052:3058  0x8000 */\n      0x8000\n        /* \"src/lib/TickMath.sol\":3042:3049  absTick */\n      dup4\n        /* \"src/lib/TickMath.sol\":3042:3058  absTick & 0x8000 */\n      and\n        /* \"src/lib/TickMath.sol\":3042:3063  absTick & 0x8000 != 0 */\n      eq\n        /* \"src/lib/TickMath.sol\":3038:3124  if (absTick & 0x8000 != 0) ratio = (ratio * 0x31be135f97d08fd981231505542fcfa6) >> 128 */\n      tag_182\n      jumpi\n        /* \"src/lib/TickMath.sol\":3121:3124  128 */\n      0x80\n        /* \"src/lib/TickMath.sol\":3082:3116  0x31be135f97d08fd981231505542fcfa6 */\n      0x31be135f97d08fd981231505542fcfa6\n        /* \"src/lib/TickMath.sol\":3074:3079  ratio */\n      dup3\n        /* \"src/lib/TickMath.sol\":3074:3116  ratio * 0x31be135f97d08fd981231505542fcfa6 */\n      tag_183\n      swap2\n      swap1\n      tag_155\n      jump\t// in\n    tag_183:\n        /* \"src/lib/TickMath.sol\":3073:3124  (ratio * 0x31be135f97d08fd981231505542fcfa6) >> 128 */\n      swap1\n      shr\n        /* \"src/lib/TickMath.sol\":3065:3124  ratio = (ratio * 0x31be135f97d08fd981231505542fcfa6) >> 128 */\n      swap1\n      pop\n        /* \"src/lib/TickMath.sol\":3038:3124  if (absTick & 0x8000 != 0) ratio = (ratio * 0x31be135f97d08fd981231505542fcfa6) >> 128 */\n    tag_182:\n        /* \"src/lib/TickMath.sol\":3159:3160  0 */\n      0x00\n        /* \"src/lib/TickMath.sol\":3148:3155  0x10000 */\n      0x010000\n        /* \"src/lib/TickMath.sol\":3138:3145  absTick */\n      dup4\n        /* \"src/lib/TickMath.sol\":3138:3155  absTick & 0x10000 */\n      and\n        /* \"src/lib/TickMath.sol\":3138:3160  absTick & 0x10000 != 0 */\n      eq\n        /* \"src/lib/TickMath.sol\":3134:3220  if (absTick & 0x10000 != 0) ratio = (ratio * 0x9aa508b5b7a84e1c677de54f3e99bc9) >> 128 */\n      tag_184\n      jumpi\n        /* \"src/lib/TickMath.sol\":3217:3220  128 */\n      0x80\n        /* \"src/lib/TickMath.sol\":3179:3212  0x9aa508b5b7a84e1c677de54f3e99bc9 */\n      0x09aa508b5b7a84e1c677de54f3e99bc9\n        /* \"src/lib/TickMath.sol\":3171:3176  ratio */\n      dup3\n        /* \"src/lib/TickMath.sol\":3171:3212  ratio * 0x9aa508b5b7a84e1c677de54f3e99bc9 */\n      tag_185\n      swap2\n      swap1\n      tag_155\n      jump\t// in\n    tag_185:\n        /* \"src/lib/TickMath.sol\":3170:3220  (ratio * 0x9aa508b5b7a84e1c677de54f3e99bc9) >> 128 */\n      swap1\n      shr\n        /* \"src/lib/TickMath.sol\":3162:3220  ratio = (ratio * 0x9aa508b5b7a84e1c677de54f3e99bc9) >> 128 */\n      swap1\n      pop\n        /* \"src/lib/TickMath.sol\":3134:3220  if (absTick & 0x10000 != 0) ratio = (ratio * 0x9aa508b5b7a84e1c677de54f3e99bc9) >> 128 */\n    tag_184:\n        /* \"src/lib/TickMath.sol\":3255:3256  0 */\n      0x00\n        /* \"src/lib/TickMath.sol\":3244:3251  0x20000 */\n      0x020000\n        /* \"src/lib/TickMath.sol\":3234:3241  absTick */\n      dup4\n        /* \"src/lib/TickMath.sol\":3234:3251  absTick & 0x20000 */\n      and\n        /* \"src/lib/TickMath.sol\":3234:3256  absTick & 0x20000 != 0 */\n      eq\n        /* \"src/lib/TickMath.sol\":3230:3315  if (absTick & 0x20000 != 0) ratio = (ratio * 0x5d6af8dedb81196699c329225ee604) >> 128 */\n      tag_186\n      jumpi\n        /* \"src/lib/TickMath.sol\":3312:3315  128 */\n      0x80\n        /* \"src/lib/TickMath.sol\":3275:3307  0x5d6af8dedb81196699c329225ee604 */\n      0x5d6af8dedb81196699c329225ee604\n        /* \"src/lib/TickMath.sol\":3267:3272  ratio */\n      dup3\n        /* \"src/lib/TickMath.sol\":3267:3307  ratio * 0x5d6af8dedb81196699c329225ee604 */\n      tag_187\n      swap2\n      swap1\n      tag_155\n      jump\t// in\n    tag_187:\n        /* \"src/lib/TickMath.sol\":3266:3315  (ratio * 0x5d6af8dedb81196699c329225ee604) >> 128 */\n      swap1\n      shr\n        /* \"src/lib/TickMath.sol\":3258:3315  ratio = (ratio * 0x5d6af8dedb81196699c329225ee604) >> 128 */\n      swap1\n      pop\n        /* \"src/lib/TickMath.sol\":3230:3315  if (absTick & 0x20000 != 0) ratio = (ratio * 0x5d6af8dedb81196699c329225ee604) >> 128 */\n    tag_186:\n        /* \"src/lib/TickMath.sol\":3350:3351  0 */\n      0x00\n        /* \"src/lib/TickMath.sol\":3339:3346  0x40000 */\n      0x040000\n        /* \"src/lib/TickMath.sol\":3329:3336  absTick */\n      dup4\n        /* \"src/lib/TickMath.sol\":3329:3346  absTick & 0x40000 */\n      and\n        /* \"src/lib/TickMath.sol\":3329:3351  absTick & 0x40000 != 0 */\n      eq\n        /* \"src/lib/TickMath.sol\":3325:3408  if (absTick & 0x40000 != 0) ratio = (ratio * 0x2216e584f5fa1ea926041bedfe98) >> 128 */\n      tag_188\n      jumpi\n        /* \"src/lib/TickMath.sol\":3405:3408  128 */\n      0x80\n        /* \"src/lib/TickMath.sol\":3370:3400  0x2216e584f5fa1ea926041bedfe98 */\n      0x2216e584f5fa1ea926041bedfe98\n        /* \"src/lib/TickMath.sol\":3362:3367  ratio */\n      dup3\n        /* \"src/lib/TickMath.sol\":3362:3400  ratio * 0x2216e584f5fa1ea926041bedfe98 */\n      tag_189\n      swap2\n      swap1\n      tag_155\n      jump\t// in\n    tag_189:\n        /* \"src/lib/TickMath.sol\":3361:3408  (ratio * 0x2216e584f5fa1ea926041bedfe98) >> 128 */\n      swap1\n      shr\n        /* \"src/lib/TickMath.sol\":3353:3408  ratio = (ratio * 0x2216e584f5fa1ea926041bedfe98) >> 128 */\n      swap1\n      pop\n        /* \"src/lib/TickMath.sol\":3325:3408  if (absTick & 0x40000 != 0) ratio = (ratio * 0x2216e584f5fa1ea926041bedfe98) >> 128 */\n    tag_188:\n        /* \"src/lib/TickMath.sol\":3443:3444  0 */\n      0x00\n        /* \"src/lib/TickMath.sol\":3432:3439  0x80000 */\n      0x080000\n        /* \"src/lib/TickMath.sol\":3422:3429  absTick */\n      dup4\n        /* \"src/lib/TickMath.sol\":3422:3439  absTick & 0x80000 */\n      and\n        /* \"src/lib/TickMath.sol\":3422:3444  absTick & 0x80000 != 0 */\n      eq\n        /* \"src/lib/TickMath.sol\":3418:3496  if (absTick & 0x80000 != 0) ratio = (ratio * 0x48a170391f7dc42444e8fa2) >> 128 */\n      tag_190\n      jumpi\n        /* \"src/lib/TickMath.sol\":3493:3496  128 */\n      0x80\n        /* \"src/lib/TickMath.sol\":3463:3488  0x48a170391f7dc42444e8fa2 */\n      0x048a170391f7dc42444e8fa2\n        /* \"src/lib/TickMath.sol\":3455:3460  ratio */\n      dup3\n        /* \"src/lib/TickMath.sol\":3455:3488  ratio * 0x48a170391f7dc42444e8fa2 */\n      tag_191\n      swap2\n      swap1\n      tag_155\n      jump\t// in\n    tag_191:\n        /* \"src/lib/TickMath.sol\":3454:3496  (ratio * 0x48a170391f7dc42444e8fa2) >> 128 */\n      swap1\n      shr\n        /* \"src/lib/TickMath.sol\":3446:3496  ratio = (ratio * 0x48a170391f7dc42444e8fa2) >> 128 */\n      swap1\n      pop\n        /* \"src/lib/TickMath.sol\":3418:3496  if (absTick & 0x80000 != 0) ratio = (ratio * 0x48a170391f7dc42444e8fa2) >> 128 */\n    tag_190:\n        /* \"src/lib/TickMath.sol\":3518:3519  0 */\n      0x00\n        /* \"src/lib/TickMath.sol\":3511:3515  tick */\n      dup5\n        /* \"src/lib/TickMath.sol\":3511:3519  tick > 0 */\n      0x02\n      signextend\n      sgt\n        /* \"src/lib/TickMath.sol\":3507:3554  if (tick > 0) ratio = type(uint256).max / ratio */\n      iszero\n      tag_192\n      jumpi\n        /* \"src/lib/TickMath.sol\":3549:3554  ratio */\n      dup1\n        /* \"src/lib/TickMath.sol\":3529:3546  type(uint256).max */\n      0xffffffffffffffffffffffffffffffffffffffffffffffffffffffffffffffff\n        /* \"src/lib/TickMath.sol\":3529:3554  type(uint256).max / ratio */\n      tag_193\n      swap2\n      swap1\n      tag_194\n      jump\t// in\n    tag_193:\n        /* \"src/lib/TickMath.sol\":3521:3554  ratio = type(uint256).max / ratio */\n      swap1\n      pop\n        /* \"src/lib/TickMath.sol\":3507:3554  if (tick > 0) ratio = type(uint256).max / ratio */\n    tag_192:\n        /* \"src/lib/TickMath.sol\":3925:3926  0 */\n      0x00\n        /* \"src/lib/TickMath.sol\":3913:3920  1 << 32 */\n      0x0100000000\n        /* \"src/lib/TickMath.sol\":3904:3909  ratio */\n      dup3\n        /* \"src/lib/TickMath.sol\":3904:3921  ratio % (1 << 32) */\n      tag_195\n      swap2\n      swap1\n      tag_196\n      jump\t// in\n    tag_195:\n        /* \"src/lib/TickMath.sol\":3904:3926  ratio % (1 << 32) == 0 */\n      eq\n        /* \"src/lib/TickMath.sol\":3904:3934  ratio % (1 << 32) == 0 ? 0 : 1 */\n      tag_197\n      jumpi\n        /* \"src/lib/TickMath.sol\":3933:3934  1 */\n      0x01\n        /* \"src/lib/TickMath.sol\":3904:3934  ratio % (1 << 32) == 0 ? 0 : 1 */\n      jump(tag_198)\n    tag_197:\n        /* \"src/lib/TickMath.sol\":3929:3930  0 */\n      0x00\n        /* \"src/lib/TickMath.sol\":3904:3934  ratio % (1 << 32) == 0 ? 0 : 1 */\n    tag_198:\n        /* \"src/lib/TickMath.sol\":3887:3935  (ratio >> 32) + (ratio % (1 << 32) == 0 ? 0 : 1) */\n      0xff\n      and\n        /* \"src/lib/TickMath.sol\":3897:3899  32 */\n      0x20\n        /* \"src/lib/TickMath.sol\":3888:3893  ratio */\n      dup3\n        /* \"src/lib/TickMath.sol\":3888:3899  ratio >> 32 */\n      swap1\n      shr\n        /* \"src/lib/TickMath.sol\":3887:3935  (ratio >> 32) + (ratio % (1 << 32) == 0 ? 0 : 1) */\n      tag_199\n      swap2\n      swap1\n      tag_99\n      jump\t// in\n    tag_199:\n        /* \"src/lib/TickMath.sol\":3864:3936  sqrtPriceX96 = uint160((ratio >> 32) + (ratio % (1 << 32) == 0 ? 0 : 1)) */\n      swap3\n      pop\n        /* \"src/lib/TickMath.sol\":1440:3943  {... */\n      pop\n      pop\n        /* \"src/lib/TickMath.sol\":1355:3943  function getSqrtRatioAtTick(int24 tick) internal pure returns (uint160 sqrtPriceX96) {... */\n      swap2\n      swap1\n      pop\n      jump\t// out\n        /* \"src/lib/Math.sol\":245:830  function calcAmount0Delta(... */\n    tag_79:\n        /* \"src/lib/Math.sol\":389:404  uint256 amount0 */\n      0x00\n        /* \"src/lib/Math.sol\":436:449  sqrtPriceBX96 */\n      dup3\n        /* \"src/lib/Math.sol\":420:449  sqrtPriceAX96 > sqrtPriceBX96 */\n      0xffffffffffffffffffffffffffffffffffffffff\n      and\n        /* \"src/lib/Math.sol\":420:433  sqrtPriceAX96 */\n      dup5\n        /* \"src/lib/Math.sol\":420:449  sqrtPriceAX96 > sqrtPriceBX96 */\n      0xffffffffffffffffffffffffffffffffffffffff\n      and\n      gt\n        /* \"src/lib/Math.sol\":416:526  if (sqrtPriceAX96 > sqrtPriceBX96)... */\n      iszero\n      tag_201\n      jumpi\n        /* \"src/lib/Math.sol\":497:510  sqrtPriceBX96 */\n      dup3\n        /* \"src/lib/Math.sol\":512:525  sqrtPriceAX96 */\n      dup5\n        /* \"src/lib/Math.sol\":463:526  (sqrtPriceAX96, sqrtPriceBX96) = (sqrtPriceBX96, sqrtPriceAX96) */\n      dup1\n      swap5\n      pop\n      dup2\n      swap6\n      pop\n      pop\n      pop\n        /* \"src/lib/Math.sol\":416:526  if (sqrtPriceAX96 > sqrtPriceBX96)... */\n    tag_201:\n        /* \"src/lib/Math.sol\":561:562  0 */\n      0x00\n        /* \"src/lib/Math.sol\":545:558  sqrtPriceAX96 */\n      dup5\n        /* \"src/lib/Math.sol\":545:562  sqrtPriceAX96 > 0 */\n      0xffffffffffffffffffffffffffffffffffffffff\n      and\n      gt\n        /* \"src/lib/Math.sol\":537:563  require(sqrtPriceAX96 > 0) */\n      tag_202\n      jumpi\n      revert(0x00, 0x00)\n    tag_202:\n        /* \"src/lib/Math.sol\":584:823  divRoundingUp(... */\n      tag_203\n        /* \"src/lib/Math.sol\":611:786  mulDivRoundingUp(... */\n      tag_204\n        /* \"src/lib/FixedPoint96.sol\":135:137  96 */\n      0x60\n        /* \"src/lib/Math.sol\":646:691  uint256(liquidity) << FixedPoint96.RESOLUTION */\n      0xff\n      and\n        /* \"src/lib/Math.sol\":654:663  liquidity */\n      dup5\n        /* \"src/lib/Math.sol\":646:664  uint256(liquidity) */\n      0xffffffffffffffffffffffffffffffff\n      and\n        /* \"src/lib/Math.sol\":646:691  uint256(liquidity) << FixedPoint96.RESOLUTION */\n      swap1\n      shl\n        /* \"src/lib/Math.sol\":727:740  sqrtPriceAX96 */\n      dup7\n        /* \"src/lib/Math.sol\":711:724  sqrtPriceBX96 */\n      dup7\n        /* \"src/lib/Math.sol\":711:740  sqrtPriceBX96 - sqrtPriceAX96 */\n      tag_205\n      swap2\n      swap1\n      tag_206\n      jump\t// in\n    tag_205:\n        /* \"src/lib/Math.sol\":611:786  mulDivRoundingUp(... */\n      0xffffffffffffffffffffffffffffffffffffffff\n      and\n        /* \"src/lib/Math.sol\":759:772  sqrtPriceBX96 */\n      dup7\n        /* \"src/lib/Math.sol\":611:786  mulDivRoundingUp(... */\n      0xffffffffffffffffffffffffffffffffffffffff\n      and\n        /* \"src/lib/Math.sol\":611:627  mulDivRoundingUp */\n      tag_207\n        /* \"src/lib/Math.sol\":611:786  mulDivRoundingUp(... */\n      jump\t// in\n    tag_204:\n        /* \"src/lib/Math.sol\":800:813  sqrtPriceAX96 */\n      dup6\n        /* \"src/lib/Math.sol\":584:823  divRoundingUp(... */\n      0xffffffffffffffffffffffffffffffffffffffff\n      and\n        /* \"src/lib/Math.sol\":584:597  divRoundingUp */\n      tag_208\n        /* \"src/lib/Math.sol\":584:823  divRoundingUp(... */\n      jump\t// in\n    tag_203:\n        /* \"src/lib/Math.sol\":574:823  amount0 = divRoundingUp(... */\n      swap1\n      pop\n        /* \"src/lib/Math.sol\":245:830  function calcAmount0Delta(... */\n      swap4\n      swap3\n      pop\n      pop\n      pop\n      jump\t// out\n        /* \"src/lib/Math.sol\":945:1378  function calcAmount1Delta(... */\n    tag_82:\n        /* \"src/lib/Math.sol\":1089:1104  uint256 amount1 */\n      0x00\n        /* \"src/lib/Math.sol\":1136:1149  sqrtPriceBX96 */\n      dup3\n        /* \"src/lib/Math.sol\":1120:1149  sqrtPriceAX96 > sqrtPriceBX96 */\n      0xffffffffffffffffffffffffffffffffffffffff\n      and\n        /* \"src/lib/Math.sol\":1120:1133  sqrtPriceAX96 */\n      dup5\n        /* \"src/lib/Math.sol\":1120:1149  sqrtPriceAX96 > sqrtPriceBX96 */\n      0xffffffffffffffffffffffffffffffffffffffff\n      and\n      gt\n        /* \"src/lib/Math.sol\":1116:1226  if (sqrtPriceAX96 > sqrtPriceBX96)... */\n      iszero\n      tag_210\n      jumpi\n        /* \"src/lib/Math.sol\":1197:1210  sqrtPriceBX96 */\n      dup3\n        /* \"src/lib/Math.sol\":1212:1225  sqrtPriceAX96 */\n      dup5\n        /* \"src/lib/Math.sol\":1163:1226  (sqrtPriceAX96, sqrtPriceBX96) = (sqrtPriceBX96, sqrtPriceAX96) */\n      dup1\n      swap5\n      pop\n      dup2\n      swap6\n      pop\n      pop\n      pop\n        /* \"src/lib/Math.sol\":1116:1226  if (sqrtPriceAX96 > sqrtPriceBX96)... */\n    tag_210:\n        /* \"src/lib/Math.sol\":1247:1371  mulDivRoundingUp(... */\n      tag_211\n        /* \"src/lib/Math.sol\":1277:1286  liquidity */\n      dup3\n        /* \"src/lib/Math.sol\":1247:1371  mulDivRoundingUp(... */\n      0xffffffffffffffffffffffffffffffff\n      and\n        /* \"src/lib/Math.sol\":1317:1330  sqrtPriceAX96 */\n      dup6\n        /* \"src/lib/Math.sol\":1301:1314  sqrtPriceBX96 */\n      dup6\n        /* \"src/lib/Math.sol\":1301:1330  sqrtPriceBX96 - sqrtPriceAX96 */\n      tag_212\n      swap2\n      swap1\n      tag_206\n      jump\t// in\n    tag_212:\n        /* \"src/lib/Math.sol\":1247:1371  mulDivRoundingUp(... */\n      0xffffffffffffffffffffffffffffffffffffffff\n      and\n        /* \"src/lib/FixedPoint96.sol\":175:180  2**96 */\n      0x01000000000000000000000000\n        /* \"src/lib/Math.sol\":1247:1263  mulDivRoundingUp */\n      tag_207\n        /* \"src/lib/Math.sol\":1247:1371  mulDivRoundingUp(... */\n      jump\t// in\n    tag_211:\n        /* \"src/lib/Math.sol\":1237:1371  amount1 = mulDivRoundingUp(... */\n      swap1\n      pop\n        /* \"src/lib/Math.sol\":945:1378  function calcAmount1Delta(... */\n      swap4\n      swap3\n      pop\n      pop\n      pop\n      jump\t// out\n        /* \"src/UniswapV3Pool.sol\":4724:4852  function balance0() internal view returns (uint256 balance) {... */\n    tag_87:\n        /* \"src/UniswapV3Pool.sol\":4767:4782  uint256 balance */\n      0x00\n        /* \"src/UniswapV3Pool.sol\":4812:4818  token0 */\n      immutable(\"0x59c0d2b7af0a8e6d3d8e710a078764bd67b7223777026c424cdb4f599824bb79\")\n        /* \"src/UniswapV3Pool.sol\":4805:4829  IERC20(token0).balanceOf */\n      0xffffffffffffffffffffffffffffffffffffffff\n      and\n      0x70a08231\n        /* \"src/UniswapV3Pool.sol\":4838:4842  this */\n      address\n        /* \"src/UniswapV3Pool.sol\":4805:4844  IERC20(token0).balanceOf(address(this)) */\n      mload(0x40)\n      dup3\n      0xffffffff\n      and\n      0xe0\n      shl\n      dup2\n      mstore\n      0x04\n      add\n      tag_214\n      swap2\n      swap1\n      tag_16\n      jump\t// in\n    tag_214:\n      0x20\n      mload(0x40)\n      dup1\n      dup4\n      sub\n      dup2\n      dup7\n      gas\n      staticcall\n      iszero\n      dup1\n      iszero\n      tag_216\n      jumpi\n      returndatacopy(0x00, 0x00, returndatasize)\n      revert(0x00, returndatasize)\n    tag_216:\n      pop\n      pop\n      pop\n      pop\n      mload(0x40)\n      returndatasize\n      not(0x1f)\n      0x1f\n      dup3\n      add\n      and\n      dup3\n      add\n      dup1\n      0x40\n      mstore\n      pop\n      dup2\n      add\n      swap1\n      tag_217\n      swap2\n      swap1\n      tag_218\n      jump\t// in\n    tag_217:\n        /* \"src/UniswapV3Pool.sol\":4795:4844  balance = IERC20(token0).balanceOf(address(this)) */\n      swap1\n      pop\n        /* \"src/UniswapV3Pool.sol\":4724:4852  function balance0() internal view returns (uint256 balance) {... */\n      swap1\n      jump\t// out\n        /* \"src/UniswapV3Pool.sol\":4881:5009  function balance1() internal view returns (uint256 balance) {... */\n    tag_90:\n        /* \"src/UniswapV3Pool.sol\":4924:4939  uint256 balance */\n      0x00\n        /* \"src/UniswapV3Pool.sol\":4969:4975  token1 */\n      immutable(\"0xf928ede1c39c5595ff22fe845412ee05a93eeaa584f8ef0c46b5eeb14cb99ec8\")\n        /* \"src/UniswapV3Pool.sol\":4962:4986  IERC20(token1).balanceOf */\n      0xffffffffffffffffffffffffffffffffffffffff\n      and\n      0x70a08231\n        /* \"src/UniswapV3Pool.sol\":4995:4999  this */\n      address\n        /* \"src/UniswapV3Pool.sol\":4962:5001  IERC20(token1).balanceOf(address(this)) */\n      mload(0x40)\n      dup3\n      0xffffffff\n      and\n      0xe0\n      shl\n      dup2\n      mstore\n      0x04\n      add\n      tag_220\n      swap2\n      swap1\n      tag_16\n      jump\t// in\n    tag_220:\n      0x20\n      mload(0x40)\n      dup1\n      dup4\n      sub\n      dup2\n      dup7\n      gas\n      staticcall\n      iszero\n      dup1\n      iszero\n      tag_222\n      jumpi\n      returndatacopy(0x00, 0x00, returndatasize)\n      revert(0x00, returndatasize)\n    tag_222:\n      pop\n      pop\n      pop\n      pop\n      mload(0x40)\n      returndatasize\n      not(0x1f)\n      0x1f\n      dup3\n      add\n      and\n      dup3\n      add\n      dup1\n      0x40\n      mstore\n      pop\n      dup2\n      add\n      swap1\n      tag_223\n      swap2\n      swap1\n      tag_218\n      jump\t// in\n    tag_223:\n        /* \"src/UniswapV3Pool.sol\":4952:5001  balance = IERC20(token1).balanceOf(address(this)) */\n      swap1\n      pop\n        /* \"src/UniswapV3Pool.sol\":4881:5009  function balance1() internal view returns (uint256 balance) {... */\n      swap1\n      jump\t// out\n        /* \"src/lib/TickBitmap.sol\":686:854  function position(int24 tick) private pure returns (int16 wordPos, uint8 bitPos) {... */\n    tag_137:\n        /* \"src/lib/TickBitmap.sol\":738:751  int16 wordPos */\n      0x00\n        /* \"src/lib/TickBitmap.sol\":753:765  uint8 bitPos */\n      0x00\n        /* \"src/lib/TickBitmap.sol\":801:802  8 */\n      0x08\n        /* \"src/lib/TickBitmap.sol\":793:797  tick */\n      dup4\n        /* \"src/lib/TickBitmap.sol\":793:802  tick >> 8 */\n      0x02\n      signextend\n      swap1\n      sar\n        /* \"src/lib/TickBitmap.sol\":777:803  wordPos = int16(tick >> 8) */\n      swap2\n      pop\n        /* \"src/lib/TickBitmap.sol\":842:845  256 */\n      0x0100\n        /* \"src/lib/TickBitmap.sol\":835:839  tick */\n      dup4\n        /* \"src/lib/TickBitmap.sol\":835:845  tick % 256 */\n      tag_225\n      swap2\n      swap1\n      tag_132\n      jump\t// in\n    tag_225:\n        /* \"src/lib/TickBitmap.sol\":813:847  bitPos = uint8(uint24(tick % 256)) */\n      swap1\n      pop\n        /* \"src/lib/TickBitmap.sol\":686:854  function position(int24 tick) private pure returns (int16 wordPos, uint8 bitPos) {... */\n      swap2\n      pop\n      swap2\n      jump\t// out\n        /* \"src/lib/Math.sol\":3124:3447  function mulDivRoundingUp(... */\n    tag_207:\n        /* \"src/lib/Math.sol\":3246:3260  uint256 result */\n      0x00\n        /* \"src/lib/Math.sol\":3281:3314  PRBMath.mulDiv(a, b, denominator) */\n      tag_227\n        /* \"src/lib/Math.sol\":3296:3297  a */\n      dup5\n        /* \"src/lib/Math.sol\":3299:3300  b */\n      dup5\n        /* \"src/lib/Math.sol\":3302:3313  denominator */\n      dup5\n        /* \"src/lib/Math.sol\":3281:3295  PRBMath.mulDiv */\n      tag_228\n        /* \"src/lib/Math.sol\":3281:3314  PRBMath.mulDiv(a, b, denominator) */\n      jump\t// in\n    tag_227:\n        /* \"src/lib/Math.sol\":3272:3314  result = PRBMath.mulDiv(a, b, denominator) */\n      swap1\n      pop\n        /* \"src/lib/Math.sol\":3356:3357  0 */\n      0x00\n        /* \"src/lib/Math.sol\":3341:3352  denominator */\n      dup3\n        /* \"src/lib/Math.sol\":3328:3353  mulmod(a, b, denominator) */\n      dup1\n      tag_229\n      jumpi\n      tag_230\n      tag_231\n      jump\t// in\n    tag_230:\n    tag_229:\n        /* \"src/lib/Math.sol\":3338:3339  b */\n      dup5\n        /* \"src/lib/Math.sol\":3335:3336  a */\n      dup7\n        /* \"src/lib/Math.sol\":3328:3353  mulmod(a, b, denominator) */\n      mulmod\n        /* \"src/lib/Math.sol\":3328:3357  mulmod(a, b, denominator) > 0 */\n      gt\n        /* \"src/lib/Math.sol\":3324:3441  if (mulmod(a, b, denominator) > 0) {... */\n      iszero\n      tag_232\n      jumpi\n        /* \"src/lib/Math.sol\":3390:3407  type(uint256).max */\n      0xffffffffffffffffffffffffffffffffffffffffffffffffffffffffffffffff\n        /* \"src/lib/Math.sol\":3381:3387  result */\n      dup2\n        /* \"src/lib/Math.sol\":3381:3407  result < type(uint256).max */\n      lt\n        /* \"src/lib/Math.sol\":3373:3408  require(result < type(uint256).max) */\n      tag_233\n      jumpi\n      revert(0x00, 0x00)\n    tag_233:\n        /* \"src/lib/Math.sol\":3422:3430  result++ */\n      dup1\n      dup1\n      tag_234\n      swap1\n      tag_235\n      jump\t// in\n    tag_234:\n      swap2\n      pop\n      pop\n        /* \"src/lib/Math.sol\":3324:3441  if (mulmod(a, b, denominator) > 0) {... */\n    tag_232:\n        /* \"src/lib/Math.sol\":3124:3447  function mulDivRoundingUp(... */\n      swap4\n      swap3\n      pop\n      pop\n      pop\n      jump\t// out\n        /* \"src/lib/Math.sol\":3453:3756  function divRoundingUp(uint256 numerator, uint256 denominator)... */\n    tag_208:\n        /* \"src/lib/Math.sol\":3563:3577  uint256 result */\n      0x00\n        /* \"src/lib/Math.sol\":3724:3725  0 */\n      0x00\n        /* \"src/lib/Math.sol\":3710:3721  denominator */\n      dup3\n        /* \"src/lib/Math.sol\":3699:3708  numerator */\n      dup5\n        /* \"src/lib/Math.sol\":3695:3722  mod(numerator, denominator) */\n      mod\n        /* \"src/lib/Math.sol\":3692:3726  gt(mod(numerator, denominator), 0) */\n      gt\n        /* \"src/lib/Math.sol\":3662:3673  denominator */\n      dup3\n        /* \"src/lib/Math.sol\":3651:3660  numerator */\n      dup5\n        /* \"src/lib/Math.sol\":3647:3674  div(numerator, denominator) */\n      div\n        /* \"src/lib/Math.sol\":3626:3740  add(... */\n      add\n        /* \"src/lib/Math.sol\":3616:3740  result := add(... */\n      swap1\n      pop\n        /* \"src/lib/Math.sol\":3453:3756  function divRoundingUp(uint256 numerator, uint256 denominator)... */\n      swap3\n      swap2\n      pop\n      pop\n      jump\t// out\n        /* \"src/lib/PRBMath.sol\":1169:3554  function mulDiv(... */\n    tag_228:\n        /* \"src/lib/PRBMath.sol\":1285:1299  uint256 result */\n      0x00\n        /* \"src/lib/PRBMath.sol\":1392:1405  uint256 prod0 */\n      0x00\n        /* \"src/lib/PRBMath.sol\":1465:1478  uint256 prod1 */\n      0x00\n        /* \"src/lib/PRBMath.sol\":1594:1595  0 */\n      0x00\n        /* \"src/lib/PRBMath.sol\":1590:1596  not(0) */\n      not\n        /* \"src/lib/PRBMath.sol\":1587:1588  y */\n      dup6\n        /* \"src/lib/PRBMath.sol\":1584:1585  x */\n      dup8\n        /* \"src/lib/PRBMath.sol\":1577:1597  mulmod(x, y, not(0)) */\n      mulmod\n        /* \"src/lib/PRBMath.sol\":1631:1632  y */\n      dup6\n        /* \"src/lib/PRBMath.sol\":1628:1629  x */\n      dup8\n        /* \"src/lib/PRBMath.sol\":1624:1633  mul(x, y) */\n      mul\n        /* \"src/lib/PRBMath.sol\":1615:1633  prod0 := mul(x, y) */\n      swap3\n      pop\n        /* \"src/lib/PRBMath.sol\":1687:1692  prod0 */\n      dup3\n        /* \"src/lib/PRBMath.sol\":1683:1685  mm */\n      dup2\n        /* \"src/lib/PRBMath.sol\":1680:1693  lt(mm, prod0) */\n      lt\n        /* \"src/lib/PRBMath.sol\":1672:1677  prod0 */\n      dup4\n        /* \"src/lib/PRBMath.sol\":1668:1670  mm */\n      dup3\n        /* \"src/lib/PRBMath.sol\":1664:1678  sub(mm, prod0) */\n      sub\n        /* \"src/lib/PRBMath.sol\":1660:1694  sub(sub(mm, prod0), lt(mm, prod0)) */\n      sub\n        /* \"src/lib/PRBMath.sol\":1651:1694  prod1 := sub(sub(mm, prod0), lt(mm, prod0)) */\n      swap2\n      pop\n        /* \"src/lib/PRBMath.sol\":1548:1709  {... */\n      pop\n        /* \"src/lib/PRBMath.sol\":1801:1802  0 */\n      0x00\n        /* \"src/lib/PRBMath.sol\":1792:1797  prod1 */\n      dup2\n        /* \"src/lib/PRBMath.sol\":1792:1802  prod1 == 0 */\n      sub\n        /* \"src/lib/PRBMath.sol\":1788:1865  if (prod1 == 0) {... */\n      tag_238\n      jumpi\n        /* \"src/lib/PRBMath.sol\":1838:1849  denominator */\n      dup4\n        /* \"src/lib/PRBMath.sol\":1830:1835  prod0 */\n      dup3\n        /* \"src/lib/PRBMath.sol\":1830:1849  prod0 / denominator */\n      dup2\n      tag_239\n      jumpi\n      tag_240\n      tag_231\n      jump\t// in\n    tag_240:\n    tag_239:\n      div\n        /* \"src/lib/PRBMath.sol\":1823:1849  return prod0 / denominator */\n      swap3\n      pop\n      pop\n      pop\n      jump(tag_237)\n        /* \"src/lib/PRBMath.sol\":1788:1865  if (prod1 == 0) {... */\n    tag_238:\n        /* \"src/lib/PRBMath.sol\":1960:1965  prod1 */\n      dup1\n        /* \"src/lib/PRBMath.sol\":1946:1957  denominator */\n      dup5\n        /* \"src/lib/PRBMath.sol\":1946:1965  denominator > prod1 */\n      gt\n        /* \"src/lib/PRBMath.sol\":1938:1987  require(denominator > prod1, \"PRBMath: overflow\") */\n      tag_241\n      jumpi\n      mload(0x40)\n      0x08c379a000000000000000000000000000000000000000000000000000000000\n      dup2\n      mstore\n      0x04\n      add\n      tag_242\n      swap1\n      tag_243\n      jump\t// in\n    tag_242:\n      mload(0x40)\n      dup1\n      swap2\n      sub\n      swap1\n      revert\n    tag_241:\n        /* \"src/lib/PRBMath.sol\":2249:2266  uint256 remainder */\n      0x00\n        /* \"src/lib/PRBMath.sol\":2335:2346  denominator */\n      dup5\n        /* \"src/lib/PRBMath.sol\":2332:2333  y */\n      dup7\n        /* \"src/lib/PRBMath.sol\":2329:2330  x */\n      dup9\n        /* \"src/lib/PRBMath.sol\":2322:2347  mulmod(x, y, denominator) */\n      mulmod\n        /* \"src/lib/PRBMath.sol\":2309:2347  remainder := mulmod(x, y, denominator) */\n      swap1\n      pop\n        /* \"src/lib/PRBMath.sol\":2399:2404  prod0 */\n      dup3\n        /* \"src/lib/PRBMath.sol\":2388:2397  remainder */\n      dup2\n        /* \"src/lib/PRBMath.sol\":2385:2405  gt(remainder, prod0) */\n      gt\n        /* \"src/lib/PRBMath.sol\":2378:2383  prod1 */\n      dup3\n        /* \"src/lib/PRBMath.sol\":2374:2406  sub(prod1, gt(remainder, prod0)) */\n      sub\n        /* \"src/lib/PRBMath.sol\":2365:2406  prod1 := sub(prod1, gt(remainder, prod0)) */\n      swap2\n      pop\n        /* \"src/lib/PRBMath.sol\":2444:2453  remainder */\n      dup1\n        /* \"src/lib/PRBMath.sol\":2437:2442  prod0 */\n      dup4\n        /* \"src/lib/PRBMath.sol\":2433:2454  sub(prod0, remainder) */\n      sub\n        /* \"src/lib/PRBMath.sol\":2424:2454  prod0 := sub(prod0, remainder) */\n      swap3\n      pop\n        /* \"src/lib/PRBMath.sol\":2582:2597  uint256 lpotdod */\n      0x00\n        /* \"src/lib/PRBMath.sol\":2630:2631  1 */\n      0x01\n        /* \"src/lib/PRBMath.sol\":2616:2627  denominator */\n      dup7\n        /* \"src/lib/PRBMath.sol\":2615:2627  ~denominator */\n      not\n        /* \"src/lib/PRBMath.sol\":2615:2631  ~denominator + 1 */\n      add\n        /* \"src/lib/PRBMath.sol\":2600:2611  denominator */\n      dup7\n        /* \"src/lib/PRBMath.sol\":2600:2632  denominator & (~denominator + 1) */\n      and\n        /* \"src/lib/PRBMath.sol\":2582:2632  uint256 lpotdod = denominator & (~denominator + 1) */\n      swap1\n      pop\n        /* \"src/lib/PRBMath.sol\":2707:2714  lpotdod */\n      dup1\n        /* \"src/lib/PRBMath.sol\":2694:2705  denominator */\n      dup7\n        /* \"src/lib/PRBMath.sol\":2690:2715  div(denominator, lpotdod) */\n      div\n        /* \"src/lib/PRBMath.sol\":2675:2715  denominator := div(denominator, lpotdod) */\n      swap6\n      pop\n        /* \"src/lib/PRBMath.sol\":2753:2760  lpotdod */\n      dup1\n        /* \"src/lib/PRBMath.sol\":2746:2751  prod0 */\n      dup5\n        /* \"src/lib/PRBMath.sol\":2742:2761  div(prod0, lpotdod) */\n      div\n        /* \"src/lib/PRBMath.sol\":2733:2761  prod0 := div(prod0, lpotdod) */\n      swap4\n      pop\n        /* \"src/lib/PRBMath.sol\":2825:2826  1 */\n      0x01\n        /* \"src/lib/PRBMath.sol\":2815:2822  lpotdod */\n      dup2\n        /* \"src/lib/PRBMath.sol\":2805:2812  lpotdod */\n      dup3\n        /* \"src/lib/PRBMath.sol\":2802:2803  0 */\n      0x00\n        /* \"src/lib/PRBMath.sol\":2798:2813  sub(0, lpotdod) */\n      sub\n        /* \"src/lib/PRBMath.sol\":2794:2823  div(sub(0, lpotdod), lpotdod) */\n      div\n        /* \"src/lib/PRBMath.sol\":2790:2827  add(div(sub(0, lpotdod), lpotdod), 1) */\n      add\n        /* \"src/lib/PRBMath.sol\":2779:2827  lpotdod := add(div(sub(0, lpotdod), lpotdod), 1) */\n      swap1\n      pop\n        /* \"src/lib/PRBMath.sol\":2927:2934  lpotdod */\n      dup1\n        /* \"src/lib/PRBMath.sol\":2919:2924  prod1 */\n      dup4\n        /* \"src/lib/PRBMath.sol\":2919:2934  prod1 * lpotdod */\n      mul\n        /* \"src/lib/PRBMath.sol\":2910:2934  prod0 |= prod1 * lpotdod */\n      dup5\n      or\n      swap4\n      pop\n        /* \"src/lib/PRBMath.sol\":3000:3015  uint256 inverse */\n      0x00\n        /* \"src/lib/PRBMath.sol\":3038:3039  2 */\n      0x02\n        /* \"src/lib/PRBMath.sol\":3023:3034  denominator */\n      dup8\n        /* \"src/lib/PRBMath.sol\":3019:3020  3 */\n      0x03\n        /* \"src/lib/PRBMath.sol\":3019:3034  3 * denominator */\n      mul\n        /* \"src/lib/PRBMath.sol\":3018:3039  (3 * denominator) ^ 2 */\n      xor\n        /* \"src/lib/PRBMath.sol\":3000:3039  uint256 inverse = (3 * denominator) ^ 2 */\n      swap1\n      pop\n        /* \"src/lib/PRBMath.sol\":3083:3090  inverse */\n      dup1\n        /* \"src/lib/PRBMath.sol\":3069:3080  denominator */\n      dup8\n        /* \"src/lib/PRBMath.sol\":3069:3090  denominator * inverse */\n      mul\n        /* \"src/lib/PRBMath.sol\":3065:3066  2 */\n      0x02\n        /* \"src/lib/PRBMath.sol\":3065:3090  2 - denominator * inverse */\n      sub\n        /* \"src/lib/PRBMath.sol\":3054:3090  inverse *= 2 - denominator * inverse */\n      dup2\n      mul\n      swap1\n      pop\n        /* \"src/lib/PRBMath.sol\":3153:3160  inverse */\n      dup1\n        /* \"src/lib/PRBMath.sol\":3139:3150  denominator */\n      dup8\n        /* \"src/lib/PRBMath.sol\":3139:3160  denominator * inverse */\n      mul\n        /* \"src/lib/PRBMath.sol\":3135:3136  2 */\n      0x02\n        /* \"src/lib/PRBMath.sol\":3135:3160  2 - denominator * inverse */\n      sub\n        /* \"src/lib/PRBMath.sol\":3124:3160  inverse *= 2 - denominator * inverse */\n      dup2\n      mul\n      swap1\n      pop\n        /* \"src/lib/PRBMath.sol\":3224:3231  inverse */\n      dup1\n        /* \"src/lib/PRBMath.sol\":3210:3221  denominator */\n      dup8\n        /* \"src/lib/PRBMath.sol\":3210:3231  denominator * inverse */\n      mul\n        /* \"src/lib/PRBMath.sol\":3206:3207  2 */\n      0x02\n        /* \"src/lib/PRBMath.sol\":3206:3231  2 - denominator * inverse */\n      sub\n        /* \"src/lib/PRBMath.sol\":3195:3231  inverse *= 2 - denominator * inverse */\n      dup2\n      mul\n      swap1\n      pop\n        /* \"src/lib/PRBMath.sol\":3295:3302  inverse */\n      dup1\n        /* \"src/lib/PRBMath.sol\":3281:3292  denominator */\n      dup8\n        /* \"src/lib/PRBMath.sol\":3281:3302  denominator * inverse */\n      mul\n        /* \"src/lib/PRBMath.sol\":3277:3278  2 */\n      0x02\n        /* \"src/lib/PRBMath.sol\":3277:3302  2 - denominator * inverse */\n      sub\n        /* \"src/lib/PRBMath.sol\":3266:3302  inverse *= 2 - denominator * inverse */\n      dup2\n      mul\n      swap1\n      pop\n        /* \"src/lib/PRBMath.sol\":3366:3373  inverse */\n      dup1\n        /* \"src/lib/PRBMath.sol\":3352:3363  denominator */\n      dup8\n        /* \"src/lib/PRBMath.sol\":3352:3373  denominator * inverse */\n      mul\n        /* \"src/lib/PRBMath.sol\":3348:3349  2 */\n      0x02\n        /* \"src/lib/PRBMath.sol\":3348:3373  2 - denominator * inverse */\n      sub\n        /* \"src/lib/PRBMath.sol\":3337:3373  inverse *= 2 - denominator * inverse */\n      dup2\n      mul\n      swap1\n      pop\n        /* \"src/lib/PRBMath.sol\":3438:3445  inverse */\n      dup1\n        /* \"src/lib/PRBMath.sol\":3424:3435  denominator */\n      dup8\n        /* \"src/lib/PRBMath.sol\":3424:3445  denominator * inverse */\n      mul\n        /* \"src/lib/PRBMath.sol\":3420:3421  2 */\n      0x02\n        /* \"src/lib/PRBMath.sol\":3420:3445  2 - denominator * inverse */\n      sub\n        /* \"src/lib/PRBMath.sol\":3409:3445  inverse *= 2 - denominator * inverse */\n      dup2\n      mul\n      swap1\n      pop\n        /* \"src/lib/PRBMath.sol\":3500:3507  inverse */\n      dup1\n        /* \"src/lib/PRBMath.sol\":3492:3497  prod0 */\n      dup6\n        /* \"src/lib/PRBMath.sol\":3492:3507  prod0 * inverse */\n      mul\n        /* \"src/lib/PRBMath.sol\":3483:3507  result = prod0 * inverse */\n      swap6\n      pop\n        /* \"src/lib/PRBMath.sol\":3522:3535  return result */\n      pop\n      pop\n      pop\n      pop\n      pop\n        /* \"src/lib/PRBMath.sol\":1169:3554  function mulDiv(... */\n    tag_237:\n      swap4\n      swap3\n      pop\n      pop\n      pop\n      jump\t// out\n        /* \"#utility.yul\":7:133   */\n    tag_244:\n        /* \"#utility.yul\":44:51   */\n      0x00\n        /* \"#utility.yul\":84:126   */\n      0xffffffffffffffffffffffffffffffffffffffff\n        /* \"#utility.yul\":77:82   */\n      dup3\n        /* \"#utility.yul\":73:127   */\n      and\n        /* \"#utility.yul\":62:127   */\n      swap1\n      pop\n        /* \"#utility.yul\":7:133   */\n      swap2\n      swap1\n      pop\n      jump\t// out\n        /* \"#utility.yul\":139:235   */\n    tag_245:\n        /* \"#utility.yul\":176:183   */\n      0x00\n        /* \"#utility.yul\":205:229   */\n      tag_301\n        /* \"#utility.yul\":223:228   */\n      dup3\n        /* \"#utility.yul\":205:229   */\n      tag_244\n      jump\t// in\n    tag_301:\n        /* \"#utility.yul\":194:229   */\n      swap1\n      pop\n        /* \"#utility.yul\":139:235   */\n      swap2\n      swap1\n      pop\n      jump\t// out\n        /* \"#utility.yul\":241:359   */\n    tag_246:\n        /* \"#utility.yul\":328:352   */\n      tag_303\n        /* \"#utility.yul\":346:351   */\n      dup2\n        /* \"#utility.yul\":328:352   */\n      tag_245\n      jump\t// in\n    tag_303:\n        /* \"#utility.yul\":323:326   */\n      dup3\n        /* \"#utility.yul\":316:353   */\n      mstore\n        /* \"#utility.yul\":241:359   */\n      pop\n      pop\n      jump\t// out\n        /* \"#utility.yul\":365:587   */\n    tag_16:\n        /* \"#utility.yul\":458:462   */\n      0x00\n        /* \"#utility.yul\":496:498   */\n      0x20\n        /* \"#utility.yul\":485:494   */\n      dup3\n        /* \"#utility.yul\":481:499   */\n      add\n        /* \"#utility.yul\":473:499   */\n      swap1\n      pop\n        /* \"#utility.yul\":509:580   */\n      tag_305\n        /* \"#utility.yul\":577:578   */\n      0x00\n        /* \"#utility.yul\":566:575   */\n      dup4\n        /* \"#utility.yul\":562:579   */\n      add\n        /* \"#utility.yul\":553:559   */\n      dup5\n        /* \"#utility.yul\":509:580   */\n      tag_246\n      jump\t// in\n    tag_305:\n        /* \"#utility.yul\":365:587   */\n      swap3\n      swap2\n      pop\n      pop\n      jump\t// out\n        /* \"#utility.yul\":593:711   */\n    tag_247:\n        /* \"#utility.yul\":630:637   */\n      0x00\n        /* \"#utility.yul\":670:704   */\n      0xffffffffffffffffffffffffffffffff\n        /* \"#utility.yul\":663:668   */\n      dup3\n        /* \"#utility.yul\":659:705   */\n      and\n        /* \"#utility.yul\":648:705   */\n      swap1\n      pop\n        /* \"#utility.yul\":593:711   */\n      swap2\n      swap1\n      pop\n      jump\t// out\n        /* \"#utility.yul\":717:835   */\n    tag_248:\n        /* \"#utility.yul\":804:828   */\n      tag_308\n        /* \"#utility.yul\":822:827   */\n      dup2\n        /* \"#utility.yul\":804:828   */\n      tag_247\n      jump\t// in\n    tag_308:\n        /* \"#utility.yul\":799:802   */\n      dup3\n        /* \"#utility.yul\":792:829   */\n      mstore\n        /* \"#utility.yul\":717:835   */\n      pop\n      pop\n      jump\t// out\n        /* \"#utility.yul\":841:1063   */\n    tag_20:\n        /* \"#utility.yul\":934:938   */\n      0x00\n        /* \"#utility.yul\":972:974   */\n      0x20\n        /* \"#utility.yul\":961:970   */\n      dup3\n        /* \"#utility.yul\":957:975   */\n      add\n        /* \"#utility.yul\":949:975   */\n      swap1\n      pop\n        /* \"#utility.yul\":985:1056   */\n      tag_310\n        /* \"#utility.yul\":1053:1054   */\n      0x00\n        /* \"#utility.yul\":1042:1051   */\n      dup4\n        /* \"#utility.yul\":1038:1055   */\n      add\n        /* \"#utility.yul\":1029:1035   */\n      dup5\n        /* \"#utility.yul\":985:1056   */\n      tag_248\n      jump\t// in\n    tag_310:\n        /* \"#utility.yul\":841:1063   */\n      swap3\n      swap2\n      pop\n      pop\n      jump\t// out\n        /* \"#utility.yul\":1069:1187   */\n    tag_249:\n        /* \"#utility.yul\":1156:1180   */\n      tag_312\n        /* \"#utility.yul\":1174:1179   */\n      dup2\n        /* \"#utility.yul\":1156:1180   */\n      tag_244\n      jump\t// in\n    tag_312:\n        /* \"#utility.yul\":1151:1154   */\n      dup3\n        /* \"#utility.yul\":1144:1181   */\n      mstore\n        /* \"#utility.yul\":1069:1187   */\n      pop\n      pop\n      jump\t// out\n        /* \"#utility.yul\":1193:1283   */\n    tag_250:\n        /* \"#utility.yul\":1228:1235   */\n      0x00\n        /* \"#utility.yul\":1271:1276   */\n      dup2\n        /* \"#utility.yul\":1268:1269   */\n      0x02\n        /* \"#utility.yul\":1257:1277   */\n      signextend\n        /* \"#utility.yul\":1246:1277   */\n      swap1\n      pop\n        /* \"#utility.yul\":1193:1283   */\n      swap2\n      swap1\n      pop\n      jump\t// out\n        /* \"#utility.yul\":1289:1401   */\n    tag_251:\n        /* \"#utility.yul\":1372:1394   */\n      tag_315\n        /* \"#utility.yul\":1388:1393   */\n      dup2\n        /* \"#utility.yul\":1372:1394   */\n      tag_250\n      jump\t// in\n    tag_315:\n        /* \"#utility.yul\":1367:1370   */\n      dup3\n        /* \"#utility.yul\":1360:1395   */\n      mstore\n        /* \"#utility.yul\":1289:1401   */\n      pop\n      pop\n      jump\t// out\n        /* \"#utility.yul\":1407:1731   */\n    tag_24:\n        /* \"#utility.yul\":1524:1528   */\n      0x00\n        /* \"#utility.yul\":1562:1564   */\n      0x40\n        /* \"#utility.yul\":1551:1560   */\n      dup3\n        /* \"#utility.yul\":1547:1565   */\n      add\n        /* \"#utility.yul\":1539:1565   */\n      swap1\n      pop\n        /* \"#utility.yul\":1575:1646   */\n      tag_317\n        /* \"#utility.yul\":1643:1644   */\n      0x00\n        /* \"#utility.yul\":1632:1641   */\n      dup4\n        /* \"#utility.yul\":1628:1645   */\n      add\n        /* \"#utility.yul\":1619:1625   */\n      dup6\n        /* \"#utility.yul\":1575:1646   */\n      tag_249\n      jump\t// in\n    tag_317:\n        /* \"#utility.yul\":1656:1724   */\n      tag_318\n        /* \"#utility.yul\":1720:1722   */\n      0x20\n        /* \"#utility.yul\":1709:1718   */\n      dup4\n        /* \"#utility.yul\":1705:1723   */\n      add\n        /* \"#utility.yul\":1696:1702   */\n      dup5\n        /* \"#utility.yul\":1656:1724   */\n      tag_251\n      jump\t// in\n    tag_318:\n        /* \"#utility.yul\":1407:1731   */\n      swap4\n      swap3\n      pop\n      pop\n      pop\n      jump\t// out\n        /* \"#utility.yul\":1818:1935   */\n    tag_253:\n        /* \"#utility.yul\":1927:1928   */\n      0x00\n        /* \"#utility.yul\":1924:1925   */\n      0x00\n        /* \"#utility.yul\":1917:1929   */\n      revert\n        /* \"#utility.yul\":1941:2058   */\n    tag_254:\n        /* \"#utility.yul\":2050:2051   */\n      0x00\n        /* \"#utility.yul\":2047:2048   */\n      0x00\n        /* \"#utility.yul\":2040:2052   */\n      revert\n        /* \"#utility.yul\":2064:2186   */\n    tag_255:\n        /* \"#utility.yul\":2137:2161   */\n      tag_323\n        /* \"#utility.yul\":2155:2160   */\n      dup2\n        /* \"#utility.yul\":2137:2161   */\n      tag_245\n      jump\t// in\n    tag_323:\n        /* \"#utility.yul\":2130:2135   */\n      dup2\n        /* \"#utility.yul\":2127:2162   */\n      eq\n        /* \"#utility.yul\":2117:2180   */\n      tag_324\n      jumpi\n        /* \"#utility.yul\":2176:2177   */\n      0x00\n        /* \"#utility.yul\":2173:2174   */\n      0x00\n        /* \"#utility.yul\":2166:2178   */\n      revert\n        /* \"#utility.yul\":2117:2180   */\n    tag_324:\n        /* \"#utility.yul\":2064:2186   */\n      pop\n      jump\t// out\n        /* \"#utility.yul\":2192:2331   */\n    tag_256:\n        /* \"#utility.yul\":2238:2243   */\n      0x00\n        /* \"#utility.yul\":2276:2282   */\n      dup2\n        /* \"#utility.yul\":2263:2283   */\n      calldataload\n        /* \"#utility.yul\":2254:2283   */\n      swap1\n      pop\n        /* \"#utility.yul\":2292:2325   */\n      tag_326\n        /* \"#utility.yul\":2319:2324   */\n      dup2\n        /* \"#utility.yul\":2292:2325   */\n      tag_255\n      jump\t// in\n    tag_326:\n        /* \"#utility.yul\":2192:2331   */\n      swap3\n      swap2\n      pop\n      pop\n      jump\t// out\n        /* \"#utility.yul\":2337:2455   */\n    tag_257:\n        /* \"#utility.yul\":2408:2430   */\n      tag_328\n        /* \"#utility.yul\":2424:2429   */\n      dup2\n        /* \"#utility.yul\":2408:2430   */\n      tag_250\n      jump\t// in\n    tag_328:\n        /* \"#utility.yul\":2401:2406   */\n      dup2\n        /* \"#utility.yul\":2398:2431   */\n      eq\n        /* \"#utility.yul\":2388:2449   */\n      tag_329\n      jumpi\n        /* \"#utility.yul\":2445:2446   */\n      0x00\n        /* \"#utility.yul\":2442:2443   */\n      0x00\n        /* \"#utility.yul\":2435:2447   */\n      revert\n        /* \"#utility.yul\":2388:2449   */\n    tag_329:\n        /* \"#utility.yul\":2337:2455   */\n      pop\n      jump\t// out\n        /* \"#utility.yul\":2461:2596   */\n    tag_258:\n        /* \"#utility.yul\":2505:2510   */\n      0x00\n        /* \"#utility.yul\":2543:2549   */\n      dup2\n        /* \"#utility.yul\":2530:2550   */\n      calldataload\n        /* \"#utility.yul\":2521:2550   */\n      swap1\n      pop\n        /* \"#utility.yul\":2559:2590   */\n      tag_331\n        /* \"#utility.yul\":2584:2589   */\n      dup2\n        /* \"#utility.yul\":2559:2590   */\n      tag_257\n      jump\t// in\n    tag_331:\n        /* \"#utility.yul\":2461:2596   */\n      swap3\n      swap2\n      pop\n      pop\n      jump\t// out\n        /* \"#utility.yul\":2602:2724   */\n    tag_259:\n        /* \"#utility.yul\":2675:2699   */\n      tag_333\n        /* \"#utility.yul\":2693:2698   */\n      dup2\n        /* \"#utility.yul\":2675:2699   */\n      tag_247\n      jump\t// in\n    tag_333:\n        /* \"#utility.yul\":2668:2673   */\n      dup2\n        /* \"#utility.yul\":2665:2700   */\n      eq\n        /* \"#utility.yul\":2655:2718   */\n      tag_334\n      jumpi\n        /* \"#utility.yul\":2714:2715   */\n      0x00\n        /* \"#utility.yul\":2711:2712   */\n      0x00\n        /* \"#utility.yul\":2704:2716   */\n      revert\n        /* \"#utility.yul\":2655:2718   */\n    tag_334:\n        /* \"#utility.yul\":2602:2724   */\n      pop\n      jump\t// out\n        /* \"#utility.yul\":2730:2869   */\n    tag_260:\n        /* \"#utility.yul\":2776:2781   */\n      0x00\n        /* \"#utility.yul\":2814:2820   */\n      dup2\n        /* \"#utility.yul\":2801:2821   */\n      calldataload\n        /* \"#utility.yul\":2792:2821   */\n      swap1\n      pop\n        /* \"#utility.yul\":2830:2863   */\n      tag_336\n        /* \"#utility.yul\":2857:2862   */\n      dup2\n        /* \"#utility.yul\":2830:2863   */\n      tag_259\n      jump\t// in\n    tag_336:\n        /* \"#utility.yul\":2730:2869   */\n      swap3\n      swap2\n      pop\n      pop\n      jump\t// out\n        /* \"#utility.yul\":2875:2992   */\n    tag_261:\n        /* \"#utility.yul\":2984:2985   */\n      0x00\n        /* \"#utility.yul\":2981:2982   */\n      0x00\n        /* \"#utility.yul\":2974:2986   */\n      revert\n        /* \"#utility.yul\":2998:3115   */\n    tag_262:\n        /* \"#utility.yul\":3107:3108   */\n      0x00\n        /* \"#utility.yul\":3104:3105   */\n      0x00\n        /* \"#utility.yul\":3097:3109   */\n      revert\n        /* \"#utility.yul\":3121:3238   */\n    tag_263:\n        /* \"#utility.yul\":3230:3231   */\n      0x00\n        /* \"#utility.yul\":3227:3228   */\n      0x00\n        /* \"#utility.yul\":3220:3232   */\n      revert\n        /* \"#utility.yul\":3257:3809   */\n    tag_264:\n        /* \"#utility.yul\":3314:3322   */\n      0x00\n        /* \"#utility.yul\":3324:3330   */\n      0x00\n        /* \"#utility.yul\":3374:3377   */\n      dup4\n        /* \"#utility.yul\":3367:3371   */\n      0x1f\n        /* \"#utility.yul\":3359:3365   */\n      dup5\n        /* \"#utility.yul\":3355:3372   */\n      add\n        /* \"#utility.yul\":3351:3378   */\n      slt\n        /* \"#utility.yul\":3341:3463   */\n      tag_341\n      jumpi\n        /* \"#utility.yul\":3382:3461   */\n      tag_342\n      tag_261\n      jump\t// in\n    tag_342:\n        /* \"#utility.yul\":3341:3463   */\n    tag_341:\n        /* \"#utility.yul\":3495:3501   */\n      dup3\n        /* \"#utility.yul\":3482:3502   */\n      calldataload\n        /* \"#utility.yul\":3472:3502   */\n      swap1\n      pop\n        /* \"#utility.yul\":3525:3543   */\n      0xffffffffffffffff\n        /* \"#utility.yul\":3517:3523   */\n      dup2\n        /* \"#utility.yul\":3514:3544   */\n      gt\n        /* \"#utility.yul\":3511:3628   */\n      iszero\n      tag_343\n      jumpi\n        /* \"#utility.yul\":3547:3626   */\n      tag_344\n      tag_262\n      jump\t// in\n    tag_344:\n        /* \"#utility.yul\":3511:3628   */\n    tag_343:\n        /* \"#utility.yul\":3661:3665   */\n      0x20\n        /* \"#utility.yul\":3653:3659   */\n      dup4\n        /* \"#utility.yul\":3649:3666   */\n      add\n        /* \"#utility.yul\":3637:3666   */\n      swap2\n      pop\n        /* \"#utility.yul\":3715:3718   */\n      dup4\n        /* \"#utility.yul\":3707:3711   */\n      0x01\n        /* \"#utility.yul\":3699:3705   */\n      dup3\n        /* \"#utility.yul\":3695:3712   */\n      mul\n        /* \"#utility.yul\":3685:3693   */\n      dup4\n        /* \"#utility.yul\":3681:3713   */\n      add\n        /* \"#utility.yul\":3678:3719   */\n      gt\n        /* \"#utility.yul\":3675:3803   */\n      iszero\n      tag_345\n      jumpi\n        /* \"#utility.yul\":3722:3801   */\n      tag_346\n      tag_263\n      jump\t// in\n    tag_346:\n        /* \"#utility.yul\":3675:3803   */\n    tag_345:\n        /* \"#utility.yul\":3257:3809   */\n      swap3\n      pop\n      swap3\n      swap1\n      pop\n      jump\t// out\n        /* \"#utility.yul\":3815:4916   */\n    tag_27:\n        /* \"#utility.yul\":3917:3923   */\n      0x00\n        /* \"#utility.yul\":3925:3931   */\n      0x00\n        /* \"#utility.yul\":3933:3939   */\n      0x00\n        /* \"#utility.yul\":3941:3947   */\n      0x00\n        /* \"#utility.yul\":3949:3955   */\n      0x00\n        /* \"#utility.yul\":3957:3963   */\n      0x00\n        /* \"#utility.yul\":4006:4009   */\n      0xa0\n        /* \"#utility.yul\":3994:4003   */\n      dup8\n        /* \"#utility.yul\":3985:3992   */\n      dup10\n        /* \"#utility.yul\":3981:4004   */\n      sub\n        /* \"#utility.yul\":3977:4010   */\n      slt\n        /* \"#utility.yul\":3974:4094   */\n      iszero\n      tag_348\n      jumpi\n        /* \"#utility.yul\":4013:4092   */\n      tag_349\n      tag_253\n      jump\t// in\n    tag_349:\n        /* \"#utility.yul\":3974:4094   */\n    tag_348:\n        /* \"#utility.yul\":4133:4134   */\n      0x00\n        /* \"#utility.yul\":4158:4211   */\n      tag_350\n        /* \"#utility.yul\":4203:4210   */\n      dup10\n        /* \"#utility.yul\":4194:4200   */\n      dup3\n        /* \"#utility.yul\":4183:4192   */\n      dup11\n        /* \"#utility.yul\":4179:4201   */\n      add\n        /* \"#utility.yul\":4158:4211   */\n      tag_256\n      jump\t// in\n    tag_350:\n        /* \"#utility.yul\":4148:4211   */\n      swap7\n      pop\n        /* \"#utility.yul\":4104:4221   */\n      pop\n        /* \"#utility.yul\":4260:4262   */\n      0x20\n        /* \"#utility.yul\":4286:4337   */\n      tag_351\n        /* \"#utility.yul\":4329:4336   */\n      dup10\n        /* \"#utility.yul\":4320:4326   */\n      dup3\n        /* \"#utility.yul\":4309:4318   */\n      dup11\n        /* \"#utility.yul\":4305:4327   */\n      add\n        /* \"#utility.yul\":4286:4337   */\n      tag_258\n      jump\t// in\n    tag_351:\n        /* \"#utility.yul\":4276:4337   */\n      swap6\n      pop\n        /* \"#utility.yul\":4231:4347   */\n      pop\n        /* \"#utility.yul\":4386:4388   */\n      0x40\n        /* \"#utility.yul\":4412:4463   */\n      tag_352\n        /* \"#utility.yul\":4455:4462   */\n      dup10\n        /* \"#utility.yul\":4446:4452   */\n      dup3\n        /* \"#utility.yul\":4435:4444   */\n      dup11\n        /* \"#utility.yul\":4431:4453   */\n      add\n        /* \"#utility.yul\":4412:4463   */\n      tag_258\n      jump\t// in\n    tag_352:\n        /* \"#utility.yul\":4402:4463   */\n      swap5\n      pop\n        /* \"#utility.yul\":4357:4473   */\n      pop\n        /* \"#utility.yul\":4512:4514   */\n      0x60\n        /* \"#utility.yul\":4538:4591   */\n      tag_353\n        /* \"#utility.yul\":4583:4590   */\n      dup10\n        /* \"#utility.yul\":4574:4580   */\n      dup3\n        /* \"#utility.yul\":4563:4572   */\n      dup11\n        /* \"#utility.yul\":4559:4581   */\n      add\n        /* \"#utility.yul\":4538:4591   */\n      tag_260\n      jump\t// in\n    tag_353:\n        /* \"#utility.yul\":4528:4591   */\n      swap4\n      pop\n        /* \"#utility.yul\":4483:4601   */\n      pop\n        /* \"#utility.yul\":4668:4671   */\n      0x80\n        /* \"#utility.yul\":4657:4666   */\n      dup8\n        /* \"#utility.yul\":4653:4672   */\n      add\n        /* \"#utility.yul\":4640:4673   */\n      calldataload\n        /* \"#utility.yul\":4700:4718   */\n      0xffffffffffffffff\n        /* \"#utility.yul\":4692:4698   */\n      dup2\n        /* \"#utility.yul\":4689:4719   */\n      gt\n        /* \"#utility.yul\":4686:4803   */\n      iszero\n      tag_354\n      jumpi\n        /* \"#utility.yul\":4722:4801   */\n      tag_355\n      tag_254\n      jump\t// in\n    tag_355:\n        /* \"#utility.yul\":4686:4803   */\n    tag_354:\n        /* \"#utility.yul\":4835:4899   */\n      tag_356\n        /* \"#utility.yul\":4891:4898   */\n      dup10\n        /* \"#utility.yul\":4882:4888   */\n      dup3\n        /* \"#utility.yul\":4871:4880   */\n      dup11\n        /* \"#utility.yul\":4867:4889   */\n      add\n        /* \"#utility.yul\":4835:4899   */\n      tag_264\n      jump\t// in\n    tag_356:\n        /* \"#utility.yul\":4817:4899   */\n      swap3\n      pop\n      swap3\n      pop\n        /* \"#utility.yul\":4611:4909   */\n      pop\n        /* \"#utility.yul\":3815:4916   */\n      swap3\n      swap6\n      pop\n      swap3\n      swap6\n      pop\n      swap3\n      swap6\n      jump\t// out\n        /* \"#utility.yul\":4922:4999   */\n    tag_265:\n        /* \"#utility.yul\":4959:4966   */\n      0x00\n        /* \"#utility.yul\":4988:4993   */\n      dup2\n        /* \"#utility.yul\":4977:4993   */\n      swap1\n      pop\n        /* \"#utility.yul\":4922:4999   */\n      swap2\n      swap1\n      pop\n      jump\t// out\n        /* \"#utility.yul\":5005:5123   */\n    tag_266:\n        /* \"#utility.yul\":5092:5116   */\n      tag_359\n        /* \"#utility.yul\":5110:5115   */\n      dup2\n        /* \"#utility.yul\":5092:5116   */\n      tag_265\n      jump\t// in\n    tag_359:\n        /* \"#utility.yul\":5087:5090   */\n      dup3\n        /* \"#utility.yul\":5080:5117   */\n      mstore\n        /* \"#utility.yul\":5005:5123   */\n      pop\n      pop\n      jump\t// out\n        /* \"#utility.yul\":5129:5461   */\n    tag_30:\n        /* \"#utility.yul\":5250:5254   */\n      0x00\n        /* \"#utility.yul\":5288:5290   */\n      0x40\n        /* \"#utility.yul\":5277:5286   */\n      dup3\n        /* \"#utility.yul\":5273:5291   */\n      add\n        /* \"#utility.yul\":5265:5291   */\n      swap1\n      pop\n        /* \"#utility.yul\":5301:5372   */\n      tag_361\n        /* \"#utility.yul\":5369:5370   */\n      0x00\n        /* \"#utility.yul\":5358:5367   */\n      dup4\n        /* \"#utility.yul\":5354:5371   */\n      add\n        /* \"#utility.yul\":5345:5351   */\n      dup6\n        /* \"#utility.yul\":5301:5372   */\n      tag_266\n      jump\t// in\n    tag_361:\n        /* \"#utility.yul\":5382:5454   */\n      tag_362\n        /* \"#utility.yul\":5450:5452   */\n      0x20\n        /* \"#utility.yul\":5439:5448   */\n      dup4\n        /* \"#utility.yul\":5435:5453   */\n      add\n        /* \"#utility.yul\":5426:5432   */\n      dup5\n        /* \"#utility.yul\":5382:5454   */\n      tag_266\n      jump\t// in\n    tag_362:\n        /* \"#utility.yul\":5129:5461   */\n      swap4\n      swap3\n      pop\n      pop\n      pop\n      jump\t// out\n        /* \"#utility.yul\":5467:5544   */\n    tag_267:\n        /* \"#utility.yul\":5504:5511   */\n      0x00\n        /* \"#utility.yul\":5533:5538   */\n      dup2\n        /* \"#utility.yul\":5522:5538   */\n      swap1\n      pop\n        /* \"#utility.yul\":5467:5544   */\n      swap2\n      swap1\n      pop\n      jump\t// out\n        /* \"#utility.yul\":5550:5672   */\n    tag_268:\n        /* \"#utility.yul\":5623:5647   */\n      tag_365\n        /* \"#utility.yul\":5641:5646   */\n      dup2\n        /* \"#utility.yul\":5623:5647   */\n      tag_267\n      jump\t// in\n    tag_365:\n        /* \"#utility.yul\":5616:5621   */\n      dup2\n        /* \"#utility.yul\":5613:5648   */\n      eq\n        /* \"#utility.yul\":5603:5666   */\n      tag_366\n      jumpi\n        /* \"#utility.yul\":5662:5663   */\n      0x00\n        /* \"#utility.yul\":5659:5660   */\n      0x00\n        /* \"#utility.yul\":5652:5664   */\n      revert\n        /* \"#utility.yul\":5603:5666   */\n    tag_366:\n        /* \"#utility.yul\":5550:5672   */\n      pop\n      jump\t// out\n        /* \"#utility.yul\":5678:5817   */\n    tag_269:\n        /* \"#utility.yul\":5724:5729   */\n      0x00\n        /* \"#utility.yul\":5762:5768   */\n      dup2\n        /* \"#utility.yul\":5749:5769   */\n      calldataload\n        /* \"#utility.yul\":5740:5769   */\n      swap1\n      pop\n        /* \"#utility.yul\":5778:5811   */\n      tag_368\n        /* \"#utility.yul\":5805:5810   */\n      dup2\n        /* \"#utility.yul\":5778:5811   */\n      tag_268\n      jump\t// in\n    tag_368:\n        /* \"#utility.yul\":5678:5817   */\n      swap3\n      swap2\n      pop\n      pop\n      jump\t// out\n        /* \"#utility.yul\":5823:6152   */\n    tag_33:\n        /* \"#utility.yul\":5882:5888   */\n      0x00\n        /* \"#utility.yul\":5931:5933   */\n      0x20\n        /* \"#utility.yul\":5919:5928   */\n      dup3\n        /* \"#utility.yul\":5910:5917   */\n      dup5\n        /* \"#utility.yul\":5906:5929   */\n      sub\n        /* \"#utility.yul\":5902:5934   */\n      slt\n        /* \"#utility.yul\":5899:6018   */\n      iszero\n      tag_370\n      jumpi\n        /* \"#utility.yul\":5937:6016   */\n      tag_371\n      tag_253\n      jump\t// in\n    tag_371:\n        /* \"#utility.yul\":5899:6018   */\n    tag_370:\n        /* \"#utility.yul\":6057:6058   */\n      0x00\n        /* \"#utility.yul\":6082:6135   */\n      tag_372\n        /* \"#utility.yul\":6127:6134   */\n      dup5\n        /* \"#utility.yul\":6118:6124   */\n      dup3\n        /* \"#utility.yul\":6107:6116   */\n      dup6\n        /* \"#utility.yul\":6103:6125   */\n      add\n        /* \"#utility.yul\":6082:6135   */\n      tag_269\n      jump\t// in\n    tag_372:\n        /* \"#utility.yul\":6072:6135   */\n      swap2\n      pop\n        /* \"#utility.yul\":6028:6145   */\n      pop\n        /* \"#utility.yul\":5823:6152   */\n      swap3\n      swap2\n      pop\n      pop\n      jump\t// out\n        /* \"#utility.yul\":6158:6248   */\n    tag_270:\n        /* \"#utility.yul\":6193:6200   */\n      0x00\n        /* \"#utility.yul\":6236:6241   */\n      dup2\n        /* \"#utility.yul\":6233:6234   */\n      0x01\n        /* \"#utility.yul\":6222:6242   */\n      signextend\n        /* \"#utility.yul\":6211:6242   */\n      swap1\n      pop\n        /* \"#utility.yul\":6158:6248   */\n      swap2\n      swap1\n      pop\n      jump\t// out\n        /* \"#utility.yul\":6254:6372   */\n    tag_271:\n        /* \"#utility.yul\":6325:6347   */\n      tag_375\n        /* \"#utility.yul\":6341:6346   */\n      dup2\n        /* \"#utility.yul\":6325:6347   */\n      tag_270\n      jump\t// in\n    tag_375:\n        /* \"#utility.yul\":6318:6323   */\n      dup2\n        /* \"#utility.yul\":6315:6348   */\n      eq\n        /* \"#utility.yul\":6305:6366   */\n      tag_376\n      jumpi\n        /* \"#utility.yul\":6362:6363   */\n      0x00\n        /* \"#utility.yul\":6359:6360   */\n      0x00\n        /* \"#utility.yul\":6352:6364   */\n      revert\n        /* \"#utility.yul\":6305:6366   */\n    tag_376:\n        /* \"#utility.yul\":6254:6372   */\n      pop\n      jump\t// out\n        /* \"#utility.yul\":6378:6513   */\n    tag_272:\n        /* \"#utility.yul\":6422:6427   */\n      0x00\n        /* \"#utility.yul\":6460:6466   */\n      dup2\n        /* \"#utility.yul\":6447:6467   */\n      calldataload\n        /* \"#utility.yul\":6438:6467   */\n      swap1\n      pop\n        /* \"#utility.yul\":6476:6507   */\n      tag_378\n        /* \"#utility.yul\":6501:6506   */\n      dup2\n        /* \"#utility.yul\":6476:6507   */\n      tag_271\n      jump\t// in\n    tag_378:\n        /* \"#utility.yul\":6378:6513   */\n      swap3\n      swap2\n      pop\n      pop\n      jump\t// out\n        /* \"#utility.yul\":6519:6844   */\n    tag_38:\n        /* \"#utility.yul\":6576:6582   */\n      0x00\n        /* \"#utility.yul\":6625:6627   */\n      0x20\n        /* \"#utility.yul\":6613:6622   */\n      dup3\n        /* \"#utility.yul\":6604:6611   */\n      dup5\n        /* \"#utility.yul\":6600:6623   */\n      sub\n        /* \"#utility.yul\":6596:6628   */\n      slt\n        /* \"#utility.yul\":6593:6712   */\n      iszero\n      tag_380\n      jumpi\n        /* \"#utility.yul\":6631:6710   */\n      tag_381\n      tag_253\n      jump\t// in\n    tag_381:\n        /* \"#utility.yul\":6593:6712   */\n    tag_380:\n        /* \"#utility.yul\":6751:6752   */\n      0x00\n        /* \"#utility.yul\":6776:6827   */\n      tag_382\n        /* \"#utility.yul\":6819:6826   */\n      dup5\n        /* \"#utility.yul\":6810:6816   */\n      dup3\n        /* \"#utility.yul\":6799:6808   */\n      dup6\n        /* \"#utility.yul\":6795:6817   */\n      add\n        /* \"#utility.yul\":6776:6827   */\n      tag_272\n      jump\t// in\n    tag_382:\n        /* \"#utility.yul\":6766:6827   */\n      swap2\n      pop\n        /* \"#utility.yul\":6722:6837   */\n      pop\n        /* \"#utility.yul\":6519:6844   */\n      swap3\n      swap2\n      pop\n      pop\n      jump\t// out\n        /* \"#utility.yul\":6850:7072   */\n    tag_41:\n        /* \"#utility.yul\":6943:6947   */\n      0x00\n        /* \"#utility.yul\":6981:6983   */\n      0x20\n        /* \"#utility.yul\":6970:6979   */\n      dup3\n        /* \"#utility.yul\":6966:6984   */\n      add\n        /* \"#utility.yul\":6958:6984   */\n      swap1\n      pop\n        /* \"#utility.yul\":6994:7065   */\n      tag_384\n        /* \"#utility.yul\":7062:7063   */\n      0x00\n        /* \"#utility.yul\":7051:7060   */\n      dup4\n        /* \"#utility.yul\":7047:7064   */\n      add\n        /* \"#utility.yul\":7038:7044   */\n      dup5\n        /* \"#utility.yul\":6994:7065   */\n      tag_266\n      jump\t// in\n    tag_384:\n        /* \"#utility.yul\":6850:7072   */\n      swap3\n      swap2\n      pop\n      pop\n      jump\t// out\n        /* \"#utility.yul\":7078:7750   */\n    tag_47:\n        /* \"#utility.yul\":7157:7163   */\n      0x00\n        /* \"#utility.yul\":7165:7171   */\n      0x00\n        /* \"#utility.yul\":7173:7179   */\n      0x00\n        /* \"#utility.yul\":7222:7224   */\n      0x40\n        /* \"#utility.yul\":7210:7219   */\n      dup5\n        /* \"#utility.yul\":7201:7208   */\n      dup7\n        /* \"#utility.yul\":7197:7220   */\n      sub\n        /* \"#utility.yul\":7193:7225   */\n      slt\n        /* \"#utility.yul\":7190:7309   */\n      iszero\n      tag_386\n      jumpi\n        /* \"#utility.yul\":7228:7307   */\n      tag_387\n      tag_253\n      jump\t// in\n    tag_387:\n        /* \"#utility.yul\":7190:7309   */\n    tag_386:\n        /* \"#utility.yul\":7348:7349   */\n      0x00\n        /* \"#utility.yul\":7373:7426   */\n      tag_388\n        /* \"#utility.yul\":7418:7425   */\n      dup7\n        /* \"#utility.yul\":7409:7415   */\n      dup3\n        /* \"#utility.yul\":7398:7407   */\n      dup8\n        /* \"#utility.yul\":7394:7416   */\n      add\n        /* \"#utility.yul\":7373:7426   */\n      tag_256\n      jump\t// in\n    tag_388:\n        /* \"#utility.yul\":7363:7426   */\n      swap4\n      pop\n        /* \"#utility.yul\":7319:7436   */\n      pop\n        /* \"#utility.yul\":7503:7505   */\n      0x20\n        /* \"#utility.yul\":7492:7501   */\n      dup5\n        /* \"#utility.yul\":7488:7506   */\n      add\n        /* \"#utility.yul\":7475:7507   */\n      calldataload\n        /* \"#utility.yul\":7534:7552   */\n      0xffffffffffffffff\n        /* \"#utility.yul\":7526:7532   */\n      dup2\n        /* \"#utility.yul\":7523:7553   */\n      gt\n        /* \"#utility.yul\":7520:7637   */\n      iszero\n      tag_389\n      jumpi\n        /* \"#utility.yul\":7556:7635   */\n      tag_390\n      tag_254\n      jump\t// in\n    tag_390:\n        /* \"#utility.yul\":7520:7637   */\n    tag_389:\n        /* \"#utility.yul\":7669:7733   */\n      tag_391\n        /* \"#utility.yul\":7725:7732   */\n      dup7\n        /* \"#utility.yul\":7716:7722   */\n      dup3\n        /* \"#utility.yul\":7705:7714   */\n      dup8\n        /* \"#utility.yul\":7701:7723   */\n      add\n        /* \"#utility.yul\":7669:7733   */\n      tag_264\n      jump\t// in\n    tag_391:\n        /* \"#utility.yul\":7651:7733   */\n      swap3\n      pop\n      swap3\n      pop\n        /* \"#utility.yul\":7446:7743   */\n      pop\n        /* \"#utility.yul\":7078:7750   */\n      swap3\n      pop\n      swap3\n      pop\n      swap3\n      jump\t// out\n        /* \"#utility.yul\":7756:7832   */\n    tag_273:\n        /* \"#utility.yul\":7792:7799   */\n      0x00\n        /* \"#utility.yul\":7821:7826   */\n      dup2\n        /* \"#utility.yul\":7810:7826   */\n      swap1\n      pop\n        /* \"#utility.yul\":7756:7832   */\n      swap2\n      swap1\n      pop\n      jump\t// out\n        /* \"#utility.yul\":7838:7953   */\n    tag_274:\n        /* \"#utility.yul\":7923:7946   */\n      tag_394\n        /* \"#utility.yul\":7940:7945   */\n      dup2\n        /* \"#utility.yul\":7923:7946   */\n      tag_273\n      jump\t// in\n    tag_394:\n        /* \"#utility.yul\":7918:7921   */\n      dup3\n        /* \"#utility.yul\":7911:7947   */\n      mstore\n        /* \"#utility.yul\":7838:7953   */\n      pop\n      pop\n      jump\t// out\n        /* \"#utility.yul\":7959:8283   */\n    tag_50:\n        /* \"#utility.yul\":8076:8080   */\n      0x00\n        /* \"#utility.yul\":8114:8116   */\n      0x40\n        /* \"#utility.yul\":8103:8112   */\n      dup3\n        /* \"#utility.yul\":8099:8117   */\n      add\n        /* \"#utility.yul\":8091:8117   */\n      swap1\n      pop\n        /* \"#utility.yul\":8127:8196   */\n      tag_396\n        /* \"#utility.yul\":8193:8194   */\n      0x00\n        /* \"#utility.yul\":8182:8191   */\n      dup4\n        /* \"#utility.yul\":8178:8195   */\n      add\n        /* \"#utility.yul\":8169:8175   */\n      dup6\n        /* \"#utility.yul\":8127:8196   */\n      tag_274\n      jump\t// in\n    tag_396:\n        /* \"#utility.yul\":8206:8276   */\n      tag_397\n        /* \"#utility.yul\":8272:8274   */\n      0x20\n        /* \"#utility.yul\":8261:8270   */\n      dup4\n        /* \"#utility.yul\":8257:8275   */\n      add\n        /* \"#utility.yul\":8248:8254   */\n      dup5\n        /* \"#utility.yul\":8206:8276   */\n      tag_274\n      jump\t// in\n    tag_397:\n        /* \"#utility.yul\":7959:8283   */\n      swap4\n      swap3\n      pop\n      pop\n      pop\n      jump\t// out\n        /* \"#utility.yul\":8289:8614   */\n    tag_53:\n        /* \"#utility.yul\":8346:8352   */\n      0x00\n        /* \"#utility.yul\":8395:8397   */\n      0x20\n        /* \"#utility.yul\":8383:8392   */\n      dup3\n        /* \"#utility.yul\":8374:8381   */\n      dup5\n        /* \"#utility.yul\":8370:8393   */\n      sub\n        /* \"#utility.yul\":8366:8398   */\n      slt\n        /* \"#utility.yul\":8363:8482   */\n      iszero\n      tag_399\n      jumpi\n        /* \"#utility.yul\":8401:8480   */\n      tag_400\n      tag_253\n      jump\t// in\n    tag_400:\n        /* \"#utility.yul\":8363:8482   */\n    tag_399:\n        /* \"#utility.yul\":8521:8522   */\n      0x00\n        /* \"#utility.yul\":8546:8597   */\n      tag_401\n        /* \"#utility.yul\":8589:8596   */\n      dup5\n        /* \"#utility.yul\":8580:8586   */\n      dup3\n        /* \"#utility.yul\":8569:8578   */\n      dup6\n        /* \"#utility.yul\":8565:8587   */\n      add\n        /* \"#utility.yul\":8546:8597   */\n      tag_258\n      jump\t// in\n    tag_401:\n        /* \"#utility.yul\":8536:8597   */\n      swap2\n      pop\n        /* \"#utility.yul\":8492:8607   */\n      pop\n        /* \"#utility.yul\":8289:8614   */\n      swap3\n      swap2\n      pop\n      pop\n      jump\t// out\n        /* \"#utility.yul\":8620:8710   */\n    tag_275:\n        /* \"#utility.yul\":8654:8661   */\n      0x00\n        /* \"#utility.yul\":8697:8702   */\n      dup2\n        /* \"#utility.yul\":8690:8703   */\n      iszero\n        /* \"#utility.yul\":8683:8704   */\n      iszero\n        /* \"#utility.yul\":8672:8704   */\n      swap1\n      pop\n        /* \"#utility.yul\":8620:8710   */\n      swap2\n      swap1\n      pop\n      jump\t// out\n        /* \"#utility.yul\":8716:8825   */\n    tag_276:\n        /* \"#utility.yul\":8797:8818   */\n      tag_404\n        /* \"#utility.yul\":8812:8817   */\n      dup2\n        /* \"#utility.yul\":8797:8818   */\n      tag_275\n      jump\t// in\n    tag_404:\n        /* \"#utility.yul\":8792:8795   */\n      dup3\n        /* \"#utility.yul\":8785:8819   */\n      mstore\n        /* \"#utility.yul\":8716:8825   */\n      pop\n      pop\n      jump\t// out\n        /* \"#utility.yul\":8831:9151   */\n    tag_56:\n        /* \"#utility.yul\":8946:8950   */\n      0x00\n        /* \"#utility.yul\":8984:8986   */\n      0x40\n        /* \"#utility.yul\":8973:8982   */\n      dup3\n        /* \"#utility.yul\":8969:8987   */\n      add\n        /* \"#utility.yul\":8961:8987   */\n      swap1\n      pop\n        /* \"#utility.yul\":8997:9062   */\n      tag_406\n        /* \"#utility.yul\":9059:9060   */\n      0x00\n        /* \"#utility.yul\":9048:9057   */\n      dup4\n        /* \"#utility.yul\":9044:9061   */\n      add\n        /* \"#utility.yul\":9035:9041   */\n      dup6\n        /* \"#utility.yul\":8997:9062   */\n      tag_276\n      jump\t// in\n    tag_406:\n        /* \"#utility.yul\":9072:9144   */\n      tag_407\n        /* \"#utility.yul\":9140:9142   */\n      0x20\n        /* \"#utility.yul\":9129:9138   */\n      dup4\n        /* \"#utility.yul\":9125:9143   */\n      add\n        /* \"#utility.yul\":9116:9122   */\n      dup5\n        /* \"#utility.yul\":9072:9144   */\n      tag_248\n      jump\t// in\n    tag_407:\n        /* \"#utility.yul\":8831:9151   */\n      swap4\n      swap3\n      pop\n      pop\n      pop\n      jump\t// out\n        /* \"#utility.yul\":9157:9337   */\n    tag_277:\n        /* \"#utility.yul\":9205:9282   */\n      0x4e487b7100000000000000000000000000000000000000000000000000000000\n        /* \"#utility.yul\":9202:9203   */\n      0x00\n        /* \"#utility.yul\":9195:9283   */\n      mstore\n        /* \"#utility.yul\":9302:9306   */\n      0x11\n        /* \"#utility.yul\":9299:9300   */\n      0x04\n        /* \"#utility.yul\":9292:9307   */\n      mstore\n        /* \"#utility.yul\":9326:9330   */\n      0x24\n        /* \"#utility.yul\":9323:9324   */\n      0x00\n        /* \"#utility.yul\":9316:9331   */\n      revert\n        /* \"#utility.yul\":9343:9569   */\n    tag_61:\n        /* \"#utility.yul\":9377:9380   */\n      0x00\n        /* \"#utility.yul\":9400:9422   */\n      tag_410\n        /* \"#utility.yul\":9416:9421   */\n      dup3\n        /* \"#utility.yul\":9400:9422   */\n      tag_250\n      jump\t// in\n    tag_410:\n        /* \"#utility.yul\":9391:9422   */\n      swap2\n      pop\n        /* \"#utility.yul\":9444:9510   */\n      0xffffffffffffffffffffffffffffffffffffffffffffffffffffffffff800000\n        /* \"#utility.yul\":9437:9442   */\n      dup3\n        /* \"#utility.yul\":9434:9511   */\n      sub\n        /* \"#utility.yul\":9431:9534   */\n      tag_411\n      jumpi\n        /* \"#utility.yul\":9514:9532   */\n      tag_412\n      tag_277\n      jump\t// in\n    tag_412:\n        /* \"#utility.yul\":9431:9534   */\n    tag_411:\n        /* \"#utility.yul\":9557:9562   */\n      dup2\n        /* \"#utility.yul\":9554:9555   */\n      0x00\n        /* \"#utility.yul\":9550:9563   */\n      sub\n        /* \"#utility.yul\":9543:9563   */\n      swap1\n      pop\n        /* \"#utility.yul\":9343:9569   */\n      swap2\n      swap1\n      pop\n      jump\t// out\n        /* \"#utility.yul\":9575:9799   */\n    tag_84:\n        /* \"#utility.yul\":9615:9618   */\n      0x00\n        /* \"#utility.yul\":9634:9654   */\n      tag_414\n        /* \"#utility.yul\":9652:9653   */\n      dup3\n        /* \"#utility.yul\":9634:9654   */\n      tag_247\n      jump\t// in\n    tag_414:\n        /* \"#utility.yul\":9629:9654   */\n      swap2\n      pop\n        /* \"#utility.yul\":9668:9688   */\n      tag_415\n        /* \"#utility.yul\":9686:9687   */\n      dup4\n        /* \"#utility.yul\":9668:9688   */\n      tag_247\n      jump\t// in\n    tag_415:\n        /* \"#utility.yul\":9663:9688   */\n      swap3\n      pop\n        /* \"#utility.yul\":9711:9712   */\n      dup3\n        /* \"#utility.yul\":9708:9709   */\n      dup3\n        /* \"#utility.yul\":9704:9713   */\n      add\n        /* \"#utility.yul\":9697:9713   */\n      swap1\n      pop\n        /* \"#utility.yul\":9734:9768   */\n      0xffffffffffffffffffffffffffffffff\n        /* \"#utility.yul\":9729:9732   */\n      dup2\n        /* \"#utility.yul\":9726:9769   */\n      gt\n        /* \"#utility.yul\":9723:9792   */\n      iszero\n      tag_416\n      jumpi\n        /* \"#utility.yul\":9772:9790   */\n      tag_417\n      tag_277\n      jump\t// in\n    tag_417:\n        /* \"#utility.yul\":9723:9792   */\n    tag_416:\n        /* \"#utility.yul\":9575:9799   */\n      swap3\n      swap2\n      pop\n      pop\n      jump\t// out\n        /* \"#utility.yul\":9805:9973   */\n    tag_278:\n        /* \"#utility.yul\":9888:9899   */\n      0x00\n        /* \"#utility.yul\":9922:9928   */\n      dup3\n        /* \"#utility.yul\":9917:9920   */\n      dup3\n        /* \"#utility.yul\":9910:9929   */\n      mstore\n        /* \"#utility.yul\":9962:9966   */\n      0x20\n        /* \"#utility.yul\":9957:9960   */\n      dup3\n        /* \"#utility.yul\":9953:9967   */\n      add\n        /* \"#utility.yul\":9938:9967   */\n      swap1\n      pop\n        /* \"#utility.yul\":9805:9973   */\n      swap3\n      swap2\n      pop\n      pop\n      jump\t// out\n        /* \"#utility.yul\":9979:10127   */\n    tag_279:\n        /* \"#utility.yul\":10077:10083   */\n      dup3\n        /* \"#utility.yul\":10072:10075   */\n      dup2\n        /* \"#utility.yul\":10067:10070   */\n      dup4\n        /* \"#utility.yul\":10054:10084   */\n      calldatacopy\n        /* \"#utility.yul\":10118:10119   */\n      0x00\n        /* \"#utility.yul\":10109:10115   */\n      dup4\n        /* \"#utility.yul\":10104:10107   */\n      dup4\n        /* \"#utility.yul\":10100:10116   */\n      add\n        /* \"#utility.yul\":10093:10120   */\n      mstore\n        /* \"#utility.yul\":9979:10127   */\n      pop\n      pop\n      pop\n      jump\t// out\n        /* \"#utility.yul\":10133:10235   */\n    tag_280:\n        /* \"#utility.yul\":10174:10180   */\n      0x00\n        /* \"#utility.yul\":10225:10227   */\n      0x1f\n        /* \"#utility.yul\":10221:10228   */\n      not\n        /* \"#utility.yul\":10216:10218   */\n      0x1f\n        /* \"#utility.yul\":10209:10214   */\n      dup4\n        /* \"#utility.yul\":10205:10219   */\n      add\n        /* \"#utility.yul\":10201:10229   */\n      and\n        /* \"#utility.yul\":10191:10229   */\n      swap1\n      pop\n        /* \"#utility.yul\":10133:10235   */\n      swap2\n      swap1\n      pop\n      jump\t// out\n        /* \"#utility.yul\":10263:10577   */\n    tag_281:\n        /* \"#utility.yul\":10359:10362   */\n      0x00\n        /* \"#utility.yul\":10380:10450   */\n      tag_422\n        /* \"#utility.yul\":10443:10449   */\n      dup4\n        /* \"#utility.yul\":10438:10441   */\n      dup6\n        /* \"#utility.yul\":10380:10450   */\n      tag_278\n      jump\t// in\n    tag_422:\n        /* \"#utility.yul\":10373:10450   */\n      swap4\n      pop\n        /* \"#utility.yul\":10460:10516   */\n      tag_423\n        /* \"#utility.yul\":10509:10515   */\n      dup4\n        /* \"#utility.yul\":10504:10507   */\n      dup6\n        /* \"#utility.yul\":10497:10502   */\n      dup5\n        /* \"#utility.yul\":10460:10516   */\n      tag_279\n      jump\t// in\n    tag_423:\n        /* \"#utility.yul\":10541:10570   */\n      tag_424\n        /* \"#utility.yul\":10563:10569   */\n      dup4\n        /* \"#utility.yul\":10541:10570   */\n      tag_280\n      jump\t// in\n    tag_424:\n        /* \"#utility.yul\":10536:10539   */\n      dup5\n        /* \"#utility.yul\":10532:10571   */\n      add\n        /* \"#utility.yul\":10525:10571   */\n      swap1\n      pop\n        /* \"#utility.yul\":10263:10577   */\n      swap4\n      swap3\n      pop\n      pop\n      pop\n      jump\t// out\n        /* \"#utility.yul\":10583:11132   */\n    tag_92:\n        /* \"#utility.yul\":10760:10764   */\n      0x00\n        /* \"#utility.yul\":10798:10800   */\n      0x60\n        /* \"#utility.yul\":10787:10796   */\n      dup3\n        /* \"#utility.yul\":10783:10801   */\n      add\n        /* \"#utility.yul\":10775:10801   */\n      swap1\n      pop\n        /* \"#utility.yul\":10811:10882   */\n      tag_426\n        /* \"#utility.yul\":10879:10880   */\n      0x00\n        /* \"#utility.yul\":10868:10877   */\n      dup4\n        /* \"#utility.yul\":10864:10881   */\n      add\n        /* \"#utility.yul\":10855:10861   */\n      dup8\n        /* \"#utility.yul\":10811:10882   */\n      tag_266\n      jump\t// in\n    tag_426:\n        /* \"#utility.yul\":10892:10964   */\n      tag_427\n        /* \"#utility.yul\":10960:10962   */\n      0x20\n        /* \"#utility.yul\":10949:10958   */\n      dup4\n        /* \"#utility.yul\":10945:10963   */\n      add\n        /* \"#utility.yul\":10936:10942   */\n      dup7\n        /* \"#utility.yul\":10892:10964   */\n      tag_266\n      jump\t// in\n    tag_427:\n        /* \"#utility.yul\":11011:11020   */\n      dup2\n        /* \"#utility.yul\":11005:11009   */\n      dup2\n        /* \"#utility.yul\":11001:11021   */\n      sub\n        /* \"#utility.yul\":10996:10998   */\n      0x40\n        /* \"#utility.yul\":10985:10994   */\n      dup4\n        /* \"#utility.yul\":10981:10999   */\n      add\n        /* \"#utility.yul\":10974:11022   */\n      mstore\n        /* \"#utility.yul\":11039:11125   */\n      tag_428\n        /* \"#utility.yul\":11120:11124   */\n      dup2\n        /* \"#utility.yul\":11111:11117   */\n      dup5\n        /* \"#utility.yul\":11103:11109   */\n      dup7\n        /* \"#utility.yul\":11039:11125   */\n      tag_281\n      jump\t// in\n    tag_428:\n        /* \"#utility.yul\":11031:11125   */\n      swap1\n      pop\n        /* \"#utility.yul\":10583:11132   */\n      swap6\n      swap5\n      pop\n      pop\n      pop\n      pop\n      pop\n      jump\t// out\n        /* \"#utility.yul\":11138:11329   */\n    tag_99:\n        /* \"#utility.yul\":11178:11181   */\n      0x00\n        /* \"#utility.yul\":11197:11217   */\n      tag_430\n        /* \"#utility.yul\":11215:11216   */\n      dup3\n        /* \"#utility.yul\":11197:11217   */\n      tag_265\n      jump\t// in\n    tag_430:\n        /* \"#utility.yul\":11192:11217   */\n      swap2\n      pop\n        /* \"#utility.yul\":11231:11251   */\n      tag_431\n        /* \"#utility.yul\":11249:11250   */\n      dup4\n        /* \"#utility.yul\":11231:11251   */\n      tag_265\n      jump\t// in\n    tag_431:\n        /* \"#utility.yul\":11226:11251   */\n      swap3\n      pop\n        /* \"#utility.yul\":11274:11275   */\n      dup3\n        /* \"#utility.yul\":11271:11272   */\n      dup3\n        /* \"#utility.yul\":11267:11276   */\n      add\n        /* \"#utility.yul\":11260:11276   */\n      swap1\n      pop\n        /* \"#utility.yul\":11295:11298   */\n      dup1\n        /* \"#utility.yul\":11292:11293   */\n      dup3\n        /* \"#utility.yul\":11289:11299   */\n      gt\n        /* \"#utility.yul\":11286:11322   */\n      iszero\n      tag_432\n      jumpi\n        /* \"#utility.yul\":11302:11320   */\n      tag_433\n      tag_277\n      jump\t// in\n    tag_433:\n        /* \"#utility.yul\":11286:11322   */\n    tag_432:\n        /* \"#utility.yul\":11138:11329   */\n      swap3\n      swap2\n      pop\n      pop\n      jump\t// out\n        /* \"#utility.yul\":11335:11888   */\n    tag_106:\n        /* \"#utility.yul\":11512:11516   */\n      0x00\n        /* \"#utility.yul\":11550:11553   */\n      0x80\n        /* \"#utility.yul\":11539:11548   */\n      dup3\n        /* \"#utility.yul\":11535:11554   */\n      add\n        /* \"#utility.yul\":11527:11554   */\n      swap1\n      pop\n        /* \"#utility.yul\":11564:11635   */\n      tag_435\n        /* \"#utility.yul\":11632:11633   */\n      0x00\n        /* \"#utility.yul\":11621:11630   */\n      dup4\n        /* \"#utility.yul\":11617:11634   */\n      add\n        /* \"#utility.yul\":11608:11614   */\n      dup8\n        /* \"#utility.yul\":11564:11635   */\n      tag_246\n      jump\t// in\n    tag_435:\n        /* \"#utility.yul\":11645:11717   */\n      tag_436\n        /* \"#utility.yul\":11713:11715   */\n      0x20\n        /* \"#utility.yul\":11702:11711   */\n      dup4\n        /* \"#utility.yul\":11698:11716   */\n      add\n        /* \"#utility.yul\":11689:11695   */\n      dup7\n        /* \"#utility.yul\":11645:11717   */\n      tag_248\n      jump\t// in\n    tag_436:\n        /* \"#utility.yul\":11727:11799   */\n      tag_437\n        /* \"#utility.yul\":11795:11797   */\n      0x40\n        /* \"#utility.yul\":11784:11793   */\n      dup4\n        /* \"#utility.yul\":11780:11798   */\n      add\n        /* \"#utility.yul\":11771:11777   */\n      dup6\n        /* \"#utility.yul\":11727:11799   */\n      tag_266\n      jump\t// in\n    tag_437:\n        /* \"#utility.yul\":11809:11881   */\n      tag_438\n        /* \"#utility.yul\":11877:11879   */\n      0x60\n        /* \"#utility.yul\":11866:11875   */\n      dup4\n        /* \"#utility.yul\":11862:11880   */\n      add\n        /* \"#utility.yul\":11853:11859   */\n      dup5\n        /* \"#utility.yul\":11809:11881   */\n      tag_266\n      jump\t// in\n    tag_438:\n        /* \"#utility.yul\":11335:11888   */\n      swap6\n      swap5\n      pop\n      pop\n      pop\n      pop\n      pop\n      jump\t// out\n        /* \"#utility.yul\":11894:12122   */\n    tag_109:\n        /* \"#utility.yul\":11929:11932   */\n      0x00\n        /* \"#utility.yul\":11952:11975   */\n      tag_440\n        /* \"#utility.yul\":11969:11974   */\n      dup3\n        /* \"#utility.yul\":11952:11975   */\n      tag_273\n      jump\t// in\n    tag_440:\n        /* \"#utility.yul\":11943:11975   */\n      swap2\n      pop\n        /* \"#utility.yul\":11997:12063   */\n      0x8000000000000000000000000000000000000000000000000000000000000000\n        /* \"#utility.yul\":11990:11995   */\n      dup3\n        /* \"#utility.yul\":11987:12064   */\n      sub\n        /* \"#utility.yul\":11984:12087   */\n      tag_441\n      jumpi\n        /* \"#utility.yul\":12067:12085   */\n      tag_442\n      tag_277\n      jump\t// in\n    tag_442:\n        /* \"#utility.yul\":11984:12087   */\n    tag_441:\n        /* \"#utility.yul\":12110:12115   */\n      dup2\n        /* \"#utility.yul\":12107:12108   */\n      0x00\n        /* \"#utility.yul\":12103:12116   */\n      sub\n        /* \"#utility.yul\":12096:12116   */\n      swap1\n      pop\n        /* \"#utility.yul\":11894:12122   */\n      swap2\n      swap1\n      pop\n      jump\t// out\n        /* \"#utility.yul\":12128:12460   */\n    tag_111:\n        /* \"#utility.yul\":12249:12253   */\n      0x00\n        /* \"#utility.yul\":12287:12289   */\n      0x40\n        /* \"#utility.yul\":12276:12285   */\n      dup3\n        /* \"#utility.yul\":12272:12290   */\n      add\n        /* \"#utility.yul\":12264:12290   */\n      swap1\n      pop\n        /* \"#utility.yul\":12300:12371   */\n      tag_444\n        /* \"#utility.yul\":12368:12369   */\n      0x00\n        /* \"#utility.yul\":12357:12366   */\n      dup4\n        /* \"#utility.yul\":12353:12370   */\n      add\n        /* \"#utility.yul\":12344:12350   */\n      dup6\n        /* \"#utility.yul\":12300:12371   */\n      tag_246\n      jump\t// in\n    tag_444:\n        /* \"#utility.yul\":12381:12453   */\n      tag_445\n        /* \"#utility.yul\":12449:12451   */\n      0x20\n        /* \"#utility.yul\":12438:12447   */\n      dup4\n        /* \"#utility.yul\":12434:12452   */\n      add\n        /* \"#utility.yul\":12425:12431   */\n      dup5\n        /* \"#utility.yul\":12381:12453   */\n      tag_266\n      jump\t// in\n    tag_445:\n        /* \"#utility.yul\":12128:12460   */\n      swap4\n      swap3\n      pop\n      pop\n      pop\n      jump\t// out\n        /* \"#utility.yul\":12466:12582   */\n    tag_282:\n        /* \"#utility.yul\":12536:12557   */\n      tag_447\n        /* \"#utility.yul\":12551:12556   */\n      dup2\n        /* \"#utility.yul\":12536:12557   */\n      tag_275\n      jump\t// in\n    tag_447:\n        /* \"#utility.yul\":12529:12534   */\n      dup2\n        /* \"#utility.yul\":12526:12558   */\n      eq\n        /* \"#utility.yul\":12516:12576   */\n      tag_448\n      jumpi\n        /* \"#utility.yul\":12572:12573   */\n      0x00\n        /* \"#utility.yul\":12569:12570   */\n      0x00\n        /* \"#utility.yul\":12562:12574   */\n      revert\n        /* \"#utility.yul\":12516:12576   */\n    tag_448:\n        /* \"#utility.yul\":12466:12582   */\n      pop\n      jump\t// out\n        /* \"#utility.yul\":12588:12725   */\n    tag_283:\n        /* \"#utility.yul\":12642:12647   */\n      0x00\n        /* \"#utility.yul\":12673:12679   */\n      dup2\n        /* \"#utility.yul\":12667:12680   */\n      mload\n        /* \"#utility.yul\":12658:12680   */\n      swap1\n      pop\n        /* \"#utility.yul\":12689:12719   */\n      tag_450\n        /* \"#utility.yul\":12713:12718   */\n      dup2\n        /* \"#utility.yul\":12689:12719   */\n      tag_282\n      jump\t// in\n    tag_450:\n        /* \"#utility.yul\":12588:12725   */\n      swap3\n      swap2\n      pop\n      pop\n      jump\t// out\n        /* \"#utility.yul\":12731:13076   */\n    tag_115:\n        /* \"#utility.yul\":12798:12804   */\n      0x00\n        /* \"#utility.yul\":12847:12849   */\n      0x20\n        /* \"#utility.yul\":12835:12844   */\n      dup3\n        /* \"#utility.yul\":12826:12833   */\n      dup5\n        /* \"#utility.yul\":12822:12845   */\n      sub\n        /* \"#utility.yul\":12818:12850   */\n      slt\n        /* \"#utility.yul\":12815:12934   */\n      iszero\n      tag_452\n      jumpi\n        /* \"#utility.yul\":12853:12932   */\n      tag_453\n      tag_253\n      jump\t// in\n    tag_453:\n        /* \"#utility.yul\":12815:12934   */\n    tag_452:\n        /* \"#utility.yul\":12973:12974   */\n      0x00\n        /* \"#utility.yul\":12998:13059   */\n      tag_454\n        /* \"#utility.yul\":13051:13058   */\n      dup5\n        /* \"#utility.yul\":13042:13048   */\n      dup3\n        /* \"#utility.yul\":13031:13040   */\n      dup6\n        /* \"#utility.yul\":13027:13049   */\n      add\n        /* \"#utility.yul\":12998:13059   */\n      tag_283\n      jump\t// in\n    tag_454:\n        /* \"#utility.yul\":12988:13059   */\n      swap2\n      pop\n        /* \"#utility.yul\":12944:13069   */\n      pop\n        /* \"#utility.yul\":12731:13076   */\n      swap3\n      swap2\n      pop\n      pop\n      jump\t// out\n        /* \"#utility.yul\":13082:13623   */\n    tag_118:\n        /* \"#utility.yul\":13255:13259   */\n      0x00\n        /* \"#utility.yul\":13293:13295   */\n      0x60\n        /* \"#utility.yul\":13282:13291   */\n      dup3\n        /* \"#utility.yul\":13278:13296   */\n      add\n        /* \"#utility.yul\":13270:13296   */\n      swap1\n      pop\n        /* \"#utility.yul\":13306:13375   */\n      tag_456\n        /* \"#utility.yul\":13372:13373   */\n      0x00\n        /* \"#utility.yul\":13361:13370   */\n      dup4\n        /* \"#utility.yul\":13357:13374   */\n      add\n        /* \"#utility.yul\":13348:13354   */\n      dup8\n        /* \"#utility.yul\":13306:13375   */\n      tag_274\n      jump\t// in\n    tag_456:\n        /* \"#utility.yul\":13385:13455   */\n      tag_457\n        /* \"#utility.yul\":13451:13453   */\n      0x20\n        /* \"#utility.yul\":13440:13449   */\n      dup4\n        /* \"#utility.yul\":13436:13454   */\n      add\n        /* \"#utility.yul\":13427:13433   */\n      dup7\n        /* \"#utility.yul\":13385:13455   */\n      tag_274\n      jump\t// in\n    tag_457:\n        /* \"#utility.yul\":13502:13511   */\n      dup2\n        /* \"#utility.yul\":13496:13500   */\n      dup2\n        /* \"#utility.yul\":13492:13512   */\n      sub\n        /* \"#utility.yul\":13487:13489   */\n      0x40\n        /* \"#utility.yul\":13476:13485   */\n      dup4\n        /* \"#utility.yul\":13472:13490   */\n      add\n        /* \"#utility.yul\":13465:13513   */\n      mstore\n        /* \"#utility.yul\":13530:13616   */\n      tag_458\n        /* \"#utility.yul\":13611:13615   */\n      dup2\n        /* \"#utility.yul\":13602:13608   */\n      dup5\n        /* \"#utility.yul\":13594:13600   */\n      dup7\n        /* \"#utility.yul\":13530:13616   */\n      tag_281\n      jump\t// in\n    tag_458:\n        /* \"#utility.yul\":13522:13616   */\n      swap1\n      pop\n        /* \"#utility.yul\":13082:13623   */\n      swap6\n      swap5\n      pop\n      pop\n      pop\n      pop\n      pop\n      jump\t// out\n        /* \"#utility.yul\":13629:14277   */\n    tag_126:\n        /* \"#utility.yul\":13826:13830   */\n      0x00\n        /* \"#utility.yul\":13864:13867   */\n      0xa0\n        /* \"#utility.yul\":13853:13862   */\n      dup3\n        /* \"#utility.yul\":13849:13868   */\n      add\n        /* \"#utility.yul\":13841:13868   */\n      swap1\n      pop\n        /* \"#utility.yul\":13878:13947   */\n      tag_460\n        /* \"#utility.yul\":13944:13945   */\n      0x00\n        /* \"#utility.yul\":13933:13942   */\n      dup4\n        /* \"#utility.yul\":13929:13946   */\n      add\n        /* \"#utility.yul\":13920:13926   */\n      dup9\n        /* \"#utility.yul\":13878:13947   */\n      tag_274\n      jump\t// in\n    tag_460:\n        /* \"#utility.yul\":13957:14027   */\n      tag_461\n        /* \"#utility.yul\":14023:14025   */\n      0x20\n        /* \"#utility.yul\":14012:14021   */\n      dup4\n        /* \"#utility.yul\":14008:14026   */\n      add\n        /* \"#utility.yul\":13999:14005   */\n      dup8\n        /* \"#utility.yul\":13957:14027   */\n      tag_274\n      jump\t// in\n    tag_461:\n        /* \"#utility.yul\":14037:14109   */\n      tag_462\n        /* \"#utility.yul\":14105:14107   */\n      0x40\n        /* \"#utility.yul\":14094:14103   */\n      dup4\n        /* \"#utility.yul\":14090:14108   */\n      add\n        /* \"#utility.yul\":14081:14087   */\n      dup7\n        /* \"#utility.yul\":14037:14109   */\n      tag_249\n      jump\t// in\n    tag_462:\n        /* \"#utility.yul\":14119:14191   */\n      tag_463\n        /* \"#utility.yul\":14187:14189   */\n      0x60\n        /* \"#utility.yul\":14176:14185   */\n      dup4\n        /* \"#utility.yul\":14172:14190   */\n      add\n        /* \"#utility.yul\":14163:14169   */\n      dup6\n        /* \"#utility.yul\":14119:14191   */\n      tag_248\n      jump\t// in\n    tag_463:\n        /* \"#utility.yul\":14201:14270   */\n      tag_464\n        /* \"#utility.yul\":14265:14268   */\n      0x80\n        /* \"#utility.yul\":14254:14263   */\n      dup4\n        /* \"#utility.yul\":14250:14269   */\n      add\n        /* \"#utility.yul\":14241:14247   */\n      dup5\n        /* \"#utility.yul\":14201:14270   */\n      tag_251\n      jump\t// in\n    tag_464:\n        /* \"#utility.yul\":13629:14277   */\n      swap7\n      swap6\n      pop\n      pop\n      pop\n      pop\n      pop\n      pop\n      jump\t// out\n        /* \"#utility.yul\":14283:14463   */\n    tag_231:\n        /* \"#utility.yul\":14331:14408   */\n      0x4e487b7100000000000000000000000000000000000000000000000000000000\n        /* \"#utility.yul\":14328:14329   */\n      0x00\n        /* \"#utility.yul\":14321:14409   */\n      mstore\n        /* \"#utility.yul\":14428:14432   */\n      0x12\n        /* \"#utility.yul\":14425:14426   */\n      0x04\n        /* \"#utility.yul\":14418:14433   */\n      mstore\n        /* \"#utility.yul\":14452:14456   */\n      0x24\n        /* \"#utility.yul\":14449:14450   */\n      0x00\n        /* \"#utility.yul\":14442:14457   */\n      revert\n        /* \"#utility.yul\":14469:14640   */\n    tag_132:\n        /* \"#utility.yul\":14499:14500   */\n      0x00\n        /* \"#utility.yul\":14516:14534   */\n      tag_467\n        /* \"#utility.yul\":14532:14533   */\n      dup3\n        /* \"#utility.yul\":14516:14534   */\n      tag_250\n      jump\t// in\n    tag_467:\n        /* \"#utility.yul\":14511:14534   */\n      swap2\n      pop\n        /* \"#utility.yul\":14548:14566   */\n      tag_468\n        /* \"#utility.yul\":14564:14565   */\n      dup4\n        /* \"#utility.yul\":14548:14566   */\n      tag_250\n      jump\t// in\n    tag_468:\n        /* \"#utility.yul\":14543:14566   */\n      swap3\n      pop\n        /* \"#utility.yul\":14585:14586   */\n      dup3\n        /* \"#utility.yul\":14575:14610   */\n      tag_469\n      jumpi\n        /* \"#utility.yul\":14590:14608   */\n      tag_470\n      tag_231\n      jump\t// in\n    tag_470:\n        /* \"#utility.yul\":14575:14610   */\n    tag_469:\n        /* \"#utility.yul\":14632:14633   */\n      dup3\n        /* \"#utility.yul\":14629:14630   */\n      dup3\n        /* \"#utility.yul\":14624:14634   */\n      smod\n        /* \"#utility.yul\":14619:14634   */\n      swap1\n      pop\n        /* \"#utility.yul\":14469:14640   */\n      swap3\n      swap2\n      pop\n      pop\n      jump\t// out\n        /* \"#utility.yul\":14646:15028   */\n    tag_136:\n        /* \"#utility.yul\":14684:14685   */\n      0x00\n        /* \"#utility.yul\":14701:14719   */\n      tag_472\n        /* \"#utility.yul\":14717:14718   */\n      dup3\n        /* \"#utility.yul\":14701:14719   */\n      tag_250\n      jump\t// in\n    tag_472:\n        /* \"#utility.yul\":14696:14719   */\n      swap2\n      pop\n        /* \"#utility.yul\":14733:14751   */\n      tag_473\n        /* \"#utility.yul\":14749:14750   */\n      dup4\n        /* \"#utility.yul\":14733:14751   */\n      tag_250\n      jump\t// in\n    tag_473:\n        /* \"#utility.yul\":14728:14751   */\n      swap3\n      pop\n        /* \"#utility.yul\":14770:14771   */\n      dup3\n        /* \"#utility.yul\":14760:14795   */\n      tag_474\n      jumpi\n        /* \"#utility.yul\":14775:14793   */\n      tag_475\n      tag_231\n      jump\t// in\n    tag_475:\n        /* \"#utility.yul\":14760:14795   */\n    tag_474:\n        /* \"#utility.yul\":14961:14962   */\n      0x01\n        /* \"#utility.yul\":14958:14959   */\n      0x00\n        /* \"#utility.yul\":14954:14963   */\n      sub\n        /* \"#utility.yul\":14951:14952   */\n      dup4\n        /* \"#utility.yul\":14948:14964   */\n      eq\n        /* \"#utility.yul\":14867:14933   */\n      0xffffffffffffffffffffffffffffffffffffffffffffffffffffffffff800000\n        /* \"#utility.yul\":14864:14865   */\n      dup4\n        /* \"#utility.yul\":14861:14934   */\n      eq\n        /* \"#utility.yul\":14844:14974   */\n      and\n        /* \"#utility.yul\":14841:14997   */\n      iszero\n      tag_476\n      jumpi\n        /* \"#utility.yul\":14977:14995   */\n      tag_477\n      tag_277\n      jump\t// in\n    tag_477:\n        /* \"#utility.yul\":14841:14997   */\n    tag_476:\n        /* \"#utility.yul\":15020:15021   */\n      dup3\n        /* \"#utility.yul\":15017:15018   */\n      dup3\n        /* \"#utility.yul\":15012:15022   */\n      sdiv\n        /* \"#utility.yul\":15007:15022   */\n      swap1\n      pop\n        /* \"#utility.yul\":14646:15028   */\n      swap3\n      swap2\n      pop\n      pop\n      jump\t// out\n        /* \"#utility.yul\":15034:15128   */\n    tag_284:\n        /* \"#utility.yul\":15067:15075   */\n      0x00\n        /* \"#utility.yul\":15115:15120   */\n      dup2\n        /* \"#utility.yul\":15111:15113   */\n      0x60\n        /* \"#utility.yul\":15107:15121   */\n      shl\n        /* \"#utility.yul\":15086:15121   */\n      swap1\n      pop\n        /* \"#utility.yul\":15034:15128   */\n      swap2\n      swap1\n      pop\n      jump\t// out\n        /* \"#utility.yul\":15134:15228   */\n    tag_285:\n        /* \"#utility.yul\":15173:15180   */\n      0x00\n        /* \"#utility.yul\":15202:15222   */\n      tag_480\n        /* \"#utility.yul\":15216:15221   */\n      dup3\n        /* \"#utility.yul\":15202:15222   */\n      tag_284\n      jump\t// in\n    tag_480:\n        /* \"#utility.yul\":15191:15222   */\n      swap1\n      pop\n        /* \"#utility.yul\":15134:15228   */\n      swap2\n      swap1\n      pop\n      jump\t// out\n        /* \"#utility.yul\":15234:15334   */\n    tag_286:\n        /* \"#utility.yul\":15273:15280   */\n      0x00\n        /* \"#utility.yul\":15302:15328   */\n      tag_482\n        /* \"#utility.yul\":15322:15327   */\n      dup3\n        /* \"#utility.yul\":15302:15328   */\n      tag_285\n      jump\t// in\n    tag_482:\n        /* \"#utility.yul\":15291:15328   */\n      swap1\n      pop\n        /* \"#utility.yul\":15234:15334   */\n      swap2\n      swap1\n      pop\n      jump\t// out\n        /* \"#utility.yul\":15340:15497   */\n    tag_287:\n        /* \"#utility.yul\":15445:15490   */\n      tag_484\n        /* \"#utility.yul\":15465:15489   */\n      tag_485\n        /* \"#utility.yul\":15483:15488   */\n      dup3\n        /* \"#utility.yul\":15465:15489   */\n      tag_245\n      jump\t// in\n    tag_485:\n        /* \"#utility.yul\":15445:15490   */\n      tag_286\n      jump\t// in\n    tag_484:\n        /* \"#utility.yul\":15440:15443   */\n      dup3\n        /* \"#utility.yul\":15433:15491   */\n      mstore\n        /* \"#utility.yul\":15340:15497   */\n      pop\n      pop\n      jump\t// out\n        /* \"#utility.yul\":15503:15599   */\n    tag_288:\n        /* \"#utility.yul\":15537:15545   */\n      0x00\n        /* \"#utility.yul\":15586:15591   */\n      dup2\n        /* \"#utility.yul\":15581:15584   */\n      0xe8\n        /* \"#utility.yul\":15577:15592   */\n      shl\n        /* \"#utility.yul\":15556:15592   */\n      swap1\n      pop\n        /* \"#utility.yul\":15503:15599   */\n      swap2\n      swap1\n      pop\n      jump\t// out\n        /* \"#utility.yul\":15605:15698   */\n    tag_289:\n        /* \"#utility.yul\":15642:15649   */\n      0x00\n        /* \"#utility.yul\":15671:15692   */\n      tag_488\n        /* \"#utility.yul\":15686:15691   */\n      dup3\n        /* \"#utility.yul\":15671:15692   */\n      tag_288\n      jump\t// in\n    tag_488:\n        /* \"#utility.yul\":15660:15692   */\n      swap1\n      pop\n        /* \"#utility.yul\":15605:15698   */\n      swap2\n      swap1\n      pop\n      jump\t// out\n        /* \"#utility.yul\":15704:15853   */\n    tag_290:\n        /* \"#utility.yul\":15805:15846   */\n      tag_490\n        /* \"#utility.yul\":15823:15845   */\n      tag_491\n        /* \"#utility.yul\":15839:15844   */\n      dup3\n        /* \"#utility.yul\":15823:15845   */\n      tag_250\n      jump\t// in\n    tag_491:\n        /* \"#utility.yul\":15805:15846   */\n      tag_289\n      jump\t// in\n    tag_490:\n        /* \"#utility.yul\":15800:15803   */\n      dup3\n        /* \"#utility.yul\":15793:15847   */\n      mstore\n        /* \"#utility.yul\":15704:15853   */\n      pop\n      pop\n      jump\t// out\n        /* \"#utility.yul\":15859:16379   */\n    tag_140:\n        /* \"#utility.yul\":16019:16022   */\n      0x00\n        /* \"#utility.yul\":16034:16109   */\n      tag_493\n        /* \"#utility.yul\":16105:16108   */\n      dup3\n        /* \"#utility.yul\":16096:16102   */\n      dup7\n        /* \"#utility.yul\":16034:16109   */\n      tag_287\n      jump\t// in\n    tag_493:\n        /* \"#utility.yul\":16134:16136   */\n      0x14\n        /* \"#utility.yul\":16129:16132   */\n      dup3\n        /* \"#utility.yul\":16125:16137   */\n      add\n        /* \"#utility.yul\":16118:16137   */\n      swap2\n      pop\n        /* \"#utility.yul\":16147:16218   */\n      tag_494\n        /* \"#utility.yul\":16214:16217   */\n      dup3\n        /* \"#utility.yul\":16205:16211   */\n      dup6\n        /* \"#utility.yul\":16147:16218   */\n      tag_290\n      jump\t// in\n    tag_494:\n        /* \"#utility.yul\":16243:16244   */\n      0x03\n        /* \"#utility.yul\":16238:16241   */\n      dup3\n        /* \"#utility.yul\":16234:16245   */\n      add\n        /* \"#utility.yul\":16227:16245   */\n      swap2\n      pop\n        /* \"#utility.yul\":16255:16326   */\n      tag_495\n        /* \"#utility.yul\":16322:16325   */\n      dup3\n        /* \"#utility.yul\":16313:16319   */\n      dup5\n        /* \"#utility.yul\":16255:16326   */\n      tag_290\n      jump\t// in\n    tag_495:\n        /* \"#utility.yul\":16351:16352   */\n      0x03\n        /* \"#utility.yul\":16346:16349   */\n      dup3\n        /* \"#utility.yul\":16342:16353   */\n      add\n        /* \"#utility.yul\":16335:16353   */\n      swap2\n      pop\n        /* \"#utility.yul\":16370:16373   */\n      dup2\n        /* \"#utility.yul\":16363:16373   */\n      swap1\n      pop\n        /* \"#utility.yul\":15859:16379   */\n      swap5\n      swap4\n      pop\n      pop\n      pop\n      pop\n      jump\t// out\n        /* \"#utility.yul\":16385:16554   */\n    tag_291:\n        /* \"#utility.yul\":16469:16480   */\n      0x00\n        /* \"#utility.yul\":16503:16509   */\n      dup3\n        /* \"#utility.yul\":16498:16501   */\n      dup3\n        /* \"#utility.yul\":16491:16510   */\n      mstore\n        /* \"#utility.yul\":16543:16547   */\n      0x20\n        /* \"#utility.yul\":16538:16541   */\n      dup3\n        /* \"#utility.yul\":16534:16548   */\n      add\n        /* \"#utility.yul\":16519:16548   */\n      swap1\n      pop\n        /* \"#utility.yul\":16385:16554   */\n      swap3\n      swap2\n      pop\n      pop\n      jump\t// out\n        /* \"#utility.yul\":16560:16711   */\n    tag_292:\n        /* \"#utility.yul\":16700:16703   */\n      0x5400000000000000000000000000000000000000000000000000000000000000\n        /* \"#utility.yul\":16696:16697   */\n      0x00\n        /* \"#utility.yul\":16688:16694   */\n      dup3\n        /* \"#utility.yul\":16684:16698   */\n      add\n        /* \"#utility.yul\":16677:16704   */\n      mstore\n        /* \"#utility.yul\":16560:16711   */\n      pop\n      jump\t// out\n        /* \"#utility.yul\":16717:17082   */\n    tag_293:\n        /* \"#utility.yul\":16859:16862   */\n      0x00\n        /* \"#utility.yul\":16880:16946   */\n      tag_499\n        /* \"#utility.yul\":16944:16945   */\n      0x01\n        /* \"#utility.yul\":16939:16942   */\n      dup4\n        /* \"#utility.yul\":16880:16946   */\n      tag_291\n      jump\t// in\n    tag_499:\n        /* \"#utility.yul\":16873:16946   */\n      swap2\n      pop\n        /* \"#utility.yul\":16955:17048   */\n      tag_500\n        /* \"#utility.yul\":17044:17047   */\n      dup3\n        /* \"#utility.yul\":16955:17048   */\n      tag_292\n      jump\t// in\n    tag_500:\n        /* \"#utility.yul\":17073:17075   */\n      0x20\n        /* \"#utility.yul\":17068:17071   */\n      dup3\n        /* \"#utility.yul\":17064:17076   */\n      add\n        /* \"#utility.yul\":17057:17076   */\n      swap1\n      pop\n        /* \"#utility.yul\":16717:17082   */\n      swap2\n      swap1\n      pop\n      jump\t// out\n        /* \"#utility.yul\":17088:17507   */\n    tag_150:\n        /* \"#utility.yul\":17254:17258   */\n      0x00\n        /* \"#utility.yul\":17292:17294   */\n      0x20\n        /* \"#utility.yul\":17281:17290   */\n      dup3\n        /* \"#utility.yul\":17277:17295   */\n      add\n        /* \"#utility.yul\":17269:17295   */\n      swap1\n      pop\n        /* \"#utility.yul\":17341:17350   */\n      dup2\n        /* \"#utility.yul\":17335:17339   */\n      dup2\n        /* \"#utility.yul\":17331:17351   */\n      sub\n        /* \"#utility.yul\":17327:17328   */\n      0x00\n        /* \"#utility.yul\":17316:17325   */\n      dup4\n        /* \"#utility.yul\":17312:17329   */\n      add\n        /* \"#utility.yul\":17305:17352   */\n      mstore\n        /* \"#utility.yul\":17369:17500   */\n      tag_502\n        /* \"#utility.yul\":17495:17499   */\n      dup2\n        /* \"#utility.yul\":17369:17500   */\n      tag_293\n      jump\t// in\n    tag_502:\n        /* \"#utility.yul\":17361:17500   */\n      swap1\n      pop\n        /* \"#utility.yul\":17088:17507   */\n      swap2\n      swap1\n      pop\n      jump\t// out\n        /* \"#utility.yul\":17513:17923   */\n    tag_155:\n        /* \"#utility.yul\":17553:17560   */\n      0x00\n        /* \"#utility.yul\":17576:17596   */\n      tag_504\n        /* \"#utility.yul\":17594:17595   */\n      dup3\n        /* \"#utility.yul\":17576:17596   */\n      tag_265\n      jump\t// in\n    tag_504:\n        /* \"#utility.yul\":17571:17596   */\n      swap2\n      pop\n        /* \"#utility.yul\":17610:17630   */\n      tag_505\n        /* \"#utility.yul\":17628:17629   */\n      dup4\n        /* \"#utility.yul\":17610:17630   */\n      tag_265\n      jump\t// in\n    tag_505:\n        /* \"#utility.yul\":17605:17630   */\n      swap3\n      pop\n        /* \"#utility.yul\":17665:17666   */\n      dup3\n        /* \"#utility.yul\":17662:17663   */\n      dup3\n        /* \"#utility.yul\":17658:17667   */\n      mul\n        /* \"#utility.yul\":17687:17717   */\n      tag_506\n        /* \"#utility.yul\":17705:17716   */\n      dup2\n        /* \"#utility.yul\":17687:17717   */\n      tag_265\n      jump\t// in\n    tag_506:\n        /* \"#utility.yul\":17676:17717   */\n      swap2\n      pop\n        /* \"#utility.yul\":17866:17867   */\n      dup3\n        /* \"#utility.yul\":17857:17864   */\n      dup3\n        /* \"#utility.yul\":17853:17868   */\n      div\n        /* \"#utility.yul\":17850:17851   */\n      dup5\n        /* \"#utility.yul\":17847:17869   */\n      eq\n        /* \"#utility.yul\":17827:17828   */\n      dup4\n        /* \"#utility.yul\":17820:17829   */\n      iszero\n        /* \"#utility.yul\":17800:17883   */\n      or\n        /* \"#utility.yul\":17777:17916   */\n      tag_507\n      jumpi\n        /* \"#utility.yul\":17896:17914   */\n      tag_508\n      tag_277\n      jump\t// in\n    tag_508:\n        /* \"#utility.yul\":17777:17916   */\n    tag_507:\n        /* \"#utility.yul\":17561:17923   */\n      pop\n        /* \"#utility.yul\":17513:17923   */\n      swap3\n      swap2\n      pop\n      pop\n      jump\t// out\n        /* \"#utility.yul\":17929:18114   */\n    tag_194:\n        /* \"#utility.yul\":17969:17970   */\n      0x00\n        /* \"#utility.yul\":17986:18006   */\n      tag_510\n        /* \"#utility.yul\":18004:18005   */\n      dup3\n        /* \"#utility.yul\":17986:18006   */\n      tag_265\n      jump\t// in\n    tag_510:\n        /* \"#utility.yul\":17981:18006   */\n      swap2\n      pop\n        /* \"#utility.yul\":18020:18040   */\n      tag_511\n        /* \"#utility.yul\":18038:18039   */\n      dup4\n        /* \"#utility.yul\":18020:18040   */\n      tag_265\n      jump\t// in\n    tag_511:\n        /* \"#utility.yul\":18015:18040   */\n      swap3\n      pop\n        /* \"#utility.yul\":18059:18060   */\n      dup3\n        /* \"#utility.yul\":18049:18084   */\n      tag_512\n      jumpi\n        /* \"#utility.yul\":18064:18082   */\n      tag_513\n      tag_231\n      jump\t// in\n    tag_513:\n        /* \"#utility.yul\":18049:18084   */\n    tag_512:\n        /* \"#utility.yul\":18106:18107   */\n      dup3\n        /* \"#utility.yul\":18103:18104   */\n      dup3\n        /* \"#utility.yul\":18099:18108   */\n      div\n        /* \"#utility.yul\":18094:18108   */\n      swap1\n      pop\n        /* \"#utility.yul\":17929:18114   */\n      swap3\n      swap2\n      pop\n      pop\n      jump\t// out\n        /* \"#utility.yul\":18120:18296   */\n    tag_196:\n        /* \"#utility.yul\":18152:18153   */\n      0x00\n        /* \"#utility.yul\":18169:18189   */\n      tag_515\n        /* \"#utility.yul\":18187:18188   */\n      dup3\n        /* \"#utility.yul\":18169:18189   */\n      tag_265\n      jump\t// in\n    tag_515:\n        /* \"#utility.yul\":18164:18189   */\n      swap2\n      pop\n        /* \"#utility.yul\":18203:18223   */\n      tag_516\n        /* \"#utility.yul\":18221:18222   */\n      dup4\n        /* \"#utility.yul\":18203:18223   */\n      tag_265\n      jump\t// in\n    tag_516:\n        /* \"#utility.yul\":18198:18223   */\n      swap3\n      pop\n        /* \"#utility.yul\":18242:18243   */\n      dup3\n        /* \"#utility.yul\":18232:18267   */\n      tag_517\n      jumpi\n        /* \"#utility.yul\":18247:18265   */\n      tag_518\n      tag_231\n      jump\t// in\n    tag_518:\n        /* \"#utility.yul\":18232:18267   */\n    tag_517:\n        /* \"#utility.yul\":18288:18289   */\n      dup3\n        /* \"#utility.yul\":18285:18286   */\n      dup3\n        /* \"#utility.yul\":18281:18290   */\n      mod\n        /* \"#utility.yul\":18276:18290   */\n      swap1\n      pop\n        /* \"#utility.yul\":18120:18296   */\n      swap3\n      swap2\n      pop\n      pop\n      jump\t// out\n        /* \"#utility.yul\":18302:18537   */\n    tag_206:\n        /* \"#utility.yul\":18342:18346   */\n      0x00\n        /* \"#utility.yul\":18362:18382   */\n      tag_520\n        /* \"#utility.yul\":18380:18381   */\n      dup3\n        /* \"#utility.yul\":18362:18382   */\n      tag_244\n      jump\t// in\n    tag_520:\n        /* \"#utility.yul\":18357:18382   */\n      swap2\n      pop\n        /* \"#utility.yul\":18396:18416   */\n      tag_521\n        /* \"#utility.yul\":18414:18415   */\n      dup4\n        /* \"#utility.yul\":18396:18416   */\n      tag_244\n      jump\t// in\n    tag_521:\n        /* \"#utility.yul\":18391:18416   */\n      swap3\n      pop\n        /* \"#utility.yul\":18440:18441   */\n      dup3\n        /* \"#utility.yul\":18437:18438   */\n      dup3\n        /* \"#utility.yul\":18433:18442   */\n      sub\n        /* \"#utility.yul\":18425:18442   */\n      swap1\n      pop\n        /* \"#utility.yul\":18464:18506   */\n      0xffffffffffffffffffffffffffffffffffffffff\n        /* \"#utility.yul\":18458:18462   */\n      dup2\n        /* \"#utility.yul\":18455:18507   */\n      gt\n        /* \"#utility.yul\":18452:18530   */\n      iszero\n      tag_522\n      jumpi\n        /* \"#utility.yul\":18510:18528   */\n      tag_523\n      tag_277\n      jump\t// in\n    tag_523:\n        /* \"#utility.yul\":18452:18530   */\n    tag_522:\n        /* \"#utility.yul\":18302:18537   */\n      swap3\n      swap2\n      pop\n      pop\n      jump\t// out\n        /* \"#utility.yul\":18543:18665   */\n    tag_294:\n        /* \"#utility.yul\":18616:18640   */\n      tag_525\n        /* \"#utility.yul\":18634:18639   */\n      dup2\n        /* \"#utility.yul\":18616:18640   */\n      tag_265\n      jump\t// in\n    tag_525:\n        /* \"#utility.yul\":18609:18614   */\n      dup2\n        /* \"#utility.yul\":18606:18641   */\n      eq\n        /* \"#utility.yul\":18596:18659   */\n      tag_526\n      jumpi\n        /* \"#utility.yul\":18655:18656   */\n      0x00\n        /* \"#utility.yul\":18652:18653   */\n      0x00\n        /* \"#utility.yul\":18645:18657   */\n      revert\n        /* \"#utility.yul\":18596:18659   */\n    tag_526:\n        /* \"#utility.yul\":18543:18665   */\n      pop\n      jump\t// out\n        /* \"#utility.yul\":18671:18814   */\n    tag_295:\n        /* \"#utility.yul\":18728:18733   */\n      0x00\n        /* \"#utility.yul\":18759:18765   */\n      dup2\n        /* \"#utility.yul\":18753:18766   */\n      mload\n        /* \"#utility.yul\":18744:18766   */\n      swap1\n      pop\n        /* \"#utility.yul\":18775:18808   */\n      tag_528\n        /* \"#utility.yul\":18802:18807   */\n      dup2\n        /* \"#utility.yul\":18775:18808   */\n      tag_294\n      jump\t// in\n    tag_528:\n        /* \"#utility.yul\":18671:18814   */\n      swap3\n      swap2\n      pop\n      pop\n      jump\t// out\n        /* \"#utility.yul\":18820:19171   */\n    tag_218:\n        /* \"#utility.yul\":18890:18896   */\n      0x00\n        /* \"#utility.yul\":18939:18941   */\n      0x20\n        /* \"#utility.yul\":18927:18936   */\n      dup3\n        /* \"#utility.yul\":18918:18925   */\n      dup5\n        /* \"#utility.yul\":18914:18937   */\n      sub\n        /* \"#utility.yul\":18910:18942   */\n      slt\n        /* \"#utility.yul\":18907:19026   */\n      iszero\n      tag_530\n      jumpi\n        /* \"#utility.yul\":18945:19024   */\n      tag_531\n      tag_253\n      jump\t// in\n    tag_531:\n        /* \"#utility.yul\":18907:19026   */\n    tag_530:\n        /* \"#utility.yul\":19065:19066   */\n      0x00\n        /* \"#utility.yul\":19090:19154   */\n      tag_532\n        /* \"#utility.yul\":19146:19153   */\n      dup5\n        /* \"#utility.yul\":19137:19143   */\n      dup3\n        /* \"#utility.yul\":19126:19135   */\n      dup6\n        /* \"#utility.yul\":19122:19144   */\n      add\n        /* \"#utility.yul\":19090:19154   */\n      tag_295\n      jump\t// in\n    tag_532:\n        /* \"#utility.yul\":19080:19154   */\n      swap2\n      pop\n        /* \"#utility.yul\":19036:19164   */\n      pop\n        /* \"#utility.yul\":18820:19171   */\n      swap3\n      swap2\n      pop\n      pop\n      jump\t// out\n        /* \"#utility.yul\":19177:19410   */\n    tag_235:\n        /* \"#utility.yul\":19216:19219   */\n      0x00\n        /* \"#utility.yul\":19239:19263   */\n      tag_534\n        /* \"#utility.yul\":19257:19262   */\n      dup3\n        /* \"#utility.yul\":19239:19263   */\n      tag_265\n      jump\t// in\n    tag_534:\n        /* \"#utility.yul\":19230:19263   */\n      swap2\n      pop\n        /* \"#utility.yul\":19285:19351   */\n      0xffffffffffffffffffffffffffffffffffffffffffffffffffffffffffffffff\n        /* \"#utility.yul\":19278:19283   */\n      dup3\n        /* \"#utility.yul\":19275:19352   */\n      sub\n        /* \"#utility.yul\":19272:19375   */\n      tag_535\n      jumpi\n        /* \"#utility.yul\":19355:19373   */\n      tag_536\n      tag_277\n      jump\t// in\n    tag_536:\n        /* \"#utility.yul\":19272:19375   */\n    tag_535:\n        /* \"#utility.yul\":19402:19403   */\n      0x01\n        /* \"#utility.yul\":19395:19400   */\n      dup3\n        /* \"#utility.yul\":19391:19404   */\n      add\n        /* \"#utility.yul\":19384:19404   */\n      swap1\n      pop\n        /* \"#utility.yul\":19177:19410   */\n      swap2\n      swap1\n      pop\n      jump\t// out\n        /* \"#utility.yul\":19416:19583   */\n    tag_296:\n        /* \"#utility.yul\":19556:19575   */\n      0x5052424d6174683a206f766572666c6f77000000000000000000000000000000\n        /* \"#utility.yul\":19552:19553   */\n      0x00\n        /* \"#utility.yul\":19544:19550   */\n      dup3\n        /* \"#utility.yul\":19540:19554   */\n      add\n        /* \"#utility.yul\":19533:19576   */\n      mstore\n        /* \"#utility.yul\":19416:19583   */\n      pop\n      jump\t// out\n        /* \"#utility.yul\":19589:19955   */\n    tag_297:\n        /* \"#utility.yul\":19731:19734   */\n      0x00\n        /* \"#utility.yul\":19752:19819   */\n      tag_539\n        /* \"#utility.yul\":19816:19818   */\n      0x11\n        /* \"#utility.yul\":19811:19814   */\n      dup4\n        /* \"#utility.yul\":19752:19819   */\n      tag_291\n      jump\t// in\n    tag_539:\n        /* \"#utility.yul\":19745:19819   */\n      swap2\n      pop\n        /* \"#utility.yul\":19828:19921   */\n      tag_540\n        /* \"#utility.yul\":19917:19920   */\n      dup3\n        /* \"#utility.yul\":19828:19921   */\n      tag_296\n      jump\t// in\n    tag_540:\n        /* \"#utility.yul\":19946:19948   */\n      0x20\n        /* \"#utility.yul\":19941:19944   */\n      dup3\n        /* \"#utility.yul\":19937:19949   */\n      add\n        /* \"#utility.yul\":19930:19949   */\n      swap1\n      pop\n        /* \"#utility.yul\":19589:19955   */\n      swap2\n      swap1\n      pop\n      jump\t// out\n        /* \"#utility.yul\":19961:20380   */\n    tag_243:\n        /* \"#utility.yul\":20127:20131   */\n      0x00\n        /* \"#utility.yul\":20165:20167   */\n      0x20\n        /* \"#utility.yul\":20154:20163   */\n      dup3\n        /* \"#utility.yul\":20150:20168   */\n      add\n        /* \"#utility.yul\":20142:20168   */\n      swap1\n      pop\n        /* \"#utility.yul\":20214:20223   */\n      dup2\n        /* \"#utility.yul\":20208:20212   */\n      dup2\n        /* \"#utility.yul\":20204:20224   */\n      sub\n        /* \"#utility.yul\":20200:20201   */\n      0x00\n        /* \"#utility.yul\":20189:20198   */\n      dup4\n        /* \"#utility.yul\":20185:20202   */\n      add\n        /* \"#utility.yul\":20178:20225   */\n      mstore\n        /* \"#utility.yul\":20242:20373   */\n      tag_542\n        /* \"#utility.yul\":20368:20372   */\n      dup2\n        /* \"#utility.yul\":20242:20373   */\n      tag_297\n      jump\t// in\n    tag_542:\n        /* \"#utility.yul\":20234:20373   */\n      swap1\n      pop\n        /* \"#utility.yul\":19961:20380   */\n      swap2\n      swap1\n      pop\n      jump\t// out\n\n    auxdata: 0xa264697066735822122060e143dbee726d862ee50585d88c46e7efe1dd246a4afdb6a1ba92a45a95d46d64736f6c634300081e0033\n}\n",
				"bytecode": {
					"linkReferences": {},
					"object": "60c060405234801561000f575f5ffd5b506040516123d73803806123d7833981810160405281019061003191906101fd565b8373ffffffffffffffffffffffffffffffffffffffff1660808173ffffffffffffffffffffffffffffffffffffffff16815250508273ffffffffffffffffffffffffffffffffffffffff1660a08173ffffffffffffffffffffffffffffffffffffffff168152505060405180604001604052808373ffffffffffffffffffffffffffffffffffffffff1681526020018260020b8152505f5f820151815f015f6101000a81548173ffffffffffffffffffffffffffffffffffffffff021916908373ffffffffffffffffffffffffffffffffffffffff1602179055506020820151815f0160146101000a81548162ffffff021916908360020b62ffffff16021790555090505050505050610261565b5f5ffd5b5f73ffffffffffffffffffffffffffffffffffffffff82169050919050565b5f61016c82610143565b9050919050565b61017c81610162565b8114610186575f5ffd5b50565b5f8151905061019781610173565b92915050565b6101a681610143565b81146101b0575f5ffd5b50565b5f815190506101c18161019d565b92915050565b5f8160020b9050919050565b6101dc816101c7565b81146101e6575f5ffd5b50565b5f815190506101f7816101d3565b92915050565b5f5f5f5f608085870312156102155761021461013f565b5b5f61022287828801610189565b945050602061023387828801610189565b9350506040610244878288016101b3565b9250506060610255878288016101e9565b91505092959194509250565b60805160a0516121406102975f395f8181610720015261134f01525f8181610203015281816107f901526112b101526121405ff3fe608060405234801561000f575f5ffd5b5060043610610091575f3560e01c8063514ea4bf11610064578063514ea4bf146101215780635339c29614610151578063d21220a714610181578063e35473351461019f578063f30dba93146101d057610091565b80630dfe1681146100955780631a686502146100b35780633850c7bd146100d15780633c8a7d8d146100f0575b5f5ffd5b61009d610201565b6040516100aa91906115ce565b60405180910390f35b6100bb610225565b6040516100c89190611611565b60405180910390f35b6100d9610246565b6040516100e7929190611654565b60405180910390f35b61010a60048036038101906101059190611762565b610281565b604051610118929190611810565b60405180910390f35b61013b6004803603810190610136919061186a565b6106d4565b6040516101489190611611565b60405180910390f35b61016b600480360381019061016691906118cb565b610709565b60405161017891906118f6565b60405180910390f35b61018961071e565b60405161019691906115ce565b60405180910390f35b6101b960048036038101906101b4919061190f565b610742565b6040516101c7929190611984565b60405180910390f35b6101ea60048036038101906101e591906119ab565b610a26565b6040516101f89291906119f0565b60405180910390f35b7f000000000000000000000000000000000000000000000000000000000000000081565b60015f9054906101000a90046fffffffffffffffffffffffffffffffff1681565b5f805f015f9054906101000a900473ffffffffffffffffffffffffffffffffffffffff1690805f0160149054906101000a900460020b905082565b5f5f8560020b8760020b1215806102bd57507ffffffffffffffffffffffffffffffffffffffffffffffffffffffffffff2761860020b8760020b125b806102f657507ffffffffffffffffffffffffffffffffffffffffffffffffffffffffffff276186102ed90611a44565b60020b8660020b135b1561032d576040517f064847d000000000000000000000000000000000000000000000000000000000815260040160405180910390fd5b5f856fffffffffffffffffffffffffffffffff1603610378576040517f1007454800000000000000000000000000000000000000000000000000000000815260040160405180910390fd5b5f61038f88876002610a6d9092919063ffffffff16565b90505f6103a888886002610a6d9092919063ffffffff16565b905081156103c8576103c78960016003610b649092919063ffffffff16565b5b80156103e6576103e58860016003610b649092919063ffffffff16565b5b5f6103ff8b8b8b6004610bcd909392919063ffffffff16565b90506104148882610c1290919063ffffffff16565b5f5f6040518060400160405290815f82015f9054906101000a900473ffffffffffffffffffffffffffffffffffffffff1673ffffffffffffffffffffffffffffffffffffffff1673ffffffffffffffffffffffffffffffffffffffff1681526020015f820160149054906101000a900460020b60020b60020b8152505090506104a9815f01516104a38c610c82565b8b611136565b95506104c1815f01516104bb8d610c82565b8b61121a565b94508860015f8282829054906101000a90046fffffffffffffffffffffffffffffffff166104ef9190611a8a565b92506101000a8154816fffffffffffffffffffffffffffffffff02191690836fffffffffffffffffffffffffffffffff1602179055505f5f5f88111561053a576105376112ae565b91505b5f87111561054d5761054a61134c565b90505b3373ffffffffffffffffffffffffffffffffffffffff1663d348799789898d8d6040518563ffffffff1660e01b815260040161058c9493929190611b27565b5f604051808303815f87803b1580156105a3575f5ffd5b505af11580156105b5573d5f5f3e3d5ffd5b505050505f881180156105d957506105cb6112ae565b88836105d79190611b65565b115b15610610576040517f098fb56100000000000000000000000000000000000000000000000000000000815260040160405180910390fd5b5f87118015610630575061062261134c565b878261062e9190611b65565b115b15610667576040517f098fb56100000000000000000000000000000000000000000000000000000000815260040160405180910390fd5b8b60020b8d60020b8f73ffffffffffffffffffffffffffffffffffffffff167f7a53080ba414158be7ec69b987b5fb7d07dee101fe85488f0853ae16239d0bde338f8d8d6040516106bb9493929190611b98565b60405180910390a4505050505050965096945050505050565b6004602052805f5260405f205f91509050805f015f9054906101000a90046fffffffffffffffffffffffffffffffff16905081565b6003602052805f5260405f205f915090505481565b7f000000000000000000000000000000000000000000000000000000000000000081565b5f5f5f62014cc090505f6c46bd046408013d67ed5d406b2d90507fffffffffffffffffffffffffffffffffffffffffffffffffffe22b3b9e50c0f49350680246ddf97976680000925081815f5f0160145f5f015f8491906101000a81548173ffffffffffffffffffffffffffffffffffffffff021916908373ffffffffffffffffffffffffffffffffffffffff1602179055508391906101000a81548162ffffff021916908360020b62ffffff16021790555050507f000000000000000000000000000000000000000000000000000000000000000073ffffffffffffffffffffffffffffffffffffffff1663a9059cbb888661083e90611bdb565b6040518363ffffffff1660e01b815260040161085b929190611c21565b6020604051808303815f875af1158015610877573d5f5f3e3d5ffd5b505050506040513d601f19601f8201168201806040525081019061089b9190611c72565b505f6108a561134c565b90503373ffffffffffffffffffffffffffffffffffffffff1663fa461e3386868a8a6040518563ffffffff1660e01b81526004016108e69493929190611c9d565b5f604051808303815f87803b1580156108fd575f5ffd5b505af115801561090f573d5f5f3e3d5ffd5b5050505061091b61134c565b84826109279190611b65565b101561095f576040517f098fb56100000000000000000000000000000000000000000000000000000000815260040160405180910390fd5b8773ffffffffffffffffffffffffffffffffffffffff163373ffffffffffffffffffffffffffffffffffffffff167fc42079f94a6350d7e6235f29174924f928cc2ac818eb64fed8004e115fbcca6787875f5f015f9054906101000a900473ffffffffffffffffffffffffffffffffffffffff1660015f9054906101000a90046fffffffffffffffffffffffffffffffff165f5f0160149054906101000a900460020b604051610a13959493929190611cdb565b60405180910390a3505050935093915050565b6002602052805f5260405f205f91509050805f015f9054906101000a900460ff1690805f0160019054906101000a90046fffffffffffffffffffffffffffffffff16905082565b5f5f845f8560020b60020b81526020019081526020015f2090505f815f0160019054906101000a90046fffffffffffffffffffffffffffffffff1690505f8482610ab79190611a8a565b90505f826fffffffffffffffffffffffffffffffff161415155f826fffffffffffffffffffffffffffffffff16141515141593505f826fffffffffffffffffffffffffffffffff1603610b20576001835f015f6101000a81548160ff0219169083151502179055505b80835f0160016101000a8154816fffffffffffffffffffffffffffffffff02191690836fffffffffffffffffffffffffffffffff1602179055505050509392505050565b5f8183610b719190611d59565b60020b14610b7d575f5ffd5b5f5f610b938385610b8e9190611d89565b6113ea565b915091505f8160ff166001901b905080865f8560010b60010b81526020019081526020015f205f8282541892505081905550505050505050565b5f845f858585604051602001610be593929190611e6a565b6040516020818303038152906040528051906020012081526020019081526020015f209050949350505050565b5f825f015f9054906101000a90046fffffffffffffffffffffffffffffffff1690505f8282610c419190611a8a565b905080845f015f6101000a8154816fffffffffffffffffffffffffffffffff02191690836fffffffffffffffffffffffffffffffff16021790555050505050565b5f5f5f8360020b12610c97578260020b610ca5565b8260020b610ca490611bdb565b5b90507ffffffffffffffffffffffffffffffffffffffffffffffffffffffffffff27618610cd190611a44565b62ffffff16811115610d18576040517f08c379a0000000000000000000000000000000000000000000000000000000008152600401610d0f90611f00565b60405180910390fd5b5f5f6001831603610d3a57700100000000000000000000000000000000610d4c565b6ffffcb933bd6fad37aa2d162d1a5940015b70ffffffffffffffffffffffffffffffffff1690505f6002831614610d8e5760806ffff97272373d413259a46990580e213a82610d899190611f1e565b901c90505b5f6004831614610dbb5760806ffff2e50f5f656932ef12357cf3c7fdcc82610db69190611f1e565b901c90505b5f6008831614610de85760806fffe5caca7e10e4e61c3624eaa0941cd082610de39190611f1e565b901c90505b5f6010831614610e155760806fffcb9843d60f6159c9db58835c92664482610e109190611f1e565b901c90505b5f6020831614610e425760806fff973b41fa98c081472e6896dfb254c082610e3d9190611f1e565b901c90505b5f6040831614610e6f5760806fff2ea16466c96a3843ec78b326b5286182610e6a9190611f1e565b901c90505b5f6080831614610e9c5760806ffe5dee046a99a2a811c461f1969c305382610e979190611f1e565b901c90505b5f610100831614610eca5760806ffcbe86c7900a88aedcffc83b479aa3a482610ec59190611f1e565b901c90505b5f610200831614610ef85760806ff987a7253ac413176f2b074cf7815e5482610ef39190611f1e565b901c90505b5f610400831614610f265760806ff3392b0822b70005940c7a398e4b70f382610f219190611f1e565b901c90505b5f610800831614610f545760806fe7159475a2c29b7443b29c7fa6e889d982610f4f9190611f1e565b901c90505b5f611000831614610f825760806fd097f3bdfd2022b8845ad8f792aa582582610f7d9190611f1e565b901c90505b5f612000831614610fb05760806fa9f746462d870fdf8a65dc1f90e061e582610fab9190611f1e565b901c90505b5f614000831614610fde5760806f70d869a156d2a1b890bb3df62baf32f782610fd99190611f1e565b901c90505b5f61800083161461100c5760806f31be135f97d08fd981231505542fcfa6826110079190611f1e565b901c90505b5f6201000083161461103b5760806f09aa508b5b7a84e1c677de54f3e99bc9826110369190611f1e565b901c90505b5f620200008316146110695760806e5d6af8dedb81196699c329225ee604826110649190611f1e565b901c90505b5f620400008316146110965760806d2216e584f5fa1ea926041bedfe98826110919190611f1e565b901c90505b5f620800008316146110c15760806b048a170391f7dc42444e8fa2826110bc9190611f1e565b901c90505b5f8460020b13156110fb57807fffffffffffffffffffffffffffffffffffffffffffffffffffffffffffffffff6110f89190611f5f565b90505b5f6401000000008261110d9190611f8f565b1461111957600161111b565b5f5b60ff16602082901c61112d9190611b65565b92505050919050565b5f8273ffffffffffffffffffffffffffffffffffffffff168473ffffffffffffffffffffffffffffffffffffffff16111561117657828480945081955050505b5f8473ffffffffffffffffffffffffffffffffffffffff1611611197575f5ffd5b6112116111f5606060ff16846fffffffffffffffffffffffffffffffff16901b86866111c39190611fbf565b73ffffffffffffffffffffffffffffffffffffffff168673ffffffffffffffffffffffffffffffffffffffff1661140b565b8573ffffffffffffffffffffffffffffffffffffffff16611473565b90509392505050565b5f8273ffffffffffffffffffffffffffffffffffffffff168473ffffffffffffffffffffffffffffffffffffffff16111561125a57828480945081955050505b6112a5826fffffffffffffffffffffffffffffffff16858561127c9190611fbf565b73ffffffffffffffffffffffffffffffffffffffff166c0100000000000000000000000061140b565b90509392505050565b5f7f000000000000000000000000000000000000000000000000000000000000000073ffffffffffffffffffffffffffffffffffffffff166370a08231306040518263ffffffff1660e01b815260040161130891906115ce565b602060405180830381865afa158015611323573d5f5f3e3d5ffd5b505050506040513d601f19601f820116820180604052508101906113479190612030565b905090565b5f7f000000000000000000000000000000000000000000000000000000000000000073ffffffffffffffffffffffffffffffffffffffff166370a08231306040518263ffffffff1660e01b81526004016113a691906115ce565b602060405180830381865afa1580156113c1573d5f5f3e3d5ffd5b505050506040513d601f19601f820116820180604052508101906113e59190612030565b905090565b5f5f60088360020b901d9150610100836114049190611d59565b9050915091565b5f611417848484611485565b90505f828061142957611428611d2c565b5b848609111561146c577fffffffffffffffffffffffffffffffffffffffffffffffffffffffffffffffff811061145d575f5ffd5b80806114689061205b565b9150505b9392505050565b5f5f8284061182840401905092915050565b5f5f5f5f198587098587029250828110838203039150505f81036114bd578382816114b3576114b2611d2c565b5b0492505050611588565b8084116114ff576040517f08c379a00000000000000000000000000000000000000000000000000000000081526004016114f6906120ec565b60405180910390fd5b5f8486880990508281118203915080830392505f60018619018616905080860495508084049350600181825f0304019050808302841793505f600287600302189050808702600203810290508087026002038102905080870260020381029050808702600203810290508087026002038102905080870260020381029050808502955050505050505b9392505050565b5f73ffffffffffffffffffffffffffffffffffffffff82169050919050565b5f6115b88261158f565b9050919050565b6115c8816115ae565b82525050565b5f6020820190506115e15f8301846115bf565b92915050565b5f6fffffffffffffffffffffffffffffffff82169050919050565b61160b816115e7565b82525050565b5f6020820190506116245f830184611602565b92915050565b6116338161158f565b82525050565b5f8160020b9050919050565b61164e81611639565b82525050565b5f6040820190506116675f83018561162a565b6116746020830184611645565b9392505050565b5f5ffd5b5f5ffd5b61168c816115ae565b8114611696575f5ffd5b50565b5f813590506116a781611683565b92915050565b6116b681611639565b81146116c0575f5ffd5b50565b5f813590506116d1816116ad565b92915050565b6116e0816115e7565b81146116ea575f5ffd5b50565b5f813590506116fb816116d7565b92915050565b5f5ffd5b5f5ffd5b5f5ffd5b5f5f83601f84011261172257611721611701565b5b8235905067ffffffffffffffff81111561173f5761173e611705565b5b60208301915083600182028301111561175b5761175a611709565b5b9250929050565b5f5f5f5f5f5f60a0878903121561177c5761177b61167b565b5b5f61178989828a01611699565b965050602061179a89828a016116c3565b95505060406117ab89828a016116c3565b94505060606117bc89828a016116ed565b935050608087013567ffffffffffffffff8111156117dd576117dc61167f565b5b6117e989828a0161170d565b92509250509295509295509295565b5f819050919050565b61180a816117f8565b82525050565b5f6040820190506118235f830185611801565b6118306020830184611801565b9392505050565b5f819050919050565b61184981611837565b8114611853575f5ffd5b50565b5f8135905061186481611840565b92915050565b5f6020828403121561187f5761187e61167b565b5b5f61188c84828501611856565b91505092915050565b5f8160010b9050919050565b6118aa81611895565b81146118b4575f5ffd5b50565b5f813590506118c5816118a1565b92915050565b5f602082840312156118e0576118df61167b565b5b5f6118ed848285016118b7565b91505092915050565b5f6020820190506119095f830184611801565b92915050565b5f5f5f604084860312156119265761192561167b565b5b5f61193386828701611699565b935050602084013567ffffffffffffffff8111156119545761195361167f565b5b6119608682870161170d565b92509250509250925092565b5f819050919050565b61197e8161196c565b82525050565b5f6040820190506119975f830185611975565b6119a46020830184611975565b9392505050565b5f602082840312156119c0576119bf61167b565b5b5f6119cd848285016116c3565b91505092915050565b5f8115159050919050565b6119ea816119d6565b82525050565b5f604082019050611a035f8301856119e1565b611a106020830184611602565b9392505050565b7f4e487b71000000000000000000000000000000000000000000000000000000005f52601160045260245ffd5b5f611a4e82611639565b91507fffffffffffffffffffffffffffffffffffffffffffffffffffffffffff8000008203611a8057611a7f611a17565b5b815f039050919050565b5f611a94826115e7565b9150611a9f836115e7565b925082820190506fffffffffffffffffffffffffffffffff811115611ac757611ac6611a17565b5b92915050565b5f82825260208201905092915050565b828183375f83830152505050565b5f601f19601f8301169050919050565b5f611b068385611acd565b9350611b13838584611add565b611b1c83611aeb565b840190509392505050565b5f606082019050611b3a5f830187611801565b611b476020830186611801565b8181036040830152611b5a818486611afb565b905095945050505050565b5f611b6f826117f8565b9150611b7a836117f8565b9250828201905080821115611b9257611b91611a17565b5b92915050565b5f608082019050611bab5f8301876115bf565b611bb86020830186611602565b611bc56040830185611801565b611bd26060830184611801565b95945050505050565b5f611be58261196c565b91507f80000000000000000000000000000000000000000000000000000000000000008203611c1757611c16611a17565b5b815f039050919050565b5f604082019050611c345f8301856115bf565b611c416020830184611801565b9392505050565b611c51816119d6565b8114611c5b575f5ffd5b50565b5f81519050611c6c81611c48565b92915050565b5f60208284031215611c8757611c8661167b565b5b5f611c9484828501611c5e565b91505092915050565b5f606082019050611cb05f830187611975565b611cbd6020830186611975565b8181036040830152611cd0818486611afb565b905095945050505050565b5f60a082019050611cee5f830188611975565b611cfb6020830187611975565b611d08604083018661162a565b611d156060830185611602565b611d226080830184611645565b9695505050505050565b7f4e487b71000000000000000000000000000000000000000000000000000000005f52601260045260245ffd5b5f611d6382611639565b9150611d6e83611639565b925082611d7e57611d7d611d2c565b5b828207905092915050565b5f611d9382611639565b9150611d9e83611639565b925082611dae57611dad611d2c565b5b60015f0383147fffffffffffffffffffffffffffffffffffffffffffffffffffffffffff80000083141615611de657611de5611a17565b5b828205905092915050565b5f8160601b9050919050565b5f611e0782611df1565b9050919050565b5f611e1882611dfd565b9050919050565b611e30611e2b826115ae565b611e0e565b82525050565b5f8160e81b9050919050565b5f611e4c82611e36565b9050919050565b611e64611e5f82611639565b611e42565b82525050565b5f611e758286611e1f565b601482019150611e858285611e53565b600382019150611e958284611e53565b600382019150819050949350505050565b5f82825260208201905092915050565b7f54000000000000000000000000000000000000000000000000000000000000005f82015250565b5f611eea600183611ea6565b9150611ef582611eb6565b602082019050919050565b5f6020820190508181035f830152611f1781611ede565b9050919050565b5f611f28826117f8565b9150611f33836117f8565b9250828202611f41816117f8565b91508282048414831517611f5857611f57611a17565b5b5092915050565b5f611f69826117f8565b9150611f74836117f8565b925082611f8457611f83611d2c565b5b828204905092915050565b5f611f99826117f8565b9150611fa4836117f8565b925082611fb457611fb3611d2c565b5b828206905092915050565b5f611fc98261158f565b9150611fd48361158f565b9250828203905073ffffffffffffffffffffffffffffffffffffffff81111561200057611fff611a17565b5b92915050565b61200f816117f8565b8114612019575f5ffd5b50565b5f8151905061202a81612006565b92915050565b5f602082840312156120455761204461167b565b5b5f6120528482850161201c565b91505092915050565b5f612065826117f8565b91507fffffffffffffffffffffffffffffffffffffffffffffffffffffffffffffffff820361209757612096611a17565b5b600182019050919050565b7f5052424d6174683a206f766572666c6f770000000000000000000000000000005f82015250565b5f6120d6601183611ea6565b91506120e1826120a2565b602082019050919050565b5f6020820190508181035f830152612103816120ca565b905091905056fea264697066735822122060e143dbee726d862ee50585d88c46e7efe1dd246a4afdb6a1ba92a45a95d46d64736f6c634300081e0033",
					"opcodes": "PUSH1 0xC0 PUSH1 0x40 MSTORE CALLVALUE DUP1 ISZERO PUSH2 0xF JUMPI PUSH0 PUSH0 REVERT JUMPDEST POP PUSH1 0x40 MLOAD PUSH2 0x23D7 CODESIZE SUB DUP1 PUSH2 0x23D7 DUP4 CODECOPY DUP2 DUP2 ADD PUSH1 0x40 MSTORE DUP2 ADD SWAP1 PUSH2 0x31 SWAP2 SWAP1 PUSH2 0x1FD JUMP JUMPDEST DUP4 PUSH20 0xFFFFFFFFFFFFFFFFFFFFFFFFFFFFFFFFFFFFFFFF AND PUSH1 0x80 DUP2 PUSH20 0xFFFFFFFFFFFFFFFFFFFFFFFFFFFFFFFFFFFFFFFF AND DUP2 MSTORE POP POP DUP3 PUSH20 0xFFFFFFFFFFFFFFFFFFFFFFFFFFFFFFFFFFFFFFFF AND PUSH1 0xA0 DUP2 PUSH20 0xFFFFFFFFFFFFFFFFFFFFFFFFFFFFFFFFFFFFFFFF AND DUP2 MSTORE POP POP PUSH1 0x40 MLOAD DUP1 PUSH1 0x40 ADD PUSH1 0x40 MSTORE DUP1 DUP4 PUSH20 0xFFFFFFFFFFFFFFFFFFFFFFFFFFFFFFFFFFFFFFFF AND DUP2 MSTORE PUSH1 0x20 ADD DUP3 PUSH1 0x2 SIGNEXTEND DUP2 MSTORE POP PUSH0 PUSH0 DUP3 ADD MLOAD DUP2 PUSH0 ADD PUSH0 PUSH2 0x100 EXP DUP2 SLOAD DUP2 PUSH20 0xFFFFFFFFFFFFFFFFFFFFFFFFFFFFFFFFFFFFFFFF MUL NOT AND SWAP1 DUP4 PUSH20 0xFFFFFFFFFFFFFFFFFFFFFFFFFFFFFFFFFFFFFFFF AND MUL OR SWAP1 SSTORE POP PUSH1 0x20 DUP3 ADD MLOAD DUP2 PUSH0 ADD PUSH1 0x14 PUSH2 0x100 EXP DUP2 SLOAD DUP2 PUSH3 0xFFFFFF MUL NOT AND SWAP1 DUP4 PUSH1 0x2 SIGNEXTEND PUSH3 0xFFFFFF AND MUL OR SWAP1 SSTORE POP SWAP1 POP POP POP POP POP POP PUSH2 0x261 JUMP JUMPDEST PUSH0 PUSH0 REVERT JUMPDEST PUSH0 PUSH20 0xFFFFFFFFFFFFFFFFFFFFFFFFFFFFFFFFFFFFFFFF DUP3 AND SWAP1 POP SWAP2 SWAP1 POP JUMP JUMPDEST PUSH0 PUSH2 0x16C DUP3 PUSH2 0x143 JUMP JUMPDEST SWAP1 POP SWAP2 SWAP1 POP JUMP JUMPDEST PUSH2 0x17C DUP2 PUSH2 0x162 JUMP JUMPDEST DUP2 EQ PUSH2 0x186 JUMPI PUSH0 PUSH0 REVERT JUMPDEST POP JUMP JUMPDEST PUSH0 DUP2 MLOAD SWAP1 POP PUSH2 0x197 DUP2 PUSH2 0x173 JUMP JUMPDEST SWAP3 SWAP2 POP POP JUMP JUMPDEST PUSH2 0x1A6 DUP2 PUSH2 0x143 JUMP JUMPDEST DUP2 EQ PUSH2 0x1B0 JUMPI PUSH0 PUSH0 REVERT JUMPDEST POP JUMP JUMPDEST PUSH0 DUP2 MLOAD SWAP1 POP PUSH2 0x1C1 DUP2 PUSH2 0x19D JUMP JUMPDEST SWAP3 SWAP2 POP POP JUMP JUMPDEST PUSH0 DUP2 PUSH1 0x2 SIGNEXTEND SWAP1 POP SWAP2 SWAP1 POP JUMP JUMPDEST PUSH2 0x1DC DUP2 PUSH2 0x1C7 JUMP JUMPDEST DUP2 EQ PUSH2 0x1E6 JUMPI PUSH0 PUSH0 REVERT JUMPDEST POP JUMP JUMPDEST PUSH0 DUP2 MLOAD SWAP1 POP PUSH2 0x1F7 DUP2 PUSH2 0x1D3 JUMP JUMPDEST SWAP3 SWAP2 POP POP JUMP JUMPDEST PUSH0 PUSH0 PUSH0 PUSH0 PUSH1 0x80 DUP6 DUP8 SUB SLT ISZERO PUSH2 0x215 JUMPI PUSH2 0x214 PUSH2 0x13F JUMP JUMPDEST JUMPDEST PUSH0 PUSH2 0x222 DUP8 DUP3 DUP9 ADD PUSH2 0x189 JUMP JUMPDEST SWAP5 POP POP PUSH1 0x20 PUSH2 0x233 DUP8 DUP3 DUP9 ADD PUSH2 0x189 JUMP JUMPDEST SWAP4 POP POP PUSH1 0x40 PUSH2 0x244 DUP8 DUP3 DUP9 ADD PUSH2 0x1B3 JUMP JUMPDEST SWAP3 POP POP PUSH1 0x60 PUSH2 0x255 DUP8 DUP3 DUP9 ADD PUSH2 0x1E9 JUMP JUMPDEST SWAP2 POP POP SWAP3 SWAP6 SWAP2 SWAP5 POP SWAP3 POP JUMP JUMPDEST PUSH1 0x80 MLOAD PUSH1 0xA0 MLOAD PUSH2 0x2140 PUSH2 0x297 PUSH0 CODECOPY PUSH0 DUP2 DUP2 PUSH2 0x720 ADD MSTORE PUSH2 0x134F ADD MSTORE PUSH0 DUP2 DUP2 PUSH2 0x203 ADD MSTORE DUP2 DUP2 PUSH2 0x7F9 ADD MSTORE PUSH2 0x12B1 ADD MSTORE PUSH2 0x2140 PUSH0 RETURN INVALID PUSH1 0x80 PUSH1 0x40 MSTORE CALLVALUE DUP1 ISZERO PUSH2 0xF JUMPI PUSH0 PUSH0 REVERT JUMPDEST POP PUSH1 0x4 CALLDATASIZE LT PUSH2 0x91 JUMPI PUSH0 CALLDATALOAD PUSH1 0xE0 SHR DUP1 PUSH4 0x514EA4BF GT PUSH2 0x64 JUMPI DUP1 PUSH4 0x514EA4BF EQ PUSH2 0x121 JUMPI DUP1 PUSH4 0x5339C296 EQ PUSH2 0x151 JUMPI DUP1 PUSH4 0xD21220A7 EQ PUSH2 0x181 JUMPI DUP1 PUSH4 0xE3547335 EQ PUSH2 0x19F JUMPI DUP1 PUSH4 0xF30DBA93 EQ PUSH2 0x1D0 JUMPI PUSH2 0x91 JUMP JUMPDEST DUP1 PUSH4 0xDFE1681 EQ PUSH2 0x95 JUMPI DUP1 PUSH4 0x1A686502 EQ PUSH2 0xB3 JUMPI DUP1 PUSH4 0x3850C7BD EQ PUSH2 0xD1 JUMPI DUP1 PUSH4 0x3C8A7D8D EQ PUSH2 0xF0 JUMPI JUMPDEST PUSH0 PUSH0 REVERT JUMPDEST PUSH2 0x9D PUSH2 0x201 JUMP JUMPDEST PUSH1 0x40 MLOAD PUSH2 0xAA SWAP2 SWAP1 PUSH2 0x15CE JUMP JUMPDEST PUSH1 0x40 MLOAD DUP1 SWAP2 SUB SWAP1 RETURN JUMPDEST PUSH2 0xBB PUSH2 0x225 JUMP JUMPDEST PUSH1 0x40 MLOAD PUSH2 0xC8 SWAP2 SWAP1 PUSH2 0x1611 JUMP JUMPDEST PUSH1 0x40 MLOAD DUP1 SWAP2 SUB SWAP1 RETURN JUMPDEST PUSH2 0xD9 PUSH2 0x246 JUMP JUMPDEST PUSH1 0x40 MLOAD PUSH2 0xE7 SWAP3 SWAP2 SWAP1 PUSH2 0x1654 JUMP JUMPDEST PUSH1 0x40 MLOAD DUP1 SWAP2 SUB SWAP1 RETURN JUMPDEST PUSH2 0x10A PUSH1 0x4 DUP1 CALLDATASIZE SUB DUP2 ADD SWAP1 PUSH2 0x105 SWAP2 SWAP1 PUSH2 0x1762 JUMP JUMPDEST PUSH2 0x281 JUMP JUMPDEST PUSH1 0x40 MLOAD PUSH2 0x118 SWAP3 SWAP2 SWAP1 PUSH2 0x1810 JUMP JUMPDEST PUSH1 0x40 MLOAD DUP1 SWAP2 SUB SWAP1 RETURN JUMPDEST PUSH2 0x13B PUSH1 0x4 DUP1 CALLDATASIZE SUB DUP2 ADD SWAP1 PUSH2 0x136 SWAP2 SWAP1 PUSH2 0x186A JUMP JUMPDEST PUSH2 0x6D4 JUMP JUMPDEST PUSH1 0x40 MLOAD PUSH2 0x148 SWAP2 SWAP1 PUSH2 0x1611 JUMP JUMPDEST PUSH1 0x40 MLOAD DUP1 SWAP2 SUB SWAP1 RETURN JUMPDEST PUSH2 0x16B PUSH1 0x4 DUP1 CALLDATASIZE SUB DUP2 ADD SWAP1 PUSH2 0x166 SWAP2 SWAP1 PUSH2 0x18CB JUMP JUMPDEST PUSH2 0x709 JUMP JUMPDEST PUSH1 0x40 MLOAD PUSH2 0x178 SWAP2 SWAP1 PUSH2 0x18F6 JUMP JUMPDEST PUSH1 0x40 MLOAD DUP1 SWAP2 SUB SWAP1 RETURN JUMPDEST PUSH2 0x189 PUSH2 0x71E JUMP JUMPDEST PUSH1 0x40 MLOAD PUSH2 0x196 SWAP2 SWAP1 PUSH2 0x15CE JUMP JUMPDEST PUSH1 0x40 MLOAD DUP1 SWAP2 SUB SWAP1 RETURN JUMPDEST PUSH2 0x1B9 PUSH1 0x4 DUP1 CALLDATASIZE SUB DUP2 ADD SWAP1 PUSH2 0x1B4 SWAP2 SWAP1 PUSH2 0x190F JUMP JUMPDEST PUSH2 0x742 JUMP JUMPDEST PUSH1 0x40 MLOAD PUSH2 0x1C7 SWAP3 SWAP2 SWAP1 PUSH2 0x1984 JUMP JUMPDEST PUSH1 0x40 MLOAD DUP1 SWAP2 SUB SWAP1 RETURN JUMPDEST PUSH2 0x1EA PUSH1 0x4 DUP1 CALLDATASIZE SUB DUP2 ADD SWAP1 PUSH2 0x1E5 SWAP2 SWAP1 PUSH2 0x19AB JUMP JUMPDEST PUSH2 0xA26 JUMP JUMPDEST PUSH1 0x40 MLOAD PUSH2 0x1F8 SWAP3 SWAP2 SWAP1 PUSH2 0x19F0 JUMP JUMPDEST PUSH1 0x40 MLOAD DUP1 SWAP2 SUB SWAP1 RETURN JUMPDEST PUSH32 0x0 DUP2 JUMP JUMPDEST PUSH1 0x1 PUSH0 SWAP1 SLOAD SWAP1 PUSH2 0x100 EXP SWAP1 DIV PUSH16 0xFFFFFFFFFFFFFFFFFFFFFFFFFFFFFFFF AND DUP2 JUMP JUMPDEST PUSH0 DUP1 PUSH0 ADD PUSH0 SWAP1 SLOAD SWAP1 PUSH2 0x100 EXP SWAP1 DIV PUSH20 0xFFFFFFFFFFFFFFFFFFFFFFFFFFFFFFFFFFFFFFFF AND SWAP1 DUP1 PUSH0 ADD PUSH1 0x14 SWAP1 SLOAD SWAP1 PUSH2 0x100 EXP SWAP1 DIV PUSH1 0x2 SIGNEXTEND SWAP1 POP DUP3 JUMP JUMPDEST PUSH0 PUSH0 DUP6 PUSH1 0x2 SIGNEXTEND DUP8 PUSH1 0x2 SIGNEXTEND SLT ISZERO DUP1 PUSH2 0x2BD JUMPI POP PUSH32 0xFFFFFFFFFFFFFFFFFFFFFFFFFFFFFFFFFFFFFFFFFFFFFFFFFFFFFFFFFFF27618 PUSH1 0x2 SIGNEXTEND DUP8 PUSH1 0x2 SIGNEXTEND SLT JUMPDEST DUP1 PUSH2 0x2F6 JUMPI POP PUSH32 0xFFFFFFFFFFFFFFFFFFFFFFFFFFFFFFFFFFFFFFFFFFFFFFFFFFFFFFFFFFF27618 PUSH2 0x2ED SWAP1 PUSH2 0x1A44 JUMP JUMPDEST PUSH1 0x2 SIGNEXTEND DUP7 PUSH1 0x2 SIGNEXTEND SGT JUMPDEST ISZERO PUSH2 0x32D JUMPI PUSH1 0x40 MLOAD PUSH32 0x64847D000000000000000000000000000000000000000000000000000000000 DUP2 MSTORE PUSH1 0x4 ADD PUSH1 0x40 MLOAD DUP1 SWAP2 SUB SWAP1 REVERT JUMPDEST PUSH0 DUP6 PUSH16 0xFFFFFFFFFFFFFFFFFFFFFFFFFFFFFFFF AND SUB PUSH2 0x378 JUMPI PUSH1 0x40 MLOAD PUSH32 0x1007454800000000000000000000000000000000000000000000000000000000 DUP2 MSTORE PUSH1 0x4 ADD PUSH1 0x40 MLOAD DUP1 SWAP2 SUB SWAP1 REVERT JUMPDEST PUSH0 PUSH2 0x38F DUP9 DUP8 PUSH1 0x2 PUSH2 0xA6D SWAP1 SWAP3 SWAP2 SWAP1 PUSH4 0xFFFFFFFF AND JUMP JUMPDEST SWAP1 POP PUSH0 PUSH2 0x3A8 DUP9 DUP9 PUSH1 0x2 PUSH2 0xA6D SWAP1 SWAP3 SWAP2 SWAP1 PUSH4 0xFFFFFFFF AND JUMP JUMPDEST SWAP1 POP DUP2 ISZERO PUSH2 0x3C8 JUMPI PUSH2 0x3C7 DUP10 PUSH1 0x1 PUSH1 0x3 PUSH2 0xB64 SWAP1 SWAP3 SWAP2 SWAP1 PUSH4 0xFFFFFFFF AND JUMP JUMPDEST JUMPDEST DUP1 ISZERO PUSH2 0x3E6 JUMPI PUSH2 0x3E5 DUP9 PUSH1 0x1 PUSH1 0x3 PUSH2 0xB64 SWAP1 SWAP3 SWAP2 SWAP1 PUSH4 0xFFFFFFFF AND JUMP JUMPDEST JUMPDEST PUSH0 PUSH2 0x3FF DUP12 DUP12 DUP12 PUSH1 0x4 PUSH2 0xBCD SWAP1 SWAP4 SWAP3 SWAP2 SWAP1 PUSH4 0xFFFFFFFF AND JUMP JUMPDEST SWAP1 POP PUSH2 0x414 DUP9 DUP3 PUSH2 0xC12 SWAP1 SWAP2 SWAP1 PUSH4 0xFFFFFFFF AND JUMP JUMPDEST PUSH0 PUSH0 PUSH1 0x40 MLOAD DUP1 PUSH1 0x40 ADD PUSH1 0x40 MSTORE SWAP1 DUP2 PUSH0 DUP3 ADD PUSH0 SWAP1 SLOAD SWAP1 PUSH2 0x100 EXP SWAP1 DIV PUSH20 0xFFFFFFFFFFFFFFFFFFFFFFFFFFFFFFFFFFFFFFFF AND PUSH20 0xFFFFFFFFFFFFFFFFFFFFFFFFFFFFFFFFFFFFFFFF AND PUSH20 0xFFFFFFFFFFFFFFFFFFFFFFFFFFFFFFFFFFFFFFFF AND DUP2 MSTORE PUSH1 0x20 ADD PUSH0 DUP3 ADD PUSH1 0x14 SWAP1 SLOAD SWAP1 PUSH2 0x100 EXP SWAP1 DIV PUSH1 0x2 SIGNEXTEND PUSH1 0x2 SIGNEXTEND PUSH1 0x2 SIGNEXTEND DUP2 MSTORE POP POP SWAP1 POP PUSH2 0x4A9 DUP2 PUSH0 ADD MLOAD PUSH2 0x4A3 DUP13 PUSH2 0xC82 JUMP JUMPDEST DUP12 PUSH2 0x1136 JUMP JUMPDEST SWAP6 POP PUSH2 0x4C1 DUP2 PUSH0 ADD MLOAD PUSH2 0x4BB DUP14 PUSH2 0xC82 JUMP JUMPDEST DUP12 PUSH2 0x121A JUMP JUMPDEST SWAP5 POP DUP9 PUSH1 0x1 PUSH0 DUP3 DUP3 DUP3 SWAP1 SLOAD SWAP1 PUSH2 0x100 EXP SWAP1 DIV PUSH16 0xFFFFFFFFFFFFFFFFFFFFFFFFFFFFFFFF AND PUSH2 0x4EF SWAP2 SWAP1 PUSH2 0x1A8A JUMP JUMPDEST SWAP3 POP PUSH2 0x100 EXP DUP2 SLOAD DUP2 PUSH16 0xFFFFFFFFFFFFFFFFFFFFFFFFFFFFFFFF MUL NOT AND SWAP1 DUP4 PUSH16 0xFFFFFFFFFFFFFFFFFFFFFFFFFFFFFFFF AND MUL OR SWAP1 SSTORE POP PUSH0 PUSH0 PUSH0 DUP9 GT ISZERO PUSH2 0x53A JUMPI PUSH2 0x537 PUSH2 0x12AE JUMP JUMPDEST SWAP2 POP JUMPDEST PUSH0 DUP8 GT ISZERO PUSH2 0x54D JUMPI PUSH2 0x54A PUSH2 0x134C JUMP JUMPDEST SWAP1 POP JUMPDEST CALLER PUSH20 0xFFFFFFFFFFFFFFFFFFFFFFFFFFFFFFFFFFFFFFFF AND PUSH4 0xD3487997 DUP10 DUP10 DUP14 DUP14 PUSH1 0x40 MLOAD DUP6 PUSH4 0xFFFFFFFF AND PUSH1 0xE0 SHL DUP2 MSTORE PUSH1 0x4 ADD PUSH2 0x58C SWAP5 SWAP4 SWAP3 SWAP2 SWAP1 PUSH2 0x1B27 JUMP JUMPDEST PUSH0 PUSH1 0x40 MLOAD DUP1 DUP4 SUB DUP2 PUSH0 DUP8 DUP1 EXTCODESIZE ISZERO DUP1 ISZERO PUSH2 0x5A3 JUMPI PUSH0 PUSH0 REVERT JUMPDEST POP GAS CALL ISZERO DUP1 ISZERO PUSH2 0x5B5 JUMPI RETURNDATASIZE PUSH0 PUSH0 RETURNDATACOPY RETURNDATASIZE PUSH0 REVERT JUMPDEST POP POP POP POP PUSH0 DUP9 GT DUP1 ISZERO PUSH2 0x5D9 JUMPI POP PUSH2 0x5CB PUSH2 0x12AE JUMP JUMPDEST DUP9 DUP4 PUSH2 0x5D7 SWAP2 SWAP1 PUSH2 0x1B65 JUMP JUMPDEST GT JUMPDEST ISZERO PUSH2 0x610 JUMPI PUSH1 0x40 MLOAD PUSH32 0x98FB56100000000000000000000000000000000000000000000000000000000 DUP2 MSTORE PUSH1 0x4 ADD PUSH1 0x40 MLOAD DUP1 SWAP2 SUB SWAP1 REVERT JUMPDEST PUSH0 DUP8 GT DUP1 ISZERO PUSH2 0x630 JUMPI POP PUSH2 0x622 PUSH2 0x134C JUMP JUMPDEST DUP8 DUP3 PUSH2 0x62E SWAP2 SWAP1 PUSH2 0x1B65 JUMP JUMPDEST GT JUMPDEST ISZERO PUSH2 0x667 JUMPI PUSH1 0x40 MLOAD PUSH32 0x98FB56100000000000000000000000000000000000000000000000000000000 DUP2 MSTORE PUSH1 0x4 ADD PUSH1 0x40 MLOAD DUP1 SWAP2 SUB SWAP1 REVERT JUMPDEST DUP12 PUSH1 0x2 SIGNEXTEND DUP14 PUSH1 0x2 SIGNEXTEND DUP16 PUSH20 0xFFFFFFFFFFFFFFFFFFFFFFFFFFFFFFFFFFFFFFFF AND PUSH32 0x7A53080BA414158BE7EC69B987B5FB7D07DEE101FE85488F0853AE16239D0BDE CALLER DUP16 DUP14 DUP14 PUSH1 0x40 MLOAD PUSH2 0x6BB SWAP5 SWAP4 SWAP3 SWAP2 SWAP1 PUSH2 0x1B98 JUMP JUMPDEST PUSH1 0x40 MLOAD DUP1 SWAP2 SUB SWAP1 LOG4 POP POP POP POP POP POP SWAP7 POP SWAP7 SWAP5 POP POP POP POP POP JUMP JUMPDEST PUSH1 0x4 PUSH1 0x20 MSTORE DUP1 PUSH0 MSTORE PUSH1 0x40 PUSH0 KECCAK256 PUSH0 SWAP2 POP SWAP1 POP DUP1 PUSH0 ADD PUSH0 SWAP1 SLOAD SWAP1 PUSH2 0x100 EXP SWAP1 DIV PUSH16 0xFFFFFFFFFFFFFFFFFFFFFFFFFFFFFFFF AND SWAP1 POP DUP2 JUMP JUMPDEST PUSH1 0x3 PUSH1 0x20 MSTORE DUP1 PUSH0 MSTORE PUSH1 0x40 PUSH0 KECCAK256 PUSH0 SWAP2 POP SWAP1 POP SLOAD DUP2 JUMP JUMPDEST PUSH32 0x0 DUP2 JUMP JUMPDEST PUSH0 PUSH0 PUSH0 PUSH3 0x14CC0 SWAP1 POP PUSH0 PUSH13 0x46BD046408013D67ED5D406B2D SWAP1 POP PUSH32 0xFFFFFFFFFFFFFFFFFFFFFFFFFFFFFFFFFFFFFFFFFFFFFFFFFFE22B3B9E50C0F4 SWAP4 POP PUSH9 0x246DDF97976680000 SWAP3 POP DUP2 DUP2 PUSH0 PUSH0 ADD PUSH1 0x14 PUSH0 PUSH0 ADD PUSH0 DUP5 SWAP2 SWAP1 PUSH2 0x100 EXP DUP2 SLOAD DUP2 PUSH20 0xFFFFFFFFFFFFFFFFFFFFFFFFFFFFFFFFFFFFFFFF MUL NOT AND SWAP1 DUP4 PUSH20 0xFFFFFFFFFFFFFFFFFFFFFFFFFFFFFFFFFFFFFFFF AND MUL OR SWAP1 SSTORE POP DUP4 SWAP2 SWAP1 PUSH2 0x100 EXP DUP2 SLOAD DUP2 PUSH3 0xFFFFFF MUL NOT AND SWAP1 DUP4 PUSH1 0x2 SIGNEXTEND PUSH3 0xFFFFFF AND MUL OR SWAP1 SSTORE POP POP POP PUSH32 0x0 PUSH20 0xFFFFFFFFFFFFFFFFFFFFFFFFFFFFFFFFFFFFFFFF AND PUSH4 0xA9059CBB DUP9 DUP7 PUSH2 0x83E SWAP1 PUSH2 0x1BDB JUMP JUMPDEST PUSH1 0x40 MLOAD DUP4 PUSH4 0xFFFFFFFF AND PUSH1 0xE0 SHL DUP2 MSTORE PUSH1 0x4 ADD PUSH2 0x85B SWAP3 SWAP2 SWAP1 PUSH2 0x1C21 JUMP JUMPDEST PUSH1 0x20 PUSH1 0x40 MLOAD DUP1 DUP4 SUB DUP2 PUSH0 DUP8 GAS CALL ISZERO DUP1 ISZERO PUSH2 0x877 JUMPI RETURNDATASIZE PUSH0 PUSH0 RETURNDATACOPY RETURNDATASIZE PUSH0 REVERT JUMPDEST POP POP POP POP PUSH1 0x40 MLOAD RETURNDATASIZE PUSH1 0x1F NOT PUSH1 0x1F DUP3 ADD AND DUP3 ADD DUP1 PUSH1 0x40 MSTORE POP DUP2 ADD SWAP1 PUSH2 0x89B SWAP2 SWAP1 PUSH2 0x1C72 JUMP JUMPDEST POP PUSH0 PUSH2 0x8A5 PUSH2 0x134C JUMP JUMPDEST SWAP1 POP CALLER PUSH20 0xFFFFFFFFFFFFFFFFFFFFFFFFFFFFFFFFFFFFFFFF AND PUSH4 0xFA461E33 DUP7 DUP7 DUP11 DUP11 PUSH1 0x40 MLOAD DUP6 PUSH4 0xFFFFFFFF AND PUSH1 0xE0 SHL DUP2 MSTORE PUSH1 0x4 ADD PUSH2 0x8E6 SWAP5 SWAP4 SWAP3 SWAP2 SWAP1 PUSH2 0x1C9D JUMP JUMPDEST PUSH0 PUSH1 0x40 MLOAD DUP1 DUP4 SUB DUP2 PUSH0 DUP8 DUP1 EXTCODESIZE ISZERO DUP1 ISZERO PUSH2 0x8FD JUMPI PUSH0 PUSH0 REVERT JUMPDEST POP GAS CALL ISZERO DUP1 ISZERO PUSH2 0x90F JUMPI RETURNDATASIZE PUSH0 PUSH0 RETURNDATACOPY RETURNDATASIZE PUSH0 REVERT JUMPDEST POP POP POP POP PUSH2 0x91B PUSH2 0x134C JUMP JUMPDEST DUP5 DUP3 PUSH2 0x927 SWAP2 SWAP1 PUSH2 0x1B65 JUMP JUMPDEST LT ISZERO PUSH2 0x95F JUMPI PUSH1 0x40 MLOAD PUSH32 0x98FB56100000000000000000000000000000000000000000000000000000000 DUP2 MSTORE PUSH1 0x4 ADD PUSH1 0x40 MLOAD DUP1 SWAP2 SUB SWAP1 REVERT JUMPDEST DUP8 PUSH20 0xFFFFFFFFFFFFFFFFFFFFFFFFFFFFFFFFFFFFFFFF AND CALLER PUSH20 0xFFFFFFFFFFFFFFFFFFFFFFFFFFFFFFFFFFFFFFFF AND PUSH32 0xC42079F94A6350D7E6235F29174924F928CC2AC818EB64FED8004E115FBCCA67 DUP8 DUP8 PUSH0 PUSH0 ADD PUSH0 SWAP1 SLOAD SWAP1 PUSH2 0x100 EXP SWAP1 DIV PUSH20 0xFFFFFFFFFFFFFFFFFFFFFFFFFFFFFFFFFFFFFFFF AND PUSH1 0x1 PUSH0 SWAP1 SLOAD SWAP1 PUSH2 0x100 EXP SWAP1 DIV PUSH16 0xFFFFFFFFFFFFFFFFFFFFFFFFFFFFFFFF AND PUSH0 PUSH0 ADD PUSH1 0x14 SWAP1 SLOAD SWAP1 PUSH2 0x100 EXP SWAP1 DIV PUSH1 0x2 SIGNEXTEND PUSH1 0x40 MLOAD PUSH2 0xA13 SWAP6 SWAP5 SWAP4 SWAP3 SWAP2 SWAP1 PUSH2 0x1CDB JUMP JUMPDEST PUSH1 0x40 MLOAD DUP1 SWAP2 SUB SWAP1 LOG3 POP POP POP SWAP4 POP SWAP4 SWAP2 POP POP JUMP JUMPDEST PUSH1 0x2 PUSH1 0x20 MSTORE DUP1 PUSH0 MSTORE PUSH1 0x40 PUSH0 KECCAK256 PUSH0 SWAP2 POP SWAP1 POP DUP1 PUSH0 ADD PUSH0 SWAP1 SLOAD SWAP1 PUSH2 0x100 EXP SWAP1 DIV PUSH1 0xFF AND SWAP1 DUP1 PUSH0 ADD PUSH1 0x1 SWAP1 SLOAD SWAP1 PUSH2 0x100 EXP SWAP1 DIV PUSH16 0xFFFFFFFFFFFFFFFFFFFFFFFFFFFFFFFF AND SWAP1 POP DUP3 JUMP JUMPDEST PUSH0 PUSH0 DUP5 PUSH0 DUP6 PUSH1 0x2 SIGNEXTEND PUSH1 0x2 SIGNEXTEND DUP2 MSTORE PUSH1 0x20 ADD SWAP1 DUP2 MSTORE PUSH1 0x20 ADD PUSH0 KECCAK256 SWAP1 POP PUSH0 DUP2 PUSH0 ADD PUSH1 0x1 SWAP1 SLOAD SWAP1 PUSH2 0x100 EXP SWAP1 DIV PUSH16 0xFFFFFFFFFFFFFFFFFFFFFFFFFFFFFFFF AND SWAP1 POP PUSH0 DUP5 DUP3 PUSH2 0xAB7 SWAP2 SWAP1 PUSH2 0x1A8A JUMP JUMPDEST SWAP1 POP PUSH0 DUP3 PUSH16 0xFFFFFFFFFFFFFFFFFFFFFFFFFFFFFFFF AND EQ ISZERO ISZERO PUSH0 DUP3 PUSH16 0xFFFFFFFFFFFFFFFFFFFFFFFFFFFFFFFF AND EQ ISZERO ISZERO EQ ISZERO SWAP4 POP PUSH0 DUP3 PUSH16 0xFFFFFFFFFFFFFFFFFFFFFFFFFFFFFFFF AND SUB PUSH2 0xB20 JUMPI PUSH1 0x1 DUP4 PUSH0 ADD PUSH0 PUSH2 0x100 EXP DUP2 SLOAD DUP2 PUSH1 0xFF MUL NOT AND SWAP1 DUP4 ISZERO ISZERO MUL OR SWAP1 SSTORE POP JUMPDEST DUP1 DUP4 PUSH0 ADD PUSH1 0x1 PUSH2 0x100 EXP DUP2 SLOAD DUP2 PUSH16 0xFFFFFFFFFFFFFFFFFFFFFFFFFFFFFFFF MUL NOT AND SWAP1 DUP4 PUSH16 0xFFFFFFFFFFFFFFFFFFFFFFFFFFFFFFFF AND MUL OR SWAP1 SSTORE POP POP POP POP SWAP4 SWAP3 POP POP POP JUMP JUMPDEST PUSH0 DUP2 DUP4 PUSH2 0xB71 SWAP2 SWAP1 PUSH2 0x1D59 JUMP JUMPDEST PUSH1 0x2 SIGNEXTEND EQ PUSH2 0xB7D JUMPI PUSH0 PUSH0 REVERT JUMPDEST PUSH0 PUSH0 PUSH2 0xB93 DUP4 DUP6 PUSH2 0xB8E SWAP2 SWAP1 PUSH2 0x1D89 JUMP JUMPDEST PUSH2 0x13EA JUMP JUMPDEST SWAP2 POP SWAP2 POP PUSH0 DUP2 PUSH1 0xFF AND PUSH1 0x1 SWAP1 SHL SWAP1 POP DUP1 DUP7 PUSH0 DUP6 PUSH1 0x1 SIGNEXTEND PUSH1 0x1 SIGNEXTEND DUP2 MSTORE PUSH1 0x20 ADD SWAP1 DUP2 MSTORE PUSH1 0x20 ADD PUSH0 KECCAK256 PUSH0 DUP3 DUP3 SLOAD XOR SWAP3 POP POP DUP2 SWAP1 SSTORE POP POP POP POP POP POP POP JUMP JUMPDEST PUSH0 DUP5 PUSH0 DUP6 DUP6 DUP6 PUSH1 0x40 MLOAD PUSH1 0x20 ADD PUSH2 0xBE5 SWAP4 SWAP3 SWAP2 SWAP1 PUSH2 0x1E6A JUMP JUMPDEST PUSH1 0x40 MLOAD PUSH1 0x20 DUP2 DUP4 SUB SUB DUP2 MSTORE SWAP1 PUSH1 0x40 MSTORE DUP1 MLOAD SWAP1 PUSH1 0x20 ADD KECCAK256 DUP2 MSTORE PUSH1 0x20 ADD SWAP1 DUP2 MSTORE PUSH1 0x20 ADD PUSH0 KECCAK256 SWAP1 POP SWAP5 SWAP4 POP POP POP POP JUMP JUMPDEST PUSH0 DUP3 PUSH0 ADD PUSH0 SWAP1 SLOAD SWAP1 PUSH2 0x100 EXP SWAP1 DIV PUSH16 0xFFFFFFFFFFFFFFFFFFFFFFFFFFFFFFFF AND SWAP1 POP PUSH0 DUP3 DUP3 PUSH2 0xC41 SWAP2 SWAP1 PUSH2 0x1A8A JUMP JUMPDEST SWAP1 POP DUP1 DUP5 PUSH0 ADD PUSH0 PUSH2 0x100 EXP DUP2 SLOAD DUP2 PUSH16 0xFFFFFFFFFFFFFFFFFFFFFFFFFFFFFFFF MUL NOT AND SWAP1 DUP4 PUSH16 0xFFFFFFFFFFFFFFFFFFFFFFFFFFFFFFFF AND MUL OR SWAP1 SSTORE POP POP POP POP POP JUMP JUMPDEST PUSH0 PUSH0 PUSH0 DUP4 PUSH1 0x2 SIGNEXTEND SLT PUSH2 0xC97 JUMPI DUP3 PUSH1 0x2 SIGNEXTEND PUSH2 0xCA5 JUMP JUMPDEST DUP3 PUSH1 0x2 SIGNEXTEND PUSH2 0xCA4 SWAP1 PUSH2 0x1BDB JUMP JUMPDEST JUMPDEST SWAP1 POP PUSH32 0xFFFFFFFFFFFFFFFFFFFFFFFFFFFFFFFFFFFFFFFFFFFFFFFFFFFFFFFFFFF27618 PUSH2 0xCD1 SWAP1 PUSH2 0x1A44 JUMP JUMPDEST PUSH3 0xFFFFFF AND DUP2 GT ISZERO PUSH2 0xD18 JUMPI PUSH1 0x40 MLOAD PUSH32 0x8C379A000000000000000000000000000000000000000000000000000000000 DUP2 MSTORE PUSH1 0x4 ADD PUSH2 0xD0F SWAP1 PUSH2 0x1F00 JUMP JUMPDEST PUSH1 0x40 MLOAD DUP1 SWAP2 SUB SWAP1 REVERT JUMPDEST PUSH0 PUSH0 PUSH1 0x1 DUP4 AND SUB PUSH2 0xD3A JUMPI PUSH17 0x100000000000000000000000000000000 PUSH2 0xD4C JUMP JUMPDEST PUSH16 0xFFFCB933BD6FAD37AA2D162D1A594001 JUMPDEST PUSH17 0xFFFFFFFFFFFFFFFFFFFFFFFFFFFFFFFFFF AND SWAP1 POP PUSH0 PUSH1 0x2 DUP4 AND EQ PUSH2 0xD8E JUMPI PUSH1 0x80 PUSH16 0xFFF97272373D413259A46990580E213A DUP3 PUSH2 0xD89 SWAP2 SWAP1 PUSH2 0x1F1E JUMP JUMPDEST SWAP1 SHR SWAP1 POP JUMPDEST PUSH0 PUSH1 0x4 DUP4 AND EQ PUSH2 0xDBB JUMPI PUSH1 0x80 PUSH16 0xFFF2E50F5F656932EF12357CF3C7FDCC DUP3 PUSH2 0xDB6 SWAP2 SWAP1 PUSH2 0x1F1E JUMP JUMPDEST SWAP1 SHR SWAP1 POP JUMPDEST PUSH0 PUSH1 0x8 DUP4 AND EQ PUSH2 0xDE8 JUMPI PUSH1 0x80 PUSH16 0xFFE5CACA7E10E4E61C3624EAA0941CD0 DUP3 PUSH2 0xDE3 SWAP2 SWAP1 PUSH2 0x1F1E JUMP JUMPDEST SWAP1 SHR SWAP1 POP JUMPDEST PUSH0 PUSH1 0x10 DUP4 AND EQ PUSH2 0xE15 JUMPI PUSH1 0x80 PUSH16 0xFFCB9843D60F6159C9DB58835C926644 DUP3 PUSH2 0xE10 SWAP2 SWAP1 PUSH2 0x1F1E JUMP JUMPDEST SWAP1 SHR SWAP1 POP JUMPDEST PUSH0 PUSH1 0x20 DUP4 AND EQ PUSH2 0xE42 JUMPI PUSH1 0x80 PUSH16 0xFF973B41FA98C081472E6896DFB254C0 DUP3 PUSH2 0xE3D SWAP2 SWAP1 PUSH2 0x1F1E JUMP JUMPDEST SWAP1 SHR SWAP1 POP JUMPDEST PUSH0 PUSH1 0x40 DUP4 AND EQ PUSH2 0xE6F JUMPI PUSH1 0x80 PUSH16 0xFF2EA16466C96A3843EC78B326B52861 DUP3 PUSH2 0xE6A SWAP2 SWAP1 PUSH2 0x1F1E JUMP JUMPDEST SWAP1 SHR SWAP1 POP JUMPDEST PUSH0 PUSH1 0x80 DUP4 AND EQ PUSH2 0xE9C JUMPI PUSH1 0x80 PUSH16 0xFE5DEE046A99A2A811C461F1969C3053 DUP3 PUSH2 0xE97 SWAP2 SWAP1 PUSH2 0x1F1E JUMP JUMPDEST SWAP1 SHR SWAP1 POP JUMPDEST PUSH0 PUSH2 0x100 DUP4 AND EQ PUSH2 0xECA JUMPI PUSH1 0x80 PUSH16 0xFCBE86C7900A88AEDCFFC83B479AA3A4 DUP3 PUSH2 0xEC5 SWAP2 SWAP1 PUSH2 0x1F1E JUMP JUMPDEST SWAP1 SHR SWAP1 POP JUMPDEST PUSH0 PUSH2 0x200 DUP4 AND EQ PUSH2 0xEF8 JUMPI PUSH1 0x80 PUSH16 0xF987A7253AC413176F2B074CF7815E54 DUP3 PUSH2 0xEF3 SWAP2 SWAP1 PUSH2 0x1F1E JUMP JUMPDEST SWAP1 SHR SWAP1 POP JUMPDEST PUSH0 PUSH2 0x400 DUP4 AND EQ PUSH2 0xF26 JUMPI PUSH1 0x80 PUSH16 0xF3392B0822B70005940C7A398E4B70F3 DUP3 PUSH2 0xF21 SWAP2 SWAP1 PUSH2 0x1F1E JUMP JUMPDEST SWAP1 SHR SWAP1 POP JUMPDEST PUSH0 PUSH2 0x800 DUP4 AND EQ PUSH2 0xF54 JUMPI PUSH1 0x80 PUSH16 0xE7159475A2C29B7443B29C7FA6E889D9 DUP3 PUSH2 0xF4F SWAP2 SWAP1 PUSH2 0x1F1E JUMP JUMPDEST SWAP1 SHR SWAP1 POP JUMPDEST PUSH0 PUSH2 0x1000 DUP4 AND EQ PUSH2 0xF82 JUMPI PUSH1 0x80 PUSH16 0xD097F3BDFD2022B8845AD8F792AA5825 DUP3 PUSH2 0xF7D SWAP2 SWAP1 PUSH2 0x1F1E JUMP JUMPDEST SWAP1 SHR SWAP1 POP JUMPDEST PUSH0 PUSH2 0x2000 DUP4 AND EQ PUSH2 0xFB0 JUMPI PUSH1 0x80 PUSH16 0xA9F746462D870FDF8A65DC1F90E061E5 DUP3 PUSH2 0xFAB SWAP2 SWAP1 PUSH2 0x1F1E JUMP JUMPDEST SWAP1 SHR SWAP1 POP JUMPDEST PUSH0 PUSH2 0x4000 DUP4 AND EQ PUSH2 0xFDE JUMPI PUSH1 0x80 PUSH16 0x70D869A156D2A1B890BB3DF62BAF32F7 DUP3 PUSH2 0xFD9 SWAP2 SWAP1 PUSH2 0x1F1E JUMP JUMPDEST SWAP1 SHR SWAP1 POP JUMPDEST PUSH0 PUSH2 0x8000 DUP4 AND EQ PUSH2 0x100C JUMPI PUSH1 0x80 PUSH16 0x31BE135F97D08FD981231505542FCFA6 DUP3 PUSH2 0x1007 SWAP2 SWAP1 PUSH2 0x1F1E JUMP JUMPDEST SWAP1 SHR SWAP1 POP JUMPDEST PUSH0 PUSH3 0x10000 DUP4 AND EQ PUSH2 0x103B JUMPI PUSH1 0x80 PUSH16 0x9AA508B5B7A84E1C677DE54F3E99BC9 DUP3 PUSH2 0x1036 SWAP2 SWAP1 PUSH2 0x1F1E JUMP JUMPDEST SWAP1 SHR SWAP1 POP JUMPDEST PUSH0 PUSH3 0x20000 DUP4 AND EQ PUSH2 0x1069 JUMPI PUSH1 0x80 PUSH15 0x5D6AF8DEDB81196699C329225EE604 DUP3 PUSH2 0x1064 SWAP2 SWAP1 PUSH2 0x1F1E JUMP JUMPDEST SWAP1 SHR SWAP1 POP JUMPDEST PUSH0 PUSH3 0x40000 DUP4 AND EQ PUSH2 0x1096 JUMPI PUSH1 0x80 PUSH14 0x2216E584F5FA1EA926041BEDFE98 DUP3 PUSH2 0x1091 SWAP2 SWAP1 PUSH2 0x1F1E JUMP JUMPDEST SWAP1 SHR SWAP1 POP JUMPDEST PUSH0 PUSH3 0x80000 DUP4 AND EQ PUSH2 0x10C1 JUMPI PUSH1 0x80 PUSH12 0x48A170391F7DC42444E8FA2 DUP3 PUSH2 0x10BC SWAP2 SWAP1 PUSH2 0x1F1E JUMP JUMPDEST SWAP1 SHR SWAP1 POP JUMPDEST PUSH0 DUP5 PUSH1 0x2 SIGNEXTEND SGT ISZERO PUSH2 0x10FB JUMPI DUP1 PUSH32 0xFFFFFFFFFFFFFFFFFFFFFFFFFFFFFFFFFFFFFFFFFFFFFFFFFFFFFFFFFFFFFFFF PUSH2 0x10F8 SWAP2 SWAP1 PUSH2 0x1F5F JUMP JUMPDEST SWAP1 POP JUMPDEST PUSH0 PUSH5 0x100000000 DUP3 PUSH2 0x110D SWAP2 SWAP1 PUSH2 0x1F8F JUMP JUMPDEST EQ PUSH2 0x1119 JUMPI PUSH1 0x1 PUSH2 0x111B JUMP JUMPDEST PUSH0 JUMPDEST PUSH1 0xFF AND PUSH1 0x20 DUP3 SWAP1 SHR PUSH2 0x112D SWAP2 SWAP1 PUSH2 0x1B65 JUMP JUMPDEST SWAP3 POP POP POP SWAP2 SWAP1 POP JUMP JUMPDEST PUSH0 DUP3 PUSH20 0xFFFFFFFFFFFFFFFFFFFFFFFFFFFFFFFFFFFFFFFF AND DUP5 PUSH20 0xFFFFFFFFFFFFFFFFFFFFFFFFFFFFFFFFFFFFFFFF AND GT ISZERO PUSH2 0x1176 JUMPI DUP3 DUP5 DUP1 SWAP5 POP DUP2 SWAP6 POP POP POP JUMPDEST PUSH0 DUP5 PUSH20 0xFFFFFFFFFFFFFFFFFFFFFFFFFFFFFFFFFFFFFFFF AND GT PUSH2 0x1197 JUMPI PUSH0 PUSH0 REVERT JUMPDEST PUSH2 0x1211 PUSH2 0x11F5 PUSH1 0x60 PUSH1 0xFF AND DUP5 PUSH16 0xFFFFFFFFFFFFFFFFFFFFFFFFFFFFFFFF AND SWAP1 SHL DUP7 DUP7 PUSH2 0x11C3 SWAP2 SWAP1 PUSH2 0x1FBF JUMP JUMPDEST PUSH20 0xFFFFFFFFFFFFFFFFFFFFFFFFFFFFFFFFFFFFFFFF AND DUP7 PUSH20 0xFFFFFFFFFFFFFFFFFFFFFFFFFFFFFFFFFFFFFFFF AND PUSH2 0x140B JUMP JUMPDEST DUP6 PUSH20 0xFFFFFFFFFFFFFFFFFFFFFFFFFFFFFFFFFFFFFFFF AND PUSH2 0x1473 JUMP JUMPDEST SWAP1 POP SWAP4 SWAP3 POP POP POP JUMP JUMPDEST PUSH0 DUP3 PUSH20 0xFFFFFFFFFFFFFFFFFFFFFFFFFFFFFFFFFFFFFFFF AND DUP5 PUSH20 0xFFFFFFFFFFFFFFFFFFFFFFFFFFFFFFFFFFFFFFFF AND GT ISZERO PUSH2 0x125A JUMPI DUP3 DUP5 DUP1 SWAP5 POP DUP2 SWAP6 POP POP POP JUMPDEST PUSH2 0x12A5 DUP3 PUSH16 0xFFFFFFFFFFFFFFFFFFFFFFFFFFFFFFFF AND DUP6 DUP6 PUSH2 0x127C SWAP2 SWAP1 PUSH2 0x1FBF JUMP JUMPDEST PUSH20 0xFFFFFFFFFFFFFFFFFFFFFFFFFFFFFFFFFFFFFFFF AND PUSH13 0x1000000000000000000000000 PUSH2 0x140B JUMP JUMPDEST SWAP1 POP SWAP4 SWAP3 POP POP POP JUMP JUMPDEST PUSH0 PUSH32 0x0 PUSH20 0xFFFFFFFFFFFFFFFFFFFFFFFFFFFFFFFFFFFFFFFF AND PUSH4 0x70A08231 ADDRESS PUSH1 0x40 MLOAD DUP3 PUSH4 0xFFFFFFFF AND PUSH1 0xE0 SHL DUP2 MSTORE PUSH1 0x4 ADD PUSH2 0x1308 SWAP2 SWAP1 PUSH2 0x15CE JUMP JUMPDEST PUSH1 0x20 PUSH1 0x40 MLOAD DUP1 DUP4 SUB DUP2 DUP7 GAS STATICCALL ISZERO DUP1 ISZERO PUSH2 0x1323 JUMPI RETURNDATASIZE PUSH0 PUSH0 RETURNDATACOPY RETURNDATASIZE PUSH0 REVERT JUMPDEST POP POP POP POP PUSH1 0x40 MLOAD RETURNDATASIZE PUSH1 0x1F NOT PUSH1 0x1F DUP3 ADD AND DUP3 ADD DUP1 PUSH1 0x40 MSTORE POP DUP2 ADD SWAP1 PUSH2 0x1347 SWAP2 SWAP1 PUSH2 0x2030 JUMP JUMPDEST SWAP1 POP SWAP1 JUMP JUMPDEST PUSH0 PUSH32 0x0 PUSH20 0xFFFFFFFFFFFFFFFFFFFFFFFFFFFFFFFFFFFFFFFF AND PUSH4 0x70A08231 ADDRESS PUSH1 0x40 MLOAD DUP3 PUSH4 0xFFFFFFFF AND PUSH1 0xE0 SHL DUP2 MSTORE PUSH1 0x4 ADD PUSH2 0x13A6 SWAP2 SWAP1 PUSH2 0x15CE JUMP JUMPDEST PUSH1 0x20 PUSH1 0x40 MLOAD DUP1 DUP4 SUB DUP2 DUP7 GAS STATICCALL ISZERO DUP1 ISZERO PUSH2 0x13C1 JUMPI RETURNDATASIZE PUSH0 PUSH0 RETURNDATACOPY RETURNDATASIZE PUSH0 REVERT JUMPDEST POP POP POP POP PUSH1 0x40 MLOAD RETURNDATASIZE PUSH1 0x1F NOT PUSH1 0x1F DUP3 ADD AND DUP3 ADD DUP1 PUSH1 0x40 MSTORE POP DUP2 ADD SWAP1 PUSH2 0x13E5 SWAP2 SWAP1 PUSH2 0x2030 JUMP JUMPDEST SWAP1 POP SWAP1 JUMP JUMPDEST PUSH0 PUSH0 PUSH1 0x8 DUP4 PUSH1 0x2 SIGNEXTEND SWAP1 SAR SWAP2 POP PUSH2 0x100 DUP4 PUSH2 0x1404 SWAP2 SWAP1 PUSH2 0x1D59 JUMP JUMPDEST SWAP1 POP SWAP2 POP SWAP2 JUMP JUMPDEST PUSH0 PUSH2 0x1417 DUP5 DUP5 DUP5 PUSH2 0x1485 JUMP JUMPDEST SWAP1 POP PUSH0 DUP3 DUP1 PUSH2 0x1429 JUMPI PUSH2 0x1428 PUSH2 0x1D2C JUMP JUMPDEST JUMPDEST DUP5 DUP7 MULMOD GT ISZERO PUSH2 0x146C JUMPI PUSH32 0xFFFFFFFFFFFFFFFFFFFFFFFFFFFFFFFFFFFFFFFFFFFFFFFFFFFFFFFFFFFFFFFF DUP2 LT PUSH2 0x145D JUMPI PUSH0 PUSH0 REVERT JUMPDEST DUP1 DUP1 PUSH2 0x1468 SWAP1 PUSH2 0x205B JUMP JUMPDEST SWAP2 POP POP JUMPDEST SWAP4 SWAP3 POP POP POP JUMP JUMPDEST PUSH0 PUSH0 DUP3 DUP5 MOD GT DUP3 DUP5 DIV ADD SWAP1 POP SWAP3 SWAP2 POP POP JUMP JUMPDEST PUSH0 PUSH0 PUSH0 PUSH0 NOT DUP6 DUP8 MULMOD DUP6 DUP8 MUL SWAP3 POP DUP3 DUP2 LT DUP4 DUP3 SUB SUB SWAP2 POP POP PUSH0 DUP2 SUB PUSH2 0x14BD JUMPI DUP4 DUP3 DUP2 PUSH2 0x14B3 JUMPI PUSH2 0x14B2 PUSH2 0x1D2C JUMP JUMPDEST JUMPDEST DIV SWAP3 POP POP POP PUSH2 0x1588 JUMP JUMPDEST DUP1 DUP5 GT PUSH2 0x14FF JUMPI PUSH1 0x40 MLOAD PUSH32 0x8C379A000000000000000000000000000000000000000000000000000000000 DUP2 MSTORE PUSH1 0x4 ADD PUSH2 0x14F6 SWAP1 PUSH2 0x20EC JUMP JUMPDEST PUSH1 0x40 MLOAD DUP1 SWAP2 SUB SWAP1 REVERT JUMPDEST PUSH0 DUP5 DUP7 DUP9 MULMOD SWAP1 POP DUP3 DUP2 GT DUP3 SUB SWAP2 POP DUP1 DUP4 SUB SWAP3 POP PUSH0 PUSH1 0x1 DUP7 NOT ADD DUP7 AND SWAP1 POP DUP1 DUP7 DIV SWAP6 POP DUP1 DUP5 DIV SWAP4 POP PUSH1 0x1 DUP2 DUP3 PUSH0 SUB DIV ADD SWAP1 POP DUP1 DUP4 MUL DUP5 OR SWAP4 POP PUSH0 PUSH1 0x2 DUP8 PUSH1 0x3 MUL XOR SWAP1 POP DUP1 DUP8 MUL PUSH1 0x2 SUB DUP2 MUL SWAP1 POP DUP1 DUP8 MUL PUSH1 0x2 SUB DUP2 MUL SWAP1 POP DUP1 DUP8 MUL PUSH1 0x2 SUB DUP2 MUL SWAP1 POP DUP1 DUP8 MUL PUSH1 0x2 SUB DUP2 MUL SWAP1 POP DUP1 DUP8 MUL PUSH1 0x2 SUB DUP2 MUL SWAP1 POP DUP1 DUP8 MUL PUSH1 0x2 SUB DUP2 MUL SWAP1 POP DUP1 DUP6 MUL SWAP6 POP POP POP POP POP POP JUMPDEST SWAP4 SWAP3 POP POP POP JUMP JUMPDEST PUSH0 PUSH20 0xFFFFFFFFFFFFFFFFFFFFFFFFFFFFFFFFFFFFFFFF DUP3 AND SWAP1 POP SWAP2 SWAP1 POP JUMP JUMPDEST PUSH0 PUSH2 0x15B8 DUP3 PUSH2 0x158F JUMP JUMPDEST SWAP1 POP SWAP2 SWAP1 POP JUMP JUMPDEST PUSH2 0x15C8 DUP2 PUSH2 0x15AE JUMP JUMPDEST DUP3 MSTORE POP POP JUMP JUMPDEST PUSH0 PUSH1 0x20 DUP3 ADD SWAP1 POP PUSH2 0x15E1 PUSH0 DUP4 ADD DUP5 PUSH2 0x15BF JUMP JUMPDEST SWAP3 SWAP2 POP POP JUMP JUMPDEST PUSH0 PUSH16 0xFFFFFFFFFFFFFFFFFFFFFFFFFFFFFFFF DUP3 AND SWAP1 POP SWAP2 SWAP1 POP JUMP JUMPDEST PUSH2 0x160B DUP2 PUSH2 0x15E7 JUMP JUMPDEST DUP3 MSTORE POP POP JUMP JUMPDEST PUSH0 PUSH1 0x20 DUP3 ADD SWAP1 POP PUSH2 0x1624 PUSH0 DUP4 ADD DUP5 PUSH2 0x1602 JUMP JUMPDEST SWAP3 SWAP2 POP POP JUMP JUMPDEST PUSH2 0x1633 DUP2 PUSH2 0x158F JUMP JUMPDEST DUP3 MSTORE POP POP JUMP JUMPDEST PUSH0 DUP2 PUSH1 0x2 SIGNEXTEND SWAP1 POP SWAP2 SWAP1 POP JUMP JUMPDEST PUSH2 0x164E DUP2 PUSH2 0x1639 JUMP JUMPDEST DUP3 MSTORE POP POP JUMP JUMPDEST PUSH0 PUSH1 0x40 DUP3 ADD SWAP1 POP PUSH2 0x1667 PUSH0 DUP4 ADD DUP6 PUSH2 0x162A JUMP JUMPDEST PUSH2 0x1674 PUSH1 0x20 DUP4 ADD DUP5 PUSH2 0x1645 JUMP JUMPDEST SWAP4 SWAP3 POP POP POP JUMP JUMPDEST PUSH0 PUSH0 REVERT JUMPDEST PUSH0 PUSH0 REVERT JUMPDEST PUSH2 0x168C DUP2 PUSH2 0x15AE JUMP JUMPDEST DUP2 EQ PUSH2 0x1696 JUMPI PUSH0 PUSH0 REVERT JUMPDEST POP JUMP JUMPDEST PUSH0 DUP2 CALLDATALOAD SWAP1 POP PUSH2 0x16A7 DUP2 PUSH2 0x1683 JUMP JUMPDEST SWAP3 SWAP2 POP POP JUMP JUMPDEST PUSH2 0x16B6 DUP2 PUSH2 0x1639 JUMP JUMPDEST DUP2 EQ PUSH2 0x16C0 JUMPI PUSH0 PUSH0 REVERT JUMPDEST POP JUMP JUMPDEST PUSH0 DUP2 CALLDATALOAD SWAP1 POP PUSH2 0x16D1 DUP2 PUSH2 0x16AD JUMP JUMPDEST SWAP3 SWAP2 POP POP JUMP JUMPDEST PUSH2 0x16E0 DUP2 PUSH2 0x15E7 JUMP JUMPDEST DUP2 EQ PUSH2 0x16EA JUMPI PUSH0 PUSH0 REVERT JUMPDEST POP JUMP JUMPDEST PUSH0 DUP2 CALLDATALOAD SWAP1 POP PUSH2 0x16FB DUP2 PUSH2 0x16D7 JUMP JUMPDEST SWAP3 SWAP2 POP POP JUMP JUMPDEST PUSH0 PUSH0 REVERT JUMPDEST PUSH0 PUSH0 REVERT JUMPDEST PUSH0 PUSH0 REVERT JUMPDEST PUSH0 PUSH0 DUP4 PUSH1 0x1F DUP5 ADD SLT PUSH2 0x1722 JUMPI PUSH2 0x1721 PUSH2 0x1701 JUMP JUMPDEST JUMPDEST DUP3 CALLDATALOAD SWAP1 POP PUSH8 0xFFFFFFFFFFFFFFFF DUP2 GT ISZERO PUSH2 0x173F JUMPI PUSH2 0x173E PUSH2 0x1705 JUMP JUMPDEST JUMPDEST PUSH1 0x20 DUP4 ADD SWAP2 POP DUP4 PUSH1 0x1 DUP3 MUL DUP4 ADD GT ISZERO PUSH2 0x175B JUMPI PUSH2 0x175A PUSH2 0x1709 JUMP JUMPDEST JUMPDEST SWAP3 POP SWAP3 SWAP1 POP JUMP JUMPDEST PUSH0 PUSH0 PUSH0 PUSH0 PUSH0 PUSH0 PUSH1 0xA0 DUP8 DUP10 SUB SLT ISZERO PUSH2 0x177C JUMPI PUSH2 0x177B PUSH2 0x167B JUMP JUMPDEST JUMPDEST PUSH0 PUSH2 0x1789 DUP10 DUP3 DUP11 ADD PUSH2 0x1699 JUMP JUMPDEST SWAP7 POP POP PUSH1 0x20 PUSH2 0x179A DUP10 DUP3 DUP11 ADD PUSH2 0x16C3 JUMP JUMPDEST SWAP6 POP POP PUSH1 0x40 PUSH2 0x17AB DUP10 DUP3 DUP11 ADD PUSH2 0x16C3 JUMP JUMPDEST SWAP5 POP POP PUSH1 0x60 PUSH2 0x17BC DUP10 DUP3 DUP11 ADD PUSH2 0x16ED JUMP JUMPDEST SWAP4 POP POP PUSH1 0x80 DUP8 ADD CALLDATALOAD PUSH8 0xFFFFFFFFFFFFFFFF DUP2 GT ISZERO PUSH2 0x17DD JUMPI PUSH2 0x17DC PUSH2 0x167F JUMP JUMPDEST JUMPDEST PUSH2 0x17E9 DUP10 DUP3 DUP11 ADD PUSH2 0x170D JUMP JUMPDEST SWAP3 POP SWAP3 POP POP SWAP3 SWAP6 POP SWAP3 SWAP6 POP SWAP3 SWAP6 JUMP JUMPDEST PUSH0 DUP2 SWAP1 POP SWAP2 SWAP1 POP JUMP JUMPDEST PUSH2 0x180A DUP2 PUSH2 0x17F8 JUMP JUMPDEST DUP3 MSTORE POP POP JUMP JUMPDEST PUSH0 PUSH1 0x40 DUP3 ADD SWAP1 POP PUSH2 0x1823 PUSH0 DUP4 ADD DUP6 PUSH2 0x1801 JUMP JUMPDEST PUSH2 0x1830 PUSH1 0x20 DUP4 ADD DUP5 PUSH2 0x1801 JUMP JUMPDEST SWAP4 SWAP3 POP POP POP JUMP JUMPDEST PUSH0 DUP2 SWAP1 POP SWAP2 SWAP1 POP JUMP JUMPDEST PUSH2 0x1849 DUP2 PUSH2 0x1837 JUMP JUMPDEST DUP2 EQ PUSH2 0x1853 JUMPI PUSH0 PUSH0 REVERT JUMPDEST POP JUMP JUMPDEST PUSH0 DUP2 CALLDATALOAD SWAP1 POP PUSH2 0x1864 DUP2 PUSH2 0x1840 JUMP JUMPDEST SWAP3 SWAP2 POP POP JUMP JUMPDEST PUSH0 PUSH1 0x20 DUP3 DUP5 SUB SLT ISZERO PUSH2 0x187F JUMPI PUSH2 0x187E PUSH2 0x167B JUMP JUMPDEST JUMPDEST PUSH0 PUSH2 0x188C DUP5 DUP3 DUP6 ADD PUSH2 0x1856 JUMP JUMPDEST SWAP2 POP POP SWAP3 SWAP2 POP POP JUMP JUMPDEST PUSH0 DUP2 PUSH1 0x1 SIGNEXTEND SWAP1 POP SWAP2 SWAP1 POP JUMP JUMPDEST PUSH2 0x18AA DUP2 PUSH2 0x1895 JUMP JUMPDEST DUP2 EQ PUSH2 0x18B4 JUMPI PUSH0 PUSH0 REVERT JUMPDEST POP JUMP JUMPDEST PUSH0 DUP2 CALLDATALOAD SWAP1 POP PUSH2 0x18C5 DUP2 PUSH2 0x18A1 JUMP JUMPDEST SWAP3 SWAP2 POP POP JUMP JUMPDEST PUSH0 PUSH1 0x20 DUP3 DUP5 SUB SLT ISZERO PUSH2 0x18E0 JUMPI PUSH2 0x18DF PUSH2 0x167B JUMP JUMPDEST JUMPDEST PUSH0 PUSH2 0x18ED DUP5 DUP3 DUP6 ADD PUSH2 0x18B7 JUMP JUMPDEST SWAP2 POP POP SWAP3 SWAP2 POP POP JUMP JUMPDEST PUSH0 PUSH1 0x20 DUP3 ADD SWAP1 POP PUSH2 0x1909 PUSH0 DUP4 ADD DUP5 PUSH2 0x1801 JUMP JUMPDEST SWAP3 SWAP2 POP POP JUMP JUMPDEST PUSH0 PUSH0 PUSH0 PUSH1 0x40 DUP5 DUP7 SUB SLT ISZERO PUSH2 0x1926 JUMPI PUSH2 0x1925 PUSH2 0x167B JUMP JUMPDEST JUMPDEST PUSH0 PUSH2 0x1933 DUP7 DUP3 DUP8 ADD PUSH2 0x1699 JUMP JUMPDEST SWAP4 POP POP PUSH1 0x20 DUP5 ADD CALLDATALOAD PUSH8 0xFFFFFFFFFFFFFFFF DUP2 GT ISZERO PUSH2 0x1954 JUMPI PUSH2 0x1953 PUSH2 0x167F JUMP JUMPDEST JUMPDEST PUSH2 0x1960 DUP7 DUP3 DUP8 ADD PUSH2 0x170D JUMP JUMPDEST SWAP3 POP SWAP3 POP POP SWAP3 POP SWAP3 POP SWAP3 JUMP JUMPDEST PUSH0 DUP2 SWAP1 POP SWAP2 SWAP1 POP JUMP JUMPDEST PUSH2 0x197E DUP2 PUSH2 0x196C JUMP JUMPDEST DUP3 MSTORE POP POP JUMP JUMPDEST PUSH0 PUSH1 0x40 DUP3 ADD SWAP1 POP PUSH2 0x1997 PUSH0 DUP4 ADD DUP6 PUSH2 0x1975 JUMP JUMPDEST PUSH2 0x19A4 PUSH1 0x20 DUP4 ADD DUP5 PUSH2 0x1975 JUMP JUMPDEST SWAP4 SWAP3 POP POP POP JUMP JUMPDEST PUSH0 PUSH1 0x20 DUP3 DUP5 SUB SLT ISZERO PUSH2 0x19C0 JUMPI PUSH2 0x19BF PUSH2 0x167B JUMP JUMPDEST JUMPDEST PUSH0 PUSH2 0x19CD DUP5 DUP3 DUP6 ADD PUSH2 0x16C3 JUMP JUMPDEST SWAP2 POP POP SWAP3 SWAP2 POP POP JUMP JUMPDEST PUSH0 DUP2 ISZERO ISZERO SWAP1 POP SWAP2 SWAP1 POP JUMP JUMPDEST PUSH2 0x19EA DUP2 PUSH2 0x19D6 JUMP JUMPDEST DUP3 MSTORE POP POP JUMP JUMPDEST PUSH0 PUSH1 0x40 DUP3 ADD SWAP1 POP PUSH2 0x1A03 PUSH0 DUP4 ADD DUP6 PUSH2 0x19E1 JUMP JUMPDEST PUSH2 0x1A10 PUSH1 0x20 DUP4 ADD DUP5 PUSH2 0x1602 JUMP JUMPDEST SWAP4 SWAP3 POP POP POP JUMP JUMPDEST PUSH32 0x4E487B7100000000000000000000000000000000000000000000000000000000 PUSH0 MSTORE PUSH1 0x11 PUSH1 0x4 MSTORE PUSH1 0x24 PUSH0 REVERT JUMPDEST PUSH0 PUSH2 0x1A4E DUP3 PUSH2 0x1639 JUMP JUMPDEST SWAP2 POP PUSH32 0xFFFFFFFFFFFFFFFFFFFFFFFFFFFFFFFFFFFFFFFFFFFFFFFFFFFFFFFFFF800000 DUP3 SUB PUSH2 0x1A80 JUMPI PUSH2 0x1A7F PUSH2 0x1A17 JUMP JUMPDEST JUMPDEST DUP2 PUSH0 SUB SWAP1 POP SWAP2 SWAP1 POP JUMP JUMPDEST PUSH0 PUSH2 0x1A94 DUP3 PUSH2 0x15E7 JUMP JUMPDEST SWAP2 POP PUSH2 0x1A9F DUP4 PUSH2 0x15E7 JUMP JUMPDEST SWAP3 POP DUP3 DUP3 ADD SWAP1 POP PUSH16 0xFFFFFFFFFFFFFFFFFFFFFFFFFFFFFFFF DUP2 GT ISZERO PUSH2 0x1AC7 JUMPI PUSH2 0x1AC6 PUSH2 0x1A17 JUMP JUMPDEST JUMPDEST SWAP3 SWAP2 POP POP JUMP JUMPDEST PUSH0 DUP3 DUP3 MSTORE PUSH1 0x20 DUP3 ADD SWAP1 POP SWAP3 SWAP2 POP POP JUMP JUMPDEST DUP3 DUP2 DUP4 CALLDATACOPY PUSH0 DUP4 DUP4 ADD MSTORE POP POP POP JUMP JUMPDEST PUSH0 PUSH1 0x1F NOT PUSH1 0x1F DUP4 ADD AND SWAP1 POP SWAP2 SWAP1 POP JUMP JUMPDEST PUSH0 PUSH2 0x1B06 DUP4 DUP6 PUSH2 0x1ACD JUMP JUMPDEST SWAP4 POP PUSH2 0x1B13 DUP4 DUP6 DUP5 PUSH2 0x1ADD JUMP JUMPDEST PUSH2 0x1B1C DUP4 PUSH2 0x1AEB JUMP JUMPDEST DUP5 ADD SWAP1 POP SWAP4 SWAP3 POP POP POP JUMP JUMPDEST PUSH0 PUSH1 0x60 DUP3 ADD SWAP1 POP PUSH2 0x1B3A PUSH0 DUP4 ADD DUP8 PUSH2 0x1801 JUMP JUMPDEST PUSH2 0x1B47 PUSH1 0x20 DUP4 ADD DUP7 PUSH2 0x1801 JUMP JUMPDEST DUP2 DUP2 SUB PUSH1 0x40 DUP4 ADD MSTORE PUSH2 0x1B5A DUP2 DUP5 DUP7 PUSH2 0x1AFB JUMP JUMPDEST SWAP1 POP SWAP6 SWAP5 POP POP POP POP POP JUMP JUMPDEST PUSH0 PUSH2 0x1B6F DUP3 PUSH2 0x17F8 JUMP JUMPDEST SWAP2 POP PUSH2 0x1B7A DUP4 PUSH2 0x17F8 JUMP JUMPDEST SWAP3 POP DUP3 DUP3 ADD SWAP1 POP DUP1 DUP3 GT ISZERO PUSH2 0x1B92 JUMPI PUSH2 0x1B91 PUSH2 0x1A17 JUMP JUMPDEST JUMPDEST SWAP3 SWAP2 POP POP JUMP JUMPDEST PUSH0 PUSH1 0x80 DUP3 ADD SWAP1 POP PUSH2 0x1BAB PUSH0 DUP4 ADD DUP8 PUSH2 0x15BF JUMP JUMPDEST PUSH2 0x1BB8 PUSH1 0x20 DUP4 ADD DUP7 PUSH2 0x1602 JUMP JUMPDEST PUSH2 0x1BC5 PUSH1 0x40 DUP4 ADD DUP6 PUSH2 0x1801 JUMP JUMPDEST PUSH2 0x1BD2 PUSH1 0x60 DUP4 ADD DUP5 PUSH2 0x1801 JUMP JUMPDEST SWAP6 SWAP5 POP POP POP POP POP JUMP JUMPDEST PUSH0 PUSH2 0x1BE5 DUP3 PUSH2 0x196C JUMP JUMPDEST SWAP2 POP PUSH32 0x8000000000000000000000000000000000000000000000000000000000000000 DUP3 SUB PUSH2 0x1C17 JUMPI PUSH2 0x1C16 PUSH2 0x1A17 JUMP JUMPDEST JUMPDEST DUP2 PUSH0 SUB SWAP1 POP SWAP2 SWAP1 POP JUMP JUMPDEST PUSH0 PUSH1 0x40 DUP3 ADD SWAP1 POP PUSH2 0x1C34 PUSH0 DUP4 ADD DUP6 PUSH2 0x15BF JUMP JUMPDEST PUSH2 0x1C41 PUSH1 0x20 DUP4 ADD DUP5 PUSH2 0x1801 JUMP JUMPDEST SWAP4 SWAP3 POP POP POP JUMP JUMPDEST PUSH2 0x1C51 DUP2 PUSH2 0x19D6 JUMP JUMPDEST DUP2 EQ PUSH2 0x1C5B JUMPI PUSH0 PUSH0 REVERT JUMPDEST POP JUMP JUMPDEST PUSH0 DUP2 MLOAD SWAP1 POP PUSH2 0x1C6C DUP2 PUSH2 0x1C48 JUMP JUMPDEST SWAP3 SWAP2 POP POP JUMP JUMPDEST PUSH0 PUSH1 0x20 DUP3 DUP5 SUB SLT ISZERO PUSH2 0x1C87 JUMPI PUSH2 0x1C86 PUSH2 0x167B JUMP JUMPDEST JUMPDEST PUSH0 PUSH2 0x1C94 DUP5 DUP3 DUP6 ADD PUSH2 0x1C5E JUMP JUMPDEST SWAP2 POP POP SWAP3 SWAP2 POP POP JUMP JUMPDEST PUSH0 PUSH1 0x60 DUP3 ADD SWAP1 POP PUSH2 0x1CB0 PUSH0 DUP4 ADD DUP8 PUSH2 0x1975 JUMP JUMPDEST PUSH2 0x1CBD PUSH1 0x20 DUP4 ADD DUP7 PUSH2 0x1975 JUMP JUMPDEST DUP2 DUP2 SUB PUSH1 0x40 DUP4 ADD MSTORE PUSH2 0x1CD0 DUP2 DUP5 DUP7 PUSH2 0x1AFB JUMP JUMPDEST SWAP1 POP SWAP6 SWAP5 POP POP POP POP POP JUMP JUMPDEST PUSH0 PUSH1 0xA0 DUP3 ADD SWAP1 POP PUSH2 0x1CEE PUSH0 DUP4 ADD DUP9 PUSH2 0x1975 JUMP JUMPDEST PUSH2 0x1CFB PUSH1 0x20 DUP4 ADD DUP8 PUSH2 0x1975 JUMP JUMPDEST PUSH2 0x1D08 PUSH1 0x40 DUP4 ADD DUP7 PUSH2 0x162A JUMP JUMPDEST PUSH2 0x1D15 PUSH1 0x60 DUP4 ADD DUP6 PUSH2 0x1602 JUMP JUMPDEST PUSH2 0x1D22 PUSH1 0x80 DUP4 ADD DUP5 PUSH2 0x1645 JUMP JUMPDEST SWAP7 SWAP6 POP POP POP POP POP POP JUMP JUMPDEST PUSH32 0x4E487B7100000000000000000000000000000000000000000000000000000000 PUSH0 MSTORE PUSH1 0x12 PUSH1 0x4 MSTORE PUSH1 0x24 PUSH0 REVERT JUMPDEST PUSH0 PUSH2 0x1D63 DUP3 PUSH2 0x1639 JUMP JUMPDEST SWAP2 POP PUSH2 0x1D6E DUP4 PUSH2 0x1639 JUMP JUMPDEST SWAP3 POP DUP3 PUSH2 0x1D7E JUMPI PUSH2 0x1D7D PUSH2 0x1D2C JUMP JUMPDEST JUMPDEST DUP3 DUP3 SMOD SWAP1 POP SWAP3 SWAP2 POP POP JUMP JUMPDEST PUSH0 PUSH2 0x1D93 DUP3 PUSH2 0x1639 JUMP JUMPDEST SWAP2 POP PUSH2 0x1D9E DUP4 PUSH2 0x1639 JUMP JUMPDEST SWAP3 POP DUP3 PUSH2 0x1DAE JUMPI PUSH2 0x1DAD PUSH2 0x1D2C JUMP JUMPDEST JUMPDEST PUSH1 0x1 PUSH0 SUB DUP4 EQ PUSH32 0xFFFFFFFFFFFFFFFFFFFFFFFFFFFFFFFFFFFFFFFFFFFFFFFFFFFFFFFFFF800000 DUP4 EQ AND ISZERO PUSH2 0x1DE6 JUMPI PUSH2 0x1DE5 PUSH2 0x1A17 JUMP JUMPDEST JUMPDEST DUP3 DUP3 SDIV SWAP1 POP SWAP3 SWAP2 POP POP JUMP JUMPDEST PUSH0 DUP2 PUSH1 0x60 SHL SWAP1 POP SWAP2 SWAP1 POP JUMP JUMPDEST PUSH0 PUSH2 0x1E07 DUP3 PUSH2 0x1DF1 JUMP JUMPDEST SWAP1 POP SWAP2 SWAP1 POP JUMP JUMPDEST PUSH0 PUSH2 0x1E18 DUP3 PUSH2 0x1DFD JUMP JUMPDEST SWAP1 POP SWAP2 SWAP1 POP JUMP JUMPDEST PUSH2 0x1E30 PUSH2 0x1E2B DUP3 PUSH2 0x15AE JUMP JUMPDEST PUSH2 0x1E0E JUMP JUMPDEST DUP3 MSTORE POP POP JUMP JUMPDEST PUSH0 DUP2 PUSH1 0xE8 SHL SWAP1 POP SWAP2 SWAP1 POP JUMP JUMPDEST PUSH0 PUSH2 0x1E4C DUP3 PUSH2 0x1E36 JUMP JUMPDEST SWAP1 POP SWAP2 SWAP1 POP JUMP JUMPDEST PUSH2 0x1E64 PUSH2 0x1E5F DUP3 PUSH2 0x1639 JUMP JUMPDEST PUSH2 0x1E42 JUMP JUMPDEST DUP3 MSTORE POP POP JUMP JUMPDEST PUSH0 PUSH2 0x1E75 DUP3 DUP7 PUSH2 0x1E1F JUMP JUMPDEST PUSH1 0x14 DUP3 ADD SWAP2 POP PUSH2 0x1E85 DUP3 DUP6 PUSH2 0x1E53 JUMP JUMPDEST PUSH1 0x3 DUP3 ADD SWAP2 POP PUSH2 0x1E95 DUP3 DUP5 PUSH2 0x1E53 JUMP JUMPDEST PUSH1 0x3 DUP3 ADD SWAP2 POP DUP2 SWAP1 POP SWAP5 SWAP4 POP POP POP POP JUMP JUMPDEST PUSH0 DUP3 DUP3 MSTORE PUSH1 0x20 DUP3 ADD SWAP1 POP SWAP3 SWAP2 POP POP JUMP JUMPDEST PUSH32 0x5400000000000000000000000000000000000000000000000000000000000000 PUSH0 DUP3 ADD MSTORE POP JUMP JUMPDEST PUSH0 PUSH2 0x1EEA PUSH1 0x1 DUP4 PUSH2 0x1EA6 JUMP JUMPDEST SWAP2 POP PUSH2 0x1EF5 DUP3 PUSH2 0x1EB6 JUMP JUMPDEST PUSH1 0x20 DUP3 ADD SWAP1 POP SWAP2 SWAP1 POP JUMP JUMPDEST PUSH0 PUSH1 0x20 DUP3 ADD SWAP1 POP DUP2 DUP2 SUB PUSH0 DUP4 ADD MSTORE PUSH2 0x1F17 DUP2 PUSH2 0x1EDE JUMP JUMPDEST SWAP1 POP SWAP2 SWAP1 POP JUMP JUMPDEST PUSH0 PUSH2 0x1F28 DUP3 PUSH2 0x17F8 JUMP JUMPDEST SWAP2 POP PUSH2 0x1F33 DUP4 PUSH2 0x17F8 JUMP JUMPDEST SWAP3 POP DUP3 DUP3 MUL PUSH2 0x1F41 DUP2 PUSH2 0x17F8 JUMP JUMPDEST SWAP2 POP DUP3 DUP3 DIV DUP5 EQ DUP4 ISZERO OR PUSH2 0x1F58 JUMPI PUSH2 0x1F57 PUSH2 0x1A17 JUMP JUMPDEST JUMPDEST POP SWAP3 SWAP2 POP POP JUMP JUMPDEST PUSH0 PUSH2 0x1F69 DUP3 PUSH2 0x17F8 JUMP JUMPDEST SWAP2 POP PUSH2 0x1F74 DUP4 PUSH2 0x17F8 JUMP JUMPDEST SWAP3 POP DUP3 PUSH2 0x1F84 JUMPI PUSH2 0x1F83 PUSH2 0x1D2C JUMP JUMPDEST JUMPDEST DUP3 DUP3 DIV SWAP1 POP SWAP3 SWAP2 POP POP JUMP JUMPDEST PUSH0 PUSH2 0x1F99 DUP3 PUSH2 0x17F8 JUMP JUMPDEST SWAP2 POP PUSH2 0x1FA4 DUP4 PUSH2 0x17F8 JUMP JUMPDEST SWAP3 POP DUP3 PUSH2 0x1FB4 JUMPI PUSH2 0x1FB3 PUSH2 0x1D2C JUMP JUMPDEST JUMPDEST DUP3 DUP3 MOD SWAP1 POP SWAP3 SWAP2 POP POP JUMP JUMPDEST PUSH0 PUSH2 0x1FC9 DUP3 PUSH2 0x158F JUMP JUMPDEST SWAP2 POP PUSH2 0x1FD4 DUP4 PUSH2 0x158F JUMP JUMPDEST SWAP3 POP DUP3 DUP3 SUB SWAP1 POP PUSH20 0xFFFFFFFFFFFFFFFFFFFFFFFFFFFFFFFFFFFFFFFF DUP2 GT ISZERO PUSH2 0x2000 JUMPI PUSH2 0x1FFF PUSH2 0x1A17 JUMP JUMPDEST JUMPDEST SWAP3 SWAP2 POP POP JUMP JUMPDEST PUSH2 0x200F DUP2 PUSH2 0x17F8 JUMP JUMPDEST DUP2 EQ PUSH2 0x2019 JUMPI PUSH0 PUSH0 REVERT JUMPDEST POP JUMP JUMPDEST PUSH0 DUP2 MLOAD SWAP1 POP PUSH2 0x202A DUP2 PUSH2 0x2006 JUMP JUMPDEST SWAP3 SWAP2 POP POP JUMP JUMPDEST PUSH0 PUSH1 0x20 DUP3 DUP5 SUB SLT ISZERO PUSH2 0x2045 JUMPI PUSH2 0x2044 PUSH2 0x167B JUMP JUMPDEST JUMPDEST PUSH0 PUSH2 0x2052 DUP5 DUP3 DUP6 ADD PUSH2 0x201C JUMP JUMPDEST SWAP2 POP POP SWAP3 SWAP2 POP POP JUMP JUMPDEST PUSH0 PUSH2 0x2065 DUP3 PUSH2 0x17F8 JUMP JUMPDEST SWAP2 POP PUSH32 0xFFFFFFFFFFFFFFFFFFFFFFFFFFFFFFFFFFFFFFFFFFFFFFFFFFFFFFFFFFFFFFFF DUP3 SUB PUSH2 0x2097 JUMPI PUSH2 0x2096 PUSH2 0x1A17 JUMP JUMPDEST JUMPDEST PUSH1 0x1 DUP3 ADD SWAP1 POP SWAP2 SWAP1 POP JUMP JUMPDEST PUSH32 0x5052424D6174683A206F766572666C6F77000000000000000000000000000000 PUSH0 DUP3 ADD MSTORE POP JUMP JUMPDEST PUSH0 PUSH2 0x20D6 PUSH1 0x11 DUP4 PUSH2 0x1EA6 JUMP JUMPDEST SWAP2 POP PUSH2 0x20E1 DUP3 PUSH2 0x20A2 JUMP JUMPDEST PUSH1 0x20 DUP3 ADD SWAP1 POP SWAP2 SWAP1 POP JUMP JUMPDEST PUSH0 PUSH1 0x20 DUP3 ADD SWAP1 POP DUP2 DUP2 SUB PUSH0 DUP4 ADD MSTORE PUSH2 0x2103 DUP2 PUSH2 0x20CA JUMP JUMPDEST SWAP1 POP SWAP2 SWAP1 POP JUMP INVALID LOG2 PUSH5 0x6970667358 0x22 SLT KECCAK256 PUSH1 0xE1 NUMBER 0xDB RETURNCONTRACT 0x72 PUSH14 0x862EE50585D88C46E7EFE1DD246A BLOBBASEFEE REVERT 0xB6 LOG1 0xBA SWAP3 LOG4 GAS SWAP6 0xD4 PUSH14 0x64736F6C634300081E0033000000 "
				},
				"gasEstimates": {
					"creation": {
						"codeDepositCost": "1702400",
						"executionCost": "infinite",
						"totalCost": "infinite"
					},
					"external": {
						"liquidity()": "2489",
						"mint(address,int24,int24,uint128,bytes)": "infinite",
						"positions(bytes32)": "2808",
						"slot0()": "4829",
						"swap(address,bytes)": "infinite",
						"tickBitmap(int16)": "2784",
						"ticks(int24)": "5206",
						"token0()": "infinite",
						"token1()": "infinite"
					},
					"internal": {
						"balance0()": "infinite",
						"balance1()": "infinite"
					}
				},
				"methodIdentifiers": {
					"liquidity()": "1a686502",
					"mint(address,int24,int24,uint128,bytes)": "3c8a7d8d",
					"positions(bytes32)": "514ea4bf",
					"slot0()": "3850c7bd",
					"swap(address,bytes)": "e3547335",
					"tickBitmap(int16)": "5339c296",
					"ticks(int24)": "f30dba93",
					"token0()": "0dfe1681",
					"token1()": "d21220a7"
				}
			},
			"storageLayout": {
				"storage": [
					{
						"astId": 59,
						"contract": "src/UniswapV3Pool.sol:UniswapV3Pool",
						"label": "slot0",
						"offset": 0,
						"slot": "0",
						"type": "t_struct(Slot0)56_storage"
					},
					{
						"astId": 61,
						"contract": "src/UniswapV3Pool.sol:UniswapV3Pool",
						"label": "liquidity",
						"offset": 0,
						"slot": "1",
						"type": "t_uint128"
					},
					{
						"astId": 66,
						"contract": "src/UniswapV3Pool.sol:UniswapV3Pool",
						"label": "ticks",
						"offset": 0,
						"slot": "2",
						"type": "t_mapping(t_int24,t_struct(Info)1473_storage)"
					},
					{
						"astId": 70,
						"contract": "src/UniswapV3Pool.sol:UniswapV3Pool",
						"label": "tickBitmap",
						"offset": 0,
						"slot": "3",
						"type": "t_mapping(t_int16,t_uint256)"
					},
					{
						"astId": 75,
						"contract": "src/UniswapV3Pool.sol:UniswapV3Pool",
						"label": "positions",
						"offset": 0,
						"slot": "4",
						"type": "t_mapping(t_bytes32,t_struct(Info)1408_storage)"
					}
				],
				"types": {
					"t_bool": {
						"encoding": "inplace",
						"label": "bool",
						"numberOfBytes": "1"
					},
					"t_bytes32": {
						"encoding": "inplace",
						"label": "bytes32",
						"numberOfBytes": "32"
					},
					"t_int16": {
						"encoding": "inplace",
						"label": "int16",
						"numberOfBytes": "2"
					},
					"t_int24": {
						"encoding": "inplace",
						"label": "int24",
						"numberOfBytes": "3"
					},
					"t_mapping(t_bytes32,t_struct(Info)1408_storage)": {
						"encoding": "mapping",
						"key": "t_bytes32",
						"label": "mapping(bytes32 => struct Position.Info)",
						"numberOfBytes": "32",
						"value": "t_struct(Info)1408_storage"
					},
					"t_mapping(t_int16,t_uint256)": {
						"encoding": "mapping",
						"key": "t_int16",
						"label": "mapping(int16 => uint256)",
						"numberOfBytes": "32",
						"value": "t_uint256"
					},
					"t_mapping(t_int24,t_struct(Info)1473_storage)": {
						"encoding": "mapping",
						"key": "t_int24",
						"label": "mapping(int24 => struct Tick.Info)",
						"numberOfBytes": "32",
						"value": "t_struct(Info)1473_storage"
					},
					"t_struct(Info)1408_storage": {
						"encoding": "inplace",
						"label": "struct Position.Info",
						"members": [
							{
								"astId": 1407,
								"contract": "src/UniswapV3Pool.sol:UniswapV3Pool",
								"label": "liquidity",
								"offset": 0,
								"slot": "0",
								"type": "t_uint128"
							}
						],
						"numberOfBytes": "32"
					},
					"t_struct(Info)1473_storage": {
						"encoding": "inplace",
						"label": "struct Tick.Info",
						"members": [
							{
								"astId": 1470,
								"contract": "src/UniswapV3Pool.sol:UniswapV3Pool",
								"label": "initialized",
								"offset": 0,
								"slot": "0",
								"type": "t_bool"
							},
							{
								"astId": 1472,
								"contract": "src/UniswapV3Pool.sol:UniswapV3Pool",
								"label": "liquidity",
								"offset": 1,
								"slot": "0",
								"type": "t_uint128"
							}
						],
						"numberOfBytes": "32"
					},
					"t_struct(Slot0)56_storage": {
						"encoding": "inplace",
						"label": "struct UniswapV3Pool.Slot0",
						"members": [
							{
								"astId": 53,
								"contract": "src/UniswapV3Pool.sol:UniswapV3Pool",
								"label": "sqrtPriceX96",
								"offset": 0,
								"slot": "0",
								"type": "t_uint160"
							},
							{
								"astId": 55,
								"contract": "src/UniswapV3Pool.sol:UniswapV3Pool",
								"label": "tick",
								"offset": 20,
								"slot": "0",
								"type": "t_int24"
							}
						],
						"numberOfBytes": "32"
					},
					"t_uint128": {
						"encoding": "inplace",
						"label": "uint128",
						"numberOfBytes": "16"
					},
					"t_uint160": {
						"encoding": "inplace",
						"label": "uint160",
						"numberOfBytes": "20"
					},
					"t_uint256": {
						"encoding": "inplace",
						"label": "uint256",
						"numberOfBytes": "32"
					}
				}
			},
			"userdoc": {
				"events": {
					"Burn(address,int24,int24,uint128,uint256,uint256)": {
						"notice": "Emitted when a position's liquidity is removed"
					},
					"Collect(address,address,int24,int24,uint128,uint128)": {
						"notice": "Emitted when fees are collected by the owner of a position"
					},
					"CollectProtocol(address,address,uint128,uint128)": {
						"notice": "Emitted when the collected protocol fees are withdrawn by the factory owner"
					},
					"Flash(address,address,uint256,uint256,uint256,uint256)": {
						"notice": "Emitted by the pool for any flashes of token0/token1"
					},
					"IncreaseObservationCardinalityNext(uint16,uint16)": {
						"notice": "Emitted by the pool for increases to the number of observations that can be stored"
					},
					"Initialize(uint160,int24)": {
						"notice": "Emitted exactly once by a pool when #initialize is first called on the pool"
					},
					"Mint(address,address,int24,int24,uint128,uint256,uint256)": {
						"notice": "Emitted when liquidity is minted for a given position"
					},
					"SetFeeProtocol(uint8,uint8,uint8,uint8)": {
						"notice": "Emitted when the protocol fee is changed by the pool"
					},
					"Swap(address,address,int256,int256,uint160,uint128,int24)": {
						"notice": "Emitted by the pool for any swaps between token0 and token1"
					}
				},
				"kind": "user",
				"methods": {},
				"version": 1
			}
		}
	}
}