{
	"data": {
		"bytecode": {
			"linkReferences": {
				"remix_tests.sol": {
					"Assert": [
						{
							"length": 20,
							"start": 3166
						},
						{
							"length": 20,
							"start": 3480
						},
						{
							"length": 20,
							"start": 4160
						},
						{
							"length": 20,
							"start": 4513
						},
						{
							"length": 20,
							"start": 4647
						},
						{
							"length": 20,
							"start": 5918
						},
						{
							"length": 20,
							"start": 6071
						},
						{
							"length": 20,
							"start": 6201
						},
						{
							"length": 20,
							"start": 6526
						}
					]
				}
			},
			"object": "6080604052735b38da6a701c568545dcfcb03fcb875f56beddc45f5f6101000a81548173ffffffffffffffffffffffffffffffffffffffff021916908373ffffffffffffffffffffffffffffffffffffffff1602179055503480156061575f5ffd5b50615b208061006f5f395ff3fe608060405234801561000f575f5ffd5b506004361061007b575f3560e01c8063676c33cc11610059578063676c33cc146100c557806380eefb32146100e3578063d348799714610102578063fa461e331461011e5761007b565b806305558d2d1461007f57806316f0115b1461009d5780636331e7d4146100bb575b5f5ffd5b61008761013a565b6040516100949190611f0a565b60405180910390f35b6100a561015f565b6040516100b29190611f43565b60405180910390f35b6100c3610184565b005b6100cd61034c565b6040516100da9190611f0a565b60405180910390f35b6100eb610371565b6040516100f9929190611f74565b60405180910390f35b61011c6004803603810190610117919061202e565b611a61565b005b610138600480360381019061013391906120d2565b611ba1565b005b60025f9054906101000a900473ffffffffffffffffffffffffffffffffffffffff1681565b60015f9054906101000a900473ffffffffffffffffffffffffffffffffffffffff1681565b5f6c46b5ef004d9ae000000000000090505f62014cb8905069021e19e0c9bab24000006040516101b390611e6c565b6101bd9190612220565b604051809103905ff0801580156101d6573d5f5f3e3d5ffd5b5060025f6101000a81548173ffffffffffffffffffffffffffffffffffffffff021916908373ffffffffffffffffffffffffffffffffffffffff16021790555069021e19e0c9bab240000060405161022d90611e6c565b61023791906122f3565b604051809103905ff080158015610250573d5f5f3e3d5ffd5b5060035f6101000a81548173ffffffffffffffffffffffffffffffffffffffff021916908373ffffffffffffffffffffffffffffffffffffffff16021790555060025f9054906101000a900473ffffffffffffffffffffffffffffffffffffffff1660035f9054906101000a900473ffffffffffffffffffffffffffffffffffffffff1683836040516102e290611e79565b6102ef949392919061237c565b604051809103905ff080158015610308573d5f5f3e3d5ffd5b5060015f6101000a81548173ffffffffffffffffffffffffffffffffffffffff021916908373ffffffffffffffffffffffffffffffffffffffff1602179055505050565b60035f9054906101000a900473ffffffffffffffffffffffffffffffffffffffff1681565b5f5f5f620148fe90505f6201507190505f685248d95d8e821c000090506103cc6040518060400160405280601f81526020017f3d3d3d3d3d3d3d3d3d3d3de993b8e980a0e5898d3d3d3d3d3d3d3d3d3d3d3d00815250611cf3565b6104a36040518060400160405280601381526020017f7573657220657263302062616c616e63653a200000000000000000000000000081525060025f9054906101000a900473ffffffffffffffffffffffffffffffffffffffff1673ffffffffffffffffffffffffffffffffffffffff166370a08231306040518263ffffffff1660e01b815260040161045f91906123bf565b602060405180830381865afa15801561047a573d5f5f3e3d5ffd5b505050506040513d601f19601f8201168201806040525081019061049e91906123ec565b611d8c565b61057a6040518060400160405280601381526020017f7573657220657263312062616c616e63653a200000000000000000000000000081525060035f9054906101000a900473ffffffffffffffffffffffffffffffffffffffff1673ffffffffffffffffffffffffffffffffffffffff166370a08231306040518263ffffffff1660e01b815260040161053691906123bf565b602060405180830381865afa158015610551573d5f5f3e3d5ffd5b505050506040513d601f19601f8201168201806040525081019061057591906123ec565b611d8c565b6106726040518060400160405280601381526020017f706f6f6c20657263302062616c616e63653a200000000000000000000000000081525060025f9054906101000a900473ffffffffffffffffffffffffffffffffffffffff1673ffffffffffffffffffffffffffffffffffffffff166370a0823160015f9054906101000a900473ffffffffffffffffffffffffffffffffffffffff166040518263ffffffff1660e01b815260040161062e91906123bf565b602060405180830381865afa158015610649573d5f5f3e3d5ffd5b505050506040513d601f19601f8201168201806040525081019061066d91906123ec565b611d8c565b61076a6040518060400160405280601381526020017f706f6f6c20657263312062616c616e63653a200000000000000000000000000081525060035f9054906101000a900473ffffffffffffffffffffffffffffffffffffffff1673ffffffffffffffffffffffffffffffffffffffff166370a0823160015f9054906101000a900473ffffffffffffffffffffffffffffffffffffffff166040518263ffffffff1660e01b815260040161072691906123bf565b602060405180830381865afa158015610741573d5f5f3e3d5ffd5b505050506040513d601f19601f8201168201806040525081019061076591906123ec565b611d8c565b60015f9054906101000a900473ffffffffffffffffffffffffffffffffffffffff1673ffffffffffffffffffffffffffffffffffffffff16633c8a7d8d308585856040518563ffffffff1660e01b81526004016107ca9493929190612474565b60408051808303815f875af11580156107e5573d5f5f3e3d5ffd5b505050506040513d601f19601f8201168201806040525081019061080991906124ca565b809550819650505061084f6040518060400160405280601f81526020017f3d3d3d3d3d3d3d3d3d3d3de993b8e980a0e5908e3d3d3d3d3d3d3d3d3d3d3d00815250611cf3565b6109266040518060400160405280601381526020017f7573657220657263302062616c616e63653a200000000000000000000000000081525060025f9054906101000a900473ffffffffffffffffffffffffffffffffffffffff1673ffffffffffffffffffffffffffffffffffffffff166370a08231306040518263ffffffff1660e01b81526004016108e291906123bf565b602060405180830381865afa1580156108fd573d5f5f3e3d5ffd5b505050506040513d601f19601f8201168201806040525081019061092191906123ec565b611d8c565b6109fd6040518060400160405280601381526020017f7573657220657263312062616c616e63653a200000000000000000000000000081525060035f9054906101000a900473ffffffffffffffffffffffffffffffffffffffff1673ffffffffffffffffffffffffffffffffffffffff166370a08231306040518263ffffffff1660e01b81526004016109b991906123bf565b602060405180830381865afa1580156109d4573d5f5f3e3d5ffd5b505050506040513d601f19601f820116820180604052508101906109f891906123ec565b611d8c565b610af56040518060400160405280601381526020017f706f6f6c20657263302062616c616e63653a200000000000000000000000000081525060025f9054906101000a900473ffffffffffffffffffffffffffffffffffffffff1673ffffffffffffffffffffffffffffffffffffffff166370a0823160015f9054906101000a900473ffffffffffffffffffffffffffffffffffffffff166040518263ffffffff1660e01b8152600401610ab191906123bf565b602060405180830381865afa158015610acc573d5f5f3e3d5ffd5b505050506040513d601f19601f82011682018060405250810190610af091906123ec565b611d8c565b610bed6040518060400160405280601381526020017f706f6f6c20657263312062616c616e63653a200000000000000000000000000081525060035f9054906101000a900473ffffffffffffffffffffffffffffffffffffffff1673ffffffffffffffffffffffffffffffffffffffff166370a0823160015f9054906101000a900473ffffffffffffffffffffffffffffffffffffffff166040518263ffffffff1660e01b8152600401610ba991906123bf565b602060405180830381865afa158015610bc4573d5f5f3e3d5ffd5b505050506040513d601f19601f82011682018060405250810190610be891906123ec565b611d8c565b73__$acbfb1c35000d78352310b16a054a6b106$__6339df137f670ddd13f10b84ee0060025f9054906101000a900473ffffffffffffffffffffffffffffffffffffffff1673ffffffffffffffffffffffffffffffffffffffff166370a0823160015f9054906101000a900473ffffffffffffffffffffffffffffffffffffffff166040518263ffffffff1660e01b8152600401610c8b91906123bf565b602060405180830381865afa158015610ca6573d5f5f3e3d5ffd5b505050506040513d601f19601f82011682018060405250810190610cca91906123ec565b146040518263ffffffff1660e01b8152600401610ce7919061257c565b602060405180830381865af4158015610d02573d5f5f3e3d5ffd5b505050506040513d601f19601f82011682018060405250810190610d2691906125d2565b5073__$acbfb1c35000d78352310b16a054a6b106$__6339df137f69010f0cf064dd5920000060035f9054906101000a900473ffffffffffffffffffffffffffffffffffffffff1673ffffffffffffffffffffffffffffffffffffffff166370a0823160015f9054906101000a900473ffffffffffffffffffffffffffffffffffffffff166040518263ffffffff1660e01b8152600401610dc791906123bf565b602060405180830381865afa158015610de2573d5f5f3e3d5ffd5b505050506040513d601f19601f82011682018060405250810190610e0691906123ec565b146040518263ffffffff1660e01b8152600401610e239190612647565b602060405180830381865af4158015610e3e573d5f5f3e3d5ffd5b505050506040513d601f19601f82011682018060405250810190610e6291906125d2565b505f308484604051602001610e79939291906126ec565b6040516020818303038152906040528051906020012090505f60015f9054906101000a900473ffffffffffffffffffffffffffffffffffffffff1673ffffffffffffffffffffffffffffffffffffffff1663514ea4bf836040518263ffffffff1660e01b8152600401610eec9190612740565b602060405180830381865afa158015610f07573d5f5f3e3d5ffd5b505050506040513d601f19601f82011682018060405250810190610f2b9190612783565b9050610f7e6040518060400160405280600b81526020017f6c69717569646974793a20000000000000000000000000000000000000000000815250846fffffffffffffffffffffffffffffffff16611d8c565b610fcf6040518060400160405280600e81526020017f706f73206c69717569646974793a000000000000000000000000000000000000815250826fffffffffffffffffffffffffffffffff16611d8c565b73__$acbfb1c35000d78352310b16a054a6b106$__63abcd796082856040518363ffffffff1660e01b81526004016110089291906127de565b602060405180830381865af4158015611023573d5f5f3e3d5ffd5b505050506040513d601f19601f8201168201806040525081019061104791906125d2565b505f5f60015f9054906101000a900473ffffffffffffffffffffffffffffffffffffffff1673ffffffffffffffffffffffffffffffffffffffff16633850c7bd6040518163ffffffff1660e01b81526004016040805180830381865afa1580156110b3573d5f5f3e3d5ffd5b505050506040513d601f19601f820116820180604052508101906110d7919061286c565b915091506111306040518060400160405280601081526020017f73717274207072696365205839363a20000000000000000000000000000000008152508373ffffffffffffffffffffffffffffffffffffffff16611d8c565b73__$acbfb1c35000d78352310b16a054a6b106$__63abcd7960836c46b5ef004d9ae00000000000006040518363ffffffff1660e01b815260040161117692919061295d565b602060405180830381865af4158015611191573d5f5f3e3d5ffd5b505050506040513d601f19601f820116820180604052508101906111b591906125d2565b5073__$acbfb1c35000d78352310b16a054a6b106$__63f5bae6b68262014cb86040518363ffffffff1660e01b81526004016111f2929190612a4a565b602060405180830381865af415801561120d573d5f5f3e3d5ffd5b505050506040513d601f19601f8201168201806040525081019061123191906125d2565b506112706040518060400160405280601f81526020017f3d3d3d3d3d3d3d3d3d3d3de8bdace8b4a6e5908e3d3d3d3d3d3d3d3d3d3d3d00815250611cf3565b5f5f60015f9054906101000a900473ffffffffffffffffffffffffffffffffffffffff1673ffffffffffffffffffffffffffffffffffffffff1663e3547335306040518263ffffffff1660e01b81526004016112cc9190612a84565b60408051808303815f875af11580156112e7573d5f5f3e3d5ffd5b505050506040513d601f19601f8201168201806040525081019061130b9190612ac4565b915091506113e66040518060400160405280601381526020017f7573657220657263302062616c616e63653a200000000000000000000000000081525060025f9054906101000a900473ffffffffffffffffffffffffffffffffffffffff1673ffffffffffffffffffffffffffffffffffffffff166370a08231306040518263ffffffff1660e01b81526004016113a291906123bf565b602060405180830381865afa1580156113bd573d5f5f3e3d5ffd5b505050506040513d601f19601f820116820180604052508101906113e191906123ec565b611d8c565b6114bd6040518060400160405280601381526020017f7573657220657263312062616c616e63653a200000000000000000000000000081525060035f9054906101000a900473ffffffffffffffffffffffffffffffffffffffff1673ffffffffffffffffffffffffffffffffffffffff166370a08231306040518263ffffffff1660e01b815260040161147991906123bf565b602060405180830381865afa158015611494573d5f5f3e3d5ffd5b505050506040513d601f19601f820116820180604052508101906114b891906123ec565b611d8c565b6115b56040518060400160405280601381526020017f706f6f6c20657263302062616c616e63653a200000000000000000000000000081525060025f9054906101000a900473ffffffffffffffffffffffffffffffffffffffff1673ffffffffffffffffffffffffffffffffffffffff166370a0823160015f9054906101000a900473ffffffffffffffffffffffffffffffffffffffff166040518263ffffffff1660e01b815260040161157191906123bf565b602060405180830381865afa15801561158c573d5f5f3e3d5ffd5b505050506040513d601f19601f820116820180604052508101906115b091906123ec565b611d8c565b6116ad6040518060400160405280601381526020017f706f6f6c20657263312062616c616e63653a200000000000000000000000000081525060035f9054906101000a900473ffffffffffffffffffffffffffffffffffffffff1673ffffffffffffffffffffffffffffffffffffffff166370a0823160015f9054906101000a900473ffffffffffffffffffffffffffffffffffffffff166040518263ffffffff1660e01b815260040161166991906123bf565b602060405180830381865afa158015611684573d5f5f3e3d5ffd5b505050506040513d601f19601f820116820180604052508101906116a891906123ec565b611d8c565b73__$acbfb1c35000d78352310b16a054a6b106$__63f5bae6b6837fffffffffffffffffffffffffffffffffffffffffffffffffffe22b3b9e50c0f46040518363ffffffff1660e01b8152600401611706929190612b94565b602060405180830381865af4158015611721573d5f5f3e3d5ffd5b505050506040513d601f19601f8201168201806040525081019061174591906125d2565b5073__$acbfb1c35000d78352310b16a054a6b106$__63f5bae6b682680246ddf979766800006040518363ffffffff1660e01b8152600401611788929190612c51565b602060405180830381865af41580156117a3573d5f5f3e3d5ffd5b505050506040513d601f19601f820116820180604052508101906117c791906125d2565b5073__$acbfb1c35000d78352310b16a054a6b106$__63abcd796060025f9054906101000a900473ffffffffffffffffffffffffffffffffffffffff1673ffffffffffffffffffffffffffffffffffffffff166370a0823160015f9054906101000a900473ffffffffffffffffffffffffffffffffffffffff166040518263ffffffff1660e01b815260040161185d91906123bf565b602060405180830381865afa158015611878573d5f5f3e3d5ffd5b505050506040513d601f19601f8201168201806040525081019061189c91906123ec565b84670ddd13f10b84ee006118b09190612cb8565b6040518363ffffffff1660e01b81526004016118cd929190612d52565b602060405180830381865af41580156118e8573d5f5f3e3d5ffd5b505050506040513d601f19601f8201168201806040525081019061190c91906125d2565b5073__$acbfb1c35000d78352310b16a054a6b106$__63abcd796060035f9054906101000a900473ffffffffffffffffffffffffffffffffffffffff1673ffffffffffffffffffffffffffffffffffffffff166370a0823160015f9054906101000a900473ffffffffffffffffffffffffffffffffffffffff166040518263ffffffff1660e01b81526004016119a291906123bf565b602060405180830381865afa1580156119bd573d5f5f3e3d5ffd5b505050506040513d601f19601f820116820180604052508101906119e191906123ec565b8369010f0cf064dd592000006119f79190612cb8565b6040518363ffffffff1660e01b8152600401611a14929190612dd6565b602060405180830381865af4158015611a2f573d5f5f3e3d5ffd5b505050506040513d601f19601f82011682018060405250810190611a5391906125d2565b505050505050505050509091565b60025f9054906101000a900473ffffffffffffffffffffffffffffffffffffffff1673ffffffffffffffffffffffffffffffffffffffff1663a9059cbb33866040518363ffffffff1660e01b8152600401611abd929190612e10565b6020604051808303815f875af1158015611ad9573d5f5f3e3d5ffd5b505050506040513d601f19601f82011682018060405250810190611afd91906125d2565b5060035f9054906101000a900473ffffffffffffffffffffffffffffffffffffffff1673ffffffffffffffffffffffffffffffffffffffff1663a9059cbb33856040518363ffffffff1660e01b8152600401611b5a929190612e10565b6020604051808303815f875af1158015611b76573d5f5f3e3d5ffd5b505050506040513d601f19601f82011682018060405250810190611b9a91906125d2565b5050505050565b5f841315611c475760025f9054906101000a900473ffffffffffffffffffffffffffffffffffffffff1673ffffffffffffffffffffffffffffffffffffffff1663a9059cbb33866040518363ffffffff1660e01b8152600401611c05929190612e10565b6020604051808303815f875af1158015611c21573d5f5f3e3d5ffd5b505050506040513d601f19601f82011682018060405250810190611c4591906125d2565b505b5f831315611ced5760035f9054906101000a900473ffffffffffffffffffffffffffffffffffffffff1673ffffffffffffffffffffffffffffffffffffffff1663a9059cbb33856040518363ffffffff1660e01b8152600401611cab929190612e10565b6020604051808303815f875af1158015611cc7573d5f5f3e3d5ffd5b505050506040513d601f19601f82011682018060405250810190611ceb91906125d2565b505b50505050565b611d8981604051602401611d079190612e97565b6040516020818303038152906040527f41304fac000000000000000000000000000000000000000000000000000000007bffffffffffffffffffffffffffffffffffffffffffffffffffffffff19166020820180517bffffffffffffffffffffffffffffffffffffffffffffffffffffffff8381831617835250505050611e28565b50565b611e248282604051602401611da2929190612eb7565b6040516020818303038152906040527fb60e72cc000000000000000000000000000000000000000000000000000000007bffffffffffffffffffffffffffffffffffffffffffffffffffffffff19166020820180517bffffffffffffffffffffffffffffffffffffffffffffffffffffffff8381831617835250505050611e28565b5050565b611e3f81611e37611e42611e61565b63ffffffff16565b50565b5f6a636f6e736f6c652e6c6f6790505f5f835160208501845afa505050565b611e86819050919050565b6114ea80612f1383390190565b6116ee806143fd83390190565b611e8e612ee5565b565b5f73ffffffffffffffffffffffffffffffffffffffff82169050919050565b5f819050919050565b5f611ed2611ecd611ec884611e90565b611eaf565b611e90565b9050919050565b5f611ee382611eb8565b9050919050565b5f611ef482611ed9565b9050919050565b611f0481611eea565b82525050565b5f602082019050611f1d5f830184611efb565b92915050565b5f611f2d82611ed9565b9050919050565b611f3d81611f23565b82525050565b5f602082019050611f565f830184611f34565b92915050565b5f819050919050565b611f6e81611f5c565b82525050565b5f604082019050611f875f830185611f65565b611f946020830184611f65565b9392505050565b5f5ffd5b5f5ffd5b611fac81611f5c565b8114611fb6575f5ffd5b50565b5f81359050611fc781611fa3565b92915050565b5f5ffd5b5f5ffd5b5f5ffd5b5f5f83601f840112611fee57611fed611fcd565b5b8235905067ffffffffffffffff81111561200b5761200a611fd1565b5b60208301915083600182028301111561202757612026611fd5565b5b9250929050565b5f5f5f5f6060858703121561204657612045611f9b565b5b5f61205387828801611fb9565b945050602061206487828801611fb9565b935050604085013567ffffffffffffffff81111561208557612084611f9f565b5b61209187828801611fd9565b925092505092959194509250565b5f819050919050565b6120b18161209f565b81146120bb575f5ffd5b50565b5f813590506120cc816120a8565b92915050565b5f5f5f5f606085870312156120ea576120e9611f9b565b5b5f6120f7878288016120be565b9450506020612108878288016120be565b935050604085013567ffffffffffffffff81111561212957612128611f9f565b5b61213587828801611fd9565b925092505092959194509250565b5f819050919050565b5f61216661216161215c84612143565b611eaf565b611f5c565b9050919050565b6121768161214c565b82525050565b5f82825260208201905092915050565b7f45544800000000000000000000000000000000000000000000000000000000005f82015250565b5f6121c060038361217c565b91506121cb8261218c565b602082019050919050565b7f77657468000000000000000000000000000000000000000000000000000000005f82015250565b5f61220a60048361217c565b9150612215826121d6565b602082019050919050565b5f6060820190506122335f83018461216d565b8181036020830152612244816121b4565b90508181036040830152612257816121fe565b905092915050565b7f55534454000000000000000000000000000000000000000000000000000000005f82015250565b5f61229360048361217c565b915061229e8261225f565b602082019050919050565b7f75736474000000000000000000000000000000000000000000000000000000005f82015250565b5f6122dd60048361217c565b91506122e8826122a9565b602082019050919050565b5f6060820190506123065f83018461216d565b818103602083015261231781612287565b9050818103604083015261232a816122d1565b905092915050565b5f61233c82611e90565b9050919050565b61234c81612332565b82525050565b61235b81611e90565b82525050565b5f8160020b9050919050565b61237681612361565b82525050565b5f60808201905061238f5f830187612343565b61239c6020830186612343565b6123a96040830185612352565b6123b6606083018461236d565b95945050505050565b5f6020820190506123d25f830184612343565b92915050565b5f815190506123e681611fa3565b92915050565b5f6020828403121561240157612400611f9b565b5b5f61240e848285016123d8565b91505092915050565b5f6fffffffffffffffffffffffffffffffff82169050919050565b61243b81612417565b82525050565b5f82825260208201905092915050565b50565b5f61245f5f83612441565b915061246a82612451565b5f82019050919050565b5f60a0820190506124875f830187612343565b612494602083018661236d565b6124a1604083018561236d565b6124ae6060830184612432565b81810360808301526124bf81612454565b905095945050505050565b5f5f604083850312156124e0576124df611f9b565b5b5f6124ed858286016123d8565b92505060206124fe858286016123d8565b9150509250929050565b5f8115159050919050565b61251c81612508565b82525050565b5f82825260208201905092915050565b7fe993b8e980a0e5908e20657263302062616c616e63652069732077726f6e67005f82015250565b5f612566601f83612522565b915061257182612532565b602082019050919050565b5f60408201905061258f5f830184612513565b81810360208301526125a08161255a565b905092915050565b6125b181612508565b81146125bb575f5ffd5b50565b5f815190506125cc816125a8565b92915050565b5f602082840312156125e7576125e6611f9b565b5b5f6125f4848285016125be565b91505092915050565b7fe993b8e980a0e5908e20657263312062616c616e63652069732077726f6e67005f82015250565b5f612631601f83612522565b915061263c826125fd565b602082019050919050565b5f60408201905061265a5f830184612513565b818103602083015261266b81612625565b905092915050565b5f8160601b9050919050565b5f61268982612673565b9050919050565b5f61269a8261267f565b9050919050565b6126b26126ad82612332565b612690565b82525050565b5f8160e81b9050919050565b5f6126ce826126b8565b9050919050565b6126e66126e182612361565b6126c4565b82525050565b5f6126f782866126a1565b60148201915061270782856126d5565b60038201915061271782846126d5565b600382019150819050949350505050565b5f819050919050565b61273a81612728565b82525050565b5f6020820190506127535f830184612731565b92915050565b61276281612417565b811461276c575f5ffd5b50565b5f8151905061277d81612759565b92915050565b5f6020828403121561279857612797611f9b565b5b5f6127a58482850161276f565b91505092915050565b5f6127c86127c36127be84612417565b611eaf565b611f5c565b9050919050565b6127d8816127ae565b82525050565b5f6060820190506127f15f8301856127cf565b6127fe60208301846127cf565b818103604083015261280f8161255a565b90509392505050565b61282181611e90565b811461282b575f5ffd5b50565b5f8151905061283c81612818565b92915050565b61284b81612361565b8114612855575f5ffd5b50565b5f8151905061286681612842565b92915050565b5f5f6040838503121561288257612881611f9b565b5b5f61288f8582860161282e565b92505060206128a085828601612858565b9150509250929050565b5f6128c46128bf6128ba84611e90565b611eaf565b611f5c565b9050919050565b6128d4816128aa565b82525050565b5f819050919050565b5f6128fd6128f86128f3846128da565b611eaf565b611f5c565b9050919050565b61290d816128e3565b82525050565b7f73717274207072696365205839362069732077726f6e670000000000000000005f82015250565b5f612947601783612522565b915061295282612913565b602082019050919050565b5f6060820190506129705f8301856128cb565b61297d6020830184612904565b818103604083015261298e8161293b565b90509392505050565b5f6129b16129ac6129a784612361565b611eaf565b61209f565b9050919050565b6129c181612997565b82525050565b5f819050919050565b5f6129ea6129e56129e0846129c7565b611eaf565b61209f565b9050919050565b6129fa816129d0565b82525050565b7f7469636b2069732077726f6e67000000000000000000000000000000000000005f82015250565b5f612a34600d83612522565b9150612a3f82612a00565b602082019050919050565b5f606082019050612a5d5f8301856129b8565b612a6a60208301846129f1565b8181036040830152612a7b81612a28565b90509392505050565b5f604082019050612a975f830184612343565b8181036020830152612aa881612454565b905092915050565b5f81519050612abe816120a8565b92915050565b5f5f60408385031215612ada57612ad9611f9b565b5b5f612ae785828601612ab0565b9250506020612af885828601612ab0565b9150509250929050565b612b0b8161209f565b82525050565b5f819050919050565b5f612b34612b2f612b2a84612b11565b611eaf565b61209f565b9050919050565b612b4481612b1a565b82525050565b7f696e76616c696420455448206f757400000000000000000000000000000000005f82015250565b5f612b7e600f83612522565b9150612b8982612b4a565b602082019050919050565b5f606082019050612ba75f830185612b02565b612bb46020830184612b3b565b8181036040830152612bc581612b72565b90509392505050565b5f819050919050565b5f612bf1612bec612be784612bce565b611eaf565b61209f565b9050919050565b612c0181612bd7565b82525050565b7f696e76616c6964205553444320696e00000000000000000000000000000000005f82015250565b5f612c3b600f83612522565b9150612c4682612c07565b602082019050919050565b5f606082019050612c645f830185612b02565b612c716020830184612bf8565b8181036040830152612c8281612c2f565b90509392505050565b7f4e487b71000000000000000000000000000000000000000000000000000000005f52601160045260245ffd5b5f612cc28261209f565b9150612ccd8361209f565b92508282019050828112155f8312168382125f841215161715612cf357612cf2612c8b565b5b92915050565b612d0281611f5c565b82525050565b7f696e76616c696420706f6f6c204554482062616c616e636500000000000000005f82015250565b5f612d3c601883612522565b9150612d4782612d08565b602082019050919050565b5f606082019050612d655f830185612cf9565b612d726020830184612cf9565b8181036040830152612d8381612d30565b90509392505050565b7f696e76616c696420706f6f6c20555344432062616c616e6365000000000000005f82015250565b5f612dc0601983612522565b9150612dcb82612d8c565b602082019050919050565b5f606082019050612de95f830185612cf9565b612df66020830184612cf9565b8181036040830152612e0781612db4565b90509392505050565b5f604082019050612e235f830185612343565b612e306020830184611f65565b9392505050565b5f81519050919050565b8281835e5f83830152505050565b5f601f19601f8301169050919050565b5f612e6982612e37565b612e73818561217c565b9350612e83818560208601612e41565b612e8c81612e4f565b840191505092915050565b5f6020820190508181035f830152612eaf8184612e5f565b905092915050565b5f6040820190508181035f830152612ecf8185612e5f565b9050612ede6020830184611f65565b9392505050565b7f4e487b71000000000000000000000000000000000000000000000000000000005f52605160045260245ffdfe6080604052601260025f6101000a81548160ff021916908360ff16021790555034801561002a575f5ffd5b506040516114ea3803806114ea833981810160405281019061004c91906102a1565b826003819055508260045f3373ffffffffffffffffffffffffffffffffffffffff1673ffffffffffffffffffffffffffffffffffffffff1681526020019081526020015f2081905550815f90816100a39190610530565b5080600190816100b39190610530565b503373ffffffffffffffffffffffffffffffffffffffff165f73ffffffffffffffffffffffffffffffffffffffff167fddf252ad1be2c89b69c2b068fc378daa952ba7f163c4a11628f55a4df523b3ef85604051610111919061060e565b60405180910390a3505050610627565b5f604051905090565b5f5ffd5b5f5ffd5b5f819050919050565b61014481610132565b811461014e575f5ffd5b50565b5f8151905061015f8161013b565b92915050565b5f5ffd5b5f5ffd5b5f601f19601f8301169050919050565b7f4e487b71000000000000000000000000000000000000000000000000000000005f52604160045260245ffd5b6101b38261016d565b810181811067ffffffffffffffff821117156101d2576101d161017d565b5b80604052505050565b5f6101e4610121565b90506101f082826101aa565b919050565b5f67ffffffffffffffff82111561020f5761020e61017d565b5b6102188261016d565b9050602081019050919050565b8281835e5f83830152505050565b5f610245610240846101f5565b6101db565b90508281526020810184848401111561026157610260610169565b5b61026c848285610225565b509392505050565b5f82601f83011261028857610287610165565b5b8151610298848260208601610233565b91505092915050565b5f5f5f606084860312156102b8576102b761012a565b5b5f6102c586828701610151565b935050602084015167ffffffffffffffff8111156102e6576102e561012e565b5b6102f286828701610274565b925050604084015167ffffffffffffffff8111156103135761031261012e565b5b61031f86828701610274565b9150509250925092565b5f81519050919050565b7f4e487b71000000000000000000000000000000000000000000000000000000005f52602260045260245ffd5b5f600282049050600182168061037757607f821691505b60208210810361038a57610389610333565b5b50919050565b5f819050815f5260205f209050919050565b5f6020601f8301049050919050565b5f82821b905092915050565b5f600883026103ec7fffffffffffffffffffffffffffffffffffffffffffffffffffffffffffffffff826103b1565b6103f686836103b1565b95508019841693508086168417925050509392505050565b5f819050919050565b5f61043161042c61042784610132565b61040e565b610132565b9050919050565b5f819050919050565b61044a83610417565b61045e61045682610438565b8484546103bd565b825550505050565b5f5f905090565b610475610466565b610480818484610441565b505050565b5b818110156104a3576104985f8261046d565b600181019050610486565b5050565b601f8211156104e8576104b981610390565b6104c2846103a2565b810160208510156104d1578190505b6104e56104dd856103a2565b830182610485565b50505b505050565b5f82821c905092915050565b5f6105085f19846008026104ed565b1980831691505092915050565b5f61052083836104f9565b9150826002028217905092915050565b61053982610329565b67ffffffffffffffff8111156105525761055161017d565b5b61055c8254610360565b6105678282856104a7565b5f60209050601f831160018114610598575f8415610586578287015190505b6105908582610515565b8655506105f7565b601f1984166105a686610390565b5f5b828110156105cd578489015182556001820191506020850194506020810190506105a8565b868310156105ea57848901516105e6601f8916826104f9565b8355505b6001600288020188555050505b505050505050565b61060881610132565b82525050565b5f6020820190506106215f8301846105ff565b92915050565b610eb6806106345f395ff3fe608060405234801561000f575f5ffd5b5060043610610091575f3560e01c8063313ce56711610064578063313ce5671461013157806370a082311461014f57806395d89b411461017f578063a9059cbb1461019d578063dd62ed3e146101cd57610091565b806306fdde0314610095578063095ea7b3146100b357806318160ddd146100e357806323b872dd14610101575b5f5ffd5b61009d6101fd565b6040516100aa9190610a21565b60405180910390f35b6100cd60048036038101906100c89190610ad2565b610288565b6040516100da9190610b2a565b60405180910390f35b6100eb610375565b6040516100f89190610b52565b60405180910390f35b61011b60048036038101906101169190610b6b565b61037b565b6040516101289190610b2a565b60405180910390f35b610139610637565b6040516101469190610bd6565b60405180910390f35b61016960048036038101906101649190610bef565b610649565b6040516101769190610b52565b60405180910390f35b61018761068f565b6040516101949190610a21565b60405180910390f35b6101b760048036038101906101b29190610ad2565b61071b565b6040516101c49190610b2a565b60405180910390f35b6101e760048036038101906101e29190610c1a565b6107b1565b6040516101f49190610b52565b60405180910390f35b5f805461020990610c85565b80601f016020809104026020016040519081016040528092919081815260200182805461023590610c85565b80156102805780601f1061025757610100808354040283529160200191610280565b820191905f5260205f20905b81548152906001019060200180831161026357829003601f168201915b505050505081565b5f8160055f3373ffffffffffffffffffffffffffffffffffffffff1673ffffffffffffffffffffffffffffffffffffffff1681526020019081526020015f205f8573ffffffffffffffffffffffffffffffffffffffff1673ffffffffffffffffffffffffffffffffffffffff1681526020019081526020015f20819055508273ffffffffffffffffffffffffffffffffffffffff163373ffffffffffffffffffffffffffffffffffffffff167f8c5be1e5ebec7d5bd14f71427d1e84f3dd0314c0f7b2291e5b200ac8c7c3b925846040516103639190610b52565b60405180910390a36001905092915050565b60035481565b5f5f60055f8673ffffffffffffffffffffffffffffffffffffffff1673ffffffffffffffffffffffffffffffffffffffff1681526020019081526020015f205f3373ffffffffffffffffffffffffffffffffffffffff1673ffffffffffffffffffffffffffffffffffffffff1681526020019081526020015f205490508281101561043b576040517f08c379a000000000000000000000000000000000000000000000000000000000815260040161043290610cff565b60405180910390fd5b8260045f8773ffffffffffffffffffffffffffffffffffffffff1673ffffffffffffffffffffffffffffffffffffffff1681526020019081526020015f205410156104bb576040517f08c379a00000000000000000000000000000000000000000000000000000000081526004016104b290610d67565b60405180910390fd5b6104c6858585610833565b82816104d29190610db2565b60055f8773ffffffffffffffffffffffffffffffffffffffff1673ffffffffffffffffffffffffffffffffffffffff1681526020019081526020015f205f3373ffffffffffffffffffffffffffffffffffffffff1673ffffffffffffffffffffffffffffffffffffffff1681526020019081526020015f20819055503373ffffffffffffffffffffffffffffffffffffffff168573ffffffffffffffffffffffffffffffffffffffff167f8c5be1e5ebec7d5bd14f71427d1e84f3dd0314c0f7b2291e5b200ac8c7c3b92560055f8973ffffffffffffffffffffffffffffffffffffffff1673ffffffffffffffffffffffffffffffffffffffff1681526020019081526020015f205f3373ffffffffffffffffffffffffffffffffffffffff1673ffffffffffffffffffffffffffffffffffffffff1681526020019081526020015f20546040516106239190610b52565b60405180910390a360019150509392505050565b60025f9054906101000a900460ff1681565b5f60045f8373ffffffffffffffffffffffffffffffffffffffff1673ffffffffffffffffffffffffffffffffffffffff1681526020019081526020015f20549050919050565b6001805461069c90610c85565b80601f01602080910402602001604051908101604052809291908181526020018280546106c890610c85565b80156107135780601f106106ea57610100808354040283529160200191610713565b820191905f5260205f20905b8154815290600101906020018083116106f657829003601f168201915b505050505081565b5f8160045f3373ffffffffffffffffffffffffffffffffffffffff1673ffffffffffffffffffffffffffffffffffffffff1681526020019081526020015f2054101561079c576040517f08c379a000000000000000000000000000000000000000000000000000000000815260040161079390610d67565b60405180910390fd5b6107a7338484610833565b6001905092915050565b5f60055f8473ffffffffffffffffffffffffffffffffffffffff1673ffffffffffffffffffffffffffffffffffffffff1681526020019081526020015f205f8373ffffffffffffffffffffffffffffffffffffffff1673ffffffffffffffffffffffffffffffffffffffff1681526020019081526020015f2054905092915050565b5f73ffffffffffffffffffffffffffffffffffffffff168273ffffffffffffffffffffffffffffffffffffffff16036108a1576040517f08c379a000000000000000000000000000000000000000000000000000000000815260040161089890610e2f565b60405180910390fd5b8060045f8573ffffffffffffffffffffffffffffffffffffffff1673ffffffffffffffffffffffffffffffffffffffff1681526020019081526020015f205f8282546108ed9190610db2565b925050819055508060045f8473ffffffffffffffffffffffffffffffffffffffff1673ffffffffffffffffffffffffffffffffffffffff1681526020019081526020015f205f8282546109409190610e4d565b925050819055508173ffffffffffffffffffffffffffffffffffffffff168373ffffffffffffffffffffffffffffffffffffffff167fddf252ad1be2c89b69c2b068fc378daa952ba7f163c4a11628f55a4df523b3ef836040516109a49190610b52565b60405180910390a3505050565b5f81519050919050565b5f82825260208201905092915050565b8281835e5f83830152505050565b5f601f19601f8301169050919050565b5f6109f3826109b1565b6109fd81856109bb565b9350610a0d8185602086016109cb565b610a16816109d9565b840191505092915050565b5f6020820190508181035f830152610a3981846109e9565b905092915050565b5f5ffd5b5f73ffffffffffffffffffffffffffffffffffffffff82169050919050565b5f610a6e82610a45565b9050919050565b610a7e81610a64565b8114610a88575f5ffd5b50565b5f81359050610a9981610a75565b92915050565b5f819050919050565b610ab181610a9f565b8114610abb575f5ffd5b50565b5f81359050610acc81610aa8565b92915050565b5f5f60408385031215610ae857610ae7610a41565b5b5f610af585828601610a8b565b9250506020610b0685828601610abe565b9150509250929050565b5f8115159050919050565b610b2481610b10565b82525050565b5f602082019050610b3d5f830184610b1b565b92915050565b610b4c81610a9f565b82525050565b5f602082019050610b655f830184610b43565b92915050565b5f5f5f60608486031215610b8257610b81610a41565b5b5f610b8f86828701610a8b565b9350506020610ba086828701610a8b565b9250506040610bb186828701610abe565b9150509250925092565b5f60ff82169050919050565b610bd081610bbb565b82525050565b5f602082019050610be95f830184610bc7565b92915050565b5f60208284031215610c0457610c03610a41565b5b5f610c1184828501610a8b565b91505092915050565b5f5f60408385031215610c3057610c2f610a41565b5b5f610c3d85828601610a8b565b9250506020610c4e85828601610a8b565b9150509250929050565b7f4e487b71000000000000000000000000000000000000000000000000000000005f52602260045260245ffd5b5f6002820490506001821680610c9c57607f821691505b602082108103610caf57610cae610c58565b5b50919050565b7f416c6c6f77616e636520657863656564656400000000000000000000000000005f82015250565b5f610ce96012836109bb565b9150610cf482610cb5565b602082019050919050565b5f6020820190508181035f830152610d1681610cdd565b9050919050565b7f496e73756666696369656e742062616c616e63650000000000000000000000005f82015250565b5f610d516014836109bb565b9150610d5c82610d1d565b602082019050919050565b5f6020820190508181035f830152610d7e81610d45565b9050919050565b7f4e487b71000000000000000000000000000000000000000000000000000000005f52601160045260245ffd5b5f610dbc82610a9f565b9150610dc783610a9f565b9250828203905081811115610ddf57610dde610d85565b5b92915050565b7f5472616e7366657220746f207a65726f206164647265737300000000000000005f82015250565b5f610e196018836109bb565b9150610e2482610de5565b602082019050919050565b5f6020820190508181035f830152610e4681610e0d565b9050919050565b5f610e5782610a9f565b9150610e6283610a9f565b9250828201905080821115610e7a57610e79610d85565b5b9291505056fea2646970667358221220f4743b762f594d653148aa9daedf4f6310c2d8b0dc45c3dbc8752d52aa4724d164736f6c634300081e003360c060405234801561000f575f5ffd5b506040516116ee3803806116ee833981810160405281019061003191906101fd565b8373ffffffffffffffffffffffffffffffffffffffff1660808173ffffffffffffffffffffffffffffffffffffffff16815250508273ffffffffffffffffffffffffffffffffffffffff1660a08173ffffffffffffffffffffffffffffffffffffffff168152505060405180604001604052808373ffffffffffffffffffffffffffffffffffffffff1681526020018260020b8152505f5f820151815f015f6101000a81548173ffffffffffffffffffffffffffffffffffffffff021916908373ffffffffffffffffffffffffffffffffffffffff1602179055506020820151815f0160146101000a81548162ffffff021916908360020b62ffffff16021790555090505050505050610261565b5f5ffd5b5f73ffffffffffffffffffffffffffffffffffffffff82169050919050565b5f61016c82610143565b9050919050565b61017c81610162565b8114610186575f5ffd5b50565b5f8151905061019781610173565b92915050565b6101a681610143565b81146101b0575f5ffd5b50565b5f815190506101c18161019d565b92915050565b5f8160020b9050919050565b6101dc816101c7565b81146101e6575f5ffd5b50565b5f815190506101f7816101d3565b92915050565b5f5f5f5f608085870312156102155761021461013f565b5b5f61022287828801610189565b945050602061023387828801610189565b9350506040610244878288016101b3565b9250506060610255878288016101e9565b91505092959194509250565b60805160a0516114576102975f395f81816105f40152610b5901525f81816101c8015281816106cd0152610abb01526114575ff3fe608060405234801561000f575f5ffd5b5060043610610086575f3560e01c8063514ea4bf11610059578063514ea4bf14610116578063d21220a714610146578063e354733514610164578063f30dba931461019557610086565b80630dfe16811461008a5780631a686502146100a85780633850c7bd146100c65780633c8a7d8d146100e5575b5f5ffd5b6100926101c6565b60405161009f9190610c33565b60405180910390f35b6100b06101ea565b6040516100bd9190610c76565b60405180910390f35b6100ce61020b565b6040516100dc929190610cb9565b60405180910390f35b6100ff60048036038101906100fa9190610dc7565b610246565b60405161010d929190610e75565b60405180910390f35b610130600480360381019061012b9190610ecf565b6105bd565b60405161013d9190610c76565b60405180910390f35b61014e6105f2565b60405161015b9190610c33565b60405180910390f35b61017e60048036038101906101799190610efa565b610616565b60405161018c929190610f6f565b60405180910390f35b6101af60048036038101906101aa9190610f96565b6108fa565b6040516101bd929190610fdb565b60405180910390f35b7f000000000000000000000000000000000000000000000000000000000000000081565b60015f9054906101000a90046fffffffffffffffffffffffffffffffff1681565b5f805f015f9054906101000a900473ffffffffffffffffffffffffffffffffffffffff1690805f0160149054906101000a900460020b905082565b5f5f8560020b8760020b12158061028257507ffffffffffffffffffffffffffffffffffffffffffffffffffffffffffff2761860020b8760020b125b806102bb57507ffffffffffffffffffffffffffffffffffffffffffffffffffffffffffff276186102b29061102f565b60020b8660020b135b156102f2576040517f064847d000000000000000000000000000000000000000000000000000000000815260040160405180910390fd5b5f856fffffffffffffffffffffffffffffffff160361033d576040517f1007454800000000000000000000000000000000000000000000000000000000815260040160405180910390fd5b610353878660026109419092919063ffffffff16565b610369868660026109419092919063ffffffff16565b5f6103828989896003610a03909392919063ffffffff16565b90506103978682610a4890919063ffffffff16565b670ddd13f10b84ee00925069010f0cf064dd5920000091508560015f8282829054906101000a90046fffffffffffffffffffffffffffffffff166103db9190611075565b92506101000a8154816fffffffffffffffffffffffffffffffff02191690836fffffffffffffffffffffffffffffffff1602179055505f5f5f85111561042657610423610ab8565b91505b5f84111561043957610436610b56565b90505b3373ffffffffffffffffffffffffffffffffffffffff1663d348799786868a8a6040518563ffffffff1660e01b81526004016104789493929190611112565b5f604051808303815f87803b15801561048f575f5ffd5b505af11580156104a1573d5f5f3e3d5ffd5b505050505f851180156104c557506104b7610ab8565b85836104c39190611150565b115b156104fc576040517f098fb56100000000000000000000000000000000000000000000000000000000815260040160405180910390fd5b5f8411801561051c575061050e610b56565b848261051a9190611150565b115b15610553576040517f098fb56100000000000000000000000000000000000000000000000000000000815260040160405180910390fd5b8860020b8a60020b8c73ffffffffffffffffffffffffffffffffffffffff167f7a53080ba414158be7ec69b987b5fb7d07dee101fe85488f0853ae16239d0bde338c8a8a6040516105a79493929190611183565b60405180910390a4505050965096945050505050565b6003602052805f5260405f205f91509050805f015f9054906101000a90046fffffffffffffffffffffffffffffffff16905081565b7f000000000000000000000000000000000000000000000000000000000000000081565b5f5f5f62014cc090505f6c46bd046408013d67ed5d406b2d90507fffffffffffffffffffffffffffffffffffffffffffffffffffe22b3b9e50c0f49350680246ddf97976680000925081815f5f0160145f5f015f8491906101000a81548173ffffffffffffffffffffffffffffffffffffffff021916908373ffffffffffffffffffffffffffffffffffffffff1602179055508391906101000a81548162ffffff021916908360020b62ffffff16021790555050507f000000000000000000000000000000000000000000000000000000000000000073ffffffffffffffffffffffffffffffffffffffff1663a9059cbb8886610712906111c6565b6040518363ffffffff1660e01b815260040161072f92919061120c565b6020604051808303815f875af115801561074b573d5f5f3e3d5ffd5b505050506040513d601f19601f8201168201806040525081019061076f919061125d565b505f610779610b56565b90503373ffffffffffffffffffffffffffffffffffffffff1663fa461e3386868a8a6040518563ffffffff1660e01b81526004016107ba9493929190611288565b5f604051808303815f87803b1580156107d1575f5ffd5b505af11580156107e3573d5f5f3e3d5ffd5b505050506107ef610b56565b84826107fb9190611150565b1015610833576040517f098fb56100000000000000000000000000000000000000000000000000000000815260040160405180910390fd5b8773ffffffffffffffffffffffffffffffffffffffff163373ffffffffffffffffffffffffffffffffffffffff167fc42079f94a6350d7e6235f29174924f928cc2ac818eb64fed8004e115fbcca6787875f5f015f9054906101000a900473ffffffffffffffffffffffffffffffffffffffff1660015f9054906101000a90046fffffffffffffffffffffffffffffffff165f5f0160149054906101000a900460020b6040516108e79594939291906112c6565b60405180910390a3505050935093915050565b6002602052805f5260405f205f91509050805f015f9054906101000a900460ff1690805f0160019054906101000a90046fffffffffffffffffffffffffffffffff16905082565b5f835f8460020b60020b81526020019081526020015f2090505f815f0160019054906101000a90046fffffffffffffffffffffffffffffffff1690505f838261098a9190611075565b90505f826fffffffffffffffffffffffffffffffff16036109c1576001835f015f6101000a81548160ff0219169083151502179055505b80835f0160016101000a8154816fffffffffffffffffffffffffffffffff02191690836fffffffffffffffffffffffffffffffff160217905550505050505050565b5f845f858585604051602001610a1b93929190611390565b6040516020818303038152906040528051906020012081526020019081526020015f209050949350505050565b5f825f015f9054906101000a90046fffffffffffffffffffffffffffffffff1690505f8282610a779190611075565b905080845f015f6101000a8154816fffffffffffffffffffffffffffffffff02191690836fffffffffffffffffffffffffffffffff16021790555050505050565b5f7f000000000000000000000000000000000000000000000000000000000000000073ffffffffffffffffffffffffffffffffffffffff166370a08231306040518263ffffffff1660e01b8152600401610b129190610c33565b602060405180830381865afa158015610b2d573d5f5f3e3d5ffd5b505050506040513d601f19601f82011682018060405250810190610b5191906113f6565b905090565b5f7f000000000000000000000000000000000000000000000000000000000000000073ffffffffffffffffffffffffffffffffffffffff166370a08231306040518263ffffffff1660e01b8152600401610bb09190610c33565b602060405180830381865afa158015610bcb573d5f5f3e3d5ffd5b505050506040513d601f19601f82011682018060405250810190610bef91906113f6565b905090565b5f73ffffffffffffffffffffffffffffffffffffffff82169050919050565b5f610c1d82610bf4565b9050919050565b610c2d81610c13565b82525050565b5f602082019050610c465f830184610c24565b92915050565b5f6fffffffffffffffffffffffffffffffff82169050919050565b610c7081610c4c565b82525050565b5f602082019050610c895f830184610c67565b92915050565b610c9881610bf4565b82525050565b5f8160020b9050919050565b610cb381610c9e565b82525050565b5f604082019050610ccc5f830185610c8f565b610cd96020830184610caa565b9392505050565b5f5ffd5b5f5ffd5b610cf181610c13565b8114610cfb575f5ffd5b50565b5f81359050610d0c81610ce8565b92915050565b610d1b81610c9e565b8114610d25575f5ffd5b50565b5f81359050610d3681610d12565b92915050565b610d4581610c4c565b8114610d4f575f5ffd5b50565b5f81359050610d6081610d3c565b92915050565b5f5ffd5b5f5ffd5b5f5ffd5b5f5f83601f840112610d8757610d86610d66565b5b8235905067ffffffffffffffff811115610da457610da3610d6a565b5b602083019150836001820283011115610dc057610dbf610d6e565b5b9250929050565b5f5f5f5f5f5f60a08789031215610de157610de0610ce0565b5b5f610dee89828a01610cfe565b9650506020610dff89828a01610d28565b9550506040610e1089828a01610d28565b9450506060610e2189828a01610d52565b935050608087013567ffffffffffffffff811115610e4257610e41610ce4565b5b610e4e89828a01610d72565b92509250509295509295509295565b5f819050919050565b610e6f81610e5d565b82525050565b5f604082019050610e885f830185610e66565b610e956020830184610e66565b9392505050565b5f819050919050565b610eae81610e9c565b8114610eb8575f5ffd5b50565b5f81359050610ec981610ea5565b92915050565b5f60208284031215610ee457610ee3610ce0565b5b5f610ef184828501610ebb565b91505092915050565b5f5f5f60408486031215610f1157610f10610ce0565b5b5f610f1e86828701610cfe565b935050602084013567ffffffffffffffff811115610f3f57610f3e610ce4565b5b610f4b86828701610d72565b92509250509250925092565b5f819050919050565b610f6981610f57565b82525050565b5f604082019050610f825f830185610f60565b610f8f6020830184610f60565b9392505050565b5f60208284031215610fab57610faa610ce0565b5b5f610fb884828501610d28565b91505092915050565b5f8115159050919050565b610fd581610fc1565b82525050565b5f604082019050610fee5f830185610fcc565b610ffb6020830184610c67565b9392505050565b7f4e487b71000000000000000000000000000000000000000000000000000000005f52601160045260245ffd5b5f61103982610c9e565b91507fffffffffffffffffffffffffffffffffffffffffffffffffffffffffff800000820361106b5761106a611002565b5b815f039050919050565b5f61107f82610c4c565b915061108a83610c4c565b925082820190506fffffffffffffffffffffffffffffffff8111156110b2576110b1611002565b5b92915050565b5f82825260208201905092915050565b828183375f83830152505050565b5f601f19601f8301169050919050565b5f6110f183856110b8565b93506110fe8385846110c8565b611107836110d6565b840190509392505050565b5f6060820190506111255f830187610e66565b6111326020830186610e66565b81810360408301526111458184866110e6565b905095945050505050565b5f61115a82610e5d565b915061116583610e5d565b925082820190508082111561117d5761117c611002565b5b92915050565b5f6080820190506111965f830187610c24565b6111a36020830186610c67565b6111b06040830185610e66565b6111bd6060830184610e66565b95945050505050565b5f6111d082610f57565b91507f8000000000000000000000000000000000000000000000000000000000000000820361120257611201611002565b5b815f039050919050565b5f60408201905061121f5f830185610c24565b61122c6020830184610e66565b9392505050565b61123c81610fc1565b8114611246575f5ffd5b50565b5f8151905061125781611233565b92915050565b5f6020828403121561127257611271610ce0565b5b5f61127f84828501611249565b91505092915050565b5f60608201905061129b5f830187610f60565b6112a86020830186610f60565b81810360408301526112bb8184866110e6565b905095945050505050565b5f60a0820190506112d95f830188610f60565b6112e66020830187610f60565b6112f36040830186610c8f565b6113006060830185610c67565b61130d6080830184610caa565b9695505050505050565b5f8160601b9050919050565b5f61132d82611317565b9050919050565b5f61133e82611323565b9050919050565b61135661135182610c13565b611334565b82525050565b5f8160e81b9050919050565b5f6113728261135c565b9050919050565b61138a61138582610c9e565b611368565b82525050565b5f61139b8286611345565b6014820191506113ab8285611379565b6003820191506113bb8284611379565b600382019150819050949350505050565b6113d581610e5d565b81146113df575f5ffd5b50565b5f815190506113f0816113cc565b92915050565b5f6020828403121561140b5761140a610ce0565b5b5f611418848285016113e2565b9150509291505056fea26469706673582212202cd2c02a0303888405fc91b2134964c0a8e0e4a871f28d7d65cc9e0681d7694464736f6c634300081e0033a264697066735822122013ce5bacbbe18a38abfef99a9fd5ad7123bd229cf3b7852527686bca39e6468364736f6c634300081e0033",
			"opcodes": "PUSH1 0x80 PUSH1 0x40 MSTORE PUSH20 0x5B38DA6A701C568545DCFCB03FCB875F56BEDDC4 PUSH0 PUSH0 PUSH2 0x100 EXP DUP2 SLOAD DUP2 PUSH20 0xFFFFFFFFFFFFFFFFFFFFFFFFFFFFFFFFFFFFFFFF MUL NOT AND SWAP1 DUP4 PUSH20 0xFFFFFFFFFFFFFFFFFFFFFFFFFFFFFFFFFFFFFFFF AND MUL OR SWAP1 SSTORE POP CALLVALUE DUP1 ISZERO PUSH1 0x61 JUMPI PUSH0 PUSH0 REVERT JUMPDEST POP PUSH2 0x5B20 DUP1 PUSH2 0x6F PUSH0 CODECOPY PUSH0 RETURN INVALID PUSH1 0x80 PUSH1 0x40 MSTORE CALLVALUE DUP1 ISZERO PUSH2 0xF JUMPI PUSH0 PUSH0 REVERT JUMPDEST POP PUSH1 0x4 CALLDATASIZE LT PUSH2 0x7B JUMPI PUSH0 CALLDATALOAD PUSH1 0xE0 SHR DUP1 PUSH4 0x676C33CC GT PUSH2 0x59 JUMPI DUP1 PUSH4 0x676C33CC EQ PUSH2 0xC5 JUMPI DUP1 PUSH4 0x80EEFB32 EQ PUSH2 0xE3 JUMPI DUP1 PUSH4 0xD3487997 EQ PUSH2 0x102 JUMPI DUP1 PUSH4 0xFA461E33 EQ PUSH2 0x11E JUMPI PUSH2 0x7B JUMP JUMPDEST DUP1 PUSH4 0x5558D2D EQ PUSH2 0x7F JUMPI DUP1 PUSH4 0x16F0115B EQ PUSH2 0x9D JUMPI DUP1 PUSH4 0x6331E7D4 EQ PUSH2 0xBB JUMPI JUMPDEST PUSH0 PUSH0 REVERT JUMPDEST PUSH2 0x87 PUSH2 0x13A JUMP JUMPDEST PUSH1 0x40 MLOAD PUSH2 0x94 SWAP2 SWAP1 PUSH2 0x1F0A JUMP JUMPDEST PUSH1 0x40 MLOAD DUP1 SWAP2 SUB SWAP1 RETURN JUMPDEST PUSH2 0xA5 PUSH2 0x15F JUMP JUMPDEST PUSH1 0x40 MLOAD PUSH2 0xB2 SWAP2 SWAP1 PUSH2 0x1F43 JUMP JUMPDEST PUSH1 0x40 MLOAD DUP1 SWAP2 SUB SWAP1 RETURN JUMPDEST PUSH2 0xC3 PUSH2 0x184 JUMP JUMPDEST STOP JUMPDEST PUSH2 0xCD PUSH2 0x34C JUMP JUMPDEST PUSH1 0x40 MLOAD PUSH2 0xDA SWAP2 SWAP1 PUSH2 0x1F0A JUMP JUMPDEST PUSH1 0x40 MLOAD DUP1 SWAP2 SUB SWAP1 RETURN JUMPDEST PUSH2 0xEB PUSH2 0x371 JUMP JUMPDEST PUSH1 0x40 MLOAD PUSH2 0xF9 SWAP3 SWAP2 SWAP1 PUSH2 0x1F74 JUMP JUMPDEST PUSH1 0x40 MLOAD DUP1 SWAP2 SUB SWAP1 RETURN JUMPDEST PUSH2 0x11C PUSH1 0x4 DUP1 CALLDATASIZE SUB DUP2 ADD SWAP1 PUSH2 0x117 SWAP2 SWAP1 PUSH2 0x202E JUMP JUMPDEST PUSH2 0x1A61 JUMP JUMPDEST STOP JUMPDEST PUSH2 0x138 PUSH1 0x4 DUP1 CALLDATASIZE SUB DUP2 ADD SWAP1 PUSH2 0x133 SWAP2 SWAP1 PUSH2 0x20D2 JUMP JUMPDEST PUSH2 0x1BA1 JUMP JUMPDEST STOP JUMPDEST PUSH1 0x2 PUSH0 SWAP1 SLOAD SWAP1 PUSH2 0x100 EXP SWAP1 DIV PUSH20 0xFFFFFFFFFFFFFFFFFFFFFFFFFFFFFFFFFFFFFFFF AND DUP2 JUMP JUMPDEST PUSH1 0x1 PUSH0 SWAP1 SLOAD SWAP1 PUSH2 0x100 EXP SWAP1 DIV PUSH20 0xFFFFFFFFFFFFFFFFFFFFFFFFFFFFFFFFFFFFFFFF AND DUP2 JUMP JUMPDEST PUSH0 PUSH13 0x46B5EF004D9AE0000000000000 SWAP1 POP PUSH0 PUSH3 0x14CB8 SWAP1 POP PUSH10 0x21E19E0C9BAB2400000 PUSH1 0x40 MLOAD PUSH2 0x1B3 SWAP1 PUSH2 0x1E6C JUMP JUMPDEST PUSH2 0x1BD SWAP2 SWAP1 PUSH2 0x2220 JUMP JUMPDEST PUSH1 0x40 MLOAD DUP1 SWAP2 SUB SWAP1 PUSH0 CREATE DUP1 ISZERO DUP1 ISZERO PUSH2 0x1D6 JUMPI RETURNDATASIZE PUSH0 PUSH0 RETURNDATACOPY RETURNDATASIZE PUSH0 REVERT JUMPDEST POP PUSH1 0x2 PUSH0 PUSH2 0x100 EXP DUP2 SLOAD DUP2 PUSH20 0xFFFFFFFFFFFFFFFFFFFFFFFFFFFFFFFFFFFFFFFF MUL NOT AND SWAP1 DUP4 PUSH20 0xFFFFFFFFFFFFFFFFFFFFFFFFFFFFFFFFFFFFFFFF AND MUL OR SWAP1 SSTORE POP PUSH10 0x21E19E0C9BAB2400000 PUSH1 0x40 MLOAD PUSH2 0x22D SWAP1 PUSH2 0x1E6C JUMP JUMPDEST PUSH2 0x237 SWAP2 SWAP1 PUSH2 0x22F3 JUMP JUMPDEST PUSH1 0x40 MLOAD DUP1 SWAP2 SUB SWAP1 PUSH0 CREATE DUP1 ISZERO DUP1 ISZERO PUSH2 0x250 JUMPI RETURNDATASIZE PUSH0 PUSH0 RETURNDATACOPY RETURNDATASIZE PUSH0 REVERT JUMPDEST POP PUSH1 0x3 PUSH0 PUSH2 0x100 EXP DUP2 SLOAD DUP2 PUSH20 0xFFFFFFFFFFFFFFFFFFFFFFFFFFFFFFFFFFFFFFFF MUL NOT AND SWAP1 DUP4 PUSH20 0xFFFFFFFFFFFFFFFFFFFFFFFFFFFFFFFFFFFFFFFF AND MUL OR SWAP1 SSTORE POP PUSH1 0x2 PUSH0 SWAP1 SLOAD SWAP1 PUSH2 0x100 EXP SWAP1 DIV PUSH20 0xFFFFFFFFFFFFFFFFFFFFFFFFFFFFFFFFFFFFFFFF AND PUSH1 0x3 PUSH0 SWAP1 SLOAD SWAP1 PUSH2 0x100 EXP SWAP1 DIV PUSH20 0xFFFFFFFFFFFFFFFFFFFFFFFFFFFFFFFFFFFFFFFF AND DUP4 DUP4 PUSH1 0x40 MLOAD PUSH2 0x2E2 SWAP1 PUSH2 0x1E79 JUMP JUMPDEST PUSH2 0x2EF SWAP5 SWAP4 SWAP3 SWAP2 SWAP1 PUSH2 0x237C JUMP JUMPDEST PUSH1 0x40 MLOAD DUP1 SWAP2 SUB SWAP1 PUSH0 CREATE DUP1 ISZERO DUP1 ISZERO PUSH2 0x308 JUMPI RETURNDATASIZE PUSH0 PUSH0 RETURNDATACOPY RETURNDATASIZE PUSH0 REVERT JUMPDEST POP PUSH1 0x1 PUSH0 PUSH2 0x100 EXP DUP2 SLOAD DUP2 PUSH20 0xFFFFFFFFFFFFFFFFFFFFFFFFFFFFFFFFFFFFFFFF MUL NOT AND SWAP1 DUP4 PUSH20 0xFFFFFFFFFFFFFFFFFFFFFFFFFFFFFFFFFFFFFFFF AND MUL OR SWAP1 SSTORE POP POP POP JUMP JUMPDEST PUSH1 0x3 PUSH0 SWAP1 SLOAD SWAP1 PUSH2 0x100 EXP SWAP1 DIV PUSH20 0xFFFFFFFFFFFFFFFFFFFFFFFFFFFFFFFFFFFFFFFF AND DUP2 JUMP JUMPDEST PUSH0 PUSH0 PUSH0 PUSH3 0x148FE SWAP1 POP PUSH0 PUSH3 0x15071 SWAP1 POP PUSH0 PUSH9 0x5248D95D8E821C0000 SWAP1 POP PUSH2 0x3CC PUSH1 0x40 MLOAD DUP1 PUSH1 0x40 ADD PUSH1 0x40 MSTORE DUP1 PUSH1 0x1F DUP2 MSTORE PUSH1 0x20 ADD PUSH32 0x3D3D3D3D3D3D3D3D3D3D3DE993B8E980A0E5898D3D3D3D3D3D3D3D3D3D3D3D00 DUP2 MSTORE POP PUSH2 0x1CF3 JUMP JUMPDEST PUSH2 0x4A3 PUSH1 0x40 MLOAD DUP1 PUSH1 0x40 ADD PUSH1 0x40 MSTORE DUP1 PUSH1 0x13 DUP2 MSTORE PUSH1 0x20 ADD PUSH32 0x7573657220657263302062616C616E63653A2000000000000000000000000000 DUP2 MSTORE POP PUSH1 0x2 PUSH0 SWAP1 SLOAD SWAP1 PUSH2 0x100 EXP SWAP1 DIV PUSH20 0xFFFFFFFFFFFFFFFFFFFFFFFFFFFFFFFFFFFFFFFF AND PUSH20 0xFFFFFFFFFFFFFFFFFFFFFFFFFFFFFFFFFFFFFFFF AND PUSH4 0x70A08231 ADDRESS PUSH1 0x40 MLOAD DUP3 PUSH4 0xFFFFFFFF AND PUSH1 0xE0 SHL DUP2 MSTORE PUSH1 0x4 ADD PUSH2 0x45F SWAP2 SWAP1 PUSH2 0x23BF JUMP JUMPDEST PUSH1 0x20 PUSH1 0x40 MLOAD DUP1 DUP4 SUB DUP2 DUP7 GAS STATICCALL ISZERO DUP1 ISZERO PUSH2 0x47A JUMPI RETURNDATASIZE PUSH0 PUSH0 RETURNDATACOPY RETURNDATASIZE PUSH0 REVERT JUMPDEST POP POP POP POP PUSH1 0x40 MLOAD RETURNDATASIZE PUSH1 0x1F NOT PUSH1 0x1F DUP3 ADD AND DUP3 ADD DUP1 PUSH1 0x40 MSTORE POP DUP2 ADD SWAP1 PUSH2 0x49E SWAP2 SWAP1 PUSH2 0x23EC JUMP JUMPDEST PUSH2 0x1D8C JUMP JUMPDEST PUSH2 0x57A PUSH1 0x40 MLOAD DUP1 PUSH1 0x40 ADD PUSH1 0x40 MSTORE DUP1 PUSH1 0x13 DUP2 MSTORE PUSH1 0x20 ADD PUSH32 0x7573657220657263312062616C616E63653A2000000000000000000000000000 DUP2 MSTORE POP PUSH1 0x3 PUSH0 SWAP1 SLOAD SWAP1 PUSH2 0x100 EXP SWAP1 DIV PUSH20 0xFFFFFFFFFFFFFFFFFFFFFFFFFFFFFFFFFFFFFFFF AND PUSH20 0xFFFFFFFFFFFFFFFFFFFFFFFFFFFFFFFFFFFFFFFF AND PUSH4 0x70A08231 ADDRESS PUSH1 0x40 MLOAD DUP3 PUSH4 0xFFFFFFFF AND PUSH1 0xE0 SHL DUP2 MSTORE PUSH1 0x4 ADD PUSH2 0x536 SWAP2 SWAP1 PUSH2 0x23BF JUMP JUMPDEST PUSH1 0x20 PUSH1 0x40 MLOAD DUP1 DUP4 SUB DUP2 DUP7 GAS STATICCALL ISZERO DUP1 ISZERO PUSH2 0x551 JUMPI RETURNDATASIZE PUSH0 PUSH0 RETURNDATACOPY RETURNDATASIZE PUSH0 REVERT JUMPDEST POP POP POP POP PUSH1 0x40 MLOAD RETURNDATASIZE PUSH1 0x1F NOT PUSH1 0x1F DUP3 ADD AND DUP3 ADD DUP1 PUSH1 0x40 MSTORE POP DUP2 ADD SWAP1 PUSH2 0x575 SWAP2 SWAP1 PUSH2 0x23EC JUMP JUMPDEST PUSH2 0x1D8C JUMP JUMPDEST PUSH2 0x672 PUSH1 0x40 MLOAD DUP1 PUSH1 0x40 ADD PUSH1 0x40 MSTORE DUP1 PUSH1 0x13 DUP2 MSTORE PUSH1 0x20 ADD PUSH32 0x706F6F6C20657263302062616C616E63653A2000000000000000000000000000 DUP2 MSTORE POP PUSH1 0x2 PUSH0 SWAP1 SLOAD SWAP1 PUSH2 0x100 EXP SWAP1 DIV PUSH20 0xFFFFFFFFFFFFFFFFFFFFFFFFFFFFFFFFFFFFFFFF AND PUSH20 0xFFFFFFFFFFFFFFFFFFFFFFFFFFFFFFFFFFFFFFFF AND PUSH4 0x70A08231 PUSH1 0x1 PUSH0 SWAP1 SLOAD SWAP1 PUSH2 0x100 EXP SWAP1 DIV PUSH20 0xFFFFFFFFFFFFFFFFFFFFFFFFFFFFFFFFFFFFFFFF AND PUSH1 0x40 MLOAD DUP3 PUSH4 0xFFFFFFFF AND PUSH1 0xE0 SHL DUP2 MSTORE PUSH1 0x4 ADD PUSH2 0x62E SWAP2 SWAP1 PUSH2 0x23BF JUMP JUMPDEST PUSH1 0x20 PUSH1 0x40 MLOAD DUP1 DUP4 SUB DUP2 DUP7 GAS STATICCALL ISZERO DUP1 ISZERO PUSH2 0x649 JUMPI RETURNDATASIZE PUSH0 PUSH0 RETURNDATACOPY RETURNDATASIZE PUSH0 REVERT JUMPDEST POP POP POP POP PUSH1 0x40 MLOAD RETURNDATASIZE PUSH1 0x1F NOT PUSH1 0x1F DUP3 ADD AND DUP3 ADD DUP1 PUSH1 0x40 MSTORE POP DUP2 ADD SWAP1 PUSH2 0x66D SWAP2 SWAP1 PUSH2 0x23EC JUMP JUMPDEST PUSH2 0x1D8C JUMP JUMPDEST PUSH2 0x76A PUSH1 0x40 MLOAD DUP1 PUSH1 0x40 ADD PUSH1 0x40 MSTORE DUP1 PUSH1 0x13 DUP2 MSTORE PUSH1 0x20 ADD PUSH32 0x706F6F6C20657263312062616C616E63653A2000000000000000000000000000 DUP2 MSTORE POP PUSH1 0x3 PUSH0 SWAP1 SLOAD SWAP1 PUSH2 0x100 EXP SWAP1 DIV PUSH20 0xFFFFFFFFFFFFFFFFFFFFFFFFFFFFFFFFFFFFFFFF AND PUSH20 0xFFFFFFFFFFFFFFFFFFFFFFFFFFFFFFFFFFFFFFFF AND PUSH4 0x70A08231 PUSH1 0x1 PUSH0 SWAP1 SLOAD SWAP1 PUSH2 0x100 EXP SWAP1 DIV PUSH20 0xFFFFFFFFFFFFFFFFFFFFFFFFFFFFFFFFFFFFFFFF AND PUSH1 0x40 MLOAD DUP3 PUSH4 0xFFFFFFFF AND PUSH1 0xE0 SHL DUP2 MSTORE PUSH1 0x4 ADD PUSH2 0x726 SWAP2 SWAP1 PUSH2 0x23BF JUMP JUMPDEST PUSH1 0x20 PUSH1 0x40 MLOAD DUP1 DUP4 SUB DUP2 DUP7 GAS STATICCALL ISZERO DUP1 ISZERO PUSH2 0x741 JUMPI RETURNDATASIZE PUSH0 PUSH0 RETURNDATACOPY RETURNDATASIZE PUSH0 REVERT JUMPDEST POP POP POP POP PUSH1 0x40 MLOAD RETURNDATASIZE PUSH1 0x1F NOT PUSH1 0x1F DUP3 ADD AND DUP3 ADD DUP1 PUSH1 0x40 MSTORE POP DUP2 ADD SWAP1 PUSH2 0x765 SWAP2 SWAP1 PUSH2 0x23EC JUMP JUMPDEST PUSH2 0x1D8C JUMP JUMPDEST PUSH1 0x1 PUSH0 SWAP1 SLOAD SWAP1 PUSH2 0x100 EXP SWAP1 DIV PUSH20 0xFFFFFFFFFFFFFFFFFFFFFFFFFFFFFFFFFFFFFFFF AND PUSH20 0xFFFFFFFFFFFFFFFFFFFFFFFFFFFFFFFFFFFFFFFF AND PUSH4 0x3C8A7D8D ADDRESS DUP6 DUP6 DUP6 PUSH1 0x40 MLOAD DUP6 PUSH4 0xFFFFFFFF AND PUSH1 0xE0 SHL DUP2 MSTORE PUSH1 0x4 ADD PUSH2 0x7CA SWAP5 SWAP4 SWAP3 SWAP2 SWAP1 PUSH2 0x2474 JUMP JUMPDEST PUSH1 0x40 DUP1 MLOAD DUP1 DUP4 SUB DUP2 PUSH0 DUP8 GAS CALL ISZERO DUP1 ISZERO PUSH2 0x7E5 JUMPI RETURNDATASIZE PUSH0 PUSH0 RETURNDATACOPY RETURNDATASIZE PUSH0 REVERT JUMPDEST POP POP POP POP PUSH1 0x40 MLOAD RETURNDATASIZE PUSH1 0x1F NOT PUSH1 0x1F DUP3 ADD AND DUP3 ADD DUP1 PUSH1 0x40 MSTORE POP DUP2 ADD SWAP1 PUSH2 0x809 SWAP2 SWAP1 PUSH2 0x24CA JUMP JUMPDEST DUP1 SWAP6 POP DUP2 SWAP7 POP POP POP PUSH2 0x84F PUSH1 0x40 MLOAD DUP1 PUSH1 0x40 ADD PUSH1 0x40 MSTORE DUP1 PUSH1 0x1F DUP2 MSTORE PUSH1 0x20 ADD PUSH32 0x3D3D3D3D3D3D3D3D3D3D3DE993B8E980A0E5908E3D3D3D3D3D3D3D3D3D3D3D00 DUP2 MSTORE POP PUSH2 0x1CF3 JUMP JUMPDEST PUSH2 0x926 PUSH1 0x40 MLOAD DUP1 PUSH1 0x40 ADD PUSH1 0x40 MSTORE DUP1 PUSH1 0x13 DUP2 MSTORE PUSH1 0x20 ADD PUSH32 0x7573657220657263302062616C616E63653A2000000000000000000000000000 DUP2 MSTORE POP PUSH1 0x2 PUSH0 SWAP1 SLOAD SWAP1 PUSH2 0x100 EXP SWAP1 DIV PUSH20 0xFFFFFFFFFFFFFFFFFFFFFFFFFFFFFFFFFFFFFFFF AND PUSH20 0xFFFFFFFFFFFFFFFFFFFFFFFFFFFFFFFFFFFFFFFF AND PUSH4 0x70A08231 ADDRESS PUSH1 0x40 MLOAD DUP3 PUSH4 0xFFFFFFFF AND PUSH1 0xE0 SHL DUP2 MSTORE PUSH1 0x4 ADD PUSH2 0x8E2 SWAP2 SWAP1 PUSH2 0x23BF JUMP JUMPDEST PUSH1 0x20 PUSH1 0x40 MLOAD DUP1 DUP4 SUB DUP2 DUP7 GAS STATICCALL ISZERO DUP1 ISZERO PUSH2 0x8FD JUMPI RETURNDATASIZE PUSH0 PUSH0 RETURNDATACOPY RETURNDATASIZE PUSH0 REVERT JUMPDEST POP POP POP POP PUSH1 0x40 MLOAD RETURNDATASIZE PUSH1 0x1F NOT PUSH1 0x1F DUP3 ADD AND DUP3 ADD DUP1 PUSH1 0x40 MSTORE POP DUP2 ADD SWAP1 PUSH2 0x921 SWAP2 SWAP1 PUSH2 0x23EC JUMP JUMPDEST PUSH2 0x1D8C JUMP JUMPDEST PUSH2 0x9FD PUSH1 0x40 MLOAD DUP1 PUSH1 0x40 ADD PUSH1 0x40 MSTORE DUP1 PUSH1 0x13 DUP2 MSTORE PUSH1 0x20 ADD PUSH32 0x7573657220657263312062616C616E63653A2000000000000000000000000000 DUP2 MSTORE POP PUSH1 0x3 PUSH0 SWAP1 SLOAD SWAP1 PUSH2 0x100 EXP SWAP1 DIV PUSH20 0xFFFFFFFFFFFFFFFFFFFFFFFFFFFFFFFFFFFFFFFF AND PUSH20 0xFFFFFFFFFFFFFFFFFFFFFFFFFFFFFFFFFFFFFFFF AND PUSH4 0x70A08231 ADDRESS PUSH1 0x40 MLOAD DUP3 PUSH4 0xFFFFFFFF AND PUSH1 0xE0 SHL DUP2 MSTORE PUSH1 0x4 ADD PUSH2 0x9B9 SWAP2 SWAP1 PUSH2 0x23BF JUMP JUMPDEST PUSH1 0x20 PUSH1 0x40 MLOAD DUP1 DUP4 SUB DUP2 DUP7 GAS STATICCALL ISZERO DUP1 ISZERO PUSH2 0x9D4 JUMPI RETURNDATASIZE PUSH0 PUSH0 RETURNDATACOPY RETURNDATASIZE PUSH0 REVERT JUMPDEST POP POP POP POP PUSH1 0x40 MLOAD RETURNDATASIZE PUSH1 0x1F NOT PUSH1 0x1F DUP3 ADD AND DUP3 ADD DUP1 PUSH1 0x40 MSTORE POP DUP2 ADD SWAP1 PUSH2 0x9F8 SWAP2 SWAP1 PUSH2 0x23EC JUMP JUMPDEST PUSH2 0x1D8C JUMP JUMPDEST PUSH2 0xAF5 PUSH1 0x40 MLOAD DUP1 PUSH1 0x40 ADD PUSH1 0x40 MSTORE DUP1 PUSH1 0x13 DUP2 MSTORE PUSH1 0x20 ADD PUSH32 0x706F6F6C20657263302062616C616E63653A2000000000000000000000000000 DUP2 MSTORE POP PUSH1 0x2 PUSH0 SWAP1 SLOAD SWAP1 PUSH2 0x100 EXP SWAP1 DIV PUSH20 0xFFFFFFFFFFFFFFFFFFFFFFFFFFFFFFFFFFFFFFFF AND PUSH20 0xFFFFFFFFFFFFFFFFFFFFFFFFFFFFFFFFFFFFFFFF AND PUSH4 0x70A08231 PUSH1 0x1 PUSH0 SWAP1 SLOAD SWAP1 PUSH2 0x100 EXP SWAP1 DIV PUSH20 0xFFFFFFFFFFFFFFFFFFFFFFFFFFFFFFFFFFFFFFFF AND PUSH1 0x40 MLOAD DUP3 PUSH4 0xFFFFFFFF AND PUSH1 0xE0 SHL DUP2 MSTORE PUSH1 0x4 ADD PUSH2 0xAB1 SWAP2 SWAP1 PUSH2 0x23BF JUMP JUMPDEST PUSH1 0x20 PUSH1 0x40 MLOAD DUP1 DUP4 SUB DUP2 DUP7 GAS STATICCALL ISZERO DUP1 ISZERO PUSH2 0xACC JUMPI RETURNDATASIZE PUSH0 PUSH0 RETURNDATACOPY RETURNDATASIZE PUSH0 REVERT JUMPDEST POP POP POP POP PUSH1 0x40 MLOAD RETURNDATASIZE PUSH1 0x1F NOT PUSH1 0x1F DUP3 ADD AND DUP3 ADD DUP1 PUSH1 0x40 MSTORE POP DUP2 ADD SWAP1 PUSH2 0xAF0 SWAP2 SWAP1 PUSH2 0x23EC JUMP JUMPDEST PUSH2 0x1D8C JUMP JUMPDEST PUSH2 0xBED PUSH1 0x40 MLOAD DUP1 PUSH1 0x40 ADD PUSH1 0x40 MSTORE DUP1 PUSH1 0x13 DUP2 MSTORE PUSH1 0x20 ADD PUSH32 0x706F6F6C20657263312062616C616E63653A2000000000000000000000000000 DUP2 MSTORE POP PUSH1 0x3 PUSH0 SWAP1 SLOAD SWAP1 PUSH2 0x100 EXP SWAP1 DIV PUSH20 0xFFFFFFFFFFFFFFFFFFFFFFFFFFFFFFFFFFFFFFFF AND PUSH20 0xFFFFFFFFFFFFFFFFFFFFFFFFFFFFFFFFFFFFFFFF AND PUSH4 0x70A08231 PUSH1 0x1 PUSH0 SWAP1 SLOAD SWAP1 PUSH2 0x100 EXP SWAP1 DIV PUSH20 0xFFFFFFFFFFFFFFFFFFFFFFFFFFFFFFFFFFFFFFFF AND PUSH1 0x40 MLOAD DUP3 PUSH4 0xFFFFFFFF AND PUSH1 0xE0 SHL DUP2 MSTORE PUSH1 0x4 ADD PUSH2 0xBA9 SWAP2 SWAP1 PUSH2 0x23BF JUMP JUMPDEST PUSH1 0x20 PUSH1 0x40 MLOAD DUP1 DUP4 SUB DUP2 DUP7 GAS STATICCALL ISZERO DUP1 ISZERO PUSH2 0xBC4 JUMPI RETURNDATASIZE PUSH0 PUSH0 RETURNDATACOPY RETURNDATASIZE PUSH0 REVERT JUMPDEST POP POP POP POP PUSH1 0x40 MLOAD RETURNDATASIZE PUSH1 0x1F NOT PUSH1 0x1F DUP3 ADD AND DUP3 ADD DUP1 PUSH1 0x40 MSTORE POP DUP2 ADD SWAP1 PUSH2 0xBE8 SWAP2 SWAP1 PUSH2 0x23EC JUMP JUMPDEST PUSH2 0x1D8C JUMP JUMPDEST PUSH20 0x0 PUSH4 0x39DF137F PUSH8 0xDDD13F10B84EE00 PUSH1 0x2 PUSH0 SWAP1 SLOAD SWAP1 PUSH2 0x100 EXP SWAP1 DIV PUSH20 0xFFFFFFFFFFFFFFFFFFFFFFFFFFFFFFFFFFFFFFFF AND PUSH20 0xFFFFFFFFFFFFFFFFFFFFFFFFFFFFFFFFFFFFFFFF AND PUSH4 0x70A08231 PUSH1 0x1 PUSH0 SWAP1 SLOAD SWAP1 PUSH2 0x100 EXP SWAP1 DIV PUSH20 0xFFFFFFFFFFFFFFFFFFFFFFFFFFFFFFFFFFFFFFFF AND PUSH1 0x40 MLOAD DUP3 PUSH4 0xFFFFFFFF AND PUSH1 0xE0 SHL DUP2 MSTORE PUSH1 0x4 ADD PUSH2 0xC8B SWAP2 SWAP1 PUSH2 0x23BF JUMP JUMPDEST PUSH1 0x20 PUSH1 0x40 MLOAD DUP1 DUP4 SUB DUP2 DUP7 GAS STATICCALL ISZERO DUP1 ISZERO PUSH2 0xCA6 JUMPI RETURNDATASIZE PUSH0 PUSH0 RETURNDATACOPY RETURNDATASIZE PUSH0 REVERT JUMPDEST POP POP POP POP PUSH1 0x40 MLOAD RETURNDATASIZE PUSH1 0x1F NOT PUSH1 0x1F DUP3 ADD AND DUP3 ADD DUP1 PUSH1 0x40 MSTORE POP DUP2 ADD SWAP1 PUSH2 0xCCA SWAP2 SWAP1 PUSH2 0x23EC JUMP JUMPDEST EQ PUSH1 0x40 MLOAD DUP3 PUSH4 0xFFFFFFFF AND PUSH1 0xE0 SHL DUP2 MSTORE PUSH1 0x4 ADD PUSH2 0xCE7 SWAP2 SWAP1 PUSH2 0x257C JUMP JUMPDEST PUSH1 0x20 PUSH1 0x40 MLOAD DUP1 DUP4 SUB DUP2 DUP7 GAS DELEGATECALL ISZERO DUP1 ISZERO PUSH2 0xD02 JUMPI RETURNDATASIZE PUSH0 PUSH0 RETURNDATACOPY RETURNDATASIZE PUSH0 REVERT JUMPDEST POP POP POP POP PUSH1 0x40 MLOAD RETURNDATASIZE PUSH1 0x1F NOT PUSH1 0x1F DUP3 ADD AND DUP3 ADD DUP1 PUSH1 0x40 MSTORE POP DUP2 ADD SWAP1 PUSH2 0xD26 SWAP2 SWAP1 PUSH2 0x25D2 JUMP JUMPDEST POP PUSH20 0x0 PUSH4 0x39DF137F PUSH10 0x10F0CF064DD59200000 PUSH1 0x3 PUSH0 SWAP1 SLOAD SWAP1 PUSH2 0x100 EXP SWAP1 DIV PUSH20 0xFFFFFFFFFFFFFFFFFFFFFFFFFFFFFFFFFFFFFFFF AND PUSH20 0xFFFFFFFFFFFFFFFFFFFFFFFFFFFFFFFFFFFFFFFF AND PUSH4 0x70A08231 PUSH1 0x1 PUSH0 SWAP1 SLOAD SWAP1 PUSH2 0x100 EXP SWAP1 DIV PUSH20 0xFFFFFFFFFFFFFFFFFFFFFFFFFFFFFFFFFFFFFFFF AND PUSH1 0x40 MLOAD DUP3 PUSH4 0xFFFFFFFF AND PUSH1 0xE0 SHL DUP2 MSTORE PUSH1 0x4 ADD PUSH2 0xDC7 SWAP2 SWAP1 PUSH2 0x23BF JUMP JUMPDEST PUSH1 0x20 PUSH1 0x40 MLOAD DUP1 DUP4 SUB DUP2 DUP7 GAS STATICCALL ISZERO DUP1 ISZERO PUSH2 0xDE2 JUMPI RETURNDATASIZE PUSH0 PUSH0 RETURNDATACOPY RETURNDATASIZE PUSH0 REVERT JUMPDEST POP POP POP POP PUSH1 0x40 MLOAD RETURNDATASIZE PUSH1 0x1F NOT PUSH1 0x1F DUP3 ADD AND DUP3 ADD DUP1 PUSH1 0x40 MSTORE POP DUP2 ADD SWAP1 PUSH2 0xE06 SWAP2 SWAP1 PUSH2 0x23EC JUMP JUMPDEST EQ PUSH1 0x40 MLOAD DUP3 PUSH4 0xFFFFFFFF AND PUSH1 0xE0 SHL DUP2 MSTORE PUSH1 0x4 ADD PUSH2 0xE23 SWAP2 SWAP1 PUSH2 0x2647 JUMP JUMPDEST PUSH1 0x20 PUSH1 0x40 MLOAD DUP1 DUP4 SUB DUP2 DUP7 GAS DELEGATECALL ISZERO DUP1 ISZERO PUSH2 0xE3E JUMPI RETURNDATASIZE PUSH0 PUSH0 RETURNDATACOPY RETURNDATASIZE PUSH0 REVERT JUMPDEST POP POP POP POP PUSH1 0x40 MLOAD RETURNDATASIZE PUSH1 0x1F NOT PUSH1 0x1F DUP3 ADD AND DUP3 ADD DUP1 PUSH1 0x40 MSTORE POP DUP2 ADD SWAP1 PUSH2 0xE62 SWAP2 SWAP1 PUSH2 0x25D2 JUMP JUMPDEST POP PUSH0 ADDRESS DUP5 DUP5 PUSH1 0x40 MLOAD PUSH1 0x20 ADD PUSH2 0xE79 SWAP4 SWAP3 SWAP2 SWAP1 PUSH2 0x26EC JUMP JUMPDEST PUSH1 0x40 MLOAD PUSH1 0x20 DUP2 DUP4 SUB SUB DUP2 MSTORE SWAP1 PUSH1 0x40 MSTORE DUP1 MLOAD SWAP1 PUSH1 0x20 ADD KECCAK256 SWAP1 POP PUSH0 PUSH1 0x1 PUSH0 SWAP1 SLOAD SWAP1 PUSH2 0x100 EXP SWAP1 DIV PUSH20 0xFFFFFFFFFFFFFFFFFFFFFFFFFFFFFFFFFFFFFFFF AND PUSH20 0xFFFFFFFFFFFFFFFFFFFFFFFFFFFFFFFFFFFFFFFF AND PUSH4 0x514EA4BF DUP4 PUSH1 0x40 MLOAD DUP3 PUSH4 0xFFFFFFFF AND PUSH1 0xE0 SHL DUP2 MSTORE PUSH1 0x4 ADD PUSH2 0xEEC SWAP2 SWAP1 PUSH2 0x2740 JUMP JUMPDEST PUSH1 0x20 PUSH1 0x40 MLOAD DUP1 DUP4 SUB DUP2 DUP7 GAS STATICCALL ISZERO DUP1 ISZERO PUSH2 0xF07 JUMPI RETURNDATASIZE PUSH0 PUSH0 RETURNDATACOPY RETURNDATASIZE PUSH0 REVERT JUMPDEST POP POP POP POP PUSH1 0x40 MLOAD RETURNDATASIZE PUSH1 0x1F NOT PUSH1 0x1F DUP3 ADD AND DUP3 ADD DUP1 PUSH1 0x40 MSTORE POP DUP2 ADD SWAP1 PUSH2 0xF2B SWAP2 SWAP1 PUSH2 0x2783 JUMP JUMPDEST SWAP1 POP PUSH2 0xF7E PUSH1 0x40 MLOAD DUP1 PUSH1 0x40 ADD PUSH1 0x40 MSTORE DUP1 PUSH1 0xB DUP2 MSTORE PUSH1 0x20 ADD PUSH32 0x6C69717569646974793A20000000000000000000000000000000000000000000 DUP2 MSTORE POP DUP5 PUSH16 0xFFFFFFFFFFFFFFFFFFFFFFFFFFFFFFFF AND PUSH2 0x1D8C JUMP JUMPDEST PUSH2 0xFCF PUSH1 0x40 MLOAD DUP1 PUSH1 0x40 ADD PUSH1 0x40 MSTORE DUP1 PUSH1 0xE DUP2 MSTORE PUSH1 0x20 ADD PUSH32 0x706F73206C69717569646974793A000000000000000000000000000000000000 DUP2 MSTORE POP DUP3 PUSH16 0xFFFFFFFFFFFFFFFFFFFFFFFFFFFFFFFF AND PUSH2 0x1D8C JUMP JUMPDEST PUSH20 0x0 PUSH4 0xABCD7960 DUP3 DUP6 PUSH1 0x40 MLOAD DUP4 PUSH4 0xFFFFFFFF AND PUSH1 0xE0 SHL DUP2 MSTORE PUSH1 0x4 ADD PUSH2 0x1008 SWAP3 SWAP2 SWAP1 PUSH2 0x27DE JUMP JUMPDEST PUSH1 0x20 PUSH1 0x40 MLOAD DUP1 DUP4 SUB DUP2 DUP7 GAS DELEGATECALL ISZERO DUP1 ISZERO PUSH2 0x1023 JUMPI RETURNDATASIZE PUSH0 PUSH0 RETURNDATACOPY RETURNDATASIZE PUSH0 REVERT JUMPDEST POP POP POP POP PUSH1 0x40 MLOAD RETURNDATASIZE PUSH1 0x1F NOT PUSH1 0x1F DUP3 ADD AND DUP3 ADD DUP1 PUSH1 0x40 MSTORE POP DUP2 ADD SWAP1 PUSH2 0x1047 SWAP2 SWAP1 PUSH2 0x25D2 JUMP JUMPDEST POP PUSH0 PUSH0 PUSH1 0x1 PUSH0 SWAP1 SLOAD SWAP1 PUSH2 0x100 EXP SWAP1 DIV PUSH20 0xFFFFFFFFFFFFFFFFFFFFFFFFFFFFFFFFFFFFFFFF AND PUSH20 0xFFFFFFFFFFFFFFFFFFFFFFFFFFFFFFFFFFFFFFFF AND PUSH4 0x3850C7BD PUSH1 0x40 MLOAD DUP2 PUSH4 0xFFFFFFFF AND PUSH1 0xE0 SHL DUP2 MSTORE PUSH1 0x4 ADD PUSH1 0x40 DUP1 MLOAD DUP1 DUP4 SUB DUP2 DUP7 GAS STATICCALL ISZERO DUP1 ISZERO PUSH2 0x10B3 JUMPI RETURNDATASIZE PUSH0 PUSH0 RETURNDATACOPY RETURNDATASIZE PUSH0 REVERT JUMPDEST POP POP POP POP PUSH1 0x40 MLOAD RETURNDATASIZE PUSH1 0x1F NOT PUSH1 0x1F DUP3 ADD AND DUP3 ADD DUP1 PUSH1 0x40 MSTORE POP DUP2 ADD SWAP1 PUSH2 0x10D7 SWAP2 SWAP1 PUSH2 0x286C JUMP JUMPDEST SWAP2 POP SWAP2 POP PUSH2 0x1130 PUSH1 0x40 MLOAD DUP1 PUSH1 0x40 ADD PUSH1 0x40 MSTORE DUP1 PUSH1 0x10 DUP2 MSTORE PUSH1 0x20 ADD PUSH32 0x73717274207072696365205839363A2000000000000000000000000000000000 DUP2 MSTORE POP DUP4 PUSH20 0xFFFFFFFFFFFFFFFFFFFFFFFFFFFFFFFFFFFFFFFF AND PUSH2 0x1D8C JUMP JUMPDEST PUSH20 0x0 PUSH4 0xABCD7960 DUP4 PUSH13 0x46B5EF004D9AE0000000000000 PUSH1 0x40 MLOAD DUP4 PUSH4 0xFFFFFFFF AND PUSH1 0xE0 SHL DUP2 MSTORE PUSH1 0x4 ADD PUSH2 0x1176 SWAP3 SWAP2 SWAP1 PUSH2 0x295D JUMP JUMPDEST PUSH1 0x20 PUSH1 0x40 MLOAD DUP1 DUP4 SUB DUP2 DUP7 GAS DELEGATECALL ISZERO DUP1 ISZERO PUSH2 0x1191 JUMPI RETURNDATASIZE PUSH0 PUSH0 RETURNDATACOPY RETURNDATASIZE PUSH0 REVERT JUMPDEST POP POP POP POP PUSH1 0x40 MLOAD RETURNDATASIZE PUSH1 0x1F NOT PUSH1 0x1F DUP3 ADD AND DUP3 ADD DUP1 PUSH1 0x40 MSTORE POP DUP2 ADD SWAP1 PUSH2 0x11B5 SWAP2 SWAP1 PUSH2 0x25D2 JUMP JUMPDEST POP PUSH20 0x0 PUSH4 0xF5BAE6B6 DUP3 PUSH3 0x14CB8 PUSH1 0x40 MLOAD DUP4 PUSH4 0xFFFFFFFF AND PUSH1 0xE0 SHL DUP2 MSTORE PUSH1 0x4 ADD PUSH2 0x11F2 SWAP3 SWAP2 SWAP1 PUSH2 0x2A4A JUMP JUMPDEST PUSH1 0x20 PUSH1 0x40 MLOAD DUP1 DUP4 SUB DUP2 DUP7 GAS DELEGATECALL ISZERO DUP1 ISZERO PUSH2 0x120D JUMPI RETURNDATASIZE PUSH0 PUSH0 RETURNDATACOPY RETURNDATASIZE PUSH0 REVERT JUMPDEST POP POP POP POP PUSH1 0x40 MLOAD RETURNDATASIZE PUSH1 0x1F NOT PUSH1 0x1F DUP3 ADD AND DUP3 ADD DUP1 PUSH1 0x40 MSTORE POP DUP2 ADD SWAP1 PUSH2 0x1231 SWAP2 SWAP1 PUSH2 0x25D2 JUMP JUMPDEST POP PUSH2 0x1270 PUSH1 0x40 MLOAD DUP1 PUSH1 0x40 ADD PUSH1 0x40 MSTORE DUP1 PUSH1 0x1F DUP2 MSTORE PUSH1 0x20 ADD PUSH32 0x3D3D3D3D3D3D3D3D3D3D3DE8BDACE8B4A6E5908E3D3D3D3D3D3D3D3D3D3D3D00 DUP2 MSTORE POP PUSH2 0x1CF3 JUMP JUMPDEST PUSH0 PUSH0 PUSH1 0x1 PUSH0 SWAP1 SLOAD SWAP1 PUSH2 0x100 EXP SWAP1 DIV PUSH20 0xFFFFFFFFFFFFFFFFFFFFFFFFFFFFFFFFFFFFFFFF AND PUSH20 0xFFFFFFFFFFFFFFFFFFFFFFFFFFFFFFFFFFFFFFFF AND PUSH4 0xE3547335 ADDRESS PUSH1 0x40 MLOAD DUP3 PUSH4 0xFFFFFFFF AND PUSH1 0xE0 SHL DUP2 MSTORE PUSH1 0x4 ADD PUSH2 0x12CC SWAP2 SWAP1 PUSH2 0x2A84 JUMP JUMPDEST PUSH1 0x40 DUP1 MLOAD DUP1 DUP4 SUB DUP2 PUSH0 DUP8 GAS CALL ISZERO DUP1 ISZERO PUSH2 0x12E7 JUMPI RETURNDATASIZE PUSH0 PUSH0 RETURNDATACOPY RETURNDATASIZE PUSH0 REVERT JUMPDEST POP POP POP POP PUSH1 0x40 MLOAD RETURNDATASIZE PUSH1 0x1F NOT PUSH1 0x1F DUP3 ADD AND DUP3 ADD DUP1 PUSH1 0x40 MSTORE POP DUP2 ADD SWAP1 PUSH2 0x130B SWAP2 SWAP1 PUSH2 0x2AC4 JUMP JUMPDEST SWAP2 POP SWAP2 POP PUSH2 0x13E6 PUSH1 0x40 MLOAD DUP1 PUSH1 0x40 ADD PUSH1 0x40 MSTORE DUP1 PUSH1 0x13 DUP2 MSTORE PUSH1 0x20 ADD PUSH32 0x7573657220657263302062616C616E63653A2000000000000000000000000000 DUP2 MSTORE POP PUSH1 0x2 PUSH0 SWAP1 SLOAD SWAP1 PUSH2 0x100 EXP SWAP1 DIV PUSH20 0xFFFFFFFFFFFFFFFFFFFFFFFFFFFFFFFFFFFFFFFF AND PUSH20 0xFFFFFFFFFFFFFFFFFFFFFFFFFFFFFFFFFFFFFFFF AND PUSH4 0x70A08231 ADDRESS PUSH1 0x40 MLOAD DUP3 PUSH4 0xFFFFFFFF AND PUSH1 0xE0 SHL DUP2 MSTORE PUSH1 0x4 ADD PUSH2 0x13A2 SWAP2 SWAP1 PUSH2 0x23BF JUMP JUMPDEST PUSH1 0x20 PUSH1 0x40 MLOAD DUP1 DUP4 SUB DUP2 DUP7 GAS STATICCALL ISZERO DUP1 ISZERO PUSH2 0x13BD JUMPI RETURNDATASIZE PUSH0 PUSH0 RETURNDATACOPY RETURNDATASIZE PUSH0 REVERT JUMPDEST POP POP POP POP PUSH1 0x40 MLOAD RETURNDATASIZE PUSH1 0x1F NOT PUSH1 0x1F DUP3 ADD AND DUP3 ADD DUP1 PUSH1 0x40 MSTORE POP DUP2 ADD SWAP1 PUSH2 0x13E1 SWAP2 SWAP1 PUSH2 0x23EC JUMP JUMPDEST PUSH2 0x1D8C JUMP JUMPDEST PUSH2 0x14BD PUSH1 0x40 MLOAD DUP1 PUSH1 0x40 ADD PUSH1 0x40 MSTORE DUP1 PUSH1 0x13 DUP2 MSTORE PUSH1 0x20 ADD PUSH32 0x7573657220657263312062616C616E63653A2000000000000000000000000000 DUP2 MSTORE POP PUSH1 0x3 PUSH0 SWAP1 SLOAD SWAP1 PUSH2 0x100 EXP SWAP1 DIV PUSH20 0xFFFFFFFFFFFFFFFFFFFFFFFFFFFFFFFFFFFFFFFF AND PUSH20 0xFFFFFFFFFFFFFFFFFFFFFFFFFFFFFFFFFFFFFFFF AND PUSH4 0x70A08231 ADDRESS PUSH1 0x40 MLOAD DUP3 PUSH4 0xFFFFFFFF AND PUSH1 0xE0 SHL DUP2 MSTORE PUSH1 0x4 ADD PUSH2 0x1479 SWAP2 SWAP1 PUSH2 0x23BF JUMP JUMPDEST PUSH1 0x20 PUSH1 0x40 MLOAD DUP1 DUP4 SUB DUP2 DUP7 GAS STATICCALL ISZERO DUP1 ISZERO PUSH2 0x1494 JUMPI RETURNDATASIZE PUSH0 PUSH0 RETURNDATACOPY RETURNDATASIZE PUSH0 REVERT JUMPDEST POP POP POP POP PUSH1 0x40 MLOAD RETURNDATASIZE PUSH1 0x1F NOT PUSH1 0x1F DUP3 ADD AND DUP3 ADD DUP1 PUSH1 0x40 MSTORE POP DUP2 ADD SWAP1 PUSH2 0x14B8 SWAP2 SWAP1 PUSH2 0x23EC JUMP JUMPDEST PUSH2 0x1D8C JUMP JUMPDEST PUSH2 0x15B5 PUSH1 0x40 MLOAD DUP1 PUSH1 0x40 ADD PUSH1 0x40 MSTORE DUP1 PUSH1 0x13 DUP2 MSTORE PUSH1 0x20 ADD PUSH32 0x706F6F6C20657263302062616C616E63653A2000000000000000000000000000 DUP2 MSTORE POP PUSH1 0x2 PUSH0 SWAP1 SLOAD SWAP1 PUSH2 0x100 EXP SWAP1 DIV PUSH20 0xFFFFFFFFFFFFFFFFFFFFFFFFFFFFFFFFFFFFFFFF AND PUSH20 0xFFFFFFFFFFFFFFFFFFFFFFFFFFFFFFFFFFFFFFFF AND PUSH4 0x70A08231 PUSH1 0x1 PUSH0 SWAP1 SLOAD SWAP1 PUSH2 0x100 EXP SWAP1 DIV PUSH20 0xFFFFFFFFFFFFFFFFFFFFFFFFFFFFFFFFFFFFFFFF AND PUSH1 0x40 MLOAD DUP3 PUSH4 0xFFFFFFFF AND PUSH1 0xE0 SHL DUP2 MSTORE PUSH1 0x4 ADD PUSH2 0x1571 SWAP2 SWAP1 PUSH2 0x23BF JUMP JUMPDEST PUSH1 0x20 PUSH1 0x40 MLOAD DUP1 DUP4 SUB DUP2 DUP7 GAS STATICCALL ISZERO DUP1 ISZERO PUSH2 0x158C JUMPI RETURNDATASIZE PUSH0 PUSH0 RETURNDATACOPY RETURNDATASIZE PUSH0 REVERT JUMPDEST POP POP POP POP PUSH1 0x40 MLOAD RETURNDATASIZE PUSH1 0x1F NOT PUSH1 0x1F DUP3 ADD AND DUP3 ADD DUP1 PUSH1 0x40 MSTORE POP DUP2 ADD SWAP1 PUSH2 0x15B0 SWAP2 SWAP1 PUSH2 0x23EC JUMP JUMPDEST PUSH2 0x1D8C JUMP JUMPDEST PUSH2 0x16AD PUSH1 0x40 MLOAD DUP1 PUSH1 0x40 ADD PUSH1 0x40 MSTORE DUP1 PUSH1 0x13 DUP2 MSTORE PUSH1 0x20 ADD PUSH32 0x706F6F6C20657263312062616C616E63653A2000000000000000000000000000 DUP2 MSTORE POP PUSH1 0x3 PUSH0 SWAP1 SLOAD SWAP1 PUSH2 0x100 EXP SWAP1 DIV PUSH20 0xFFFFFFFFFFFFFFFFFFFFFFFFFFFFFFFFFFFFFFFF AND PUSH20 0xFFFFFFFFFFFFFFFFFFFFFFFFFFFFFFFFFFFFFFFF AND PUSH4 0x70A08231 PUSH1 0x1 PUSH0 SWAP1 SLOAD SWAP1 PUSH2 0x100 EXP SWAP1 DIV PUSH20 0xFFFFFFFFFFFFFFFFFFFFFFFFFFFFFFFFFFFFFFFF AND PUSH1 0x40 MLOAD DUP3 PUSH4 0xFFFFFFFF AND PUSH1 0xE0 SHL DUP2 MSTORE PUSH1 0x4 ADD PUSH2 0x1669 SWAP2 SWAP1 PUSH2 0x23BF JUMP JUMPDEST PUSH1 0x20 PUSH1 0x40 MLOAD DUP1 DUP4 SUB DUP2 DUP7 GAS STATICCALL ISZERO DUP1 ISZERO PUSH2 0x1684 JUMPI RETURNDATASIZE PUSH0 PUSH0 RETURNDATACOPY RETURNDATASIZE PUSH0 REVERT JUMPDEST POP POP POP POP PUSH1 0x40 MLOAD RETURNDATASIZE PUSH1 0x1F NOT PUSH1 0x1F DUP3 ADD AND DUP3 ADD DUP1 PUSH1 0x40 MSTORE POP DUP2 ADD SWAP1 PUSH2 0x16A8 SWAP2 SWAP1 PUSH2 0x23EC JUMP JUMPDEST PUSH2 0x1D8C JUMP JUMPDEST PUSH20 0x0 PUSH4 0xF5BAE6B6 DUP4 PUSH32 0xFFFFFFFFFFFFFFFFFFFFFFFFFFFFFFFFFFFFFFFFFFFFFFFFFFE22B3B9E50C0F4 PUSH1 0x40 MLOAD DUP4 PUSH4 0xFFFFFFFF AND PUSH1 0xE0 SHL DUP2 MSTORE PUSH1 0x4 ADD PUSH2 0x1706 SWAP3 SWAP2 SWAP1 PUSH2 0x2B94 JUMP JUMPDEST PUSH1 0x20 PUSH1 0x40 MLOAD DUP1 DUP4 SUB DUP2 DUP7 GAS DELEGATECALL ISZERO DUP1 ISZERO PUSH2 0x1721 JUMPI RETURNDATASIZE PUSH0 PUSH0 RETURNDATACOPY RETURNDATASIZE PUSH0 REVERT JUMPDEST POP POP POP POP PUSH1 0x40 MLOAD RETURNDATASIZE PUSH1 0x1F NOT PUSH1 0x1F DUP3 ADD AND DUP3 ADD DUP1 PUSH1 0x40 MSTORE POP DUP2 ADD SWAP1 PUSH2 0x1745 SWAP2 SWAP1 PUSH2 0x25D2 JUMP JUMPDEST POP PUSH20 0x0 PUSH4 0xF5BAE6B6 DUP3 PUSH9 0x246DDF97976680000 PUSH1 0x40 MLOAD DUP4 PUSH4 0xFFFFFFFF AND PUSH1 0xE0 SHL DUP2 MSTORE PUSH1 0x4 ADD PUSH2 0x1788 SWAP3 SWAP2 SWAP1 PUSH2 0x2C51 JUMP JUMPDEST PUSH1 0x20 PUSH1 0x40 MLOAD DUP1 DUP4 SUB DUP2 DUP7 GAS DELEGATECALL ISZERO DUP1 ISZERO PUSH2 0x17A3 JUMPI RETURNDATASIZE PUSH0 PUSH0 RETURNDATACOPY RETURNDATASIZE PUSH0 REVERT JUMPDEST POP POP POP POP PUSH1 0x40 MLOAD RETURNDATASIZE PUSH1 0x1F NOT PUSH1 0x1F DUP3 ADD AND DUP3 ADD DUP1 PUSH1 0x40 MSTORE POP DUP2 ADD SWAP1 PUSH2 0x17C7 SWAP2 SWAP1 PUSH2 0x25D2 JUMP JUMPDEST POP PUSH20 0x0 PUSH4 0xABCD7960 PUSH1 0x2 PUSH0 SWAP1 SLOAD SWAP1 PUSH2 0x100 EXP SWAP1 DIV PUSH20 0xFFFFFFFFFFFFFFFFFFFFFFFFFFFFFFFFFFFFFFFF AND PUSH20 0xFFFFFFFFFFFFFFFFFFFFFFFFFFFFFFFFFFFFFFFF AND PUSH4 0x70A08231 PUSH1 0x1 PUSH0 SWAP1 SLOAD SWAP1 PUSH2 0x100 EXP SWAP1 DIV PUSH20 0xFFFFFFFFFFFFFFFFFFFFFFFFFFFFFFFFFFFFFFFF AND PUSH1 0x40 MLOAD DUP3 PUSH4 0xFFFFFFFF AND PUSH1 0xE0 SHL DUP2 MSTORE PUSH1 0x4 ADD PUSH2 0x185D SWAP2 SWAP1 PUSH2 0x23BF JUMP JUMPDEST PUSH1 0x20 PUSH1 0x40 MLOAD DUP1 DUP4 SUB DUP2 DUP7 GAS STATICCALL ISZERO DUP1 ISZERO PUSH2 0x1878 JUMPI RETURNDATASIZE PUSH0 PUSH0 RETURNDATACOPY RETURNDATASIZE PUSH0 REVERT JUMPDEST POP POP POP POP PUSH1 0x40 MLOAD RETURNDATASIZE PUSH1 0x1F NOT PUSH1 0x1F DUP3 ADD AND DUP3 ADD DUP1 PUSH1 0x40 MSTORE POP DUP2 ADD SWAP1 PUSH2 0x189C SWAP2 SWAP1 PUSH2 0x23EC JUMP JUMPDEST DUP5 PUSH8 0xDDD13F10B84EE00 PUSH2 0x18B0 SWAP2 SWAP1 PUSH2 0x2CB8 JUMP JUMPDEST PUSH1 0x40 MLOAD DUP4 PUSH4 0xFFFFFFFF AND PUSH1 0xE0 SHL DUP2 MSTORE PUSH1 0x4 ADD PUSH2 0x18CD SWAP3 SWAP2 SWAP1 PUSH2 0x2D52 JUMP JUMPDEST PUSH1 0x20 PUSH1 0x40 MLOAD DUP1 DUP4 SUB DUP2 DUP7 GAS DELEGATECALL ISZERO DUP1 ISZERO PUSH2 0x18E8 JUMPI RETURNDATASIZE PUSH0 PUSH0 RETURNDATACOPY RETURNDATASIZE PUSH0 REVERT JUMPDEST POP POP POP POP PUSH1 0x40 MLOAD RETURNDATASIZE PUSH1 0x1F NOT PUSH1 0x1F DUP3 ADD AND DUP3 ADD DUP1 PUSH1 0x40 MSTORE POP DUP2 ADD SWAP1 PUSH2 0x190C SWAP2 SWAP1 PUSH2 0x25D2 JUMP JUMPDEST POP PUSH20 0x0 PUSH4 0xABCD7960 PUSH1 0x3 PUSH0 SWAP1 SLOAD SWAP1 PUSH2 0x100 EXP SWAP1 DIV PUSH20 0xFFFFFFFFFFFFFFFFFFFFFFFFFFFFFFFFFFFFFFFF AND PUSH20 0xFFFFFFFFFFFFFFFFFFFFFFFFFFFFFFFFFFFFFFFF AND PUSH4 0x70A08231 PUSH1 0x1 PUSH0 SWAP1 SLOAD SWAP1 PUSH2 0x100 EXP SWAP1 DIV PUSH20 0xFFFFFFFFFFFFFFFFFFFFFFFFFFFFFFFFFFFFFFFF AND PUSH1 0x40 MLOAD DUP3 PUSH4 0xFFFFFFFF AND PUSH1 0xE0 SHL DUP2 MSTORE PUSH1 0x4 ADD PUSH2 0x19A2 SWAP2 SWAP1 PUSH2 0x23BF JUMP JUMPDEST PUSH1 0x20 PUSH1 0x40 MLOAD DUP1 DUP4 SUB DUP2 DUP7 GAS STATICCALL ISZERO DUP1 ISZERO PUSH2 0x19BD JUMPI RETURNDATASIZE PUSH0 PUSH0 RETURNDATACOPY RETURNDATASIZE PUSH0 REVERT JUMPDEST POP POP POP POP PUSH1 0x40 MLOAD RETURNDATASIZE PUSH1 0x1F NOT PUSH1 0x1F DUP3 ADD AND DUP3 ADD DUP1 PUSH1 0x40 MSTORE POP DUP2 ADD SWAP1 PUSH2 0x19E1 SWAP2 SWAP1 PUSH2 0x23EC JUMP JUMPDEST DUP4 PUSH10 0x10F0CF064DD59200000 PUSH2 0x19F7 SWAP2 SWAP1 PUSH2 0x2CB8 JUMP JUMPDEST PUSH1 0x40 MLOAD DUP4 PUSH4 0xFFFFFFFF AND PUSH1 0xE0 SHL DUP2 MSTORE PUSH1 0x4 ADD PUSH2 0x1A14 SWAP3 SWAP2 SWAP1 PUSH2 0x2DD6 JUMP JUMPDEST PUSH1 0x20 PUSH1 0x40 MLOAD DUP1 DUP4 SUB DUP2 DUP7 GAS DELEGATECALL ISZERO DUP1 ISZERO PUSH2 0x1A2F JUMPI RETURNDATASIZE PUSH0 PUSH0 RETURNDATACOPY RETURNDATASIZE PUSH0 REVERT JUMPDEST POP POP POP POP PUSH1 0x40 MLOAD RETURNDATASIZE PUSH1 0x1F NOT PUSH1 0x1F DUP3 ADD AND DUP3 ADD DUP1 PUSH1 0x40 MSTORE POP DUP2 ADD SWAP1 PUSH2 0x1A53 SWAP2 SWAP1 PUSH2 0x25D2 JUMP JUMPDEST POP POP POP POP POP POP POP POP POP POP SWAP1 SWAP2 JUMP JUMPDEST PUSH1 0x2 PUSH0 SWAP1 SLOAD SWAP1 PUSH2 0x100 EXP SWAP1 DIV PUSH20 0xFFFFFFFFFFFFFFFFFFFFFFFFFFFFFFFFFFFFFFFF AND PUSH20 0xFFFFFFFFFFFFFFFFFFFFFFFFFFFFFFFFFFFFFFFF AND PUSH4 0xA9059CBB CALLER DUP7 PUSH1 0x40 MLOAD DUP4 PUSH4 0xFFFFFFFF AND PUSH1 0xE0 SHL DUP2 MSTORE PUSH1 0x4 ADD PUSH2 0x1ABD SWAP3 SWAP2 SWAP1 PUSH2 0x2E10 JUMP JUMPDEST PUSH1 0x20 PUSH1 0x40 MLOAD DUP1 DUP4 SUB DUP2 PUSH0 DUP8 GAS CALL ISZERO DUP1 ISZERO PUSH2 0x1AD9 JUMPI RETURNDATASIZE PUSH0 PUSH0 RETURNDATACOPY RETURNDATASIZE PUSH0 REVERT JUMPDEST POP POP POP POP PUSH1 0x40 MLOAD RETURNDATASIZE PUSH1 0x1F NOT PUSH1 0x1F DUP3 ADD AND DUP3 ADD DUP1 PUSH1 0x40 MSTORE POP DUP2 ADD SWAP1 PUSH2 0x1AFD SWAP2 SWAP1 PUSH2 0x25D2 JUMP JUMPDEST POP PUSH1 0x3 PUSH0 SWAP1 SLOAD SWAP1 PUSH2 0x100 EXP SWAP1 DIV PUSH20 0xFFFFFFFFFFFFFFFFFFFFFFFFFFFFFFFFFFFFFFFF AND PUSH20 0xFFFFFFFFFFFFFFFFFFFFFFFFFFFFFFFFFFFFFFFF AND PUSH4 0xA9059CBB CALLER DUP6 PUSH1 0x40 MLOAD DUP4 PUSH4 0xFFFFFFFF AND PUSH1 0xE0 SHL DUP2 MSTORE PUSH1 0x4 ADD PUSH2 0x1B5A SWAP3 SWAP2 SWAP1 PUSH2 0x2E10 JUMP JUMPDEST PUSH1 0x20 PUSH1 0x40 MLOAD DUP1 DUP4 SUB DUP2 PUSH0 DUP8 GAS CALL ISZERO DUP1 ISZERO PUSH2 0x1B76 JUMPI RETURNDATASIZE PUSH0 PUSH0 RETURNDATACOPY RETURNDATASIZE PUSH0 REVERT JUMPDEST POP POP POP POP PUSH1 0x40 MLOAD RETURNDATASIZE PUSH1 0x1F NOT PUSH1 0x1F DUP3 ADD AND DUP3 ADD DUP1 PUSH1 0x40 MSTORE POP DUP2 ADD SWAP1 PUSH2 0x1B9A SWAP2 SWAP1 PUSH2 0x25D2 JUMP JUMPDEST POP POP POP POP POP JUMP JUMPDEST PUSH0 DUP5 SGT ISZERO PUSH2 0x1C47 JUMPI PUSH1 0x2 PUSH0 SWAP1 SLOAD SWAP1 PUSH2 0x100 EXP SWAP1 DIV PUSH20 0xFFFFFFFFFFFFFFFFFFFFFFFFFFFFFFFFFFFFFFFF AND PUSH20 0xFFFFFFFFFFFFFFFFFFFFFFFFFFFFFFFFFFFFFFFF AND PUSH4 0xA9059CBB CALLER DUP7 PUSH1 0x40 MLOAD DUP4 PUSH4 0xFFFFFFFF AND PUSH1 0xE0 SHL DUP2 MSTORE PUSH1 0x4 ADD PUSH2 0x1C05 SWAP3 SWAP2 SWAP1 PUSH2 0x2E10 JUMP JUMPDEST PUSH1 0x20 PUSH1 0x40 MLOAD DUP1 DUP4 SUB DUP2 PUSH0 DUP8 GAS CALL ISZERO DUP1 ISZERO PUSH2 0x1C21 JUMPI RETURNDATASIZE PUSH0 PUSH0 RETURNDATACOPY RETURNDATASIZE PUSH0 REVERT JUMPDEST POP POP POP POP PUSH1 0x40 MLOAD RETURNDATASIZE PUSH1 0x1F NOT PUSH1 0x1F DUP3 ADD AND DUP3 ADD DUP1 PUSH1 0x40 MSTORE POP DUP2 ADD SWAP1 PUSH2 0x1C45 SWAP2 SWAP1 PUSH2 0x25D2 JUMP JUMPDEST POP JUMPDEST PUSH0 DUP4 SGT ISZERO PUSH2 0x1CED JUMPI PUSH1 0x3 PUSH0 SWAP1 SLOAD SWAP1 PUSH2 0x100 EXP SWAP1 DIV PUSH20 0xFFFFFFFFFFFFFFFFFFFFFFFFFFFFFFFFFFFFFFFF AND PUSH20 0xFFFFFFFFFFFFFFFFFFFFFFFFFFFFFFFFFFFFFFFF AND PUSH4 0xA9059CBB CALLER DUP6 PUSH1 0x40 MLOAD DUP4 PUSH4 0xFFFFFFFF AND PUSH1 0xE0 SHL DUP2 MSTORE PUSH1 0x4 ADD PUSH2 0x1CAB SWAP3 SWAP2 SWAP1 PUSH2 0x2E10 JUMP JUMPDEST PUSH1 0x20 PUSH1 0x40 MLOAD DUP1 DUP4 SUB DUP2 PUSH0 DUP8 GAS CALL ISZERO DUP1 ISZERO PUSH2 0x1CC7 JUMPI RETURNDATASIZE PUSH0 PUSH0 RETURNDATACOPY RETURNDATASIZE PUSH0 REVERT JUMPDEST POP POP POP POP PUSH1 0x40 MLOAD RETURNDATASIZE PUSH1 0x1F NOT PUSH1 0x1F DUP3 ADD AND DUP3 ADD DUP1 PUSH1 0x40 MSTORE POP DUP2 ADD SWAP1 PUSH2 0x1CEB SWAP2 SWAP1 PUSH2 0x25D2 JUMP JUMPDEST POP JUMPDEST POP POP POP POP JUMP JUMPDEST PUSH2 0x1D89 DUP2 PUSH1 0x40 MLOAD PUSH1 0x24 ADD PUSH2 0x1D07 SWAP2 SWAP1 PUSH2 0x2E97 JUMP JUMPDEST PUSH1 0x40 MLOAD PUSH1 0x20 DUP2 DUP4 SUB SUB DUP2 MSTORE SWAP1 PUSH1 0x40 MSTORE PUSH32 0x41304FAC00000000000000000000000000000000000000000000000000000000 PUSH28 0xFFFFFFFFFFFFFFFFFFFFFFFFFFFFFFFFFFFFFFFFFFFFFFFFFFFFFFFF NOT AND PUSH1 0x20 DUP3 ADD DUP1 MLOAD PUSH28 0xFFFFFFFFFFFFFFFFFFFFFFFFFFFFFFFFFFFFFFFFFFFFFFFFFFFFFFFF DUP4 DUP2 DUP4 AND OR DUP4 MSTORE POP POP POP POP PUSH2 0x1E28 JUMP JUMPDEST POP JUMP JUMPDEST PUSH2 0x1E24 DUP3 DUP3 PUSH1 0x40 MLOAD PUSH1 0x24 ADD PUSH2 0x1DA2 SWAP3 SWAP2 SWAP1 PUSH2 0x2EB7 JUMP JUMPDEST PUSH1 0x40 MLOAD PUSH1 0x20 DUP2 DUP4 SUB SUB DUP2 MSTORE SWAP1 PUSH1 0x40 MSTORE PUSH32 0xB60E72CC00000000000000000000000000000000000000000000000000000000 PUSH28 0xFFFFFFFFFFFFFFFFFFFFFFFFFFFFFFFFFFFFFFFFFFFFFFFFFFFFFFFF NOT AND PUSH1 0x20 DUP3 ADD DUP1 MLOAD PUSH28 0xFFFFFFFFFFFFFFFFFFFFFFFFFFFFFFFFFFFFFFFFFFFFFFFFFFFFFFFF DUP4 DUP2 DUP4 AND OR DUP4 MSTORE POP POP POP POP PUSH2 0x1E28 JUMP JUMPDEST POP POP JUMP JUMPDEST PUSH2 0x1E3F DUP2 PUSH2 0x1E37 PUSH2 0x1E42 PUSH2 0x1E61 JUMP JUMPDEST PUSH4 0xFFFFFFFF AND JUMP JUMPDEST POP JUMP JUMPDEST PUSH0 PUSH11 0x636F6E736F6C652E6C6F67 SWAP1 POP PUSH0 PUSH0 DUP4 MLOAD PUSH1 0x20 DUP6 ADD DUP5 GAS STATICCALL POP POP POP JUMP JUMPDEST PUSH2 0x1E86 DUP2 SWAP1 POP SWAP2 SWAP1 POP JUMP JUMPDEST PUSH2 0x14EA DUP1 PUSH2 0x2F13 DUP4 CODECOPY ADD SWAP1 JUMP JUMPDEST PUSH2 0x16EE DUP1 PUSH2 0x43FD DUP4 CODECOPY ADD SWAP1 JUMP JUMPDEST PUSH2 0x1E8E PUSH2 0x2EE5 JUMP JUMPDEST JUMP JUMPDEST PUSH0 PUSH20 0xFFFFFFFFFFFFFFFFFFFFFFFFFFFFFFFFFFFFFFFF DUP3 AND SWAP1 POP SWAP2 SWAP1 POP JUMP JUMPDEST PUSH0 DUP2 SWAP1 POP SWAP2 SWAP1 POP JUMP JUMPDEST PUSH0 PUSH2 0x1ED2 PUSH2 0x1ECD PUSH2 0x1EC8 DUP5 PUSH2 0x1E90 JUMP JUMPDEST PUSH2 0x1EAF JUMP JUMPDEST PUSH2 0x1E90 JUMP JUMPDEST SWAP1 POP SWAP2 SWAP1 POP JUMP JUMPDEST PUSH0 PUSH2 0x1EE3 DUP3 PUSH2 0x1EB8 JUMP JUMPDEST SWAP1 POP SWAP2 SWAP1 POP JUMP JUMPDEST PUSH0 PUSH2 0x1EF4 DUP3 PUSH2 0x1ED9 JUMP JUMPDEST SWAP1 POP SWAP2 SWAP1 POP JUMP JUMPDEST PUSH2 0x1F04 DUP2 PUSH2 0x1EEA JUMP JUMPDEST DUP3 MSTORE POP POP JUMP JUMPDEST PUSH0 PUSH1 0x20 DUP3 ADD SWAP1 POP PUSH2 0x1F1D PUSH0 DUP4 ADD DUP5 PUSH2 0x1EFB JUMP JUMPDEST SWAP3 SWAP2 POP POP JUMP JUMPDEST PUSH0 PUSH2 0x1F2D DUP3 PUSH2 0x1ED9 JUMP JUMPDEST SWAP1 POP SWAP2 SWAP1 POP JUMP JUMPDEST PUSH2 0x1F3D DUP2 PUSH2 0x1F23 JUMP JUMPDEST DUP3 MSTORE POP POP JUMP JUMPDEST PUSH0 PUSH1 0x20 DUP3 ADD SWAP1 POP PUSH2 0x1F56 PUSH0 DUP4 ADD DUP5 PUSH2 0x1F34 JUMP JUMPDEST SWAP3 SWAP2 POP POP JUMP JUMPDEST PUSH0 DUP2 SWAP1 POP SWAP2 SWAP1 POP JUMP JUMPDEST PUSH2 0x1F6E DUP2 PUSH2 0x1F5C JUMP JUMPDEST DUP3 MSTORE POP POP JUMP JUMPDEST PUSH0 PUSH1 0x40 DUP3 ADD SWAP1 POP PUSH2 0x1F87 PUSH0 DUP4 ADD DUP6 PUSH2 0x1F65 JUMP JUMPDEST PUSH2 0x1F94 PUSH1 0x20 DUP4 ADD DUP5 PUSH2 0x1F65 JUMP JUMPDEST SWAP4 SWAP3 POP POP POP JUMP JUMPDEST PUSH0 PUSH0 REVERT JUMPDEST PUSH0 PUSH0 REVERT JUMPDEST PUSH2 0x1FAC DUP2 PUSH2 0x1F5C JUMP JUMPDEST DUP2 EQ PUSH2 0x1FB6 JUMPI PUSH0 PUSH0 REVERT JUMPDEST POP JUMP JUMPDEST PUSH0 DUP2 CALLDATALOAD SWAP1 POP PUSH2 0x1FC7 DUP2 PUSH2 0x1FA3 JUMP JUMPDEST SWAP3 SWAP2 POP POP JUMP JUMPDEST PUSH0 PUSH0 REVERT JUMPDEST PUSH0 PUSH0 REVERT JUMPDEST PUSH0 PUSH0 REVERT JUMPDEST PUSH0 PUSH0 DUP4 PUSH1 0x1F DUP5 ADD SLT PUSH2 0x1FEE JUMPI PUSH2 0x1FED PUSH2 0x1FCD JUMP JUMPDEST JUMPDEST DUP3 CALLDATALOAD SWAP1 POP PUSH8 0xFFFFFFFFFFFFFFFF DUP2 GT ISZERO PUSH2 0x200B JUMPI PUSH2 0x200A PUSH2 0x1FD1 JUMP JUMPDEST JUMPDEST PUSH1 0x20 DUP4 ADD SWAP2 POP DUP4 PUSH1 0x1 DUP3 MUL DUP4 ADD GT ISZERO PUSH2 0x2027 JUMPI PUSH2 0x2026 PUSH2 0x1FD5 JUMP JUMPDEST JUMPDEST SWAP3 POP SWAP3 SWAP1 POP JUMP JUMPDEST PUSH0 PUSH0 PUSH0 PUSH0 PUSH1 0x60 DUP6 DUP8 SUB SLT ISZERO PUSH2 0x2046 JUMPI PUSH2 0x2045 PUSH2 0x1F9B JUMP JUMPDEST JUMPDEST PUSH0 PUSH2 0x2053 DUP8 DUP3 DUP9 ADD PUSH2 0x1FB9 JUMP JUMPDEST SWAP5 POP POP PUSH1 0x20 PUSH2 0x2064 DUP8 DUP3 DUP9 ADD PUSH2 0x1FB9 JUMP JUMPDEST SWAP4 POP POP PUSH1 0x40 DUP6 ADD CALLDATALOAD PUSH8 0xFFFFFFFFFFFFFFFF DUP2 GT ISZERO PUSH2 0x2085 JUMPI PUSH2 0x2084 PUSH2 0x1F9F JUMP JUMPDEST JUMPDEST PUSH2 0x2091 DUP8 DUP3 DUP9 ADD PUSH2 0x1FD9 JUMP JUMPDEST SWAP3 POP SWAP3 POP POP SWAP3 SWAP6 SWAP2 SWAP5 POP SWAP3 POP JUMP JUMPDEST PUSH0 DUP2 SWAP1 POP SWAP2 SWAP1 POP JUMP JUMPDEST PUSH2 0x20B1 DUP2 PUSH2 0x209F JUMP JUMPDEST DUP2 EQ PUSH2 0x20BB JUMPI PUSH0 PUSH0 REVERT JUMPDEST POP JUMP JUMPDEST PUSH0 DUP2 CALLDATALOAD SWAP1 POP PUSH2 0x20CC DUP2 PUSH2 0x20A8 JUMP JUMPDEST SWAP3 SWAP2 POP POP JUMP JUMPDEST PUSH0 PUSH0 PUSH0 PUSH0 PUSH1 0x60 DUP6 DUP8 SUB SLT ISZERO PUSH2 0x20EA JUMPI PUSH2 0x20E9 PUSH2 0x1F9B JUMP JUMPDEST JUMPDEST PUSH0 PUSH2 0x20F7 DUP8 DUP3 DUP9 ADD PUSH2 0x20BE JUMP JUMPDEST SWAP5 POP POP PUSH1 0x20 PUSH2 0x2108 DUP8 DUP3 DUP9 ADD PUSH2 0x20BE JUMP JUMPDEST SWAP4 POP POP PUSH1 0x40 DUP6 ADD CALLDATALOAD PUSH8 0xFFFFFFFFFFFFFFFF DUP2 GT ISZERO PUSH2 0x2129 JUMPI PUSH2 0x2128 PUSH2 0x1F9F JUMP JUMPDEST JUMPDEST PUSH2 0x2135 DUP8 DUP3 DUP9 ADD PUSH2 0x1FD9 JUMP JUMPDEST SWAP3 POP SWAP3 POP POP SWAP3 SWAP6 SWAP2 SWAP5 POP SWAP3 POP JUMP JUMPDEST PUSH0 DUP2 SWAP1 POP SWAP2 SWAP1 POP JUMP JUMPDEST PUSH0 PUSH2 0x2166 PUSH2 0x2161 PUSH2 0x215C DUP5 PUSH2 0x2143 JUMP JUMPDEST PUSH2 0x1EAF JUMP JUMPDEST PUSH2 0x1F5C JUMP JUMPDEST SWAP1 POP SWAP2 SWAP1 POP JUMP JUMPDEST PUSH2 0x2176 DUP2 PUSH2 0x214C JUMP JUMPDEST DUP3 MSTORE POP POP JUMP JUMPDEST PUSH0 DUP3 DUP3 MSTORE PUSH1 0x20 DUP3 ADD SWAP1 POP SWAP3 SWAP2 POP POP JUMP JUMPDEST PUSH32 0x4554480000000000000000000000000000000000000000000000000000000000 PUSH0 DUP3 ADD MSTORE POP JUMP JUMPDEST PUSH0 PUSH2 0x21C0 PUSH1 0x3 DUP4 PUSH2 0x217C JUMP JUMPDEST SWAP2 POP PUSH2 0x21CB DUP3 PUSH2 0x218C JUMP JUMPDEST PUSH1 0x20 DUP3 ADD SWAP1 POP SWAP2 SWAP1 POP JUMP JUMPDEST PUSH32 0x7765746800000000000000000000000000000000000000000000000000000000 PUSH0 DUP3 ADD MSTORE POP JUMP JUMPDEST PUSH0 PUSH2 0x220A PUSH1 0x4 DUP4 PUSH2 0x217C JUMP JUMPDEST SWAP2 POP PUSH2 0x2215 DUP3 PUSH2 0x21D6 JUMP JUMPDEST PUSH1 0x20 DUP3 ADD SWAP1 POP SWAP2 SWAP1 POP JUMP JUMPDEST PUSH0 PUSH1 0x60 DUP3 ADD SWAP1 POP PUSH2 0x2233 PUSH0 DUP4 ADD DUP5 PUSH2 0x216D JUMP JUMPDEST DUP2 DUP2 SUB PUSH1 0x20 DUP4 ADD MSTORE PUSH2 0x2244 DUP2 PUSH2 0x21B4 JUMP JUMPDEST SWAP1 POP DUP2 DUP2 SUB PUSH1 0x40 DUP4 ADD MSTORE PUSH2 0x2257 DUP2 PUSH2 0x21FE JUMP JUMPDEST SWAP1 POP SWAP3 SWAP2 POP POP JUMP JUMPDEST PUSH32 0x5553445400000000000000000000000000000000000000000000000000000000 PUSH0 DUP3 ADD MSTORE POP JUMP JUMPDEST PUSH0 PUSH2 0x2293 PUSH1 0x4 DUP4 PUSH2 0x217C JUMP JUMPDEST SWAP2 POP PUSH2 0x229E DUP3 PUSH2 0x225F JUMP JUMPDEST PUSH1 0x20 DUP3 ADD SWAP1 POP SWAP2 SWAP1 POP JUMP JUMPDEST PUSH32 0x7573647400000000000000000000000000000000000000000000000000000000 PUSH0 DUP3 ADD MSTORE POP JUMP JUMPDEST PUSH0 PUSH2 0x22DD PUSH1 0x4 DUP4 PUSH2 0x217C JUMP JUMPDEST SWAP2 POP PUSH2 0x22E8 DUP3 PUSH2 0x22A9 JUMP JUMPDEST PUSH1 0x20 DUP3 ADD SWAP1 POP SWAP2 SWAP1 POP JUMP JUMPDEST PUSH0 PUSH1 0x60 DUP3 ADD SWAP1 POP PUSH2 0x2306 PUSH0 DUP4 ADD DUP5 PUSH2 0x216D JUMP JUMPDEST DUP2 DUP2 SUB PUSH1 0x20 DUP4 ADD MSTORE PUSH2 0x2317 DUP2 PUSH2 0x2287 JUMP JUMPDEST SWAP1 POP DUP2 DUP2 SUB PUSH1 0x40 DUP4 ADD MSTORE PUSH2 0x232A DUP2 PUSH2 0x22D1 JUMP JUMPDEST SWAP1 POP SWAP3 SWAP2 POP POP JUMP JUMPDEST PUSH0 PUSH2 0x233C DUP3 PUSH2 0x1E90 JUMP JUMPDEST SWAP1 POP SWAP2 SWAP1 POP JUMP JUMPDEST PUSH2 0x234C DUP2 PUSH2 0x2332 JUMP JUMPDEST DUP3 MSTORE POP POP JUMP JUMPDEST PUSH2 0x235B DUP2 PUSH2 0x1E90 JUMP JUMPDEST DUP3 MSTORE POP POP JUMP JUMPDEST PUSH0 DUP2 PUSH1 0x2 SIGNEXTEND SWAP1 POP SWAP2 SWAP1 POP JUMP JUMPDEST PUSH2 0x2376 DUP2 PUSH2 0x2361 JUMP JUMPDEST DUP3 MSTORE POP POP JUMP JUMPDEST PUSH0 PUSH1 0x80 DUP3 ADD SWAP1 POP PUSH2 0x238F PUSH0 DUP4 ADD DUP8 PUSH2 0x2343 JUMP JUMPDEST PUSH2 0x239C PUSH1 0x20 DUP4 ADD DUP7 PUSH2 0x2343 JUMP JUMPDEST PUSH2 0x23A9 PUSH1 0x40 DUP4 ADD DUP6 PUSH2 0x2352 JUMP JUMPDEST PUSH2 0x23B6 PUSH1 0x60 DUP4 ADD DUP5 PUSH2 0x236D JUMP JUMPDEST SWAP6 SWAP5 POP POP POP POP POP JUMP JUMPDEST PUSH0 PUSH1 0x20 DUP3 ADD SWAP1 POP PUSH2 0x23D2 PUSH0 DUP4 ADD DUP5 PUSH2 0x2343 JUMP JUMPDEST SWAP3 SWAP2 POP POP JUMP JUMPDEST PUSH0 DUP2 MLOAD SWAP1 POP PUSH2 0x23E6 DUP2 PUSH2 0x1FA3 JUMP JUMPDEST SWAP3 SWAP2 POP POP JUMP JUMPDEST PUSH0 PUSH1 0x20 DUP3 DUP5 SUB SLT ISZERO PUSH2 0x2401 JUMPI PUSH2 0x2400 PUSH2 0x1F9B JUMP JUMPDEST JUMPDEST PUSH0 PUSH2 0x240E DUP5 DUP3 DUP6 ADD PUSH2 0x23D8 JUMP JUMPDEST SWAP2 POP POP SWAP3 SWAP2 POP POP JUMP JUMPDEST PUSH0 PUSH16 0xFFFFFFFFFFFFFFFFFFFFFFFFFFFFFFFF DUP3 AND SWAP1 POP SWAP2 SWAP1 POP JUMP JUMPDEST PUSH2 0x243B DUP2 PUSH2 0x2417 JUMP JUMPDEST DUP3 MSTORE POP POP JUMP JUMPDEST PUSH0 DUP3 DUP3 MSTORE PUSH1 0x20 DUP3 ADD SWAP1 POP SWAP3 SWAP2 POP POP JUMP JUMPDEST POP JUMP JUMPDEST PUSH0 PUSH2 0x245F PUSH0 DUP4 PUSH2 0x2441 JUMP JUMPDEST SWAP2 POP PUSH2 0x246A DUP3 PUSH2 0x2451 JUMP JUMPDEST PUSH0 DUP3 ADD SWAP1 POP SWAP2 SWAP1 POP JUMP JUMPDEST PUSH0 PUSH1 0xA0 DUP3 ADD SWAP1 POP PUSH2 0x2487 PUSH0 DUP4 ADD DUP8 PUSH2 0x2343 JUMP JUMPDEST PUSH2 0x2494 PUSH1 0x20 DUP4 ADD DUP7 PUSH2 0x236D JUMP JUMPDEST PUSH2 0x24A1 PUSH1 0x40 DUP4 ADD DUP6 PUSH2 0x236D JUMP JUMPDEST PUSH2 0x24AE PUSH1 0x60 DUP4 ADD DUP5 PUSH2 0x2432 JUMP JUMPDEST DUP2 DUP2 SUB PUSH1 0x80 DUP4 ADD MSTORE PUSH2 0x24BF DUP2 PUSH2 0x2454 JUMP JUMPDEST SWAP1 POP SWAP6 SWAP5 POP POP POP POP POP JUMP JUMPDEST PUSH0 PUSH0 PUSH1 0x40 DUP4 DUP6 SUB SLT ISZERO PUSH2 0x24E0 JUMPI PUSH2 0x24DF PUSH2 0x1F9B JUMP JUMPDEST JUMPDEST PUSH0 PUSH2 0x24ED DUP6 DUP3 DUP7 ADD PUSH2 0x23D8 JUMP JUMPDEST SWAP3 POP POP PUSH1 0x20 PUSH2 0x24FE DUP6 DUP3 DUP7 ADD PUSH2 0x23D8 JUMP JUMPDEST SWAP2 POP POP SWAP3 POP SWAP3 SWAP1 POP JUMP JUMPDEST PUSH0 DUP2 ISZERO ISZERO SWAP1 POP SWAP2 SWAP1 POP JUMP JUMPDEST PUSH2 0x251C DUP2 PUSH2 0x2508 JUMP JUMPDEST DUP3 MSTORE POP POP JUMP JUMPDEST PUSH0 DUP3 DUP3 MSTORE PUSH1 0x20 DUP3 ADD SWAP1 POP SWAP3 SWAP2 POP POP JUMP JUMPDEST PUSH32 0xE993B8E980A0E5908E20657263302062616C616E63652069732077726F6E6700 PUSH0 DUP3 ADD MSTORE POP JUMP JUMPDEST PUSH0 PUSH2 0x2566 PUSH1 0x1F DUP4 PUSH2 0x2522 JUMP JUMPDEST SWAP2 POP PUSH2 0x2571 DUP3 PUSH2 0x2532 JUMP JUMPDEST PUSH1 0x20 DUP3 ADD SWAP1 POP SWAP2 SWAP1 POP JUMP JUMPDEST PUSH0 PUSH1 0x40 DUP3 ADD SWAP1 POP PUSH2 0x258F PUSH0 DUP4 ADD DUP5 PUSH2 0x2513 JUMP JUMPDEST DUP2 DUP2 SUB PUSH1 0x20 DUP4 ADD MSTORE PUSH2 0x25A0 DUP2 PUSH2 0x255A JUMP JUMPDEST SWAP1 POP SWAP3 SWAP2 POP POP JUMP JUMPDEST PUSH2 0x25B1 DUP2 PUSH2 0x2508 JUMP JUMPDEST DUP2 EQ PUSH2 0x25BB JUMPI PUSH0 PUSH0 REVERT JUMPDEST POP JUMP JUMPDEST PUSH0 DUP2 MLOAD SWAP1 POP PUSH2 0x25CC DUP2 PUSH2 0x25A8 JUMP JUMPDEST SWAP3 SWAP2 POP POP JUMP JUMPDEST PUSH0 PUSH1 0x20 DUP3 DUP5 SUB SLT ISZERO PUSH2 0x25E7 JUMPI PUSH2 0x25E6 PUSH2 0x1F9B JUMP JUMPDEST JUMPDEST PUSH0 PUSH2 0x25F4 DUP5 DUP3 DUP6 ADD PUSH2 0x25BE JUMP JUMPDEST SWAP2 POP POP SWAP3 SWAP2 POP POP JUMP JUMPDEST PUSH32 0xE993B8E980A0E5908E20657263312062616C616E63652069732077726F6E6700 PUSH0 DUP3 ADD MSTORE POP JUMP JUMPDEST PUSH0 PUSH2 0x2631 PUSH1 0x1F DUP4 PUSH2 0x2522 JUMP JUMPDEST SWAP2 POP PUSH2 0x263C DUP3 PUSH2 0x25FD JUMP JUMPDEST PUSH1 0x20 DUP3 ADD SWAP1 POP SWAP2 SWAP1 POP JUMP JUMPDEST PUSH0 PUSH1 0x40 DUP3 ADD SWAP1 POP PUSH2 0x265A PUSH0 DUP4 ADD DUP5 PUSH2 0x2513 JUMP JUMPDEST DUP2 DUP2 SUB PUSH1 0x20 DUP4 ADD MSTORE PUSH2 0x266B DUP2 PUSH2 0x2625 JUMP JUMPDEST SWAP1 POP SWAP3 SWAP2 POP POP JUMP JUMPDEST PUSH0 DUP2 PUSH1 0x60 SHL SWAP1 POP SWAP2 SWAP1 POP JUMP JUMPDEST PUSH0 PUSH2 0x2689 DUP3 PUSH2 0x2673 JUMP JUMPDEST SWAP1 POP SWAP2 SWAP1 POP JUMP JUMPDEST PUSH0 PUSH2 0x269A DUP3 PUSH2 0x267F JUMP JUMPDEST SWAP1 POP SWAP2 SWAP1 POP JUMP JUMPDEST PUSH2 0x26B2 PUSH2 0x26AD DUP3 PUSH2 0x2332 JUMP JUMPDEST PUSH2 0x2690 JUMP JUMPDEST DUP3 MSTORE POP POP JUMP JUMPDEST PUSH0 DUP2 PUSH1 0xE8 SHL SWAP1 POP SWAP2 SWAP1 POP JUMP JUMPDEST PUSH0 PUSH2 0x26CE DUP3 PUSH2 0x26B8 JUMP JUMPDEST SWAP1 POP SWAP2 SWAP1 POP JUMP JUMPDEST PUSH2 0x26E6 PUSH2 0x26E1 DUP3 PUSH2 0x2361 JUMP JUMPDEST PUSH2 0x26C4 JUMP JUMPDEST DUP3 MSTORE POP POP JUMP JUMPDEST PUSH0 PUSH2 0x26F7 DUP3 DUP7 PUSH2 0x26A1 JUMP JUMPDEST PUSH1 0x14 DUP3 ADD SWAP2 POP PUSH2 0x2707 DUP3 DUP6 PUSH2 0x26D5 JUMP JUMPDEST PUSH1 0x3 DUP3 ADD SWAP2 POP PUSH2 0x2717 DUP3 DUP5 PUSH2 0x26D5 JUMP JUMPDEST PUSH1 0x3 DUP3 ADD SWAP2 POP DUP2 SWAP1 POP SWAP5 SWAP4 POP POP POP POP JUMP JUMPDEST PUSH0 DUP2 SWAP1 POP SWAP2 SWAP1 POP JUMP JUMPDEST PUSH2 0x273A DUP2 PUSH2 0x2728 JUMP JUMPDEST DUP3 MSTORE POP POP JUMP JUMPDEST PUSH0 PUSH1 0x20 DUP3 ADD SWAP1 POP PUSH2 0x2753 PUSH0 DUP4 ADD DUP5 PUSH2 0x2731 JUMP JUMPDEST SWAP3 SWAP2 POP POP JUMP JUMPDEST PUSH2 0x2762 DUP2 PUSH2 0x2417 JUMP JUMPDEST DUP2 EQ PUSH2 0x276C JUMPI PUSH0 PUSH0 REVERT JUMPDEST POP JUMP JUMPDEST PUSH0 DUP2 MLOAD SWAP1 POP PUSH2 0x277D DUP2 PUSH2 0x2759 JUMP JUMPDEST SWAP3 SWAP2 POP POP JUMP JUMPDEST PUSH0 PUSH1 0x20 DUP3 DUP5 SUB SLT ISZERO PUSH2 0x2798 JUMPI PUSH2 0x2797 PUSH2 0x1F9B JUMP JUMPDEST JUMPDEST PUSH0 PUSH2 0x27A5 DUP5 DUP3 DUP6 ADD PUSH2 0x276F JUMP JUMPDEST SWAP2 POP POP SWAP3 SWAP2 POP POP JUMP JUMPDEST PUSH0 PUSH2 0x27C8 PUSH2 0x27C3 PUSH2 0x27BE DUP5 PUSH2 0x2417 JUMP JUMPDEST PUSH2 0x1EAF JUMP JUMPDEST PUSH2 0x1F5C JUMP JUMPDEST SWAP1 POP SWAP2 SWAP1 POP JUMP JUMPDEST PUSH2 0x27D8 DUP2 PUSH2 0x27AE JUMP JUMPDEST DUP3 MSTORE POP POP JUMP JUMPDEST PUSH0 PUSH1 0x60 DUP3 ADD SWAP1 POP PUSH2 0x27F1 PUSH0 DUP4 ADD DUP6 PUSH2 0x27CF JUMP JUMPDEST PUSH2 0x27FE PUSH1 0x20 DUP4 ADD DUP5 PUSH2 0x27CF JUMP JUMPDEST DUP2 DUP2 SUB PUSH1 0x40 DUP4 ADD MSTORE PUSH2 0x280F DUP2 PUSH2 0x255A JUMP JUMPDEST SWAP1 POP SWAP4 SWAP3 POP POP POP JUMP JUMPDEST PUSH2 0x2821 DUP2 PUSH2 0x1E90 JUMP JUMPDEST DUP2 EQ PUSH2 0x282B JUMPI PUSH0 PUSH0 REVERT JUMPDEST POP JUMP JUMPDEST PUSH0 DUP2 MLOAD SWAP1 POP PUSH2 0x283C DUP2 PUSH2 0x2818 JUMP JUMPDEST SWAP3 SWAP2 POP POP JUMP JUMPDEST PUSH2 0x284B DUP2 PUSH2 0x2361 JUMP JUMPDEST DUP2 EQ PUSH2 0x2855 JUMPI PUSH0 PUSH0 REVERT JUMPDEST POP JUMP JUMPDEST PUSH0 DUP2 MLOAD SWAP1 POP PUSH2 0x2866 DUP2 PUSH2 0x2842 JUMP JUMPDEST SWAP3 SWAP2 POP POP JUMP JUMPDEST PUSH0 PUSH0 PUSH1 0x40 DUP4 DUP6 SUB SLT ISZERO PUSH2 0x2882 JUMPI PUSH2 0x2881 PUSH2 0x1F9B JUMP JUMPDEST JUMPDEST PUSH0 PUSH2 0x288F DUP6 DUP3 DUP7 ADD PUSH2 0x282E JUMP JUMPDEST SWAP3 POP POP PUSH1 0x20 PUSH2 0x28A0 DUP6 DUP3 DUP7 ADD PUSH2 0x2858 JUMP JUMPDEST SWAP2 POP POP SWAP3 POP SWAP3 SWAP1 POP JUMP JUMPDEST PUSH0 PUSH2 0x28C4 PUSH2 0x28BF PUSH2 0x28BA DUP5 PUSH2 0x1E90 JUMP JUMPDEST PUSH2 0x1EAF JUMP JUMPDEST PUSH2 0x1F5C JUMP JUMPDEST SWAP1 POP SWAP2 SWAP1 POP JUMP JUMPDEST PUSH2 0x28D4 DUP2 PUSH2 0x28AA JUMP JUMPDEST DUP3 MSTORE POP POP JUMP JUMPDEST PUSH0 DUP2 SWAP1 POP SWAP2 SWAP1 POP JUMP JUMPDEST PUSH0 PUSH2 0x28FD PUSH2 0x28F8 PUSH2 0x28F3 DUP5 PUSH2 0x28DA JUMP JUMPDEST PUSH2 0x1EAF JUMP JUMPDEST PUSH2 0x1F5C JUMP JUMPDEST SWAP1 POP SWAP2 SWAP1 POP JUMP JUMPDEST PUSH2 0x290D DUP2 PUSH2 0x28E3 JUMP JUMPDEST DUP3 MSTORE POP POP JUMP JUMPDEST PUSH32 0x73717274207072696365205839362069732077726F6E67000000000000000000 PUSH0 DUP3 ADD MSTORE POP JUMP JUMPDEST PUSH0 PUSH2 0x2947 PUSH1 0x17 DUP4 PUSH2 0x2522 JUMP JUMPDEST SWAP2 POP PUSH2 0x2952 DUP3 PUSH2 0x2913 JUMP JUMPDEST PUSH1 0x20 DUP3 ADD SWAP1 POP SWAP2 SWAP1 POP JUMP JUMPDEST PUSH0 PUSH1 0x60 DUP3 ADD SWAP1 POP PUSH2 0x2970 PUSH0 DUP4 ADD DUP6 PUSH2 0x28CB JUMP JUMPDEST PUSH2 0x297D PUSH1 0x20 DUP4 ADD DUP5 PUSH2 0x2904 JUMP JUMPDEST DUP2 DUP2 SUB PUSH1 0x40 DUP4 ADD MSTORE PUSH2 0x298E DUP2 PUSH2 0x293B JUMP JUMPDEST SWAP1 POP SWAP4 SWAP3 POP POP POP JUMP JUMPDEST PUSH0 PUSH2 0x29B1 PUSH2 0x29AC PUSH2 0x29A7 DUP5 PUSH2 0x2361 JUMP JUMPDEST PUSH2 0x1EAF JUMP JUMPDEST PUSH2 0x209F JUMP JUMPDEST SWAP1 POP SWAP2 SWAP1 POP JUMP JUMPDEST PUSH2 0x29C1 DUP2 PUSH2 0x2997 JUMP JUMPDEST DUP3 MSTORE POP POP JUMP JUMPDEST PUSH0 DUP2 SWAP1 POP SWAP2 SWAP1 POP JUMP JUMPDEST PUSH0 PUSH2 0x29EA PUSH2 0x29E5 PUSH2 0x29E0 DUP5 PUSH2 0x29C7 JUMP JUMPDEST PUSH2 0x1EAF JUMP JUMPDEST PUSH2 0x209F JUMP JUMPDEST SWAP1 POP SWAP2 SWAP1 POP JUMP JUMPDEST PUSH2 0x29FA DUP2 PUSH2 0x29D0 JUMP JUMPDEST DUP3 MSTORE POP POP JUMP JUMPDEST PUSH32 0x7469636B2069732077726F6E6700000000000000000000000000000000000000 PUSH0 DUP3 ADD MSTORE POP JUMP JUMPDEST PUSH0 PUSH2 0x2A34 PUSH1 0xD DUP4 PUSH2 0x2522 JUMP JUMPDEST SWAP2 POP PUSH2 0x2A3F DUP3 PUSH2 0x2A00 JUMP JUMPDEST PUSH1 0x20 DUP3 ADD SWAP1 POP SWAP2 SWAP1 POP JUMP JUMPDEST PUSH0 PUSH1 0x60 DUP3 ADD SWAP1 POP PUSH2 0x2A5D PUSH0 DUP4 ADD DUP6 PUSH2 0x29B8 JUMP JUMPDEST PUSH2 0x2A6A PUSH1 0x20 DUP4 ADD DUP5 PUSH2 0x29F1 JUMP JUMPDEST DUP2 DUP2 SUB PUSH1 0x40 DUP4 ADD MSTORE PUSH2 0x2A7B DUP2 PUSH2 0x2A28 JUMP JUMPDEST SWAP1 POP SWAP4 SWAP3 POP POP POP JUMP JUMPDEST PUSH0 PUSH1 0x40 DUP3 ADD SWAP1 POP PUSH2 0x2A97 PUSH0 DUP4 ADD DUP5 PUSH2 0x2343 JUMP JUMPDEST DUP2 DUP2 SUB PUSH1 0x20 DUP4 ADD MSTORE PUSH2 0x2AA8 DUP2 PUSH2 0x2454 JUMP JUMPDEST SWAP1 POP SWAP3 SWAP2 POP POP JUMP JUMPDEST PUSH0 DUP2 MLOAD SWAP1 POP PUSH2 0x2ABE DUP2 PUSH2 0x20A8 JUMP JUMPDEST SWAP3 SWAP2 POP POP JUMP JUMPDEST PUSH0 PUSH0 PUSH1 0x40 DUP4 DUP6 SUB SLT ISZERO PUSH2 0x2ADA JUMPI PUSH2 0x2AD9 PUSH2 0x1F9B JUMP JUMPDEST JUMPDEST PUSH0 PUSH2 0x2AE7 DUP6 DUP3 DUP7 ADD PUSH2 0x2AB0 JUMP JUMPDEST SWAP3 POP POP PUSH1 0x20 PUSH2 0x2AF8 DUP6 DUP3 DUP7 ADD PUSH2 0x2AB0 JUMP JUMPDEST SWAP2 POP POP SWAP3 POP SWAP3 SWAP1 POP JUMP JUMPDEST PUSH2 0x2B0B DUP2 PUSH2 0x209F JUMP JUMPDEST DUP3 MSTORE POP POP JUMP JUMPDEST PUSH0 DUP2 SWAP1 POP SWAP2 SWAP1 POP JUMP JUMPDEST PUSH0 PUSH2 0x2B34 PUSH2 0x2B2F PUSH2 0x2B2A DUP5 PUSH2 0x2B11 JUMP JUMPDEST PUSH2 0x1EAF JUMP JUMPDEST PUSH2 0x209F JUMP JUMPDEST SWAP1 POP SWAP2 SWAP1 POP JUMP JUMPDEST PUSH2 0x2B44 DUP2 PUSH2 0x2B1A JUMP JUMPDEST DUP3 MSTORE POP POP JUMP JUMPDEST PUSH32 0x696E76616C696420455448206F75740000000000000000000000000000000000 PUSH0 DUP3 ADD MSTORE POP JUMP JUMPDEST PUSH0 PUSH2 0x2B7E PUSH1 0xF DUP4 PUSH2 0x2522 JUMP JUMPDEST SWAP2 POP PUSH2 0x2B89 DUP3 PUSH2 0x2B4A JUMP JUMPDEST PUSH1 0x20 DUP3 ADD SWAP1 POP SWAP2 SWAP1 POP JUMP JUMPDEST PUSH0 PUSH1 0x60 DUP3 ADD SWAP1 POP PUSH2 0x2BA7 PUSH0 DUP4 ADD DUP6 PUSH2 0x2B02 JUMP JUMPDEST PUSH2 0x2BB4 PUSH1 0x20 DUP4 ADD DUP5 PUSH2 0x2B3B JUMP JUMPDEST DUP2 DUP2 SUB PUSH1 0x40 DUP4 ADD MSTORE PUSH2 0x2BC5 DUP2 PUSH2 0x2B72 JUMP JUMPDEST SWAP1 POP SWAP4 SWAP3 POP POP POP JUMP JUMPDEST PUSH0 DUP2 SWAP1 POP SWAP2 SWAP1 POP JUMP JUMPDEST PUSH0 PUSH2 0x2BF1 PUSH2 0x2BEC PUSH2 0x2BE7 DUP5 PUSH2 0x2BCE JUMP JUMPDEST PUSH2 0x1EAF JUMP JUMPDEST PUSH2 0x209F JUMP JUMPDEST SWAP1 POP SWAP2 SWAP1 POP JUMP JUMPDEST PUSH2 0x2C01 DUP2 PUSH2 0x2BD7 JUMP JUMPDEST DUP3 MSTORE POP POP JUMP JUMPDEST PUSH32 0x696E76616C6964205553444320696E0000000000000000000000000000000000 PUSH0 DUP3 ADD MSTORE POP JUMP JUMPDEST PUSH0 PUSH2 0x2C3B PUSH1 0xF DUP4 PUSH2 0x2522 JUMP JUMPDEST SWAP2 POP PUSH2 0x2C46 DUP3 PUSH2 0x2C07 JUMP JUMPDEST PUSH1 0x20 DUP3 ADD SWAP1 POP SWAP2 SWAP1 POP JUMP JUMPDEST PUSH0 PUSH1 0x60 DUP3 ADD SWAP1 POP PUSH2 0x2C64 PUSH0 DUP4 ADD DUP6 PUSH2 0x2B02 JUMP JUMPDEST PUSH2 0x2C71 PUSH1 0x20 DUP4 ADD DUP5 PUSH2 0x2BF8 JUMP JUMPDEST DUP2 DUP2 SUB PUSH1 0x40 DUP4 ADD MSTORE PUSH2 0x2C82 DUP2 PUSH2 0x2C2F JUMP JUMPDEST SWAP1 POP SWAP4 SWAP3 POP POP POP JUMP JUMPDEST PUSH32 0x4E487B7100000000000000000000000000000000000000000000000000000000 PUSH0 MSTORE PUSH1 0x11 PUSH1 0x4 MSTORE PUSH1 0x24 PUSH0 REVERT JUMPDEST PUSH0 PUSH2 0x2CC2 DUP3 PUSH2 0x209F JUMP JUMPDEST SWAP2 POP PUSH2 0x2CCD DUP4 PUSH2 0x209F JUMP JUMPDEST SWAP3 POP DUP3 DUP3 ADD SWAP1 POP DUP3 DUP2 SLT ISZERO PUSH0 DUP4 SLT AND DUP4 DUP3 SLT PUSH0 DUP5 SLT ISZERO AND OR ISZERO PUSH2 0x2CF3 JUMPI PUSH2 0x2CF2 PUSH2 0x2C8B JUMP JUMPDEST JUMPDEST SWAP3 SWAP2 POP POP JUMP JUMPDEST PUSH2 0x2D02 DUP2 PUSH2 0x1F5C JUMP JUMPDEST DUP3 MSTORE POP POP JUMP JUMPDEST PUSH32 0x696E76616C696420706F6F6C204554482062616C616E63650000000000000000 PUSH0 DUP3 ADD MSTORE POP JUMP JUMPDEST PUSH0 PUSH2 0x2D3C PUSH1 0x18 DUP4 PUSH2 0x2522 JUMP JUMPDEST SWAP2 POP PUSH2 0x2D47 DUP3 PUSH2 0x2D08 JUMP JUMPDEST PUSH1 0x20 DUP3 ADD SWAP1 POP SWAP2 SWAP1 POP JUMP JUMPDEST PUSH0 PUSH1 0x60 DUP3 ADD SWAP1 POP PUSH2 0x2D65 PUSH0 DUP4 ADD DUP6 PUSH2 0x2CF9 JUMP JUMPDEST PUSH2 0x2D72 PUSH1 0x20 DUP4 ADD DUP5 PUSH2 0x2CF9 JUMP JUMPDEST DUP2 DUP2 SUB PUSH1 0x40 DUP4 ADD MSTORE PUSH2 0x2D83 DUP2 PUSH2 0x2D30 JUMP JUMPDEST SWAP1 POP SWAP4 SWAP3 POP POP POP JUMP JUMPDEST PUSH32 0x696E76616C696420706F6F6C20555344432062616C616E636500000000000000 PUSH0 DUP3 ADD MSTORE POP JUMP JUMPDEST PUSH0 PUSH2 0x2DC0 PUSH1 0x19 DUP4 PUSH2 0x2522 JUMP JUMPDEST SWAP2 POP PUSH2 0x2DCB DUP3 PUSH2 0x2D8C JUMP JUMPDEST PUSH1 0x20 DUP3 ADD SWAP1 POP SWAP2 SWAP1 POP JUMP JUMPDEST PUSH0 PUSH1 0x60 DUP3 ADD SWAP1 POP PUSH2 0x2DE9 PUSH0 DUP4 ADD DUP6 PUSH2 0x2CF9 JUMP JUMPDEST PUSH2 0x2DF6 PUSH1 0x20 DUP4 ADD DUP5 PUSH2 0x2CF9 JUMP JUMPDEST DUP2 DUP2 SUB PUSH1 0x40 DUP4 ADD MSTORE PUSH2 0x2E07 DUP2 PUSH2 0x2DB4 JUMP JUMPDEST SWAP1 POP SWAP4 SWAP3 POP POP POP JUMP JUMPDEST PUSH0 PUSH1 0x40 DUP3 ADD SWAP1 POP PUSH2 0x2E23 PUSH0 DUP4 ADD DUP6 PUSH2 0x2343 JUMP JUMPDEST PUSH2 0x2E30 PUSH1 0x20 DUP4 ADD DUP5 PUSH2 0x1F65 JUMP JUMPDEST SWAP4 SWAP3 POP POP POP JUMP JUMPDEST PUSH0 DUP2 MLOAD SWAP1 POP SWAP2 SWAP1 POP JUMP JUMPDEST DUP3 DUP2 DUP4 MCOPY PUSH0 DUP4 DUP4 ADD MSTORE POP POP POP JUMP JUMPDEST PUSH0 PUSH1 0x1F NOT PUSH1 0x1F DUP4 ADD AND SWAP1 POP SWAP2 SWAP1 POP JUMP JUMPDEST PUSH0 PUSH2 0x2E69 DUP3 PUSH2 0x2E37 JUMP JUMPDEST PUSH2 0x2E73 DUP2 DUP6 PUSH2 0x217C JUMP JUMPDEST SWAP4 POP PUSH2 0x2E83 DUP2 DUP6 PUSH1 0x20 DUP7 ADD PUSH2 0x2E41 JUMP JUMPDEST PUSH2 0x2E8C DUP2 PUSH2 0x2E4F JUMP JUMPDEST DUP5 ADD SWAP2 POP POP SWAP3 SWAP2 POP POP JUMP JUMPDEST PUSH0 PUSH1 0x20 DUP3 ADD SWAP1 POP DUP2 DUP2 SUB PUSH0 DUP4 ADD MSTORE PUSH2 0x2EAF DUP2 DUP5 PUSH2 0x2E5F JUMP JUMPDEST SWAP1 POP SWAP3 SWAP2 POP POP JUMP JUMPDEST PUSH0 PUSH1 0x40 DUP3 ADD SWAP1 POP DUP2 DUP2 SUB PUSH0 DUP4 ADD MSTORE PUSH2 0x2ECF DUP2 DUP6 PUSH2 0x2E5F JUMP JUMPDEST SWAP1 POP PUSH2 0x2EDE PUSH1 0x20 DUP4 ADD DUP5 PUSH2 0x1F65 JUMP JUMPDEST SWAP4 SWAP3 POP POP POP JUMP JUMPDEST PUSH32 0x4E487B7100000000000000000000000000000000000000000000000000000000 PUSH0 MSTORE PUSH1 0x51 PUSH1 0x4 MSTORE PUSH1 0x24 PUSH0 REVERT INVALID PUSH1 0x80 PUSH1 0x40 MSTORE PUSH1 0x12 PUSH1 0x2 PUSH0 PUSH2 0x100 EXP DUP2 SLOAD DUP2 PUSH1 0xFF MUL NOT AND SWAP1 DUP4 PUSH1 0xFF AND MUL OR SWAP1 SSTORE POP CALLVALUE DUP1 ISZERO PUSH2 0x2A JUMPI PUSH0 PUSH0 REVERT JUMPDEST POP PUSH1 0x40 MLOAD PUSH2 0x14EA CODESIZE SUB DUP1 PUSH2 0x14EA DUP4 CODECOPY DUP2 DUP2 ADD PUSH1 0x40 MSTORE DUP2 ADD SWAP1 PUSH2 0x4C SWAP2 SWAP1 PUSH2 0x2A1 JUMP JUMPDEST DUP3 PUSH1 0x3 DUP2 SWAP1 SSTORE POP DUP3 PUSH1 0x4 PUSH0 CALLER PUSH20 0xFFFFFFFFFFFFFFFFFFFFFFFFFFFFFFFFFFFFFFFF AND PUSH20 0xFFFFFFFFFFFFFFFFFFFFFFFFFFFFFFFFFFFFFFFF AND DUP2 MSTORE PUSH1 0x20 ADD SWAP1 DUP2 MSTORE PUSH1 0x20 ADD PUSH0 KECCAK256 DUP2 SWAP1 SSTORE POP DUP2 PUSH0 SWAP1 DUP2 PUSH2 0xA3 SWAP2 SWAP1 PUSH2 0x530 JUMP JUMPDEST POP DUP1 PUSH1 0x1 SWAP1 DUP2 PUSH2 0xB3 SWAP2 SWAP1 PUSH2 0x530 JUMP JUMPDEST POP CALLER PUSH20 0xFFFFFFFFFFFFFFFFFFFFFFFFFFFFFFFFFFFFFFFF AND PUSH0 PUSH20 0xFFFFFFFFFFFFFFFFFFFFFFFFFFFFFFFFFFFFFFFF AND PUSH32 0xDDF252AD1BE2C89B69C2B068FC378DAA952BA7F163C4A11628F55A4DF523B3EF DUP6 PUSH1 0x40 MLOAD PUSH2 0x111 SWAP2 SWAP1 PUSH2 0x60E JUMP JUMPDEST PUSH1 0x40 MLOAD DUP1 SWAP2 SUB SWAP1 LOG3 POP POP POP PUSH2 0x627 JUMP JUMPDEST PUSH0 PUSH1 0x40 MLOAD SWAP1 POP SWAP1 JUMP JUMPDEST PUSH0 PUSH0 REVERT JUMPDEST PUSH0 PUSH0 REVERT JUMPDEST PUSH0 DUP2 SWAP1 POP SWAP2 SWAP1 POP JUMP JUMPDEST PUSH2 0x144 DUP2 PUSH2 0x132 JUMP JUMPDEST DUP2 EQ PUSH2 0x14E JUMPI PUSH0 PUSH0 REVERT JUMPDEST POP JUMP JUMPDEST PUSH0 DUP2 MLOAD SWAP1 POP PUSH2 0x15F DUP2 PUSH2 0x13B JUMP JUMPDEST SWAP3 SWAP2 POP POP JUMP JUMPDEST PUSH0 PUSH0 REVERT JUMPDEST PUSH0 PUSH0 REVERT JUMPDEST PUSH0 PUSH1 0x1F NOT PUSH1 0x1F DUP4 ADD AND SWAP1 POP SWAP2 SWAP1 POP JUMP JUMPDEST PUSH32 0x4E487B7100000000000000000000000000000000000000000000000000000000 PUSH0 MSTORE PUSH1 0x41 PUSH1 0x4 MSTORE PUSH1 0x24 PUSH0 REVERT JUMPDEST PUSH2 0x1B3 DUP3 PUSH2 0x16D JUMP JUMPDEST DUP2 ADD DUP2 DUP2 LT PUSH8 0xFFFFFFFFFFFFFFFF DUP3 GT OR ISZERO PUSH2 0x1D2 JUMPI PUSH2 0x1D1 PUSH2 0x17D JUMP JUMPDEST JUMPDEST DUP1 PUSH1 0x40 MSTORE POP POP POP JUMP JUMPDEST PUSH0 PUSH2 0x1E4 PUSH2 0x121 JUMP JUMPDEST SWAP1 POP PUSH2 0x1F0 DUP3 DUP3 PUSH2 0x1AA JUMP JUMPDEST SWAP2 SWAP1 POP JUMP JUMPDEST PUSH0 PUSH8 0xFFFFFFFFFFFFFFFF DUP3 GT ISZERO PUSH2 0x20F JUMPI PUSH2 0x20E PUSH2 0x17D JUMP JUMPDEST JUMPDEST PUSH2 0x218 DUP3 PUSH2 0x16D JUMP JUMPDEST SWAP1 POP PUSH1 0x20 DUP2 ADD SWAP1 POP SWAP2 SWAP1 POP JUMP JUMPDEST DUP3 DUP2 DUP4 MCOPY PUSH0 DUP4 DUP4 ADD MSTORE POP POP POP JUMP JUMPDEST PUSH0 PUSH2 0x245 PUSH2 0x240 DUP5 PUSH2 0x1F5 JUMP JUMPDEST PUSH2 0x1DB JUMP JUMPDEST SWAP1 POP DUP3 DUP2 MSTORE PUSH1 0x20 DUP2 ADD DUP5 DUP5 DUP5 ADD GT ISZERO PUSH2 0x261 JUMPI PUSH2 0x260 PUSH2 0x169 JUMP JUMPDEST JUMPDEST PUSH2 0x26C DUP5 DUP3 DUP6 PUSH2 0x225 JUMP JUMPDEST POP SWAP4 SWAP3 POP POP POP JUMP JUMPDEST PUSH0 DUP3 PUSH1 0x1F DUP4 ADD SLT PUSH2 0x288 JUMPI PUSH2 0x287 PUSH2 0x165 JUMP JUMPDEST JUMPDEST DUP2 MLOAD PUSH2 0x298 DUP5 DUP3 PUSH1 0x20 DUP7 ADD PUSH2 0x233 JUMP JUMPDEST SWAP2 POP POP SWAP3 SWAP2 POP POP JUMP JUMPDEST PUSH0 PUSH0 PUSH0 PUSH1 0x60 DUP5 DUP7 SUB SLT ISZERO PUSH2 0x2B8 JUMPI PUSH2 0x2B7 PUSH2 0x12A JUMP JUMPDEST JUMPDEST PUSH0 PUSH2 0x2C5 DUP7 DUP3 DUP8 ADD PUSH2 0x151 JUMP JUMPDEST SWAP4 POP POP PUSH1 0x20 DUP5 ADD MLOAD PUSH8 0xFFFFFFFFFFFFFFFF DUP2 GT ISZERO PUSH2 0x2E6 JUMPI PUSH2 0x2E5 PUSH2 0x12E JUMP JUMPDEST JUMPDEST PUSH2 0x2F2 DUP7 DUP3 DUP8 ADD PUSH2 0x274 JUMP JUMPDEST SWAP3 POP POP PUSH1 0x40 DUP5 ADD MLOAD PUSH8 0xFFFFFFFFFFFFFFFF DUP2 GT ISZERO PUSH2 0x313 JUMPI PUSH2 0x312 PUSH2 0x12E JUMP JUMPDEST JUMPDEST PUSH2 0x31F DUP7 DUP3 DUP8 ADD PUSH2 0x274 JUMP JUMPDEST SWAP2 POP POP SWAP3 POP SWAP3 POP SWAP3 JUMP JUMPDEST PUSH0 DUP2 MLOAD SWAP1 POP SWAP2 SWAP1 POP JUMP JUMPDEST PUSH32 0x4E487B7100000000000000000000000000000000000000000000000000000000 PUSH0 MSTORE PUSH1 0x22 PUSH1 0x4 MSTORE PUSH1 0x24 PUSH0 REVERT JUMPDEST PUSH0 PUSH1 0x2 DUP3 DIV SWAP1 POP PUSH1 0x1 DUP3 AND DUP1 PUSH2 0x377 JUMPI PUSH1 0x7F DUP3 AND SWAP2 POP JUMPDEST PUSH1 0x20 DUP3 LT DUP2 SUB PUSH2 0x38A JUMPI PUSH2 0x389 PUSH2 0x333 JUMP JUMPDEST JUMPDEST POP SWAP2 SWAP1 POP JUMP JUMPDEST PUSH0 DUP2 SWAP1 POP DUP2 PUSH0 MSTORE PUSH1 0x20 PUSH0 KECCAK256 SWAP1 POP SWAP2 SWAP1 POP JUMP JUMPDEST PUSH0 PUSH1 0x20 PUSH1 0x1F DUP4 ADD DIV SWAP1 POP SWAP2 SWAP1 POP JUMP JUMPDEST PUSH0 DUP3 DUP3 SHL SWAP1 POP SWAP3 SWAP2 POP POP JUMP JUMPDEST PUSH0 PUSH1 0x8 DUP4 MUL PUSH2 0x3EC PUSH32 0xFFFFFFFFFFFFFFFFFFFFFFFFFFFFFFFFFFFFFFFFFFFFFFFFFFFFFFFFFFFFFFFF DUP3 PUSH2 0x3B1 JUMP JUMPDEST PUSH2 0x3F6 DUP7 DUP4 PUSH2 0x3B1 JUMP JUMPDEST SWAP6 POP DUP1 NOT DUP5 AND SWAP4 POP DUP1 DUP7 AND DUP5 OR SWAP3 POP POP POP SWAP4 SWAP3 POP POP POP JUMP JUMPDEST PUSH0 DUP2 SWAP1 POP SWAP2 SWAP1 POP JUMP JUMPDEST PUSH0 PUSH2 0x431 PUSH2 0x42C PUSH2 0x427 DUP5 PUSH2 0x132 JUMP JUMPDEST PUSH2 0x40E JUMP JUMPDEST PUSH2 0x132 JUMP JUMPDEST SWAP1 POP SWAP2 SWAP1 POP JUMP JUMPDEST PUSH0 DUP2 SWAP1 POP SWAP2 SWAP1 POP JUMP JUMPDEST PUSH2 0x44A DUP4 PUSH2 0x417 JUMP JUMPDEST PUSH2 0x45E PUSH2 0x456 DUP3 PUSH2 0x438 JUMP JUMPDEST DUP5 DUP5 SLOAD PUSH2 0x3BD JUMP JUMPDEST DUP3 SSTORE POP POP POP POP JUMP JUMPDEST PUSH0 PUSH0 SWAP1 POP SWAP1 JUMP JUMPDEST PUSH2 0x475 PUSH2 0x466 JUMP JUMPDEST PUSH2 0x480 DUP2 DUP5 DUP5 PUSH2 0x441 JUMP JUMPDEST POP POP POP JUMP JUMPDEST JUMPDEST DUP2 DUP2 LT ISZERO PUSH2 0x4A3 JUMPI PUSH2 0x498 PUSH0 DUP3 PUSH2 0x46D JUMP JUMPDEST PUSH1 0x1 DUP2 ADD SWAP1 POP PUSH2 0x486 JUMP JUMPDEST POP POP JUMP JUMPDEST PUSH1 0x1F DUP3 GT ISZERO PUSH2 0x4E8 JUMPI PUSH2 0x4B9 DUP2 PUSH2 0x390 JUMP JUMPDEST PUSH2 0x4C2 DUP5 PUSH2 0x3A2 JUMP JUMPDEST DUP2 ADD PUSH1 0x20 DUP6 LT ISZERO PUSH2 0x4D1 JUMPI DUP2 SWAP1 POP JUMPDEST PUSH2 0x4E5 PUSH2 0x4DD DUP6 PUSH2 0x3A2 JUMP JUMPDEST DUP4 ADD DUP3 PUSH2 0x485 JUMP JUMPDEST POP POP JUMPDEST POP POP POP JUMP JUMPDEST PUSH0 DUP3 DUP3 SHR SWAP1 POP SWAP3 SWAP2 POP POP JUMP JUMPDEST PUSH0 PUSH2 0x508 PUSH0 NOT DUP5 PUSH1 0x8 MUL PUSH2 0x4ED JUMP JUMPDEST NOT DUP1 DUP4 AND SWAP2 POP POP SWAP3 SWAP2 POP POP JUMP JUMPDEST PUSH0 PUSH2 0x520 DUP4 DUP4 PUSH2 0x4F9 JUMP JUMPDEST SWAP2 POP DUP3 PUSH1 0x2 MUL DUP3 OR SWAP1 POP SWAP3 SWAP2 POP POP JUMP JUMPDEST PUSH2 0x539 DUP3 PUSH2 0x329 JUMP JUMPDEST PUSH8 0xFFFFFFFFFFFFFFFF DUP2 GT ISZERO PUSH2 0x552 JUMPI PUSH2 0x551 PUSH2 0x17D JUMP JUMPDEST JUMPDEST PUSH2 0x55C DUP3 SLOAD PUSH2 0x360 JUMP JUMPDEST PUSH2 0x567 DUP3 DUP3 DUP6 PUSH2 0x4A7 JUMP JUMPDEST PUSH0 PUSH1 0x20 SWAP1 POP PUSH1 0x1F DUP4 GT PUSH1 0x1 DUP2 EQ PUSH2 0x598 JUMPI PUSH0 DUP5 ISZERO PUSH2 0x586 JUMPI DUP3 DUP8 ADD MLOAD SWAP1 POP JUMPDEST PUSH2 0x590 DUP6 DUP3 PUSH2 0x515 JUMP JUMPDEST DUP7 SSTORE POP PUSH2 0x5F7 JUMP JUMPDEST PUSH1 0x1F NOT DUP5 AND PUSH2 0x5A6 DUP7 PUSH2 0x390 JUMP JUMPDEST PUSH0 JUMPDEST DUP3 DUP2 LT ISZERO PUSH2 0x5CD JUMPI DUP5 DUP10 ADD MLOAD DUP3 SSTORE PUSH1 0x1 DUP3 ADD SWAP2 POP PUSH1 0x20 DUP6 ADD SWAP5 POP PUSH1 0x20 DUP2 ADD SWAP1 POP PUSH2 0x5A8 JUMP JUMPDEST DUP7 DUP4 LT ISZERO PUSH2 0x5EA JUMPI DUP5 DUP10 ADD MLOAD PUSH2 0x5E6 PUSH1 0x1F DUP10 AND DUP3 PUSH2 0x4F9 JUMP JUMPDEST DUP4 SSTORE POP JUMPDEST PUSH1 0x1 PUSH1 0x2 DUP9 MUL ADD DUP9 SSTORE POP POP POP JUMPDEST POP POP POP POP POP POP JUMP JUMPDEST PUSH2 0x608 DUP2 PUSH2 0x132 JUMP JUMPDEST DUP3 MSTORE POP POP JUMP JUMPDEST PUSH0 PUSH1 0x20 DUP3 ADD SWAP1 POP PUSH2 0x621 PUSH0 DUP4 ADD DUP5 PUSH2 0x5FF JUMP JUMPDEST SWAP3 SWAP2 POP POP JUMP JUMPDEST PUSH2 0xEB6 DUP1 PUSH2 0x634 PUSH0 CODECOPY PUSH0 RETURN INVALID PUSH1 0x80 PUSH1 0x40 MSTORE CALLVALUE DUP1 ISZERO PUSH2 0xF JUMPI PUSH0 PUSH0 REVERT JUMPDEST POP PUSH1 0x4 CALLDATASIZE LT PUSH2 0x91 JUMPI PUSH0 CALLDATALOAD PUSH1 0xE0 SHR DUP1 PUSH4 0x313CE567 GT PUSH2 0x64 JUMPI DUP1 PUSH4 0x313CE567 EQ PUSH2 0x131 JUMPI DUP1 PUSH4 0x70A08231 EQ PUSH2 0x14F JUMPI DUP1 PUSH4 0x95D89B41 EQ PUSH2 0x17F JUMPI DUP1 PUSH4 0xA9059CBB EQ PUSH2 0x19D JUMPI DUP1 PUSH4 0xDD62ED3E EQ PUSH2 0x1CD JUMPI PUSH2 0x91 JUMP JUMPDEST DUP1 PUSH4 0x6FDDE03 EQ PUSH2 0x95 JUMPI DUP1 PUSH4 0x95EA7B3 EQ PUSH2 0xB3 JUMPI DUP1 PUSH4 0x18160DDD EQ PUSH2 0xE3 JUMPI DUP1 PUSH4 0x23B872DD EQ PUSH2 0x101 JUMPI JUMPDEST PUSH0 PUSH0 REVERT JUMPDEST PUSH2 0x9D PUSH2 0x1FD JUMP JUMPDEST PUSH1 0x40 MLOAD PUSH2 0xAA SWAP2 SWAP1 PUSH2 0xA21 JUMP JUMPDEST PUSH1 0x40 MLOAD DUP1 SWAP2 SUB SWAP1 RETURN JUMPDEST PUSH2 0xCD PUSH1 0x4 DUP1 CALLDATASIZE SUB DUP2 ADD SWAP1 PUSH2 0xC8 SWAP2 SWAP1 PUSH2 0xAD2 JUMP JUMPDEST PUSH2 0x288 JUMP JUMPDEST PUSH1 0x40 MLOAD PUSH2 0xDA SWAP2 SWAP1 PUSH2 0xB2A JUMP JUMPDEST PUSH1 0x40 MLOAD DUP1 SWAP2 SUB SWAP1 RETURN JUMPDEST PUSH2 0xEB PUSH2 0x375 JUMP JUMPDEST PUSH1 0x40 MLOAD PUSH2 0xF8 SWAP2 SWAP1 PUSH2 0xB52 JUMP JUMPDEST PUSH1 0x40 MLOAD DUP1 SWAP2 SUB SWAP1 RETURN JUMPDEST PUSH2 0x11B PUSH1 0x4 DUP1 CALLDATASIZE SUB DUP2 ADD SWAP1 PUSH2 0x116 SWAP2 SWAP1 PUSH2 0xB6B JUMP JUMPDEST PUSH2 0x37B JUMP JUMPDEST PUSH1 0x40 MLOAD PUSH2 0x128 SWAP2 SWAP1 PUSH2 0xB2A JUMP JUMPDEST PUSH1 0x40 MLOAD DUP1 SWAP2 SUB SWAP1 RETURN JUMPDEST PUSH2 0x139 PUSH2 0x637 JUMP JUMPDEST PUSH1 0x40 MLOAD PUSH2 0x146 SWAP2 SWAP1 PUSH2 0xBD6 JUMP JUMPDEST PUSH1 0x40 MLOAD DUP1 SWAP2 SUB SWAP1 RETURN JUMPDEST PUSH2 0x169 PUSH1 0x4 DUP1 CALLDATASIZE SUB DUP2 ADD SWAP1 PUSH2 0x164 SWAP2 SWAP1 PUSH2 0xBEF JUMP JUMPDEST PUSH2 0x649 JUMP JUMPDEST PUSH1 0x40 MLOAD PUSH2 0x176 SWAP2 SWAP1 PUSH2 0xB52 JUMP JUMPDEST PUSH1 0x40 MLOAD DUP1 SWAP2 SUB SWAP1 RETURN JUMPDEST PUSH2 0x187 PUSH2 0x68F JUMP JUMPDEST PUSH1 0x40 MLOAD PUSH2 0x194 SWAP2 SWAP1 PUSH2 0xA21 JUMP JUMPDEST PUSH1 0x40 MLOAD DUP1 SWAP2 SUB SWAP1 RETURN JUMPDEST PUSH2 0x1B7 PUSH1 0x4 DUP1 CALLDATASIZE SUB DUP2 ADD SWAP1 PUSH2 0x1B2 SWAP2 SWAP1 PUSH2 0xAD2 JUMP JUMPDEST PUSH2 0x71B JUMP JUMPDEST PUSH1 0x40 MLOAD PUSH2 0x1C4 SWAP2 SWAP1 PUSH2 0xB2A JUMP JUMPDEST PUSH1 0x40 MLOAD DUP1 SWAP2 SUB SWAP1 RETURN JUMPDEST PUSH2 0x1E7 PUSH1 0x4 DUP1 CALLDATASIZE SUB DUP2 ADD SWAP1 PUSH2 0x1E2 SWAP2 SWAP1 PUSH2 0xC1A JUMP JUMPDEST PUSH2 0x7B1 JUMP JUMPDEST PUSH1 0x40 MLOAD PUSH2 0x1F4 SWAP2 SWAP1 PUSH2 0xB52 JUMP JUMPDEST PUSH1 0x40 MLOAD DUP1 SWAP2 SUB SWAP1 RETURN JUMPDEST PUSH0 DUP1 SLOAD PUSH2 0x209 SWAP1 PUSH2 0xC85 JUMP JUMPDEST DUP1 PUSH1 0x1F ADD PUSH1 0x20 DUP1 SWAP2 DIV MUL PUSH1 0x20 ADD PUSH1 0x40 MLOAD SWAP1 DUP2 ADD PUSH1 0x40 MSTORE DUP1 SWAP3 SWAP2 SWAP1 DUP2 DUP2 MSTORE PUSH1 0x20 ADD DUP3 DUP1 SLOAD PUSH2 0x235 SWAP1 PUSH2 0xC85 JUMP JUMPDEST DUP1 ISZERO PUSH2 0x280 JUMPI DUP1 PUSH1 0x1F LT PUSH2 0x257 JUMPI PUSH2 0x100 DUP1 DUP4 SLOAD DIV MUL DUP4 MSTORE SWAP2 PUSH1 0x20 ADD SWAP2 PUSH2 0x280 JUMP JUMPDEST DUP3 ADD SWAP2 SWAP1 PUSH0 MSTORE PUSH1 0x20 PUSH0 KECCAK256 SWAP1 JUMPDEST DUP2 SLOAD DUP2 MSTORE SWAP1 PUSH1 0x1 ADD SWAP1 PUSH1 0x20 ADD DUP1 DUP4 GT PUSH2 0x263 JUMPI DUP3 SWAP1 SUB PUSH1 0x1F AND DUP3 ADD SWAP2 JUMPDEST POP POP POP POP POP DUP2 JUMP JUMPDEST PUSH0 DUP2 PUSH1 0x5 PUSH0 CALLER PUSH20 0xFFFFFFFFFFFFFFFFFFFFFFFFFFFFFFFFFFFFFFFF AND PUSH20 0xFFFFFFFFFFFFFFFFFFFFFFFFFFFFFFFFFFFFFFFF AND DUP2 MSTORE PUSH1 0x20 ADD SWAP1 DUP2 MSTORE PUSH1 0x20 ADD PUSH0 KECCAK256 PUSH0 DUP6 PUSH20 0xFFFFFFFFFFFFFFFFFFFFFFFFFFFFFFFFFFFFFFFF AND PUSH20 0xFFFFFFFFFFFFFFFFFFFFFFFFFFFFFFFFFFFFFFFF AND DUP2 MSTORE PUSH1 0x20 ADD SWAP1 DUP2 MSTORE PUSH1 0x20 ADD PUSH0 KECCAK256 DUP2 SWAP1 SSTORE POP DUP3 PUSH20 0xFFFFFFFFFFFFFFFFFFFFFFFFFFFFFFFFFFFFFFFF AND CALLER PUSH20 0xFFFFFFFFFFFFFFFFFFFFFFFFFFFFFFFFFFFFFFFF AND PUSH32 0x8C5BE1E5EBEC7D5BD14F71427D1E84F3DD0314C0F7B2291E5B200AC8C7C3B925 DUP5 PUSH1 0x40 MLOAD PUSH2 0x363 SWAP2 SWAP1 PUSH2 0xB52 JUMP JUMPDEST PUSH1 0x40 MLOAD DUP1 SWAP2 SUB SWAP1 LOG3 PUSH1 0x1 SWAP1 POP SWAP3 SWAP2 POP POP JUMP JUMPDEST PUSH1 0x3 SLOAD DUP2 JUMP JUMPDEST PUSH0 PUSH0 PUSH1 0x5 PUSH0 DUP7 PUSH20 0xFFFFFFFFFFFFFFFFFFFFFFFFFFFFFFFFFFFFFFFF AND PUSH20 0xFFFFFFFFFFFFFFFFFFFFFFFFFFFFFFFFFFFFFFFF AND DUP2 MSTORE PUSH1 0x20 ADD SWAP1 DUP2 MSTORE PUSH1 0x20 ADD PUSH0 KECCAK256 PUSH0 CALLER PUSH20 0xFFFFFFFFFFFFFFFFFFFFFFFFFFFFFFFFFFFFFFFF AND PUSH20 0xFFFFFFFFFFFFFFFFFFFFFFFFFFFFFFFFFFFFFFFF AND DUP2 MSTORE PUSH1 0x20 ADD SWAP1 DUP2 MSTORE PUSH1 0x20 ADD PUSH0 KECCAK256 SLOAD SWAP1 POP DUP3 DUP2 LT ISZERO PUSH2 0x43B JUMPI PUSH1 0x40 MLOAD PUSH32 0x8C379A000000000000000000000000000000000000000000000000000000000 DUP2 MSTORE PUSH1 0x4 ADD PUSH2 0x432 SWAP1 PUSH2 0xCFF JUMP JUMPDEST PUSH1 0x40 MLOAD DUP1 SWAP2 SUB SWAP1 REVERT JUMPDEST DUP3 PUSH1 0x4 PUSH0 DUP8 PUSH20 0xFFFFFFFFFFFFFFFFFFFFFFFFFFFFFFFFFFFFFFFF AND PUSH20 0xFFFFFFFFFFFFFFFFFFFFFFFFFFFFFFFFFFFFFFFF AND DUP2 MSTORE PUSH1 0x20 ADD SWAP1 DUP2 MSTORE PUSH1 0x20 ADD PUSH0 KECCAK256 SLOAD LT ISZERO PUSH2 0x4BB JUMPI PUSH1 0x40 MLOAD PUSH32 0x8C379A000000000000000000000000000000000000000000000000000000000 DUP2 MSTORE PUSH1 0x4 ADD PUSH2 0x4B2 SWAP1 PUSH2 0xD67 JUMP JUMPDEST PUSH1 0x40 MLOAD DUP1 SWAP2 SUB SWAP1 REVERT JUMPDEST PUSH2 0x4C6 DUP6 DUP6 DUP6 PUSH2 0x833 JUMP JUMPDEST DUP3 DUP2 PUSH2 0x4D2 SWAP2 SWAP1 PUSH2 0xDB2 JUMP JUMPDEST PUSH1 0x5 PUSH0 DUP8 PUSH20 0xFFFFFFFFFFFFFFFFFFFFFFFFFFFFFFFFFFFFFFFF AND PUSH20 0xFFFFFFFFFFFFFFFFFFFFFFFFFFFFFFFFFFFFFFFF AND DUP2 MSTORE PUSH1 0x20 ADD SWAP1 DUP2 MSTORE PUSH1 0x20 ADD PUSH0 KECCAK256 PUSH0 CALLER PUSH20 0xFFFFFFFFFFFFFFFFFFFFFFFFFFFFFFFFFFFFFFFF AND PUSH20 0xFFFFFFFFFFFFFFFFFFFFFFFFFFFFFFFFFFFFFFFF AND DUP2 MSTORE PUSH1 0x20 ADD SWAP1 DUP2 MSTORE PUSH1 0x20 ADD PUSH0 KECCAK256 DUP2 SWAP1 SSTORE POP CALLER PUSH20 0xFFFFFFFFFFFFFFFFFFFFFFFFFFFFFFFFFFFFFFFF AND DUP6 PUSH20 0xFFFFFFFFFFFFFFFFFFFFFFFFFFFFFFFFFFFFFFFF AND PUSH32 0x8C5BE1E5EBEC7D5BD14F71427D1E84F3DD0314C0F7B2291E5B200AC8C7C3B925 PUSH1 0x5 PUSH0 DUP10 PUSH20 0xFFFFFFFFFFFFFFFFFFFFFFFFFFFFFFFFFFFFFFFF AND PUSH20 0xFFFFFFFFFFFFFFFFFFFFFFFFFFFFFFFFFFFFFFFF AND DUP2 MSTORE PUSH1 0x20 ADD SWAP1 DUP2 MSTORE PUSH1 0x20 ADD PUSH0 KECCAK256 PUSH0 CALLER PUSH20 0xFFFFFFFFFFFFFFFFFFFFFFFFFFFFFFFFFFFFFFFF AND PUSH20 0xFFFFFFFFFFFFFFFFFFFFFFFFFFFFFFFFFFFFFFFF AND DUP2 MSTORE PUSH1 0x20 ADD SWAP1 DUP2 MSTORE PUSH1 0x20 ADD PUSH0 KECCAK256 SLOAD PUSH1 0x40 MLOAD PUSH2 0x623 SWAP2 SWAP1 PUSH2 0xB52 JUMP JUMPDEST PUSH1 0x40 MLOAD DUP1 SWAP2 SUB SWAP1 LOG3 PUSH1 0x1 SWAP2 POP POP SWAP4 SWAP3 POP POP POP JUMP JUMPDEST PUSH1 0x2 PUSH0 SWAP1 SLOAD SWAP1 PUSH2 0x100 EXP SWAP1 DIV PUSH1 0xFF AND DUP2 JUMP JUMPDEST PUSH0 PUSH1 0x4 PUSH0 DUP4 PUSH20 0xFFFFFFFFFFFFFFFFFFFFFFFFFFFFFFFFFFFFFFFF AND PUSH20 0xFFFFFFFFFFFFFFFFFFFFFFFFFFFFFFFFFFFFFFFF AND DUP2 MSTORE PUSH1 0x20 ADD SWAP1 DUP2 MSTORE PUSH1 0x20 ADD PUSH0 KECCAK256 SLOAD SWAP1 POP SWAP2 SWAP1 POP JUMP JUMPDEST PUSH1 0x1 DUP1 SLOAD PUSH2 0x69C SWAP1 PUSH2 0xC85 JUMP JUMPDEST DUP1 PUSH1 0x1F ADD PUSH1 0x20 DUP1 SWAP2 DIV MUL PUSH1 0x20 ADD PUSH1 0x40 MLOAD SWAP1 DUP2 ADD PUSH1 0x40 MSTORE DUP1 SWAP3 SWAP2 SWAP1 DUP2 DUP2 MSTORE PUSH1 0x20 ADD DUP3 DUP1 SLOAD PUSH2 0x6C8 SWAP1 PUSH2 0xC85 JUMP JUMPDEST DUP1 ISZERO PUSH2 0x713 JUMPI DUP1 PUSH1 0x1F LT PUSH2 0x6EA JUMPI PUSH2 0x100 DUP1 DUP4 SLOAD DIV MUL DUP4 MSTORE SWAP2 PUSH1 0x20 ADD SWAP2 PUSH2 0x713 JUMP JUMPDEST DUP3 ADD SWAP2 SWAP1 PUSH0 MSTORE PUSH1 0x20 PUSH0 KECCAK256 SWAP1 JUMPDEST DUP2 SLOAD DUP2 MSTORE SWAP1 PUSH1 0x1 ADD SWAP1 PUSH1 0x20 ADD DUP1 DUP4 GT PUSH2 0x6F6 JUMPI DUP3 SWAP1 SUB PUSH1 0x1F AND DUP3 ADD SWAP2 JUMPDEST POP POP POP POP POP DUP2 JUMP JUMPDEST PUSH0 DUP2 PUSH1 0x4 PUSH0 CALLER PUSH20 0xFFFFFFFFFFFFFFFFFFFFFFFFFFFFFFFFFFFFFFFF AND PUSH20 0xFFFFFFFFFFFFFFFFFFFFFFFFFFFFFFFFFFFFFFFF AND DUP2 MSTORE PUSH1 0x20 ADD SWAP1 DUP2 MSTORE PUSH1 0x20 ADD PUSH0 KECCAK256 SLOAD LT ISZERO PUSH2 0x79C JUMPI PUSH1 0x40 MLOAD PUSH32 0x8C379A000000000000000000000000000000000000000000000000000000000 DUP2 MSTORE PUSH1 0x4 ADD PUSH2 0x793 SWAP1 PUSH2 0xD67 JUMP JUMPDEST PUSH1 0x40 MLOAD DUP1 SWAP2 SUB SWAP1 REVERT JUMPDEST PUSH2 0x7A7 CALLER DUP5 DUP5 PUSH2 0x833 JUMP JUMPDEST PUSH1 0x1 SWAP1 POP SWAP3 SWAP2 POP POP JUMP JUMPDEST PUSH0 PUSH1 0x5 PUSH0 DUP5 PUSH20 0xFFFFFFFFFFFFFFFFFFFFFFFFFFFFFFFFFFFFFFFF AND PUSH20 0xFFFFFFFFFFFFFFFFFFFFFFFFFFFFFFFFFFFFFFFF AND DUP2 MSTORE PUSH1 0x20 ADD SWAP1 DUP2 MSTORE PUSH1 0x20 ADD PUSH0 KECCAK256 PUSH0 DUP4 PUSH20 0xFFFFFFFFFFFFFFFFFFFFFFFFFFFFFFFFFFFFFFFF AND PUSH20 0xFFFFFFFFFFFFFFFFFFFFFFFFFFFFFFFFFFFFFFFF AND DUP2 MSTORE PUSH1 0x20 ADD SWAP1 DUP2 MSTORE PUSH1 0x20 ADD PUSH0 KECCAK256 SLOAD SWAP1 POP SWAP3 SWAP2 POP POP JUMP JUMPDEST PUSH0 PUSH20 0xFFFFFFFFFFFFFFFFFFFFFFFFFFFFFFFFFFFFFFFF AND DUP3 PUSH20 0xFFFFFFFFFFFFFFFFFFFFFFFFFFFFFFFFFFFFFFFF AND SUB PUSH2 0x8A1 JUMPI PUSH1 0x40 MLOAD PUSH32 0x8C379A000000000000000000000000000000000000000000000000000000000 DUP2 MSTORE PUSH1 0x4 ADD PUSH2 0x898 SWAP1 PUSH2 0xE2F JUMP JUMPDEST PUSH1 0x40 MLOAD DUP1 SWAP2 SUB SWAP1 REVERT JUMPDEST DUP1 PUSH1 0x4 PUSH0 DUP6 PUSH20 0xFFFFFFFFFFFFFFFFFFFFFFFFFFFFFFFFFFFFFFFF AND PUSH20 0xFFFFFFFFFFFFFFFFFFFFFFFFFFFFFFFFFFFFFFFF AND DUP2 MSTORE PUSH1 0x20 ADD SWAP1 DUP2 MSTORE PUSH1 0x20 ADD PUSH0 KECCAK256 PUSH0 DUP3 DUP3 SLOAD PUSH2 0x8ED SWAP2 SWAP1 PUSH2 0xDB2 JUMP JUMPDEST SWAP3 POP POP DUP2 SWAP1 SSTORE POP DUP1 PUSH1 0x4 PUSH0 DUP5 PUSH20 0xFFFFFFFFFFFFFFFFFFFFFFFFFFFFFFFFFFFFFFFF AND PUSH20 0xFFFFFFFFFFFFFFFFFFFFFFFFFFFFFFFFFFFFFFFF AND DUP2 MSTORE PUSH1 0x20 ADD SWAP1 DUP2 MSTORE PUSH1 0x20 ADD PUSH0 KECCAK256 PUSH0 DUP3 DUP3 SLOAD PUSH2 0x940 SWAP2 SWAP1 PUSH2 0xE4D JUMP JUMPDEST SWAP3 POP POP DUP2 SWAP1 SSTORE POP DUP2 PUSH20 0xFFFFFFFFFFFFFFFFFFFFFFFFFFFFFFFFFFFFFFFF AND DUP4 PUSH20 0xFFFFFFFFFFFFFFFFFFFFFFFFFFFFFFFFFFFFFFFF AND PUSH32 0xDDF252AD1BE2C89B69C2B068FC378DAA952BA7F163C4A11628F55A4DF523B3EF DUP4 PUSH1 0x40 MLOAD PUSH2 0x9A4 SWAP2 SWAP1 PUSH2 0xB52 JUMP JUMPDEST PUSH1 0x40 MLOAD DUP1 SWAP2 SUB SWAP1 LOG3 POP POP POP JUMP JUMPDEST PUSH0 DUP2 MLOAD SWAP1 POP SWAP2 SWAP1 POP JUMP JUMPDEST PUSH0 DUP3 DUP3 MSTORE PUSH1 0x20 DUP3 ADD SWAP1 POP SWAP3 SWAP2 POP POP JUMP JUMPDEST DUP3 DUP2 DUP4 MCOPY PUSH0 DUP4 DUP4 ADD MSTORE POP POP POP JUMP JUMPDEST PUSH0 PUSH1 0x1F NOT PUSH1 0x1F DUP4 ADD AND SWAP1 POP SWAP2 SWAP1 POP JUMP JUMPDEST PUSH0 PUSH2 0x9F3 DUP3 PUSH2 0x9B1 JUMP JUMPDEST PUSH2 0x9FD DUP2 DUP6 PUSH2 0x9BB JUMP JUMPDEST SWAP4 POP PUSH2 0xA0D DUP2 DUP6 PUSH1 0x20 DUP7 ADD PUSH2 0x9CB JUMP JUMPDEST PUSH2 0xA16 DUP2 PUSH2 0x9D9 JUMP JUMPDEST DUP5 ADD SWAP2 POP POP SWAP3 SWAP2 POP POP JUMP JUMPDEST PUSH0 PUSH1 0x20 DUP3 ADD SWAP1 POP DUP2 DUP2 SUB PUSH0 DUP4 ADD MSTORE PUSH2 0xA39 DUP2 DUP5 PUSH2 0x9E9 JUMP JUMPDEST SWAP1 POP SWAP3 SWAP2 POP POP JUMP JUMPDEST PUSH0 PUSH0 REVERT JUMPDEST PUSH0 PUSH20 0xFFFFFFFFFFFFFFFFFFFFFFFFFFFFFFFFFFFFFFFF DUP3 AND SWAP1 POP SWAP2 SWAP1 POP JUMP JUMPDEST PUSH0 PUSH2 0xA6E DUP3 PUSH2 0xA45 JUMP JUMPDEST SWAP1 POP SWAP2 SWAP1 POP JUMP JUMPDEST PUSH2 0xA7E DUP2 PUSH2 0xA64 JUMP JUMPDEST DUP2 EQ PUSH2 0xA88 JUMPI PUSH0 PUSH0 REVERT JUMPDEST POP JUMP JUMPDEST PUSH0 DUP2 CALLDATALOAD SWAP1 POP PUSH2 0xA99 DUP2 PUSH2 0xA75 JUMP JUMPDEST SWAP3 SWAP2 POP POP JUMP JUMPDEST PUSH0 DUP2 SWAP1 POP SWAP2 SWAP1 POP JUMP JUMPDEST PUSH2 0xAB1 DUP2 PUSH2 0xA9F JUMP JUMPDEST DUP2 EQ PUSH2 0xABB JUMPI PUSH0 PUSH0 REVERT JUMPDEST POP JUMP JUMPDEST PUSH0 DUP2 CALLDATALOAD SWAP1 POP PUSH2 0xACC DUP2 PUSH2 0xAA8 JUMP JUMPDEST SWAP3 SWAP2 POP POP JUMP JUMPDEST PUSH0 PUSH0 PUSH1 0x40 DUP4 DUP6 SUB SLT ISZERO PUSH2 0xAE8 JUMPI PUSH2 0xAE7 PUSH2 0xA41 JUMP JUMPDEST JUMPDEST PUSH0 PUSH2 0xAF5 DUP6 DUP3 DUP7 ADD PUSH2 0xA8B JUMP JUMPDEST SWAP3 POP POP PUSH1 0x20 PUSH2 0xB06 DUP6 DUP3 DUP7 ADD PUSH2 0xABE JUMP JUMPDEST SWAP2 POP POP SWAP3 POP SWAP3 SWAP1 POP JUMP JUMPDEST PUSH0 DUP2 ISZERO ISZERO SWAP1 POP SWAP2 SWAP1 POP JUMP JUMPDEST PUSH2 0xB24 DUP2 PUSH2 0xB10 JUMP JUMPDEST DUP3 MSTORE POP POP JUMP JUMPDEST PUSH0 PUSH1 0x20 DUP3 ADD SWAP1 POP PUSH2 0xB3D PUSH0 DUP4 ADD DUP5 PUSH2 0xB1B JUMP JUMPDEST SWAP3 SWAP2 POP POP JUMP JUMPDEST PUSH2 0xB4C DUP2 PUSH2 0xA9F JUMP JUMPDEST DUP3 MSTORE POP POP JUMP JUMPDEST PUSH0 PUSH1 0x20 DUP3 ADD SWAP1 POP PUSH2 0xB65 PUSH0 DUP4 ADD DUP5 PUSH2 0xB43 JUMP JUMPDEST SWAP3 SWAP2 POP POP JUMP JUMPDEST PUSH0 PUSH0 PUSH0 PUSH1 0x60 DUP5 DUP7 SUB SLT ISZERO PUSH2 0xB82 JUMPI PUSH2 0xB81 PUSH2 0xA41 JUMP JUMPDEST JUMPDEST PUSH0 PUSH2 0xB8F DUP7 DUP3 DUP8 ADD PUSH2 0xA8B JUMP JUMPDEST SWAP4 POP POP PUSH1 0x20 PUSH2 0xBA0 DUP7 DUP3 DUP8 ADD PUSH2 0xA8B JUMP JUMPDEST SWAP3 POP POP PUSH1 0x40 PUSH2 0xBB1 DUP7 DUP3 DUP8 ADD PUSH2 0xABE JUMP JUMPDEST SWAP2 POP POP SWAP3 POP SWAP3 POP SWAP3 JUMP JUMPDEST PUSH0 PUSH1 0xFF DUP3 AND SWAP1 POP SWAP2 SWAP1 POP JUMP JUMPDEST PUSH2 0xBD0 DUP2 PUSH2 0xBBB JUMP JUMPDEST DUP3 MSTORE POP POP JUMP JUMPDEST PUSH0 PUSH1 0x20 DUP3 ADD SWAP1 POP PUSH2 0xBE9 PUSH0 DUP4 ADD DUP5 PUSH2 0xBC7 JUMP JUMPDEST SWAP3 SWAP2 POP POP JUMP JUMPDEST PUSH0 PUSH1 0x20 DUP3 DUP5 SUB SLT ISZERO PUSH2 0xC04 JUMPI PUSH2 0xC03 PUSH2 0xA41 JUMP JUMPDEST JUMPDEST PUSH0 PUSH2 0xC11 DUP5 DUP3 DUP6 ADD PUSH2 0xA8B JUMP JUMPDEST SWAP2 POP POP SWAP3 SWAP2 POP POP JUMP JUMPDEST PUSH0 PUSH0 PUSH1 0x40 DUP4 DUP6 SUB SLT ISZERO PUSH2 0xC30 JUMPI PUSH2 0xC2F PUSH2 0xA41 JUMP JUMPDEST JUMPDEST PUSH0 PUSH2 0xC3D DUP6 DUP3 DUP7 ADD PUSH2 0xA8B JUMP JUMPDEST SWAP3 POP POP PUSH1 0x20 PUSH2 0xC4E DUP6 DUP3 DUP7 ADD PUSH2 0xA8B JUMP JUMPDEST SWAP2 POP POP SWAP3 POP SWAP3 SWAP1 POP JUMP JUMPDEST PUSH32 0x4E487B7100000000000000000000000000000000000000000000000000000000 PUSH0 MSTORE PUSH1 0x22 PUSH1 0x4 MSTORE PUSH1 0x24 PUSH0 REVERT JUMPDEST PUSH0 PUSH1 0x2 DUP3 DIV SWAP1 POP PUSH1 0x1 DUP3 AND DUP1 PUSH2 0xC9C JUMPI PUSH1 0x7F DUP3 AND SWAP2 POP JUMPDEST PUSH1 0x20 DUP3 LT DUP2 SUB PUSH2 0xCAF JUMPI PUSH2 0xCAE PUSH2 0xC58 JUMP JUMPDEST JUMPDEST POP SWAP2 SWAP1 POP JUMP JUMPDEST PUSH32 0x416C6C6F77616E63652065786365656465640000000000000000000000000000 PUSH0 DUP3 ADD MSTORE POP JUMP JUMPDEST PUSH0 PUSH2 0xCE9 PUSH1 0x12 DUP4 PUSH2 0x9BB JUMP JUMPDEST SWAP2 POP PUSH2 0xCF4 DUP3 PUSH2 0xCB5 JUMP JUMPDEST PUSH1 0x20 DUP3 ADD SWAP1 POP SWAP2 SWAP1 POP JUMP JUMPDEST PUSH0 PUSH1 0x20 DUP3 ADD SWAP1 POP DUP2 DUP2 SUB PUSH0 DUP4 ADD MSTORE PUSH2 0xD16 DUP2 PUSH2 0xCDD JUMP JUMPDEST SWAP1 POP SWAP2 SWAP1 POP JUMP JUMPDEST PUSH32 0x496E73756666696369656E742062616C616E6365000000000000000000000000 PUSH0 DUP3 ADD MSTORE POP JUMP JUMPDEST PUSH0 PUSH2 0xD51 PUSH1 0x14 DUP4 PUSH2 0x9BB JUMP JUMPDEST SWAP2 POP PUSH2 0xD5C DUP3 PUSH2 0xD1D JUMP JUMPDEST PUSH1 0x20 DUP3 ADD SWAP1 POP SWAP2 SWAP1 POP JUMP JUMPDEST PUSH0 PUSH1 0x20 DUP3 ADD SWAP1 POP DUP2 DUP2 SUB PUSH0 DUP4 ADD MSTORE PUSH2 0xD7E DUP2 PUSH2 0xD45 JUMP JUMPDEST SWAP1 POP SWAP2 SWAP1 POP JUMP JUMPDEST PUSH32 0x4E487B7100000000000000000000000000000000000000000000000000000000 PUSH0 MSTORE PUSH1 0x11 PUSH1 0x4 MSTORE PUSH1 0x24 PUSH0 REVERT JUMPDEST PUSH0 PUSH2 0xDBC DUP3 PUSH2 0xA9F JUMP JUMPDEST SWAP2 POP PUSH2 0xDC7 DUP4 PUSH2 0xA9F JUMP JUMPDEST SWAP3 POP DUP3 DUP3 SUB SWAP1 POP DUP2 DUP2 GT ISZERO PUSH2 0xDDF JUMPI PUSH2 0xDDE PUSH2 0xD85 JUMP JUMPDEST JUMPDEST SWAP3 SWAP2 POP POP JUMP JUMPDEST PUSH32 0x5472616E7366657220746F207A65726F20616464726573730000000000000000 PUSH0 DUP3 ADD MSTORE POP JUMP JUMPDEST PUSH0 PUSH2 0xE19 PUSH1 0x18 DUP4 PUSH2 0x9BB JUMP JUMPDEST SWAP2 POP PUSH2 0xE24 DUP3 PUSH2 0xDE5 JUMP JUMPDEST PUSH1 0x20 DUP3 ADD SWAP1 POP SWAP2 SWAP1 POP JUMP JUMPDEST PUSH0 PUSH1 0x20 DUP3 ADD SWAP1 POP DUP2 DUP2 SUB PUSH0 DUP4 ADD MSTORE PUSH2 0xE46 DUP2 PUSH2 0xE0D JUMP JUMPDEST SWAP1 POP SWAP2 SWAP1 POP JUMP JUMPDEST PUSH0 PUSH2 0xE57 DUP3 PUSH2 0xA9F JUMP JUMPDEST SWAP2 POP PUSH2 0xE62 DUP4 PUSH2 0xA9F JUMP JUMPDEST SWAP3 POP DUP3 DUP3 ADD SWAP1 POP DUP1 DUP3 GT ISZERO PUSH2 0xE7A JUMPI PUSH2 0xE79 PUSH2 0xD85 JUMP JUMPDEST JUMPDEST SWAP3 SWAP2 POP POP JUMP INVALID LOG2 PUSH5 0x6970667358 0x22 SLT KECCAK256 DELEGATECALL PUSH21 0x3B762F594D653148AA9DAEDF4F6310C2D8B0DC45C3 0xDB 0xC8 PUSH22 0x2D52AA4724D164736F6C634300081E003360C0604052 CALLVALUE DUP1 ISZERO PUSH2 0xF JUMPI PUSH0 PUSH0 REVERT JUMPDEST POP PUSH1 0x40 MLOAD PUSH2 0x16EE CODESIZE SUB DUP1 PUSH2 0x16EE DUP4 CODECOPY DUP2 DUP2 ADD PUSH1 0x40 MSTORE DUP2 ADD SWAP1 PUSH2 0x31 SWAP2 SWAP1 PUSH2 0x1FD JUMP JUMPDEST DUP4 PUSH20 0xFFFFFFFFFFFFFFFFFFFFFFFFFFFFFFFFFFFFFFFF AND PUSH1 0x80 DUP2 PUSH20 0xFFFFFFFFFFFFFFFFFFFFFFFFFFFFFFFFFFFFFFFF AND DUP2 MSTORE POP POP DUP3 PUSH20 0xFFFFFFFFFFFFFFFFFFFFFFFFFFFFFFFFFFFFFFFF AND PUSH1 0xA0 DUP2 PUSH20 0xFFFFFFFFFFFFFFFFFFFFFFFFFFFFFFFFFFFFFFFF AND DUP2 MSTORE POP POP PUSH1 0x40 MLOAD DUP1 PUSH1 0x40 ADD PUSH1 0x40 MSTORE DUP1 DUP4 PUSH20 0xFFFFFFFFFFFFFFFFFFFFFFFFFFFFFFFFFFFFFFFF AND DUP2 MSTORE PUSH1 0x20 ADD DUP3 PUSH1 0x2 SIGNEXTEND DUP2 MSTORE POP PUSH0 PUSH0 DUP3 ADD MLOAD DUP2 PUSH0 ADD PUSH0 PUSH2 0x100 EXP DUP2 SLOAD DUP2 PUSH20 0xFFFFFFFFFFFFFFFFFFFFFFFFFFFFFFFFFFFFFFFF MUL NOT AND SWAP1 DUP4 PUSH20 0xFFFFFFFFFFFFFFFFFFFFFFFFFFFFFFFFFFFFFFFF AND MUL OR SWAP1 SSTORE POP PUSH1 0x20 DUP3 ADD MLOAD DUP2 PUSH0 ADD PUSH1 0x14 PUSH2 0x100 EXP DUP2 SLOAD DUP2 PUSH3 0xFFFFFF MUL NOT AND SWAP1 DUP4 PUSH1 0x2 SIGNEXTEND PUSH3 0xFFFFFF AND MUL OR SWAP1 SSTORE POP SWAP1 POP POP POP POP POP POP PUSH2 0x261 JUMP JUMPDEST PUSH0 PUSH0 REVERT JUMPDEST PUSH0 PUSH20 0xFFFFFFFFFFFFFFFFFFFFFFFFFFFFFFFFFFFFFFFF DUP3 AND SWAP1 POP SWAP2 SWAP1 POP JUMP JUMPDEST PUSH0 PUSH2 0x16C DUP3 PUSH2 0x143 JUMP JUMPDEST SWAP1 POP SWAP2 SWAP1 POP JUMP JUMPDEST PUSH2 0x17C DUP2 PUSH2 0x162 JUMP JUMPDEST DUP2 EQ PUSH2 0x186 JUMPI PUSH0 PUSH0 REVERT JUMPDEST POP JUMP JUMPDEST PUSH0 DUP2 MLOAD SWAP1 POP PUSH2 0x197 DUP2 PUSH2 0x173 JUMP JUMPDEST SWAP3 SWAP2 POP POP JUMP JUMPDEST PUSH2 0x1A6 DUP2 PUSH2 0x143 JUMP JUMPDEST DUP2 EQ PUSH2 0x1B0 JUMPI PUSH0 PUSH0 REVERT JUMPDEST POP JUMP JUMPDEST PUSH0 DUP2 MLOAD SWAP1 POP PUSH2 0x1C1 DUP2 PUSH2 0x19D JUMP JUMPDEST SWAP3 SWAP2 POP POP JUMP JUMPDEST PUSH0 DUP2 PUSH1 0x2 SIGNEXTEND SWAP1 POP SWAP2 SWAP1 POP JUMP JUMPDEST PUSH2 0x1DC DUP2 PUSH2 0x1C7 JUMP JUMPDEST DUP2 EQ PUSH2 0x1E6 JUMPI PUSH0 PUSH0 REVERT JUMPDEST POP JUMP JUMPDEST PUSH0 DUP2 MLOAD SWAP1 POP PUSH2 0x1F7 DUP2 PUSH2 0x1D3 JUMP JUMPDEST SWAP3 SWAP2 POP POP JUMP JUMPDEST PUSH0 PUSH0 PUSH0 PUSH0 PUSH1 0x80 DUP6 DUP8 SUB SLT ISZERO PUSH2 0x215 JUMPI PUSH2 0x214 PUSH2 0x13F JUMP JUMPDEST JUMPDEST PUSH0 PUSH2 0x222 DUP8 DUP3 DUP9 ADD PUSH2 0x189 JUMP JUMPDEST SWAP5 POP POP PUSH1 0x20 PUSH2 0x233 DUP8 DUP3 DUP9 ADD PUSH2 0x189 JUMP JUMPDEST SWAP4 POP POP PUSH1 0x40 PUSH2 0x244 DUP8 DUP3 DUP9 ADD PUSH2 0x1B3 JUMP JUMPDEST SWAP3 POP POP PUSH1 0x60 PUSH2 0x255 DUP8 DUP3 DUP9 ADD PUSH2 0x1E9 JUMP JUMPDEST SWAP2 POP POP SWAP3 SWAP6 SWAP2 SWAP5 POP SWAP3 POP JUMP JUMPDEST PUSH1 0x80 MLOAD PUSH1 0xA0 MLOAD PUSH2 0x1457 PUSH2 0x297 PUSH0 CODECOPY PUSH0 DUP2 DUP2 PUSH2 0x5F4 ADD MSTORE PUSH2 0xB59 ADD MSTORE PUSH0 DUP2 DUP2 PUSH2 0x1C8 ADD MSTORE DUP2 DUP2 PUSH2 0x6CD ADD MSTORE PUSH2 0xABB ADD MSTORE PUSH2 0x1457 PUSH0 RETURN INVALID PUSH1 0x80 PUSH1 0x40 MSTORE CALLVALUE DUP1 ISZERO PUSH2 0xF JUMPI PUSH0 PUSH0 REVERT JUMPDEST POP PUSH1 0x4 CALLDATASIZE LT PUSH2 0x86 JUMPI PUSH0 CALLDATALOAD PUSH1 0xE0 SHR DUP1 PUSH4 0x514EA4BF GT PUSH2 0x59 JUMPI DUP1 PUSH4 0x514EA4BF EQ PUSH2 0x116 JUMPI DUP1 PUSH4 0xD21220A7 EQ PUSH2 0x146 JUMPI DUP1 PUSH4 0xE3547335 EQ PUSH2 0x164 JUMPI DUP1 PUSH4 0xF30DBA93 EQ PUSH2 0x195 JUMPI PUSH2 0x86 JUMP JUMPDEST DUP1 PUSH4 0xDFE1681 EQ PUSH2 0x8A JUMPI DUP1 PUSH4 0x1A686502 EQ PUSH2 0xA8 JUMPI DUP1 PUSH4 0x3850C7BD EQ PUSH2 0xC6 JUMPI DUP1 PUSH4 0x3C8A7D8D EQ PUSH2 0xE5 JUMPI JUMPDEST PUSH0 PUSH0 REVERT JUMPDEST PUSH2 0x92 PUSH2 0x1C6 JUMP JUMPDEST PUSH1 0x40 MLOAD PUSH2 0x9F SWAP2 SWAP1 PUSH2 0xC33 JUMP JUMPDEST PUSH1 0x40 MLOAD DUP1 SWAP2 SUB SWAP1 RETURN JUMPDEST PUSH2 0xB0 PUSH2 0x1EA JUMP JUMPDEST PUSH1 0x40 MLOAD PUSH2 0xBD SWAP2 SWAP1 PUSH2 0xC76 JUMP JUMPDEST PUSH1 0x40 MLOAD DUP1 SWAP2 SUB SWAP1 RETURN JUMPDEST PUSH2 0xCE PUSH2 0x20B JUMP JUMPDEST PUSH1 0x40 MLOAD PUSH2 0xDC SWAP3 SWAP2 SWAP1 PUSH2 0xCB9 JUMP JUMPDEST PUSH1 0x40 MLOAD DUP1 SWAP2 SUB SWAP1 RETURN JUMPDEST PUSH2 0xFF PUSH1 0x4 DUP1 CALLDATASIZE SUB DUP2 ADD SWAP1 PUSH2 0xFA SWAP2 SWAP1 PUSH2 0xDC7 JUMP JUMPDEST PUSH2 0x246 JUMP JUMPDEST PUSH1 0x40 MLOAD PUSH2 0x10D SWAP3 SWAP2 SWAP1 PUSH2 0xE75 JUMP JUMPDEST PUSH1 0x40 MLOAD DUP1 SWAP2 SUB SWAP1 RETURN JUMPDEST PUSH2 0x130 PUSH1 0x4 DUP1 CALLDATASIZE SUB DUP2 ADD SWAP1 PUSH2 0x12B SWAP2 SWAP1 PUSH2 0xECF JUMP JUMPDEST PUSH2 0x5BD JUMP JUMPDEST PUSH1 0x40 MLOAD PUSH2 0x13D SWAP2 SWAP1 PUSH2 0xC76 JUMP JUMPDEST PUSH1 0x40 MLOAD DUP1 SWAP2 SUB SWAP1 RETURN JUMPDEST PUSH2 0x14E PUSH2 0x5F2 JUMP JUMPDEST PUSH1 0x40 MLOAD PUSH2 0x15B SWAP2 SWAP1 PUSH2 0xC33 JUMP JUMPDEST PUSH1 0x40 MLOAD DUP1 SWAP2 SUB SWAP1 RETURN JUMPDEST PUSH2 0x17E PUSH1 0x4 DUP1 CALLDATASIZE SUB DUP2 ADD SWAP1 PUSH2 0x179 SWAP2 SWAP1 PUSH2 0xEFA JUMP JUMPDEST PUSH2 0x616 JUMP JUMPDEST PUSH1 0x40 MLOAD PUSH2 0x18C SWAP3 SWAP2 SWAP1 PUSH2 0xF6F JUMP JUMPDEST PUSH1 0x40 MLOAD DUP1 SWAP2 SUB SWAP1 RETURN JUMPDEST PUSH2 0x1AF PUSH1 0x4 DUP1 CALLDATASIZE SUB DUP2 ADD SWAP1 PUSH2 0x1AA SWAP2 SWAP1 PUSH2 0xF96 JUMP JUMPDEST PUSH2 0x8FA JUMP JUMPDEST PUSH1 0x40 MLOAD PUSH2 0x1BD SWAP3 SWAP2 SWAP1 PUSH2 0xFDB JUMP JUMPDEST PUSH1 0x40 MLOAD DUP1 SWAP2 SUB SWAP1 RETURN JUMPDEST PUSH32 0x0 DUP2 JUMP JUMPDEST PUSH1 0x1 PUSH0 SWAP1 SLOAD SWAP1 PUSH2 0x100 EXP SWAP1 DIV PUSH16 0xFFFFFFFFFFFFFFFFFFFFFFFFFFFFFFFF AND DUP2 JUMP JUMPDEST PUSH0 DUP1 PUSH0 ADD PUSH0 SWAP1 SLOAD SWAP1 PUSH2 0x100 EXP SWAP1 DIV PUSH20 0xFFFFFFFFFFFFFFFFFFFFFFFFFFFFFFFFFFFFFFFF AND SWAP1 DUP1 PUSH0 ADD PUSH1 0x14 SWAP1 SLOAD SWAP1 PUSH2 0x100 EXP SWAP1 DIV PUSH1 0x2 SIGNEXTEND SWAP1 POP DUP3 JUMP JUMPDEST PUSH0 PUSH0 DUP6 PUSH1 0x2 SIGNEXTEND DUP8 PUSH1 0x2 SIGNEXTEND SLT ISZERO DUP1 PUSH2 0x282 JUMPI POP PUSH32 0xFFFFFFFFFFFFFFFFFFFFFFFFFFFFFFFFFFFFFFFFFFFFFFFFFFFFFFFFFFF27618 PUSH1 0x2 SIGNEXTEND DUP8 PUSH1 0x2 SIGNEXTEND SLT JUMPDEST DUP1 PUSH2 0x2BB JUMPI POP PUSH32 0xFFFFFFFFFFFFFFFFFFFFFFFFFFFFFFFFFFFFFFFFFFFFFFFFFFFFFFFFFFF27618 PUSH2 0x2B2 SWAP1 PUSH2 0x102F JUMP JUMPDEST PUSH1 0x2 SIGNEXTEND DUP7 PUSH1 0x2 SIGNEXTEND SGT JUMPDEST ISZERO PUSH2 0x2F2 JUMPI PUSH1 0x40 MLOAD PUSH32 0x64847D000000000000000000000000000000000000000000000000000000000 DUP2 MSTORE PUSH1 0x4 ADD PUSH1 0x40 MLOAD DUP1 SWAP2 SUB SWAP1 REVERT JUMPDEST PUSH0 DUP6 PUSH16 0xFFFFFFFFFFFFFFFFFFFFFFFFFFFFFFFF AND SUB PUSH2 0x33D JUMPI PUSH1 0x40 MLOAD PUSH32 0x1007454800000000000000000000000000000000000000000000000000000000 DUP2 MSTORE PUSH1 0x4 ADD PUSH1 0x40 MLOAD DUP1 SWAP2 SUB SWAP1 REVERT JUMPDEST PUSH2 0x353 DUP8 DUP7 PUSH1 0x2 PUSH2 0x941 SWAP1 SWAP3 SWAP2 SWAP1 PUSH4 0xFFFFFFFF AND JUMP JUMPDEST PUSH2 0x369 DUP7 DUP7 PUSH1 0x2 PUSH2 0x941 SWAP1 SWAP3 SWAP2 SWAP1 PUSH4 0xFFFFFFFF AND JUMP JUMPDEST PUSH0 PUSH2 0x382 DUP10 DUP10 DUP10 PUSH1 0x3 PUSH2 0xA03 SWAP1 SWAP4 SWAP3 SWAP2 SWAP1 PUSH4 0xFFFFFFFF AND JUMP JUMPDEST SWAP1 POP PUSH2 0x397 DUP7 DUP3 PUSH2 0xA48 SWAP1 SWAP2 SWAP1 PUSH4 0xFFFFFFFF AND JUMP JUMPDEST PUSH8 0xDDD13F10B84EE00 SWAP3 POP PUSH10 0x10F0CF064DD59200000 SWAP2 POP DUP6 PUSH1 0x1 PUSH0 DUP3 DUP3 DUP3 SWAP1 SLOAD SWAP1 PUSH2 0x100 EXP SWAP1 DIV PUSH16 0xFFFFFFFFFFFFFFFFFFFFFFFFFFFFFFFF AND PUSH2 0x3DB SWAP2 SWAP1 PUSH2 0x1075 JUMP JUMPDEST SWAP3 POP PUSH2 0x100 EXP DUP2 SLOAD DUP2 PUSH16 0xFFFFFFFFFFFFFFFFFFFFFFFFFFFFFFFF MUL NOT AND SWAP1 DUP4 PUSH16 0xFFFFFFFFFFFFFFFFFFFFFFFFFFFFFFFF AND MUL OR SWAP1 SSTORE POP PUSH0 PUSH0 PUSH0 DUP6 GT ISZERO PUSH2 0x426 JUMPI PUSH2 0x423 PUSH2 0xAB8 JUMP JUMPDEST SWAP2 POP JUMPDEST PUSH0 DUP5 GT ISZERO PUSH2 0x439 JUMPI PUSH2 0x436 PUSH2 0xB56 JUMP JUMPDEST SWAP1 POP JUMPDEST CALLER PUSH20 0xFFFFFFFFFFFFFFFFFFFFFFFFFFFFFFFFFFFFFFFF AND PUSH4 0xD3487997 DUP7 DUP7 DUP11 DUP11 PUSH1 0x40 MLOAD DUP6 PUSH4 0xFFFFFFFF AND PUSH1 0xE0 SHL DUP2 MSTORE PUSH1 0x4 ADD PUSH2 0x478 SWAP5 SWAP4 SWAP3 SWAP2 SWAP1 PUSH2 0x1112 JUMP JUMPDEST PUSH0 PUSH1 0x40 MLOAD DUP1 DUP4 SUB DUP2 PUSH0 DUP8 DUP1 EXTCODESIZE ISZERO DUP1 ISZERO PUSH2 0x48F JUMPI PUSH0 PUSH0 REVERT JUMPDEST POP GAS CALL ISZERO DUP1 ISZERO PUSH2 0x4A1 JUMPI RETURNDATASIZE PUSH0 PUSH0 RETURNDATACOPY RETURNDATASIZE PUSH0 REVERT JUMPDEST POP POP POP POP PUSH0 DUP6 GT DUP1 ISZERO PUSH2 0x4C5 JUMPI POP PUSH2 0x4B7 PUSH2 0xAB8 JUMP JUMPDEST DUP6 DUP4 PUSH2 0x4C3 SWAP2 SWAP1 PUSH2 0x1150 JUMP JUMPDEST GT JUMPDEST ISZERO PUSH2 0x4FC JUMPI PUSH1 0x40 MLOAD PUSH32 0x98FB56100000000000000000000000000000000000000000000000000000000 DUP2 MSTORE PUSH1 0x4 ADD PUSH1 0x40 MLOAD DUP1 SWAP2 SUB SWAP1 REVERT JUMPDEST PUSH0 DUP5 GT DUP1 ISZERO PUSH2 0x51C JUMPI POP PUSH2 0x50E PUSH2 0xB56 JUMP JUMPDEST DUP5 DUP3 PUSH2 0x51A SWAP2 SWAP1 PUSH2 0x1150 JUMP JUMPDEST GT JUMPDEST ISZERO PUSH2 0x553 JUMPI PUSH1 0x40 MLOAD PUSH32 0x98FB56100000000000000000000000000000000000000000000000000000000 DUP2 MSTORE PUSH1 0x4 ADD PUSH1 0x40 MLOAD DUP1 SWAP2 SUB SWAP1 REVERT JUMPDEST DUP9 PUSH1 0x2 SIGNEXTEND DUP11 PUSH1 0x2 SIGNEXTEND DUP13 PUSH20 0xFFFFFFFFFFFFFFFFFFFFFFFFFFFFFFFFFFFFFFFF AND PUSH32 0x7A53080BA414158BE7EC69B987B5FB7D07DEE101FE85488F0853AE16239D0BDE CALLER DUP13 DUP11 DUP11 PUSH1 0x40 MLOAD PUSH2 0x5A7 SWAP5 SWAP4 SWAP3 SWAP2 SWAP1 PUSH2 0x1183 JUMP JUMPDEST PUSH1 0x40 MLOAD DUP1 SWAP2 SUB SWAP1 LOG4 POP POP POP SWAP7 POP SWAP7 SWAP5 POP POP POP POP POP JUMP JUMPDEST PUSH1 0x3 PUSH1 0x20 MSTORE DUP1 PUSH0 MSTORE PUSH1 0x40 PUSH0 KECCAK256 PUSH0 SWAP2 POP SWAP1 POP DUP1 PUSH0 ADD PUSH0 SWAP1 SLOAD SWAP1 PUSH2 0x100 EXP SWAP1 DIV PUSH16 0xFFFFFFFFFFFFFFFFFFFFFFFFFFFFFFFF AND SWAP1 POP DUP2 JUMP JUMPDEST PUSH32 0x0 DUP2 JUMP JUMPDEST PUSH0 PUSH0 PUSH0 PUSH3 0x14CC0 SWAP1 POP PUSH0 PUSH13 0x46BD046408013D67ED5D406B2D SWAP1 POP PUSH32 0xFFFFFFFFFFFFFFFFFFFFFFFFFFFFFFFFFFFFFFFFFFFFFFFFFFE22B3B9E50C0F4 SWAP4 POP PUSH9 0x246DDF97976680000 SWAP3 POP DUP2 DUP2 PUSH0 PUSH0 ADD PUSH1 0x14 PUSH0 PUSH0 ADD PUSH0 DUP5 SWAP2 SWAP1 PUSH2 0x100 EXP DUP2 SLOAD DUP2 PUSH20 0xFFFFFFFFFFFFFFFFFFFFFFFFFFFFFFFFFFFFFFFF MUL NOT AND SWAP1 DUP4 PUSH20 0xFFFFFFFFFFFFFFFFFFFFFFFFFFFFFFFFFFFFFFFF AND MUL OR SWAP1 SSTORE POP DUP4 SWAP2 SWAP1 PUSH2 0x100 EXP DUP2 SLOAD DUP2 PUSH3 0xFFFFFF MUL NOT AND SWAP1 DUP4 PUSH1 0x2 SIGNEXTEND PUSH3 0xFFFFFF AND MUL OR SWAP1 SSTORE POP POP POP PUSH32 0x0 PUSH20 0xFFFFFFFFFFFFFFFFFFFFFFFFFFFFFFFFFFFFFFFF AND PUSH4 0xA9059CBB DUP9 DUP7 PUSH2 0x712 SWAP1 PUSH2 0x11C6 JUMP JUMPDEST PUSH1 0x40 MLOAD DUP4 PUSH4 0xFFFFFFFF AND PUSH1 0xE0 SHL DUP2 MSTORE PUSH1 0x4 ADD PUSH2 0x72F SWAP3 SWAP2 SWAP1 PUSH2 0x120C JUMP JUMPDEST PUSH1 0x20 PUSH1 0x40 MLOAD DUP1 DUP4 SUB DUP2 PUSH0 DUP8 GAS CALL ISZERO DUP1 ISZERO PUSH2 0x74B JUMPI RETURNDATASIZE PUSH0 PUSH0 RETURNDATACOPY RETURNDATASIZE PUSH0 REVERT JUMPDEST POP POP POP POP PUSH1 0x40 MLOAD RETURNDATASIZE PUSH1 0x1F NOT PUSH1 0x1F DUP3 ADD AND DUP3 ADD DUP1 PUSH1 0x40 MSTORE POP DUP2 ADD SWAP1 PUSH2 0x76F SWAP2 SWAP1 PUSH2 0x125D JUMP JUMPDEST POP PUSH0 PUSH2 0x779 PUSH2 0xB56 JUMP JUMPDEST SWAP1 POP CALLER PUSH20 0xFFFFFFFFFFFFFFFFFFFFFFFFFFFFFFFFFFFFFFFF AND PUSH4 0xFA461E33 DUP7 DUP7 DUP11 DUP11 PUSH1 0x40 MLOAD DUP6 PUSH4 0xFFFFFFFF AND PUSH1 0xE0 SHL DUP2 MSTORE PUSH1 0x4 ADD PUSH2 0x7BA SWAP5 SWAP4 SWAP3 SWAP2 SWAP1 PUSH2 0x1288 JUMP JUMPDEST PUSH0 PUSH1 0x40 MLOAD DUP1 DUP4 SUB DUP2 PUSH0 DUP8 DUP1 EXTCODESIZE ISZERO DUP1 ISZERO PUSH2 0x7D1 JUMPI PUSH0 PUSH0 REVERT JUMPDEST POP GAS CALL ISZERO DUP1 ISZERO PUSH2 0x7E3 JUMPI RETURNDATASIZE PUSH0 PUSH0 RETURNDATACOPY RETURNDATASIZE PUSH0 REVERT JUMPDEST POP POP POP POP PUSH2 0x7EF PUSH2 0xB56 JUMP JUMPDEST DUP5 DUP3 PUSH2 0x7FB SWAP2 SWAP1 PUSH2 0x1150 JUMP JUMPDEST LT ISZERO PUSH2 0x833 JUMPI PUSH1 0x40 MLOAD PUSH32 0x98FB56100000000000000000000000000000000000000000000000000000000 DUP2 MSTORE PUSH1 0x4 ADD PUSH1 0x40 MLOAD DUP1 SWAP2 SUB SWAP1 REVERT JUMPDEST DUP8 PUSH20 0xFFFFFFFFFFFFFFFFFFFFFFFFFFFFFFFFFFFFFFFF AND CALLER PUSH20 0xFFFFFFFFFFFFFFFFFFFFFFFFFFFFFFFFFFFFFFFF AND PUSH32 0xC42079F94A6350D7E6235F29174924F928CC2AC818EB64FED8004E115FBCCA67 DUP8 DUP8 PUSH0 PUSH0 ADD PUSH0 SWAP1 SLOAD SWAP1 PUSH2 0x100 EXP SWAP1 DIV PUSH20 0xFFFFFFFFFFFFFFFFFFFFFFFFFFFFFFFFFFFFFFFF AND PUSH1 0x1 PUSH0 SWAP1 SLOAD SWAP1 PUSH2 0x100 EXP SWAP1 DIV PUSH16 0xFFFFFFFFFFFFFFFFFFFFFFFFFFFFFFFF AND PUSH0 PUSH0 ADD PUSH1 0x14 SWAP1 SLOAD SWAP1 PUSH2 0x100 EXP SWAP1 DIV PUSH1 0x2 SIGNEXTEND PUSH1 0x40 MLOAD PUSH2 0x8E7 SWAP6 SWAP5 SWAP4 SWAP3 SWAP2 SWAP1 PUSH2 0x12C6 JUMP JUMPDEST PUSH1 0x40 MLOAD DUP1 SWAP2 SUB SWAP1 LOG3 POP POP POP SWAP4 POP SWAP4 SWAP2 POP POP JUMP JUMPDEST PUSH1 0x2 PUSH1 0x20 MSTORE DUP1 PUSH0 MSTORE PUSH1 0x40 PUSH0 KECCAK256 PUSH0 SWAP2 POP SWAP1 POP DUP1 PUSH0 ADD PUSH0 SWAP1 SLOAD SWAP1 PUSH2 0x100 EXP SWAP1 DIV PUSH1 0xFF AND SWAP1 DUP1 PUSH0 ADD PUSH1 0x1 SWAP1 SLOAD SWAP1 PUSH2 0x100 EXP SWAP1 DIV PUSH16 0xFFFFFFFFFFFFFFFFFFFFFFFFFFFFFFFF AND SWAP1 POP DUP3 JUMP JUMPDEST PUSH0 DUP4 PUSH0 DUP5 PUSH1 0x2 SIGNEXTEND PUSH1 0x2 SIGNEXTEND DUP2 MSTORE PUSH1 0x20 ADD SWAP1 DUP2 MSTORE PUSH1 0x20 ADD PUSH0 KECCAK256 SWAP1 POP PUSH0 DUP2 PUSH0 ADD PUSH1 0x1 SWAP1 SLOAD SWAP1 PUSH2 0x100 EXP SWAP1 DIV PUSH16 0xFFFFFFFFFFFFFFFFFFFFFFFFFFFFFFFF AND SWAP1 POP PUSH0 DUP4 DUP3 PUSH2 0x98A SWAP2 SWAP1 PUSH2 0x1075 JUMP JUMPDEST SWAP1 POP PUSH0 DUP3 PUSH16 0xFFFFFFFFFFFFFFFFFFFFFFFFFFFFFFFF AND SUB PUSH2 0x9C1 JUMPI PUSH1 0x1 DUP4 PUSH0 ADD PUSH0 PUSH2 0x100 EXP DUP2 SLOAD DUP2 PUSH1 0xFF MUL NOT AND SWAP1 DUP4 ISZERO ISZERO MUL OR SWAP1 SSTORE POP JUMPDEST DUP1 DUP4 PUSH0 ADD PUSH1 0x1 PUSH2 0x100 EXP DUP2 SLOAD DUP2 PUSH16 0xFFFFFFFFFFFFFFFFFFFFFFFFFFFFFFFF MUL NOT AND SWAP1 DUP4 PUSH16 0xFFFFFFFFFFFFFFFFFFFFFFFFFFFFFFFF AND MUL OR SWAP1 SSTORE POP POP POP POP POP POP POP JUMP JUMPDEST PUSH0 DUP5 PUSH0 DUP6 DUP6 DUP6 PUSH1 0x40 MLOAD PUSH1 0x20 ADD PUSH2 0xA1B SWAP4 SWAP3 SWAP2 SWAP1 PUSH2 0x1390 JUMP JUMPDEST PUSH1 0x40 MLOAD PUSH1 0x20 DUP2 DUP4 SUB SUB DUP2 MSTORE SWAP1 PUSH1 0x40 MSTORE DUP1 MLOAD SWAP1 PUSH1 0x20 ADD KECCAK256 DUP2 MSTORE PUSH1 0x20 ADD SWAP1 DUP2 MSTORE PUSH1 0x20 ADD PUSH0 KECCAK256 SWAP1 POP SWAP5 SWAP4 POP POP POP POP JUMP JUMPDEST PUSH0 DUP3 PUSH0 ADD PUSH0 SWAP1 SLOAD SWAP1 PUSH2 0x100 EXP SWAP1 DIV PUSH16 0xFFFFFFFFFFFFFFFFFFFFFFFFFFFFFFFF AND SWAP1 POP PUSH0 DUP3 DUP3 PUSH2 0xA77 SWAP2 SWAP1 PUSH2 0x1075 JUMP JUMPDEST SWAP1 POP DUP1 DUP5 PUSH0 ADD PUSH0 PUSH2 0x100 EXP DUP2 SLOAD DUP2 PUSH16 0xFFFFFFFFFFFFFFFFFFFFFFFFFFFFFFFF MUL NOT AND SWAP1 DUP4 PUSH16 0xFFFFFFFFFFFFFFFFFFFFFFFFFFFFFFFF AND MUL OR SWAP1 SSTORE POP POP POP POP POP JUMP JUMPDEST PUSH0 PUSH32 0x0 PUSH20 0xFFFFFFFFFFFFFFFFFFFFFFFFFFFFFFFFFFFFFFFF AND PUSH4 0x70A08231 ADDRESS PUSH1 0x40 MLOAD DUP3 PUSH4 0xFFFFFFFF AND PUSH1 0xE0 SHL DUP2 MSTORE PUSH1 0x4 ADD PUSH2 0xB12 SWAP2 SWAP1 PUSH2 0xC33 JUMP JUMPDEST PUSH1 0x20 PUSH1 0x40 MLOAD DUP1 DUP4 SUB DUP2 DUP7 GAS STATICCALL ISZERO DUP1 ISZERO PUSH2 0xB2D JUMPI RETURNDATASIZE PUSH0 PUSH0 RETURNDATACOPY RETURNDATASIZE PUSH0 REVERT JUMPDEST POP POP POP POP PUSH1 0x40 MLOAD RETURNDATASIZE PUSH1 0x1F NOT PUSH1 0x1F DUP3 ADD AND DUP3 ADD DUP1 PUSH1 0x40 MSTORE POP DUP2 ADD SWAP1 PUSH2 0xB51 SWAP2 SWAP1 PUSH2 0x13F6 JUMP JUMPDEST SWAP1 POP SWAP1 JUMP JUMPDEST PUSH0 PUSH32 0x0 PUSH20 0xFFFFFFFFFFFFFFFFFFFFFFFFFFFFFFFFFFFFFFFF AND PUSH4 0x70A08231 ADDRESS PUSH1 0x40 MLOAD DUP3 PUSH4 0xFFFFFFFF AND PUSH1 0xE0 SHL DUP2 MSTORE PUSH1 0x4 ADD PUSH2 0xBB0 SWAP2 SWAP1 PUSH2 0xC33 JUMP JUMPDEST PUSH1 0x20 PUSH1 0x40 MLOAD DUP1 DUP4 SUB DUP2 DUP7 GAS STATICCALL ISZERO DUP1 ISZERO PUSH2 0xBCB JUMPI RETURNDATASIZE PUSH0 PUSH0 RETURNDATACOPY RETURNDATASIZE PUSH0 REVERT JUMPDEST POP POP POP POP PUSH1 0x40 MLOAD RETURNDATASIZE PUSH1 0x1F NOT PUSH1 0x1F DUP3 ADD AND DUP3 ADD DUP1 PUSH1 0x40 MSTORE POP DUP2 ADD SWAP1 PUSH2 0xBEF SWAP2 SWAP1 PUSH2 0x13F6 JUMP JUMPDEST SWAP1 POP SWAP1 JUMP JUMPDEST PUSH0 PUSH20 0xFFFFFFFFFFFFFFFFFFFFFFFFFFFFFFFFFFFFFFFF DUP3 AND SWAP1 POP SWAP2 SWAP1 POP JUMP JUMPDEST PUSH0 PUSH2 0xC1D DUP3 PUSH2 0xBF4 JUMP JUMPDEST SWAP1 POP SWAP2 SWAP1 POP JUMP JUMPDEST PUSH2 0xC2D DUP2 PUSH2 0xC13 JUMP JUMPDEST DUP3 MSTORE POP POP JUMP JUMPDEST PUSH0 PUSH1 0x20 DUP3 ADD SWAP1 POP PUSH2 0xC46 PUSH0 DUP4 ADD DUP5 PUSH2 0xC24 JUMP JUMPDEST SWAP3 SWAP2 POP POP JUMP JUMPDEST PUSH0 PUSH16 0xFFFFFFFFFFFFFFFFFFFFFFFFFFFFFFFF DUP3 AND SWAP1 POP SWAP2 SWAP1 POP JUMP JUMPDEST PUSH2 0xC70 DUP2 PUSH2 0xC4C JUMP JUMPDEST DUP3 MSTORE POP POP JUMP JUMPDEST PUSH0 PUSH1 0x20 DUP3 ADD SWAP1 POP PUSH2 0xC89 PUSH0 DUP4 ADD DUP5 PUSH2 0xC67 JUMP JUMPDEST SWAP3 SWAP2 POP POP JUMP JUMPDEST PUSH2 0xC98 DUP2 PUSH2 0xBF4 JUMP JUMPDEST DUP3 MSTORE POP POP JUMP JUMPDEST PUSH0 DUP2 PUSH1 0x2 SIGNEXTEND SWAP1 POP SWAP2 SWAP1 POP JUMP JUMPDEST PUSH2 0xCB3 DUP2 PUSH2 0xC9E JUMP JUMPDEST DUP3 MSTORE POP POP JUMP JUMPDEST PUSH0 PUSH1 0x40 DUP3 ADD SWAP1 POP PUSH2 0xCCC PUSH0 DUP4 ADD DUP6 PUSH2 0xC8F JUMP JUMPDEST PUSH2 0xCD9 PUSH1 0x20 DUP4 ADD DUP5 PUSH2 0xCAA JUMP JUMPDEST SWAP4 SWAP3 POP POP POP JUMP JUMPDEST PUSH0 PUSH0 REVERT JUMPDEST PUSH0 PUSH0 REVERT JUMPDEST PUSH2 0xCF1 DUP2 PUSH2 0xC13 JUMP JUMPDEST DUP2 EQ PUSH2 0xCFB JUMPI PUSH0 PUSH0 REVERT JUMPDEST POP JUMP JUMPDEST PUSH0 DUP2 CALLDATALOAD SWAP1 POP PUSH2 0xD0C DUP2 PUSH2 0xCE8 JUMP JUMPDEST SWAP3 SWAP2 POP POP JUMP JUMPDEST PUSH2 0xD1B DUP2 PUSH2 0xC9E JUMP JUMPDEST DUP2 EQ PUSH2 0xD25 JUMPI PUSH0 PUSH0 REVERT JUMPDEST POP JUMP JUMPDEST PUSH0 DUP2 CALLDATALOAD SWAP1 POP PUSH2 0xD36 DUP2 PUSH2 0xD12 JUMP JUMPDEST SWAP3 SWAP2 POP POP JUMP JUMPDEST PUSH2 0xD45 DUP2 PUSH2 0xC4C JUMP JUMPDEST DUP2 EQ PUSH2 0xD4F JUMPI PUSH0 PUSH0 REVERT JUMPDEST POP JUMP JUMPDEST PUSH0 DUP2 CALLDATALOAD SWAP1 POP PUSH2 0xD60 DUP2 PUSH2 0xD3C JUMP JUMPDEST SWAP3 SWAP2 POP POP JUMP JUMPDEST PUSH0 PUSH0 REVERT JUMPDEST PUSH0 PUSH0 REVERT JUMPDEST PUSH0 PUSH0 REVERT JUMPDEST PUSH0 PUSH0 DUP4 PUSH1 0x1F DUP5 ADD SLT PUSH2 0xD87 JUMPI PUSH2 0xD86 PUSH2 0xD66 JUMP JUMPDEST JUMPDEST DUP3 CALLDATALOAD SWAP1 POP PUSH8 0xFFFFFFFFFFFFFFFF DUP2 GT ISZERO PUSH2 0xDA4 JUMPI PUSH2 0xDA3 PUSH2 0xD6A JUMP JUMPDEST JUMPDEST PUSH1 0x20 DUP4 ADD SWAP2 POP DUP4 PUSH1 0x1 DUP3 MUL DUP4 ADD GT ISZERO PUSH2 0xDC0 JUMPI PUSH2 0xDBF PUSH2 0xD6E JUMP JUMPDEST JUMPDEST SWAP3 POP SWAP3 SWAP1 POP JUMP JUMPDEST PUSH0 PUSH0 PUSH0 PUSH0 PUSH0 PUSH0 PUSH1 0xA0 DUP8 DUP10 SUB SLT ISZERO PUSH2 0xDE1 JUMPI PUSH2 0xDE0 PUSH2 0xCE0 JUMP JUMPDEST JUMPDEST PUSH0 PUSH2 0xDEE DUP10 DUP3 DUP11 ADD PUSH2 0xCFE JUMP JUMPDEST SWAP7 POP POP PUSH1 0x20 PUSH2 0xDFF DUP10 DUP3 DUP11 ADD PUSH2 0xD28 JUMP JUMPDEST SWAP6 POP POP PUSH1 0x40 PUSH2 0xE10 DUP10 DUP3 DUP11 ADD PUSH2 0xD28 JUMP JUMPDEST SWAP5 POP POP PUSH1 0x60 PUSH2 0xE21 DUP10 DUP3 DUP11 ADD PUSH2 0xD52 JUMP JUMPDEST SWAP4 POP POP PUSH1 0x80 DUP8 ADD CALLDATALOAD PUSH8 0xFFFFFFFFFFFFFFFF DUP2 GT ISZERO PUSH2 0xE42 JUMPI PUSH2 0xE41 PUSH2 0xCE4 JUMP JUMPDEST JUMPDEST PUSH2 0xE4E DUP10 DUP3 DUP11 ADD PUSH2 0xD72 JUMP JUMPDEST SWAP3 POP SWAP3 POP POP SWAP3 SWAP6 POP SWAP3 SWAP6 POP SWAP3 SWAP6 JUMP JUMPDEST PUSH0 DUP2 SWAP1 POP SWAP2 SWAP1 POP JUMP JUMPDEST PUSH2 0xE6F DUP2 PUSH2 0xE5D JUMP JUMPDEST DUP3 MSTORE POP POP JUMP JUMPDEST PUSH0 PUSH1 0x40 DUP3 ADD SWAP1 POP PUSH2 0xE88 PUSH0 DUP4 ADD DUP6 PUSH2 0xE66 JUMP JUMPDEST PUSH2 0xE95 PUSH1 0x20 DUP4 ADD DUP5 PUSH2 0xE66 JUMP JUMPDEST SWAP4 SWAP3 POP POP POP JUMP JUMPDEST PUSH0 DUP2 SWAP1 POP SWAP2 SWAP1 POP JUMP JUMPDEST PUSH2 0xEAE DUP2 PUSH2 0xE9C JUMP JUMPDEST DUP2 EQ PUSH2 0xEB8 JUMPI PUSH0 PUSH0 REVERT JUMPDEST POP JUMP JUMPDEST PUSH0 DUP2 CALLDATALOAD SWAP1 POP PUSH2 0xEC9 DUP2 PUSH2 0xEA5 JUMP JUMPDEST SWAP3 SWAP2 POP POP JUMP JUMPDEST PUSH0 PUSH1 0x20 DUP3 DUP5 SUB SLT ISZERO PUSH2 0xEE4 JUMPI PUSH2 0xEE3 PUSH2 0xCE0 JUMP JUMPDEST JUMPDEST PUSH0 PUSH2 0xEF1 DUP5 DUP3 DUP6 ADD PUSH2 0xEBB JUMP JUMPDEST SWAP2 POP POP SWAP3 SWAP2 POP POP JUMP JUMPDEST PUSH0 PUSH0 PUSH0 PUSH1 0x40 DUP5 DUP7 SUB SLT ISZERO PUSH2 0xF11 JUMPI PUSH2 0xF10 PUSH2 0xCE0 JUMP JUMPDEST JUMPDEST PUSH0 PUSH2 0xF1E DUP7 DUP3 DUP8 ADD PUSH2 0xCFE JUMP JUMPDEST SWAP4 POP POP PUSH1 0x20 DUP5 ADD CALLDATALOAD PUSH8 0xFFFFFFFFFFFFFFFF DUP2 GT ISZERO PUSH2 0xF3F JUMPI PUSH2 0xF3E PUSH2 0xCE4 JUMP JUMPDEST JUMPDEST PUSH2 0xF4B DUP7 DUP3 DUP8 ADD PUSH2 0xD72 JUMP JUMPDEST SWAP3 POP SWAP3 POP POP SWAP3 POP SWAP3 POP SWAP3 JUMP JUMPDEST PUSH0 DUP2 SWAP1 POP SWAP2 SWAP1 POP JUMP JUMPDEST PUSH2 0xF69 DUP2 PUSH2 0xF57 JUMP JUMPDEST DUP3 MSTORE POP POP JUMP JUMPDEST PUSH0 PUSH1 0x40 DUP3 ADD SWAP1 POP PUSH2 0xF82 PUSH0 DUP4 ADD DUP6 PUSH2 0xF60 JUMP JUMPDEST PUSH2 0xF8F PUSH1 0x20 DUP4 ADD DUP5 PUSH2 0xF60 JUMP JUMPDEST SWAP4 SWAP3 POP POP POP JUMP JUMPDEST PUSH0 PUSH1 0x20 DUP3 DUP5 SUB SLT ISZERO PUSH2 0xFAB JUMPI PUSH2 0xFAA PUSH2 0xCE0 JUMP JUMPDEST JUMPDEST PUSH0 PUSH2 0xFB8 DUP5 DUP3 DUP6 ADD PUSH2 0xD28 JUMP JUMPDEST SWAP2 POP POP SWAP3 SWAP2 POP POP JUMP JUMPDEST PUSH0 DUP2 ISZERO ISZERO SWAP1 POP SWAP2 SWAP1 POP JUMP JUMPDEST PUSH2 0xFD5 DUP2 PUSH2 0xFC1 JUMP JUMPDEST DUP3 MSTORE POP POP JUMP JUMPDEST PUSH0 PUSH1 0x40 DUP3 ADD SWAP1 POP PUSH2 0xFEE PUSH0 DUP4 ADD DUP6 PUSH2 0xFCC JUMP JUMPDEST PUSH2 0xFFB PUSH1 0x20 DUP4 ADD DUP5 PUSH2 0xC67 JUMP JUMPDEST SWAP4 SWAP3 POP POP POP JUMP JUMPDEST PUSH32 0x4E487B7100000000000000000000000000000000000000000000000000000000 PUSH0 MSTORE PUSH1 0x11 PUSH1 0x4 MSTORE PUSH1 0x24 PUSH0 REVERT JUMPDEST PUSH0 PUSH2 0x1039 DUP3 PUSH2 0xC9E JUMP JUMPDEST SWAP2 POP PUSH32 0xFFFFFFFFFFFFFFFFFFFFFFFFFFFFFFFFFFFFFFFFFFFFFFFFFFFFFFFFFF800000 DUP3 SUB PUSH2 0x106B JUMPI PUSH2 0x106A PUSH2 0x1002 JUMP JUMPDEST JUMPDEST DUP2 PUSH0 SUB SWAP1 POP SWAP2 SWAP1 POP JUMP JUMPDEST PUSH0 PUSH2 0x107F DUP3 PUSH2 0xC4C JUMP JUMPDEST SWAP2 POP PUSH2 0x108A DUP4 PUSH2 0xC4C JUMP JUMPDEST SWAP3 POP DUP3 DUP3 ADD SWAP1 POP PUSH16 0xFFFFFFFFFFFFFFFFFFFFFFFFFFFFFFFF DUP2 GT ISZERO PUSH2 0x10B2 JUMPI PUSH2 0x10B1 PUSH2 0x1002 JUMP JUMPDEST JUMPDEST SWAP3 SWAP2 POP POP JUMP JUMPDEST PUSH0 DUP3 DUP3 MSTORE PUSH1 0x20 DUP3 ADD SWAP1 POP SWAP3 SWAP2 POP POP JUMP JUMPDEST DUP3 DUP2 DUP4 CALLDATACOPY PUSH0 DUP4 DUP4 ADD MSTORE POP POP POP JUMP JUMPDEST PUSH0 PUSH1 0x1F NOT PUSH1 0x1F DUP4 ADD AND SWAP1 POP SWAP2 SWAP1 POP JUMP JUMPDEST PUSH0 PUSH2 0x10F1 DUP4 DUP6 PUSH2 0x10B8 JUMP JUMPDEST SWAP4 POP PUSH2 0x10FE DUP4 DUP6 DUP5 PUSH2 0x10C8 JUMP JUMPDEST PUSH2 0x1107 DUP4 PUSH2 0x10D6 JUMP JUMPDEST DUP5 ADD SWAP1 POP SWAP4 SWAP3 POP POP POP JUMP JUMPDEST PUSH0 PUSH1 0x60 DUP3 ADD SWAP1 POP PUSH2 0x1125 PUSH0 DUP4 ADD DUP8 PUSH2 0xE66 JUMP JUMPDEST PUSH2 0x1132 PUSH1 0x20 DUP4 ADD DUP7 PUSH2 0xE66 JUMP JUMPDEST DUP2 DUP2 SUB PUSH1 0x40 DUP4 ADD MSTORE PUSH2 0x1145 DUP2 DUP5 DUP7 PUSH2 0x10E6 JUMP JUMPDEST SWAP1 POP SWAP6 SWAP5 POP POP POP POP POP JUMP JUMPDEST PUSH0 PUSH2 0x115A DUP3 PUSH2 0xE5D JUMP JUMPDEST SWAP2 POP PUSH2 0x1165 DUP4 PUSH2 0xE5D JUMP JUMPDEST SWAP3 POP DUP3 DUP3 ADD SWAP1 POP DUP1 DUP3 GT ISZERO PUSH2 0x117D JUMPI PUSH2 0x117C PUSH2 0x1002 JUMP JUMPDEST JUMPDEST SWAP3 SWAP2 POP POP JUMP JUMPDEST PUSH0 PUSH1 0x80 DUP3 ADD SWAP1 POP PUSH2 0x1196 PUSH0 DUP4 ADD DUP8 PUSH2 0xC24 JUMP JUMPDEST PUSH2 0x11A3 PUSH1 0x20 DUP4 ADD DUP7 PUSH2 0xC67 JUMP JUMPDEST PUSH2 0x11B0 PUSH1 0x40 DUP4 ADD DUP6 PUSH2 0xE66 JUMP JUMPDEST PUSH2 0x11BD PUSH1 0x60 DUP4 ADD DUP5 PUSH2 0xE66 JUMP JUMPDEST SWAP6 SWAP5 POP POP POP POP POP JUMP JUMPDEST PUSH0 PUSH2 0x11D0 DUP3 PUSH2 0xF57 JUMP JUMPDEST SWAP2 POP PUSH32 0x8000000000000000000000000000000000000000000000000000000000000000 DUP3 SUB PUSH2 0x1202 JUMPI PUSH2 0x1201 PUSH2 0x1002 JUMP JUMPDEST JUMPDEST DUP2 PUSH0 SUB SWAP1 POP SWAP2 SWAP1 POP JUMP JUMPDEST PUSH0 PUSH1 0x40 DUP3 ADD SWAP1 POP PUSH2 0x121F PUSH0 DUP4 ADD DUP6 PUSH2 0xC24 JUMP JUMPDEST PUSH2 0x122C PUSH1 0x20 DUP4 ADD DUP5 PUSH2 0xE66 JUMP JUMPDEST SWAP4 SWAP3 POP POP POP JUMP JUMPDEST PUSH2 0x123C DUP2 PUSH2 0xFC1 JUMP JUMPDEST DUP2 EQ PUSH2 0x1246 JUMPI PUSH0 PUSH0 REVERT JUMPDEST POP JUMP JUMPDEST PUSH0 DUP2 MLOAD SWAP1 POP PUSH2 0x1257 DUP2 PUSH2 0x1233 JUMP JUMPDEST SWAP3 SWAP2 POP POP JUMP JUMPDEST PUSH0 PUSH1 0x20 DUP3 DUP5 SUB SLT ISZERO PUSH2 0x1272 JUMPI PUSH2 0x1271 PUSH2 0xCE0 JUMP JUMPDEST JUMPDEST PUSH0 PUSH2 0x127F DUP5 DUP3 DUP6 ADD PUSH2 0x1249 JUMP JUMPDEST SWAP2 POP POP SWAP3 SWAP2 POP POP JUMP JUMPDEST PUSH0 PUSH1 0x60 DUP3 ADD SWAP1 POP PUSH2 0x129B PUSH0 DUP4 ADD DUP8 PUSH2 0xF60 JUMP JUMPDEST PUSH2 0x12A8 PUSH1 0x20 DUP4 ADD DUP7 PUSH2 0xF60 JUMP JUMPDEST DUP2 DUP2 SUB PUSH1 0x40 DUP4 ADD MSTORE PUSH2 0x12BB DUP2 DUP5 DUP7 PUSH2 0x10E6 JUMP JUMPDEST SWAP1 POP SWAP6 SWAP5 POP POP POP POP POP JUMP JUMPDEST PUSH0 PUSH1 0xA0 DUP3 ADD SWAP1 POP PUSH2 0x12D9 PUSH0 DUP4 ADD DUP9 PUSH2 0xF60 JUMP JUMPDEST PUSH2 0x12E6 PUSH1 0x20 DUP4 ADD DUP8 PUSH2 0xF60 JUMP JUMPDEST PUSH2 0x12F3 PUSH1 0x40 DUP4 ADD DUP7 PUSH2 0xC8F JUMP JUMPDEST PUSH2 0x1300 PUSH1 0x60 DUP4 ADD DUP6 PUSH2 0xC67 JUMP JUMPDEST PUSH2 0x130D PUSH1 0x80 DUP4 ADD DUP5 PUSH2 0xCAA JUMP JUMPDEST SWAP7 SWAP6 POP POP POP POP POP POP JUMP JUMPDEST PUSH0 DUP2 PUSH1 0x60 SHL SWAP1 POP SWAP2 SWAP1 POP JUMP JUMPDEST PUSH0 PUSH2 0x132D DUP3 PUSH2 0x1317 JUMP JUMPDEST SWAP1 POP SWAP2 SWAP1 POP JUMP JUMPDEST PUSH0 PUSH2 0x133E DUP3 PUSH2 0x1323 JUMP JUMPDEST SWAP1 POP SWAP2 SWAP1 POP JUMP JUMPDEST PUSH2 0x1356 PUSH2 0x1351 DUP3 PUSH2 0xC13 JUMP JUMPDEST PUSH2 0x1334 JUMP JUMPDEST DUP3 MSTORE POP POP JUMP JUMPDEST PUSH0 DUP2 PUSH1 0xE8 SHL SWAP1 POP SWAP2 SWAP1 POP JUMP JUMPDEST PUSH0 PUSH2 0x1372 DUP3 PUSH2 0x135C JUMP JUMPDEST SWAP1 POP SWAP2 SWAP1 POP JUMP JUMPDEST PUSH2 0x138A PUSH2 0x1385 DUP3 PUSH2 0xC9E JUMP JUMPDEST PUSH2 0x1368 JUMP JUMPDEST DUP3 MSTORE POP POP JUMP JUMPDEST PUSH0 PUSH2 0x139B DUP3 DUP7 PUSH2 0x1345 JUMP JUMPDEST PUSH1 0x14 DUP3 ADD SWAP2 POP PUSH2 0x13AB DUP3 DUP6 PUSH2 0x1379 JUMP JUMPDEST PUSH1 0x3 DUP3 ADD SWAP2 POP PUSH2 0x13BB DUP3 DUP5 PUSH2 0x1379 JUMP JUMPDEST PUSH1 0x3 DUP3 ADD SWAP2 POP DUP2 SWAP1 POP SWAP5 SWAP4 POP POP POP POP JUMP JUMPDEST PUSH2 0x13D5 DUP2 PUSH2 0xE5D JUMP JUMPDEST DUP2 EQ PUSH2 0x13DF JUMPI PUSH0 PUSH0 REVERT JUMPDEST POP JUMP JUMPDEST PUSH0 DUP2 MLOAD SWAP1 POP PUSH2 0x13F0 DUP2 PUSH2 0x13CC JUMP JUMPDEST SWAP3 SWAP2 POP POP JUMP JUMPDEST PUSH0 PUSH1 0x20 DUP3 DUP5 SUB SLT ISZERO PUSH2 0x140B JUMPI PUSH2 0x140A PUSH2 0xCE0 JUMP JUMPDEST JUMPDEST PUSH0 PUSH2 0x1418 DUP5 DUP3 DUP6 ADD PUSH2 0x13E2 JUMP JUMPDEST SWAP2 POP POP SWAP3 SWAP2 POP POP JUMP INVALID LOG2 PUSH5 0x6970667358 0x22 SLT KECCAK256 0x2C 0xD2 0xC0 0x2A SUB SUB DUP9 DUP5 SDIV 0xFC SWAP2 0xB2 SGT BLOBHASH PUSH5 0xC0A8E0E4A8 PUSH18 0xF28D7D65CC9E0681D7694464736F6C634300 ADDMOD 0x1E STOP CALLER LOG2 PUSH5 0x6970667358 0x22 SLT KECCAK256 SGT 0xCE JUMPDEST 0xAC 0xBB RJUMPI 0x8A38 0xAB INVALID EXTDELEGATECALL SWAP11 SWAP16 0xD5 0xAD PUSH18 0x23BD229CF3B7852527686BCA39E646836473 PUSH16 0x6C634300081E00330000000000000000 "
		},
		"gasEstimates": {
			"creation": {
				"codeDepositCost": "4665600",
				"executionCost": "29725",
				"totalCost": "4695325"
			},
			"external": {
				"beforeEach()": "infinite",
				"erc0()": "infinite",
				"erc1()": "infinite",
				"pool()": "infinite",
				"testMintSuccess()": "infinite",
				"uniswapV3MintCallback(uint256,uint256,bytes)": "infinite",
				"uniswapV3SwapCallback(int256,int256,bytes)": "infinite"
			}
		},
		"methodIdentifiers": {
			"beforeEach()": "6331e7d4",
			"erc0()": "05558d2d",
			"erc1()": "676c33cc",
			"pool()": "16f0115b",
			"testMintSuccess()": "80eefb32",
			"uniswapV3MintCallback(uint256,uint256,bytes)": "d3487997",
			"uniswapV3SwapCallback(int256,int256,bytes)": "fa461e33"
		}
	},
	"abi": [
		{
			"anonymous": false,
			"inputs": [
				{
					"indexed": false,
					"internalType": "string",
					"name": "message",
					"type": "string"
				}
			],
			"name": "log",
			"type": "event"
		},
		{
			"inputs": [],
			"name": "beforeEach",
			"outputs": [],
			"stateMutability": "nonpayable",
			"type": "function"
		},
		{
			"inputs": [],
			"name": "erc0",
			"outputs": [
				{
					"internalType": "contract ERC20",
					"name": "",
					"type": "address"
				}
			],
			"stateMutability": "view",
			"type": "function"
		},
		{
			"inputs": [],
			"name": "erc1",
			"outputs": [
				{
					"internalType": "contract ERC20",
					"name": "",
					"type": "address"
				}
			],
			"stateMutability": "view",
			"type": "function"
		},
		{
			"inputs": [],
			"name": "pool",
			"outputs": [
				{
					"internalType": "contract UniswapV3Pool",
					"name": "",
					"type": "address"
				}
			],
			"stateMutability": "view",
			"type": "function"
		},
		{
			"inputs": [],
			"name": "testMintSuccess",
			"outputs": [
				{
					"internalType": "uint256",
					"name": "poolBalance0",
					"type": "uint256"
				},
				{
					"internalType": "uint256",
					"name": "poolBalance1",
					"type": "uint256"
				}
			],
			"stateMutability": "nonpayable",
			"type": "function"
		},
		{
			"inputs": [
				{
					"internalType": "uint256",
					"name": "amount0",
					"type": "uint256"
				},
				{
					"internalType": "uint256",
					"name": "amount1",
					"type": "uint256"
				},
				{
					"internalType": "bytes",
					"name": "data",
					"type": "bytes"
				}
			],
			"name": "uniswapV3MintCallback",
			"outputs": [],
			"stateMutability": "nonpayable",
			"type": "function"
		},
		{
			"inputs": [
				{
					"internalType": "int256",
					"name": "amount0",
					"type": "int256"
				},
				{
					"internalType": "int256",
					"name": "amount1",
					"type": "int256"
				},
				{
					"internalType": "bytes",
					"name": "data",
					"type": "bytes"
				}
			],
			"name": "uniswapV3SwapCallback",
			"outputs": [],
			"stateMutability": "nonpayable",
			"type": "function"
		}
	]
}