{
	"data": {
		"bytecode": {
			"linkReferences": {},
			"object": "60c060405234801561000f575f5ffd5b50604051613697380380613697833981810160405281019061003191906101fd565b8373ffffffffffffffffffffffffffffffffffffffff1660808173ffffffffffffffffffffffffffffffffffffffff16815250508273ffffffffffffffffffffffffffffffffffffffff1660a08173ffffffffffffffffffffffffffffffffffffffff168152505060405180604001604052808373ffffffffffffffffffffffffffffffffffffffff1681526020018260020b8152505f5f820151815f015f6101000a81548173ffffffffffffffffffffffffffffffffffffffff021916908373ffffffffffffffffffffffffffffffffffffffff1602179055506020820151815f0160146101000a81548162ffffff021916908360020b62ffffff16021790555090505050505050610261565b5f5ffd5b5f73ffffffffffffffffffffffffffffffffffffffff82169050919050565b5f61016c82610143565b9050919050565b61017c81610162565b8114610186575f5ffd5b50565b5f8151905061019781610173565b92915050565b6101a681610143565b81146101b0575f5ffd5b50565b5f815190506101c18161019d565b92915050565b5f8160020b9050919050565b6101dc816101c7565b81146101e6575f5ffd5b50565b5f815190506101f7816101d3565b92915050565b5f5f5f5f608085870312156102155761021461013f565b5b5f61022287828801610189565b945050602061023387828801610189565b9350506040610244878288016101b3565b9250506060610255878288016101e9565b91505092959194509250565b60805160a0516133f961029e5f395f8181610ac401528181610e6401526117af01525f818161020301528181610c32015261171101526133f95ff3fe608060405234801561000f575f5ffd5b5060043610610091575f3560e01c8063514ea4bf11610064578063514ea4bf146101215780635339c2961461015157806380c2c6ef14610181578063d21220a7146101b2578063f30dba93146101d057610091565b80630dfe1681146100955780631a686502146100b35780633850c7bd146100d15780633c8a7d8d146100f0575b5f5ffd5b61009d610201565b6040516100aa91906124b4565b60405180910390f35b6100bb610225565b6040516100c891906124f7565b60405180910390f35b6100d9610246565b6040516100e792919061253a565b60405180910390f35b61010a60048036038101906101059190612648565b610281565b6040516101189291906126f6565b60405180910390f35b61013b60048036038101906101369190612750565b61073e565b60405161014891906124f7565b60405180910390f35b61016b600480360381019061016691906127b1565b610773565b60405161017891906127dc565b60405180910390f35b61019b60048036038101906101969190612854565b610788565b6040516101a99291906128f0565b60405180910390f35b6101ba610e62565b6040516101c791906124b4565b60405180910390f35b6101ea60048036038101906101e59190612917565b610e86565b6040516101f8929190612951565b60405180910390f35b7f000000000000000000000000000000000000000000000000000000000000000081565b60015f9054906101000a90046fffffffffffffffffffffffffffffffff1681565b5f805f015f9054906101000a900473ffffffffffffffffffffffffffffffffffffffff1690805f0160149054906101000a900460020b905082565b5f5f8560020b8760020b1215806102bd57507ffffffffffffffffffffffffffffffffffffffffffffffffffffffffffff2761860020b8760020b125b806102f657507ffffffffffffffffffffffffffffffffffffffffffffffffffffffffffff276186102ed906129a5565b60020b8660020b135b1561032d576040517f064847d000000000000000000000000000000000000000000000000000000000815260040160405180910390fd5b5f856fffffffffffffffffffffffffffffffff1603610378576040517f1007454800000000000000000000000000000000000000000000000000000000815260040160405180910390fd5b5f61038f88876002610ecd9092919063ffffffff16565b90505f6103a888886002610ecd9092919063ffffffff16565b905081156103c8576103c78960016003610fc49092919063ffffffff16565b5b80156103e6576103e58860016003610fc49092919063ffffffff16565b5b5f6103ff8b8b8b600461102d909392919063ffffffff16565b9050610414888261107290919063ffffffff16565b5f5f6040518060400160405290815f82015f9054906101000a900473ffffffffffffffffffffffffffffffffffffffff1673ffffffffffffffffffffffffffffffffffffffff1673ffffffffffffffffffffffffffffffffffffffff1681526020015f820160149054906101000a900460020b60020b60020b8152505090508a60020b816020015160020b12156104c7576104c06104b18c6110e2565b6104ba8c6110e2565b8b611596565b955061058f565b8960020b816020015160020b1215610570576104ef815f01516104e98c6110e2565b8b611596565b9550610507815f01516105018d6110e2565b8b61167a565b94508860015f8282829054906101000a90046fffffffffffffffffffffffffffffffff1661053591906129eb565b92506101000a8154816fffffffffffffffffffffffffffffffff02191690836fffffffffffffffffffffffffffffffff16021790555061058e565b61058b61057c8c6110e2565b6105858c6110e2565b8b61167a565b94505b5b5f5f5f8811156105a4576105a161170e565b91505b5f8711156105b7576105b46117ac565b90505b3373ffffffffffffffffffffffffffffffffffffffff1663d348799789898d8d6040518563ffffffff1660e01b81526004016105f69493929190612a88565b5f604051808303815f87803b15801561060d575f5ffd5b505af115801561061f573d5f5f3e3d5ffd5b505050505f88118015610643575061063561170e565b88836106419190612ac6565b115b1561067a576040517f098fb56100000000000000000000000000000000000000000000000000000000815260040160405180910390fd5b5f8711801561069a575061068c6117ac565b87826106989190612ac6565b115b156106d1576040517f098fb56100000000000000000000000000000000000000000000000000000000815260040160405180910390fd5b8b60020b8d60020b8f73ffffffffffffffffffffffffffffffffffffffff167f7a53080ba414158be7ec69b987b5fb7d07dee101fe85488f0853ae16239d0bde338f8d8d6040516107259493929190612af9565b60405180910390a4505050505050965096945050505050565b6004602052805f5260405f205f91509050805f015f9054906101000a90046fffffffffffffffffffffffffffffffff16905081565b6003602052805f5260405f205f915090505481565b5f5f5f5f6040518060400160405290815f82015f9054906101000a900473ffffffffffffffffffffffffffffffffffffffff1673ffffffffffffffffffffffffffffffffffffffff1673ffffffffffffffffffffffffffffffffffffffff1681526020015f820160149054906101000a900460020b60020b60020b8152505090505f60405180608001604052808881526020015f8152602001835f015173ffffffffffffffffffffffffffffffffffffffff168152602001836020015160020b81525090505b5f815f015111156109e55761086161241c565b8160400151815f019073ffffffffffffffffffffffffffffffffffffffff16908173ffffffffffffffffffffffffffffffffffffffff16815250506108b9826060015160018b600361184a909392919063ffffffff16565b50816020018160020b60020b815250506108d681602001516110e2565b816040019073ffffffffffffffffffffffffffffffffffffffff16908173ffffffffffffffffffffffffffffffffffffffff16815250506109418260400151826040015160015f9054906101000a90046fffffffffffffffffffffffffffffffff16855f0151611a28565b84604001846060018560800183815250838152508373ffffffffffffffffffffffffffffffffffffffff1673ffffffffffffffffffffffffffffffffffffffff168152505050508060600151825f0181815161099d9190612b3c565b915081815250508060800151826020018181516109ba9190612ac6565b915081815250506109ce8260400151611aa1565b826060019060020b908160020b815250505061084e565b816020015160020b816060015160020b14610a6f57806040015181606001515f5f015f5f5f0160148491906101000a81548162ffffff021916908360020b62ffffff1602179055508391906101000a81548173ffffffffffffffffffffffffffffffffffffffff021916908373ffffffffffffffffffffffffffffffffffffffff16021790555050505b87610a96578060200151610a8290612b6f565b815f015188610a919190612b3c565b610ab4565b805f015187610aa59190612b3c565b8160200151610ab390612b6f565b5b80945081955050508715610c30577f000000000000000000000000000000000000000000000000000000000000000073ffffffffffffffffffffffffffffffffffffffff1663a9059cbb8a85610b0990612b6f565b6040518363ffffffff1660e01b8152600401610b26929190612bb5565b6020604051808303815f875af1158015610b42573d5f5f3e3d5ffd5b505050506040513d601f19601f82011682018060405250810190610b669190612bf0565b505f610b7061170e565b90503373ffffffffffffffffffffffffffffffffffffffff1663fa461e3386868a8a6040518563ffffffff1660e01b8152600401610bb19493929190612c1b565b5f604051808303815f87803b158015610bc8575f5ffd5b505af1158015610bda573d5f5f3e3d5ffd5b50505050610be661170e565b8582610bf29190612ac6565b1115610c2a576040517f098fb56100000000000000000000000000000000000000000000000000000000815260040160405180910390fd5b50610d9a565b7f000000000000000000000000000000000000000000000000000000000000000073ffffffffffffffffffffffffffffffffffffffff1663a9059cbb8a86610c7790612b6f565b6040518363ffffffff1660e01b8152600401610c94929190612bb5565b6020604051808303815f875af1158015610cb0573d5f5f3e3d5ffd5b505050506040513d601f19601f82011682018060405250810190610cd49190612bf0565b505f610cde6117ac565b90503373ffffffffffffffffffffffffffffffffffffffff1663fa461e3386868a8a6040518563ffffffff1660e01b8152600401610d1f9493929190612c1b565b5f604051808303815f87803b158015610d36575f5ffd5b505af1158015610d48573d5f5f3e3d5ffd5b50505050610d546117ac565b8482610d609190612ac6565b1115610d98576040517f098fb56100000000000000000000000000000000000000000000000000000000815260040160405180910390fd5b505b8873ffffffffffffffffffffffffffffffffffffffff163373ffffffffffffffffffffffffffffffffffffffff167fc42079f94a6350d7e6235f29174924f928cc2ac818eb64fed8004e115fbcca6786865f5f015f9054906101000a900473ffffffffffffffffffffffffffffffffffffffff1660015f9054906101000a90046fffffffffffffffffffffffffffffffff165f5f0160149054906101000a900460020b604051610e4e959493929190612c59565b60405180910390a350509550959350505050565b7f000000000000000000000000000000000000000000000000000000000000000081565b6002602052805f5260405f205f91509050805f015f9054906101000a900460ff1690805f0160019054906101000a90046fffffffffffffffffffffffffffffffff16905082565b5f5f845f8560020b60020b81526020019081526020015f2090505f815f0160019054906101000a90046fffffffffffffffffffffffffffffffff1690505f8482610f1791906129eb565b90505f826fffffffffffffffffffffffffffffffff161415155f826fffffffffffffffffffffffffffffffff16141515141593505f826fffffffffffffffffffffffffffffffff1603610f80576001835f015f6101000a81548160ff0219169083151502179055505b80835f0160016101000a8154816fffffffffffffffffffffffffffffffff02191690836fffffffffffffffffffffffffffffffff1602179055505050509392505050565b5f8183610fd19190612cd7565b60020b14610fdd575f5ffd5b5f5f610ff38385610fee9190612d07565b611e9b565b915091505f8160ff166001901b905080865f8560010b60010b81526020019081526020015f205f8282541892505081905550505050505050565b5f845f85858560405160200161104593929190612de8565b6040516020818303038152906040528051906020012081526020019081526020015f209050949350505050565b5f825f015f9054906101000a90046fffffffffffffffffffffffffffffffff1690505f82826110a191906129eb565b905080845f015f6101000a8154816fffffffffffffffffffffffffffffffff02191690836fffffffffffffffffffffffffffffffff16021790555050505050565b5f5f5f8360020b126110f7578260020b611105565b8260020b61110490612b6f565b5b90507ffffffffffffffffffffffffffffffffffffffffffffffffffffffffffff27618611131906129a5565b62ffffff16811115611178576040517f08c379a000000000000000000000000000000000000000000000000000000000815260040161116f90612e7e565b60405180910390fd5b5f5f600183160361119a577001000000000000000000000000000000006111ac565b6ffffcb933bd6fad37aa2d162d1a5940015b70ffffffffffffffffffffffffffffffffff1690505f60028316146111ee5760806ffff97272373d413259a46990580e213a826111e99190612e9c565b901c90505b5f600483161461121b5760806ffff2e50f5f656932ef12357cf3c7fdcc826112169190612e9c565b901c90505b5f60088316146112485760806fffe5caca7e10e4e61c3624eaa0941cd0826112439190612e9c565b901c90505b5f60108316146112755760806fffcb9843d60f6159c9db58835c926644826112709190612e9c565b901c90505b5f60208316146112a25760806fff973b41fa98c081472e6896dfb254c08261129d9190612e9c565b901c90505b5f60408316146112cf5760806fff2ea16466c96a3843ec78b326b52861826112ca9190612e9c565b901c90505b5f60808316146112fc5760806ffe5dee046a99a2a811c461f1969c3053826112f79190612e9c565b901c90505b5f61010083161461132a5760806ffcbe86c7900a88aedcffc83b479aa3a4826113259190612e9c565b901c90505b5f6102008316146113585760806ff987a7253ac413176f2b074cf7815e54826113539190612e9c565b901c90505b5f6104008316146113865760806ff3392b0822b70005940c7a398e4b70f3826113819190612e9c565b901c90505b5f6108008316146113b45760806fe7159475a2c29b7443b29c7fa6e889d9826113af9190612e9c565b901c90505b5f6110008316146113e25760806fd097f3bdfd2022b8845ad8f792aa5825826113dd9190612e9c565b901c90505b5f6120008316146114105760806fa9f746462d870fdf8a65dc1f90e061e58261140b9190612e9c565b901c90505b5f61400083161461143e5760806f70d869a156d2a1b890bb3df62baf32f7826114399190612e9c565b901c90505b5f61800083161461146c5760806f31be135f97d08fd981231505542fcfa6826114679190612e9c565b901c90505b5f6201000083161461149b5760806f09aa508b5b7a84e1c677de54f3e99bc9826114969190612e9c565b901c90505b5f620200008316146114c95760806e5d6af8dedb81196699c329225ee604826114c49190612e9c565b901c90505b5f620400008316146114f65760806d2216e584f5fa1ea926041bedfe98826114f19190612e9c565b901c90505b5f620800008316146115215760806b048a170391f7dc42444e8fa28261151c9190612e9c565b901c90505b5f8460020b131561155b57807fffffffffffffffffffffffffffffffffffffffffffffffffffffffffffffffff6115589190612edd565b90505b5f6401000000008261156d9190612f0d565b1461157957600161157b565b5f5b60ff16602082901c61158d9190612ac6565b92505050919050565b5f8273ffffffffffffffffffffffffffffffffffffffff168473ffffffffffffffffffffffffffffffffffffffff1611156115d657828480945081955050505b5f8473ffffffffffffffffffffffffffffffffffffffff16116115f7575f5ffd5b611671611655606060ff16846fffffffffffffffffffffffffffffffff16901b86866116239190612f3d565b73ffffffffffffffffffffffffffffffffffffffff168673ffffffffffffffffffffffffffffffffffffffff16611ebc565b8573ffffffffffffffffffffffffffffffffffffffff16611f24565b90509392505050565b5f8273ffffffffffffffffffffffffffffffffffffffff168473ffffffffffffffffffffffffffffffffffffffff1611156116ba57828480945081955050505b611705826fffffffffffffffffffffffffffffffff1685856116dc9190612f3d565b73ffffffffffffffffffffffffffffffffffffffff166c01000000000000000000000000611ebc565b90509392505050565b5f7f000000000000000000000000000000000000000000000000000000000000000073ffffffffffffffffffffffffffffffffffffffff166370a08231306040518263ffffffff1660e01b815260040161176891906124b4565b602060405180830381865afa158015611783573d5f5f3e3d5ffd5b505050506040513d601f19601f820116820180604052508101906117a79190612f98565b905090565b5f7f000000000000000000000000000000000000000000000000000000000000000073ffffffffffffffffffffffffffffffffffffffff166370a08231306040518263ffffffff1660e01b815260040161180691906124b4565b602060405180830381865afa158015611821573d5f5f3e3d5ffd5b505050506040513d601f19601f820116820180604052508101906118459190612f98565b905090565b5f5f5f84866118599190612d07565b90505f8660020b12801561187b57505f85876118759190612cd7565b60020b14155b1561188f57808061188b90612fc3565b9150505b831561194c575f5f6118a083611e9b565b915091505f8160ff166001901b60018360ff166001901b6118c19190612b3c565b6118cb9190612ac6565b90505f818b5f8660010b60010b81526020019081526020015f20541690505f81141595508561191357888360ff1686611904919061300a565b61190e9190613064565b611941565b8861191d82611f36565b8461192891906130ac565b60ff1686611936919061300a565b6119409190613064565b5b965050505050611a1e565b5f5f61196360018461195e91906130e0565b611e9b565b915091505f60018260ff166001901b61197c9190612b3c565b1990505f818b5f8660010b60010b81526020019081526020015f20541690505f8114159550856119dd57888360ff6119b491906130ac565b60ff166001876119c491906130e0565b6119ce91906130e0565b6119d89190613064565b611a17565b88836119e883612057565b6119f291906130ac565b60ff16600187611a0291906130e0565b611a0c91906130e0565b611a169190613064565b5b9650505050505b5094509492505050565b5f5f5f5f8673ffffffffffffffffffffffffffffffffffffffff168873ffffffffffffffffffffffffffffffffffffffff1610159050611a6a888787846121bc565b9350611a77888588611596565b9250611a8488858861167a565b915080611a9657818380935081945050505b509450945094915050565b5f6401000276a373ffffffffffffffffffffffffffffffffffffffff168273ffffffffffffffffffffffffffffffffffffffff1610158015611b22575073fffd8963efd1fc6a506488495d951d5263988d2673ffffffffffffffffffffffffffffffffffffffff168273ffffffffffffffffffffffffffffffffffffffff16105b611b61576040517f08c379a0000000000000000000000000000000000000000000000000000000008152600401611b5890613184565b60405180910390fd5b5f60208373ffffffffffffffffffffffffffffffffffffffff16901b90505f8190505f5f90506fffffffffffffffffffffffffffffffff821160071b808217915082811c92505067ffffffffffffffff821160061b808217915082811c92505063ffffffff821160051b808217915082811c92505061ffff821160041b808217915082811c92505060ff821160031b808217915082811c925050600f821160021b808217915082811c9250506003821160011b808217915082811c9250506001821180821791505060808110611c4857607f81611c3e9190612b3c565b83901c9150611c5b565b80607f611c559190612b3c565b83901b91505b5f6040608083611c6b91906131a2565b901b9050828302607f1c92508260801c80603f1b8217915083811c935050828302607f1c92508260801c80603e1b8217915083811c935050828302607f1c92508260801c80603d1b8217915083811c935050828302607f1c92508260801c80603c1b8217915083811c935050828302607f1c92508260801c80603b1b8217915083811c935050828302607f1c92508260801c80603a1b8217915083811c935050828302607f1c92508260801c8060391b8217915083811c935050828302607f1c92508260801c8060381b8217915083811c935050828302607f1c92508260801c8060371b8217915083811c935050828302607f1c92508260801c8060361b8217915083811c935050828302607f1c92508260801c8060351b8217915083811c935050828302607f1c92508260801c8060341b8217915083811c935050828302607f1c92508260801c8060331b8217915083811c935050828302607f1c92508260801c8060321b82179150505f693627a301d71055774c8582611ded91906131e2565b90505f60806f028f6481ab7f045a5af012a19d003aaa83611e0e91906131a2565b901d90505f60806fdb2df09e81959a81455e260799a0632f84611e319190613258565b901d90508060020b8260020b14611e8b578873ffffffffffffffffffffffffffffffffffffffff16611e62826110e2565b73ffffffffffffffffffffffffffffffffffffffff161115611e845781611e86565b805b611e8d565b815b975050505050505050919050565b5f5f60088360020b901d915061010083611eb59190612cd7565b9050915091565b5f611ec88484846121e8565b90505f8280611eda57611ed9612caa565b5b8486091115611f1d577fffffffffffffffffffffffffffffffffffffffffffffffffffffffffffffffff8110611f0e575f5ffd5b8080611f1990613299565b9150505b9392505050565b5f5f8284061182840401905092915050565b5f5f8211611f42575f5ffd5b7001000000000000000000000000000000008210611f7157608082901c9150608081611f6e91906132e0565b90505b680100000000000000008210611f9857604082901c9150604081611f9591906132e0565b90505b6401000000008210611fbb57602082901c9150602081611fb891906132e0565b90505b620100008210611fdc57601082901c9150601081611fd991906132e0565b90505b6101008210611ffc57600882901c9150600881611ff991906132e0565b90505b6010821061201b57600482901c915060048161201891906132e0565b90505b6004821061203a57600282901c915060028161203791906132e0565b90505b600282106120525760018161204f91906132e0565b90505b919050565b5f5f8211612063575f5ffd5b60ff90505f6fffffffffffffffffffffffffffffffff8016831611156120975760808161209091906130ac565b905061209f565b608082901c91505b5f67ffffffffffffffff8016831611156120c7576040816120c091906130ac565b90506120cf565b604082901c91505b5f63ffffffff8016831611156120f3576020816120ec91906130ac565b90506120fb565b602082901c91505b5f61ffff80168316111561211d5760108161211691906130ac565b9050612125565b601082901c91505b5f60ff8016831611156121465760088161213f91906130ac565b905061214e565b600882901c91505b5f600f8316111561216d5760048161216691906130ac565b9050612175565b600482901c91505b5f6003831611156121945760028161218d91906130ac565b905061219c565b600282901c91505b5f6001831611156121b7576001816121b491906130ac565b90505b919050565b5f816121d2576121cd8585856122f2565b6121de565b6121dd85858561232c565b5b9050949350505050565b5f5f5f5f198587098587029250828110838203039150505f81036122205783828161221657612215612caa565b5b04925050506122eb565b808411612262576040517f08c379a00000000000000000000000000000000000000000000000000000000081526004016122599061335e565b60405180910390fd5b5f8486880990508281118203915080830392505f60018619018616905080860495508084049350600181825f0304019050808302841793505f600287600302189050808702600203810290508087026002038102905080870260020381029050808702600203810290508087026002038102905080870260020381029050808502955050505050505b9392505050565b5f826fffffffffffffffffffffffffffffffff16606060ff1683901b6123189190612edd565b84612323919061337c565b90509392505050565b5f5f606060ff16846fffffffffffffffffffffffffffffffff16901b90505f8573ffffffffffffffffffffffffffffffffffffffff168461236d9190612e9c565b90508573ffffffffffffffffffffffffffffffffffffffff1684826123929190612edd565b036123da575f81836123a49190612ac6565b90508281106123d8576123ce838873ffffffffffffffffffffffffffffffffffffffff1683611ebc565b9350505050612415565b505b61241082858873ffffffffffffffffffffffffffffffffffffffff16856124019190612edd565b61240b9190612ac6565b611f24565b925050505b9392505050565b6040518060a001604052805f73ffffffffffffffffffffffffffffffffffffffff1681526020015f60020b81526020015f73ffffffffffffffffffffffffffffffffffffffff1681526020015f81526020015f81525090565b5f73ffffffffffffffffffffffffffffffffffffffff82169050919050565b5f61249e82612475565b9050919050565b6124ae81612494565b82525050565b5f6020820190506124c75f8301846124a5565b92915050565b5f6fffffffffffffffffffffffffffffffff82169050919050565b6124f1816124cd565b82525050565b5f60208201905061250a5f8301846124e8565b92915050565b61251981612475565b82525050565b5f8160020b9050919050565b6125348161251f565b82525050565b5f60408201905061254d5f830185612510565b61255a602083018461252b565b9392505050565b5f5ffd5b5f5ffd5b61257281612494565b811461257c575f5ffd5b50565b5f8135905061258d81612569565b92915050565b61259c8161251f565b81146125a6575f5ffd5b50565b5f813590506125b781612593565b92915050565b6125c6816124cd565b81146125d0575f5ffd5b50565b5f813590506125e1816125bd565b92915050565b5f5ffd5b5f5ffd5b5f5ffd5b5f5f83601f840112612608576126076125e7565b5b8235905067ffffffffffffffff811115612625576126246125eb565b5b602083019150836001820283011115612641576126406125ef565b5b9250929050565b5f5f5f5f5f5f60a0878903121561266257612661612561565b5b5f61266f89828a0161257f565b965050602061268089828a016125a9565b955050604061269189828a016125a9565b94505060606126a289828a016125d3565b935050608087013567ffffffffffffffff8111156126c3576126c2612565565b5b6126cf89828a016125f3565b92509250509295509295509295565b5f819050919050565b6126f0816126de565b82525050565b5f6040820190506127095f8301856126e7565b61271660208301846126e7565b9392505050565b5f819050919050565b61272f8161271d565b8114612739575f5ffd5b50565b5f8135905061274a81612726565b92915050565b5f6020828403121561276557612764612561565b5b5f6127728482850161273c565b91505092915050565b5f8160010b9050919050565b6127908161277b565b811461279a575f5ffd5b50565b5f813590506127ab81612787565b92915050565b5f602082840312156127c6576127c5612561565b5b5f6127d38482850161279d565b91505092915050565b5f6020820190506127ef5f8301846126e7565b92915050565b5f8115159050919050565b612809816127f5565b8114612813575f5ffd5b50565b5f8135905061282481612800565b92915050565b612833816126de565b811461283d575f5ffd5b50565b5f8135905061284e8161282a565b92915050565b5f5f5f5f5f6080868803121561286d5761286c612561565b5b5f61287a8882890161257f565b955050602061288b88828901612816565b945050604061289c88828901612840565b935050606086013567ffffffffffffffff8111156128bd576128bc612565565b5b6128c9888289016125f3565b92509250509295509295909350565b5f819050919050565b6128ea816128d8565b82525050565b5f6040820190506129035f8301856128e1565b61291060208301846128e1565b9392505050565b5f6020828403121561292c5761292b612561565b5b5f612939848285016125a9565b91505092915050565b61294b816127f5565b82525050565b5f6040820190506129645f830185612942565b61297160208301846124e8565b9392505050565b7f4e487b71000000000000000000000000000000000000000000000000000000005f52601160045260245ffd5b5f6129af8261251f565b91507fffffffffffffffffffffffffffffffffffffffffffffffffffffffffff80000082036129e1576129e0612978565b5b815f039050919050565b5f6129f5826124cd565b9150612a00836124cd565b925082820190506fffffffffffffffffffffffffffffffff811115612a2857612a27612978565b5b92915050565b5f82825260208201905092915050565b828183375f83830152505050565b5f601f19601f8301169050919050565b5f612a678385612a2e565b9350612a74838584612a3e565b612a7d83612a4c565b840190509392505050565b5f606082019050612a9b5f8301876126e7565b612aa860208301866126e7565b8181036040830152612abb818486612a5c565b905095945050505050565b5f612ad0826126de565b9150612adb836126de565b9250828201905080821115612af357612af2612978565b5b92915050565b5f608082019050612b0c5f8301876124a5565b612b1960208301866124e8565b612b2660408301856126e7565b612b3360608301846126e7565b95945050505050565b5f612b46826126de565b9150612b51836126de565b9250828203905081811115612b6957612b68612978565b5b92915050565b5f612b79826128d8565b91507f80000000000000000000000000000000000000000000000000000000000000008203612bab57612baa612978565b5b815f039050919050565b5f604082019050612bc85f8301856124a5565b612bd560208301846126e7565b9392505050565b5f81519050612bea81612800565b92915050565b5f60208284031215612c0557612c04612561565b5b5f612c1284828501612bdc565b91505092915050565b5f606082019050612c2e5f8301876128e1565b612c3b60208301866128e1565b8181036040830152612c4e818486612a5c565b905095945050505050565b5f60a082019050612c6c5f8301886128e1565b612c7960208301876128e1565b612c866040830186612510565b612c9360608301856124e8565b612ca0608083018461252b565b9695505050505050565b7f4e487b71000000000000000000000000000000000000000000000000000000005f52601260045260245ffd5b5f612ce18261251f565b9150612cec8361251f565b925082612cfc57612cfb612caa565b5b828207905092915050565b5f612d118261251f565b9150612d1c8361251f565b925082612d2c57612d2b612caa565b5b60015f0383147fffffffffffffffffffffffffffffffffffffffffffffffffffffffffff80000083141615612d6457612d63612978565b5b828205905092915050565b5f8160601b9050919050565b5f612d8582612d6f565b9050919050565b5f612d9682612d7b565b9050919050565b612dae612da982612494565b612d8c565b82525050565b5f8160e81b9050919050565b5f612dca82612db4565b9050919050565b612de2612ddd8261251f565b612dc0565b82525050565b5f612df38286612d9d565b601482019150612e038285612dd1565b600382019150612e138284612dd1565b600382019150819050949350505050565b5f82825260208201905092915050565b7f54000000000000000000000000000000000000000000000000000000000000005f82015250565b5f612e68600183612e24565b9150612e7382612e34565b602082019050919050565b5f6020820190508181035f830152612e9581612e5c565b9050919050565b5f612ea6826126de565b9150612eb1836126de565b9250828202612ebf816126de565b91508282048414831517612ed657612ed5612978565b5b5092915050565b5f612ee7826126de565b9150612ef2836126de565b925082612f0257612f01612caa565b5b828204905092915050565b5f612f17826126de565b9150612f22836126de565b925082612f3257612f31612caa565b5b828206905092915050565b5f612f4782612475565b9150612f5283612475565b9250828203905073ffffffffffffffffffffffffffffffffffffffff811115612f7e57612f7d612978565b5b92915050565b5f81519050612f928161282a565b92915050565b5f60208284031215612fad57612fac612561565b5b5f612fba84828501612f84565b91505092915050565b5f612fcd8261251f565b91507fffffffffffffffffffffffffffffffffffffffffffffffffffffffffff8000008203612fff57612ffe612978565b5b600182039050919050565b5f6130148261251f565b915061301f8361251f565b92508282039050627fffff81137fffffffffffffffffffffffffffffffffffffffffffffffffffffffffff8000008212171561305e5761305d612978565b5b92915050565b5f61306e8261251f565b91506130798361251f565b92508282026130878161251f565b915080821461309957613098612978565b5b5092915050565b5f60ff82169050919050565b5f6130b6826130a0565b91506130c1836130a0565b9250828203905060ff8111156130da576130d9612978565b5b92915050565b5f6130ea8261251f565b91506130f58361251f565b925082820190507fffffffffffffffffffffffffffffffffffffffffffffffffffffffffff8000008112627fffff8213171561313457613133612978565b5b92915050565b7f52000000000000000000000000000000000000000000000000000000000000005f82015250565b5f61316e600183612e24565b91506131798261313a565b602082019050919050565b5f6020820190508181035f83015261319b81613162565b9050919050565b5f6131ac826128d8565b91506131b7836128d8565b925082820390508181125f8412168282135f8512151617156131dc576131db612978565b5b92915050565b5f6131ec826128d8565b91506131f7836128d8565b9250828202613205816128d8565b91507f800000000000000000000000000000000000000000000000000000000000000084145f8412161561323c5761323b612978565b5b828205841483151761325157613250612978565b5b5092915050565b5f613262826128d8565b915061326d836128d8565b92508282019050828112155f8312168382125f84121516171561329357613292612978565b5b92915050565b5f6132a3826126de565b91507fffffffffffffffffffffffffffffffffffffffffffffffffffffffffffffffff82036132d5576132d4612978565b5b600182019050919050565b5f6132ea826130a0565b91506132f5836130a0565b9250828201905060ff81111561330e5761330d612978565b5b92915050565b7f5052424d6174683a206f766572666c6f770000000000000000000000000000005f82015250565b5f613348601183612e24565b915061335382613314565b602082019050919050565b5f6020820190508181035f8301526133758161333c565b9050919050565b5f61338682612475565b915061339183612475565b9250828201905073ffffffffffffffffffffffffffffffffffffffff8111156133bd576133bc612978565b5b9291505056fea264697066735822122001f569d86aa03a33d1bd9400bc0ad1a8f02305822c506f18c435f7ffe893569a64736f6c634300081e0033",
			"opcodes": "PUSH1 0xC0 PUSH1 0x40 MSTORE CALLVALUE DUP1 ISZERO PUSH2 0xF JUMPI PUSH0 PUSH0 REVERT JUMPDEST POP PUSH1 0x40 MLOAD PUSH2 0x3697 CODESIZE SUB DUP1 PUSH2 0x3697 DUP4 CODECOPY DUP2 DUP2 ADD PUSH1 0x40 MSTORE DUP2 ADD SWAP1 PUSH2 0x31 SWAP2 SWAP1 PUSH2 0x1FD JUMP JUMPDEST DUP4 PUSH20 0xFFFFFFFFFFFFFFFFFFFFFFFFFFFFFFFFFFFFFFFF AND PUSH1 0x80 DUP2 PUSH20 0xFFFFFFFFFFFFFFFFFFFFFFFFFFFFFFFFFFFFFFFF AND DUP2 MSTORE POP POP DUP3 PUSH20 0xFFFFFFFFFFFFFFFFFFFFFFFFFFFFFFFFFFFFFFFF AND PUSH1 0xA0 DUP2 PUSH20 0xFFFFFFFFFFFFFFFFFFFFFFFFFFFFFFFFFFFFFFFF AND DUP2 MSTORE POP POP PUSH1 0x40 MLOAD DUP1 PUSH1 0x40 ADD PUSH1 0x40 MSTORE DUP1 DUP4 PUSH20 0xFFFFFFFFFFFFFFFFFFFFFFFFFFFFFFFFFFFFFFFF AND DUP2 MSTORE PUSH1 0x20 ADD DUP3 PUSH1 0x2 SIGNEXTEND DUP2 MSTORE POP PUSH0 PUSH0 DUP3 ADD MLOAD DUP2 PUSH0 ADD PUSH0 PUSH2 0x100 EXP DUP2 SLOAD DUP2 PUSH20 0xFFFFFFFFFFFFFFFFFFFFFFFFFFFFFFFFFFFFFFFF MUL NOT AND SWAP1 DUP4 PUSH20 0xFFFFFFFFFFFFFFFFFFFFFFFFFFFFFFFFFFFFFFFF AND MUL OR SWAP1 SSTORE POP PUSH1 0x20 DUP3 ADD MLOAD DUP2 PUSH0 ADD PUSH1 0x14 PUSH2 0x100 EXP DUP2 SLOAD DUP2 PUSH3 0xFFFFFF MUL NOT AND SWAP1 DUP4 PUSH1 0x2 SIGNEXTEND PUSH3 0xFFFFFF AND MUL OR SWAP1 SSTORE POP SWAP1 POP POP POP POP POP POP PUSH2 0x261 JUMP JUMPDEST PUSH0 PUSH0 REVERT JUMPDEST PUSH0 PUSH20 0xFFFFFFFFFFFFFFFFFFFFFFFFFFFFFFFFFFFFFFFF DUP3 AND SWAP1 POP SWAP2 SWAP1 POP JUMP JUMPDEST PUSH0 PUSH2 0x16C DUP3 PUSH2 0x143 JUMP JUMPDEST SWAP1 POP SWAP2 SWAP1 POP JUMP JUMPDEST PUSH2 0x17C DUP2 PUSH2 0x162 JUMP JUMPDEST DUP2 EQ PUSH2 0x186 JUMPI PUSH0 PUSH0 REVERT JUMPDEST POP JUMP JUMPDEST PUSH0 DUP2 MLOAD SWAP1 POP PUSH2 0x197 DUP2 PUSH2 0x173 JUMP JUMPDEST SWAP3 SWAP2 POP POP JUMP JUMPDEST PUSH2 0x1A6 DUP2 PUSH2 0x143 JUMP JUMPDEST DUP2 EQ PUSH2 0x1B0 JUMPI PUSH0 PUSH0 REVERT JUMPDEST POP JUMP JUMPDEST PUSH0 DUP2 MLOAD SWAP1 POP PUSH2 0x1C1 DUP2 PUSH2 0x19D JUMP JUMPDEST SWAP3 SWAP2 POP POP JUMP JUMPDEST PUSH0 DUP2 PUSH1 0x2 SIGNEXTEND SWAP1 POP SWAP2 SWAP1 POP JUMP JUMPDEST PUSH2 0x1DC DUP2 PUSH2 0x1C7 JUMP JUMPDEST DUP2 EQ PUSH2 0x1E6 JUMPI PUSH0 PUSH0 REVERT JUMPDEST POP JUMP JUMPDEST PUSH0 DUP2 MLOAD SWAP1 POP PUSH2 0x1F7 DUP2 PUSH2 0x1D3 JUMP JUMPDEST SWAP3 SWAP2 POP POP JUMP JUMPDEST PUSH0 PUSH0 PUSH0 PUSH0 PUSH1 0x80 DUP6 DUP8 SUB SLT ISZERO PUSH2 0x215 JUMPI PUSH2 0x214 PUSH2 0x13F JUMP JUMPDEST JUMPDEST PUSH0 PUSH2 0x222 DUP8 DUP3 DUP9 ADD PUSH2 0x189 JUMP JUMPDEST SWAP5 POP POP PUSH1 0x20 PUSH2 0x233 DUP8 DUP3 DUP9 ADD PUSH2 0x189 JUMP JUMPDEST SWAP4 POP POP PUSH1 0x40 PUSH2 0x244 DUP8 DUP3 DUP9 ADD PUSH2 0x1B3 JUMP JUMPDEST SWAP3 POP POP PUSH1 0x60 PUSH2 0x255 DUP8 DUP3 DUP9 ADD PUSH2 0x1E9 JUMP JUMPDEST SWAP2 POP POP SWAP3 SWAP6 SWAP2 SWAP5 POP SWAP3 POP JUMP JUMPDEST PUSH1 0x80 MLOAD PUSH1 0xA0 MLOAD PUSH2 0x33F9 PUSH2 0x29E PUSH0 CODECOPY PUSH0 DUP2 DUP2 PUSH2 0xAC4 ADD MSTORE DUP2 DUP2 PUSH2 0xE64 ADD MSTORE PUSH2 0x17AF ADD MSTORE PUSH0 DUP2 DUP2 PUSH2 0x203 ADD MSTORE DUP2 DUP2 PUSH2 0xC32 ADD MSTORE PUSH2 0x1711 ADD MSTORE PUSH2 0x33F9 PUSH0 RETURN INVALID PUSH1 0x80 PUSH1 0x40 MSTORE CALLVALUE DUP1 ISZERO PUSH2 0xF JUMPI PUSH0 PUSH0 REVERT JUMPDEST POP PUSH1 0x4 CALLDATASIZE LT PUSH2 0x91 JUMPI PUSH0 CALLDATALOAD PUSH1 0xE0 SHR DUP1 PUSH4 0x514EA4BF GT PUSH2 0x64 JUMPI DUP1 PUSH4 0x514EA4BF EQ PUSH2 0x121 JUMPI DUP1 PUSH4 0x5339C296 EQ PUSH2 0x151 JUMPI DUP1 PUSH4 0x80C2C6EF EQ PUSH2 0x181 JUMPI DUP1 PUSH4 0xD21220A7 EQ PUSH2 0x1B2 JUMPI DUP1 PUSH4 0xF30DBA93 EQ PUSH2 0x1D0 JUMPI PUSH2 0x91 JUMP JUMPDEST DUP1 PUSH4 0xDFE1681 EQ PUSH2 0x95 JUMPI DUP1 PUSH4 0x1A686502 EQ PUSH2 0xB3 JUMPI DUP1 PUSH4 0x3850C7BD EQ PUSH2 0xD1 JUMPI DUP1 PUSH4 0x3C8A7D8D EQ PUSH2 0xF0 JUMPI JUMPDEST PUSH0 PUSH0 REVERT JUMPDEST PUSH2 0x9D PUSH2 0x201 JUMP JUMPDEST PUSH1 0x40 MLOAD PUSH2 0xAA SWAP2 SWAP1 PUSH2 0x24B4 JUMP JUMPDEST PUSH1 0x40 MLOAD DUP1 SWAP2 SUB SWAP1 RETURN JUMPDEST PUSH2 0xBB PUSH2 0x225 JUMP JUMPDEST PUSH1 0x40 MLOAD PUSH2 0xC8 SWAP2 SWAP1 PUSH2 0x24F7 JUMP JUMPDEST PUSH1 0x40 MLOAD DUP1 SWAP2 SUB SWAP1 RETURN JUMPDEST PUSH2 0xD9 PUSH2 0x246 JUMP JUMPDEST PUSH1 0x40 MLOAD PUSH2 0xE7 SWAP3 SWAP2 SWAP1 PUSH2 0x253A JUMP JUMPDEST PUSH1 0x40 MLOAD DUP1 SWAP2 SUB SWAP1 RETURN JUMPDEST PUSH2 0x10A PUSH1 0x4 DUP1 CALLDATASIZE SUB DUP2 ADD SWAP1 PUSH2 0x105 SWAP2 SWAP1 PUSH2 0x2648 JUMP JUMPDEST PUSH2 0x281 JUMP JUMPDEST PUSH1 0x40 MLOAD PUSH2 0x118 SWAP3 SWAP2 SWAP1 PUSH2 0x26F6 JUMP JUMPDEST PUSH1 0x40 MLOAD DUP1 SWAP2 SUB SWAP1 RETURN JUMPDEST PUSH2 0x13B PUSH1 0x4 DUP1 CALLDATASIZE SUB DUP2 ADD SWAP1 PUSH2 0x136 SWAP2 SWAP1 PUSH2 0x2750 JUMP JUMPDEST PUSH2 0x73E JUMP JUMPDEST PUSH1 0x40 MLOAD PUSH2 0x148 SWAP2 SWAP1 PUSH2 0x24F7 JUMP JUMPDEST PUSH1 0x40 MLOAD DUP1 SWAP2 SUB SWAP1 RETURN JUMPDEST PUSH2 0x16B PUSH1 0x4 DUP1 CALLDATASIZE SUB DUP2 ADD SWAP1 PUSH2 0x166 SWAP2 SWAP1 PUSH2 0x27B1 JUMP JUMPDEST PUSH2 0x773 JUMP JUMPDEST PUSH1 0x40 MLOAD PUSH2 0x178 SWAP2 SWAP1 PUSH2 0x27DC JUMP JUMPDEST PUSH1 0x40 MLOAD DUP1 SWAP2 SUB SWAP1 RETURN JUMPDEST PUSH2 0x19B PUSH1 0x4 DUP1 CALLDATASIZE SUB DUP2 ADD SWAP1 PUSH2 0x196 SWAP2 SWAP1 PUSH2 0x2854 JUMP JUMPDEST PUSH2 0x788 JUMP JUMPDEST PUSH1 0x40 MLOAD PUSH2 0x1A9 SWAP3 SWAP2 SWAP1 PUSH2 0x28F0 JUMP JUMPDEST PUSH1 0x40 MLOAD DUP1 SWAP2 SUB SWAP1 RETURN JUMPDEST PUSH2 0x1BA PUSH2 0xE62 JUMP JUMPDEST PUSH1 0x40 MLOAD PUSH2 0x1C7 SWAP2 SWAP1 PUSH2 0x24B4 JUMP JUMPDEST PUSH1 0x40 MLOAD DUP1 SWAP2 SUB SWAP1 RETURN JUMPDEST PUSH2 0x1EA PUSH1 0x4 DUP1 CALLDATASIZE SUB DUP2 ADD SWAP1 PUSH2 0x1E5 SWAP2 SWAP1 PUSH2 0x2917 JUMP JUMPDEST PUSH2 0xE86 JUMP JUMPDEST PUSH1 0x40 MLOAD PUSH2 0x1F8 SWAP3 SWAP2 SWAP1 PUSH2 0x2951 JUMP JUMPDEST PUSH1 0x40 MLOAD DUP1 SWAP2 SUB SWAP1 RETURN JUMPDEST PUSH32 0x0 DUP2 JUMP JUMPDEST PUSH1 0x1 PUSH0 SWAP1 SLOAD SWAP1 PUSH2 0x100 EXP SWAP1 DIV PUSH16 0xFFFFFFFFFFFFFFFFFFFFFFFFFFFFFFFF AND DUP2 JUMP JUMPDEST PUSH0 DUP1 PUSH0 ADD PUSH0 SWAP1 SLOAD SWAP1 PUSH2 0x100 EXP SWAP1 DIV PUSH20 0xFFFFFFFFFFFFFFFFFFFFFFFFFFFFFFFFFFFFFFFF AND SWAP1 DUP1 PUSH0 ADD PUSH1 0x14 SWAP1 SLOAD SWAP1 PUSH2 0x100 EXP SWAP1 DIV PUSH1 0x2 SIGNEXTEND SWAP1 POP DUP3 JUMP JUMPDEST PUSH0 PUSH0 DUP6 PUSH1 0x2 SIGNEXTEND DUP8 PUSH1 0x2 SIGNEXTEND SLT ISZERO DUP1 PUSH2 0x2BD JUMPI POP PUSH32 0xFFFFFFFFFFFFFFFFFFFFFFFFFFFFFFFFFFFFFFFFFFFFFFFFFFFFFFFFFFF27618 PUSH1 0x2 SIGNEXTEND DUP8 PUSH1 0x2 SIGNEXTEND SLT JUMPDEST DUP1 PUSH2 0x2F6 JUMPI POP PUSH32 0xFFFFFFFFFFFFFFFFFFFFFFFFFFFFFFFFFFFFFFFFFFFFFFFFFFFFFFFFFFF27618 PUSH2 0x2ED SWAP1 PUSH2 0x29A5 JUMP JUMPDEST PUSH1 0x2 SIGNEXTEND DUP7 PUSH1 0x2 SIGNEXTEND SGT JUMPDEST ISZERO PUSH2 0x32D JUMPI PUSH1 0x40 MLOAD PUSH32 0x64847D000000000000000000000000000000000000000000000000000000000 DUP2 MSTORE PUSH1 0x4 ADD PUSH1 0x40 MLOAD DUP1 SWAP2 SUB SWAP1 REVERT JUMPDEST PUSH0 DUP6 PUSH16 0xFFFFFFFFFFFFFFFFFFFFFFFFFFFFFFFF AND SUB PUSH2 0x378 JUMPI PUSH1 0x40 MLOAD PUSH32 0x1007454800000000000000000000000000000000000000000000000000000000 DUP2 MSTORE PUSH1 0x4 ADD PUSH1 0x40 MLOAD DUP1 SWAP2 SUB SWAP1 REVERT JUMPDEST PUSH0 PUSH2 0x38F DUP9 DUP8 PUSH1 0x2 PUSH2 0xECD SWAP1 SWAP3 SWAP2 SWAP1 PUSH4 0xFFFFFFFF AND JUMP JUMPDEST SWAP1 POP PUSH0 PUSH2 0x3A8 DUP9 DUP9 PUSH1 0x2 PUSH2 0xECD SWAP1 SWAP3 SWAP2 SWAP1 PUSH4 0xFFFFFFFF AND JUMP JUMPDEST SWAP1 POP DUP2 ISZERO PUSH2 0x3C8 JUMPI PUSH2 0x3C7 DUP10 PUSH1 0x1 PUSH1 0x3 PUSH2 0xFC4 SWAP1 SWAP3 SWAP2 SWAP1 PUSH4 0xFFFFFFFF AND JUMP JUMPDEST JUMPDEST DUP1 ISZERO PUSH2 0x3E6 JUMPI PUSH2 0x3E5 DUP9 PUSH1 0x1 PUSH1 0x3 PUSH2 0xFC4 SWAP1 SWAP3 SWAP2 SWAP1 PUSH4 0xFFFFFFFF AND JUMP JUMPDEST JUMPDEST PUSH0 PUSH2 0x3FF DUP12 DUP12 DUP12 PUSH1 0x4 PUSH2 0x102D SWAP1 SWAP4 SWAP3 SWAP2 SWAP1 PUSH4 0xFFFFFFFF AND JUMP JUMPDEST SWAP1 POP PUSH2 0x414 DUP9 DUP3 PUSH2 0x1072 SWAP1 SWAP2 SWAP1 PUSH4 0xFFFFFFFF AND JUMP JUMPDEST PUSH0 PUSH0 PUSH1 0x40 MLOAD DUP1 PUSH1 0x40 ADD PUSH1 0x40 MSTORE SWAP1 DUP2 PUSH0 DUP3 ADD PUSH0 SWAP1 SLOAD SWAP1 PUSH2 0x100 EXP SWAP1 DIV PUSH20 0xFFFFFFFFFFFFFFFFFFFFFFFFFFFFFFFFFFFFFFFF AND PUSH20 0xFFFFFFFFFFFFFFFFFFFFFFFFFFFFFFFFFFFFFFFF AND PUSH20 0xFFFFFFFFFFFFFFFFFFFFFFFFFFFFFFFFFFFFFFFF AND DUP2 MSTORE PUSH1 0x20 ADD PUSH0 DUP3 ADD PUSH1 0x14 SWAP1 SLOAD SWAP1 PUSH2 0x100 EXP SWAP1 DIV PUSH1 0x2 SIGNEXTEND PUSH1 0x2 SIGNEXTEND PUSH1 0x2 SIGNEXTEND DUP2 MSTORE POP POP SWAP1 POP DUP11 PUSH1 0x2 SIGNEXTEND DUP2 PUSH1 0x20 ADD MLOAD PUSH1 0x2 SIGNEXTEND SLT ISZERO PUSH2 0x4C7 JUMPI PUSH2 0x4C0 PUSH2 0x4B1 DUP13 PUSH2 0x10E2 JUMP JUMPDEST PUSH2 0x4BA DUP13 PUSH2 0x10E2 JUMP JUMPDEST DUP12 PUSH2 0x1596 JUMP JUMPDEST SWAP6 POP PUSH2 0x58F JUMP JUMPDEST DUP10 PUSH1 0x2 SIGNEXTEND DUP2 PUSH1 0x20 ADD MLOAD PUSH1 0x2 SIGNEXTEND SLT ISZERO PUSH2 0x570 JUMPI PUSH2 0x4EF DUP2 PUSH0 ADD MLOAD PUSH2 0x4E9 DUP13 PUSH2 0x10E2 JUMP JUMPDEST DUP12 PUSH2 0x1596 JUMP JUMPDEST SWAP6 POP PUSH2 0x507 DUP2 PUSH0 ADD MLOAD PUSH2 0x501 DUP14 PUSH2 0x10E2 JUMP JUMPDEST DUP12 PUSH2 0x167A JUMP JUMPDEST SWAP5 POP DUP9 PUSH1 0x1 PUSH0 DUP3 DUP3 DUP3 SWAP1 SLOAD SWAP1 PUSH2 0x100 EXP SWAP1 DIV PUSH16 0xFFFFFFFFFFFFFFFFFFFFFFFFFFFFFFFF AND PUSH2 0x535 SWAP2 SWAP1 PUSH2 0x29EB JUMP JUMPDEST SWAP3 POP PUSH2 0x100 EXP DUP2 SLOAD DUP2 PUSH16 0xFFFFFFFFFFFFFFFFFFFFFFFFFFFFFFFF MUL NOT AND SWAP1 DUP4 PUSH16 0xFFFFFFFFFFFFFFFFFFFFFFFFFFFFFFFF AND MUL OR SWAP1 SSTORE POP PUSH2 0x58E JUMP JUMPDEST PUSH2 0x58B PUSH2 0x57C DUP13 PUSH2 0x10E2 JUMP JUMPDEST PUSH2 0x585 DUP13 PUSH2 0x10E2 JUMP JUMPDEST DUP12 PUSH2 0x167A JUMP JUMPDEST SWAP5 POP JUMPDEST JUMPDEST PUSH0 PUSH0 PUSH0 DUP9 GT ISZERO PUSH2 0x5A4 JUMPI PUSH2 0x5A1 PUSH2 0x170E JUMP JUMPDEST SWAP2 POP JUMPDEST PUSH0 DUP8 GT ISZERO PUSH2 0x5B7 JUMPI PUSH2 0x5B4 PUSH2 0x17AC JUMP JUMPDEST SWAP1 POP JUMPDEST CALLER PUSH20 0xFFFFFFFFFFFFFFFFFFFFFFFFFFFFFFFFFFFFFFFF AND PUSH4 0xD3487997 DUP10 DUP10 DUP14 DUP14 PUSH1 0x40 MLOAD DUP6 PUSH4 0xFFFFFFFF AND PUSH1 0xE0 SHL DUP2 MSTORE PUSH1 0x4 ADD PUSH2 0x5F6 SWAP5 SWAP4 SWAP3 SWAP2 SWAP1 PUSH2 0x2A88 JUMP JUMPDEST PUSH0 PUSH1 0x40 MLOAD DUP1 DUP4 SUB DUP2 PUSH0 DUP8 DUP1 EXTCODESIZE ISZERO DUP1 ISZERO PUSH2 0x60D JUMPI PUSH0 PUSH0 REVERT JUMPDEST POP GAS CALL ISZERO DUP1 ISZERO PUSH2 0x61F JUMPI RETURNDATASIZE PUSH0 PUSH0 RETURNDATACOPY RETURNDATASIZE PUSH0 REVERT JUMPDEST POP POP POP POP PUSH0 DUP9 GT DUP1 ISZERO PUSH2 0x643 JUMPI POP PUSH2 0x635 PUSH2 0x170E JUMP JUMPDEST DUP9 DUP4 PUSH2 0x641 SWAP2 SWAP1 PUSH2 0x2AC6 JUMP JUMPDEST GT JUMPDEST ISZERO PUSH2 0x67A JUMPI PUSH1 0x40 MLOAD PUSH32 0x98FB56100000000000000000000000000000000000000000000000000000000 DUP2 MSTORE PUSH1 0x4 ADD PUSH1 0x40 MLOAD DUP1 SWAP2 SUB SWAP1 REVERT JUMPDEST PUSH0 DUP8 GT DUP1 ISZERO PUSH2 0x69A JUMPI POP PUSH2 0x68C PUSH2 0x17AC JUMP JUMPDEST DUP8 DUP3 PUSH2 0x698 SWAP2 SWAP1 PUSH2 0x2AC6 JUMP JUMPDEST GT JUMPDEST ISZERO PUSH2 0x6D1 JUMPI PUSH1 0x40 MLOAD PUSH32 0x98FB56100000000000000000000000000000000000000000000000000000000 DUP2 MSTORE PUSH1 0x4 ADD PUSH1 0x40 MLOAD DUP1 SWAP2 SUB SWAP1 REVERT JUMPDEST DUP12 PUSH1 0x2 SIGNEXTEND DUP14 PUSH1 0x2 SIGNEXTEND DUP16 PUSH20 0xFFFFFFFFFFFFFFFFFFFFFFFFFFFFFFFFFFFFFFFF AND PUSH32 0x7A53080BA414158BE7EC69B987B5FB7D07DEE101FE85488F0853AE16239D0BDE CALLER DUP16 DUP14 DUP14 PUSH1 0x40 MLOAD PUSH2 0x725 SWAP5 SWAP4 SWAP3 SWAP2 SWAP1 PUSH2 0x2AF9 JUMP JUMPDEST PUSH1 0x40 MLOAD DUP1 SWAP2 SUB SWAP1 LOG4 POP POP POP POP POP POP SWAP7 POP SWAP7 SWAP5 POP POP POP POP POP JUMP JUMPDEST PUSH1 0x4 PUSH1 0x20 MSTORE DUP1 PUSH0 MSTORE PUSH1 0x40 PUSH0 KECCAK256 PUSH0 SWAP2 POP SWAP1 POP DUP1 PUSH0 ADD PUSH0 SWAP1 SLOAD SWAP1 PUSH2 0x100 EXP SWAP1 DIV PUSH16 0xFFFFFFFFFFFFFFFFFFFFFFFFFFFFFFFF AND SWAP1 POP DUP2 JUMP JUMPDEST PUSH1 0x3 PUSH1 0x20 MSTORE DUP1 PUSH0 MSTORE PUSH1 0x40 PUSH0 KECCAK256 PUSH0 SWAP2 POP SWAP1 POP SLOAD DUP2 JUMP JUMPDEST PUSH0 PUSH0 PUSH0 PUSH0 PUSH1 0x40 MLOAD DUP1 PUSH1 0x40 ADD PUSH1 0x40 MSTORE SWAP1 DUP2 PUSH0 DUP3 ADD PUSH0 SWAP1 SLOAD SWAP1 PUSH2 0x100 EXP SWAP1 DIV PUSH20 0xFFFFFFFFFFFFFFFFFFFFFFFFFFFFFFFFFFFFFFFF AND PUSH20 0xFFFFFFFFFFFFFFFFFFFFFFFFFFFFFFFFFFFFFFFF AND PUSH20 0xFFFFFFFFFFFFFFFFFFFFFFFFFFFFFFFFFFFFFFFF AND DUP2 MSTORE PUSH1 0x20 ADD PUSH0 DUP3 ADD PUSH1 0x14 SWAP1 SLOAD SWAP1 PUSH2 0x100 EXP SWAP1 DIV PUSH1 0x2 SIGNEXTEND PUSH1 0x2 SIGNEXTEND PUSH1 0x2 SIGNEXTEND DUP2 MSTORE POP POP SWAP1 POP PUSH0 PUSH1 0x40 MLOAD DUP1 PUSH1 0x80 ADD PUSH1 0x40 MSTORE DUP1 DUP9 DUP2 MSTORE PUSH1 0x20 ADD PUSH0 DUP2 MSTORE PUSH1 0x20 ADD DUP4 PUSH0 ADD MLOAD PUSH20 0xFFFFFFFFFFFFFFFFFFFFFFFFFFFFFFFFFFFFFFFF AND DUP2 MSTORE PUSH1 0x20 ADD DUP4 PUSH1 0x20 ADD MLOAD PUSH1 0x2 SIGNEXTEND DUP2 MSTORE POP SWAP1 POP JUMPDEST PUSH0 DUP2 PUSH0 ADD MLOAD GT ISZERO PUSH2 0x9E5 JUMPI PUSH2 0x861 PUSH2 0x241C JUMP JUMPDEST DUP2 PUSH1 0x40 ADD MLOAD DUP2 PUSH0 ADD SWAP1 PUSH20 0xFFFFFFFFFFFFFFFFFFFFFFFFFFFFFFFFFFFFFFFF AND SWAP1 DUP2 PUSH20 0xFFFFFFFFFFFFFFFFFFFFFFFFFFFFFFFFFFFFFFFF AND DUP2 MSTORE POP POP PUSH2 0x8B9 DUP3 PUSH1 0x60 ADD MLOAD PUSH1 0x1 DUP12 PUSH1 0x3 PUSH2 0x184A SWAP1 SWAP4 SWAP3 SWAP2 SWAP1 PUSH4 0xFFFFFFFF AND JUMP JUMPDEST POP DUP2 PUSH1 0x20 ADD DUP2 PUSH1 0x2 SIGNEXTEND PUSH1 0x2 SIGNEXTEND DUP2 MSTORE POP POP PUSH2 0x8D6 DUP2 PUSH1 0x20 ADD MLOAD PUSH2 0x10E2 JUMP JUMPDEST DUP2 PUSH1 0x40 ADD SWAP1 PUSH20 0xFFFFFFFFFFFFFFFFFFFFFFFFFFFFFFFFFFFFFFFF AND SWAP1 DUP2 PUSH20 0xFFFFFFFFFFFFFFFFFFFFFFFFFFFFFFFFFFFFFFFF AND DUP2 MSTORE POP POP PUSH2 0x941 DUP3 PUSH1 0x40 ADD MLOAD DUP3 PUSH1 0x40 ADD MLOAD PUSH1 0x1 PUSH0 SWAP1 SLOAD SWAP1 PUSH2 0x100 EXP SWAP1 DIV PUSH16 0xFFFFFFFFFFFFFFFFFFFFFFFFFFFFFFFF AND DUP6 PUSH0 ADD MLOAD PUSH2 0x1A28 JUMP JUMPDEST DUP5 PUSH1 0x40 ADD DUP5 PUSH1 0x60 ADD DUP6 PUSH1 0x80 ADD DUP4 DUP2 MSTORE POP DUP4 DUP2 MSTORE POP DUP4 PUSH20 0xFFFFFFFFFFFFFFFFFFFFFFFFFFFFFFFFFFFFFFFF AND PUSH20 0xFFFFFFFFFFFFFFFFFFFFFFFFFFFFFFFFFFFFFFFF AND DUP2 MSTORE POP POP POP POP DUP1 PUSH1 0x60 ADD MLOAD DUP3 PUSH0 ADD DUP2 DUP2 MLOAD PUSH2 0x99D SWAP2 SWAP1 PUSH2 0x2B3C JUMP JUMPDEST SWAP2 POP DUP2 DUP2 MSTORE POP POP DUP1 PUSH1 0x80 ADD MLOAD DUP3 PUSH1 0x20 ADD DUP2 DUP2 MLOAD PUSH2 0x9BA SWAP2 SWAP1 PUSH2 0x2AC6 JUMP JUMPDEST SWAP2 POP DUP2 DUP2 MSTORE POP POP PUSH2 0x9CE DUP3 PUSH1 0x40 ADD MLOAD PUSH2 0x1AA1 JUMP JUMPDEST DUP3 PUSH1 0x60 ADD SWAP1 PUSH1 0x2 SIGNEXTEND SWAP1 DUP2 PUSH1 0x2 SIGNEXTEND DUP2 MSTORE POP POP POP PUSH2 0x84E JUMP JUMPDEST DUP2 PUSH1 0x20 ADD MLOAD PUSH1 0x2 SIGNEXTEND DUP2 PUSH1 0x60 ADD MLOAD PUSH1 0x2 SIGNEXTEND EQ PUSH2 0xA6F JUMPI DUP1 PUSH1 0x40 ADD MLOAD DUP2 PUSH1 0x60 ADD MLOAD PUSH0 PUSH0 ADD PUSH0 PUSH0 PUSH0 ADD PUSH1 0x14 DUP5 SWAP2 SWAP1 PUSH2 0x100 EXP DUP2 SLOAD DUP2 PUSH3 0xFFFFFF MUL NOT AND SWAP1 DUP4 PUSH1 0x2 SIGNEXTEND PUSH3 0xFFFFFF AND MUL OR SWAP1 SSTORE POP DUP4 SWAP2 SWAP1 PUSH2 0x100 EXP DUP2 SLOAD DUP2 PUSH20 0xFFFFFFFFFFFFFFFFFFFFFFFFFFFFFFFFFFFFFFFF MUL NOT AND SWAP1 DUP4 PUSH20 0xFFFFFFFFFFFFFFFFFFFFFFFFFFFFFFFFFFFFFFFF AND MUL OR SWAP1 SSTORE POP POP POP JUMPDEST DUP8 PUSH2 0xA96 JUMPI DUP1 PUSH1 0x20 ADD MLOAD PUSH2 0xA82 SWAP1 PUSH2 0x2B6F JUMP JUMPDEST DUP2 PUSH0 ADD MLOAD DUP9 PUSH2 0xA91 SWAP2 SWAP1 PUSH2 0x2B3C JUMP JUMPDEST PUSH2 0xAB4 JUMP JUMPDEST DUP1 PUSH0 ADD MLOAD DUP8 PUSH2 0xAA5 SWAP2 SWAP1 PUSH2 0x2B3C JUMP JUMPDEST DUP2 PUSH1 0x20 ADD MLOAD PUSH2 0xAB3 SWAP1 PUSH2 0x2B6F JUMP JUMPDEST JUMPDEST DUP1 SWAP5 POP DUP2 SWAP6 POP POP POP DUP8 ISZERO PUSH2 0xC30 JUMPI PUSH32 0x0 PUSH20 0xFFFFFFFFFFFFFFFFFFFFFFFFFFFFFFFFFFFFFFFF AND PUSH4 0xA9059CBB DUP11 DUP6 PUSH2 0xB09 SWAP1 PUSH2 0x2B6F JUMP JUMPDEST PUSH1 0x40 MLOAD DUP4 PUSH4 0xFFFFFFFF AND PUSH1 0xE0 SHL DUP2 MSTORE PUSH1 0x4 ADD PUSH2 0xB26 SWAP3 SWAP2 SWAP1 PUSH2 0x2BB5 JUMP JUMPDEST PUSH1 0x20 PUSH1 0x40 MLOAD DUP1 DUP4 SUB DUP2 PUSH0 DUP8 GAS CALL ISZERO DUP1 ISZERO PUSH2 0xB42 JUMPI RETURNDATASIZE PUSH0 PUSH0 RETURNDATACOPY RETURNDATASIZE PUSH0 REVERT JUMPDEST POP POP POP POP PUSH1 0x40 MLOAD RETURNDATASIZE PUSH1 0x1F NOT PUSH1 0x1F DUP3 ADD AND DUP3 ADD DUP1 PUSH1 0x40 MSTORE POP DUP2 ADD SWAP1 PUSH2 0xB66 SWAP2 SWAP1 PUSH2 0x2BF0 JUMP JUMPDEST POP PUSH0 PUSH2 0xB70 PUSH2 0x170E JUMP JUMPDEST SWAP1 POP CALLER PUSH20 0xFFFFFFFFFFFFFFFFFFFFFFFFFFFFFFFFFFFFFFFF AND PUSH4 0xFA461E33 DUP7 DUP7 DUP11 DUP11 PUSH1 0x40 MLOAD DUP6 PUSH4 0xFFFFFFFF AND PUSH1 0xE0 SHL DUP2 MSTORE PUSH1 0x4 ADD PUSH2 0xBB1 SWAP5 SWAP4 SWAP3 SWAP2 SWAP1 PUSH2 0x2C1B JUMP JUMPDEST PUSH0 PUSH1 0x40 MLOAD DUP1 DUP4 SUB DUP2 PUSH0 DUP8 DUP1 EXTCODESIZE ISZERO DUP1 ISZERO PUSH2 0xBC8 JUMPI PUSH0 PUSH0 REVERT JUMPDEST POP GAS CALL ISZERO DUP1 ISZERO PUSH2 0xBDA JUMPI RETURNDATASIZE PUSH0 PUSH0 RETURNDATACOPY RETURNDATASIZE PUSH0 REVERT JUMPDEST POP POP POP POP PUSH2 0xBE6 PUSH2 0x170E JUMP JUMPDEST DUP6 DUP3 PUSH2 0xBF2 SWAP2 SWAP1 PUSH2 0x2AC6 JUMP JUMPDEST GT ISZERO PUSH2 0xC2A JUMPI PUSH1 0x40 MLOAD PUSH32 0x98FB56100000000000000000000000000000000000000000000000000000000 DUP2 MSTORE PUSH1 0x4 ADD PUSH1 0x40 MLOAD DUP1 SWAP2 SUB SWAP1 REVERT JUMPDEST POP PUSH2 0xD9A JUMP JUMPDEST PUSH32 0x0 PUSH20 0xFFFFFFFFFFFFFFFFFFFFFFFFFFFFFFFFFFFFFFFF AND PUSH4 0xA9059CBB DUP11 DUP7 PUSH2 0xC77 SWAP1 PUSH2 0x2B6F JUMP JUMPDEST PUSH1 0x40 MLOAD DUP4 PUSH4 0xFFFFFFFF AND PUSH1 0xE0 SHL DUP2 MSTORE PUSH1 0x4 ADD PUSH2 0xC94 SWAP3 SWAP2 SWAP1 PUSH2 0x2BB5 JUMP JUMPDEST PUSH1 0x20 PUSH1 0x40 MLOAD DUP1 DUP4 SUB DUP2 PUSH0 DUP8 GAS CALL ISZERO DUP1 ISZERO PUSH2 0xCB0 JUMPI RETURNDATASIZE PUSH0 PUSH0 RETURNDATACOPY RETURNDATASIZE PUSH0 REVERT JUMPDEST POP POP POP POP PUSH1 0x40 MLOAD RETURNDATASIZE PUSH1 0x1F NOT PUSH1 0x1F DUP3 ADD AND DUP3 ADD DUP1 PUSH1 0x40 MSTORE POP DUP2 ADD SWAP1 PUSH2 0xCD4 SWAP2 SWAP1 PUSH2 0x2BF0 JUMP JUMPDEST POP PUSH0 PUSH2 0xCDE PUSH2 0x17AC JUMP JUMPDEST SWAP1 POP CALLER PUSH20 0xFFFFFFFFFFFFFFFFFFFFFFFFFFFFFFFFFFFFFFFF AND PUSH4 0xFA461E33 DUP7 DUP7 DUP11 DUP11 PUSH1 0x40 MLOAD DUP6 PUSH4 0xFFFFFFFF AND PUSH1 0xE0 SHL DUP2 MSTORE PUSH1 0x4 ADD PUSH2 0xD1F SWAP5 SWAP4 SWAP3 SWAP2 SWAP1 PUSH2 0x2C1B JUMP JUMPDEST PUSH0 PUSH1 0x40 MLOAD DUP1 DUP4 SUB DUP2 PUSH0 DUP8 DUP1 EXTCODESIZE ISZERO DUP1 ISZERO PUSH2 0xD36 JUMPI PUSH0 PUSH0 REVERT JUMPDEST POP GAS CALL ISZERO DUP1 ISZERO PUSH2 0xD48 JUMPI RETURNDATASIZE PUSH0 PUSH0 RETURNDATACOPY RETURNDATASIZE PUSH0 REVERT JUMPDEST POP POP POP POP PUSH2 0xD54 PUSH2 0x17AC JUMP JUMPDEST DUP5 DUP3 PUSH2 0xD60 SWAP2 SWAP1 PUSH2 0x2AC6 JUMP JUMPDEST GT ISZERO PUSH2 0xD98 JUMPI PUSH1 0x40 MLOAD PUSH32 0x98FB56100000000000000000000000000000000000000000000000000000000 DUP2 MSTORE PUSH1 0x4 ADD PUSH1 0x40 MLOAD DUP1 SWAP2 SUB SWAP1 REVERT JUMPDEST POP JUMPDEST DUP9 PUSH20 0xFFFFFFFFFFFFFFFFFFFFFFFFFFFFFFFFFFFFFFFF AND CALLER PUSH20 0xFFFFFFFFFFFFFFFFFFFFFFFFFFFFFFFFFFFFFFFF AND PUSH32 0xC42079F94A6350D7E6235F29174924F928CC2AC818EB64FED8004E115FBCCA67 DUP7 DUP7 PUSH0 PUSH0 ADD PUSH0 SWAP1 SLOAD SWAP1 PUSH2 0x100 EXP SWAP1 DIV PUSH20 0xFFFFFFFFFFFFFFFFFFFFFFFFFFFFFFFFFFFFFFFF AND PUSH1 0x1 PUSH0 SWAP1 SLOAD SWAP1 PUSH2 0x100 EXP SWAP1 DIV PUSH16 0xFFFFFFFFFFFFFFFFFFFFFFFFFFFFFFFF AND PUSH0 PUSH0 ADD PUSH1 0x14 SWAP1 SLOAD SWAP1 PUSH2 0x100 EXP SWAP1 DIV PUSH1 0x2 SIGNEXTEND PUSH1 0x40 MLOAD PUSH2 0xE4E SWAP6 SWAP5 SWAP4 SWAP3 SWAP2 SWAP1 PUSH2 0x2C59 JUMP JUMPDEST PUSH1 0x40 MLOAD DUP1 SWAP2 SUB SWAP1 LOG3 POP POP SWAP6 POP SWAP6 SWAP4 POP POP POP POP JUMP JUMPDEST PUSH32 0x0 DUP2 JUMP JUMPDEST PUSH1 0x2 PUSH1 0x20 MSTORE DUP1 PUSH0 MSTORE PUSH1 0x40 PUSH0 KECCAK256 PUSH0 SWAP2 POP SWAP1 POP DUP1 PUSH0 ADD PUSH0 SWAP1 SLOAD SWAP1 PUSH2 0x100 EXP SWAP1 DIV PUSH1 0xFF AND SWAP1 DUP1 PUSH0 ADD PUSH1 0x1 SWAP1 SLOAD SWAP1 PUSH2 0x100 EXP SWAP1 DIV PUSH16 0xFFFFFFFFFFFFFFFFFFFFFFFFFFFFFFFF AND SWAP1 POP DUP3 JUMP JUMPDEST PUSH0 PUSH0 DUP5 PUSH0 DUP6 PUSH1 0x2 SIGNEXTEND PUSH1 0x2 SIGNEXTEND DUP2 MSTORE PUSH1 0x20 ADD SWAP1 DUP2 MSTORE PUSH1 0x20 ADD PUSH0 KECCAK256 SWAP1 POP PUSH0 DUP2 PUSH0 ADD PUSH1 0x1 SWAP1 SLOAD SWAP1 PUSH2 0x100 EXP SWAP1 DIV PUSH16 0xFFFFFFFFFFFFFFFFFFFFFFFFFFFFFFFF AND SWAP1 POP PUSH0 DUP5 DUP3 PUSH2 0xF17 SWAP2 SWAP1 PUSH2 0x29EB JUMP JUMPDEST SWAP1 POP PUSH0 DUP3 PUSH16 0xFFFFFFFFFFFFFFFFFFFFFFFFFFFFFFFF AND EQ ISZERO ISZERO PUSH0 DUP3 PUSH16 0xFFFFFFFFFFFFFFFFFFFFFFFFFFFFFFFF AND EQ ISZERO ISZERO EQ ISZERO SWAP4 POP PUSH0 DUP3 PUSH16 0xFFFFFFFFFFFFFFFFFFFFFFFFFFFFFFFF AND SUB PUSH2 0xF80 JUMPI PUSH1 0x1 DUP4 PUSH0 ADD PUSH0 PUSH2 0x100 EXP DUP2 SLOAD DUP2 PUSH1 0xFF MUL NOT AND SWAP1 DUP4 ISZERO ISZERO MUL OR SWAP1 SSTORE POP JUMPDEST DUP1 DUP4 PUSH0 ADD PUSH1 0x1 PUSH2 0x100 EXP DUP2 SLOAD DUP2 PUSH16 0xFFFFFFFFFFFFFFFFFFFFFFFFFFFFFFFF MUL NOT AND SWAP1 DUP4 PUSH16 0xFFFFFFFFFFFFFFFFFFFFFFFFFFFFFFFF AND MUL OR SWAP1 SSTORE POP POP POP POP SWAP4 SWAP3 POP POP POP JUMP JUMPDEST PUSH0 DUP2 DUP4 PUSH2 0xFD1 SWAP2 SWAP1 PUSH2 0x2CD7 JUMP JUMPDEST PUSH1 0x2 SIGNEXTEND EQ PUSH2 0xFDD JUMPI PUSH0 PUSH0 REVERT JUMPDEST PUSH0 PUSH0 PUSH2 0xFF3 DUP4 DUP6 PUSH2 0xFEE SWAP2 SWAP1 PUSH2 0x2D07 JUMP JUMPDEST PUSH2 0x1E9B JUMP JUMPDEST SWAP2 POP SWAP2 POP PUSH0 DUP2 PUSH1 0xFF AND PUSH1 0x1 SWAP1 SHL SWAP1 POP DUP1 DUP7 PUSH0 DUP6 PUSH1 0x1 SIGNEXTEND PUSH1 0x1 SIGNEXTEND DUP2 MSTORE PUSH1 0x20 ADD SWAP1 DUP2 MSTORE PUSH1 0x20 ADD PUSH0 KECCAK256 PUSH0 DUP3 DUP3 SLOAD XOR SWAP3 POP POP DUP2 SWAP1 SSTORE POP POP POP POP POP POP POP JUMP JUMPDEST PUSH0 DUP5 PUSH0 DUP6 DUP6 DUP6 PUSH1 0x40 MLOAD PUSH1 0x20 ADD PUSH2 0x1045 SWAP4 SWAP3 SWAP2 SWAP1 PUSH2 0x2DE8 JUMP JUMPDEST PUSH1 0x40 MLOAD PUSH1 0x20 DUP2 DUP4 SUB SUB DUP2 MSTORE SWAP1 PUSH1 0x40 MSTORE DUP1 MLOAD SWAP1 PUSH1 0x20 ADD KECCAK256 DUP2 MSTORE PUSH1 0x20 ADD SWAP1 DUP2 MSTORE PUSH1 0x20 ADD PUSH0 KECCAK256 SWAP1 POP SWAP5 SWAP4 POP POP POP POP JUMP JUMPDEST PUSH0 DUP3 PUSH0 ADD PUSH0 SWAP1 SLOAD SWAP1 PUSH2 0x100 EXP SWAP1 DIV PUSH16 0xFFFFFFFFFFFFFFFFFFFFFFFFFFFFFFFF AND SWAP1 POP PUSH0 DUP3 DUP3 PUSH2 0x10A1 SWAP2 SWAP1 PUSH2 0x29EB JUMP JUMPDEST SWAP1 POP DUP1 DUP5 PUSH0 ADD PUSH0 PUSH2 0x100 EXP DUP2 SLOAD DUP2 PUSH16 0xFFFFFFFFFFFFFFFFFFFFFFFFFFFFFFFF MUL NOT AND SWAP1 DUP4 PUSH16 0xFFFFFFFFFFFFFFFFFFFFFFFFFFFFFFFF AND MUL OR SWAP1 SSTORE POP POP POP POP POP JUMP JUMPDEST PUSH0 PUSH0 PUSH0 DUP4 PUSH1 0x2 SIGNEXTEND SLT PUSH2 0x10F7 JUMPI DUP3 PUSH1 0x2 SIGNEXTEND PUSH2 0x1105 JUMP JUMPDEST DUP3 PUSH1 0x2 SIGNEXTEND PUSH2 0x1104 SWAP1 PUSH2 0x2B6F JUMP JUMPDEST JUMPDEST SWAP1 POP PUSH32 0xFFFFFFFFFFFFFFFFFFFFFFFFFFFFFFFFFFFFFFFFFFFFFFFFFFFFFFFFFFF27618 PUSH2 0x1131 SWAP1 PUSH2 0x29A5 JUMP JUMPDEST PUSH3 0xFFFFFF AND DUP2 GT ISZERO PUSH2 0x1178 JUMPI PUSH1 0x40 MLOAD PUSH32 0x8C379A000000000000000000000000000000000000000000000000000000000 DUP2 MSTORE PUSH1 0x4 ADD PUSH2 0x116F SWAP1 PUSH2 0x2E7E JUMP JUMPDEST PUSH1 0x40 MLOAD DUP1 SWAP2 SUB SWAP1 REVERT JUMPDEST PUSH0 PUSH0 PUSH1 0x1 DUP4 AND SUB PUSH2 0x119A JUMPI PUSH17 0x100000000000000000000000000000000 PUSH2 0x11AC JUMP JUMPDEST PUSH16 0xFFFCB933BD6FAD37AA2D162D1A594001 JUMPDEST PUSH17 0xFFFFFFFFFFFFFFFFFFFFFFFFFFFFFFFFFF AND SWAP1 POP PUSH0 PUSH1 0x2 DUP4 AND EQ PUSH2 0x11EE JUMPI PUSH1 0x80 PUSH16 0xFFF97272373D413259A46990580E213A DUP3 PUSH2 0x11E9 SWAP2 SWAP1 PUSH2 0x2E9C JUMP JUMPDEST SWAP1 SHR SWAP1 POP JUMPDEST PUSH0 PUSH1 0x4 DUP4 AND EQ PUSH2 0x121B JUMPI PUSH1 0x80 PUSH16 0xFFF2E50F5F656932EF12357CF3C7FDCC DUP3 PUSH2 0x1216 SWAP2 SWAP1 PUSH2 0x2E9C JUMP JUMPDEST SWAP1 SHR SWAP1 POP JUMPDEST PUSH0 PUSH1 0x8 DUP4 AND EQ PUSH2 0x1248 JUMPI PUSH1 0x80 PUSH16 0xFFE5CACA7E10E4E61C3624EAA0941CD0 DUP3 PUSH2 0x1243 SWAP2 SWAP1 PUSH2 0x2E9C JUMP JUMPDEST SWAP1 SHR SWAP1 POP JUMPDEST PUSH0 PUSH1 0x10 DUP4 AND EQ PUSH2 0x1275 JUMPI PUSH1 0x80 PUSH16 0xFFCB9843D60F6159C9DB58835C926644 DUP3 PUSH2 0x1270 SWAP2 SWAP1 PUSH2 0x2E9C JUMP JUMPDEST SWAP1 SHR SWAP1 POP JUMPDEST PUSH0 PUSH1 0x20 DUP4 AND EQ PUSH2 0x12A2 JUMPI PUSH1 0x80 PUSH16 0xFF973B41FA98C081472E6896DFB254C0 DUP3 PUSH2 0x129D SWAP2 SWAP1 PUSH2 0x2E9C JUMP JUMPDEST SWAP1 SHR SWAP1 POP JUMPDEST PUSH0 PUSH1 0x40 DUP4 AND EQ PUSH2 0x12CF JUMPI PUSH1 0x80 PUSH16 0xFF2EA16466C96A3843EC78B326B52861 DUP3 PUSH2 0x12CA SWAP2 SWAP1 PUSH2 0x2E9C JUMP JUMPDEST SWAP1 SHR SWAP1 POP JUMPDEST PUSH0 PUSH1 0x80 DUP4 AND EQ PUSH2 0x12FC JUMPI PUSH1 0x80 PUSH16 0xFE5DEE046A99A2A811C461F1969C3053 DUP3 PUSH2 0x12F7 SWAP2 SWAP1 PUSH2 0x2E9C JUMP JUMPDEST SWAP1 SHR SWAP1 POP JUMPDEST PUSH0 PUSH2 0x100 DUP4 AND EQ PUSH2 0x132A JUMPI PUSH1 0x80 PUSH16 0xFCBE86C7900A88AEDCFFC83B479AA3A4 DUP3 PUSH2 0x1325 SWAP2 SWAP1 PUSH2 0x2E9C JUMP JUMPDEST SWAP1 SHR SWAP1 POP JUMPDEST PUSH0 PUSH2 0x200 DUP4 AND EQ PUSH2 0x1358 JUMPI PUSH1 0x80 PUSH16 0xF987A7253AC413176F2B074CF7815E54 DUP3 PUSH2 0x1353 SWAP2 SWAP1 PUSH2 0x2E9C JUMP JUMPDEST SWAP1 SHR SWAP1 POP JUMPDEST PUSH0 PUSH2 0x400 DUP4 AND EQ PUSH2 0x1386 JUMPI PUSH1 0x80 PUSH16 0xF3392B0822B70005940C7A398E4B70F3 DUP3 PUSH2 0x1381 SWAP2 SWAP1 PUSH2 0x2E9C JUMP JUMPDEST SWAP1 SHR SWAP1 POP JUMPDEST PUSH0 PUSH2 0x800 DUP4 AND EQ PUSH2 0x13B4 JUMPI PUSH1 0x80 PUSH16 0xE7159475A2C29B7443B29C7FA6E889D9 DUP3 PUSH2 0x13AF SWAP2 SWAP1 PUSH2 0x2E9C JUMP JUMPDEST SWAP1 SHR SWAP1 POP JUMPDEST PUSH0 PUSH2 0x1000 DUP4 AND EQ PUSH2 0x13E2 JUMPI PUSH1 0x80 PUSH16 0xD097F3BDFD2022B8845AD8F792AA5825 DUP3 PUSH2 0x13DD SWAP2 SWAP1 PUSH2 0x2E9C JUMP JUMPDEST SWAP1 SHR SWAP1 POP JUMPDEST PUSH0 PUSH2 0x2000 DUP4 AND EQ PUSH2 0x1410 JUMPI PUSH1 0x80 PUSH16 0xA9F746462D870FDF8A65DC1F90E061E5 DUP3 PUSH2 0x140B SWAP2 SWAP1 PUSH2 0x2E9C JUMP JUMPDEST SWAP1 SHR SWAP1 POP JUMPDEST PUSH0 PUSH2 0x4000 DUP4 AND EQ PUSH2 0x143E JUMPI PUSH1 0x80 PUSH16 0x70D869A156D2A1B890BB3DF62BAF32F7 DUP3 PUSH2 0x1439 SWAP2 SWAP1 PUSH2 0x2E9C JUMP JUMPDEST SWAP1 SHR SWAP1 POP JUMPDEST PUSH0 PUSH2 0x8000 DUP4 AND EQ PUSH2 0x146C JUMPI PUSH1 0x80 PUSH16 0x31BE135F97D08FD981231505542FCFA6 DUP3 PUSH2 0x1467 SWAP2 SWAP1 PUSH2 0x2E9C JUMP JUMPDEST SWAP1 SHR SWAP1 POP JUMPDEST PUSH0 PUSH3 0x10000 DUP4 AND EQ PUSH2 0x149B JUMPI PUSH1 0x80 PUSH16 0x9AA508B5B7A84E1C677DE54F3E99BC9 DUP3 PUSH2 0x1496 SWAP2 SWAP1 PUSH2 0x2E9C JUMP JUMPDEST SWAP1 SHR SWAP1 POP JUMPDEST PUSH0 PUSH3 0x20000 DUP4 AND EQ PUSH2 0x14C9 JUMPI PUSH1 0x80 PUSH15 0x5D6AF8DEDB81196699C329225EE604 DUP3 PUSH2 0x14C4 SWAP2 SWAP1 PUSH2 0x2E9C JUMP JUMPDEST SWAP1 SHR SWAP1 POP JUMPDEST PUSH0 PUSH3 0x40000 DUP4 AND EQ PUSH2 0x14F6 JUMPI PUSH1 0x80 PUSH14 0x2216E584F5FA1EA926041BEDFE98 DUP3 PUSH2 0x14F1 SWAP2 SWAP1 PUSH2 0x2E9C JUMP JUMPDEST SWAP1 SHR SWAP1 POP JUMPDEST PUSH0 PUSH3 0x80000 DUP4 AND EQ PUSH2 0x1521 JUMPI PUSH1 0x80 PUSH12 0x48A170391F7DC42444E8FA2 DUP3 PUSH2 0x151C SWAP2 SWAP1 PUSH2 0x2E9C JUMP JUMPDEST SWAP1 SHR SWAP1 POP JUMPDEST PUSH0 DUP5 PUSH1 0x2 SIGNEXTEND SGT ISZERO PUSH2 0x155B JUMPI DUP1 PUSH32 0xFFFFFFFFFFFFFFFFFFFFFFFFFFFFFFFFFFFFFFFFFFFFFFFFFFFFFFFFFFFFFFFF PUSH2 0x1558 SWAP2 SWAP1 PUSH2 0x2EDD JUMP JUMPDEST SWAP1 POP JUMPDEST PUSH0 PUSH5 0x100000000 DUP3 PUSH2 0x156D SWAP2 SWAP1 PUSH2 0x2F0D JUMP JUMPDEST EQ PUSH2 0x1579 JUMPI PUSH1 0x1 PUSH2 0x157B JUMP JUMPDEST PUSH0 JUMPDEST PUSH1 0xFF AND PUSH1 0x20 DUP3 SWAP1 SHR PUSH2 0x158D SWAP2 SWAP1 PUSH2 0x2AC6 JUMP JUMPDEST SWAP3 POP POP POP SWAP2 SWAP1 POP JUMP JUMPDEST PUSH0 DUP3 PUSH20 0xFFFFFFFFFFFFFFFFFFFFFFFFFFFFFFFFFFFFFFFF AND DUP5 PUSH20 0xFFFFFFFFFFFFFFFFFFFFFFFFFFFFFFFFFFFFFFFF AND GT ISZERO PUSH2 0x15D6 JUMPI DUP3 DUP5 DUP1 SWAP5 POP DUP2 SWAP6 POP POP POP JUMPDEST PUSH0 DUP5 PUSH20 0xFFFFFFFFFFFFFFFFFFFFFFFFFFFFFFFFFFFFFFFF AND GT PUSH2 0x15F7 JUMPI PUSH0 PUSH0 REVERT JUMPDEST PUSH2 0x1671 PUSH2 0x1655 PUSH1 0x60 PUSH1 0xFF AND DUP5 PUSH16 0xFFFFFFFFFFFFFFFFFFFFFFFFFFFFFFFF AND SWAP1 SHL DUP7 DUP7 PUSH2 0x1623 SWAP2 SWAP1 PUSH2 0x2F3D JUMP JUMPDEST PUSH20 0xFFFFFFFFFFFFFFFFFFFFFFFFFFFFFFFFFFFFFFFF AND DUP7 PUSH20 0xFFFFFFFFFFFFFFFFFFFFFFFFFFFFFFFFFFFFFFFF AND PUSH2 0x1EBC JUMP JUMPDEST DUP6 PUSH20 0xFFFFFFFFFFFFFFFFFFFFFFFFFFFFFFFFFFFFFFFF AND PUSH2 0x1F24 JUMP JUMPDEST SWAP1 POP SWAP4 SWAP3 POP POP POP JUMP JUMPDEST PUSH0 DUP3 PUSH20 0xFFFFFFFFFFFFFFFFFFFFFFFFFFFFFFFFFFFFFFFF AND DUP5 PUSH20 0xFFFFFFFFFFFFFFFFFFFFFFFFFFFFFFFFFFFFFFFF AND GT ISZERO PUSH2 0x16BA JUMPI DUP3 DUP5 DUP1 SWAP5 POP DUP2 SWAP6 POP POP POP JUMPDEST PUSH2 0x1705 DUP3 PUSH16 0xFFFFFFFFFFFFFFFFFFFFFFFFFFFFFFFF AND DUP6 DUP6 PUSH2 0x16DC SWAP2 SWAP1 PUSH2 0x2F3D JUMP JUMPDEST PUSH20 0xFFFFFFFFFFFFFFFFFFFFFFFFFFFFFFFFFFFFFFFF AND PUSH13 0x1000000000000000000000000 PUSH2 0x1EBC JUMP JUMPDEST SWAP1 POP SWAP4 SWAP3 POP POP POP JUMP JUMPDEST PUSH0 PUSH32 0x0 PUSH20 0xFFFFFFFFFFFFFFFFFFFFFFFFFFFFFFFFFFFFFFFF AND PUSH4 0x70A08231 ADDRESS PUSH1 0x40 MLOAD DUP3 PUSH4 0xFFFFFFFF AND PUSH1 0xE0 SHL DUP2 MSTORE PUSH1 0x4 ADD PUSH2 0x1768 SWAP2 SWAP1 PUSH2 0x24B4 JUMP JUMPDEST PUSH1 0x20 PUSH1 0x40 MLOAD DUP1 DUP4 SUB DUP2 DUP7 GAS STATICCALL ISZERO DUP1 ISZERO PUSH2 0x1783 JUMPI RETURNDATASIZE PUSH0 PUSH0 RETURNDATACOPY RETURNDATASIZE PUSH0 REVERT JUMPDEST POP POP POP POP PUSH1 0x40 MLOAD RETURNDATASIZE PUSH1 0x1F NOT PUSH1 0x1F DUP3 ADD AND DUP3 ADD DUP1 PUSH1 0x40 MSTORE POP DUP2 ADD SWAP1 PUSH2 0x17A7 SWAP2 SWAP1 PUSH2 0x2F98 JUMP JUMPDEST SWAP1 POP SWAP1 JUMP JUMPDEST PUSH0 PUSH32 0x0 PUSH20 0xFFFFFFFFFFFFFFFFFFFFFFFFFFFFFFFFFFFFFFFF AND PUSH4 0x70A08231 ADDRESS PUSH1 0x40 MLOAD DUP3 PUSH4 0xFFFFFFFF AND PUSH1 0xE0 SHL DUP2 MSTORE PUSH1 0x4 ADD PUSH2 0x1806 SWAP2 SWAP1 PUSH2 0x24B4 JUMP JUMPDEST PUSH1 0x20 PUSH1 0x40 MLOAD DUP1 DUP4 SUB DUP2 DUP7 GAS STATICCALL ISZERO DUP1 ISZERO PUSH2 0x1821 JUMPI RETURNDATASIZE PUSH0 PUSH0 RETURNDATACOPY RETURNDATASIZE PUSH0 REVERT JUMPDEST POP POP POP POP PUSH1 0x40 MLOAD RETURNDATASIZE PUSH1 0x1F NOT PUSH1 0x1F DUP3 ADD AND DUP3 ADD DUP1 PUSH1 0x40 MSTORE POP DUP2 ADD SWAP1 PUSH2 0x1845 SWAP2 SWAP1 PUSH2 0x2F98 JUMP JUMPDEST SWAP1 POP SWAP1 JUMP JUMPDEST PUSH0 PUSH0 PUSH0 DUP5 DUP7 PUSH2 0x1859 SWAP2 SWAP1 PUSH2 0x2D07 JUMP JUMPDEST SWAP1 POP PUSH0 DUP7 PUSH1 0x2 SIGNEXTEND SLT DUP1 ISZERO PUSH2 0x187B JUMPI POP PUSH0 DUP6 DUP8 PUSH2 0x1875 SWAP2 SWAP1 PUSH2 0x2CD7 JUMP JUMPDEST PUSH1 0x2 SIGNEXTEND EQ ISZERO JUMPDEST ISZERO PUSH2 0x188F JUMPI DUP1 DUP1 PUSH2 0x188B SWAP1 PUSH2 0x2FC3 JUMP JUMPDEST SWAP2 POP POP JUMPDEST DUP4 ISZERO PUSH2 0x194C JUMPI PUSH0 PUSH0 PUSH2 0x18A0 DUP4 PUSH2 0x1E9B JUMP JUMPDEST SWAP2 POP SWAP2 POP PUSH0 DUP2 PUSH1 0xFF AND PUSH1 0x1 SWAP1 SHL PUSH1 0x1 DUP4 PUSH1 0xFF AND PUSH1 0x1 SWAP1 SHL PUSH2 0x18C1 SWAP2 SWAP1 PUSH2 0x2B3C JUMP JUMPDEST PUSH2 0x18CB SWAP2 SWAP1 PUSH2 0x2AC6 JUMP JUMPDEST SWAP1 POP PUSH0 DUP2 DUP12 PUSH0 DUP7 PUSH1 0x1 SIGNEXTEND PUSH1 0x1 SIGNEXTEND DUP2 MSTORE PUSH1 0x20 ADD SWAP1 DUP2 MSTORE PUSH1 0x20 ADD PUSH0 KECCAK256 SLOAD AND SWAP1 POP PUSH0 DUP2 EQ ISZERO SWAP6 POP DUP6 PUSH2 0x1913 JUMPI DUP9 DUP4 PUSH1 0xFF AND DUP7 PUSH2 0x1904 SWAP2 SWAP1 PUSH2 0x300A JUMP JUMPDEST PUSH2 0x190E SWAP2 SWAP1 PUSH2 0x3064 JUMP JUMPDEST PUSH2 0x1941 JUMP JUMPDEST DUP9 PUSH2 0x191D DUP3 PUSH2 0x1F36 JUMP JUMPDEST DUP5 PUSH2 0x1928 SWAP2 SWAP1 PUSH2 0x30AC JUMP JUMPDEST PUSH1 0xFF AND DUP7 PUSH2 0x1936 SWAP2 SWAP1 PUSH2 0x300A JUMP JUMPDEST PUSH2 0x1940 SWAP2 SWAP1 PUSH2 0x3064 JUMP JUMPDEST JUMPDEST SWAP7 POP POP POP POP POP PUSH2 0x1A1E JUMP JUMPDEST PUSH0 PUSH0 PUSH2 0x1963 PUSH1 0x1 DUP5 PUSH2 0x195E SWAP2 SWAP1 PUSH2 0x30E0 JUMP JUMPDEST PUSH2 0x1E9B JUMP JUMPDEST SWAP2 POP SWAP2 POP PUSH0 PUSH1 0x1 DUP3 PUSH1 0xFF AND PUSH1 0x1 SWAP1 SHL PUSH2 0x197C SWAP2 SWAP1 PUSH2 0x2B3C JUMP JUMPDEST NOT SWAP1 POP PUSH0 DUP2 DUP12 PUSH0 DUP7 PUSH1 0x1 SIGNEXTEND PUSH1 0x1 SIGNEXTEND DUP2 MSTORE PUSH1 0x20 ADD SWAP1 DUP2 MSTORE PUSH1 0x20 ADD PUSH0 KECCAK256 SLOAD AND SWAP1 POP PUSH0 DUP2 EQ ISZERO SWAP6 POP DUP6 PUSH2 0x19DD JUMPI DUP9 DUP4 PUSH1 0xFF PUSH2 0x19B4 SWAP2 SWAP1 PUSH2 0x30AC JUMP JUMPDEST PUSH1 0xFF AND PUSH1 0x1 DUP8 PUSH2 0x19C4 SWAP2 SWAP1 PUSH2 0x30E0 JUMP JUMPDEST PUSH2 0x19CE SWAP2 SWAP1 PUSH2 0x30E0 JUMP JUMPDEST PUSH2 0x19D8 SWAP2 SWAP1 PUSH2 0x3064 JUMP JUMPDEST PUSH2 0x1A17 JUMP JUMPDEST DUP9 DUP4 PUSH2 0x19E8 DUP4 PUSH2 0x2057 JUMP JUMPDEST PUSH2 0x19F2 SWAP2 SWAP1 PUSH2 0x30AC JUMP JUMPDEST PUSH1 0xFF AND PUSH1 0x1 DUP8 PUSH2 0x1A02 SWAP2 SWAP1 PUSH2 0x30E0 JUMP JUMPDEST PUSH2 0x1A0C SWAP2 SWAP1 PUSH2 0x30E0 JUMP JUMPDEST PUSH2 0x1A16 SWAP2 SWAP1 PUSH2 0x3064 JUMP JUMPDEST JUMPDEST SWAP7 POP POP POP POP POP JUMPDEST POP SWAP5 POP SWAP5 SWAP3 POP POP POP JUMP JUMPDEST PUSH0 PUSH0 PUSH0 PUSH0 DUP7 PUSH20 0xFFFFFFFFFFFFFFFFFFFFFFFFFFFFFFFFFFFFFFFF AND DUP9 PUSH20 0xFFFFFFFFFFFFFFFFFFFFFFFFFFFFFFFFFFFFFFFF AND LT ISZERO SWAP1 POP PUSH2 0x1A6A DUP9 DUP8 DUP8 DUP5 PUSH2 0x21BC JUMP JUMPDEST SWAP4 POP PUSH2 0x1A77 DUP9 DUP6 DUP9 PUSH2 0x1596 JUMP JUMPDEST SWAP3 POP PUSH2 0x1A84 DUP9 DUP6 DUP9 PUSH2 0x167A JUMP JUMPDEST SWAP2 POP DUP1 PUSH2 0x1A96 JUMPI DUP2 DUP4 DUP1 SWAP4 POP DUP2 SWAP5 POP POP POP JUMPDEST POP SWAP5 POP SWAP5 POP SWAP5 SWAP2 POP POP JUMP JUMPDEST PUSH0 PUSH5 0x1000276A3 PUSH20 0xFFFFFFFFFFFFFFFFFFFFFFFFFFFFFFFFFFFFFFFF AND DUP3 PUSH20 0xFFFFFFFFFFFFFFFFFFFFFFFFFFFFFFFFFFFFFFFF AND LT ISZERO DUP1 ISZERO PUSH2 0x1B22 JUMPI POP PUSH20 0xFFFD8963EFD1FC6A506488495D951D5263988D26 PUSH20 0xFFFFFFFFFFFFFFFFFFFFFFFFFFFFFFFFFFFFFFFF AND DUP3 PUSH20 0xFFFFFFFFFFFFFFFFFFFFFFFFFFFFFFFFFFFFFFFF AND LT JUMPDEST PUSH2 0x1B61 JUMPI PUSH1 0x40 MLOAD PUSH32 0x8C379A000000000000000000000000000000000000000000000000000000000 DUP2 MSTORE PUSH1 0x4 ADD PUSH2 0x1B58 SWAP1 PUSH2 0x3184 JUMP JUMPDEST PUSH1 0x40 MLOAD DUP1 SWAP2 SUB SWAP1 REVERT JUMPDEST PUSH0 PUSH1 0x20 DUP4 PUSH20 0xFFFFFFFFFFFFFFFFFFFFFFFFFFFFFFFFFFFFFFFF AND SWAP1 SHL SWAP1 POP PUSH0 DUP2 SWAP1 POP PUSH0 PUSH0 SWAP1 POP PUSH16 0xFFFFFFFFFFFFFFFFFFFFFFFFFFFFFFFF DUP3 GT PUSH1 0x7 SHL DUP1 DUP3 OR SWAP2 POP DUP3 DUP2 SHR SWAP3 POP POP PUSH8 0xFFFFFFFFFFFFFFFF DUP3 GT PUSH1 0x6 SHL DUP1 DUP3 OR SWAP2 POP DUP3 DUP2 SHR SWAP3 POP POP PUSH4 0xFFFFFFFF DUP3 GT PUSH1 0x5 SHL DUP1 DUP3 OR SWAP2 POP DUP3 DUP2 SHR SWAP3 POP POP PUSH2 0xFFFF DUP3 GT PUSH1 0x4 SHL DUP1 DUP3 OR SWAP2 POP DUP3 DUP2 SHR SWAP3 POP POP PUSH1 0xFF DUP3 GT PUSH1 0x3 SHL DUP1 DUP3 OR SWAP2 POP DUP3 DUP2 SHR SWAP3 POP POP PUSH1 0xF DUP3 GT PUSH1 0x2 SHL DUP1 DUP3 OR SWAP2 POP DUP3 DUP2 SHR SWAP3 POP POP PUSH1 0x3 DUP3 GT PUSH1 0x1 SHL DUP1 DUP3 OR SWAP2 POP DUP3 DUP2 SHR SWAP3 POP POP PUSH1 0x1 DUP3 GT DUP1 DUP3 OR SWAP2 POP POP PUSH1 0x80 DUP2 LT PUSH2 0x1C48 JUMPI PUSH1 0x7F DUP2 PUSH2 0x1C3E SWAP2 SWAP1 PUSH2 0x2B3C JUMP JUMPDEST DUP4 SWAP1 SHR SWAP2 POP PUSH2 0x1C5B JUMP JUMPDEST DUP1 PUSH1 0x7F PUSH2 0x1C55 SWAP2 SWAP1 PUSH2 0x2B3C JUMP JUMPDEST DUP4 SWAP1 SHL SWAP2 POP JUMPDEST PUSH0 PUSH1 0x40 PUSH1 0x80 DUP4 PUSH2 0x1C6B SWAP2 SWAP1 PUSH2 0x31A2 JUMP JUMPDEST SWAP1 SHL SWAP1 POP DUP3 DUP4 MUL PUSH1 0x7F SHR SWAP3 POP DUP3 PUSH1 0x80 SHR DUP1 PUSH1 0x3F SHL DUP3 OR SWAP2 POP DUP4 DUP2 SHR SWAP4 POP POP DUP3 DUP4 MUL PUSH1 0x7F SHR SWAP3 POP DUP3 PUSH1 0x80 SHR DUP1 PUSH1 0x3E SHL DUP3 OR SWAP2 POP DUP4 DUP2 SHR SWAP4 POP POP DUP3 DUP4 MUL PUSH1 0x7F SHR SWAP3 POP DUP3 PUSH1 0x80 SHR DUP1 PUSH1 0x3D SHL DUP3 OR SWAP2 POP DUP4 DUP2 SHR SWAP4 POP POP DUP3 DUP4 MUL PUSH1 0x7F SHR SWAP3 POP DUP3 PUSH1 0x80 SHR DUP1 PUSH1 0x3C SHL DUP3 OR SWAP2 POP DUP4 DUP2 SHR SWAP4 POP POP DUP3 DUP4 MUL PUSH1 0x7F SHR SWAP3 POP DUP3 PUSH1 0x80 SHR DUP1 PUSH1 0x3B SHL DUP3 OR SWAP2 POP DUP4 DUP2 SHR SWAP4 POP POP DUP3 DUP4 MUL PUSH1 0x7F SHR SWAP3 POP DUP3 PUSH1 0x80 SHR DUP1 PUSH1 0x3A SHL DUP3 OR SWAP2 POP DUP4 DUP2 SHR SWAP4 POP POP DUP3 DUP4 MUL PUSH1 0x7F SHR SWAP3 POP DUP3 PUSH1 0x80 SHR DUP1 PUSH1 0x39 SHL DUP3 OR SWAP2 POP DUP4 DUP2 SHR SWAP4 POP POP DUP3 DUP4 MUL PUSH1 0x7F SHR SWAP3 POP DUP3 PUSH1 0x80 SHR DUP1 PUSH1 0x38 SHL DUP3 OR SWAP2 POP DUP4 DUP2 SHR SWAP4 POP POP DUP3 DUP4 MUL PUSH1 0x7F SHR SWAP3 POP DUP3 PUSH1 0x80 SHR DUP1 PUSH1 0x37 SHL DUP3 OR SWAP2 POP DUP4 DUP2 SHR SWAP4 POP POP DUP3 DUP4 MUL PUSH1 0x7F SHR SWAP3 POP DUP3 PUSH1 0x80 SHR DUP1 PUSH1 0x36 SHL DUP3 OR SWAP2 POP DUP4 DUP2 SHR SWAP4 POP POP DUP3 DUP4 MUL PUSH1 0x7F SHR SWAP3 POP DUP3 PUSH1 0x80 SHR DUP1 PUSH1 0x35 SHL DUP3 OR SWAP2 POP DUP4 DUP2 SHR SWAP4 POP POP DUP3 DUP4 MUL PUSH1 0x7F SHR SWAP3 POP DUP3 PUSH1 0x80 SHR DUP1 PUSH1 0x34 SHL DUP3 OR SWAP2 POP DUP4 DUP2 SHR SWAP4 POP POP DUP3 DUP4 MUL PUSH1 0x7F SHR SWAP3 POP DUP3 PUSH1 0x80 SHR DUP1 PUSH1 0x33 SHL DUP3 OR SWAP2 POP DUP4 DUP2 SHR SWAP4 POP POP DUP3 DUP4 MUL PUSH1 0x7F SHR SWAP3 POP DUP3 PUSH1 0x80 SHR DUP1 PUSH1 0x32 SHL DUP3 OR SWAP2 POP POP PUSH0 PUSH10 0x3627A301D71055774C85 DUP3 PUSH2 0x1DED SWAP2 SWAP1 PUSH2 0x31E2 JUMP JUMPDEST SWAP1 POP PUSH0 PUSH1 0x80 PUSH16 0x28F6481AB7F045A5AF012A19D003AAA DUP4 PUSH2 0x1E0E SWAP2 SWAP1 PUSH2 0x31A2 JUMP JUMPDEST SWAP1 SAR SWAP1 POP PUSH0 PUSH1 0x80 PUSH16 0xDB2DF09E81959A81455E260799A0632F DUP5 PUSH2 0x1E31 SWAP2 SWAP1 PUSH2 0x3258 JUMP JUMPDEST SWAP1 SAR SWAP1 POP DUP1 PUSH1 0x2 SIGNEXTEND DUP3 PUSH1 0x2 SIGNEXTEND EQ PUSH2 0x1E8B JUMPI DUP9 PUSH20 0xFFFFFFFFFFFFFFFFFFFFFFFFFFFFFFFFFFFFFFFF AND PUSH2 0x1E62 DUP3 PUSH2 0x10E2 JUMP JUMPDEST PUSH20 0xFFFFFFFFFFFFFFFFFFFFFFFFFFFFFFFFFFFFFFFF AND GT ISZERO PUSH2 0x1E84 JUMPI DUP2 PUSH2 0x1E86 JUMP JUMPDEST DUP1 JUMPDEST PUSH2 0x1E8D JUMP JUMPDEST DUP2 JUMPDEST SWAP8 POP POP POP POP POP POP POP POP SWAP2 SWAP1 POP JUMP JUMPDEST PUSH0 PUSH0 PUSH1 0x8 DUP4 PUSH1 0x2 SIGNEXTEND SWAP1 SAR SWAP2 POP PUSH2 0x100 DUP4 PUSH2 0x1EB5 SWAP2 SWAP1 PUSH2 0x2CD7 JUMP JUMPDEST SWAP1 POP SWAP2 POP SWAP2 JUMP JUMPDEST PUSH0 PUSH2 0x1EC8 DUP5 DUP5 DUP5 PUSH2 0x21E8 JUMP JUMPDEST SWAP1 POP PUSH0 DUP3 DUP1 PUSH2 0x1EDA JUMPI PUSH2 0x1ED9 PUSH2 0x2CAA JUMP JUMPDEST JUMPDEST DUP5 DUP7 MULMOD GT ISZERO PUSH2 0x1F1D JUMPI PUSH32 0xFFFFFFFFFFFFFFFFFFFFFFFFFFFFFFFFFFFFFFFFFFFFFFFFFFFFFFFFFFFFFFFF DUP2 LT PUSH2 0x1F0E JUMPI PUSH0 PUSH0 REVERT JUMPDEST DUP1 DUP1 PUSH2 0x1F19 SWAP1 PUSH2 0x3299 JUMP JUMPDEST SWAP2 POP POP JUMPDEST SWAP4 SWAP3 POP POP POP JUMP JUMPDEST PUSH0 PUSH0 DUP3 DUP5 MOD GT DUP3 DUP5 DIV ADD SWAP1 POP SWAP3 SWAP2 POP POP JUMP JUMPDEST PUSH0 PUSH0 DUP3 GT PUSH2 0x1F42 JUMPI PUSH0 PUSH0 REVERT JUMPDEST PUSH17 0x100000000000000000000000000000000 DUP3 LT PUSH2 0x1F71 JUMPI PUSH1 0x80 DUP3 SWAP1 SHR SWAP2 POP PUSH1 0x80 DUP2 PUSH2 0x1F6E SWAP2 SWAP1 PUSH2 0x32E0 JUMP JUMPDEST SWAP1 POP JUMPDEST PUSH9 0x10000000000000000 DUP3 LT PUSH2 0x1F98 JUMPI PUSH1 0x40 DUP3 SWAP1 SHR SWAP2 POP PUSH1 0x40 DUP2 PUSH2 0x1F95 SWAP2 SWAP1 PUSH2 0x32E0 JUMP JUMPDEST SWAP1 POP JUMPDEST PUSH5 0x100000000 DUP3 LT PUSH2 0x1FBB JUMPI PUSH1 0x20 DUP3 SWAP1 SHR SWAP2 POP PUSH1 0x20 DUP2 PUSH2 0x1FB8 SWAP2 SWAP1 PUSH2 0x32E0 JUMP JUMPDEST SWAP1 POP JUMPDEST PUSH3 0x10000 DUP3 LT PUSH2 0x1FDC JUMPI PUSH1 0x10 DUP3 SWAP1 SHR SWAP2 POP PUSH1 0x10 DUP2 PUSH2 0x1FD9 SWAP2 SWAP1 PUSH2 0x32E0 JUMP JUMPDEST SWAP1 POP JUMPDEST PUSH2 0x100 DUP3 LT PUSH2 0x1FFC JUMPI PUSH1 0x8 DUP3 SWAP1 SHR SWAP2 POP PUSH1 0x8 DUP2 PUSH2 0x1FF9 SWAP2 SWAP1 PUSH2 0x32E0 JUMP JUMPDEST SWAP1 POP JUMPDEST PUSH1 0x10 DUP3 LT PUSH2 0x201B JUMPI PUSH1 0x4 DUP3 SWAP1 SHR SWAP2 POP PUSH1 0x4 DUP2 PUSH2 0x2018 SWAP2 SWAP1 PUSH2 0x32E0 JUMP JUMPDEST SWAP1 POP JUMPDEST PUSH1 0x4 DUP3 LT PUSH2 0x203A JUMPI PUSH1 0x2 DUP3 SWAP1 SHR SWAP2 POP PUSH1 0x2 DUP2 PUSH2 0x2037 SWAP2 SWAP1 PUSH2 0x32E0 JUMP JUMPDEST SWAP1 POP JUMPDEST PUSH1 0x2 DUP3 LT PUSH2 0x2052 JUMPI PUSH1 0x1 DUP2 PUSH2 0x204F SWAP2 SWAP1 PUSH2 0x32E0 JUMP JUMPDEST SWAP1 POP JUMPDEST SWAP2 SWAP1 POP JUMP JUMPDEST PUSH0 PUSH0 DUP3 GT PUSH2 0x2063 JUMPI PUSH0 PUSH0 REVERT JUMPDEST PUSH1 0xFF SWAP1 POP PUSH0 PUSH16 0xFFFFFFFFFFFFFFFFFFFFFFFFFFFFFFFF DUP1 AND DUP4 AND GT ISZERO PUSH2 0x2097 JUMPI PUSH1 0x80 DUP2 PUSH2 0x2090 SWAP2 SWAP1 PUSH2 0x30AC JUMP JUMPDEST SWAP1 POP PUSH2 0x209F JUMP JUMPDEST PUSH1 0x80 DUP3 SWAP1 SHR SWAP2 POP JUMPDEST PUSH0 PUSH8 0xFFFFFFFFFFFFFFFF DUP1 AND DUP4 AND GT ISZERO PUSH2 0x20C7 JUMPI PUSH1 0x40 DUP2 PUSH2 0x20C0 SWAP2 SWAP1 PUSH2 0x30AC JUMP JUMPDEST SWAP1 POP PUSH2 0x20CF JUMP JUMPDEST PUSH1 0x40 DUP3 SWAP1 SHR SWAP2 POP JUMPDEST PUSH0 PUSH4 0xFFFFFFFF DUP1 AND DUP4 AND GT ISZERO PUSH2 0x20F3 JUMPI PUSH1 0x20 DUP2 PUSH2 0x20EC SWAP2 SWAP1 PUSH2 0x30AC JUMP JUMPDEST SWAP1 POP PUSH2 0x20FB JUMP JUMPDEST PUSH1 0x20 DUP3 SWAP1 SHR SWAP2 POP JUMPDEST PUSH0 PUSH2 0xFFFF DUP1 AND DUP4 AND GT ISZERO PUSH2 0x211D JUMPI PUSH1 0x10 DUP2 PUSH2 0x2116 SWAP2 SWAP1 PUSH2 0x30AC JUMP JUMPDEST SWAP1 POP PUSH2 0x2125 JUMP JUMPDEST PUSH1 0x10 DUP3 SWAP1 SHR SWAP2 POP JUMPDEST PUSH0 PUSH1 0xFF DUP1 AND DUP4 AND GT ISZERO PUSH2 0x2146 JUMPI PUSH1 0x8 DUP2 PUSH2 0x213F SWAP2 SWAP1 PUSH2 0x30AC JUMP JUMPDEST SWAP1 POP PUSH2 0x214E JUMP JUMPDEST PUSH1 0x8 DUP3 SWAP1 SHR SWAP2 POP JUMPDEST PUSH0 PUSH1 0xF DUP4 AND GT ISZERO PUSH2 0x216D JUMPI PUSH1 0x4 DUP2 PUSH2 0x2166 SWAP2 SWAP1 PUSH2 0x30AC JUMP JUMPDEST SWAP1 POP PUSH2 0x2175 JUMP JUMPDEST PUSH1 0x4 DUP3 SWAP1 SHR SWAP2 POP JUMPDEST PUSH0 PUSH1 0x3 DUP4 AND GT ISZERO PUSH2 0x2194 JUMPI PUSH1 0x2 DUP2 PUSH2 0x218D SWAP2 SWAP1 PUSH2 0x30AC JUMP JUMPDEST SWAP1 POP PUSH2 0x219C JUMP JUMPDEST PUSH1 0x2 DUP3 SWAP1 SHR SWAP2 POP JUMPDEST PUSH0 PUSH1 0x1 DUP4 AND GT ISZERO PUSH2 0x21B7 JUMPI PUSH1 0x1 DUP2 PUSH2 0x21B4 SWAP2 SWAP1 PUSH2 0x30AC JUMP JUMPDEST SWAP1 POP JUMPDEST SWAP2 SWAP1 POP JUMP JUMPDEST PUSH0 DUP2 PUSH2 0x21D2 JUMPI PUSH2 0x21CD DUP6 DUP6 DUP6 PUSH2 0x22F2 JUMP JUMPDEST PUSH2 0x21DE JUMP JUMPDEST PUSH2 0x21DD DUP6 DUP6 DUP6 PUSH2 0x232C JUMP JUMPDEST JUMPDEST SWAP1 POP SWAP5 SWAP4 POP POP POP POP JUMP JUMPDEST PUSH0 PUSH0 PUSH0 PUSH0 NOT DUP6 DUP8 MULMOD DUP6 DUP8 MUL SWAP3 POP DUP3 DUP2 LT DUP4 DUP3 SUB SUB SWAP2 POP POP PUSH0 DUP2 SUB PUSH2 0x2220 JUMPI DUP4 DUP3 DUP2 PUSH2 0x2216 JUMPI PUSH2 0x2215 PUSH2 0x2CAA JUMP JUMPDEST JUMPDEST DIV SWAP3 POP POP POP PUSH2 0x22EB JUMP JUMPDEST DUP1 DUP5 GT PUSH2 0x2262 JUMPI PUSH1 0x40 MLOAD PUSH32 0x8C379A000000000000000000000000000000000000000000000000000000000 DUP2 MSTORE PUSH1 0x4 ADD PUSH2 0x2259 SWAP1 PUSH2 0x335E JUMP JUMPDEST PUSH1 0x40 MLOAD DUP1 SWAP2 SUB SWAP1 REVERT JUMPDEST PUSH0 DUP5 DUP7 DUP9 MULMOD SWAP1 POP DUP3 DUP2 GT DUP3 SUB SWAP2 POP DUP1 DUP4 SUB SWAP3 POP PUSH0 PUSH1 0x1 DUP7 NOT ADD DUP7 AND SWAP1 POP DUP1 DUP7 DIV SWAP6 POP DUP1 DUP5 DIV SWAP4 POP PUSH1 0x1 DUP2 DUP3 PUSH0 SUB DIV ADD SWAP1 POP DUP1 DUP4 MUL DUP5 OR SWAP4 POP PUSH0 PUSH1 0x2 DUP8 PUSH1 0x3 MUL XOR SWAP1 POP DUP1 DUP8 MUL PUSH1 0x2 SUB DUP2 MUL SWAP1 POP DUP1 DUP8 MUL PUSH1 0x2 SUB DUP2 MUL SWAP1 POP DUP1 DUP8 MUL PUSH1 0x2 SUB DUP2 MUL SWAP1 POP DUP1 DUP8 MUL PUSH1 0x2 SUB DUP2 MUL SWAP1 POP DUP1 DUP8 MUL PUSH1 0x2 SUB DUP2 MUL SWAP1 POP DUP1 DUP8 MUL PUSH1 0x2 SUB DUP2 MUL SWAP1 POP DUP1 DUP6 MUL SWAP6 POP POP POP POP POP POP JUMPDEST SWAP4 SWAP3 POP POP POP JUMP JUMPDEST PUSH0 DUP3 PUSH16 0xFFFFFFFFFFFFFFFFFFFFFFFFFFFFFFFF AND PUSH1 0x60 PUSH1 0xFF AND DUP4 SWAP1 SHL PUSH2 0x2318 SWAP2 SWAP1 PUSH2 0x2EDD JUMP JUMPDEST DUP5 PUSH2 0x2323 SWAP2 SWAP1 PUSH2 0x337C JUMP JUMPDEST SWAP1 POP SWAP4 SWAP3 POP POP POP JUMP JUMPDEST PUSH0 PUSH0 PUSH1 0x60 PUSH1 0xFF AND DUP5 PUSH16 0xFFFFFFFFFFFFFFFFFFFFFFFFFFFFFFFF AND SWAP1 SHL SWAP1 POP PUSH0 DUP6 PUSH20 0xFFFFFFFFFFFFFFFFFFFFFFFFFFFFFFFFFFFFFFFF AND DUP5 PUSH2 0x236D SWAP2 SWAP1 PUSH2 0x2E9C JUMP JUMPDEST SWAP1 POP DUP6 PUSH20 0xFFFFFFFFFFFFFFFFFFFFFFFFFFFFFFFFFFFFFFFF AND DUP5 DUP3 PUSH2 0x2392 SWAP2 SWAP1 PUSH2 0x2EDD JUMP JUMPDEST SUB PUSH2 0x23DA JUMPI PUSH0 DUP2 DUP4 PUSH2 0x23A4 SWAP2 SWAP1 PUSH2 0x2AC6 JUMP JUMPDEST SWAP1 POP DUP3 DUP2 LT PUSH2 0x23D8 JUMPI PUSH2 0x23CE DUP4 DUP9 PUSH20 0xFFFFFFFFFFFFFFFFFFFFFFFFFFFFFFFFFFFFFFFF AND DUP4 PUSH2 0x1EBC JUMP JUMPDEST SWAP4 POP POP POP POP PUSH2 0x2415 JUMP JUMPDEST POP JUMPDEST PUSH2 0x2410 DUP3 DUP6 DUP9 PUSH20 0xFFFFFFFFFFFFFFFFFFFFFFFFFFFFFFFFFFFFFFFF AND DUP6 PUSH2 0x2401 SWAP2 SWAP1 PUSH2 0x2EDD JUMP JUMPDEST PUSH2 0x240B SWAP2 SWAP1 PUSH2 0x2AC6 JUMP JUMPDEST PUSH2 0x1F24 JUMP JUMPDEST SWAP3 POP POP POP JUMPDEST SWAP4 SWAP3 POP POP POP JUMP JUMPDEST PUSH1 0x40 MLOAD DUP1 PUSH1 0xA0 ADD PUSH1 0x40 MSTORE DUP1 PUSH0 PUSH20 0xFFFFFFFFFFFFFFFFFFFFFFFFFFFFFFFFFFFFFFFF AND DUP2 MSTORE PUSH1 0x20 ADD PUSH0 PUSH1 0x2 SIGNEXTEND DUP2 MSTORE PUSH1 0x20 ADD PUSH0 PUSH20 0xFFFFFFFFFFFFFFFFFFFFFFFFFFFFFFFFFFFFFFFF AND DUP2 MSTORE PUSH1 0x20 ADD PUSH0 DUP2 MSTORE PUSH1 0x20 ADD PUSH0 DUP2 MSTORE POP SWAP1 JUMP JUMPDEST PUSH0 PUSH20 0xFFFFFFFFFFFFFFFFFFFFFFFFFFFFFFFFFFFFFFFF DUP3 AND SWAP1 POP SWAP2 SWAP1 POP JUMP JUMPDEST PUSH0 PUSH2 0x249E DUP3 PUSH2 0x2475 JUMP JUMPDEST SWAP1 POP SWAP2 SWAP1 POP JUMP JUMPDEST PUSH2 0x24AE DUP2 PUSH2 0x2494 JUMP JUMPDEST DUP3 MSTORE POP POP JUMP JUMPDEST PUSH0 PUSH1 0x20 DUP3 ADD SWAP1 POP PUSH2 0x24C7 PUSH0 DUP4 ADD DUP5 PUSH2 0x24A5 JUMP JUMPDEST SWAP3 SWAP2 POP POP JUMP JUMPDEST PUSH0 PUSH16 0xFFFFFFFFFFFFFFFFFFFFFFFFFFFFFFFF DUP3 AND SWAP1 POP SWAP2 SWAP1 POP JUMP JUMPDEST PUSH2 0x24F1 DUP2 PUSH2 0x24CD JUMP JUMPDEST DUP3 MSTORE POP POP JUMP JUMPDEST PUSH0 PUSH1 0x20 DUP3 ADD SWAP1 POP PUSH2 0x250A PUSH0 DUP4 ADD DUP5 PUSH2 0x24E8 JUMP JUMPDEST SWAP3 SWAP2 POP POP JUMP JUMPDEST PUSH2 0x2519 DUP2 PUSH2 0x2475 JUMP JUMPDEST DUP3 MSTORE POP POP JUMP JUMPDEST PUSH0 DUP2 PUSH1 0x2 SIGNEXTEND SWAP1 POP SWAP2 SWAP1 POP JUMP JUMPDEST PUSH2 0x2534 DUP2 PUSH2 0x251F JUMP JUMPDEST DUP3 MSTORE POP POP JUMP JUMPDEST PUSH0 PUSH1 0x40 DUP3 ADD SWAP1 POP PUSH2 0x254D PUSH0 DUP4 ADD DUP6 PUSH2 0x2510 JUMP JUMPDEST PUSH2 0x255A PUSH1 0x20 DUP4 ADD DUP5 PUSH2 0x252B JUMP JUMPDEST SWAP4 SWAP3 POP POP POP JUMP JUMPDEST PUSH0 PUSH0 REVERT JUMPDEST PUSH0 PUSH0 REVERT JUMPDEST PUSH2 0x2572 DUP2 PUSH2 0x2494 JUMP JUMPDEST DUP2 EQ PUSH2 0x257C JUMPI PUSH0 PUSH0 REVERT JUMPDEST POP JUMP JUMPDEST PUSH0 DUP2 CALLDATALOAD SWAP1 POP PUSH2 0x258D DUP2 PUSH2 0x2569 JUMP JUMPDEST SWAP3 SWAP2 POP POP JUMP JUMPDEST PUSH2 0x259C DUP2 PUSH2 0x251F JUMP JUMPDEST DUP2 EQ PUSH2 0x25A6 JUMPI PUSH0 PUSH0 REVERT JUMPDEST POP JUMP JUMPDEST PUSH0 DUP2 CALLDATALOAD SWAP1 POP PUSH2 0x25B7 DUP2 PUSH2 0x2593 JUMP JUMPDEST SWAP3 SWAP2 POP POP JUMP JUMPDEST PUSH2 0x25C6 DUP2 PUSH2 0x24CD JUMP JUMPDEST DUP2 EQ PUSH2 0x25D0 JUMPI PUSH0 PUSH0 REVERT JUMPDEST POP JUMP JUMPDEST PUSH0 DUP2 CALLDATALOAD SWAP1 POP PUSH2 0x25E1 DUP2 PUSH2 0x25BD JUMP JUMPDEST SWAP3 SWAP2 POP POP JUMP JUMPDEST PUSH0 PUSH0 REVERT JUMPDEST PUSH0 PUSH0 REVERT JUMPDEST PUSH0 PUSH0 REVERT JUMPDEST PUSH0 PUSH0 DUP4 PUSH1 0x1F DUP5 ADD SLT PUSH2 0x2608 JUMPI PUSH2 0x2607 PUSH2 0x25E7 JUMP JUMPDEST JUMPDEST DUP3 CALLDATALOAD SWAP1 POP PUSH8 0xFFFFFFFFFFFFFFFF DUP2 GT ISZERO PUSH2 0x2625 JUMPI PUSH2 0x2624 PUSH2 0x25EB JUMP JUMPDEST JUMPDEST PUSH1 0x20 DUP4 ADD SWAP2 POP DUP4 PUSH1 0x1 DUP3 MUL DUP4 ADD GT ISZERO PUSH2 0x2641 JUMPI PUSH2 0x2640 PUSH2 0x25EF JUMP JUMPDEST JUMPDEST SWAP3 POP SWAP3 SWAP1 POP JUMP JUMPDEST PUSH0 PUSH0 PUSH0 PUSH0 PUSH0 PUSH0 PUSH1 0xA0 DUP8 DUP10 SUB SLT ISZERO PUSH2 0x2662 JUMPI PUSH2 0x2661 PUSH2 0x2561 JUMP JUMPDEST JUMPDEST PUSH0 PUSH2 0x266F DUP10 DUP3 DUP11 ADD PUSH2 0x257F JUMP JUMPDEST SWAP7 POP POP PUSH1 0x20 PUSH2 0x2680 DUP10 DUP3 DUP11 ADD PUSH2 0x25A9 JUMP JUMPDEST SWAP6 POP POP PUSH1 0x40 PUSH2 0x2691 DUP10 DUP3 DUP11 ADD PUSH2 0x25A9 JUMP JUMPDEST SWAP5 POP POP PUSH1 0x60 PUSH2 0x26A2 DUP10 DUP3 DUP11 ADD PUSH2 0x25D3 JUMP JUMPDEST SWAP4 POP POP PUSH1 0x80 DUP8 ADD CALLDATALOAD PUSH8 0xFFFFFFFFFFFFFFFF DUP2 GT ISZERO PUSH2 0x26C3 JUMPI PUSH2 0x26C2 PUSH2 0x2565 JUMP JUMPDEST JUMPDEST PUSH2 0x26CF DUP10 DUP3 DUP11 ADD PUSH2 0x25F3 JUMP JUMPDEST SWAP3 POP SWAP3 POP POP SWAP3 SWAP6 POP SWAP3 SWAP6 POP SWAP3 SWAP6 JUMP JUMPDEST PUSH0 DUP2 SWAP1 POP SWAP2 SWAP1 POP JUMP JUMPDEST PUSH2 0x26F0 DUP2 PUSH2 0x26DE JUMP JUMPDEST DUP3 MSTORE POP POP JUMP JUMPDEST PUSH0 PUSH1 0x40 DUP3 ADD SWAP1 POP PUSH2 0x2709 PUSH0 DUP4 ADD DUP6 PUSH2 0x26E7 JUMP JUMPDEST PUSH2 0x2716 PUSH1 0x20 DUP4 ADD DUP5 PUSH2 0x26E7 JUMP JUMPDEST SWAP4 SWAP3 POP POP POP JUMP JUMPDEST PUSH0 DUP2 SWAP1 POP SWAP2 SWAP1 POP JUMP JUMPDEST PUSH2 0x272F DUP2 PUSH2 0x271D JUMP JUMPDEST DUP2 EQ PUSH2 0x2739 JUMPI PUSH0 PUSH0 REVERT JUMPDEST POP JUMP JUMPDEST PUSH0 DUP2 CALLDATALOAD SWAP1 POP PUSH2 0x274A DUP2 PUSH2 0x2726 JUMP JUMPDEST SWAP3 SWAP2 POP POP JUMP JUMPDEST PUSH0 PUSH1 0x20 DUP3 DUP5 SUB SLT ISZERO PUSH2 0x2765 JUMPI PUSH2 0x2764 PUSH2 0x2561 JUMP JUMPDEST JUMPDEST PUSH0 PUSH2 0x2772 DUP5 DUP3 DUP6 ADD PUSH2 0x273C JUMP JUMPDEST SWAP2 POP POP SWAP3 SWAP2 POP POP JUMP JUMPDEST PUSH0 DUP2 PUSH1 0x1 SIGNEXTEND SWAP1 POP SWAP2 SWAP1 POP JUMP JUMPDEST PUSH2 0x2790 DUP2 PUSH2 0x277B JUMP JUMPDEST DUP2 EQ PUSH2 0x279A JUMPI PUSH0 PUSH0 REVERT JUMPDEST POP JUMP JUMPDEST PUSH0 DUP2 CALLDATALOAD SWAP1 POP PUSH2 0x27AB DUP2 PUSH2 0x2787 JUMP JUMPDEST SWAP3 SWAP2 POP POP JUMP JUMPDEST PUSH0 PUSH1 0x20 DUP3 DUP5 SUB SLT ISZERO PUSH2 0x27C6 JUMPI PUSH2 0x27C5 PUSH2 0x2561 JUMP JUMPDEST JUMPDEST PUSH0 PUSH2 0x27D3 DUP5 DUP3 DUP6 ADD PUSH2 0x279D JUMP JUMPDEST SWAP2 POP POP SWAP3 SWAP2 POP POP JUMP JUMPDEST PUSH0 PUSH1 0x20 DUP3 ADD SWAP1 POP PUSH2 0x27EF PUSH0 DUP4 ADD DUP5 PUSH2 0x26E7 JUMP JUMPDEST SWAP3 SWAP2 POP POP JUMP JUMPDEST PUSH0 DUP2 ISZERO ISZERO SWAP1 POP SWAP2 SWAP1 POP JUMP JUMPDEST PUSH2 0x2809 DUP2 PUSH2 0x27F5 JUMP JUMPDEST DUP2 EQ PUSH2 0x2813 JUMPI PUSH0 PUSH0 REVERT JUMPDEST POP JUMP JUMPDEST PUSH0 DUP2 CALLDATALOAD SWAP1 POP PUSH2 0x2824 DUP2 PUSH2 0x2800 JUMP JUMPDEST SWAP3 SWAP2 POP POP JUMP JUMPDEST PUSH2 0x2833 DUP2 PUSH2 0x26DE JUMP JUMPDEST DUP2 EQ PUSH2 0x283D JUMPI PUSH0 PUSH0 REVERT JUMPDEST POP JUMP JUMPDEST PUSH0 DUP2 CALLDATALOAD SWAP1 POP PUSH2 0x284E DUP2 PUSH2 0x282A JUMP JUMPDEST SWAP3 SWAP2 POP POP JUMP JUMPDEST PUSH0 PUSH0 PUSH0 PUSH0 PUSH0 PUSH1 0x80 DUP7 DUP9 SUB SLT ISZERO PUSH2 0x286D JUMPI PUSH2 0x286C PUSH2 0x2561 JUMP JUMPDEST JUMPDEST PUSH0 PUSH2 0x287A DUP9 DUP3 DUP10 ADD PUSH2 0x257F JUMP JUMPDEST SWAP6 POP POP PUSH1 0x20 PUSH2 0x288B DUP9 DUP3 DUP10 ADD PUSH2 0x2816 JUMP JUMPDEST SWAP5 POP POP PUSH1 0x40 PUSH2 0x289C DUP9 DUP3 DUP10 ADD PUSH2 0x2840 JUMP JUMPDEST SWAP4 POP POP PUSH1 0x60 DUP7 ADD CALLDATALOAD PUSH8 0xFFFFFFFFFFFFFFFF DUP2 GT ISZERO PUSH2 0x28BD JUMPI PUSH2 0x28BC PUSH2 0x2565 JUMP JUMPDEST JUMPDEST PUSH2 0x28C9 DUP9 DUP3 DUP10 ADD PUSH2 0x25F3 JUMP JUMPDEST SWAP3 POP SWAP3 POP POP SWAP3 SWAP6 POP SWAP3 SWAP6 SWAP1 SWAP4 POP JUMP JUMPDEST PUSH0 DUP2 SWAP1 POP SWAP2 SWAP1 POP JUMP JUMPDEST PUSH2 0x28EA DUP2 PUSH2 0x28D8 JUMP JUMPDEST DUP3 MSTORE POP POP JUMP JUMPDEST PUSH0 PUSH1 0x40 DUP3 ADD SWAP1 POP PUSH2 0x2903 PUSH0 DUP4 ADD DUP6 PUSH2 0x28E1 JUMP JUMPDEST PUSH2 0x2910 PUSH1 0x20 DUP4 ADD DUP5 PUSH2 0x28E1 JUMP JUMPDEST SWAP4 SWAP3 POP POP POP JUMP JUMPDEST PUSH0 PUSH1 0x20 DUP3 DUP5 SUB SLT ISZERO PUSH2 0x292C JUMPI PUSH2 0x292B PUSH2 0x2561 JUMP JUMPDEST JUMPDEST PUSH0 PUSH2 0x2939 DUP5 DUP3 DUP6 ADD PUSH2 0x25A9 JUMP JUMPDEST SWAP2 POP POP SWAP3 SWAP2 POP POP JUMP JUMPDEST PUSH2 0x294B DUP2 PUSH2 0x27F5 JUMP JUMPDEST DUP3 MSTORE POP POP JUMP JUMPDEST PUSH0 PUSH1 0x40 DUP3 ADD SWAP1 POP PUSH2 0x2964 PUSH0 DUP4 ADD DUP6 PUSH2 0x2942 JUMP JUMPDEST PUSH2 0x2971 PUSH1 0x20 DUP4 ADD DUP5 PUSH2 0x24E8 JUMP JUMPDEST SWAP4 SWAP3 POP POP POP JUMP JUMPDEST PUSH32 0x4E487B7100000000000000000000000000000000000000000000000000000000 PUSH0 MSTORE PUSH1 0x11 PUSH1 0x4 MSTORE PUSH1 0x24 PUSH0 REVERT JUMPDEST PUSH0 PUSH2 0x29AF DUP3 PUSH2 0x251F JUMP JUMPDEST SWAP2 POP PUSH32 0xFFFFFFFFFFFFFFFFFFFFFFFFFFFFFFFFFFFFFFFFFFFFFFFFFFFFFFFFFF800000 DUP3 SUB PUSH2 0x29E1 JUMPI PUSH2 0x29E0 PUSH2 0x2978 JUMP JUMPDEST JUMPDEST DUP2 PUSH0 SUB SWAP1 POP SWAP2 SWAP1 POP JUMP JUMPDEST PUSH0 PUSH2 0x29F5 DUP3 PUSH2 0x24CD JUMP JUMPDEST SWAP2 POP PUSH2 0x2A00 DUP4 PUSH2 0x24CD JUMP JUMPDEST SWAP3 POP DUP3 DUP3 ADD SWAP1 POP PUSH16 0xFFFFFFFFFFFFFFFFFFFFFFFFFFFFFFFF DUP2 GT ISZERO PUSH2 0x2A28 JUMPI PUSH2 0x2A27 PUSH2 0x2978 JUMP JUMPDEST JUMPDEST SWAP3 SWAP2 POP POP JUMP JUMPDEST PUSH0 DUP3 DUP3 MSTORE PUSH1 0x20 DUP3 ADD SWAP1 POP SWAP3 SWAP2 POP POP JUMP JUMPDEST DUP3 DUP2 DUP4 CALLDATACOPY PUSH0 DUP4 DUP4 ADD MSTORE POP POP POP JUMP JUMPDEST PUSH0 PUSH1 0x1F NOT PUSH1 0x1F DUP4 ADD AND SWAP1 POP SWAP2 SWAP1 POP JUMP JUMPDEST PUSH0 PUSH2 0x2A67 DUP4 DUP6 PUSH2 0x2A2E JUMP JUMPDEST SWAP4 POP PUSH2 0x2A74 DUP4 DUP6 DUP5 PUSH2 0x2A3E JUMP JUMPDEST PUSH2 0x2A7D DUP4 PUSH2 0x2A4C JUMP JUMPDEST DUP5 ADD SWAP1 POP SWAP4 SWAP3 POP POP POP JUMP JUMPDEST PUSH0 PUSH1 0x60 DUP3 ADD SWAP1 POP PUSH2 0x2A9B PUSH0 DUP4 ADD DUP8 PUSH2 0x26E7 JUMP JUMPDEST PUSH2 0x2AA8 PUSH1 0x20 DUP4 ADD DUP7 PUSH2 0x26E7 JUMP JUMPDEST DUP2 DUP2 SUB PUSH1 0x40 DUP4 ADD MSTORE PUSH2 0x2ABB DUP2 DUP5 DUP7 PUSH2 0x2A5C JUMP JUMPDEST SWAP1 POP SWAP6 SWAP5 POP POP POP POP POP JUMP JUMPDEST PUSH0 PUSH2 0x2AD0 DUP3 PUSH2 0x26DE JUMP JUMPDEST SWAP2 POP PUSH2 0x2ADB DUP4 PUSH2 0x26DE JUMP JUMPDEST SWAP3 POP DUP3 DUP3 ADD SWAP1 POP DUP1 DUP3 GT ISZERO PUSH2 0x2AF3 JUMPI PUSH2 0x2AF2 PUSH2 0x2978 JUMP JUMPDEST JUMPDEST SWAP3 SWAP2 POP POP JUMP JUMPDEST PUSH0 PUSH1 0x80 DUP3 ADD SWAP1 POP PUSH2 0x2B0C PUSH0 DUP4 ADD DUP8 PUSH2 0x24A5 JUMP JUMPDEST PUSH2 0x2B19 PUSH1 0x20 DUP4 ADD DUP7 PUSH2 0x24E8 JUMP JUMPDEST PUSH2 0x2B26 PUSH1 0x40 DUP4 ADD DUP6 PUSH2 0x26E7 JUMP JUMPDEST PUSH2 0x2B33 PUSH1 0x60 DUP4 ADD DUP5 PUSH2 0x26E7 JUMP JUMPDEST SWAP6 SWAP5 POP POP POP POP POP JUMP JUMPDEST PUSH0 PUSH2 0x2B46 DUP3 PUSH2 0x26DE JUMP JUMPDEST SWAP2 POP PUSH2 0x2B51 DUP4 PUSH2 0x26DE JUMP JUMPDEST SWAP3 POP DUP3 DUP3 SUB SWAP1 POP DUP2 DUP2 GT ISZERO PUSH2 0x2B69 JUMPI PUSH2 0x2B68 PUSH2 0x2978 JUMP JUMPDEST JUMPDEST SWAP3 SWAP2 POP POP JUMP JUMPDEST PUSH0 PUSH2 0x2B79 DUP3 PUSH2 0x28D8 JUMP JUMPDEST SWAP2 POP PUSH32 0x8000000000000000000000000000000000000000000000000000000000000000 DUP3 SUB PUSH2 0x2BAB JUMPI PUSH2 0x2BAA PUSH2 0x2978 JUMP JUMPDEST JUMPDEST DUP2 PUSH0 SUB SWAP1 POP SWAP2 SWAP1 POP JUMP JUMPDEST PUSH0 PUSH1 0x40 DUP3 ADD SWAP1 POP PUSH2 0x2BC8 PUSH0 DUP4 ADD DUP6 PUSH2 0x24A5 JUMP JUMPDEST PUSH2 0x2BD5 PUSH1 0x20 DUP4 ADD DUP5 PUSH2 0x26E7 JUMP JUMPDEST SWAP4 SWAP3 POP POP POP JUMP JUMPDEST PUSH0 DUP2 MLOAD SWAP1 POP PUSH2 0x2BEA DUP2 PUSH2 0x2800 JUMP JUMPDEST SWAP3 SWAP2 POP POP JUMP JUMPDEST PUSH0 PUSH1 0x20 DUP3 DUP5 SUB SLT ISZERO PUSH2 0x2C05 JUMPI PUSH2 0x2C04 PUSH2 0x2561 JUMP JUMPDEST JUMPDEST PUSH0 PUSH2 0x2C12 DUP5 DUP3 DUP6 ADD PUSH2 0x2BDC JUMP JUMPDEST SWAP2 POP POP SWAP3 SWAP2 POP POP JUMP JUMPDEST PUSH0 PUSH1 0x60 DUP3 ADD SWAP1 POP PUSH2 0x2C2E PUSH0 DUP4 ADD DUP8 PUSH2 0x28E1 JUMP JUMPDEST PUSH2 0x2C3B PUSH1 0x20 DUP4 ADD DUP7 PUSH2 0x28E1 JUMP JUMPDEST DUP2 DUP2 SUB PUSH1 0x40 DUP4 ADD MSTORE PUSH2 0x2C4E DUP2 DUP5 DUP7 PUSH2 0x2A5C JUMP JUMPDEST SWAP1 POP SWAP6 SWAP5 POP POP POP POP POP JUMP JUMPDEST PUSH0 PUSH1 0xA0 DUP3 ADD SWAP1 POP PUSH2 0x2C6C PUSH0 DUP4 ADD DUP9 PUSH2 0x28E1 JUMP JUMPDEST PUSH2 0x2C79 PUSH1 0x20 DUP4 ADD DUP8 PUSH2 0x28E1 JUMP JUMPDEST PUSH2 0x2C86 PUSH1 0x40 DUP4 ADD DUP7 PUSH2 0x2510 JUMP JUMPDEST PUSH2 0x2C93 PUSH1 0x60 DUP4 ADD DUP6 PUSH2 0x24E8 JUMP JUMPDEST PUSH2 0x2CA0 PUSH1 0x80 DUP4 ADD DUP5 PUSH2 0x252B JUMP JUMPDEST SWAP7 SWAP6 POP POP POP POP POP POP JUMP JUMPDEST PUSH32 0x4E487B7100000000000000000000000000000000000000000000000000000000 PUSH0 MSTORE PUSH1 0x12 PUSH1 0x4 MSTORE PUSH1 0x24 PUSH0 REVERT JUMPDEST PUSH0 PUSH2 0x2CE1 DUP3 PUSH2 0x251F JUMP JUMPDEST SWAP2 POP PUSH2 0x2CEC DUP4 PUSH2 0x251F JUMP JUMPDEST SWAP3 POP DUP3 PUSH2 0x2CFC JUMPI PUSH2 0x2CFB PUSH2 0x2CAA JUMP JUMPDEST JUMPDEST DUP3 DUP3 SMOD SWAP1 POP SWAP3 SWAP2 POP POP JUMP JUMPDEST PUSH0 PUSH2 0x2D11 DUP3 PUSH2 0x251F JUMP JUMPDEST SWAP2 POP PUSH2 0x2D1C DUP4 PUSH2 0x251F JUMP JUMPDEST SWAP3 POP DUP3 PUSH2 0x2D2C JUMPI PUSH2 0x2D2B PUSH2 0x2CAA JUMP JUMPDEST JUMPDEST PUSH1 0x1 PUSH0 SUB DUP4 EQ PUSH32 0xFFFFFFFFFFFFFFFFFFFFFFFFFFFFFFFFFFFFFFFFFFFFFFFFFFFFFFFFFF800000 DUP4 EQ AND ISZERO PUSH2 0x2D64 JUMPI PUSH2 0x2D63 PUSH2 0x2978 JUMP JUMPDEST JUMPDEST DUP3 DUP3 SDIV SWAP1 POP SWAP3 SWAP2 POP POP JUMP JUMPDEST PUSH0 DUP2 PUSH1 0x60 SHL SWAP1 POP SWAP2 SWAP1 POP JUMP JUMPDEST PUSH0 PUSH2 0x2D85 DUP3 PUSH2 0x2D6F JUMP JUMPDEST SWAP1 POP SWAP2 SWAP1 POP JUMP JUMPDEST PUSH0 PUSH2 0x2D96 DUP3 PUSH2 0x2D7B JUMP JUMPDEST SWAP1 POP SWAP2 SWAP1 POP JUMP JUMPDEST PUSH2 0x2DAE PUSH2 0x2DA9 DUP3 PUSH2 0x2494 JUMP JUMPDEST PUSH2 0x2D8C JUMP JUMPDEST DUP3 MSTORE POP POP JUMP JUMPDEST PUSH0 DUP2 PUSH1 0xE8 SHL SWAP1 POP SWAP2 SWAP1 POP JUMP JUMPDEST PUSH0 PUSH2 0x2DCA DUP3 PUSH2 0x2DB4 JUMP JUMPDEST SWAP1 POP SWAP2 SWAP1 POP JUMP JUMPDEST PUSH2 0x2DE2 PUSH2 0x2DDD DUP3 PUSH2 0x251F JUMP JUMPDEST PUSH2 0x2DC0 JUMP JUMPDEST DUP3 MSTORE POP POP JUMP JUMPDEST PUSH0 PUSH2 0x2DF3 DUP3 DUP7 PUSH2 0x2D9D JUMP JUMPDEST PUSH1 0x14 DUP3 ADD SWAP2 POP PUSH2 0x2E03 DUP3 DUP6 PUSH2 0x2DD1 JUMP JUMPDEST PUSH1 0x3 DUP3 ADD SWAP2 POP PUSH2 0x2E13 DUP3 DUP5 PUSH2 0x2DD1 JUMP JUMPDEST PUSH1 0x3 DUP3 ADD SWAP2 POP DUP2 SWAP1 POP SWAP5 SWAP4 POP POP POP POP JUMP JUMPDEST PUSH0 DUP3 DUP3 MSTORE PUSH1 0x20 DUP3 ADD SWAP1 POP SWAP3 SWAP2 POP POP JUMP JUMPDEST PUSH32 0x5400000000000000000000000000000000000000000000000000000000000000 PUSH0 DUP3 ADD MSTORE POP JUMP JUMPDEST PUSH0 PUSH2 0x2E68 PUSH1 0x1 DUP4 PUSH2 0x2E24 JUMP JUMPDEST SWAP2 POP PUSH2 0x2E73 DUP3 PUSH2 0x2E34 JUMP JUMPDEST PUSH1 0x20 DUP3 ADD SWAP1 POP SWAP2 SWAP1 POP JUMP JUMPDEST PUSH0 PUSH1 0x20 DUP3 ADD SWAP1 POP DUP2 DUP2 SUB PUSH0 DUP4 ADD MSTORE PUSH2 0x2E95 DUP2 PUSH2 0x2E5C JUMP JUMPDEST SWAP1 POP SWAP2 SWAP1 POP JUMP JUMPDEST PUSH0 PUSH2 0x2EA6 DUP3 PUSH2 0x26DE JUMP JUMPDEST SWAP2 POP PUSH2 0x2EB1 DUP4 PUSH2 0x26DE JUMP JUMPDEST SWAP3 POP DUP3 DUP3 MUL PUSH2 0x2EBF DUP2 PUSH2 0x26DE JUMP JUMPDEST SWAP2 POP DUP3 DUP3 DIV DUP5 EQ DUP4 ISZERO OR PUSH2 0x2ED6 JUMPI PUSH2 0x2ED5 PUSH2 0x2978 JUMP JUMPDEST JUMPDEST POP SWAP3 SWAP2 POP POP JUMP JUMPDEST PUSH0 PUSH2 0x2EE7 DUP3 PUSH2 0x26DE JUMP JUMPDEST SWAP2 POP PUSH2 0x2EF2 DUP4 PUSH2 0x26DE JUMP JUMPDEST SWAP3 POP DUP3 PUSH2 0x2F02 JUMPI PUSH2 0x2F01 PUSH2 0x2CAA JUMP JUMPDEST JUMPDEST DUP3 DUP3 DIV SWAP1 POP SWAP3 SWAP2 POP POP JUMP JUMPDEST PUSH0 PUSH2 0x2F17 DUP3 PUSH2 0x26DE JUMP JUMPDEST SWAP2 POP PUSH2 0x2F22 DUP4 PUSH2 0x26DE JUMP JUMPDEST SWAP3 POP DUP3 PUSH2 0x2F32 JUMPI PUSH2 0x2F31 PUSH2 0x2CAA JUMP JUMPDEST JUMPDEST DUP3 DUP3 MOD SWAP1 POP SWAP3 SWAP2 POP POP JUMP JUMPDEST PUSH0 PUSH2 0x2F47 DUP3 PUSH2 0x2475 JUMP JUMPDEST SWAP2 POP PUSH2 0x2F52 DUP4 PUSH2 0x2475 JUMP JUMPDEST SWAP3 POP DUP3 DUP3 SUB SWAP1 POP PUSH20 0xFFFFFFFFFFFFFFFFFFFFFFFFFFFFFFFFFFFFFFFF DUP2 GT ISZERO PUSH2 0x2F7E JUMPI PUSH2 0x2F7D PUSH2 0x2978 JUMP JUMPDEST JUMPDEST SWAP3 SWAP2 POP POP JUMP JUMPDEST PUSH0 DUP2 MLOAD SWAP1 POP PUSH2 0x2F92 DUP2 PUSH2 0x282A JUMP JUMPDEST SWAP3 SWAP2 POP POP JUMP JUMPDEST PUSH0 PUSH1 0x20 DUP3 DUP5 SUB SLT ISZERO PUSH2 0x2FAD JUMPI PUSH2 0x2FAC PUSH2 0x2561 JUMP JUMPDEST JUMPDEST PUSH0 PUSH2 0x2FBA DUP5 DUP3 DUP6 ADD PUSH2 0x2F84 JUMP JUMPDEST SWAP2 POP POP SWAP3 SWAP2 POP POP JUMP JUMPDEST PUSH0 PUSH2 0x2FCD DUP3 PUSH2 0x251F JUMP JUMPDEST SWAP2 POP PUSH32 0xFFFFFFFFFFFFFFFFFFFFFFFFFFFFFFFFFFFFFFFFFFFFFFFFFFFFFFFFFF800000 DUP3 SUB PUSH2 0x2FFF JUMPI PUSH2 0x2FFE PUSH2 0x2978 JUMP JUMPDEST JUMPDEST PUSH1 0x1 DUP3 SUB SWAP1 POP SWAP2 SWAP1 POP JUMP JUMPDEST PUSH0 PUSH2 0x3014 DUP3 PUSH2 0x251F JUMP JUMPDEST SWAP2 POP PUSH2 0x301F DUP4 PUSH2 0x251F JUMP JUMPDEST SWAP3 POP DUP3 DUP3 SUB SWAP1 POP PUSH3 0x7FFFFF DUP2 SGT PUSH32 0xFFFFFFFFFFFFFFFFFFFFFFFFFFFFFFFFFFFFFFFFFFFFFFFFFFFFFFFFFF800000 DUP3 SLT OR ISZERO PUSH2 0x305E JUMPI PUSH2 0x305D PUSH2 0x2978 JUMP JUMPDEST JUMPDEST SWAP3 SWAP2 POP POP JUMP JUMPDEST PUSH0 PUSH2 0x306E DUP3 PUSH2 0x251F JUMP JUMPDEST SWAP2 POP PUSH2 0x3079 DUP4 PUSH2 0x251F JUMP JUMPDEST SWAP3 POP DUP3 DUP3 MUL PUSH2 0x3087 DUP2 PUSH2 0x251F JUMP JUMPDEST SWAP2 POP DUP1 DUP3 EQ PUSH2 0x3099 JUMPI PUSH2 0x3098 PUSH2 0x2978 JUMP JUMPDEST JUMPDEST POP SWAP3 SWAP2 POP POP JUMP JUMPDEST PUSH0 PUSH1 0xFF DUP3 AND SWAP1 POP SWAP2 SWAP1 POP JUMP JUMPDEST PUSH0 PUSH2 0x30B6 DUP3 PUSH2 0x30A0 JUMP JUMPDEST SWAP2 POP PUSH2 0x30C1 DUP4 PUSH2 0x30A0 JUMP JUMPDEST SWAP3 POP DUP3 DUP3 SUB SWAP1 POP PUSH1 0xFF DUP2 GT ISZERO PUSH2 0x30DA JUMPI PUSH2 0x30D9 PUSH2 0x2978 JUMP JUMPDEST JUMPDEST SWAP3 SWAP2 POP POP JUMP JUMPDEST PUSH0 PUSH2 0x30EA DUP3 PUSH2 0x251F JUMP JUMPDEST SWAP2 POP PUSH2 0x30F5 DUP4 PUSH2 0x251F JUMP JUMPDEST SWAP3 POP DUP3 DUP3 ADD SWAP1 POP PUSH32 0xFFFFFFFFFFFFFFFFFFFFFFFFFFFFFFFFFFFFFFFFFFFFFFFFFFFFFFFFFF800000 DUP2 SLT PUSH3 0x7FFFFF DUP3 SGT OR ISZERO PUSH2 0x3134 JUMPI PUSH2 0x3133 PUSH2 0x2978 JUMP JUMPDEST JUMPDEST SWAP3 SWAP2 POP POP JUMP JUMPDEST PUSH32 0x5200000000000000000000000000000000000000000000000000000000000000 PUSH0 DUP3 ADD MSTORE POP JUMP JUMPDEST PUSH0 PUSH2 0x316E PUSH1 0x1 DUP4 PUSH2 0x2E24 JUMP JUMPDEST SWAP2 POP PUSH2 0x3179 DUP3 PUSH2 0x313A JUMP JUMPDEST PUSH1 0x20 DUP3 ADD SWAP1 POP SWAP2 SWAP1 POP JUMP JUMPDEST PUSH0 PUSH1 0x20 DUP3 ADD SWAP1 POP DUP2 DUP2 SUB PUSH0 DUP4 ADD MSTORE PUSH2 0x319B DUP2 PUSH2 0x3162 JUMP JUMPDEST SWAP1 POP SWAP2 SWAP1 POP JUMP JUMPDEST PUSH0 PUSH2 0x31AC DUP3 PUSH2 0x28D8 JUMP JUMPDEST SWAP2 POP PUSH2 0x31B7 DUP4 PUSH2 0x28D8 JUMP JUMPDEST SWAP3 POP DUP3 DUP3 SUB SWAP1 POP DUP2 DUP2 SLT PUSH0 DUP5 SLT AND DUP3 DUP3 SGT PUSH0 DUP6 SLT ISZERO AND OR ISZERO PUSH2 0x31DC JUMPI PUSH2 0x31DB PUSH2 0x2978 JUMP JUMPDEST JUMPDEST SWAP3 SWAP2 POP POP JUMP JUMPDEST PUSH0 PUSH2 0x31EC DUP3 PUSH2 0x28D8 JUMP JUMPDEST SWAP2 POP PUSH2 0x31F7 DUP4 PUSH2 0x28D8 JUMP JUMPDEST SWAP3 POP DUP3 DUP3 MUL PUSH2 0x3205 DUP2 PUSH2 0x28D8 JUMP JUMPDEST SWAP2 POP PUSH32 0x8000000000000000000000000000000000000000000000000000000000000000 DUP5 EQ PUSH0 DUP5 SLT AND ISZERO PUSH2 0x323C JUMPI PUSH2 0x323B PUSH2 0x2978 JUMP JUMPDEST JUMPDEST DUP3 DUP3 SDIV DUP5 EQ DUP4 ISZERO OR PUSH2 0x3251 JUMPI PUSH2 0x3250 PUSH2 0x2978 JUMP JUMPDEST JUMPDEST POP SWAP3 SWAP2 POP POP JUMP JUMPDEST PUSH0 PUSH2 0x3262 DUP3 PUSH2 0x28D8 JUMP JUMPDEST SWAP2 POP PUSH2 0x326D DUP4 PUSH2 0x28D8 JUMP JUMPDEST SWAP3 POP DUP3 DUP3 ADD SWAP1 POP DUP3 DUP2 SLT ISZERO PUSH0 DUP4 SLT AND DUP4 DUP3 SLT PUSH0 DUP5 SLT ISZERO AND OR ISZERO PUSH2 0x3293 JUMPI PUSH2 0x3292 PUSH2 0x2978 JUMP JUMPDEST JUMPDEST SWAP3 SWAP2 POP POP JUMP JUMPDEST PUSH0 PUSH2 0x32A3 DUP3 PUSH2 0x26DE JUMP JUMPDEST SWAP2 POP PUSH32 0xFFFFFFFFFFFFFFFFFFFFFFFFFFFFFFFFFFFFFFFFFFFFFFFFFFFFFFFFFFFFFFFF DUP3 SUB PUSH2 0x32D5 JUMPI PUSH2 0x32D4 PUSH2 0x2978 JUMP JUMPDEST JUMPDEST PUSH1 0x1 DUP3 ADD SWAP1 POP SWAP2 SWAP1 POP JUMP JUMPDEST PUSH0 PUSH2 0x32EA DUP3 PUSH2 0x30A0 JUMP JUMPDEST SWAP2 POP PUSH2 0x32F5 DUP4 PUSH2 0x30A0 JUMP JUMPDEST SWAP3 POP DUP3 DUP3 ADD SWAP1 POP PUSH1 0xFF DUP2 GT ISZERO PUSH2 0x330E JUMPI PUSH2 0x330D PUSH2 0x2978 JUMP JUMPDEST JUMPDEST SWAP3 SWAP2 POP POP JUMP JUMPDEST PUSH32 0x5052424D6174683A206F766572666C6F77000000000000000000000000000000 PUSH0 DUP3 ADD MSTORE POP JUMP JUMPDEST PUSH0 PUSH2 0x3348 PUSH1 0x11 DUP4 PUSH2 0x2E24 JUMP JUMPDEST SWAP2 POP PUSH2 0x3353 DUP3 PUSH2 0x3314 JUMP JUMPDEST PUSH1 0x20 DUP3 ADD SWAP1 POP SWAP2 SWAP1 POP JUMP JUMPDEST PUSH0 PUSH1 0x20 DUP3 ADD SWAP1 POP DUP2 DUP2 SUB PUSH0 DUP4 ADD MSTORE PUSH2 0x3375 DUP2 PUSH2 0x333C JUMP JUMPDEST SWAP1 POP SWAP2 SWAP1 POP JUMP JUMPDEST PUSH0 PUSH2 0x3386 DUP3 PUSH2 0x2475 JUMP JUMPDEST SWAP2 POP PUSH2 0x3391 DUP4 PUSH2 0x2475 JUMP JUMPDEST SWAP3 POP DUP3 DUP3 ADD SWAP1 POP PUSH20 0xFFFFFFFFFFFFFFFFFFFFFFFFFFFFFFFFFFFFFFFF DUP2 GT ISZERO PUSH2 0x33BD JUMPI PUSH2 0x33BC PUSH2 0x2978 JUMP JUMPDEST JUMPDEST SWAP3 SWAP2 POP POP JUMP INVALID LOG2 PUSH5 0x6970667358 0x22 SLT KECCAK256 ADD CREATE2 PUSH10 0xD86AA03A33D1BD9400BC EXP DATALOADN 0xA8F0 0x23 SDIV DUP3 0x2C POP PUSH16 0x18C435F7FFE893569A64736F6C634300 ADDMOD 0x1E STOP CALLER "
		},
		"gasEstimates": {
			"creation": {
				"codeDepositCost": "2661000",
				"executionCost": "infinite",
				"totalCost": "infinite"
			},
			"external": {
				"liquidity()": "2489",
				"mint(address,int24,int24,uint128,bytes)": "infinite",
				"positions(bytes32)": "2808",
				"slot0()": "4829",
				"swap(address,bool,uint256,bytes)": "infinite",
				"tickBitmap(int16)": "2784",
				"ticks(int24)": "5206",
				"token0()": "infinite",
				"token1()": "infinite"
			},
			"internal": {
				"balance0()": "infinite",
				"balance1()": "infinite"
			}
		},
		"methodIdentifiers": {
			"liquidity()": "1a686502",
			"mint(address,int24,int24,uint128,bytes)": "3c8a7d8d",
			"positions(bytes32)": "514ea4bf",
			"slot0()": "3850c7bd",
			"swap(address,bool,uint256,bytes)": "80c2c6ef",
			"tickBitmap(int16)": "5339c296",
			"ticks(int24)": "f30dba93",
			"token0()": "0dfe1681",
			"token1()": "d21220a7"
		}
	},
	"abi": [
		{
			"inputs": [
				{
					"internalType": "address",
					"name": "token0_",
					"type": "address"
				},
				{
					"internalType": "address",
					"name": "token1_",
					"type": "address"
				},
				{
					"internalType": "uint160",
					"name": "sqrtPriceX96",
					"type": "uint160"
				},
				{
					"internalType": "int24",
					"name": "tick",
					"type": "int24"
				}
			],
			"stateMutability": "nonpayable",
			"type": "constructor"
		},
		{
			"inputs": [],
			"name": "InsufficientInputAmount",
			"type": "error"
		},
		{
			"inputs": [],
			"name": "InvalidTickRange",
			"type": "error"
		},
		{
			"inputs": [],
			"name": "ZeroLiquidity",
			"type": "error"
		},
		{
			"anonymous": false,
			"inputs": [
				{
					"indexed": true,
					"internalType": "address",
					"name": "owner",
					"type": "address"
				},
				{
					"indexed": true,
					"internalType": "int24",
					"name": "tickLower",
					"type": "int24"
				},
				{
					"indexed": true,
					"internalType": "int24",
					"name": "tickUpper",
					"type": "int24"
				},
				{
					"indexed": false,
					"internalType": "uint128",
					"name": "amount",
					"type": "uint128"
				},
				{
					"indexed": false,
					"internalType": "uint256",
					"name": "amount0",
					"type": "uint256"
				},
				{
					"indexed": false,
					"internalType": "uint256",
					"name": "amount1",
					"type": "uint256"
				}
			],
			"name": "Burn",
			"type": "event"
		},
		{
			"anonymous": false,
			"inputs": [
				{
					"indexed": true,
					"internalType": "address",
					"name": "owner",
					"type": "address"
				},
				{
					"indexed": false,
					"internalType": "address",
					"name": "recipient",
					"type": "address"
				},
				{
					"indexed": true,
					"internalType": "int24",
					"name": "tickLower",
					"type": "int24"
				},
				{
					"indexed": true,
					"internalType": "int24",
					"name": "tickUpper",
					"type": "int24"
				},
				{
					"indexed": false,
					"internalType": "uint128",
					"name": "amount0",
					"type": "uint128"
				},
				{
					"indexed": false,
					"internalType": "uint128",
					"name": "amount1",
					"type": "uint128"
				}
			],
			"name": "Collect",
			"type": "event"
		},
		{
			"anonymous": false,
			"inputs": [
				{
					"indexed": true,
					"internalType": "address",
					"name": "sender",
					"type": "address"
				},
				{
					"indexed": true,
					"internalType": "address",
					"name": "recipient",
					"type": "address"
				},
				{
					"indexed": false,
					"internalType": "uint128",
					"name": "amount0",
					"type": "uint128"
				},
				{
					"indexed": false,
					"internalType": "uint128",
					"name": "amount1",
					"type": "uint128"
				}
			],
			"name": "CollectProtocol",
			"type": "event"
		},
		{
			"anonymous": false,
			"inputs": [
				{
					"indexed": true,
					"internalType": "address",
					"name": "sender",
					"type": "address"
				},
				{
					"indexed": true,
					"internalType": "address",
					"name": "recipient",
					"type": "address"
				},
				{
					"indexed": false,
					"internalType": "uint256",
					"name": "amount0",
					"type": "uint256"
				},
				{
					"indexed": false,
					"internalType": "uint256",
					"name": "amount1",
					"type": "uint256"
				},
				{
					"indexed": false,
					"internalType": "uint256",
					"name": "paid0",
					"type": "uint256"
				},
				{
					"indexed": false,
					"internalType": "uint256",
					"name": "paid1",
					"type": "uint256"
				}
			],
			"name": "Flash",
			"type": "event"
		},
		{
			"anonymous": false,
			"inputs": [
				{
					"indexed": false,
					"internalType": "uint16",
					"name": "observationCardinalityNextOld",
					"type": "uint16"
				},
				{
					"indexed": false,
					"internalType": "uint16",
					"name": "observationCardinalityNextNew",
					"type": "uint16"
				}
			],
			"name": "IncreaseObservationCardinalityNext",
			"type": "event"
		},
		{
			"anonymous": false,
			"inputs": [
				{
					"indexed": false,
					"internalType": "uint160",
					"name": "sqrtPriceX96",
					"type": "uint160"
				},
				{
					"indexed": false,
					"internalType": "int24",
					"name": "tick",
					"type": "int24"
				}
			],
			"name": "Initialize",
			"type": "event"
		},
		{
			"anonymous": false,
			"inputs": [
				{
					"indexed": false,
					"internalType": "address",
					"name": "sender",
					"type": "address"
				},
				{
					"indexed": true,
					"internalType": "address",
					"name": "owner",
					"type": "address"
				},
				{
					"indexed": true,
					"internalType": "int24",
					"name": "tickLower",
					"type": "int24"
				},
				{
					"indexed": true,
					"internalType": "int24",
					"name": "tickUpper",
					"type": "int24"
				},
				{
					"indexed": false,
					"internalType": "uint128",
					"name": "amount",
					"type": "uint128"
				},
				{
					"indexed": false,
					"internalType": "uint256",
					"name": "amount0",
					"type": "uint256"
				},
				{
					"indexed": false,
					"internalType": "uint256",
					"name": "amount1",
					"type": "uint256"
				}
			],
			"name": "Mint",
			"type": "event"
		},
		{
			"anonymous": false,
			"inputs": [
				{
					"indexed": false,
					"internalType": "uint8",
					"name": "feeProtocol0Old",
					"type": "uint8"
				},
				{
					"indexed": false,
					"internalType": "uint8",
					"name": "feeProtocol1Old",
					"type": "uint8"
				},
				{
					"indexed": false,
					"internalType": "uint8",
					"name": "feeProtocol0New",
					"type": "uint8"
				},
				{
					"indexed": false,
					"internalType": "uint8",
					"name": "feeProtocol1New",
					"type": "uint8"
				}
			],
			"name": "SetFeeProtocol",
			"type": "event"
		},
		{
			"anonymous": false,
			"inputs": [
				{
					"indexed": true,
					"internalType": "address",
					"name": "sender",
					"type": "address"
				},
				{
					"indexed": true,
					"internalType": "address",
					"name": "recipient",
					"type": "address"
				},
				{
					"indexed": false,
					"internalType": "int256",
					"name": "amount0",
					"type": "int256"
				},
				{
					"indexed": false,
					"internalType": "int256",
					"name": "amount1",
					"type": "int256"
				},
				{
					"indexed": false,
					"internalType": "uint160",
					"name": "sqrtPriceX96",
					"type": "uint160"
				},
				{
					"indexed": false,
					"internalType": "uint128",
					"name": "liquidity",
					"type": "uint128"
				},
				{
					"indexed": false,
					"internalType": "int24",
					"name": "tick",
					"type": "int24"
				}
			],
			"name": "Swap",
			"type": "event"
		},
		{
			"inputs": [],
			"name": "liquidity",
			"outputs": [
				{
					"internalType": "uint128",
					"name": "",
					"type": "uint128"
				}
			],
			"stateMutability": "view",
			"type": "function"
		},
		{
			"inputs": [
				{
					"internalType": "address",
					"name": "owner",
					"type": "address"
				},
				{
					"internalType": "int24",
					"name": "lowerTick",
					"type": "int24"
				},
				{
					"internalType": "int24",
					"name": "upperTick",
					"type": "int24"
				},
				{
					"internalType": "uint128",
					"name": "amount",
					"type": "uint128"
				},
				{
					"internalType": "bytes",
					"name": "data",
					"type": "bytes"
				}
			],
			"name": "mint",
			"outputs": [
				{
					"internalType": "uint256",
					"name": "amount0",
					"type": "uint256"
				},
				{
					"internalType": "uint256",
					"name": "amount1",
					"type": "uint256"
				}
			],
			"stateMutability": "nonpayable",
			"type": "function"
		},
		{
			"inputs": [
				{
					"internalType": "bytes32",
					"name": "",
					"type": "bytes32"
				}
			],
			"name": "positions",
			"outputs": [
				{
					"internalType": "uint128",
					"name": "liquidity",
					"type": "uint128"
				}
			],
			"stateMutability": "view",
			"type": "function"
		},
		{
			"inputs": [],
			"name": "slot0",
			"outputs": [
				{
					"internalType": "uint160",
					"name": "sqrtPriceX96",
					"type": "uint160"
				},
				{
					"internalType": "int24",
					"name": "tick",
					"type": "int24"
				}
			],
			"stateMutability": "view",
			"type": "function"
		},
		{
			"inputs": [
				{
					"internalType": "address",
					"name": "recipient",
					"type": "address"
				},
				{
					"internalType": "bool",
					"name": "zeroForOne",
					"type": "bool"
				},
				{
					"internalType": "uint256",
					"name": "amountSpecified",
					"type": "uint256"
				},
				{
					"internalType": "bytes",
					"name": "data",
					"type": "bytes"
				}
			],
			"name": "swap",
			"outputs": [
				{
					"internalType": "int256",
					"name": "amount0",
					"type": "int256"
				},
				{
					"internalType": "int256",
					"name": "amount1",
					"type": "int256"
				}
			],
			"stateMutability": "nonpayable",
			"type": "function"
		},
		{
			"inputs": [
				{
					"internalType": "int16",
					"name": "",
					"type": "int16"
				}
			],
			"name": "tickBitmap",
			"outputs": [
				{
					"internalType": "uint256",
					"name": "",
					"type": "uint256"
				}
			],
			"stateMutability": "view",
			"type": "function"
		},
		{
			"inputs": [
				{
					"internalType": "int24",
					"name": "",
					"type": "int24"
				}
			],
			"name": "ticks",
			"outputs": [
				{
					"internalType": "bool",
					"name": "initialized",
					"type": "bool"
				},
				{
					"internalType": "uint128",
					"name": "liquidity",
					"type": "uint128"
				}
			],
			"stateMutability": "view",
			"type": "function"
		},
		{
			"inputs": [],
			"name": "token0",
			"outputs": [
				{
					"internalType": "address",
					"name": "",
					"type": "address"
				}
			],
			"stateMutability": "view",
			"type": "function"
		},
		{
			"inputs": [],
			"name": "token1",
			"outputs": [
				{
					"internalType": "address",
					"name": "",
					"type": "address"
				}
			],
			"stateMutability": "view",
			"type": "function"
		}
	]
}